{"contracts/CryptoDonationPlatform.sol":{"NGOFunding":{"abi":[{"inputs":[],"stateMutability":"nonpayable","type":"constructor"},{"anonymous":false,"inputs":[{"indexed":false,"internalType":"uint256","name":"taskId","type":"uint256"},{"indexed":false,"internalType":"address","name":"donor","type":"address"},{"indexed":false,"internalType":"uint256","name":"amount","type":"uint256"},{"indexed":false,"internalType":"uint256","name":"donationId","type":"uint256"}],"name":"Donated","type":"event"},{"anonymous":false,"inputs":[{"indexed":false,"internalType":"address","name":"ngo","type":"address"},{"indexed":false,"internalType":"string","name":"name","type":"string"}],"name":"NGORegistered","type":"event"},{"anonymous":false,"inputs":[{"indexed":false,"internalType":"address","name":"ngo","type":"address"},{"indexed":false,"internalType":"uint256","name":"amount","type":"uint256"}],"name":"NGOStakeWithdrawn","type":"event"},{"anonymous":false,"inputs":[{"indexed":false,"internalType":"uint256","name":"taskId","type":"uint256"},{"indexed":false,"internalType":"address","name":"ngo","type":"address"}],"name":"TaskCreated","type":"event"},{"anonymous":false,"inputs":[{"indexed":false,"internalType":"uint256","name":"taskId","type":"uint256"},{"indexed":false,"internalType":"string","name":"status","type":"string"}],"name":"TaskResolved","type":"event"},{"anonymous":false,"inputs":[{"indexed":false,"internalType":"uint256","name":"taskId","type":"uint256"},{"indexed":false,"internalType":"address","name":"voter","type":"address"},{"indexed":false,"internalType":"bool","name":"vote","type":"bool"}],"name":"Voted","type":"event"},{"anonymous":false,"inputs":[{"indexed":false,"internalType":"address","name":"voter","type":"address"},{"indexed":false,"internalType":"uint256","name":"stakedEth","type":"uint256"}],"name":"VoterRegistered","type":"event"},{"inputs":[{"internalType":"uint256","name":"_taskId","type":"uint256"}],"name":"claimVoterReward","outputs":[],"stateMutability":"nonpayable","type":"function"},{"inputs":[{"internalType":"string[]","name":"_proofLinks","type":"string[]"}],"name":"createTask","outputs":[],"stateMutability":"nonpayable","type":"function"},{"inputs":[{"internalType":"uint256","name":"_taskId","type":"uint256"}],"name":"donate","outputs":[],"stateMutability":"payable","type":"function"},{"inputs":[],"name":"getAllNGOs","outputs":[{"internalType":"address[]","name":"","type":"address[]"}],"stateMutability":"view","type":"function"},{"inputs":[],"name":"getAllNGOsWithTasks","outputs":[{"components":[{"internalType":"uint256","name":"id","type":"uint256"},{"internalType":"string","name":"name","type":"string"},{"internalType":"string","name":"description","type":"string"},{"components":[{"internalType":"uint256","name":"taskId","type":"uint256"},{"internalType":"string","name":"description","type":"string"},{"internalType":"string[]","name":"proofLinks","type":"string[]"}],"internalType":"struct NGOFunding.TaskDetails[]","name":"tasks","type":"tuple[]"}],"internalType":"struct NGOFunding.NGOWithTasks[]","name":"","type":"tuple[]"}],"stateMutability":"view","type":"function"},{"inputs":[],"name":"getAllTasks","outputs":[{"internalType":"uint256[]","name":"","type":"uint256[]"}],"stateMutability":"view","type":"function"},{"inputs":[{"internalType":"uint256","name":"_taskId","type":"uint256"}],"name":"getDonations","outputs":[{"components":[{"internalType":"address","name":"donor","type":"address"},{"internalType":"uint256","name":"amount","type":"uint256"},{"internalType":"uint256","name":"timestamp","type":"uint256"}],"internalType":"struct NGOFunding.Donation[]","name":"","type":"tuple[]"}],"stateMutability":"view","type":"function"},{"inputs":[{"internalType":"address","name":"_ngo","type":"address"}],"name":"getNGODetails","outputs":[{"internalType":"string","name":"name","type":"string"},{"internalType":"string","name":"description","type":"string"},{"internalType":"uint256","name":"stakedEth","type":"uint256"},{"internalType":"uint256[]","name":"taskIds","type":"uint256[]"}],"stateMutability":"view","type":"function"},{"inputs":[{"internalType":"address","name":"_ngo","type":"address"}],"name":"getNGOTaskStatuses","outputs":[{"internalType":"uint256[]","name":"taskIds","type":"uint256[]"},{"internalType":"string[]","name":"statuses","type":"string[]"}],"stateMutability":"view","type":"function"},{"inputs":[{"internalType":"address","name":"_ngo","type":"address"}],"name":"getNGOTotalFunds","outputs":[{"internalType":"uint256","name":"totalFunds","type":"uint256"}],"stateMutability":"view","type":"function"},{"inputs":[],"name":"getPendingTasks","outputs":[{"internalType":"uint256[]","name":"","type":"uint256[]"}],"stateMutability":"view","type":"function"},{"inputs":[{"internalType":"uint256","name":"_taskId","type":"uint256"}],"name":"getTaskDetails","outputs":[{"internalType":"address","name":"ngo","type":"address"},{"internalType":"string[]","name":"proofLinks","type":"string[]"},{"internalType":"string","name":"status","type":"string"},{"internalType":"uint256","name":"yesVotes","type":"uint256"},{"internalType":"uint256","name":"noVotes","type":"uint256"},{"internalType":"uint256","name":"totalFunds","type":"uint256"},{"internalType":"uint256","name":"startTime","type":"uint256"},{"internalType":"uint256","name":"voterCount","type":"uint256"}],"stateMutability":"view","type":"function"},{"inputs":[{"internalType":"address","name":"_voter","type":"address"}],"name":"getVoterDetails","outputs":[{"internalType":"uint256","name":"stakedEth","type":"uint256"}],"stateMutability":"view","type":"function"},{"inputs":[{"internalType":"address","name":"_voter","type":"address"},{"internalType":"uint256","name":"_taskId","type":"uint256"}],"name":"hasVoted","outputs":[{"internalType":"bool","name":"","type":"bool"}],"stateMutability":"view","type":"function"},{"inputs":[{"internalType":"uint256","name":"","type":"uint256"}],"name":"ngoList","outputs":[{"internalType":"address","name":"","type":"address"}],"stateMutability":"view","type":"function"},{"inputs":[{"internalType":"address","name":"","type":"address"}],"name":"ngos","outputs":[{"internalType":"string","name":"name","type":"string"},{"internalType":"string","name":"description","type":"string"},{"internalType":"uint256","name":"stakedEth","type":"uint256"},{"internalType":"string","name":"logo","type":"string"}],"stateMutability":"view","type":"function"},{"inputs":[],"name":"owner","outputs":[{"internalType":"address","name":"","type":"address"}],"stateMutability":"view","type":"function"},{"inputs":[{"internalType":"string","name":"_name","type":"string"},{"internalType":"string","name":"_description","type":"string"},{"internalType":"string","name":"_logo","type":"string"}],"name":"registerNGO","outputs":[],"stateMutability":"payable","type":"function"},{"inputs":[],"name":"registerVoter","outputs":[],"stateMutability":"payable","type":"function"},{"inputs":[{"internalType":"uint256","name":"_taskId","type":"uint256"}],"name":"resolveTask","outputs":[],"stateMutability":"nonpayable","type":"function"},{"inputs":[],"name":"taskCounter","outputs":[{"internalType":"uint256","name":"","type":"uint256"}],"stateMutability":"view","type":"function"},{"inputs":[{"internalType":"uint256","name":"","type":"uint256"},{"internalType":"uint256","name":"","type":"uint256"}],"name":"taskDonations","outputs":[{"internalType":"address","name":"donor","type":"address"},{"internalType":"uint256","name":"amount","type":"uint256"},{"internalType":"uint256","name":"timestamp","type":"uint256"}],"stateMutability":"view","type":"function"},{"inputs":[{"internalType":"uint256","name":"","type":"uint256"}],"name":"tasks","outputs":[{"internalType":"address","name":"ngo","type":"address"},{"internalType":"string","name":"status","type":"string"},{"internalType":"uint256","name":"yesVotes","type":"uint256"},{"internalType":"uint256","name":"noVotes","type":"uint256"},{"internalType":"uint256","name":"totalFunds","type":"uint256"},{"internalType":"uint256","name":"startTime","type":"uint256"},{"internalType":"uint256","name":"voterCount","type":"uint256"}],"stateMutability":"view","type":"function"},{"inputs":[{"internalType":"uint256","name":"_taskId","type":"uint256"},{"internalType":"bool","name":"_approve","type":"bool"}],"name":"vote","outputs":[],"stateMutability":"nonpayable","type":"function"},{"inputs":[{"internalType":"address","name":"","type":"address"}],"name":"voters","outputs":[{"internalType":"uint256","name":"stakedEth","type":"uint256"}],"stateMutability":"view","type":"function"},{"inputs":[],"name":"withdrawNgoStake","outputs":[],"stateMutability":"nonpayable","type":"function"},{"inputs":[],"name":"withdrawVoterStake","outputs":[],"stateMutability":"nonpayable","type":"function"}],"devdoc":{"kind":"dev","methods":{},"version":1},"evm":{"bytecode":{"linkReferences":{},"object":"6080604052348015600f57600080fd5b50336000806101000a81548173ffffffffffffffffffffffffffffffffffffffff021916908373ffffffffffffffffffffffffffffffffffffffff1602179055506158b78061005f6000396000f3fe60806040526004361061019c5760003560e01c80638d977672116100ec578063c35b90301161008a578063dffb0ece11610064578063dffb0ece1461062c578063e6f7d11e14610643578063ecb617d914610683578063f14faf6f1461068d5761019c565b8063c35b9030146105af578063c893b82f146105da578063c9d27afe146106035761019c565b8063967f8982116100c6578063967f8982146104e1578063987bdee41461051e578063a3ec138d14610535578063ba71bef0146105725761019c565b80638d977672146104365780638da5cb5b146104795780639255cb3b146104a45761019c565b8063596d9ce211610159578063779900b411610133578063779900b4146103775780637abe26b4146103a257806382c4dbe5146103e057806387b5a2dd1461040b5761019c565b8063596d9ce2146102d1578063734d78c51461030e578063771f84fe1461034e5761019c565b80633888b9d5146101a15780633df78c91146101e55780634254582514610224578063456d908e1461026157806348f667b31461028a57806358671730146102a6575b600080fd5b3480156101ad57600080fd5b506101c860048036038101906101c3919061383f565b6106a9565b6040516101dc989796959493929190613a58565b60405180910390f35b3480156101f157600080fd5b5061020c60048036038101906102079190613ae4565b610920565b60405161021b93929190613b24565b60405180910390f35b34801561023057600080fd5b5061024b60048036038101906102469190613b87565b610987565b6040516102589190613be2565b60405180910390f35b34801561026d57600080fd5b506102886004803603810190610283919061383f565b6109f2565b005b6102a4600480360381019061029f9190613d32565b610fe1565b005b3480156102b257600080fd5b506102bb611265565b6040516102c89190613dd9565b60405180910390f35b3480156102dd57600080fd5b506102f860048036038101906102f3919061383f565b61126b565b6040516103059190613f03565b60405180910390f35b34801561031a57600080fd5b5061033560048036038101906103309190613f25565b611347565b6040516103459493929190614001565b60405180910390f35b34801561035a57600080fd5b5061037560048036038101906103709190614141565b611563565b005b34801561038357600080fd5b5061038c61176f565b604051610399919061418a565b60405180910390f35b3480156103ae57600080fd5b506103c960048036038101906103c49190613f25565b611817565b6040516103d79291906141ac565b60405180910390f35b3480156103ec57600080fd5b506103f5611a41565b60405161040291906144b5565b60405180910390f35b34801561041757600080fd5b50610420611ea7565b60405161042d9190614586565b60405180910390f35b34801561044257600080fd5b5061045d6004803603810190610458919061383f565b611f35565b60405161047097969594939291906145a8565b60405180910390f35b34801561048557600080fd5b5061048e61201f565b60405161049b919061461e565b60405180910390f35b3480156104b057600080fd5b506104cb60048036038101906104c69190613f25565b612043565b6040516104d89190613dd9565b60405180910390f35b3480156104ed57600080fd5b506105086004803603810190610503919061383f565b6121ca565b604051610515919061461e565b60405180910390f35b34801561052a57600080fd5b50610533612209565b005b34801561054157600080fd5b5061055c60048036038101906105579190613f25565b6124db565b6040516105699190613dd9565b60405180910390f35b34801561057e57600080fd5b5061059960048036038101906105949190613f25565b6124f9565b6040516105a69190613dd9565b60405180910390f35b3480156105bb57600080fd5b506105c4612545565b6040516105d1919061418a565b60405180910390f35b3480156105e657600080fd5b5061060160048036038101906105fc919061383f565b612761565b005b34801561060f57600080fd5b5061062a60048036038101906106259190614665565b612a45565b005b34801561063857600080fd5b50610641612ec6565b005b34801561064f57600080fd5b5061066a60048036038101906106659190613f25565b61308a565b60405161067a94939291906146a5565b60405180910390f35b61068b613252565b005b6106a760048036038101906106a2919061383f565b61339c565b005b6000606080600080600080600080600360008b81526020019081526020016000209050600073ffffffffffffffffffffffffffffffffffffffff168160000160009054906101000a900473ffffffffffffffffffffffffffffffffffffffff1673ffffffffffffffffffffffffffffffffffffffff160361075f576040517f08c379a00000000000000000000000000000000000000000000000000000000081526004016107569061474b565b60405180910390fd5b8060000160009054906101000a900473ffffffffffffffffffffffffffffffffffffffff1681600101826002018360030154846004015485600501548660060154876008015486805480602002602001604051908101604052809291908181526020016000905b828210156108725783829060005260206000200180546107e59061479a565b80601f01602080910402602001604051908101604052809291908181526020018280546108119061479a565b801561085e5780601f106108335761010080835404028352916020019161085e565b820191906000526020600020905b81548152906001019060200180831161084157829003601f168201915b5050505050815260200190600101906107c6565b5050505096508580546108849061479a565b80601f01602080910402602001604051908101604052809291908181526020018280546108b09061479a565b80156108fd5780601f106108d2576101008083540402835291602001916108fd565b820191906000526020600020905b8154815290600101906020018083116108e057829003601f168201915b505050505095509850985098509850985098509850985050919395975091939597565b6004602052816000526040600020818154811061093c57600080fd5b9060005260206000209060030201600091509150508060000160009054906101000a900473ffffffffffffffffffffffffffffffffffffffff16908060010154908060020154905083565b6000600260008473ffffffffffffffffffffffffffffffffffffffff1673ffffffffffffffffffffffffffffffffffffffff168152602001908152602001600020600101600083815260200190815260200160002060009054906101000a900460ff16905092915050565b6000600360008381526020019081526020016000209050600073ffffffffffffffffffffffffffffffffffffffff168160000160009054906101000a900473ffffffffffffffffffffffffffffffffffffffff1673ffffffffffffffffffffffffffffffffffffffff1603610a9c576040517f08c379a0000000000000000000000000000000000000000000000000000000008152600401610a939061474b565b60405180910390fd5b6040518060400160405280600781526020017f70656e64696e67000000000000000000000000000000000000000000000000008152508051906020012081600201604051610aea919061486e565b604051809103902014610b32576040517f08c379a0000000000000000000000000000000000000000000000000000000008152600401610b29906148d1565b60405180910390fd5b62093a808160060154610b459190614920565b4211610b86576040517f08c379a0000000000000000000000000000000000000000000000000000000008152600401610b7d906149a0565b60405180910390fd5b600080826008015411610b9a576000610bb8565b606460058360050154610bad91906149c0565b610bb79190614a31565b5b90506000818360050154610bcc9190614a62565b9050600083600401548460030154610be49190614920565b9050600081118015610c12575060328160648660030154610c0591906149c0565b610c0f9190614a31565b10155b15610d34576040518060400160405280600881526020017f617070726f766564000000000000000000000000000000000000000000000000815250846002019081610c5d9190614c42565b5060008460000160009054906101000a900473ffffffffffffffffffffffffffffffffffffffff1673ffffffffffffffffffffffffffffffffffffffff1683604051610ca890614d3a565b60006040518083038185875af1925050503d8060008114610ce5576040519150601f19603f3d011682016040523d82523d6000602084013e610cea565b606091505b5050905080610d2e576040517f08c379a0000000000000000000000000000000000000000000000000000000008152600401610d2590614d9b565b60405180910390fd5b50610f9e565b6040518060400160405280600881526020017f72656a6563746564000000000000000000000000000000000000000000000000815250846002019081610d7a9190614c42565b506000805b6004600088815260200190815260200160002080549050811015610dee57600460008881526020019081526020016000208181548110610dc257610dc1614dbb565b5b90600052602060002090600302016001015482610ddf9190614920565b91508080600101915050610d7f565b5060005b6004600088815260200190815260200160002080549050811015610f9b576000600460008981526020019081526020016000208281548110610e3757610e36614dbb565b5b90600052602060002090600302016040518060600160405290816000820160009054906101000a900473ffffffffffffffffffffffffffffffffffffffff1673ffffffffffffffffffffffffffffffffffffffff1673ffffffffffffffffffffffffffffffffffffffff168152602001600182015481526020016002820154815250509050600083868360200151610ecf91906149c0565b610ed99190614a31565b90506000826000015173ffffffffffffffffffffffffffffffffffffffff1682604051610f0590614d3a565b60006040518083038185875af1925050503d8060008114610f42576040519150601f19603f3d011682016040523d82523d6000602084013e610f47565b606091505b5050905080610f8b576040517f08c379a0000000000000000000000000000000000000000000000000000000008152600401610f8290614e36565b60405180910390fd5b5050508080600101915050610df2565b50505b7f622e8aea88c24b5860ee5c8b8fbf8e18b632e7a412ed546c499ded2088e187ad8585600201604051610fd2929190614eda565b60405180910390a15050505050565b60003411611024576040517f08c379a000000000000000000000000000000000000000000000000000000000815260040161101b90614f56565b60405180910390fd5b6000600160003373ffffffffffffffffffffffffffffffffffffffff1673ffffffffffffffffffffffffffffffffffffffff16815260200190815260200160002060020154146110a9576040517f08c379a00000000000000000000000000000000000000000000000000000000081526004016110a090614fc2565b60405180910390fd5b6040518060a00160405280848152602001838152602001348152602001828152602001600067ffffffffffffffff8111156110e7576110e6613c07565b5b6040519080825280602002602001820160405280156111155781602001602082028036833780820191505090505b50815250600160003373ffffffffffffffffffffffffffffffffffffffff1673ffffffffffffffffffffffffffffffffffffffff168152602001908152602001600020600082015181600001908161116d9190614c42565b5060208201518160010190816111839190614c42565b506040820151816002015560608201518160030190816111a39190614c42565b5060808201518160040190805190602001906111c0929190613685565b509050506006339080600181540180825580915050600190039060005260206000200160009091909190916101000a81548173ffffffffffffffffffffffffffffffffffffffff021916908373ffffffffffffffffffffffffffffffffffffffff1602179055507f0386741c0345c35e0430ddfe5fee0c0afbfad9de0f6c1f1ece8021927c2f73203384604051611258929190614fe2565b60405180910390a1505050565b60055481565b606060046000838152602001908152602001600020805480602002602001604051908101604052809291908181526020016000905b8282101561133c57838290600052602060002090600302016040518060600160405290816000820160009054906101000a900473ffffffffffffffffffffffffffffffffffffffff1673ffffffffffffffffffffffffffffffffffffffff1673ffffffffffffffffffffffffffffffffffffffff16815260200160018201548152602001600282015481525050815260200190600101906112a0565b505050509050919050565b606080600060606000600160008773ffffffffffffffffffffffffffffffffffffffff1673ffffffffffffffffffffffffffffffffffffffff168152602001908152602001600020905060008160020154116113d8576040517f08c379a00000000000000000000000000000000000000000000000000000000081526004016113cf9061505e565b60405180910390fd5b80600001816001018260020154836004018380546113f59061479a565b80601f01602080910402602001604051908101604052809291908181526020018280546114219061479a565b801561146e5780601f106114435761010080835404028352916020019161146e565b820191906000526020600020905b81548152906001019060200180831161145157829003601f168201915b505050505093508280546114819061479a565b80601f01602080910402602001604051908101604052809291908181526020018280546114ad9061479a565b80156114fa5780601f106114cf576101008083540402835291602001916114fa565b820191906000526020600020905b8154815290600101906020018083116114dd57829003601f168201915b505050505092508080548060200260200160405190810160405280929190818152602001828054801561154c57602002820191906000526020600020905b815481526020019060010190808311611538575b505050505090509450945094509450509193509193565b6000600160003373ffffffffffffffffffffffffffffffffffffffff1673ffffffffffffffffffffffffffffffffffffffff16815260200190815260200160002060020154116115e8576040517f08c379a00000000000000000000000000000000000000000000000000000000081526004016115df9061505e565b60405180910390fd5b600560008154809291906115fb9061507e565b919050555060006003600060055481526020019081526020016000209050338160000160006101000a81548173ffffffffffffffffffffffffffffffffffffffff021916908373ffffffffffffffffffffffffffffffffffffffff160217905550818160010190805190602001906116749291906136d2565b506040518060400160405280600781526020017f70656e64696e67000000000000000000000000000000000000000000000000008152508160020190816116bb9190614c42565b50428160060181905550600160003373ffffffffffffffffffffffffffffffffffffffff1673ffffffffffffffffffffffffffffffffffffffff16815260200190815260200160002060040160055490806001815401808255809150506001900390600052602060002001600090919091909150557fe9ee39160568153d230ca0e29961267415d513defbb7d3b21af0fe940e1ebd15600554336040516117639291906150c6565b60405180910390a15050565b6060600060055467ffffffffffffffff81111561178f5761178e613c07565b5b6040519080825280602002602001820160405280156117bd5781602001602082028036833780820191505090505b5090506000600190505b600554811161180f5780826001836117df9190614a62565b815181106117f0576117ef614dbb565b5b60200260200101818152505080806118079061507e565b9150506117c7565b508091505090565b6060806000600160008573ffffffffffffffffffffffffffffffffffffffff1673ffffffffffffffffffffffffffffffffffffffff168152602001908152602001600020905060008160020154116118a4576040517f08c379a000000000000000000000000000000000000000000000000000000000815260040161189b9061505e565b60405180910390fd5b806004018054806020026020016040519081016040528092919081815260200182805480156118f257602002820191906000526020600020905b8154815260200190600101908083116118de575b50505050509250825167ffffffffffffffff81111561191457611913613c07565b5b60405190808252806020026020018201604052801561194757816020015b60608152602001906001900390816119325790505b50915060005b8351811015611a3a576003600085838151811061196d5761196c614dbb565b5b6020026020010151815260200190815260200160002060020180546119919061479a565b80601f01602080910402602001604051908101604052809291908181526020018280546119bd9061479a565b8015611a0a5780601f106119df57610100808354040283529160200191611a0a565b820191906000526020600020905b8154815290600101906020018083116119ed57829003601f168201915b5050505050838281518110611a2257611a21614dbb565b5b6020026020010181905250808060010191505061194d565b5050915091565b6060600060068054905067ffffffffffffffff811115611a6457611a63613c07565b5b604051908082528060200260200182016040528015611a9d57816020015b611a8a61372b565b815260200190600190039081611a825790505b50905060005b600680549050811015611e9f57600060068281548110611ac657611ac5614dbb565b5b9060005260206000200160009054906101000a900473ffffffffffffffffffffffffffffffffffffffff1690506000600160008373ffffffffffffffffffffffffffffffffffffffff1673ffffffffffffffffffffffffffffffffffffffff16815260200190815260200160002090506000816004018054905067ffffffffffffffff811115611b5957611b58613c07565b5b604051908082528060200260200182016040528015611b9257816020015b611b7f613753565b815260200190600190039081611b775790505b50905060005b8260040180549050811015611d2b576000836004018281548110611bbf57611bbe614dbb565b5b90600052602060002001549050600060036000838152602001908152602001600020905060008560000182600201604051602001611bfe929190615261565b6040516020818303038152906040529050604051806060016040528084815260200182815260200183600101805480602002602001604051908101604052809291908181526020016000905b82821015611cf6578382906000526020600020018054611c699061479a565b80601f0160208091040260200160405190810160405280929190818152602001828054611c959061479a565b8015611ce25780601f10611cb757610100808354040283529160200191611ce2565b820191906000526020600020905b815481529060010190602001808311611cc557829003601f168201915b505050505081526020019060010190611c4a565b50505050815250858581518110611d1057611d0f614dbb565b5b60200260200101819052505050508080600101915050611b98565b506040518060800160405280600186611d449190614920565b8152602001836000018054611d589061479a565b80601f0160208091040260200160405190810160405280929190818152602001828054611d849061479a565b8015611dd15780601f10611da657610100808354040283529160200191611dd1565b820191906000526020600020905b815481529060010190602001808311611db457829003601f168201915b50505050508152602001836001018054611dea9061479a565b80601f0160208091040260200160405190810160405280929190818152602001828054611e169061479a565b8015611e635780601f10611e3857610100808354040283529160200191611e63565b820191906000526020600020905b815481529060010190602001808311611e4657829003601f168201915b5050505050815260200182815250858581518110611e8457611e83614dbb565b5b60200260200101819052505050508080600101915050611aa3565b508091505090565b60606006805480602002602001604051908101604052809291908181526020018280548015611f2b57602002820191906000526020600020905b8160009054906101000a900473ffffffffffffffffffffffffffffffffffffffff1673ffffffffffffffffffffffffffffffffffffffff1681526020019060010190808311611ee1575b5050505050905090565b60036020528060005260406000206000915090508060000160009054906101000a900473ffffffffffffffffffffffffffffffffffffffff1690806002018054611f7e9061479a565b80601f0160208091040260200160405190810160405280929190818152602001828054611faa9061479a565b8015611ff75780601f10611fcc57610100808354040283529160200191611ff7565b820191906000526020600020905b815481529060010190602001808311611fda57829003601f168201915b5050505050908060030154908060040154908060050154908060060154908060080154905087565b60008054906101000a900473ffffffffffffffffffffffffffffffffffffffff1681565b600080600160008473ffffffffffffffffffffffffffffffffffffffff1673ffffffffffffffffffffffffffffffffffffffff168152602001908152602001600020905060008160020154116120ce576040517f08c379a00000000000000000000000000000000000000000000000000000000081526004016120c59061505e565b60405180910390fd5b6000915060005b81600401805490508110156121c3576040518060400160405280600881526020017f617070726f766564000000000000000000000000000000000000000000000000815250805190602001206003600084600401848154811061213b5761213a614dbb565b5b90600052602060002001548152602001908152602001600020600201604051612164919061486e565b6040518091039020036121b6576003600083600401838154811061218b5761218a614dbb565b5b9060005260206000200154815260200190815260200160002060050154836121b39190614920565b92505b80806001019150506120d5565b5050919050565b600681815481106121da57600080fd5b906000526020600020016000915054906101000a900473ffffffffffffffffffffffffffffffffffffffff1681565b6000600160003373ffffffffffffffffffffffffffffffffffffffff1673ffffffffffffffffffffffffffffffffffffffff168152602001908152602001600020600201541161228e576040517f08c379a0000000000000000000000000000000000000000000000000000000008152600401612285906152f2565b60405180910390fd5b6000600160003373ffffffffffffffffffffffffffffffffffffffff1673ffffffffffffffffffffffffffffffffffffffff168152602001908152602001600020905060005b81600401805490508110156123dd576000600360008460040184815481106122ff576122fe614dbb565b5b9060005260206000200154815260200190815260200160002090506040518060400160405280600781526020017f70656e64696e67000000000000000000000000000000000000000000000000008152508051906020012081600201604051612368919061486e565b604051809103902014801561238f575062093a80816006015461238b9190614920565b4211155b156123cf576040517f08c379a00000000000000000000000000000000000000000000000000000000081526004016123c690615384565b60405180910390fd5b5080806001019150506122d4565b506000816002015490506000826002018190555060003373ffffffffffffffffffffffffffffffffffffffff168260405161241790614d3a565b60006040518083038185875af1925050503d8060008114612454576040519150601f19603f3d011682016040523d82523d6000602084013e612459565b606091505b505090508061249d576040517f08c379a0000000000000000000000000000000000000000000000000000000008152600401612494906153f0565b60405180910390fd5b7f45e86ef28678bb11eb3a2909bef25215399cdebb7c34dacb2179034cf6e2c90533836040516124ce929190615410565b60405180910390a1505050565b60026020528060005260406000206000915090508060000154905081565b6000600260008373ffffffffffffffffffffffffffffffffffffffff1673ffffffffffffffffffffffffffffffffffffffff168152602001908152602001600020600001549050919050565b6060600080600190505b6005548111612618576040518060400160405280600781526020017f70656e64696e670000000000000000000000000000000000000000000000000081525080519060200120600360008381526020019081526020016000206002016040516125b8919061486e565b60405180910390201480156125f1575062093a8060036000838152602001908152602001600020600601546125ed9190614920565b4211155b156126055781806126019061507e565b9250505b80806126109061507e565b91505061254f565b5060008167ffffffffffffffff81111561263557612634613c07565b5b6040519080825280602002602001820160405280156126635781602001602082028036833780820191505090505b509050600080600190505b6005548111612757576040518060400160405280600781526020017f70656e64696e670000000000000000000000000000000000000000000000000081525080519060200120600360008381526020019081526020016000206002016040516126d7919061486e565b6040518091039020148015612710575062093a80600360008381526020019081526020016000206006015461270c9190614920565b4211155b15612744578083838151811061272957612728614dbb565b5b60200260200101818152505081806127409061507e565b9250505b808061274f9061507e565b91505061266e565b5081935050505090565b6003600082815260200190815260200160002060070160003373ffffffffffffffffffffffffffffffffffffffff1673ffffffffffffffffffffffffffffffffffffffff16815260200190815260200160002060009054906101000a900460ff16612801576040517f08c379a00000000000000000000000000000000000000000000000000000000081526004016127f890615485565b60405180910390fd5b6040518060400160405280600781526020017f70656e64696e67000000000000000000000000000000000000000000000000008152508051906020012060036000838152602001908152602001600020600201604051612861919061486e565b6040518091039020036128a9576040517f08c379a00000000000000000000000000000000000000000000000000000000081526004016128a0906154f1565b60405180910390fd5b60006064600560036000858152602001908152602001600020600501546128d091906149c0565b6128da9190614a31565b9050600080600360008581526020019081526020016000206008015411612902576000612925565b6003600084815260200190815260200160002060080154826129249190614a31565b5b905060003373ffffffffffffffffffffffffffffffffffffffff168260405161294d90614d3a565b60006040518083038185875af1925050503d806000811461298a576040519150601f19603f3d011682016040523d82523d6000602084013e61298f565b606091505b50509050806129d3576040517f08c379a00000000000000000000000000000000000000000000000000000000081526004016129ca9061555d565b60405180910390fd5b60006003600086815260200190815260200160002060070160003373ffffffffffffffffffffffffffffffffffffffff1673ffffffffffffffffffffffffffffffffffffffff16815260200190815260200160002060006101000a81548160ff02191690831515021790555050505050565b6000600260003373ffffffffffffffffffffffffffffffffffffffff1673ffffffffffffffffffffffffffffffffffffffff1681526020019081526020016000206000015411612aca576040517f08c379a0000000000000000000000000000000000000000000000000000000008152600401612ac1906155c9565b60405180910390fd5b600073ffffffffffffffffffffffffffffffffffffffff166003600084815260200190815260200160002060000160009054906101000a900473ffffffffffffffffffffffffffffffffffffffff1673ffffffffffffffffffffffffffffffffffffffff1603612b6f576040517f08c379a0000000000000000000000000000000000000000000000000000000008152600401612b669061474b565b60405180910390fd5b600260003373ffffffffffffffffffffffffffffffffffffffff1673ffffffffffffffffffffffffffffffffffffffff168152602001908152602001600020600101600083815260200190815260200160002060009054906101000a900460ff1615612c10576040517f08c379a0000000000000000000000000000000000000000000000000000000008152600401612c0790615635565b60405180910390fd5b6040518060400160405280600781526020017f70656e64696e67000000000000000000000000000000000000000000000000008152508051906020012060036000848152602001908152602001600020600201604051612c70919061486e565b604051809103902014612cb8576040517f08c379a0000000000000000000000000000000000000000000000000000000008152600401612caf906156a1565b60405180910390fd5b62093a806003600084815260200190815260200160002060060154612cdd9190614920565b421115612d1f576040517f08c379a0000000000000000000000000000000000000000000000000000000008152600401612d169061570d565b60405180910390fd5b6001600260003373ffffffffffffffffffffffffffffffffffffffff1673ffffffffffffffffffffffffffffffffffffffff168152602001908152602001600020600101600084815260200190815260200160002060006101000a81548160ff02191690831515021790555060016003600084815260200190815260200160002060070160003373ffffffffffffffffffffffffffffffffffffffff1673ffffffffffffffffffffffffffffffffffffffff16815260200190815260200160002060006101000a81548160ff021916908315150217905550600360008381526020019081526020016000206008016000815480929190612e1e9061507e565b91905055508015612e5a57600360008381526020019081526020016000206003016000815480929190612e509061507e565b9190505550612e87565b600360008381526020019081526020016000206004016000815480929190612e819061507e565b91905055505b7ff2913dbe661ee2acc4a046d8fbcdc792373bda34c41c6086484b5345e5785e5f823383604051612eba9392919061572d565b60405180910390a15050565b6000600260003373ffffffffffffffffffffffffffffffffffffffff1673ffffffffffffffffffffffffffffffffffffffff1681526020019081526020016000206000015411612f4b576040517f08c379a0000000000000000000000000000000000000000000000000000000008152600401612f42906155c9565b60405180910390fd5b6000600260003373ffffffffffffffffffffffffffffffffffffffff1673ffffffffffffffffffffffffffffffffffffffff1681526020019081526020016000206000015490506000600260003373ffffffffffffffffffffffffffffffffffffffff1673ffffffffffffffffffffffffffffffffffffffff1681526020019081526020016000206000018190555060003373ffffffffffffffffffffffffffffffffffffffff168260405161300090614d3a565b60006040518083038185875af1925050503d806000811461303d576040519150601f19603f3d011682016040523d82523d6000602084013e613042565b606091505b5050905080613086576040517f08c379a000000000000000000000000000000000000000000000000000000000815260040161307d906153f0565b60405180910390fd5b5050565b60016020528060005260406000206000915090508060000180546130ad9061479a565b80601f01602080910402602001604051908101604052809291908181526020018280546130d99061479a565b80156131265780601f106130fb57610100808354040283529160200191613126565b820191906000526020600020905b81548152906001019060200180831161310957829003601f168201915b50505050509080600101805461313b9061479a565b80601f01602080910402602001604051908101604052809291908181526020018280546131679061479a565b80156131b45780601f10613189576101008083540402835291602001916131b4565b820191906000526020600020905b81548152906001019060200180831161319757829003601f168201915b5050505050908060020154908060030180546131cf9061479a565b80601f01602080910402602001604051908101604052809291908181526020018280546131fb9061479a565b80156132485780601f1061321d57610100808354040283529160200191613248565b820191906000526020600020905b81548152906001019060200180831161322b57829003601f168201915b5050505050905084565b60003411613295576040517f08c379a000000000000000000000000000000000000000000000000000000000815260040161328c90614f56565b60405180910390fd5b6000600260003373ffffffffffffffffffffffffffffffffffffffff1673ffffffffffffffffffffffffffffffffffffffff168152602001908152602001600020600001541461331a576040517f08c379a0000000000000000000000000000000000000000000000000000000008152600401613311906157b0565b60405180910390fd5b34600260003373ffffffffffffffffffffffffffffffffffffffff1673ffffffffffffffffffffffffffffffffffffffff168152602001908152602001600020600001819055507ff16ce2c2236e2c6e3df646f80d657bceef4cd7f3a240c47e82adfa17a5f472413334604051613392929190615410565b60405180910390a1565b600073ffffffffffffffffffffffffffffffffffffffff166003600083815260200190815260200160002060000160009054906101000a900473ffffffffffffffffffffffffffffffffffffffff1673ffffffffffffffffffffffffffffffffffffffff1603613441576040517f08c379a00000000000000000000000000000000000000000000000000000000081526004016134389061474b565b60405180910390fd5b60003411613484576040517f08c379a000000000000000000000000000000000000000000000000000000000815260040161347b9061581c565b60405180910390fd5b6040518060400160405280600781526020017f70656e64696e670000000000000000000000000000000000000000000000000081525080519060200120600360008381526020019081526020016000206002016040516134e4919061486e565b60405180910390201461352c576040517f08c379a0000000000000000000000000000000000000000000000000000000008152600401613523906156a1565b60405180910390fd5b346003600083815260200190815260200160002060050160008282546135529190614920565b925050819055506004600082815260200190815260200160002060405180606001604052803373ffffffffffffffffffffffffffffffffffffffff16815260200134815260200142815250908060018154018082558091505060019003906000526020600020906003020160009091909190915060008201518160000160006101000a81548173ffffffffffffffffffffffffffffffffffffffff021916908373ffffffffffffffffffffffffffffffffffffffff160217905550602082015181600101556040820151816002015550507f27e413b8931dc4cb7edc879292ebc482a3047336d03423ea91addae7a2cf850a8133346001600460008781526020019081526020016000208054905061366a9190614a62565b60405161367a949392919061583c565b60405180910390a150565b8280548282559060005260206000209081019282156136c1579160200282015b828111156136c05782518255916020019190600101906136a5565b5b5090506136ce9190613774565b5090565b82805482825590600052602060002090810192821561371a579160200282015b828111156137195782518290816137099190614c42565b50916020019190600101906136f2565b5b5090506137279190613791565b5090565b6040518060800160405280600081526020016060815260200160608152602001606081525090565b60405180606001604052806000815260200160608152602001606081525090565b5b8082111561378d576000816000905550600101613775565b5090565b5b808211156137b157600081816137a891906137b5565b50600101613792565b5090565b5080546137c19061479a565b6000825580601f106137d357506137f2565b601f0160209004906000526020600020908101906137f19190613774565b5b50565b6000604051905090565b600080fd5b600080fd5b6000819050919050565b61381c81613809565b811461382757600080fd5b50565b60008135905061383981613813565b92915050565b600060208284031215613855576138546137ff565b5b60006138638482850161382a565b91505092915050565b600073ffffffffffffffffffffffffffffffffffffffff82169050919050565b60006138978261386c565b9050919050565b6138a78161388c565b82525050565b600081519050919050565b600082825260208201905092915050565b6000819050602082019050919050565b600081519050919050565b600082825260208201905092915050565b60005b838110156139135780820151818401526020810190506138f8565b60008484015250505050565b6000601f19601f8301169050919050565b600061393b826138d9565b61394581856138e4565b93506139558185602086016138f5565b61395e8161391f565b840191505092915050565b60006139758383613930565b905092915050565b6000602082019050919050565b6000613995826138ad565b61399f81856138b8565b9350836020820285016139b1856138c9565b8060005b858110156139ed57848403895281516139ce8582613969565b94506139d98361397d565b925060208a019950506001810190506139b5565b50829750879550505050505092915050565b600082825260208201905092915050565b6000613a1b826138d9565b613a2581856139ff565b9350613a358185602086016138f5565b613a3e8161391f565b840191505092915050565b613a5281613809565b82525050565b600061010082019050613a6e600083018b61389e565b8181036020830152613a80818a61398a565b90508181036040830152613a948189613a10565b9050613aa36060830188613a49565b613ab06080830187613a49565b613abd60a0830186613a49565b613aca60c0830185613a49565b613ad760e0830184613a49565b9998505050505050505050565b60008060408385031215613afb57613afa6137ff565b5b6000613b098582860161382a565b9250506020613b1a8582860161382a565b9150509250929050565b6000606082019050613b39600083018661389e565b613b466020830185613a49565b613b536040830184613a49565b949350505050565b613b648161388c565b8114613b6f57600080fd5b50565b600081359050613b8181613b5b565b92915050565b60008060408385031215613b9e57613b9d6137ff565b5b6000613bac85828601613b72565b9250506020613bbd8582860161382a565b9150509250929050565b60008115159050919050565b613bdc81613bc7565b82525050565b6000602082019050613bf76000830184613bd3565b92915050565b600080fd5b600080fd5b7f4e487b7100000000000000000000000000000000000000000000000000000000600052604160045260246000fd5b613c3f8261391f565b810181811067ffffffffffffffff82111715613c5e57613c5d613c07565b5b80604052505050565b6000613c716137f5565b9050613c7d8282613c36565b919050565b600067ffffffffffffffff821115613c9d57613c9c613c07565b5b613ca68261391f565b9050602081019050919050565b82818337600083830152505050565b6000613cd5613cd084613c82565b613c67565b905082815260208101848484011115613cf157613cf0613c02565b5b613cfc848285613cb3565b509392505050565b600082601f830112613d1957613d18613bfd565b5b8135613d29848260208601613cc2565b91505092915050565b600080600060608486031215613d4b57613d4a6137ff565b5b600084013567ffffffffffffffff811115613d6957613d68613804565b5b613d7586828701613d04565b935050602084013567ffffffffffffffff811115613d9657613d95613804565b5b613da286828701613d04565b925050604084013567ffffffffffffffff811115613dc357613dc2613804565b5b613dcf86828701613d04565b9150509250925092565b6000602082019050613dee6000830184613a49565b92915050565b600081519050919050565b600082825260208201905092915050565b6000819050602082019050919050565b613e298161388c565b82525050565b613e3881613809565b82525050565b606082016000820151613e546000850182613e20565b506020820151613e676020850182613e2f565b506040820151613e7a6040850182613e2f565b50505050565b6000613e8c8383613e3e565b60608301905092915050565b6000602082019050919050565b6000613eb082613df4565b613eba8185613dff565b9350613ec583613e10565b8060005b83811015613ef6578151613edd8882613e80565b9750613ee883613e98565b925050600181019050613ec9565b5085935050505092915050565b60006020820190508181036000830152613f1d8184613ea5565b905092915050565b600060208284031215613f3b57613f3a6137ff565b5b6000613f4984828501613b72565b91505092915050565b600081519050919050565b600082825260208201905092915050565b6000819050602082019050919050565b6000613f8a8383613e2f565b60208301905092915050565b6000602082019050919050565b6000613fae82613f52565b613fb88185613f5d565b9350613fc383613f6e565b8060005b83811015613ff4578151613fdb8882613f7e565b9750613fe683613f96565b925050600181019050613fc7565b5085935050505092915050565b6000608082019050818103600083015261401b8187613a10565b9050818103602083015261402f8186613a10565b905061403e6040830185613a49565b81810360608301526140508184613fa3565b905095945050505050565b600067ffffffffffffffff82111561407657614075613c07565b5b602082029050602081019050919050565b600080fd5b600061409f61409a8461405b565b613c67565b905080838252602082019050602084028301858111156140c2576140c1614087565b5b835b8181101561410957803567ffffffffffffffff8111156140e7576140e6613bfd565b5b8086016140f48982613d04565b855260208501945050506020810190506140c4565b5050509392505050565b600082601f83011261412857614127613bfd565b5b813561413884826020860161408c565b91505092915050565b600060208284031215614157576141566137ff565b5b600082013567ffffffffffffffff81111561417557614174613804565b5b61418184828501614113565b91505092915050565b600060208201905081810360008301526141a48184613fa3565b905092915050565b600060408201905081810360008301526141c68185613fa3565b905081810360208301526141da818461398a565b90509392505050565b600081519050919050565b600082825260208201905092915050565b6000819050602082019050919050565b600081519050919050565b600082825260208201905092915050565b6000819050602082019050919050565b600082825260208201905092915050565b6000614257826138ad565b614261818561423b565b935083602082028501614273856138c9565b8060005b858110156142af57848403895281516142908582613969565b945061429b8361397d565b925060208a01995050600181019050614277565b50829750879550505050505092915050565b60006060830160008301516142d96000860182613e2f565b50602083015184820360208601526142f18282613930565b9150506040830151848203604086015261430b828261424c565b9150508091505092915050565b600061432483836142c1565b905092915050565b6000602082019050919050565b60006143448261420f565b61434e818561421a565b9350836020820285016143608561422b565b8060005b8581101561439c578484038952815161437d8582614318565b94506143888361432c565b925060208a01995050600181019050614364565b50829750879550505050505092915050565b60006080830160008301516143c66000860182613e2f565b50602083015184820360208601526143de8282613930565b915050604083015184820360408601526143f88282613930565b915050606083015184820360608601526144128282614339565b9150508091505092915050565b600061442b83836143ae565b905092915050565b6000602082019050919050565b600061444b826141e3565b61445581856141ee565b935083602082028501614467856141ff565b8060005b858110156144a35784840389528151614484858261441f565b945061448f83614433565b925060208a0199505060018101905061446b565b50829750879550505050505092915050565b600060208201905081810360008301526144cf8184614440565b905092915050565b600081519050919050565b600082825260208201905092915050565b6000819050602082019050919050565b600061450f8383613e20565b60208301905092915050565b6000602082019050919050565b6000614533826144d7565b61453d81856144e2565b9350614548836144f3565b8060005b838110156145795781516145608882614503565b975061456b8361451b565b92505060018101905061454c565b5085935050505092915050565b600060208201905081810360008301526145a08184614528565b905092915050565b600060e0820190506145bd600083018a61389e565b81810360208301526145cf8189613a10565b90506145de6040830188613a49565b6145eb6060830187613a49565b6145f86080830186613a49565b61460560a0830185613a49565b61461260c0830184613a49565b98975050505050505050565b6000602082019050614633600083018461389e565b92915050565b61464281613bc7565b811461464d57600080fd5b50565b60008135905061465f81614639565b92915050565b6000806040838503121561467c5761467b6137ff565b5b600061468a8582860161382a565b925050602061469b85828601614650565b9150509250929050565b600060808201905081810360008301526146bf8187613a10565b905081810360208301526146d38186613a10565b90506146e26040830185613a49565b81810360608301526146f48184613a10565b905095945050505050565b7f5461736b20646f6573206e6f7420657869737400000000000000000000000000600082015250565b60006147356013836139ff565b9150614740826146ff565b602082019050919050565b6000602082019050818103600083015261476481614728565b9050919050565b7f4e487b7100000000000000000000000000000000000000000000000000000000600052602260045260246000fd5b600060028204905060018216806147b257607f821691505b6020821081036147c5576147c461476b565b5b50919050565b600081905092915050565b60008190508160005260206000209050919050565b600081546147f88161479a565b61480281866147cb565b9450600182166000811461481d576001811461483257614865565b60ff1983168652811515820286019350614865565b61483b856147d6565b60005b8381101561485d5781548189015260018201915060208101905061483e565b838801955050505b50505092915050565b600061487a82846147eb565b915081905092915050565b7f5461736b20616c7265616479207265736f6c7665640000000000000000000000600082015250565b60006148bb6015836139ff565b91506148c682614885565b602082019050919050565b600060208201905081810360008301526148ea816148ae565b9050919050565b7f4e487b7100000000000000000000000000000000000000000000000000000000600052601160045260246000fd5b600061492b82613809565b915061493683613809565b925082820190508082111561494e5761494d6148f1565b5b92915050565b7f566f74696e6720706572696f64206e6f7420656e646564000000000000000000600082015250565b600061498a6017836139ff565b915061499582614954565b602082019050919050565b600060208201905081810360008301526149b98161497d565b9050919050565b60006149cb82613809565b91506149d683613809565b92508282026149e481613809565b915082820484148315176149fb576149fa6148f1565b5b5092915050565b7f4e487b7100000000000000000000000000000000000000000000000000000000600052601260045260246000fd5b6000614a3c82613809565b9150614a4783613809565b925082614a5757614a56614a02565b5b828204905092915050565b6000614a6d82613809565b9150614a7883613809565b9250828203905081811115614a9057614a8f6148f1565b5b92915050565b60008190508160005260206000209050919050565b60006020601f8301049050919050565b600082821b905092915050565b600060088302614af87fffffffffffffffffffffffffffffffffffffffffffffffffffffffffffffffff82614abb565b614b028683614abb565b95508019841693508086168417925050509392505050565b6000819050919050565b6000614b3f614b3a614b3584613809565b614b1a565b613809565b9050919050565b6000819050919050565b614b5983614b24565b614b6d614b6582614b46565b848454614ac8565b825550505050565b600090565b614b82614b75565b614b8d818484614b50565b505050565b5b81811015614bb157614ba6600082614b7a565b600181019050614b93565b5050565b601f821115614bf657614bc781614a96565b614bd084614aab565b81016020851015614bdf578190505b614bf3614beb85614aab565b830182614b92565b50505b505050565b600082821c905092915050565b6000614c1960001984600802614bfb565b1980831691505092915050565b6000614c328383614c08565b9150826002028217905092915050565b614c4b826138d9565b67ffffffffffffffff811115614c6457614c63613c07565b5b614c6e825461479a565b614c79828285614bb5565b600060209050601f831160018114614cac5760008415614c9a578287015190505b614ca48582614c26565b865550614d0c565b601f198416614cba86614a96565b60005b82811015614ce257848901518255600182019150602085019450602081019050614cbd565b86831015614cff5784890151614cfb601f891682614c08565b8355505b6001600288020188555050505b505050505050565b50565b6000614d246000836147cb565b9150614d2f82614d14565b600082019050919050565b6000614d4582614d17565b9150819050919050565b7f4661696c656420746f2073656e642066756e647320746f204e474f0000000000600082015250565b6000614d85601b836139ff565b9150614d9082614d4f565b602082019050919050565b60006020820190508181036000830152614db481614d78565b9050919050565b7f4e487b7100000000000000000000000000000000000000000000000000000000600052603260045260246000fd5b7f526566756e64206661696c656400000000000000000000000000000000000000600082015250565b6000614e20600d836139ff565b9150614e2b82614dea565b602082019050919050565b60006020820190508181036000830152614e4f81614e13565b9050919050565b60008154614e638161479a565b614e6d81866139ff565b94506001821660008114614e885760018114614e9e57614ed1565b60ff198316865281151560200286019350614ed1565b614ea785614a96565b60005b83811015614ec957815481890152600182019150602081019050614eaa565b808801955050505b50505092915050565b6000604082019050614eef6000830185613a49565b8181036020830152614f018184614e56565b90509392505050565b7f4d757374207374616b6520455448000000000000000000000000000000000000600082015250565b6000614f40600e836139ff565b9150614f4b82614f0a565b602082019050919050565b60006020820190508181036000830152614f6f81614f33565b9050919050565b7f4e474f20616c7265616479207265676973746572656400000000000000000000600082015250565b6000614fac6016836139ff565b9150614fb782614f76565b602082019050919050565b60006020820190508181036000830152614fdb81614f9f565b9050919050565b6000604082019050614ff7600083018561389e565b81810360208301526150098184613a10565b90509392505050565b7f4e474f206e6f7420726567697374657265640000000000000000000000000000600082015250565b60006150486012836139ff565b915061505382615012565b602082019050919050565b600060208201905081810360008301526150778161503b565b9050919050565b600061508982613809565b91507fffffffffffffffffffffffffffffffffffffffffffffffffffffffffffffffff82036150bb576150ba6148f1565b5b600182019050919050565b60006040820190506150db6000830185613a49565b6150e8602083018461389e565b9392505050565b600081905092915050565b7f5461736b20666f72200000000000000000000000000000000000000000000000600082015250565b60006151306009836150ef565b915061513b826150fa565b600982019050919050565b600081546151538161479a565b61515d81866150ef565b94506001821660008114615178576001811461518d576151c0565b60ff19831686528115158202860193506151c0565b61519685614a96565b60005b838110156151b857815481890152600182019150602081019050615199565b838801955050505b50505092915050565b7f20285374617475733a2000000000000000000000000000000000000000000000600082015250565b60006151ff600a836150ef565b915061520a826151c9565b600a82019050919050565b7f2900000000000000000000000000000000000000000000000000000000000000600082015250565b600061524b6001836150ef565b915061525682615215565b600182019050919050565b600061526c82615123565b91506152788285615146565b9150615283826151f2565b915061528f8284615146565b915061529a8261523e565b91508190509392505050565b7f4e6f7420616e204e474f206f7220616c72656164792077697468647261776e00600082015250565b60006152dc601f836139ff565b91506152e7826152a6565b602082019050919050565b6000602082019050818103600083015261530b816152cf565b9050919050565b7f43616e6e6f7420776974686472617720776974682070656e64696e672074617360008201527f6b73000000000000000000000000000000000000000000000000000000000000602082015250565b600061536e6022836139ff565b915061537982615312565b604082019050919050565b6000602082019050818103600083015261539d81615361565b9050919050565b7f5769746864726177616c206661696c6564000000000000000000000000000000600082015250565b60006153da6011836139ff565b91506153e5826153a4565b602082019050919050565b60006020820190508181036000830152615409816153cd565b9050919050565b6000604082019050615425600083018561389e565b6154326020830184613a49565b9392505050565b7f446964206e6f7420766f7465206f6e207461736b000000000000000000000000600082015250565b600061546f6014836139ff565b915061547a82615439565b602082019050919050565b6000602082019050818103600083015261549e81615462565b9050919050565b7f5461736b207374696c6c2070656e64696e670000000000000000000000000000600082015250565b60006154db6012836139ff565b91506154e6826154a5565b602082019050919050565b6000602082019050818103600083015261550a816154ce565b9050919050565b7f52657761726420636c61696d206661696c656400000000000000000000000000600082015250565b60006155476013836139ff565b915061555282615511565b602082019050919050565b600060208201905081810360008301526155768161553a565b9050919050565b7f4e6f74206120766f746572000000000000000000000000000000000000000000600082015250565b60006155b3600b836139ff565b91506155be8261557d565b602082019050919050565b600060208201905081810360008301526155e2816155a6565b9050919050565b7f416c726561647920766f74656400000000000000000000000000000000000000600082015250565b600061561f600d836139ff565b915061562a826155e9565b602082019050919050565b6000602082019050818103600083015261564e81615612565b9050919050565b7f5461736b206e6f742070656e64696e6700000000000000000000000000000000600082015250565b600061568b6010836139ff565b915061569682615655565b602082019050919050565b600060208201905081810360008301526156ba8161567e565b9050919050565b7f566f74696e6720706572696f6420656e64656400000000000000000000000000600082015250565b60006156f76013836139ff565b9150615702826156c1565b602082019050919050565b60006020820190508181036000830152615726816156ea565b9050919050565b60006060820190506157426000830186613a49565b61574f602083018561389e565b61575c6040830184613bd3565b949350505050565b7f416c7265616479206120766f7465720000000000000000000000000000000000600082015250565b600061579a600f836139ff565b91506157a582615764565b602082019050919050565b600060208201905081810360008301526157c98161578d565b9050919050565b7f4d75737420646f6e617465204554480000000000000000000000000000000000600082015250565b6000615806600f836139ff565b9150615811826157d0565b602082019050919050565b60006020820190508181036000830152615835816157f9565b9050919050565b60006080820190506158516000830187613a49565b61585e602083018661389e565b61586b6040830185613a49565b6158786060830184613a49565b9594505050505056fea2646970667358221220884387b434989fbc8116aa3175404a28a611b69f65dd78d802dc14aff4f79aac64736f6c634300081c0033","opcodes":"PUSH1 0x80 PUSH1 0x40 MSTORE CALLVALUE DUP1 ISZERO PUSH1 0xF JUMPI PUSH1 0x0 DUP1 REVERT JUMPDEST POP CALLER PUSH1 0x0 DUP1 PUSH2 0x100 EXP DUP2 SLOAD DUP2 PUSH20 0xFFFFFFFFFFFFFFFFFFFFFFFFFFFFFFFFFFFFFFFF MUL NOT AND SWAP1 DUP4 PUSH20 0xFFFFFFFFFFFFFFFFFFFFFFFFFFFFFFFFFFFFFFFF AND MUL OR SWAP1 SSTORE POP PUSH2 0x58B7 DUP1 PUSH2 0x5F PUSH1 0x0 CODECOPY PUSH1 0x0 RETURN INVALID PUSH1 0x80 PUSH1 0x40 MSTORE PUSH1 0x4 CALLDATASIZE LT PUSH2 0x19C JUMPI PUSH1 0x0 CALLDATALOAD PUSH1 0xE0 SHR DUP1 PUSH4 0x8D977672 GT PUSH2 0xEC JUMPI DUP1 PUSH4 0xC35B9030 GT PUSH2 0x8A JUMPI DUP1 PUSH4 0xDFFB0ECE GT PUSH2 0x64 JUMPI DUP1 PUSH4 0xDFFB0ECE EQ PUSH2 0x62C JUMPI DUP1 PUSH4 0xE6F7D11E EQ PUSH2 0x643 JUMPI DUP1 PUSH4 0xECB617D9 EQ PUSH2 0x683 JUMPI DUP1 PUSH4 0xF14FAF6F EQ PUSH2 0x68D JUMPI PUSH2 0x19C JUMP JUMPDEST DUP1 PUSH4 0xC35B9030 EQ PUSH2 0x5AF JUMPI DUP1 PUSH4 0xC893B82F EQ PUSH2 0x5DA JUMPI DUP1 PUSH4 0xC9D27AFE EQ PUSH2 0x603 JUMPI PUSH2 0x19C JUMP JUMPDEST DUP1 PUSH4 0x967F8982 GT PUSH2 0xC6 JUMPI DUP1 PUSH4 0x967F8982 EQ PUSH2 0x4E1 JUMPI DUP1 PUSH4 0x987BDEE4 EQ PUSH2 0x51E JUMPI DUP1 PUSH4 0xA3EC138D EQ PUSH2 0x535 JUMPI DUP1 PUSH4 0xBA71BEF0 EQ PUSH2 0x572 JUMPI PUSH2 0x19C JUMP JUMPDEST DUP1 PUSH4 0x8D977672 EQ PUSH2 0x436 JUMPI DUP1 PUSH4 0x8DA5CB5B EQ PUSH2 0x479 JUMPI DUP1 PUSH4 0x9255CB3B EQ PUSH2 0x4A4 JUMPI PUSH2 0x19C JUMP JUMPDEST DUP1 PUSH4 0x596D9CE2 GT PUSH2 0x159 JUMPI DUP1 PUSH4 0x779900B4 GT PUSH2 0x133 JUMPI DUP1 PUSH4 0x779900B4 EQ PUSH2 0x377 JUMPI DUP1 PUSH4 0x7ABE26B4 EQ PUSH2 0x3A2 JUMPI DUP1 PUSH4 0x82C4DBE5 EQ PUSH2 0x3E0 JUMPI DUP1 PUSH4 0x87B5A2DD EQ PUSH2 0x40B JUMPI PUSH2 0x19C JUMP JUMPDEST DUP1 PUSH4 0x596D9CE2 EQ PUSH2 0x2D1 JUMPI DUP1 PUSH4 0x734D78C5 EQ PUSH2 0x30E JUMPI DUP1 PUSH4 0x771F84FE EQ PUSH2 0x34E JUMPI PUSH2 0x19C JUMP JUMPDEST DUP1 PUSH4 0x3888B9D5 EQ PUSH2 0x1A1 JUMPI DUP1 PUSH4 0x3DF78C91 EQ PUSH2 0x1E5 JUMPI DUP1 PUSH4 0x42545825 EQ PUSH2 0x224 JUMPI DUP1 PUSH4 0x456D908E EQ PUSH2 0x261 JUMPI DUP1 PUSH4 0x48F667B3 EQ PUSH2 0x28A JUMPI DUP1 PUSH4 0x58671730 EQ PUSH2 0x2A6 JUMPI JUMPDEST PUSH1 0x0 DUP1 REVERT JUMPDEST CALLVALUE DUP1 ISZERO PUSH2 0x1AD JUMPI PUSH1 0x0 DUP1 REVERT JUMPDEST POP PUSH2 0x1C8 PUSH1 0x4 DUP1 CALLDATASIZE SUB DUP2 ADD SWAP1 PUSH2 0x1C3 SWAP2 SWAP1 PUSH2 0x383F JUMP JUMPDEST PUSH2 0x6A9 JUMP JUMPDEST PUSH1 0x40 MLOAD PUSH2 0x1DC SWAP9 SWAP8 SWAP7 SWAP6 SWAP5 SWAP4 SWAP3 SWAP2 SWAP1 PUSH2 0x3A58 JUMP JUMPDEST PUSH1 0x40 MLOAD DUP1 SWAP2 SUB SWAP1 RETURN JUMPDEST CALLVALUE DUP1 ISZERO PUSH2 0x1F1 JUMPI PUSH1 0x0 DUP1 REVERT JUMPDEST POP PUSH2 0x20C PUSH1 0x4 DUP1 CALLDATASIZE SUB DUP2 ADD SWAP1 PUSH2 0x207 SWAP2 SWAP1 PUSH2 0x3AE4 JUMP JUMPDEST PUSH2 0x920 JUMP JUMPDEST PUSH1 0x40 MLOAD PUSH2 0x21B SWAP4 SWAP3 SWAP2 SWAP1 PUSH2 0x3B24 JUMP JUMPDEST PUSH1 0x40 MLOAD DUP1 SWAP2 SUB SWAP1 RETURN JUMPDEST CALLVALUE DUP1 ISZERO PUSH2 0x230 JUMPI PUSH1 0x0 DUP1 REVERT JUMPDEST POP PUSH2 0x24B PUSH1 0x4 DUP1 CALLDATASIZE SUB DUP2 ADD SWAP1 PUSH2 0x246 SWAP2 SWAP1 PUSH2 0x3B87 JUMP JUMPDEST PUSH2 0x987 JUMP JUMPDEST PUSH1 0x40 MLOAD PUSH2 0x258 SWAP2 SWAP1 PUSH2 0x3BE2 JUMP JUMPDEST PUSH1 0x40 MLOAD DUP1 SWAP2 SUB SWAP1 RETURN JUMPDEST CALLVALUE DUP1 ISZERO PUSH2 0x26D JUMPI PUSH1 0x0 DUP1 REVERT JUMPDEST POP PUSH2 0x288 PUSH1 0x4 DUP1 CALLDATASIZE SUB DUP2 ADD SWAP1 PUSH2 0x283 SWAP2 SWAP1 PUSH2 0x383F JUMP JUMPDEST PUSH2 0x9F2 JUMP JUMPDEST STOP JUMPDEST PUSH2 0x2A4 PUSH1 0x4 DUP1 CALLDATASIZE SUB DUP2 ADD SWAP1 PUSH2 0x29F SWAP2 SWAP1 PUSH2 0x3D32 JUMP JUMPDEST PUSH2 0xFE1 JUMP JUMPDEST STOP JUMPDEST CALLVALUE DUP1 ISZERO PUSH2 0x2B2 JUMPI PUSH1 0x0 DUP1 REVERT JUMPDEST POP PUSH2 0x2BB PUSH2 0x1265 JUMP JUMPDEST PUSH1 0x40 MLOAD PUSH2 0x2C8 SWAP2 SWAP1 PUSH2 0x3DD9 JUMP JUMPDEST PUSH1 0x40 MLOAD DUP1 SWAP2 SUB SWAP1 RETURN JUMPDEST CALLVALUE DUP1 ISZERO PUSH2 0x2DD JUMPI PUSH1 0x0 DUP1 REVERT JUMPDEST POP PUSH2 0x2F8 PUSH1 0x4 DUP1 CALLDATASIZE SUB DUP2 ADD SWAP1 PUSH2 0x2F3 SWAP2 SWAP1 PUSH2 0x383F JUMP JUMPDEST PUSH2 0x126B JUMP JUMPDEST PUSH1 0x40 MLOAD PUSH2 0x305 SWAP2 SWAP1 PUSH2 0x3F03 JUMP JUMPDEST PUSH1 0x40 MLOAD DUP1 SWAP2 SUB SWAP1 RETURN JUMPDEST CALLVALUE DUP1 ISZERO PUSH2 0x31A JUMPI PUSH1 0x0 DUP1 REVERT JUMPDEST POP PUSH2 0x335 PUSH1 0x4 DUP1 CALLDATASIZE SUB DUP2 ADD SWAP1 PUSH2 0x330 SWAP2 SWAP1 PUSH2 0x3F25 JUMP JUMPDEST PUSH2 0x1347 JUMP JUMPDEST PUSH1 0x40 MLOAD PUSH2 0x345 SWAP5 SWAP4 SWAP3 SWAP2 SWAP1 PUSH2 0x4001 JUMP JUMPDEST PUSH1 0x40 MLOAD DUP1 SWAP2 SUB SWAP1 RETURN JUMPDEST CALLVALUE DUP1 ISZERO PUSH2 0x35A JUMPI PUSH1 0x0 DUP1 REVERT JUMPDEST POP PUSH2 0x375 PUSH1 0x4 DUP1 CALLDATASIZE SUB DUP2 ADD SWAP1 PUSH2 0x370 SWAP2 SWAP1 PUSH2 0x4141 JUMP JUMPDEST PUSH2 0x1563 JUMP JUMPDEST STOP JUMPDEST CALLVALUE DUP1 ISZERO PUSH2 0x383 JUMPI PUSH1 0x0 DUP1 REVERT JUMPDEST POP PUSH2 0x38C PUSH2 0x176F JUMP JUMPDEST PUSH1 0x40 MLOAD PUSH2 0x399 SWAP2 SWAP1 PUSH2 0x418A JUMP JUMPDEST PUSH1 0x40 MLOAD DUP1 SWAP2 SUB SWAP1 RETURN JUMPDEST CALLVALUE DUP1 ISZERO PUSH2 0x3AE JUMPI PUSH1 0x0 DUP1 REVERT JUMPDEST POP PUSH2 0x3C9 PUSH1 0x4 DUP1 CALLDATASIZE SUB DUP2 ADD SWAP1 PUSH2 0x3C4 SWAP2 SWAP1 PUSH2 0x3F25 JUMP JUMPDEST PUSH2 0x1817 JUMP JUMPDEST PUSH1 0x40 MLOAD PUSH2 0x3D7 SWAP3 SWAP2 SWAP1 PUSH2 0x41AC JUMP JUMPDEST PUSH1 0x40 MLOAD DUP1 SWAP2 SUB SWAP1 RETURN JUMPDEST CALLVALUE DUP1 ISZERO PUSH2 0x3EC JUMPI PUSH1 0x0 DUP1 REVERT JUMPDEST POP PUSH2 0x3F5 PUSH2 0x1A41 JUMP JUMPDEST PUSH1 0x40 MLOAD PUSH2 0x402 SWAP2 SWAP1 PUSH2 0x44B5 JUMP JUMPDEST PUSH1 0x40 MLOAD DUP1 SWAP2 SUB SWAP1 RETURN JUMPDEST CALLVALUE DUP1 ISZERO PUSH2 0x417 JUMPI PUSH1 0x0 DUP1 REVERT JUMPDEST POP PUSH2 0x420 PUSH2 0x1EA7 JUMP JUMPDEST PUSH1 0x40 MLOAD PUSH2 0x42D SWAP2 SWAP1 PUSH2 0x4586 JUMP JUMPDEST PUSH1 0x40 MLOAD DUP1 SWAP2 SUB SWAP1 RETURN JUMPDEST CALLVALUE DUP1 ISZERO PUSH2 0x442 JUMPI PUSH1 0x0 DUP1 REVERT JUMPDEST POP PUSH2 0x45D PUSH1 0x4 DUP1 CALLDATASIZE SUB DUP2 ADD SWAP1 PUSH2 0x458 SWAP2 SWAP1 PUSH2 0x383F JUMP JUMPDEST PUSH2 0x1F35 JUMP JUMPDEST PUSH1 0x40 MLOAD PUSH2 0x470 SWAP8 SWAP7 SWAP6 SWAP5 SWAP4 SWAP3 SWAP2 SWAP1 PUSH2 0x45A8 JUMP JUMPDEST PUSH1 0x40 MLOAD DUP1 SWAP2 SUB SWAP1 RETURN JUMPDEST CALLVALUE DUP1 ISZERO PUSH2 0x485 JUMPI PUSH1 0x0 DUP1 REVERT JUMPDEST POP PUSH2 0x48E PUSH2 0x201F JUMP JUMPDEST PUSH1 0x40 MLOAD PUSH2 0x49B SWAP2 SWAP1 PUSH2 0x461E JUMP JUMPDEST PUSH1 0x40 MLOAD DUP1 SWAP2 SUB SWAP1 RETURN JUMPDEST CALLVALUE DUP1 ISZERO PUSH2 0x4B0 JUMPI PUSH1 0x0 DUP1 REVERT JUMPDEST POP PUSH2 0x4CB PUSH1 0x4 DUP1 CALLDATASIZE SUB DUP2 ADD SWAP1 PUSH2 0x4C6 SWAP2 SWAP1 PUSH2 0x3F25 JUMP JUMPDEST PUSH2 0x2043 JUMP JUMPDEST PUSH1 0x40 MLOAD PUSH2 0x4D8 SWAP2 SWAP1 PUSH2 0x3DD9 JUMP JUMPDEST PUSH1 0x40 MLOAD DUP1 SWAP2 SUB SWAP1 RETURN JUMPDEST CALLVALUE DUP1 ISZERO PUSH2 0x4ED JUMPI PUSH1 0x0 DUP1 REVERT JUMPDEST POP PUSH2 0x508 PUSH1 0x4 DUP1 CALLDATASIZE SUB DUP2 ADD SWAP1 PUSH2 0x503 SWAP2 SWAP1 PUSH2 0x383F JUMP JUMPDEST PUSH2 0x21CA JUMP JUMPDEST PUSH1 0x40 MLOAD PUSH2 0x515 SWAP2 SWAP1 PUSH2 0x461E JUMP JUMPDEST PUSH1 0x40 MLOAD DUP1 SWAP2 SUB SWAP1 RETURN JUMPDEST CALLVALUE DUP1 ISZERO PUSH2 0x52A JUMPI PUSH1 0x0 DUP1 REVERT JUMPDEST POP PUSH2 0x533 PUSH2 0x2209 JUMP JUMPDEST STOP JUMPDEST CALLVALUE DUP1 ISZERO PUSH2 0x541 JUMPI PUSH1 0x0 DUP1 REVERT JUMPDEST POP PUSH2 0x55C PUSH1 0x4 DUP1 CALLDATASIZE SUB DUP2 ADD SWAP1 PUSH2 0x557 SWAP2 SWAP1 PUSH2 0x3F25 JUMP JUMPDEST PUSH2 0x24DB JUMP JUMPDEST PUSH1 0x40 MLOAD PUSH2 0x569 SWAP2 SWAP1 PUSH2 0x3DD9 JUMP JUMPDEST PUSH1 0x40 MLOAD DUP1 SWAP2 SUB SWAP1 RETURN JUMPDEST CALLVALUE DUP1 ISZERO PUSH2 0x57E JUMPI PUSH1 0x0 DUP1 REVERT JUMPDEST POP PUSH2 0x599 PUSH1 0x4 DUP1 CALLDATASIZE SUB DUP2 ADD SWAP1 PUSH2 0x594 SWAP2 SWAP1 PUSH2 0x3F25 JUMP JUMPDEST PUSH2 0x24F9 JUMP JUMPDEST PUSH1 0x40 MLOAD PUSH2 0x5A6 SWAP2 SWAP1 PUSH2 0x3DD9 JUMP JUMPDEST PUSH1 0x40 MLOAD DUP1 SWAP2 SUB SWAP1 RETURN JUMPDEST CALLVALUE DUP1 ISZERO PUSH2 0x5BB JUMPI PUSH1 0x0 DUP1 REVERT JUMPDEST POP PUSH2 0x5C4 PUSH2 0x2545 JUMP JUMPDEST PUSH1 0x40 MLOAD PUSH2 0x5D1 SWAP2 SWAP1 PUSH2 0x418A JUMP JUMPDEST PUSH1 0x40 MLOAD DUP1 SWAP2 SUB SWAP1 RETURN JUMPDEST CALLVALUE DUP1 ISZERO PUSH2 0x5E6 JUMPI PUSH1 0x0 DUP1 REVERT JUMPDEST POP PUSH2 0x601 PUSH1 0x4 DUP1 CALLDATASIZE SUB DUP2 ADD SWAP1 PUSH2 0x5FC SWAP2 SWAP1 PUSH2 0x383F JUMP JUMPDEST PUSH2 0x2761 JUMP JUMPDEST STOP JUMPDEST CALLVALUE DUP1 ISZERO PUSH2 0x60F JUMPI PUSH1 0x0 DUP1 REVERT JUMPDEST POP PUSH2 0x62A PUSH1 0x4 DUP1 CALLDATASIZE SUB DUP2 ADD SWAP1 PUSH2 0x625 SWAP2 SWAP1 PUSH2 0x4665 JUMP JUMPDEST PUSH2 0x2A45 JUMP JUMPDEST STOP JUMPDEST CALLVALUE DUP1 ISZERO PUSH2 0x638 JUMPI PUSH1 0x0 DUP1 REVERT JUMPDEST POP PUSH2 0x641 PUSH2 0x2EC6 JUMP JUMPDEST STOP JUMPDEST CALLVALUE DUP1 ISZERO PUSH2 0x64F JUMPI PUSH1 0x0 DUP1 REVERT JUMPDEST POP PUSH2 0x66A PUSH1 0x4 DUP1 CALLDATASIZE SUB DUP2 ADD SWAP1 PUSH2 0x665 SWAP2 SWAP1 PUSH2 0x3F25 JUMP JUMPDEST PUSH2 0x308A JUMP JUMPDEST PUSH1 0x40 MLOAD PUSH2 0x67A SWAP5 SWAP4 SWAP3 SWAP2 SWAP1 PUSH2 0x46A5 JUMP JUMPDEST PUSH1 0x40 MLOAD DUP1 SWAP2 SUB SWAP1 RETURN JUMPDEST PUSH2 0x68B PUSH2 0x3252 JUMP JUMPDEST STOP JUMPDEST PUSH2 0x6A7 PUSH1 0x4 DUP1 CALLDATASIZE SUB DUP2 ADD SWAP1 PUSH2 0x6A2 SWAP2 SWAP1 PUSH2 0x383F JUMP JUMPDEST PUSH2 0x339C JUMP JUMPDEST STOP JUMPDEST PUSH1 0x0 PUSH1 0x60 DUP1 PUSH1 0x0 DUP1 PUSH1 0x0 DUP1 PUSH1 0x0 DUP1 PUSH1 0x3 PUSH1 0x0 DUP12 DUP2 MSTORE PUSH1 0x20 ADD SWAP1 DUP2 MSTORE PUSH1 0x20 ADD PUSH1 0x0 KECCAK256 SWAP1 POP PUSH1 0x0 PUSH20 0xFFFFFFFFFFFFFFFFFFFFFFFFFFFFFFFFFFFFFFFF AND DUP2 PUSH1 0x0 ADD PUSH1 0x0 SWAP1 SLOAD SWAP1 PUSH2 0x100 EXP SWAP1 DIV PUSH20 0xFFFFFFFFFFFFFFFFFFFFFFFFFFFFFFFFFFFFFFFF AND PUSH20 0xFFFFFFFFFFFFFFFFFFFFFFFFFFFFFFFFFFFFFFFF AND SUB PUSH2 0x75F JUMPI PUSH1 0x40 MLOAD PUSH32 0x8C379A000000000000000000000000000000000000000000000000000000000 DUP2 MSTORE PUSH1 0x4 ADD PUSH2 0x756 SWAP1 PUSH2 0x474B JUMP JUMPDEST PUSH1 0x40 MLOAD DUP1 SWAP2 SUB SWAP1 REVERT JUMPDEST DUP1 PUSH1 0x0 ADD PUSH1 0x0 SWAP1 SLOAD SWAP1 PUSH2 0x100 EXP SWAP1 DIV PUSH20 0xFFFFFFFFFFFFFFFFFFFFFFFFFFFFFFFFFFFFFFFF AND DUP2 PUSH1 0x1 ADD DUP3 PUSH1 0x2 ADD DUP4 PUSH1 0x3 ADD SLOAD DUP5 PUSH1 0x4 ADD SLOAD DUP6 PUSH1 0x5 ADD SLOAD DUP7 PUSH1 0x6 ADD SLOAD DUP8 PUSH1 0x8 ADD SLOAD DUP7 DUP1 SLOAD DUP1 PUSH1 0x20 MUL PUSH1 0x20 ADD PUSH1 0x40 MLOAD SWAP1 DUP2 ADD PUSH1 0x40 MSTORE DUP1 SWAP3 SWAP2 SWAP1 DUP2 DUP2 MSTORE PUSH1 0x20 ADD PUSH1 0x0 SWAP1 JUMPDEST DUP3 DUP3 LT ISZERO PUSH2 0x872 JUMPI DUP4 DUP3 SWAP1 PUSH1 0x0 MSTORE PUSH1 0x20 PUSH1 0x0 KECCAK256 ADD DUP1 SLOAD PUSH2 0x7E5 SWAP1 PUSH2 0x479A JUMP JUMPDEST DUP1 PUSH1 0x1F ADD PUSH1 0x20 DUP1 SWAP2 DIV MUL PUSH1 0x20 ADD PUSH1 0x40 MLOAD SWAP1 DUP2 ADD PUSH1 0x40 MSTORE DUP1 SWAP3 SWAP2 SWAP1 DUP2 DUP2 MSTORE PUSH1 0x20 ADD DUP3 DUP1 SLOAD PUSH2 0x811 SWAP1 PUSH2 0x479A JUMP JUMPDEST DUP1 ISZERO PUSH2 0x85E JUMPI DUP1 PUSH1 0x1F LT PUSH2 0x833 JUMPI PUSH2 0x100 DUP1 DUP4 SLOAD DIV MUL DUP4 MSTORE SWAP2 PUSH1 0x20 ADD SWAP2 PUSH2 0x85E JUMP JUMPDEST DUP3 ADD SWAP2 SWAP1 PUSH1 0x0 MSTORE PUSH1 0x20 PUSH1 0x0 KECCAK256 SWAP1 JUMPDEST DUP2 SLOAD DUP2 MSTORE SWAP1 PUSH1 0x1 ADD SWAP1 PUSH1 0x20 ADD DUP1 DUP4 GT PUSH2 0x841 JUMPI DUP3 SWAP1 SUB PUSH1 0x1F AND DUP3 ADD SWAP2 JUMPDEST POP POP POP POP POP DUP2 MSTORE PUSH1 0x20 ADD SWAP1 PUSH1 0x1 ADD SWAP1 PUSH2 0x7C6 JUMP JUMPDEST POP POP POP POP SWAP7 POP DUP6 DUP1 SLOAD PUSH2 0x884 SWAP1 PUSH2 0x479A JUMP JUMPDEST DUP1 PUSH1 0x1F ADD PUSH1 0x20 DUP1 SWAP2 DIV MUL PUSH1 0x20 ADD PUSH1 0x40 MLOAD SWAP1 DUP2 ADD PUSH1 0x40 MSTORE DUP1 SWAP3 SWAP2 SWAP1 DUP2 DUP2 MSTORE PUSH1 0x20 ADD DUP3 DUP1 SLOAD PUSH2 0x8B0 SWAP1 PUSH2 0x479A JUMP JUMPDEST DUP1 ISZERO PUSH2 0x8FD JUMPI DUP1 PUSH1 0x1F LT PUSH2 0x8D2 JUMPI PUSH2 0x100 DUP1 DUP4 SLOAD DIV MUL DUP4 MSTORE SWAP2 PUSH1 0x20 ADD SWAP2 PUSH2 0x8FD JUMP JUMPDEST DUP3 ADD SWAP2 SWAP1 PUSH1 0x0 MSTORE PUSH1 0x20 PUSH1 0x0 KECCAK256 SWAP1 JUMPDEST DUP2 SLOAD DUP2 MSTORE SWAP1 PUSH1 0x1 ADD SWAP1 PUSH1 0x20 ADD DUP1 DUP4 GT PUSH2 0x8E0 JUMPI DUP3 SWAP1 SUB PUSH1 0x1F AND DUP3 ADD SWAP2 JUMPDEST POP POP POP POP POP SWAP6 POP SWAP9 POP SWAP9 POP SWAP9 POP SWAP9 POP SWAP9 POP SWAP9 POP SWAP9 POP SWAP9 POP POP SWAP2 SWAP4 SWAP6 SWAP8 POP SWAP2 SWAP4 SWAP6 SWAP8 JUMP JUMPDEST PUSH1 0x4 PUSH1 0x20 MSTORE DUP2 PUSH1 0x0 MSTORE PUSH1 0x40 PUSH1 0x0 KECCAK256 DUP2 DUP2 SLOAD DUP2 LT PUSH2 0x93C JUMPI PUSH1 0x0 DUP1 REVERT JUMPDEST SWAP1 PUSH1 0x0 MSTORE PUSH1 0x20 PUSH1 0x0 KECCAK256 SWAP1 PUSH1 0x3 MUL ADD PUSH1 0x0 SWAP2 POP SWAP2 POP POP DUP1 PUSH1 0x0 ADD PUSH1 0x0 SWAP1 SLOAD SWAP1 PUSH2 0x100 EXP SWAP1 DIV PUSH20 0xFFFFFFFFFFFFFFFFFFFFFFFFFFFFFFFFFFFFFFFF AND SWAP1 DUP1 PUSH1 0x1 ADD SLOAD SWAP1 DUP1 PUSH1 0x2 ADD SLOAD SWAP1 POP DUP4 JUMP JUMPDEST PUSH1 0x0 PUSH1 0x2 PUSH1 0x0 DUP5 PUSH20 0xFFFFFFFFFFFFFFFFFFFFFFFFFFFFFFFFFFFFFFFF AND PUSH20 0xFFFFFFFFFFFFFFFFFFFFFFFFFFFFFFFFFFFFFFFF AND DUP2 MSTORE PUSH1 0x20 ADD SWAP1 DUP2 MSTORE PUSH1 0x20 ADD PUSH1 0x0 KECCAK256 PUSH1 0x1 ADD PUSH1 0x0 DUP4 DUP2 MSTORE PUSH1 0x20 ADD SWAP1 DUP2 MSTORE PUSH1 0x20 ADD PUSH1 0x0 KECCAK256 PUSH1 0x0 SWAP1 SLOAD SWAP1 PUSH2 0x100 EXP SWAP1 DIV PUSH1 0xFF AND SWAP1 POP SWAP3 SWAP2 POP POP JUMP JUMPDEST PUSH1 0x0 PUSH1 0x3 PUSH1 0x0 DUP4 DUP2 MSTORE PUSH1 0x20 ADD SWAP1 DUP2 MSTORE PUSH1 0x20 ADD PUSH1 0x0 KECCAK256 SWAP1 POP PUSH1 0x0 PUSH20 0xFFFFFFFFFFFFFFFFFFFFFFFFFFFFFFFFFFFFFFFF AND DUP2 PUSH1 0x0 ADD PUSH1 0x0 SWAP1 SLOAD SWAP1 PUSH2 0x100 EXP SWAP1 DIV PUSH20 0xFFFFFFFFFFFFFFFFFFFFFFFFFFFFFFFFFFFFFFFF AND PUSH20 0xFFFFFFFFFFFFFFFFFFFFFFFFFFFFFFFFFFFFFFFF AND SUB PUSH2 0xA9C JUMPI PUSH1 0x40 MLOAD PUSH32 0x8C379A000000000000000000000000000000000000000000000000000000000 DUP2 MSTORE PUSH1 0x4 ADD PUSH2 0xA93 SWAP1 PUSH2 0x474B JUMP JUMPDEST PUSH1 0x40 MLOAD DUP1 SWAP2 SUB SWAP1 REVERT JUMPDEST PUSH1 0x40 MLOAD DUP1 PUSH1 0x40 ADD PUSH1 0x40 MSTORE DUP1 PUSH1 0x7 DUP2 MSTORE PUSH1 0x20 ADD PUSH32 0x70656E64696E6700000000000000000000000000000000000000000000000000 DUP2 MSTORE POP DUP1 MLOAD SWAP1 PUSH1 0x20 ADD KECCAK256 DUP2 PUSH1 0x2 ADD PUSH1 0x40 MLOAD PUSH2 0xAEA SWAP2 SWAP1 PUSH2 0x486E JUMP JUMPDEST PUSH1 0x40 MLOAD DUP1 SWAP2 SUB SWAP1 KECCAK256 EQ PUSH2 0xB32 JUMPI PUSH1 0x40 MLOAD PUSH32 0x8C379A000000000000000000000000000000000000000000000000000000000 DUP2 MSTORE PUSH1 0x4 ADD PUSH2 0xB29 SWAP1 PUSH2 0x48D1 JUMP JUMPDEST PUSH1 0x40 MLOAD DUP1 SWAP2 SUB SWAP1 REVERT JUMPDEST PUSH3 0x93A80 DUP2 PUSH1 0x6 ADD SLOAD PUSH2 0xB45 SWAP2 SWAP1 PUSH2 0x4920 JUMP JUMPDEST TIMESTAMP GT PUSH2 0xB86 JUMPI PUSH1 0x40 MLOAD PUSH32 0x8C379A000000000000000000000000000000000000000000000000000000000 DUP2 MSTORE PUSH1 0x4 ADD PUSH2 0xB7D SWAP1 PUSH2 0x49A0 JUMP JUMPDEST PUSH1 0x40 MLOAD DUP1 SWAP2 SUB SWAP1 REVERT JUMPDEST PUSH1 0x0 DUP1 DUP3 PUSH1 0x8 ADD SLOAD GT PUSH2 0xB9A JUMPI PUSH1 0x0 PUSH2 0xBB8 JUMP JUMPDEST PUSH1 0x64 PUSH1 0x5 DUP4 PUSH1 0x5 ADD SLOAD PUSH2 0xBAD SWAP2 SWAP1 PUSH2 0x49C0 JUMP JUMPDEST PUSH2 0xBB7 SWAP2 SWAP1 PUSH2 0x4A31 JUMP JUMPDEST JUMPDEST SWAP1 POP PUSH1 0x0 DUP2 DUP4 PUSH1 0x5 ADD SLOAD PUSH2 0xBCC SWAP2 SWAP1 PUSH2 0x4A62 JUMP JUMPDEST SWAP1 POP PUSH1 0x0 DUP4 PUSH1 0x4 ADD SLOAD DUP5 PUSH1 0x3 ADD SLOAD PUSH2 0xBE4 SWAP2 SWAP1 PUSH2 0x4920 JUMP JUMPDEST SWAP1 POP PUSH1 0x0 DUP2 GT DUP1 ISZERO PUSH2 0xC12 JUMPI POP PUSH1 0x32 DUP2 PUSH1 0x64 DUP7 PUSH1 0x3 ADD SLOAD PUSH2 0xC05 SWAP2 SWAP1 PUSH2 0x49C0 JUMP JUMPDEST PUSH2 0xC0F SWAP2 SWAP1 PUSH2 0x4A31 JUMP JUMPDEST LT ISZERO JUMPDEST ISZERO PUSH2 0xD34 JUMPI PUSH1 0x40 MLOAD DUP1 PUSH1 0x40 ADD PUSH1 0x40 MSTORE DUP1 PUSH1 0x8 DUP2 MSTORE PUSH1 0x20 ADD PUSH32 0x617070726F766564000000000000000000000000000000000000000000000000 DUP2 MSTORE POP DUP5 PUSH1 0x2 ADD SWAP1 DUP2 PUSH2 0xC5D SWAP2 SWAP1 PUSH2 0x4C42 JUMP JUMPDEST POP PUSH1 0x0 DUP5 PUSH1 0x0 ADD PUSH1 0x0 SWAP1 SLOAD SWAP1 PUSH2 0x100 EXP SWAP1 DIV PUSH20 0xFFFFFFFFFFFFFFFFFFFFFFFFFFFFFFFFFFFFFFFF AND PUSH20 0xFFFFFFFFFFFFFFFFFFFFFFFFFFFFFFFFFFFFFFFF AND DUP4 PUSH1 0x40 MLOAD PUSH2 0xCA8 SWAP1 PUSH2 0x4D3A JUMP JUMPDEST PUSH1 0x0 PUSH1 0x40 MLOAD DUP1 DUP4 SUB DUP2 DUP6 DUP8 GAS CALL SWAP3 POP POP POP RETURNDATASIZE DUP1 PUSH1 0x0 DUP2 EQ PUSH2 0xCE5 JUMPI PUSH1 0x40 MLOAD SWAP2 POP PUSH1 0x1F NOT PUSH1 0x3F RETURNDATASIZE ADD AND DUP3 ADD PUSH1 0x40 MSTORE RETURNDATASIZE DUP3 MSTORE RETURNDATASIZE PUSH1 0x0 PUSH1 0x20 DUP5 ADD RETURNDATACOPY PUSH2 0xCEA JUMP JUMPDEST PUSH1 0x60 SWAP2 POP JUMPDEST POP POP SWAP1 POP DUP1 PUSH2 0xD2E JUMPI PUSH1 0x40 MLOAD PUSH32 0x8C379A000000000000000000000000000000000000000000000000000000000 DUP2 MSTORE PUSH1 0x4 ADD PUSH2 0xD25 SWAP1 PUSH2 0x4D9B JUMP JUMPDEST PUSH1 0x40 MLOAD DUP1 SWAP2 SUB SWAP1 REVERT JUMPDEST POP PUSH2 0xF9E JUMP JUMPDEST PUSH1 0x40 MLOAD DUP1 PUSH1 0x40 ADD PUSH1 0x40 MSTORE DUP1 PUSH1 0x8 DUP2 MSTORE PUSH1 0x20 ADD PUSH32 0x72656A6563746564000000000000000000000000000000000000000000000000 DUP2 MSTORE POP DUP5 PUSH1 0x2 ADD SWAP1 DUP2 PUSH2 0xD7A SWAP2 SWAP1 PUSH2 0x4C42 JUMP JUMPDEST POP PUSH1 0x0 DUP1 JUMPDEST PUSH1 0x4 PUSH1 0x0 DUP9 DUP2 MSTORE PUSH1 0x20 ADD SWAP1 DUP2 MSTORE PUSH1 0x20 ADD PUSH1 0x0 KECCAK256 DUP1 SLOAD SWAP1 POP DUP2 LT ISZERO PUSH2 0xDEE JUMPI PUSH1 0x4 PUSH1 0x0 DUP9 DUP2 MSTORE PUSH1 0x20 ADD SWAP1 DUP2 MSTORE PUSH1 0x20 ADD PUSH1 0x0 KECCAK256 DUP2 DUP2 SLOAD DUP2 LT PUSH2 0xDC2 JUMPI PUSH2 0xDC1 PUSH2 0x4DBB JUMP JUMPDEST JUMPDEST SWAP1 PUSH1 0x0 MSTORE PUSH1 0x20 PUSH1 0x0 KECCAK256 SWAP1 PUSH1 0x3 MUL ADD PUSH1 0x1 ADD SLOAD DUP3 PUSH2 0xDDF SWAP2 SWAP1 PUSH2 0x4920 JUMP JUMPDEST SWAP2 POP DUP1 DUP1 PUSH1 0x1 ADD SWAP2 POP POP PUSH2 0xD7F JUMP JUMPDEST POP PUSH1 0x0 JUMPDEST PUSH1 0x4 PUSH1 0x0 DUP9 DUP2 MSTORE PUSH1 0x20 ADD SWAP1 DUP2 MSTORE PUSH1 0x20 ADD PUSH1 0x0 KECCAK256 DUP1 SLOAD SWAP1 POP DUP2 LT ISZERO PUSH2 0xF9B JUMPI PUSH1 0x0 PUSH1 0x4 PUSH1 0x0 DUP10 DUP2 MSTORE PUSH1 0x20 ADD SWAP1 DUP2 MSTORE PUSH1 0x20 ADD PUSH1 0x0 KECCAK256 DUP3 DUP2 SLOAD DUP2 LT PUSH2 0xE37 JUMPI PUSH2 0xE36 PUSH2 0x4DBB JUMP JUMPDEST JUMPDEST SWAP1 PUSH1 0x0 MSTORE PUSH1 0x20 PUSH1 0x0 KECCAK256 SWAP1 PUSH1 0x3 MUL ADD PUSH1 0x40 MLOAD DUP1 PUSH1 0x60 ADD PUSH1 0x40 MSTORE SWAP1 DUP2 PUSH1 0x0 DUP3 ADD PUSH1 0x0 SWAP1 SLOAD SWAP1 PUSH2 0x100 EXP SWAP1 DIV PUSH20 0xFFFFFFFFFFFFFFFFFFFFFFFFFFFFFFFFFFFFFFFF AND PUSH20 0xFFFFFFFFFFFFFFFFFFFFFFFFFFFFFFFFFFFFFFFF AND PUSH20 0xFFFFFFFFFFFFFFFFFFFFFFFFFFFFFFFFFFFFFFFF AND DUP2 MSTORE PUSH1 0x20 ADD PUSH1 0x1 DUP3 ADD SLOAD DUP2 MSTORE PUSH1 0x20 ADD PUSH1 0x2 DUP3 ADD SLOAD DUP2 MSTORE POP POP SWAP1 POP PUSH1 0x0 DUP4 DUP7 DUP4 PUSH1 0x20 ADD MLOAD PUSH2 0xECF SWAP2 SWAP1 PUSH2 0x49C0 JUMP JUMPDEST PUSH2 0xED9 SWAP2 SWAP1 PUSH2 0x4A31 JUMP JUMPDEST SWAP1 POP PUSH1 0x0 DUP3 PUSH1 0x0 ADD MLOAD PUSH20 0xFFFFFFFFFFFFFFFFFFFFFFFFFFFFFFFFFFFFFFFF AND DUP3 PUSH1 0x40 MLOAD PUSH2 0xF05 SWAP1 PUSH2 0x4D3A JUMP JUMPDEST PUSH1 0x0 PUSH1 0x40 MLOAD DUP1 DUP4 SUB DUP2 DUP6 DUP8 GAS CALL SWAP3 POP POP POP RETURNDATASIZE DUP1 PUSH1 0x0 DUP2 EQ PUSH2 0xF42 JUMPI PUSH1 0x40 MLOAD SWAP2 POP PUSH1 0x1F NOT PUSH1 0x3F RETURNDATASIZE ADD AND DUP3 ADD PUSH1 0x40 MSTORE RETURNDATASIZE DUP3 MSTORE RETURNDATASIZE PUSH1 0x0 PUSH1 0x20 DUP5 ADD RETURNDATACOPY PUSH2 0xF47 JUMP JUMPDEST PUSH1 0x60 SWAP2 POP JUMPDEST POP POP SWAP1 POP DUP1 PUSH2 0xF8B JUMPI PUSH1 0x40 MLOAD PUSH32 0x8C379A000000000000000000000000000000000000000000000000000000000 DUP2 MSTORE PUSH1 0x4 ADD PUSH2 0xF82 SWAP1 PUSH2 0x4E36 JUMP JUMPDEST PUSH1 0x40 MLOAD DUP1 SWAP2 SUB SWAP1 REVERT JUMPDEST POP POP POP DUP1 DUP1 PUSH1 0x1 ADD SWAP2 POP POP PUSH2 0xDF2 JUMP JUMPDEST POP POP JUMPDEST PUSH32 0x622E8AEA88C24B5860EE5C8B8FBF8E18B632E7A412ED546C499DED2088E187AD DUP6 DUP6 PUSH1 0x2 ADD PUSH1 0x40 MLOAD PUSH2 0xFD2 SWAP3 SWAP2 SWAP1 PUSH2 0x4EDA JUMP JUMPDEST PUSH1 0x40 MLOAD DUP1 SWAP2 SUB SWAP1 LOG1 POP POP POP POP POP JUMP JUMPDEST PUSH1 0x0 CALLVALUE GT PUSH2 0x1024 JUMPI PUSH1 0x40 MLOAD PUSH32 0x8C379A000000000000000000000000000000000000000000000000000000000 DUP2 MSTORE PUSH1 0x4 ADD PUSH2 0x101B SWAP1 PUSH2 0x4F56 JUMP JUMPDEST PUSH1 0x40 MLOAD DUP1 SWAP2 SUB SWAP1 REVERT JUMPDEST PUSH1 0x0 PUSH1 0x1 PUSH1 0x0 CALLER PUSH20 0xFFFFFFFFFFFFFFFFFFFFFFFFFFFFFFFFFFFFFFFF AND PUSH20 0xFFFFFFFFFFFFFFFFFFFFFFFFFFFFFFFFFFFFFFFF AND DUP2 MSTORE PUSH1 0x20 ADD SWAP1 DUP2 MSTORE PUSH1 0x20 ADD PUSH1 0x0 KECCAK256 PUSH1 0x2 ADD SLOAD EQ PUSH2 0x10A9 JUMPI PUSH1 0x40 MLOAD PUSH32 0x8C379A000000000000000000000000000000000000000000000000000000000 DUP2 MSTORE PUSH1 0x4 ADD PUSH2 0x10A0 SWAP1 PUSH2 0x4FC2 JUMP JUMPDEST PUSH1 0x40 MLOAD DUP1 SWAP2 SUB SWAP1 REVERT JUMPDEST PUSH1 0x40 MLOAD DUP1 PUSH1 0xA0 ADD PUSH1 0x40 MSTORE DUP1 DUP5 DUP2 MSTORE PUSH1 0x20 ADD DUP4 DUP2 MSTORE PUSH1 0x20 ADD CALLVALUE DUP2 MSTORE PUSH1 0x20 ADD DUP3 DUP2 MSTORE PUSH1 0x20 ADD PUSH1 0x0 PUSH8 0xFFFFFFFFFFFFFFFF DUP2 GT ISZERO PUSH2 0x10E7 JUMPI PUSH2 0x10E6 PUSH2 0x3C07 JUMP JUMPDEST JUMPDEST PUSH1 0x40 MLOAD SWAP1 DUP1 DUP3 MSTORE DUP1 PUSH1 0x20 MUL PUSH1 0x20 ADD DUP3 ADD PUSH1 0x40 MSTORE DUP1 ISZERO PUSH2 0x1115 JUMPI DUP2 PUSH1 0x20 ADD PUSH1 0x20 DUP3 MUL DUP1 CALLDATASIZE DUP4 CALLDATACOPY DUP1 DUP3 ADD SWAP2 POP POP SWAP1 POP JUMPDEST POP DUP2 MSTORE POP PUSH1 0x1 PUSH1 0x0 CALLER PUSH20 0xFFFFFFFFFFFFFFFFFFFFFFFFFFFFFFFFFFFFFFFF AND PUSH20 0xFFFFFFFFFFFFFFFFFFFFFFFFFFFFFFFFFFFFFFFF AND DUP2 MSTORE PUSH1 0x20 ADD SWAP1 DUP2 MSTORE PUSH1 0x20 ADD PUSH1 0x0 KECCAK256 PUSH1 0x0 DUP3 ADD MLOAD DUP2 PUSH1 0x0 ADD SWAP1 DUP2 PUSH2 0x116D SWAP2 SWAP1 PUSH2 0x4C42 JUMP JUMPDEST POP PUSH1 0x20 DUP3 ADD MLOAD DUP2 PUSH1 0x1 ADD SWAP1 DUP2 PUSH2 0x1183 SWAP2 SWAP1 PUSH2 0x4C42 JUMP JUMPDEST POP PUSH1 0x40 DUP3 ADD MLOAD DUP2 PUSH1 0x2 ADD SSTORE PUSH1 0x60 DUP3 ADD MLOAD DUP2 PUSH1 0x3 ADD SWAP1 DUP2 PUSH2 0x11A3 SWAP2 SWAP1 PUSH2 0x4C42 JUMP JUMPDEST POP PUSH1 0x80 DUP3 ADD MLOAD DUP2 PUSH1 0x4 ADD SWAP1 DUP1 MLOAD SWAP1 PUSH1 0x20 ADD SWAP1 PUSH2 0x11C0 SWAP3 SWAP2 SWAP1 PUSH2 0x3685 JUMP JUMPDEST POP SWAP1 POP POP PUSH1 0x6 CALLER SWAP1 DUP1 PUSH1 0x1 DUP2 SLOAD ADD DUP1 DUP3 SSTORE DUP1 SWAP2 POP POP PUSH1 0x1 SWAP1 SUB SWAP1 PUSH1 0x0 MSTORE PUSH1 0x20 PUSH1 0x0 KECCAK256 ADD PUSH1 0x0 SWAP1 SWAP2 SWAP1 SWAP2 SWAP1 SWAP2 PUSH2 0x100 EXP DUP2 SLOAD DUP2 PUSH20 0xFFFFFFFFFFFFFFFFFFFFFFFFFFFFFFFFFFFFFFFF MUL NOT AND SWAP1 DUP4 PUSH20 0xFFFFFFFFFFFFFFFFFFFFFFFFFFFFFFFFFFFFFFFF AND MUL OR SWAP1 SSTORE POP PUSH32 0x386741C0345C35E0430DDFE5FEE0C0AFBFAD9DE0F6C1F1ECE8021927C2F7320 CALLER DUP5 PUSH1 0x40 MLOAD PUSH2 0x1258 SWAP3 SWAP2 SWAP1 PUSH2 0x4FE2 JUMP JUMPDEST PUSH1 0x40 MLOAD DUP1 SWAP2 SUB SWAP1 LOG1 POP POP POP JUMP JUMPDEST PUSH1 0x5 SLOAD DUP2 JUMP JUMPDEST PUSH1 0x60 PUSH1 0x4 PUSH1 0x0 DUP4 DUP2 MSTORE PUSH1 0x20 ADD SWAP1 DUP2 MSTORE PUSH1 0x20 ADD PUSH1 0x0 KECCAK256 DUP1 SLOAD DUP1 PUSH1 0x20 MUL PUSH1 0x20 ADD PUSH1 0x40 MLOAD SWAP1 DUP2 ADD PUSH1 0x40 MSTORE DUP1 SWAP3 SWAP2 SWAP1 DUP2 DUP2 MSTORE PUSH1 0x20 ADD PUSH1 0x0 SWAP1 JUMPDEST DUP3 DUP3 LT ISZERO PUSH2 0x133C JUMPI DUP4 DUP3 SWAP1 PUSH1 0x0 MSTORE PUSH1 0x20 PUSH1 0x0 KECCAK256 SWAP1 PUSH1 0x3 MUL ADD PUSH1 0x40 MLOAD DUP1 PUSH1 0x60 ADD PUSH1 0x40 MSTORE SWAP1 DUP2 PUSH1 0x0 DUP3 ADD PUSH1 0x0 SWAP1 SLOAD SWAP1 PUSH2 0x100 EXP SWAP1 DIV PUSH20 0xFFFFFFFFFFFFFFFFFFFFFFFFFFFFFFFFFFFFFFFF AND PUSH20 0xFFFFFFFFFFFFFFFFFFFFFFFFFFFFFFFFFFFFFFFF AND PUSH20 0xFFFFFFFFFFFFFFFFFFFFFFFFFFFFFFFFFFFFFFFF AND DUP2 MSTORE PUSH1 0x20 ADD PUSH1 0x1 DUP3 ADD SLOAD DUP2 MSTORE PUSH1 0x20 ADD PUSH1 0x2 DUP3 ADD SLOAD DUP2 MSTORE POP POP DUP2 MSTORE PUSH1 0x20 ADD SWAP1 PUSH1 0x1 ADD SWAP1 PUSH2 0x12A0 JUMP JUMPDEST POP POP POP POP SWAP1 POP SWAP2 SWAP1 POP JUMP JUMPDEST PUSH1 0x60 DUP1 PUSH1 0x0 PUSH1 0x60 PUSH1 0x0 PUSH1 0x1 PUSH1 0x0 DUP8 PUSH20 0xFFFFFFFFFFFFFFFFFFFFFFFFFFFFFFFFFFFFFFFF AND PUSH20 0xFFFFFFFFFFFFFFFFFFFFFFFFFFFFFFFFFFFFFFFF AND DUP2 MSTORE PUSH1 0x20 ADD SWAP1 DUP2 MSTORE PUSH1 0x20 ADD PUSH1 0x0 KECCAK256 SWAP1 POP PUSH1 0x0 DUP2 PUSH1 0x2 ADD SLOAD GT PUSH2 0x13D8 JUMPI PUSH1 0x40 MLOAD PUSH32 0x8C379A000000000000000000000000000000000000000000000000000000000 DUP2 MSTORE PUSH1 0x4 ADD PUSH2 0x13CF SWAP1 PUSH2 0x505E JUMP JUMPDEST PUSH1 0x40 MLOAD DUP1 SWAP2 SUB SWAP1 REVERT JUMPDEST DUP1 PUSH1 0x0 ADD DUP2 PUSH1 0x1 ADD DUP3 PUSH1 0x2 ADD SLOAD DUP4 PUSH1 0x4 ADD DUP4 DUP1 SLOAD PUSH2 0x13F5 SWAP1 PUSH2 0x479A JUMP JUMPDEST DUP1 PUSH1 0x1F ADD PUSH1 0x20 DUP1 SWAP2 DIV MUL PUSH1 0x20 ADD PUSH1 0x40 MLOAD SWAP1 DUP2 ADD PUSH1 0x40 MSTORE DUP1 SWAP3 SWAP2 SWAP1 DUP2 DUP2 MSTORE PUSH1 0x20 ADD DUP3 DUP1 SLOAD PUSH2 0x1421 SWAP1 PUSH2 0x479A JUMP JUMPDEST DUP1 ISZERO PUSH2 0x146E JUMPI DUP1 PUSH1 0x1F LT PUSH2 0x1443 JUMPI PUSH2 0x100 DUP1 DUP4 SLOAD DIV MUL DUP4 MSTORE SWAP2 PUSH1 0x20 ADD SWAP2 PUSH2 0x146E JUMP JUMPDEST DUP3 ADD SWAP2 SWAP1 PUSH1 0x0 MSTORE PUSH1 0x20 PUSH1 0x0 KECCAK256 SWAP1 JUMPDEST DUP2 SLOAD DUP2 MSTORE SWAP1 PUSH1 0x1 ADD SWAP1 PUSH1 0x20 ADD DUP1 DUP4 GT PUSH2 0x1451 JUMPI DUP3 SWAP1 SUB PUSH1 0x1F AND DUP3 ADD SWAP2 JUMPDEST POP POP POP POP POP SWAP4 POP DUP3 DUP1 SLOAD PUSH2 0x1481 SWAP1 PUSH2 0x479A JUMP JUMPDEST DUP1 PUSH1 0x1F ADD PUSH1 0x20 DUP1 SWAP2 DIV MUL PUSH1 0x20 ADD PUSH1 0x40 MLOAD SWAP1 DUP2 ADD PUSH1 0x40 MSTORE DUP1 SWAP3 SWAP2 SWAP1 DUP2 DUP2 MSTORE PUSH1 0x20 ADD DUP3 DUP1 SLOAD PUSH2 0x14AD SWAP1 PUSH2 0x479A JUMP JUMPDEST DUP1 ISZERO PUSH2 0x14FA JUMPI DUP1 PUSH1 0x1F LT PUSH2 0x14CF JUMPI PUSH2 0x100 DUP1 DUP4 SLOAD DIV MUL DUP4 MSTORE SWAP2 PUSH1 0x20 ADD SWAP2 PUSH2 0x14FA JUMP JUMPDEST DUP3 ADD SWAP2 SWAP1 PUSH1 0x0 MSTORE PUSH1 0x20 PUSH1 0x0 KECCAK256 SWAP1 JUMPDEST DUP2 SLOAD DUP2 MSTORE SWAP1 PUSH1 0x1 ADD SWAP1 PUSH1 0x20 ADD DUP1 DUP4 GT PUSH2 0x14DD JUMPI DUP3 SWAP1 SUB PUSH1 0x1F AND DUP3 ADD SWAP2 JUMPDEST POP POP POP POP POP SWAP3 POP DUP1 DUP1 SLOAD DUP1 PUSH1 0x20 MUL PUSH1 0x20 ADD PUSH1 0x40 MLOAD SWAP1 DUP2 ADD PUSH1 0x40 MSTORE DUP1 SWAP3 SWAP2 SWAP1 DUP2 DUP2 MSTORE PUSH1 0x20 ADD DUP3 DUP1 SLOAD DUP1 ISZERO PUSH2 0x154C JUMPI PUSH1 0x20 MUL DUP3 ADD SWAP2 SWAP1 PUSH1 0x0 MSTORE PUSH1 0x20 PUSH1 0x0 KECCAK256 SWAP1 JUMPDEST DUP2 SLOAD DUP2 MSTORE PUSH1 0x20 ADD SWAP1 PUSH1 0x1 ADD SWAP1 DUP1 DUP4 GT PUSH2 0x1538 JUMPI JUMPDEST POP POP POP POP POP SWAP1 POP SWAP5 POP SWAP5 POP SWAP5 POP SWAP5 POP POP SWAP2 SWAP4 POP SWAP2 SWAP4 JUMP JUMPDEST PUSH1 0x0 PUSH1 0x1 PUSH1 0x0 CALLER PUSH20 0xFFFFFFFFFFFFFFFFFFFFFFFFFFFFFFFFFFFFFFFF AND PUSH20 0xFFFFFFFFFFFFFFFFFFFFFFFFFFFFFFFFFFFFFFFF AND DUP2 MSTORE PUSH1 0x20 ADD SWAP1 DUP2 MSTORE PUSH1 0x20 ADD PUSH1 0x0 KECCAK256 PUSH1 0x2 ADD SLOAD GT PUSH2 0x15E8 JUMPI PUSH1 0x40 MLOAD PUSH32 0x8C379A000000000000000000000000000000000000000000000000000000000 DUP2 MSTORE PUSH1 0x4 ADD PUSH2 0x15DF SWAP1 PUSH2 0x505E JUMP JUMPDEST PUSH1 0x40 MLOAD DUP1 SWAP2 SUB SWAP1 REVERT JUMPDEST PUSH1 0x5 PUSH1 0x0 DUP2 SLOAD DUP1 SWAP3 SWAP2 SWAP1 PUSH2 0x15FB SWAP1 PUSH2 0x507E JUMP JUMPDEST SWAP2 SWAP1 POP SSTORE POP PUSH1 0x0 PUSH1 0x3 PUSH1 0x0 PUSH1 0x5 SLOAD DUP2 MSTORE PUSH1 0x20 ADD SWAP1 DUP2 MSTORE PUSH1 0x20 ADD PUSH1 0x0 KECCAK256 SWAP1 POP CALLER DUP2 PUSH1 0x0 ADD PUSH1 0x0 PUSH2 0x100 EXP DUP2 SLOAD DUP2 PUSH20 0xFFFFFFFFFFFFFFFFFFFFFFFFFFFFFFFFFFFFFFFF MUL NOT AND SWAP1 DUP4 PUSH20 0xFFFFFFFFFFFFFFFFFFFFFFFFFFFFFFFFFFFFFFFF AND MUL OR SWAP1 SSTORE POP DUP2 DUP2 PUSH1 0x1 ADD SWAP1 DUP1 MLOAD SWAP1 PUSH1 0x20 ADD SWAP1 PUSH2 0x1674 SWAP3 SWAP2 SWAP1 PUSH2 0x36D2 JUMP JUMPDEST POP PUSH1 0x40 MLOAD DUP1 PUSH1 0x40 ADD PUSH1 0x40 MSTORE DUP1 PUSH1 0x7 DUP2 MSTORE PUSH1 0x20 ADD PUSH32 0x70656E64696E6700000000000000000000000000000000000000000000000000 DUP2 MSTORE POP DUP2 PUSH1 0x2 ADD SWAP1 DUP2 PUSH2 0x16BB SWAP2 SWAP1 PUSH2 0x4C42 JUMP JUMPDEST POP TIMESTAMP DUP2 PUSH1 0x6 ADD DUP2 SWAP1 SSTORE POP PUSH1 0x1 PUSH1 0x0 CALLER PUSH20 0xFFFFFFFFFFFFFFFFFFFFFFFFFFFFFFFFFFFFFFFF AND PUSH20 0xFFFFFFFFFFFFFFFFFFFFFFFFFFFFFFFFFFFFFFFF AND DUP2 MSTORE PUSH1 0x20 ADD SWAP1 DUP2 MSTORE PUSH1 0x20 ADD PUSH1 0x0 KECCAK256 PUSH1 0x4 ADD PUSH1 0x5 SLOAD SWAP1 DUP1 PUSH1 0x1 DUP2 SLOAD ADD DUP1 DUP3 SSTORE DUP1 SWAP2 POP POP PUSH1 0x1 SWAP1 SUB SWAP1 PUSH1 0x0 MSTORE PUSH1 0x20 PUSH1 0x0 KECCAK256 ADD PUSH1 0x0 SWAP1 SWAP2 SWAP1 SWAP2 SWAP1 SWAP2 POP SSTORE PUSH32 0xE9EE39160568153D230CA0E29961267415D513DEFBB7D3B21AF0FE940E1EBD15 PUSH1 0x5 SLOAD CALLER PUSH1 0x40 MLOAD PUSH2 0x1763 SWAP3 SWAP2 SWAP1 PUSH2 0x50C6 JUMP JUMPDEST PUSH1 0x40 MLOAD DUP1 SWAP2 SUB SWAP1 LOG1 POP POP JUMP JUMPDEST PUSH1 0x60 PUSH1 0x0 PUSH1 0x5 SLOAD PUSH8 0xFFFFFFFFFFFFFFFF DUP2 GT ISZERO PUSH2 0x178F JUMPI PUSH2 0x178E PUSH2 0x3C07 JUMP JUMPDEST JUMPDEST PUSH1 0x40 MLOAD SWAP1 DUP1 DUP3 MSTORE DUP1 PUSH1 0x20 MUL PUSH1 0x20 ADD DUP3 ADD PUSH1 0x40 MSTORE DUP1 ISZERO PUSH2 0x17BD JUMPI DUP2 PUSH1 0x20 ADD PUSH1 0x20 DUP3 MUL DUP1 CALLDATASIZE DUP4 CALLDATACOPY DUP1 DUP3 ADD SWAP2 POP POP SWAP1 POP JUMPDEST POP SWAP1 POP PUSH1 0x0 PUSH1 0x1 SWAP1 POP JUMPDEST PUSH1 0x5 SLOAD DUP2 GT PUSH2 0x180F JUMPI DUP1 DUP3 PUSH1 0x1 DUP4 PUSH2 0x17DF SWAP2 SWAP1 PUSH2 0x4A62 JUMP JUMPDEST DUP2 MLOAD DUP2 LT PUSH2 0x17F0 JUMPI PUSH2 0x17EF PUSH2 0x4DBB JUMP JUMPDEST JUMPDEST PUSH1 0x20 MUL PUSH1 0x20 ADD ADD DUP2 DUP2 MSTORE POP POP DUP1 DUP1 PUSH2 0x1807 SWAP1 PUSH2 0x507E JUMP JUMPDEST SWAP2 POP POP PUSH2 0x17C7 JUMP JUMPDEST POP DUP1 SWAP2 POP POP SWAP1 JUMP JUMPDEST PUSH1 0x60 DUP1 PUSH1 0x0 PUSH1 0x1 PUSH1 0x0 DUP6 PUSH20 0xFFFFFFFFFFFFFFFFFFFFFFFFFFFFFFFFFFFFFFFF AND PUSH20 0xFFFFFFFFFFFFFFFFFFFFFFFFFFFFFFFFFFFFFFFF AND DUP2 MSTORE PUSH1 0x20 ADD SWAP1 DUP2 MSTORE PUSH1 0x20 ADD PUSH1 0x0 KECCAK256 SWAP1 POP PUSH1 0x0 DUP2 PUSH1 0x2 ADD SLOAD GT PUSH2 0x18A4 JUMPI PUSH1 0x40 MLOAD PUSH32 0x8C379A000000000000000000000000000000000000000000000000000000000 DUP2 MSTORE PUSH1 0x4 ADD PUSH2 0x189B SWAP1 PUSH2 0x505E JUMP JUMPDEST PUSH1 0x40 MLOAD DUP1 SWAP2 SUB SWAP1 REVERT JUMPDEST DUP1 PUSH1 0x4 ADD DUP1 SLOAD DUP1 PUSH1 0x20 MUL PUSH1 0x20 ADD PUSH1 0x40 MLOAD SWAP1 DUP2 ADD PUSH1 0x40 MSTORE DUP1 SWAP3 SWAP2 SWAP1 DUP2 DUP2 MSTORE PUSH1 0x20 ADD DUP3 DUP1 SLOAD DUP1 ISZERO PUSH2 0x18F2 JUMPI PUSH1 0x20 MUL DUP3 ADD SWAP2 SWAP1 PUSH1 0x0 MSTORE PUSH1 0x20 PUSH1 0x0 KECCAK256 SWAP1 JUMPDEST DUP2 SLOAD DUP2 MSTORE PUSH1 0x20 ADD SWAP1 PUSH1 0x1 ADD SWAP1 DUP1 DUP4 GT PUSH2 0x18DE JUMPI JUMPDEST POP POP POP POP POP SWAP3 POP DUP3 MLOAD PUSH8 0xFFFFFFFFFFFFFFFF DUP2 GT ISZERO PUSH2 0x1914 JUMPI PUSH2 0x1913 PUSH2 0x3C07 JUMP JUMPDEST JUMPDEST PUSH1 0x40 MLOAD SWAP1 DUP1 DUP3 MSTORE DUP1 PUSH1 0x20 MUL PUSH1 0x20 ADD DUP3 ADD PUSH1 0x40 MSTORE DUP1 ISZERO PUSH2 0x1947 JUMPI DUP2 PUSH1 0x20 ADD JUMPDEST PUSH1 0x60 DUP2 MSTORE PUSH1 0x20 ADD SWAP1 PUSH1 0x1 SWAP1 SUB SWAP1 DUP2 PUSH2 0x1932 JUMPI SWAP1 POP JUMPDEST POP SWAP2 POP PUSH1 0x0 JUMPDEST DUP4 MLOAD DUP2 LT ISZERO PUSH2 0x1A3A JUMPI PUSH1 0x3 PUSH1 0x0 DUP6 DUP4 DUP2 MLOAD DUP2 LT PUSH2 0x196D JUMPI PUSH2 0x196C PUSH2 0x4DBB JUMP JUMPDEST JUMPDEST PUSH1 0x20 MUL PUSH1 0x20 ADD ADD MLOAD DUP2 MSTORE PUSH1 0x20 ADD SWAP1 DUP2 MSTORE PUSH1 0x20 ADD PUSH1 0x0 KECCAK256 PUSH1 0x2 ADD DUP1 SLOAD PUSH2 0x1991 SWAP1 PUSH2 0x479A JUMP JUMPDEST DUP1 PUSH1 0x1F ADD PUSH1 0x20 DUP1 SWAP2 DIV MUL PUSH1 0x20 ADD PUSH1 0x40 MLOAD SWAP1 DUP2 ADD PUSH1 0x40 MSTORE DUP1 SWAP3 SWAP2 SWAP1 DUP2 DUP2 MSTORE PUSH1 0x20 ADD DUP3 DUP1 SLOAD PUSH2 0x19BD SWAP1 PUSH2 0x479A JUMP JUMPDEST DUP1 ISZERO PUSH2 0x1A0A JUMPI DUP1 PUSH1 0x1F LT PUSH2 0x19DF JUMPI PUSH2 0x100 DUP1 DUP4 SLOAD DIV MUL DUP4 MSTORE SWAP2 PUSH1 0x20 ADD SWAP2 PUSH2 0x1A0A JUMP JUMPDEST DUP3 ADD SWAP2 SWAP1 PUSH1 0x0 MSTORE PUSH1 0x20 PUSH1 0x0 KECCAK256 SWAP1 JUMPDEST DUP2 SLOAD DUP2 MSTORE SWAP1 PUSH1 0x1 ADD SWAP1 PUSH1 0x20 ADD DUP1 DUP4 GT PUSH2 0x19ED JUMPI DUP3 SWAP1 SUB PUSH1 0x1F AND DUP3 ADD SWAP2 JUMPDEST POP POP POP POP POP DUP4 DUP3 DUP2 MLOAD DUP2 LT PUSH2 0x1A22 JUMPI PUSH2 0x1A21 PUSH2 0x4DBB JUMP JUMPDEST JUMPDEST PUSH1 0x20 MUL PUSH1 0x20 ADD ADD DUP2 SWAP1 MSTORE POP DUP1 DUP1 PUSH1 0x1 ADD SWAP2 POP POP PUSH2 0x194D JUMP JUMPDEST POP POP SWAP2 POP SWAP2 JUMP JUMPDEST PUSH1 0x60 PUSH1 0x0 PUSH1 0x6 DUP1 SLOAD SWAP1 POP PUSH8 0xFFFFFFFFFFFFFFFF DUP2 GT ISZERO PUSH2 0x1A64 JUMPI PUSH2 0x1A63 PUSH2 0x3C07 JUMP JUMPDEST JUMPDEST PUSH1 0x40 MLOAD SWAP1 DUP1 DUP3 MSTORE DUP1 PUSH1 0x20 MUL PUSH1 0x20 ADD DUP3 ADD PUSH1 0x40 MSTORE DUP1 ISZERO PUSH2 0x1A9D JUMPI DUP2 PUSH1 0x20 ADD JUMPDEST PUSH2 0x1A8A PUSH2 0x372B JUMP JUMPDEST DUP2 MSTORE PUSH1 0x20 ADD SWAP1 PUSH1 0x1 SWAP1 SUB SWAP1 DUP2 PUSH2 0x1A82 JUMPI SWAP1 POP JUMPDEST POP SWAP1 POP PUSH1 0x0 JUMPDEST PUSH1 0x6 DUP1 SLOAD SWAP1 POP DUP2 LT ISZERO PUSH2 0x1E9F JUMPI PUSH1 0x0 PUSH1 0x6 DUP3 DUP2 SLOAD DUP2 LT PUSH2 0x1AC6 JUMPI PUSH2 0x1AC5 PUSH2 0x4DBB JUMP JUMPDEST JUMPDEST SWAP1 PUSH1 0x0 MSTORE PUSH1 0x20 PUSH1 0x0 KECCAK256 ADD PUSH1 0x0 SWAP1 SLOAD SWAP1 PUSH2 0x100 EXP SWAP1 DIV PUSH20 0xFFFFFFFFFFFFFFFFFFFFFFFFFFFFFFFFFFFFFFFF AND SWAP1 POP PUSH1 0x0 PUSH1 0x1 PUSH1 0x0 DUP4 PUSH20 0xFFFFFFFFFFFFFFFFFFFFFFFFFFFFFFFFFFFFFFFF AND PUSH20 0xFFFFFFFFFFFFFFFFFFFFFFFFFFFFFFFFFFFFFFFF AND DUP2 MSTORE PUSH1 0x20 ADD SWAP1 DUP2 MSTORE PUSH1 0x20 ADD PUSH1 0x0 KECCAK256 SWAP1 POP PUSH1 0x0 DUP2 PUSH1 0x4 ADD DUP1 SLOAD SWAP1 POP PUSH8 0xFFFFFFFFFFFFFFFF DUP2 GT ISZERO PUSH2 0x1B59 JUMPI PUSH2 0x1B58 PUSH2 0x3C07 JUMP JUMPDEST JUMPDEST PUSH1 0x40 MLOAD SWAP1 DUP1 DUP3 MSTORE DUP1 PUSH1 0x20 MUL PUSH1 0x20 ADD DUP3 ADD PUSH1 0x40 MSTORE DUP1 ISZERO PUSH2 0x1B92 JUMPI DUP2 PUSH1 0x20 ADD JUMPDEST PUSH2 0x1B7F PUSH2 0x3753 JUMP JUMPDEST DUP2 MSTORE PUSH1 0x20 ADD SWAP1 PUSH1 0x1 SWAP1 SUB SWAP1 DUP2 PUSH2 0x1B77 JUMPI SWAP1 POP JUMPDEST POP SWAP1 POP PUSH1 0x0 JUMPDEST DUP3 PUSH1 0x4 ADD DUP1 SLOAD SWAP1 POP DUP2 LT ISZERO PUSH2 0x1D2B JUMPI PUSH1 0x0 DUP4 PUSH1 0x4 ADD DUP3 DUP2 SLOAD DUP2 LT PUSH2 0x1BBF JUMPI PUSH2 0x1BBE PUSH2 0x4DBB JUMP JUMPDEST JUMPDEST SWAP1 PUSH1 0x0 MSTORE PUSH1 0x20 PUSH1 0x0 KECCAK256 ADD SLOAD SWAP1 POP PUSH1 0x0 PUSH1 0x3 PUSH1 0x0 DUP4 DUP2 MSTORE PUSH1 0x20 ADD SWAP1 DUP2 MSTORE PUSH1 0x20 ADD PUSH1 0x0 KECCAK256 SWAP1 POP PUSH1 0x0 DUP6 PUSH1 0x0 ADD DUP3 PUSH1 0x2 ADD PUSH1 0x40 MLOAD PUSH1 0x20 ADD PUSH2 0x1BFE SWAP3 SWAP2 SWAP1 PUSH2 0x5261 JUMP JUMPDEST PUSH1 0x40 MLOAD PUSH1 0x20 DUP2 DUP4 SUB SUB DUP2 MSTORE SWAP1 PUSH1 0x40 MSTORE SWAP1 POP PUSH1 0x40 MLOAD DUP1 PUSH1 0x60 ADD PUSH1 0x40 MSTORE DUP1 DUP5 DUP2 MSTORE PUSH1 0x20 ADD DUP3 DUP2 MSTORE PUSH1 0x20 ADD DUP4 PUSH1 0x1 ADD DUP1 SLOAD DUP1 PUSH1 0x20 MUL PUSH1 0x20 ADD PUSH1 0x40 MLOAD SWAP1 DUP2 ADD PUSH1 0x40 MSTORE DUP1 SWAP3 SWAP2 SWAP1 DUP2 DUP2 MSTORE PUSH1 0x20 ADD PUSH1 0x0 SWAP1 JUMPDEST DUP3 DUP3 LT ISZERO PUSH2 0x1CF6 JUMPI DUP4 DUP3 SWAP1 PUSH1 0x0 MSTORE PUSH1 0x20 PUSH1 0x0 KECCAK256 ADD DUP1 SLOAD PUSH2 0x1C69 SWAP1 PUSH2 0x479A JUMP JUMPDEST DUP1 PUSH1 0x1F ADD PUSH1 0x20 DUP1 SWAP2 DIV MUL PUSH1 0x20 ADD PUSH1 0x40 MLOAD SWAP1 DUP2 ADD PUSH1 0x40 MSTORE DUP1 SWAP3 SWAP2 SWAP1 DUP2 DUP2 MSTORE PUSH1 0x20 ADD DUP3 DUP1 SLOAD PUSH2 0x1C95 SWAP1 PUSH2 0x479A JUMP JUMPDEST DUP1 ISZERO PUSH2 0x1CE2 JUMPI DUP1 PUSH1 0x1F LT PUSH2 0x1CB7 JUMPI PUSH2 0x100 DUP1 DUP4 SLOAD DIV MUL DUP4 MSTORE SWAP2 PUSH1 0x20 ADD SWAP2 PUSH2 0x1CE2 JUMP JUMPDEST DUP3 ADD SWAP2 SWAP1 PUSH1 0x0 MSTORE PUSH1 0x20 PUSH1 0x0 KECCAK256 SWAP1 JUMPDEST DUP2 SLOAD DUP2 MSTORE SWAP1 PUSH1 0x1 ADD SWAP1 PUSH1 0x20 ADD DUP1 DUP4 GT PUSH2 0x1CC5 JUMPI DUP3 SWAP1 SUB PUSH1 0x1F AND DUP3 ADD SWAP2 JUMPDEST POP POP POP POP POP DUP2 MSTORE PUSH1 0x20 ADD SWAP1 PUSH1 0x1 ADD SWAP1 PUSH2 0x1C4A JUMP JUMPDEST POP POP POP POP DUP2 MSTORE POP DUP6 DUP6 DUP2 MLOAD DUP2 LT PUSH2 0x1D10 JUMPI PUSH2 0x1D0F PUSH2 0x4DBB JUMP JUMPDEST JUMPDEST PUSH1 0x20 MUL PUSH1 0x20 ADD ADD DUP2 SWAP1 MSTORE POP POP POP POP DUP1 DUP1 PUSH1 0x1 ADD SWAP2 POP POP PUSH2 0x1B98 JUMP JUMPDEST POP PUSH1 0x40 MLOAD DUP1 PUSH1 0x80 ADD PUSH1 0x40 MSTORE DUP1 PUSH1 0x1 DUP7 PUSH2 0x1D44 SWAP2 SWAP1 PUSH2 0x4920 JUMP JUMPDEST DUP2 MSTORE PUSH1 0x20 ADD DUP4 PUSH1 0x0 ADD DUP1 SLOAD PUSH2 0x1D58 SWAP1 PUSH2 0x479A JUMP JUMPDEST DUP1 PUSH1 0x1F ADD PUSH1 0x20 DUP1 SWAP2 DIV MUL PUSH1 0x20 ADD PUSH1 0x40 MLOAD SWAP1 DUP2 ADD PUSH1 0x40 MSTORE DUP1 SWAP3 SWAP2 SWAP1 DUP2 DUP2 MSTORE PUSH1 0x20 ADD DUP3 DUP1 SLOAD PUSH2 0x1D84 SWAP1 PUSH2 0x479A JUMP JUMPDEST DUP1 ISZERO PUSH2 0x1DD1 JUMPI DUP1 PUSH1 0x1F LT PUSH2 0x1DA6 JUMPI PUSH2 0x100 DUP1 DUP4 SLOAD DIV MUL DUP4 MSTORE SWAP2 PUSH1 0x20 ADD SWAP2 PUSH2 0x1DD1 JUMP JUMPDEST DUP3 ADD SWAP2 SWAP1 PUSH1 0x0 MSTORE PUSH1 0x20 PUSH1 0x0 KECCAK256 SWAP1 JUMPDEST DUP2 SLOAD DUP2 MSTORE SWAP1 PUSH1 0x1 ADD SWAP1 PUSH1 0x20 ADD DUP1 DUP4 GT PUSH2 0x1DB4 JUMPI DUP3 SWAP1 SUB PUSH1 0x1F AND DUP3 ADD SWAP2 JUMPDEST POP POP POP POP POP DUP2 MSTORE PUSH1 0x20 ADD DUP4 PUSH1 0x1 ADD DUP1 SLOAD PUSH2 0x1DEA SWAP1 PUSH2 0x479A JUMP JUMPDEST DUP1 PUSH1 0x1F ADD PUSH1 0x20 DUP1 SWAP2 DIV MUL PUSH1 0x20 ADD PUSH1 0x40 MLOAD SWAP1 DUP2 ADD PUSH1 0x40 MSTORE DUP1 SWAP3 SWAP2 SWAP1 DUP2 DUP2 MSTORE PUSH1 0x20 ADD DUP3 DUP1 SLOAD PUSH2 0x1E16 SWAP1 PUSH2 0x479A JUMP JUMPDEST DUP1 ISZERO PUSH2 0x1E63 JUMPI DUP1 PUSH1 0x1F LT PUSH2 0x1E38 JUMPI PUSH2 0x100 DUP1 DUP4 SLOAD DIV MUL DUP4 MSTORE SWAP2 PUSH1 0x20 ADD SWAP2 PUSH2 0x1E63 JUMP JUMPDEST DUP3 ADD SWAP2 SWAP1 PUSH1 0x0 MSTORE PUSH1 0x20 PUSH1 0x0 KECCAK256 SWAP1 JUMPDEST DUP2 SLOAD DUP2 MSTORE SWAP1 PUSH1 0x1 ADD SWAP1 PUSH1 0x20 ADD DUP1 DUP4 GT PUSH2 0x1E46 JUMPI DUP3 SWAP1 SUB PUSH1 0x1F AND DUP3 ADD SWAP2 JUMPDEST POP POP POP POP POP DUP2 MSTORE PUSH1 0x20 ADD DUP3 DUP2 MSTORE POP DUP6 DUP6 DUP2 MLOAD DUP2 LT PUSH2 0x1E84 JUMPI PUSH2 0x1E83 PUSH2 0x4DBB JUMP JUMPDEST JUMPDEST PUSH1 0x20 MUL PUSH1 0x20 ADD ADD DUP2 SWAP1 MSTORE POP POP POP POP DUP1 DUP1 PUSH1 0x1 ADD SWAP2 POP POP PUSH2 0x1AA3 JUMP JUMPDEST POP DUP1 SWAP2 POP POP SWAP1 JUMP JUMPDEST PUSH1 0x60 PUSH1 0x6 DUP1 SLOAD DUP1 PUSH1 0x20 MUL PUSH1 0x20 ADD PUSH1 0x40 MLOAD SWAP1 DUP2 ADD PUSH1 0x40 MSTORE DUP1 SWAP3 SWAP2 SWAP1 DUP2 DUP2 MSTORE PUSH1 0x20 ADD DUP3 DUP1 SLOAD DUP1 ISZERO PUSH2 0x1F2B JUMPI PUSH1 0x20 MUL DUP3 ADD SWAP2 SWAP1 PUSH1 0x0 MSTORE PUSH1 0x20 PUSH1 0x0 KECCAK256 SWAP1 JUMPDEST DUP2 PUSH1 0x0 SWAP1 SLOAD SWAP1 PUSH2 0x100 EXP SWAP1 DIV PUSH20 0xFFFFFFFFFFFFFFFFFFFFFFFFFFFFFFFFFFFFFFFF AND PUSH20 0xFFFFFFFFFFFFFFFFFFFFFFFFFFFFFFFFFFFFFFFF AND DUP2 MSTORE PUSH1 0x20 ADD SWAP1 PUSH1 0x1 ADD SWAP1 DUP1 DUP4 GT PUSH2 0x1EE1 JUMPI JUMPDEST POP POP POP POP POP SWAP1 POP SWAP1 JUMP JUMPDEST PUSH1 0x3 PUSH1 0x20 MSTORE DUP1 PUSH1 0x0 MSTORE PUSH1 0x40 PUSH1 0x0 KECCAK256 PUSH1 0x0 SWAP2 POP SWAP1 POP DUP1 PUSH1 0x0 ADD PUSH1 0x0 SWAP1 SLOAD SWAP1 PUSH2 0x100 EXP SWAP1 DIV PUSH20 0xFFFFFFFFFFFFFFFFFFFFFFFFFFFFFFFFFFFFFFFF AND SWAP1 DUP1 PUSH1 0x2 ADD DUP1 SLOAD PUSH2 0x1F7E SWAP1 PUSH2 0x479A JUMP JUMPDEST DUP1 PUSH1 0x1F ADD PUSH1 0x20 DUP1 SWAP2 DIV MUL PUSH1 0x20 ADD PUSH1 0x40 MLOAD SWAP1 DUP2 ADD PUSH1 0x40 MSTORE DUP1 SWAP3 SWAP2 SWAP1 DUP2 DUP2 MSTORE PUSH1 0x20 ADD DUP3 DUP1 SLOAD PUSH2 0x1FAA SWAP1 PUSH2 0x479A JUMP JUMPDEST DUP1 ISZERO PUSH2 0x1FF7 JUMPI DUP1 PUSH1 0x1F LT PUSH2 0x1FCC JUMPI PUSH2 0x100 DUP1 DUP4 SLOAD DIV MUL DUP4 MSTORE SWAP2 PUSH1 0x20 ADD SWAP2 PUSH2 0x1FF7 JUMP JUMPDEST DUP3 ADD SWAP2 SWAP1 PUSH1 0x0 MSTORE PUSH1 0x20 PUSH1 0x0 KECCAK256 SWAP1 JUMPDEST DUP2 SLOAD DUP2 MSTORE SWAP1 PUSH1 0x1 ADD SWAP1 PUSH1 0x20 ADD DUP1 DUP4 GT PUSH2 0x1FDA JUMPI DUP3 SWAP1 SUB PUSH1 0x1F AND DUP3 ADD SWAP2 JUMPDEST POP POP POP POP POP SWAP1 DUP1 PUSH1 0x3 ADD SLOAD SWAP1 DUP1 PUSH1 0x4 ADD SLOAD SWAP1 DUP1 PUSH1 0x5 ADD SLOAD SWAP1 DUP1 PUSH1 0x6 ADD SLOAD SWAP1 DUP1 PUSH1 0x8 ADD SLOAD SWAP1 POP DUP8 JUMP JUMPDEST PUSH1 0x0 DUP1 SLOAD SWAP1 PUSH2 0x100 EXP SWAP1 DIV PUSH20 0xFFFFFFFFFFFFFFFFFFFFFFFFFFFFFFFFFFFFFFFF AND DUP2 JUMP JUMPDEST PUSH1 0x0 DUP1 PUSH1 0x1 PUSH1 0x0 DUP5 PUSH20 0xFFFFFFFFFFFFFFFFFFFFFFFFFFFFFFFFFFFFFFFF AND PUSH20 0xFFFFFFFFFFFFFFFFFFFFFFFFFFFFFFFFFFFFFFFF AND DUP2 MSTORE PUSH1 0x20 ADD SWAP1 DUP2 MSTORE PUSH1 0x20 ADD PUSH1 0x0 KECCAK256 SWAP1 POP PUSH1 0x0 DUP2 PUSH1 0x2 ADD SLOAD GT PUSH2 0x20CE JUMPI PUSH1 0x40 MLOAD PUSH32 0x8C379A000000000000000000000000000000000000000000000000000000000 DUP2 MSTORE PUSH1 0x4 ADD PUSH2 0x20C5 SWAP1 PUSH2 0x505E JUMP JUMPDEST PUSH1 0x40 MLOAD DUP1 SWAP2 SUB SWAP1 REVERT JUMPDEST PUSH1 0x0 SWAP2 POP PUSH1 0x0 JUMPDEST DUP2 PUSH1 0x4 ADD DUP1 SLOAD SWAP1 POP DUP2 LT ISZERO PUSH2 0x21C3 JUMPI PUSH1 0x40 MLOAD DUP1 PUSH1 0x40 ADD PUSH1 0x40 MSTORE DUP1 PUSH1 0x8 DUP2 MSTORE PUSH1 0x20 ADD PUSH32 0x617070726F766564000000000000000000000000000000000000000000000000 DUP2 MSTORE POP DUP1 MLOAD SWAP1 PUSH1 0x20 ADD KECCAK256 PUSH1 0x3 PUSH1 0x0 DUP5 PUSH1 0x4 ADD DUP5 DUP2 SLOAD DUP2 LT PUSH2 0x213B JUMPI PUSH2 0x213A PUSH2 0x4DBB JUMP JUMPDEST JUMPDEST SWAP1 PUSH1 0x0 MSTORE PUSH1 0x20 PUSH1 0x0 KECCAK256 ADD SLOAD DUP2 MSTORE PUSH1 0x20 ADD SWAP1 DUP2 MSTORE PUSH1 0x20 ADD PUSH1 0x0 KECCAK256 PUSH1 0x2 ADD PUSH1 0x40 MLOAD PUSH2 0x2164 SWAP2 SWAP1 PUSH2 0x486E JUMP JUMPDEST PUSH1 0x40 MLOAD DUP1 SWAP2 SUB SWAP1 KECCAK256 SUB PUSH2 0x21B6 JUMPI PUSH1 0x3 PUSH1 0x0 DUP4 PUSH1 0x4 ADD DUP4 DUP2 SLOAD DUP2 LT PUSH2 0x218B JUMPI PUSH2 0x218A PUSH2 0x4DBB JUMP JUMPDEST JUMPDEST SWAP1 PUSH1 0x0 MSTORE PUSH1 0x20 PUSH1 0x0 KECCAK256 ADD SLOAD DUP2 MSTORE PUSH1 0x20 ADD SWAP1 DUP2 MSTORE PUSH1 0x20 ADD PUSH1 0x0 KECCAK256 PUSH1 0x5 ADD SLOAD DUP4 PUSH2 0x21B3 SWAP2 SWAP1 PUSH2 0x4920 JUMP JUMPDEST SWAP3 POP JUMPDEST DUP1 DUP1 PUSH1 0x1 ADD SWAP2 POP POP PUSH2 0x20D5 JUMP JUMPDEST POP POP SWAP2 SWAP1 POP JUMP JUMPDEST PUSH1 0x6 DUP2 DUP2 SLOAD DUP2 LT PUSH2 0x21DA JUMPI PUSH1 0x0 DUP1 REVERT JUMPDEST SWAP1 PUSH1 0x0 MSTORE PUSH1 0x20 PUSH1 0x0 KECCAK256 ADD PUSH1 0x0 SWAP2 POP SLOAD SWAP1 PUSH2 0x100 EXP SWAP1 DIV PUSH20 0xFFFFFFFFFFFFFFFFFFFFFFFFFFFFFFFFFFFFFFFF AND DUP2 JUMP JUMPDEST PUSH1 0x0 PUSH1 0x1 PUSH1 0x0 CALLER PUSH20 0xFFFFFFFFFFFFFFFFFFFFFFFFFFFFFFFFFFFFFFFF AND PUSH20 0xFFFFFFFFFFFFFFFFFFFFFFFFFFFFFFFFFFFFFFFF AND DUP2 MSTORE PUSH1 0x20 ADD SWAP1 DUP2 MSTORE PUSH1 0x20 ADD PUSH1 0x0 KECCAK256 PUSH1 0x2 ADD SLOAD GT PUSH2 0x228E JUMPI PUSH1 0x40 MLOAD PUSH32 0x8C379A000000000000000000000000000000000000000000000000000000000 DUP2 MSTORE PUSH1 0x4 ADD PUSH2 0x2285 SWAP1 PUSH2 0x52F2 JUMP JUMPDEST PUSH1 0x40 MLOAD DUP1 SWAP2 SUB SWAP1 REVERT JUMPDEST PUSH1 0x0 PUSH1 0x1 PUSH1 0x0 CALLER PUSH20 0xFFFFFFFFFFFFFFFFFFFFFFFFFFFFFFFFFFFFFFFF AND PUSH20 0xFFFFFFFFFFFFFFFFFFFFFFFFFFFFFFFFFFFFFFFF AND DUP2 MSTORE PUSH1 0x20 ADD SWAP1 DUP2 MSTORE PUSH1 0x20 ADD PUSH1 0x0 KECCAK256 SWAP1 POP PUSH1 0x0 JUMPDEST DUP2 PUSH1 0x4 ADD DUP1 SLOAD SWAP1 POP DUP2 LT ISZERO PUSH2 0x23DD JUMPI PUSH1 0x0 PUSH1 0x3 PUSH1 0x0 DUP5 PUSH1 0x4 ADD DUP5 DUP2 SLOAD DUP2 LT PUSH2 0x22FF JUMPI PUSH2 0x22FE PUSH2 0x4DBB JUMP JUMPDEST JUMPDEST SWAP1 PUSH1 0x0 MSTORE PUSH1 0x20 PUSH1 0x0 KECCAK256 ADD SLOAD DUP2 MSTORE PUSH1 0x20 ADD SWAP1 DUP2 MSTORE PUSH1 0x20 ADD PUSH1 0x0 KECCAK256 SWAP1 POP PUSH1 0x40 MLOAD DUP1 PUSH1 0x40 ADD PUSH1 0x40 MSTORE DUP1 PUSH1 0x7 DUP2 MSTORE PUSH1 0x20 ADD PUSH32 0x70656E64696E6700000000000000000000000000000000000000000000000000 DUP2 MSTORE POP DUP1 MLOAD SWAP1 PUSH1 0x20 ADD KECCAK256 DUP2 PUSH1 0x2 ADD PUSH1 0x40 MLOAD PUSH2 0x2368 SWAP2 SWAP1 PUSH2 0x486E JUMP JUMPDEST PUSH1 0x40 MLOAD DUP1 SWAP2 SUB SWAP1 KECCAK256 EQ DUP1 ISZERO PUSH2 0x238F JUMPI POP PUSH3 0x93A80 DUP2 PUSH1 0x6 ADD SLOAD PUSH2 0x238B SWAP2 SWAP1 PUSH2 0x4920 JUMP JUMPDEST TIMESTAMP GT ISZERO JUMPDEST ISZERO PUSH2 0x23CF JUMPI PUSH1 0x40 MLOAD PUSH32 0x8C379A000000000000000000000000000000000000000000000000000000000 DUP2 MSTORE PUSH1 0x4 ADD PUSH2 0x23C6 SWAP1 PUSH2 0x5384 JUMP JUMPDEST PUSH1 0x40 MLOAD DUP1 SWAP2 SUB SWAP1 REVERT JUMPDEST POP DUP1 DUP1 PUSH1 0x1 ADD SWAP2 POP POP PUSH2 0x22D4 JUMP JUMPDEST POP PUSH1 0x0 DUP2 PUSH1 0x2 ADD SLOAD SWAP1 POP PUSH1 0x0 DUP3 PUSH1 0x2 ADD DUP2 SWAP1 SSTORE POP PUSH1 0x0 CALLER PUSH20 0xFFFFFFFFFFFFFFFFFFFFFFFFFFFFFFFFFFFFFFFF AND DUP3 PUSH1 0x40 MLOAD PUSH2 0x2417 SWAP1 PUSH2 0x4D3A JUMP JUMPDEST PUSH1 0x0 PUSH1 0x40 MLOAD DUP1 DUP4 SUB DUP2 DUP6 DUP8 GAS CALL SWAP3 POP POP POP RETURNDATASIZE DUP1 PUSH1 0x0 DUP2 EQ PUSH2 0x2454 JUMPI PUSH1 0x40 MLOAD SWAP2 POP PUSH1 0x1F NOT PUSH1 0x3F RETURNDATASIZE ADD AND DUP3 ADD PUSH1 0x40 MSTORE RETURNDATASIZE DUP3 MSTORE RETURNDATASIZE PUSH1 0x0 PUSH1 0x20 DUP5 ADD RETURNDATACOPY PUSH2 0x2459 JUMP JUMPDEST PUSH1 0x60 SWAP2 POP JUMPDEST POP POP SWAP1 POP DUP1 PUSH2 0x249D JUMPI PUSH1 0x40 MLOAD PUSH32 0x8C379A000000000000000000000000000000000000000000000000000000000 DUP2 MSTORE PUSH1 0x4 ADD PUSH2 0x2494 SWAP1 PUSH2 0x53F0 JUMP JUMPDEST PUSH1 0x40 MLOAD DUP1 SWAP2 SUB SWAP1 REVERT JUMPDEST PUSH32 0x45E86EF28678BB11EB3A2909BEF25215399CDEBB7C34DACB2179034CF6E2C905 CALLER DUP4 PUSH1 0x40 MLOAD PUSH2 0x24CE SWAP3 SWAP2 SWAP1 PUSH2 0x5410 JUMP JUMPDEST PUSH1 0x40 MLOAD DUP1 SWAP2 SUB SWAP1 LOG1 POP POP POP JUMP JUMPDEST PUSH1 0x2 PUSH1 0x20 MSTORE DUP1 PUSH1 0x0 MSTORE PUSH1 0x40 PUSH1 0x0 KECCAK256 PUSH1 0x0 SWAP2 POP SWAP1 POP DUP1 PUSH1 0x0 ADD SLOAD SWAP1 POP DUP2 JUMP JUMPDEST PUSH1 0x0 PUSH1 0x2 PUSH1 0x0 DUP4 PUSH20 0xFFFFFFFFFFFFFFFFFFFFFFFFFFFFFFFFFFFFFFFF AND PUSH20 0xFFFFFFFFFFFFFFFFFFFFFFFFFFFFFFFFFFFFFFFF AND DUP2 MSTORE PUSH1 0x20 ADD SWAP1 DUP2 MSTORE PUSH1 0x20 ADD PUSH1 0x0 KECCAK256 PUSH1 0x0 ADD SLOAD SWAP1 POP SWAP2 SWAP1 POP JUMP JUMPDEST PUSH1 0x60 PUSH1 0x0 DUP1 PUSH1 0x1 SWAP1 POP JUMPDEST PUSH1 0x5 SLOAD DUP2 GT PUSH2 0x2618 JUMPI PUSH1 0x40 MLOAD DUP1 PUSH1 0x40 ADD PUSH1 0x40 MSTORE DUP1 PUSH1 0x7 DUP2 MSTORE PUSH1 0x20 ADD PUSH32 0x70656E64696E6700000000000000000000000000000000000000000000000000 DUP2 MSTORE POP DUP1 MLOAD SWAP1 PUSH1 0x20 ADD KECCAK256 PUSH1 0x3 PUSH1 0x0 DUP4 DUP2 MSTORE PUSH1 0x20 ADD SWAP1 DUP2 MSTORE PUSH1 0x20 ADD PUSH1 0x0 KECCAK256 PUSH1 0x2 ADD PUSH1 0x40 MLOAD PUSH2 0x25B8 SWAP2 SWAP1 PUSH2 0x486E JUMP JUMPDEST PUSH1 0x40 MLOAD DUP1 SWAP2 SUB SWAP1 KECCAK256 EQ DUP1 ISZERO PUSH2 0x25F1 JUMPI POP PUSH3 0x93A80 PUSH1 0x3 PUSH1 0x0 DUP4 DUP2 MSTORE PUSH1 0x20 ADD SWAP1 DUP2 MSTORE PUSH1 0x20 ADD PUSH1 0x0 KECCAK256 PUSH1 0x6 ADD SLOAD PUSH2 0x25ED SWAP2 SWAP1 PUSH2 0x4920 JUMP JUMPDEST TIMESTAMP GT ISZERO JUMPDEST ISZERO PUSH2 0x2605 JUMPI DUP2 DUP1 PUSH2 0x2601 SWAP1 PUSH2 0x507E JUMP JUMPDEST SWAP3 POP POP JUMPDEST DUP1 DUP1 PUSH2 0x2610 SWAP1 PUSH2 0x507E JUMP JUMPDEST SWAP2 POP POP PUSH2 0x254F JUMP JUMPDEST POP PUSH1 0x0 DUP2 PUSH8 0xFFFFFFFFFFFFFFFF DUP2 GT ISZERO PUSH2 0x2635 JUMPI PUSH2 0x2634 PUSH2 0x3C07 JUMP JUMPDEST JUMPDEST PUSH1 0x40 MLOAD SWAP1 DUP1 DUP3 MSTORE DUP1 PUSH1 0x20 MUL PUSH1 0x20 ADD DUP3 ADD PUSH1 0x40 MSTORE DUP1 ISZERO PUSH2 0x2663 JUMPI DUP2 PUSH1 0x20 ADD PUSH1 0x20 DUP3 MUL DUP1 CALLDATASIZE DUP4 CALLDATACOPY DUP1 DUP3 ADD SWAP2 POP POP SWAP1 POP JUMPDEST POP SWAP1 POP PUSH1 0x0 DUP1 PUSH1 0x1 SWAP1 POP JUMPDEST PUSH1 0x5 SLOAD DUP2 GT PUSH2 0x2757 JUMPI PUSH1 0x40 MLOAD DUP1 PUSH1 0x40 ADD PUSH1 0x40 MSTORE DUP1 PUSH1 0x7 DUP2 MSTORE PUSH1 0x20 ADD PUSH32 0x70656E64696E6700000000000000000000000000000000000000000000000000 DUP2 MSTORE POP DUP1 MLOAD SWAP1 PUSH1 0x20 ADD KECCAK256 PUSH1 0x3 PUSH1 0x0 DUP4 DUP2 MSTORE PUSH1 0x20 ADD SWAP1 DUP2 MSTORE PUSH1 0x20 ADD PUSH1 0x0 KECCAK256 PUSH1 0x2 ADD PUSH1 0x40 MLOAD PUSH2 0x26D7 SWAP2 SWAP1 PUSH2 0x486E JUMP JUMPDEST PUSH1 0x40 MLOAD DUP1 SWAP2 SUB SWAP1 KECCAK256 EQ DUP1 ISZERO PUSH2 0x2710 JUMPI POP PUSH3 0x93A80 PUSH1 0x3 PUSH1 0x0 DUP4 DUP2 MSTORE PUSH1 0x20 ADD SWAP1 DUP2 MSTORE PUSH1 0x20 ADD PUSH1 0x0 KECCAK256 PUSH1 0x6 ADD SLOAD PUSH2 0x270C SWAP2 SWAP1 PUSH2 0x4920 JUMP JUMPDEST TIMESTAMP GT ISZERO JUMPDEST ISZERO PUSH2 0x2744 JUMPI DUP1 DUP4 DUP4 DUP2 MLOAD DUP2 LT PUSH2 0x2729 JUMPI PUSH2 0x2728 PUSH2 0x4DBB JUMP JUMPDEST JUMPDEST PUSH1 0x20 MUL PUSH1 0x20 ADD ADD DUP2 DUP2 MSTORE POP POP DUP2 DUP1 PUSH2 0x2740 SWAP1 PUSH2 0x507E JUMP JUMPDEST SWAP3 POP POP JUMPDEST DUP1 DUP1 PUSH2 0x274F SWAP1 PUSH2 0x507E JUMP JUMPDEST SWAP2 POP POP PUSH2 0x266E JUMP JUMPDEST POP DUP2 SWAP4 POP POP POP POP SWAP1 JUMP JUMPDEST PUSH1 0x3 PUSH1 0x0 DUP3 DUP2 MSTORE PUSH1 0x20 ADD SWAP1 DUP2 MSTORE PUSH1 0x20 ADD PUSH1 0x0 KECCAK256 PUSH1 0x7 ADD PUSH1 0x0 CALLER PUSH20 0xFFFFFFFFFFFFFFFFFFFFFFFFFFFFFFFFFFFFFFFF AND PUSH20 0xFFFFFFFFFFFFFFFFFFFFFFFFFFFFFFFFFFFFFFFF AND DUP2 MSTORE PUSH1 0x20 ADD SWAP1 DUP2 MSTORE PUSH1 0x20 ADD PUSH1 0x0 KECCAK256 PUSH1 0x0 SWAP1 SLOAD SWAP1 PUSH2 0x100 EXP SWAP1 DIV PUSH1 0xFF AND PUSH2 0x2801 JUMPI PUSH1 0x40 MLOAD PUSH32 0x8C379A000000000000000000000000000000000000000000000000000000000 DUP2 MSTORE PUSH1 0x4 ADD PUSH2 0x27F8 SWAP1 PUSH2 0x5485 JUMP JUMPDEST PUSH1 0x40 MLOAD DUP1 SWAP2 SUB SWAP1 REVERT JUMPDEST PUSH1 0x40 MLOAD DUP1 PUSH1 0x40 ADD PUSH1 0x40 MSTORE DUP1 PUSH1 0x7 DUP2 MSTORE PUSH1 0x20 ADD PUSH32 0x70656E64696E6700000000000000000000000000000000000000000000000000 DUP2 MSTORE POP DUP1 MLOAD SWAP1 PUSH1 0x20 ADD KECCAK256 PUSH1 0x3 PUSH1 0x0 DUP4 DUP2 MSTORE PUSH1 0x20 ADD SWAP1 DUP2 MSTORE PUSH1 0x20 ADD PUSH1 0x0 KECCAK256 PUSH1 0x2 ADD PUSH1 0x40 MLOAD PUSH2 0x2861 SWAP2 SWAP1 PUSH2 0x486E JUMP JUMPDEST PUSH1 0x40 MLOAD DUP1 SWAP2 SUB SWAP1 KECCAK256 SUB PUSH2 0x28A9 JUMPI PUSH1 0x40 MLOAD PUSH32 0x8C379A000000000000000000000000000000000000000000000000000000000 DUP2 MSTORE PUSH1 0x4 ADD PUSH2 0x28A0 SWAP1 PUSH2 0x54F1 JUMP JUMPDEST PUSH1 0x40 MLOAD DUP1 SWAP2 SUB SWAP1 REVERT JUMPDEST PUSH1 0x0 PUSH1 0x64 PUSH1 0x5 PUSH1 0x3 PUSH1 0x0 DUP6 DUP2 MSTORE PUSH1 0x20 ADD SWAP1 DUP2 MSTORE PUSH1 0x20 ADD PUSH1 0x0 KECCAK256 PUSH1 0x5 ADD SLOAD PUSH2 0x28D0 SWAP2 SWAP1 PUSH2 0x49C0 JUMP JUMPDEST PUSH2 0x28DA SWAP2 SWAP1 PUSH2 0x4A31 JUMP JUMPDEST SWAP1 POP PUSH1 0x0 DUP1 PUSH1 0x3 PUSH1 0x0 DUP6 DUP2 MSTORE PUSH1 0x20 ADD SWAP1 DUP2 MSTORE PUSH1 0x20 ADD PUSH1 0x0 KECCAK256 PUSH1 0x8 ADD SLOAD GT PUSH2 0x2902 JUMPI PUSH1 0x0 PUSH2 0x2925 JUMP JUMPDEST PUSH1 0x3 PUSH1 0x0 DUP5 DUP2 MSTORE PUSH1 0x20 ADD SWAP1 DUP2 MSTORE PUSH1 0x20 ADD PUSH1 0x0 KECCAK256 PUSH1 0x8 ADD SLOAD DUP3 PUSH2 0x2924 SWAP2 SWAP1 PUSH2 0x4A31 JUMP JUMPDEST JUMPDEST SWAP1 POP PUSH1 0x0 CALLER PUSH20 0xFFFFFFFFFFFFFFFFFFFFFFFFFFFFFFFFFFFFFFFF AND DUP3 PUSH1 0x40 MLOAD PUSH2 0x294D SWAP1 PUSH2 0x4D3A JUMP JUMPDEST PUSH1 0x0 PUSH1 0x40 MLOAD DUP1 DUP4 SUB DUP2 DUP6 DUP8 GAS CALL SWAP3 POP POP POP RETURNDATASIZE DUP1 PUSH1 0x0 DUP2 EQ PUSH2 0x298A JUMPI PUSH1 0x40 MLOAD SWAP2 POP PUSH1 0x1F NOT PUSH1 0x3F RETURNDATASIZE ADD AND DUP3 ADD PUSH1 0x40 MSTORE RETURNDATASIZE DUP3 MSTORE RETURNDATASIZE PUSH1 0x0 PUSH1 0x20 DUP5 ADD RETURNDATACOPY PUSH2 0x298F JUMP JUMPDEST PUSH1 0x60 SWAP2 POP JUMPDEST POP POP SWAP1 POP DUP1 PUSH2 0x29D3 JUMPI PUSH1 0x40 MLOAD PUSH32 0x8C379A000000000000000000000000000000000000000000000000000000000 DUP2 MSTORE PUSH1 0x4 ADD PUSH2 0x29CA SWAP1 PUSH2 0x555D JUMP JUMPDEST PUSH1 0x40 MLOAD DUP1 SWAP2 SUB SWAP1 REVERT JUMPDEST PUSH1 0x0 PUSH1 0x3 PUSH1 0x0 DUP7 DUP2 MSTORE PUSH1 0x20 ADD SWAP1 DUP2 MSTORE PUSH1 0x20 ADD PUSH1 0x0 KECCAK256 PUSH1 0x7 ADD PUSH1 0x0 CALLER PUSH20 0xFFFFFFFFFFFFFFFFFFFFFFFFFFFFFFFFFFFFFFFF AND PUSH20 0xFFFFFFFFFFFFFFFFFFFFFFFFFFFFFFFFFFFFFFFF AND DUP2 MSTORE PUSH1 0x20 ADD SWAP1 DUP2 MSTORE PUSH1 0x20 ADD PUSH1 0x0 KECCAK256 PUSH1 0x0 PUSH2 0x100 EXP DUP2 SLOAD DUP2 PUSH1 0xFF MUL NOT AND SWAP1 DUP4 ISZERO ISZERO MUL OR SWAP1 SSTORE POP POP POP POP POP JUMP JUMPDEST PUSH1 0x0 PUSH1 0x2 PUSH1 0x0 CALLER PUSH20 0xFFFFFFFFFFFFFFFFFFFFFFFFFFFFFFFFFFFFFFFF AND PUSH20 0xFFFFFFFFFFFFFFFFFFFFFFFFFFFFFFFFFFFFFFFF AND DUP2 MSTORE PUSH1 0x20 ADD SWAP1 DUP2 MSTORE PUSH1 0x20 ADD PUSH1 0x0 KECCAK256 PUSH1 0x0 ADD SLOAD GT PUSH2 0x2ACA JUMPI PUSH1 0x40 MLOAD PUSH32 0x8C379A000000000000000000000000000000000000000000000000000000000 DUP2 MSTORE PUSH1 0x4 ADD PUSH2 0x2AC1 SWAP1 PUSH2 0x55C9 JUMP JUMPDEST PUSH1 0x40 MLOAD DUP1 SWAP2 SUB SWAP1 REVERT JUMPDEST PUSH1 0x0 PUSH20 0xFFFFFFFFFFFFFFFFFFFFFFFFFFFFFFFFFFFFFFFF AND PUSH1 0x3 PUSH1 0x0 DUP5 DUP2 MSTORE PUSH1 0x20 ADD SWAP1 DUP2 MSTORE PUSH1 0x20 ADD PUSH1 0x0 KECCAK256 PUSH1 0x0 ADD PUSH1 0x0 SWAP1 SLOAD SWAP1 PUSH2 0x100 EXP SWAP1 DIV PUSH20 0xFFFFFFFFFFFFFFFFFFFFFFFFFFFFFFFFFFFFFFFF AND PUSH20 0xFFFFFFFFFFFFFFFFFFFFFFFFFFFFFFFFFFFFFFFF AND SUB PUSH2 0x2B6F JUMPI PUSH1 0x40 MLOAD PUSH32 0x8C379A000000000000000000000000000000000000000000000000000000000 DUP2 MSTORE PUSH1 0x4 ADD PUSH2 0x2B66 SWAP1 PUSH2 0x474B JUMP JUMPDEST PUSH1 0x40 MLOAD DUP1 SWAP2 SUB SWAP1 REVERT JUMPDEST PUSH1 0x2 PUSH1 0x0 CALLER PUSH20 0xFFFFFFFFFFFFFFFFFFFFFFFFFFFFFFFFFFFFFFFF AND PUSH20 0xFFFFFFFFFFFFFFFFFFFFFFFFFFFFFFFFFFFFFFFF AND DUP2 MSTORE PUSH1 0x20 ADD SWAP1 DUP2 MSTORE PUSH1 0x20 ADD PUSH1 0x0 KECCAK256 PUSH1 0x1 ADD PUSH1 0x0 DUP4 DUP2 MSTORE PUSH1 0x20 ADD SWAP1 DUP2 MSTORE PUSH1 0x20 ADD PUSH1 0x0 KECCAK256 PUSH1 0x0 SWAP1 SLOAD SWAP1 PUSH2 0x100 EXP SWAP1 DIV PUSH1 0xFF AND ISZERO PUSH2 0x2C10 JUMPI PUSH1 0x40 MLOAD PUSH32 0x8C379A000000000000000000000000000000000000000000000000000000000 DUP2 MSTORE PUSH1 0x4 ADD PUSH2 0x2C07 SWAP1 PUSH2 0x5635 JUMP JUMPDEST PUSH1 0x40 MLOAD DUP1 SWAP2 SUB SWAP1 REVERT JUMPDEST PUSH1 0x40 MLOAD DUP1 PUSH1 0x40 ADD PUSH1 0x40 MSTORE DUP1 PUSH1 0x7 DUP2 MSTORE PUSH1 0x20 ADD PUSH32 0x70656E64696E6700000000000000000000000000000000000000000000000000 DUP2 MSTORE POP DUP1 MLOAD SWAP1 PUSH1 0x20 ADD KECCAK256 PUSH1 0x3 PUSH1 0x0 DUP5 DUP2 MSTORE PUSH1 0x20 ADD SWAP1 DUP2 MSTORE PUSH1 0x20 ADD PUSH1 0x0 KECCAK256 PUSH1 0x2 ADD PUSH1 0x40 MLOAD PUSH2 0x2C70 SWAP2 SWAP1 PUSH2 0x486E JUMP JUMPDEST PUSH1 0x40 MLOAD DUP1 SWAP2 SUB SWAP1 KECCAK256 EQ PUSH2 0x2CB8 JUMPI PUSH1 0x40 MLOAD PUSH32 0x8C379A000000000000000000000000000000000000000000000000000000000 DUP2 MSTORE PUSH1 0x4 ADD PUSH2 0x2CAF SWAP1 PUSH2 0x56A1 JUMP JUMPDEST PUSH1 0x40 MLOAD DUP1 SWAP2 SUB SWAP1 REVERT JUMPDEST PUSH3 0x93A80 PUSH1 0x3 PUSH1 0x0 DUP5 DUP2 MSTORE PUSH1 0x20 ADD SWAP1 DUP2 MSTORE PUSH1 0x20 ADD PUSH1 0x0 KECCAK256 PUSH1 0x6 ADD SLOAD PUSH2 0x2CDD SWAP2 SWAP1 PUSH2 0x4920 JUMP JUMPDEST TIMESTAMP GT ISZERO PUSH2 0x2D1F JUMPI PUSH1 0x40 MLOAD PUSH32 0x8C379A000000000000000000000000000000000000000000000000000000000 DUP2 MSTORE PUSH1 0x4 ADD PUSH2 0x2D16 SWAP1 PUSH2 0x570D JUMP JUMPDEST PUSH1 0x40 MLOAD DUP1 SWAP2 SUB SWAP1 REVERT JUMPDEST PUSH1 0x1 PUSH1 0x2 PUSH1 0x0 CALLER PUSH20 0xFFFFFFFFFFFFFFFFFFFFFFFFFFFFFFFFFFFFFFFF AND PUSH20 0xFFFFFFFFFFFFFFFFFFFFFFFFFFFFFFFFFFFFFFFF AND DUP2 MSTORE PUSH1 0x20 ADD SWAP1 DUP2 MSTORE PUSH1 0x20 ADD PUSH1 0x0 KECCAK256 PUSH1 0x1 ADD PUSH1 0x0 DUP5 DUP2 MSTORE PUSH1 0x20 ADD SWAP1 DUP2 MSTORE PUSH1 0x20 ADD PUSH1 0x0 KECCAK256 PUSH1 0x0 PUSH2 0x100 EXP DUP2 SLOAD DUP2 PUSH1 0xFF MUL NOT AND SWAP1 DUP4 ISZERO ISZERO MUL OR SWAP1 SSTORE POP PUSH1 0x1 PUSH1 0x3 PUSH1 0x0 DUP5 DUP2 MSTORE PUSH1 0x20 ADD SWAP1 DUP2 MSTORE PUSH1 0x20 ADD PUSH1 0x0 KECCAK256 PUSH1 0x7 ADD PUSH1 0x0 CALLER PUSH20 0xFFFFFFFFFFFFFFFFFFFFFFFFFFFFFFFFFFFFFFFF AND PUSH20 0xFFFFFFFFFFFFFFFFFFFFFFFFFFFFFFFFFFFFFFFF AND DUP2 MSTORE PUSH1 0x20 ADD SWAP1 DUP2 MSTORE PUSH1 0x20 ADD PUSH1 0x0 KECCAK256 PUSH1 0x0 PUSH2 0x100 EXP DUP2 SLOAD DUP2 PUSH1 0xFF MUL NOT AND SWAP1 DUP4 ISZERO ISZERO MUL OR SWAP1 SSTORE POP PUSH1 0x3 PUSH1 0x0 DUP4 DUP2 MSTORE PUSH1 0x20 ADD SWAP1 DUP2 MSTORE PUSH1 0x20 ADD PUSH1 0x0 KECCAK256 PUSH1 0x8 ADD PUSH1 0x0 DUP2 SLOAD DUP1 SWAP3 SWAP2 SWAP1 PUSH2 0x2E1E SWAP1 PUSH2 0x507E JUMP JUMPDEST SWAP2 SWAP1 POP SSTORE POP DUP1 ISZERO PUSH2 0x2E5A JUMPI PUSH1 0x3 PUSH1 0x0 DUP4 DUP2 MSTORE PUSH1 0x20 ADD SWAP1 DUP2 MSTORE PUSH1 0x20 ADD PUSH1 0x0 KECCAK256 PUSH1 0x3 ADD PUSH1 0x0 DUP2 SLOAD DUP1 SWAP3 SWAP2 SWAP1 PUSH2 0x2E50 SWAP1 PUSH2 0x507E JUMP JUMPDEST SWAP2 SWAP1 POP SSTORE POP PUSH2 0x2E87 JUMP JUMPDEST PUSH1 0x3 PUSH1 0x0 DUP4 DUP2 MSTORE PUSH1 0x20 ADD SWAP1 DUP2 MSTORE PUSH1 0x20 ADD PUSH1 0x0 KECCAK256 PUSH1 0x4 ADD PUSH1 0x0 DUP2 SLOAD DUP1 SWAP3 SWAP2 SWAP1 PUSH2 0x2E81 SWAP1 PUSH2 0x507E JUMP JUMPDEST SWAP2 SWAP1 POP SSTORE POP JUMPDEST PUSH32 0xF2913DBE661EE2ACC4A046D8FBCDC792373BDA34C41C6086484B5345E5785E5F DUP3 CALLER DUP4 PUSH1 0x40 MLOAD PUSH2 0x2EBA SWAP4 SWAP3 SWAP2 SWAP1 PUSH2 0x572D JUMP JUMPDEST PUSH1 0x40 MLOAD DUP1 SWAP2 SUB SWAP1 LOG1 POP POP JUMP JUMPDEST PUSH1 0x0 PUSH1 0x2 PUSH1 0x0 CALLER PUSH20 0xFFFFFFFFFFFFFFFFFFFFFFFFFFFFFFFFFFFFFFFF AND PUSH20 0xFFFFFFFFFFFFFFFFFFFFFFFFFFFFFFFFFFFFFFFF AND DUP2 MSTORE PUSH1 0x20 ADD SWAP1 DUP2 MSTORE PUSH1 0x20 ADD PUSH1 0x0 KECCAK256 PUSH1 0x0 ADD SLOAD GT PUSH2 0x2F4B JUMPI PUSH1 0x40 MLOAD PUSH32 0x8C379A000000000000000000000000000000000000000000000000000000000 DUP2 MSTORE PUSH1 0x4 ADD PUSH2 0x2F42 SWAP1 PUSH2 0x55C9 JUMP JUMPDEST PUSH1 0x40 MLOAD DUP1 SWAP2 SUB SWAP1 REVERT JUMPDEST PUSH1 0x0 PUSH1 0x2 PUSH1 0x0 CALLER PUSH20 0xFFFFFFFFFFFFFFFFFFFFFFFFFFFFFFFFFFFFFFFF AND PUSH20 0xFFFFFFFFFFFFFFFFFFFFFFFFFFFFFFFFFFFFFFFF AND DUP2 MSTORE PUSH1 0x20 ADD SWAP1 DUP2 MSTORE PUSH1 0x20 ADD PUSH1 0x0 KECCAK256 PUSH1 0x0 ADD SLOAD SWAP1 POP PUSH1 0x0 PUSH1 0x2 PUSH1 0x0 CALLER PUSH20 0xFFFFFFFFFFFFFFFFFFFFFFFFFFFFFFFFFFFFFFFF AND PUSH20 0xFFFFFFFFFFFFFFFFFFFFFFFFFFFFFFFFFFFFFFFF AND DUP2 MSTORE PUSH1 0x20 ADD SWAP1 DUP2 MSTORE PUSH1 0x20 ADD PUSH1 0x0 KECCAK256 PUSH1 0x0 ADD DUP2 SWAP1 SSTORE POP PUSH1 0x0 CALLER PUSH20 0xFFFFFFFFFFFFFFFFFFFFFFFFFFFFFFFFFFFFFFFF AND DUP3 PUSH1 0x40 MLOAD PUSH2 0x3000 SWAP1 PUSH2 0x4D3A JUMP JUMPDEST PUSH1 0x0 PUSH1 0x40 MLOAD DUP1 DUP4 SUB DUP2 DUP6 DUP8 GAS CALL SWAP3 POP POP POP RETURNDATASIZE DUP1 PUSH1 0x0 DUP2 EQ PUSH2 0x303D JUMPI PUSH1 0x40 MLOAD SWAP2 POP PUSH1 0x1F NOT PUSH1 0x3F RETURNDATASIZE ADD AND DUP3 ADD PUSH1 0x40 MSTORE RETURNDATASIZE DUP3 MSTORE RETURNDATASIZE PUSH1 0x0 PUSH1 0x20 DUP5 ADD RETURNDATACOPY PUSH2 0x3042 JUMP JUMPDEST PUSH1 0x60 SWAP2 POP JUMPDEST POP POP SWAP1 POP DUP1 PUSH2 0x3086 JUMPI PUSH1 0x40 MLOAD PUSH32 0x8C379A000000000000000000000000000000000000000000000000000000000 DUP2 MSTORE PUSH1 0x4 ADD PUSH2 0x307D SWAP1 PUSH2 0x53F0 JUMP JUMPDEST PUSH1 0x40 MLOAD DUP1 SWAP2 SUB SWAP1 REVERT JUMPDEST POP POP JUMP JUMPDEST PUSH1 0x1 PUSH1 0x20 MSTORE DUP1 PUSH1 0x0 MSTORE PUSH1 0x40 PUSH1 0x0 KECCAK256 PUSH1 0x0 SWAP2 POP SWAP1 POP DUP1 PUSH1 0x0 ADD DUP1 SLOAD PUSH2 0x30AD SWAP1 PUSH2 0x479A JUMP JUMPDEST DUP1 PUSH1 0x1F ADD PUSH1 0x20 DUP1 SWAP2 DIV MUL PUSH1 0x20 ADD PUSH1 0x40 MLOAD SWAP1 DUP2 ADD PUSH1 0x40 MSTORE DUP1 SWAP3 SWAP2 SWAP1 DUP2 DUP2 MSTORE PUSH1 0x20 ADD DUP3 DUP1 SLOAD PUSH2 0x30D9 SWAP1 PUSH2 0x479A JUMP JUMPDEST DUP1 ISZERO PUSH2 0x3126 JUMPI DUP1 PUSH1 0x1F LT PUSH2 0x30FB JUMPI PUSH2 0x100 DUP1 DUP4 SLOAD DIV MUL DUP4 MSTORE SWAP2 PUSH1 0x20 ADD SWAP2 PUSH2 0x3126 JUMP JUMPDEST DUP3 ADD SWAP2 SWAP1 PUSH1 0x0 MSTORE PUSH1 0x20 PUSH1 0x0 KECCAK256 SWAP1 JUMPDEST DUP2 SLOAD DUP2 MSTORE SWAP1 PUSH1 0x1 ADD SWAP1 PUSH1 0x20 ADD DUP1 DUP4 GT PUSH2 0x3109 JUMPI DUP3 SWAP1 SUB PUSH1 0x1F AND DUP3 ADD SWAP2 JUMPDEST POP POP POP POP POP SWAP1 DUP1 PUSH1 0x1 ADD DUP1 SLOAD PUSH2 0x313B SWAP1 PUSH2 0x479A JUMP JUMPDEST DUP1 PUSH1 0x1F ADD PUSH1 0x20 DUP1 SWAP2 DIV MUL PUSH1 0x20 ADD PUSH1 0x40 MLOAD SWAP1 DUP2 ADD PUSH1 0x40 MSTORE DUP1 SWAP3 SWAP2 SWAP1 DUP2 DUP2 MSTORE PUSH1 0x20 ADD DUP3 DUP1 SLOAD PUSH2 0x3167 SWAP1 PUSH2 0x479A JUMP JUMPDEST DUP1 ISZERO PUSH2 0x31B4 JUMPI DUP1 PUSH1 0x1F LT PUSH2 0x3189 JUMPI PUSH2 0x100 DUP1 DUP4 SLOAD DIV MUL DUP4 MSTORE SWAP2 PUSH1 0x20 ADD SWAP2 PUSH2 0x31B4 JUMP JUMPDEST DUP3 ADD SWAP2 SWAP1 PUSH1 0x0 MSTORE PUSH1 0x20 PUSH1 0x0 KECCAK256 SWAP1 JUMPDEST DUP2 SLOAD DUP2 MSTORE SWAP1 PUSH1 0x1 ADD SWAP1 PUSH1 0x20 ADD DUP1 DUP4 GT PUSH2 0x3197 JUMPI DUP3 SWAP1 SUB PUSH1 0x1F AND DUP3 ADD SWAP2 JUMPDEST POP POP POP POP POP SWAP1 DUP1 PUSH1 0x2 ADD SLOAD SWAP1 DUP1 PUSH1 0x3 ADD DUP1 SLOAD PUSH2 0x31CF SWAP1 PUSH2 0x479A JUMP JUMPDEST DUP1 PUSH1 0x1F ADD PUSH1 0x20 DUP1 SWAP2 DIV MUL PUSH1 0x20 ADD PUSH1 0x40 MLOAD SWAP1 DUP2 ADD PUSH1 0x40 MSTORE DUP1 SWAP3 SWAP2 SWAP1 DUP2 DUP2 MSTORE PUSH1 0x20 ADD DUP3 DUP1 SLOAD PUSH2 0x31FB SWAP1 PUSH2 0x479A JUMP JUMPDEST DUP1 ISZERO PUSH2 0x3248 JUMPI DUP1 PUSH1 0x1F LT PUSH2 0x321D JUMPI PUSH2 0x100 DUP1 DUP4 SLOAD DIV MUL DUP4 MSTORE SWAP2 PUSH1 0x20 ADD SWAP2 PUSH2 0x3248 JUMP JUMPDEST DUP3 ADD SWAP2 SWAP1 PUSH1 0x0 MSTORE PUSH1 0x20 PUSH1 0x0 KECCAK256 SWAP1 JUMPDEST DUP2 SLOAD DUP2 MSTORE SWAP1 PUSH1 0x1 ADD SWAP1 PUSH1 0x20 ADD DUP1 DUP4 GT PUSH2 0x322B JUMPI DUP3 SWAP1 SUB PUSH1 0x1F AND DUP3 ADD SWAP2 JUMPDEST POP POP POP POP POP SWAP1 POP DUP5 JUMP JUMPDEST PUSH1 0x0 CALLVALUE GT PUSH2 0x3295 JUMPI PUSH1 0x40 MLOAD PUSH32 0x8C379A000000000000000000000000000000000000000000000000000000000 DUP2 MSTORE PUSH1 0x4 ADD PUSH2 0x328C SWAP1 PUSH2 0x4F56 JUMP JUMPDEST PUSH1 0x40 MLOAD DUP1 SWAP2 SUB SWAP1 REVERT JUMPDEST PUSH1 0x0 PUSH1 0x2 PUSH1 0x0 CALLER PUSH20 0xFFFFFFFFFFFFFFFFFFFFFFFFFFFFFFFFFFFFFFFF AND PUSH20 0xFFFFFFFFFFFFFFFFFFFFFFFFFFFFFFFFFFFFFFFF AND DUP2 MSTORE PUSH1 0x20 ADD SWAP1 DUP2 MSTORE PUSH1 0x20 ADD PUSH1 0x0 KECCAK256 PUSH1 0x0 ADD SLOAD EQ PUSH2 0x331A JUMPI PUSH1 0x40 MLOAD PUSH32 0x8C379A000000000000000000000000000000000000000000000000000000000 DUP2 MSTORE PUSH1 0x4 ADD PUSH2 0x3311 SWAP1 PUSH2 0x57B0 JUMP JUMPDEST PUSH1 0x40 MLOAD DUP1 SWAP2 SUB SWAP1 REVERT JUMPDEST CALLVALUE PUSH1 0x2 PUSH1 0x0 CALLER PUSH20 0xFFFFFFFFFFFFFFFFFFFFFFFFFFFFFFFFFFFFFFFF AND PUSH20 0xFFFFFFFFFFFFFFFFFFFFFFFFFFFFFFFFFFFFFFFF AND DUP2 MSTORE PUSH1 0x20 ADD SWAP1 DUP2 MSTORE PUSH1 0x20 ADD PUSH1 0x0 KECCAK256 PUSH1 0x0 ADD DUP2 SWAP1 SSTORE POP PUSH32 0xF16CE2C2236E2C6E3DF646F80D657BCEEF4CD7F3A240C47E82ADFA17A5F47241 CALLER CALLVALUE PUSH1 0x40 MLOAD PUSH2 0x3392 SWAP3 SWAP2 SWAP1 PUSH2 0x5410 JUMP JUMPDEST PUSH1 0x40 MLOAD DUP1 SWAP2 SUB SWAP1 LOG1 JUMP JUMPDEST PUSH1 0x0 PUSH20 0xFFFFFFFFFFFFFFFFFFFFFFFFFFFFFFFFFFFFFFFF AND PUSH1 0x3 PUSH1 0x0 DUP4 DUP2 MSTORE PUSH1 0x20 ADD SWAP1 DUP2 MSTORE PUSH1 0x20 ADD PUSH1 0x0 KECCAK256 PUSH1 0x0 ADD PUSH1 0x0 SWAP1 SLOAD SWAP1 PUSH2 0x100 EXP SWAP1 DIV PUSH20 0xFFFFFFFFFFFFFFFFFFFFFFFFFFFFFFFFFFFFFFFF AND PUSH20 0xFFFFFFFFFFFFFFFFFFFFFFFFFFFFFFFFFFFFFFFF AND SUB PUSH2 0x3441 JUMPI PUSH1 0x40 MLOAD PUSH32 0x8C379A000000000000000000000000000000000000000000000000000000000 DUP2 MSTORE PUSH1 0x4 ADD PUSH2 0x3438 SWAP1 PUSH2 0x474B JUMP JUMPDEST PUSH1 0x40 MLOAD DUP1 SWAP2 SUB SWAP1 REVERT JUMPDEST PUSH1 0x0 CALLVALUE GT PUSH2 0x3484 JUMPI PUSH1 0x40 MLOAD PUSH32 0x8C379A000000000000000000000000000000000000000000000000000000000 DUP2 MSTORE PUSH1 0x4 ADD PUSH2 0x347B SWAP1 PUSH2 0x581C JUMP JUMPDEST PUSH1 0x40 MLOAD DUP1 SWAP2 SUB SWAP1 REVERT JUMPDEST PUSH1 0x40 MLOAD DUP1 PUSH1 0x40 ADD PUSH1 0x40 MSTORE DUP1 PUSH1 0x7 DUP2 MSTORE PUSH1 0x20 ADD PUSH32 0x70656E64696E6700000000000000000000000000000000000000000000000000 DUP2 MSTORE POP DUP1 MLOAD SWAP1 PUSH1 0x20 ADD KECCAK256 PUSH1 0x3 PUSH1 0x0 DUP4 DUP2 MSTORE PUSH1 0x20 ADD SWAP1 DUP2 MSTORE PUSH1 0x20 ADD PUSH1 0x0 KECCAK256 PUSH1 0x2 ADD PUSH1 0x40 MLOAD PUSH2 0x34E4 SWAP2 SWAP1 PUSH2 0x486E JUMP JUMPDEST PUSH1 0x40 MLOAD DUP1 SWAP2 SUB SWAP1 KECCAK256 EQ PUSH2 0x352C JUMPI PUSH1 0x40 MLOAD PUSH32 0x8C379A000000000000000000000000000000000000000000000000000000000 DUP2 MSTORE PUSH1 0x4 ADD PUSH2 0x3523 SWAP1 PUSH2 0x56A1 JUMP JUMPDEST PUSH1 0x40 MLOAD DUP1 SWAP2 SUB SWAP1 REVERT JUMPDEST CALLVALUE PUSH1 0x3 PUSH1 0x0 DUP4 DUP2 MSTORE PUSH1 0x20 ADD SWAP1 DUP2 MSTORE PUSH1 0x20 ADD PUSH1 0x0 KECCAK256 PUSH1 0x5 ADD PUSH1 0x0 DUP3 DUP3 SLOAD PUSH2 0x3552 SWAP2 SWAP1 PUSH2 0x4920 JUMP JUMPDEST SWAP3 POP POP DUP2 SWAP1 SSTORE POP PUSH1 0x4 PUSH1 0x0 DUP3 DUP2 MSTORE PUSH1 0x20 ADD SWAP1 DUP2 MSTORE PUSH1 0x20 ADD PUSH1 0x0 KECCAK256 PUSH1 0x40 MLOAD DUP1 PUSH1 0x60 ADD PUSH1 0x40 MSTORE DUP1 CALLER PUSH20 0xFFFFFFFFFFFFFFFFFFFFFFFFFFFFFFFFFFFFFFFF AND DUP2 MSTORE PUSH1 0x20 ADD CALLVALUE DUP2 MSTORE PUSH1 0x20 ADD TIMESTAMP DUP2 MSTORE POP SWAP1 DUP1 PUSH1 0x1 DUP2 SLOAD ADD DUP1 DUP3 SSTORE DUP1 SWAP2 POP POP PUSH1 0x1 SWAP1 SUB SWAP1 PUSH1 0x0 MSTORE PUSH1 0x20 PUSH1 0x0 KECCAK256 SWAP1 PUSH1 0x3 MUL ADD PUSH1 0x0 SWAP1 SWAP2 SWAP1 SWAP2 SWAP1 SWAP2 POP PUSH1 0x0 DUP3 ADD MLOAD DUP2 PUSH1 0x0 ADD PUSH1 0x0 PUSH2 0x100 EXP DUP2 SLOAD DUP2 PUSH20 0xFFFFFFFFFFFFFFFFFFFFFFFFFFFFFFFFFFFFFFFF MUL NOT AND SWAP1 DUP4 PUSH20 0xFFFFFFFFFFFFFFFFFFFFFFFFFFFFFFFFFFFFFFFF AND MUL OR SWAP1 SSTORE POP PUSH1 0x20 DUP3 ADD MLOAD DUP2 PUSH1 0x1 ADD SSTORE PUSH1 0x40 DUP3 ADD MLOAD DUP2 PUSH1 0x2 ADD SSTORE POP POP PUSH32 0x27E413B8931DC4CB7EDC879292EBC482A3047336D03423EA91ADDAE7A2CF850A DUP2 CALLER CALLVALUE PUSH1 0x1 PUSH1 0x4 PUSH1 0x0 DUP8 DUP2 MSTORE PUSH1 0x20 ADD SWAP1 DUP2 MSTORE PUSH1 0x20 ADD PUSH1 0x0 KECCAK256 DUP1 SLOAD SWAP1 POP PUSH2 0x366A SWAP2 SWAP1 PUSH2 0x4A62 JUMP JUMPDEST PUSH1 0x40 MLOAD PUSH2 0x367A SWAP5 SWAP4 SWAP3 SWAP2 SWAP1 PUSH2 0x583C JUMP JUMPDEST PUSH1 0x40 MLOAD DUP1 SWAP2 SUB SWAP1 LOG1 POP JUMP JUMPDEST DUP3 DUP1 SLOAD DUP3 DUP3 SSTORE SWAP1 PUSH1 0x0 MSTORE PUSH1 0x20 PUSH1 0x0 KECCAK256 SWAP1 DUP2 ADD SWAP3 DUP3 ISZERO PUSH2 0x36C1 JUMPI SWAP2 PUSH1 0x20 MUL DUP3 ADD JUMPDEST DUP3 DUP2 GT ISZERO PUSH2 0x36C0 JUMPI DUP3 MLOAD DUP3 SSTORE SWAP2 PUSH1 0x20 ADD SWAP2 SWAP1 PUSH1 0x1 ADD SWAP1 PUSH2 0x36A5 JUMP JUMPDEST JUMPDEST POP SWAP1 POP PUSH2 0x36CE SWAP2 SWAP1 PUSH2 0x3774 JUMP JUMPDEST POP SWAP1 JUMP JUMPDEST DUP3 DUP1 SLOAD DUP3 DUP3 SSTORE SWAP1 PUSH1 0x0 MSTORE PUSH1 0x20 PUSH1 0x0 KECCAK256 SWAP1 DUP2 ADD SWAP3 DUP3 ISZERO PUSH2 0x371A JUMPI SWAP2 PUSH1 0x20 MUL DUP3 ADD JUMPDEST DUP3 DUP2 GT ISZERO PUSH2 0x3719 JUMPI DUP3 MLOAD DUP3 SWAP1 DUP2 PUSH2 0x3709 SWAP2 SWAP1 PUSH2 0x4C42 JUMP JUMPDEST POP SWAP2 PUSH1 0x20 ADD SWAP2 SWAP1 PUSH1 0x1 ADD SWAP1 PUSH2 0x36F2 JUMP JUMPDEST JUMPDEST POP SWAP1 POP PUSH2 0x3727 SWAP2 SWAP1 PUSH2 0x3791 JUMP JUMPDEST POP SWAP1 JUMP JUMPDEST PUSH1 0x40 MLOAD DUP1 PUSH1 0x80 ADD PUSH1 0x40 MSTORE DUP1 PUSH1 0x0 DUP2 MSTORE PUSH1 0x20 ADD PUSH1 0x60 DUP2 MSTORE PUSH1 0x20 ADD PUSH1 0x60 DUP2 MSTORE PUSH1 0x20 ADD PUSH1 0x60 DUP2 MSTORE POP SWAP1 JUMP JUMPDEST PUSH1 0x40 MLOAD DUP1 PUSH1 0x60 ADD PUSH1 0x40 MSTORE DUP1 PUSH1 0x0 DUP2 MSTORE PUSH1 0x20 ADD PUSH1 0x60 DUP2 MSTORE PUSH1 0x20 ADD PUSH1 0x60 DUP2 MSTORE POP SWAP1 JUMP JUMPDEST JUMPDEST DUP1 DUP3 GT ISZERO PUSH2 0x378D JUMPI PUSH1 0x0 DUP2 PUSH1 0x0 SWAP1 SSTORE POP PUSH1 0x1 ADD PUSH2 0x3775 JUMP JUMPDEST POP SWAP1 JUMP JUMPDEST JUMPDEST DUP1 DUP3 GT ISZERO PUSH2 0x37B1 JUMPI PUSH1 0x0 DUP2 DUP2 PUSH2 0x37A8 SWAP2 SWAP1 PUSH2 0x37B5 JUMP JUMPDEST POP PUSH1 0x1 ADD PUSH2 0x3792 JUMP JUMPDEST POP SWAP1 JUMP JUMPDEST POP DUP1 SLOAD PUSH2 0x37C1 SWAP1 PUSH2 0x479A JUMP JUMPDEST PUSH1 0x0 DUP3 SSTORE DUP1 PUSH1 0x1F LT PUSH2 0x37D3 JUMPI POP PUSH2 0x37F2 JUMP JUMPDEST PUSH1 0x1F ADD PUSH1 0x20 SWAP1 DIV SWAP1 PUSH1 0x0 MSTORE PUSH1 0x20 PUSH1 0x0 KECCAK256 SWAP1 DUP2 ADD SWAP1 PUSH2 0x37F1 SWAP2 SWAP1 PUSH2 0x3774 JUMP JUMPDEST JUMPDEST POP JUMP JUMPDEST PUSH1 0x0 PUSH1 0x40 MLOAD SWAP1 POP SWAP1 JUMP JUMPDEST PUSH1 0x0 DUP1 REVERT JUMPDEST PUSH1 0x0 DUP1 REVERT JUMPDEST PUSH1 0x0 DUP2 SWAP1 POP SWAP2 SWAP1 POP JUMP JUMPDEST PUSH2 0x381C DUP2 PUSH2 0x3809 JUMP JUMPDEST DUP2 EQ PUSH2 0x3827 JUMPI PUSH1 0x0 DUP1 REVERT JUMPDEST POP JUMP JUMPDEST PUSH1 0x0 DUP2 CALLDATALOAD SWAP1 POP PUSH2 0x3839 DUP2 PUSH2 0x3813 JUMP JUMPDEST SWAP3 SWAP2 POP POP JUMP JUMPDEST PUSH1 0x0 PUSH1 0x20 DUP3 DUP5 SUB SLT ISZERO PUSH2 0x3855 JUMPI PUSH2 0x3854 PUSH2 0x37FF JUMP JUMPDEST JUMPDEST PUSH1 0x0 PUSH2 0x3863 DUP5 DUP3 DUP6 ADD PUSH2 0x382A JUMP JUMPDEST SWAP2 POP POP SWAP3 SWAP2 POP POP JUMP JUMPDEST PUSH1 0x0 PUSH20 0xFFFFFFFFFFFFFFFFFFFFFFFFFFFFFFFFFFFFFFFF DUP3 AND SWAP1 POP SWAP2 SWAP1 POP JUMP JUMPDEST PUSH1 0x0 PUSH2 0x3897 DUP3 PUSH2 0x386C JUMP JUMPDEST SWAP1 POP SWAP2 SWAP1 POP JUMP JUMPDEST PUSH2 0x38A7 DUP2 PUSH2 0x388C JUMP JUMPDEST DUP3 MSTORE POP POP JUMP JUMPDEST PUSH1 0x0 DUP2 MLOAD SWAP1 POP SWAP2 SWAP1 POP JUMP JUMPDEST PUSH1 0x0 DUP3 DUP3 MSTORE PUSH1 0x20 DUP3 ADD SWAP1 POP SWAP3 SWAP2 POP POP JUMP JUMPDEST PUSH1 0x0 DUP2 SWAP1 POP PUSH1 0x20 DUP3 ADD SWAP1 POP SWAP2 SWAP1 POP JUMP JUMPDEST PUSH1 0x0 DUP2 MLOAD SWAP1 POP SWAP2 SWAP1 POP JUMP JUMPDEST PUSH1 0x0 DUP3 DUP3 MSTORE PUSH1 0x20 DUP3 ADD SWAP1 POP SWAP3 SWAP2 POP POP JUMP JUMPDEST PUSH1 0x0 JUMPDEST DUP4 DUP2 LT ISZERO PUSH2 0x3913 JUMPI DUP1 DUP3 ADD MLOAD DUP2 DUP5 ADD MSTORE PUSH1 0x20 DUP2 ADD SWAP1 POP PUSH2 0x38F8 JUMP JUMPDEST PUSH1 0x0 DUP5 DUP5 ADD MSTORE POP POP POP POP JUMP JUMPDEST PUSH1 0x0 PUSH1 0x1F NOT PUSH1 0x1F DUP4 ADD AND SWAP1 POP SWAP2 SWAP1 POP JUMP JUMPDEST PUSH1 0x0 PUSH2 0x393B DUP3 PUSH2 0x38D9 JUMP JUMPDEST PUSH2 0x3945 DUP2 DUP6 PUSH2 0x38E4 JUMP JUMPDEST SWAP4 POP PUSH2 0x3955 DUP2 DUP6 PUSH1 0x20 DUP7 ADD PUSH2 0x38F5 JUMP JUMPDEST PUSH2 0x395E DUP2 PUSH2 0x391F JUMP JUMPDEST DUP5 ADD SWAP2 POP POP SWAP3 SWAP2 POP POP JUMP JUMPDEST PUSH1 0x0 PUSH2 0x3975 DUP4 DUP4 PUSH2 0x3930 JUMP JUMPDEST SWAP1 POP SWAP3 SWAP2 POP POP JUMP JUMPDEST PUSH1 0x0 PUSH1 0x20 DUP3 ADD SWAP1 POP SWAP2 SWAP1 POP JUMP JUMPDEST PUSH1 0x0 PUSH2 0x3995 DUP3 PUSH2 0x38AD JUMP JUMPDEST PUSH2 0x399F DUP2 DUP6 PUSH2 0x38B8 JUMP JUMPDEST SWAP4 POP DUP4 PUSH1 0x20 DUP3 MUL DUP6 ADD PUSH2 0x39B1 DUP6 PUSH2 0x38C9 JUMP JUMPDEST DUP1 PUSH1 0x0 JUMPDEST DUP6 DUP2 LT ISZERO PUSH2 0x39ED JUMPI DUP5 DUP5 SUB DUP10 MSTORE DUP2 MLOAD PUSH2 0x39CE DUP6 DUP3 PUSH2 0x3969 JUMP JUMPDEST SWAP5 POP PUSH2 0x39D9 DUP4 PUSH2 0x397D JUMP JUMPDEST SWAP3 POP PUSH1 0x20 DUP11 ADD SWAP10 POP POP PUSH1 0x1 DUP2 ADD SWAP1 POP PUSH2 0x39B5 JUMP JUMPDEST POP DUP3 SWAP8 POP DUP8 SWAP6 POP POP POP POP POP POP SWAP3 SWAP2 POP POP JUMP JUMPDEST PUSH1 0x0 DUP3 DUP3 MSTORE PUSH1 0x20 DUP3 ADD SWAP1 POP SWAP3 SWAP2 POP POP JUMP JUMPDEST PUSH1 0x0 PUSH2 0x3A1B DUP3 PUSH2 0x38D9 JUMP JUMPDEST PUSH2 0x3A25 DUP2 DUP6 PUSH2 0x39FF JUMP JUMPDEST SWAP4 POP PUSH2 0x3A35 DUP2 DUP6 PUSH1 0x20 DUP7 ADD PUSH2 0x38F5 JUMP JUMPDEST PUSH2 0x3A3E DUP2 PUSH2 0x391F JUMP JUMPDEST DUP5 ADD SWAP2 POP POP SWAP3 SWAP2 POP POP JUMP JUMPDEST PUSH2 0x3A52 DUP2 PUSH2 0x3809 JUMP JUMPDEST DUP3 MSTORE POP POP JUMP JUMPDEST PUSH1 0x0 PUSH2 0x100 DUP3 ADD SWAP1 POP PUSH2 0x3A6E PUSH1 0x0 DUP4 ADD DUP12 PUSH2 0x389E JUMP JUMPDEST DUP2 DUP2 SUB PUSH1 0x20 DUP4 ADD MSTORE PUSH2 0x3A80 DUP2 DUP11 PUSH2 0x398A JUMP JUMPDEST SWAP1 POP DUP2 DUP2 SUB PUSH1 0x40 DUP4 ADD MSTORE PUSH2 0x3A94 DUP2 DUP10 PUSH2 0x3A10 JUMP JUMPDEST SWAP1 POP PUSH2 0x3AA3 PUSH1 0x60 DUP4 ADD DUP9 PUSH2 0x3A49 JUMP JUMPDEST PUSH2 0x3AB0 PUSH1 0x80 DUP4 ADD DUP8 PUSH2 0x3A49 JUMP JUMPDEST PUSH2 0x3ABD PUSH1 0xA0 DUP4 ADD DUP7 PUSH2 0x3A49 JUMP JUMPDEST PUSH2 0x3ACA PUSH1 0xC0 DUP4 ADD DUP6 PUSH2 0x3A49 JUMP JUMPDEST PUSH2 0x3AD7 PUSH1 0xE0 DUP4 ADD DUP5 PUSH2 0x3A49 JUMP JUMPDEST SWAP10 SWAP9 POP POP POP POP POP POP POP POP POP JUMP JUMPDEST PUSH1 0x0 DUP1 PUSH1 0x40 DUP4 DUP6 SUB SLT ISZERO PUSH2 0x3AFB JUMPI PUSH2 0x3AFA PUSH2 0x37FF JUMP JUMPDEST JUMPDEST PUSH1 0x0 PUSH2 0x3B09 DUP6 DUP3 DUP7 ADD PUSH2 0x382A JUMP JUMPDEST SWAP3 POP POP PUSH1 0x20 PUSH2 0x3B1A DUP6 DUP3 DUP7 ADD PUSH2 0x382A JUMP JUMPDEST SWAP2 POP POP SWAP3 POP SWAP3 SWAP1 POP JUMP JUMPDEST PUSH1 0x0 PUSH1 0x60 DUP3 ADD SWAP1 POP PUSH2 0x3B39 PUSH1 0x0 DUP4 ADD DUP7 PUSH2 0x389E JUMP JUMPDEST PUSH2 0x3B46 PUSH1 0x20 DUP4 ADD DUP6 PUSH2 0x3A49 JUMP JUMPDEST PUSH2 0x3B53 PUSH1 0x40 DUP4 ADD DUP5 PUSH2 0x3A49 JUMP JUMPDEST SWAP5 SWAP4 POP POP POP POP JUMP JUMPDEST PUSH2 0x3B64 DUP2 PUSH2 0x388C JUMP JUMPDEST DUP2 EQ PUSH2 0x3B6F JUMPI PUSH1 0x0 DUP1 REVERT JUMPDEST POP JUMP JUMPDEST PUSH1 0x0 DUP2 CALLDATALOAD SWAP1 POP PUSH2 0x3B81 DUP2 PUSH2 0x3B5B JUMP JUMPDEST SWAP3 SWAP2 POP POP JUMP JUMPDEST PUSH1 0x0 DUP1 PUSH1 0x40 DUP4 DUP6 SUB SLT ISZERO PUSH2 0x3B9E JUMPI PUSH2 0x3B9D PUSH2 0x37FF JUMP JUMPDEST JUMPDEST PUSH1 0x0 PUSH2 0x3BAC DUP6 DUP3 DUP7 ADD PUSH2 0x3B72 JUMP JUMPDEST SWAP3 POP POP PUSH1 0x20 PUSH2 0x3BBD DUP6 DUP3 DUP7 ADD PUSH2 0x382A JUMP JUMPDEST SWAP2 POP POP SWAP3 POP SWAP3 SWAP1 POP JUMP JUMPDEST PUSH1 0x0 DUP2 ISZERO ISZERO SWAP1 POP SWAP2 SWAP1 POP JUMP JUMPDEST PUSH2 0x3BDC DUP2 PUSH2 0x3BC7 JUMP JUMPDEST DUP3 MSTORE POP POP JUMP JUMPDEST PUSH1 0x0 PUSH1 0x20 DUP3 ADD SWAP1 POP PUSH2 0x3BF7 PUSH1 0x0 DUP4 ADD DUP5 PUSH2 0x3BD3 JUMP JUMPDEST SWAP3 SWAP2 POP POP JUMP JUMPDEST PUSH1 0x0 DUP1 REVERT JUMPDEST PUSH1 0x0 DUP1 REVERT JUMPDEST PUSH32 0x4E487B7100000000000000000000000000000000000000000000000000000000 PUSH1 0x0 MSTORE PUSH1 0x41 PUSH1 0x4 MSTORE PUSH1 0x24 PUSH1 0x0 REVERT JUMPDEST PUSH2 0x3C3F DUP3 PUSH2 0x391F JUMP JUMPDEST DUP2 ADD DUP2 DUP2 LT PUSH8 0xFFFFFFFFFFFFFFFF DUP3 GT OR ISZERO PUSH2 0x3C5E JUMPI PUSH2 0x3C5D PUSH2 0x3C07 JUMP JUMPDEST JUMPDEST DUP1 PUSH1 0x40 MSTORE POP POP POP JUMP JUMPDEST PUSH1 0x0 PUSH2 0x3C71 PUSH2 0x37F5 JUMP JUMPDEST SWAP1 POP PUSH2 0x3C7D DUP3 DUP3 PUSH2 0x3C36 JUMP JUMPDEST SWAP2 SWAP1 POP JUMP JUMPDEST PUSH1 0x0 PUSH8 0xFFFFFFFFFFFFFFFF DUP3 GT ISZERO PUSH2 0x3C9D JUMPI PUSH2 0x3C9C PUSH2 0x3C07 JUMP JUMPDEST JUMPDEST PUSH2 0x3CA6 DUP3 PUSH2 0x391F JUMP JUMPDEST SWAP1 POP PUSH1 0x20 DUP2 ADD SWAP1 POP SWAP2 SWAP1 POP JUMP JUMPDEST DUP3 DUP2 DUP4 CALLDATACOPY PUSH1 0x0 DUP4 DUP4 ADD MSTORE POP POP POP JUMP JUMPDEST PUSH1 0x0 PUSH2 0x3CD5 PUSH2 0x3CD0 DUP5 PUSH2 0x3C82 JUMP JUMPDEST PUSH2 0x3C67 JUMP JUMPDEST SWAP1 POP DUP3 DUP2 MSTORE PUSH1 0x20 DUP2 ADD DUP5 DUP5 DUP5 ADD GT ISZERO PUSH2 0x3CF1 JUMPI PUSH2 0x3CF0 PUSH2 0x3C02 JUMP JUMPDEST JUMPDEST PUSH2 0x3CFC DUP5 DUP3 DUP6 PUSH2 0x3CB3 JUMP JUMPDEST POP SWAP4 SWAP3 POP POP POP JUMP JUMPDEST PUSH1 0x0 DUP3 PUSH1 0x1F DUP4 ADD SLT PUSH2 0x3D19 JUMPI PUSH2 0x3D18 PUSH2 0x3BFD JUMP JUMPDEST JUMPDEST DUP2 CALLDATALOAD PUSH2 0x3D29 DUP5 DUP3 PUSH1 0x20 DUP7 ADD PUSH2 0x3CC2 JUMP JUMPDEST SWAP2 POP POP SWAP3 SWAP2 POP POP JUMP JUMPDEST PUSH1 0x0 DUP1 PUSH1 0x0 PUSH1 0x60 DUP5 DUP7 SUB SLT ISZERO PUSH2 0x3D4B JUMPI PUSH2 0x3D4A PUSH2 0x37FF JUMP JUMPDEST JUMPDEST PUSH1 0x0 DUP5 ADD CALLDATALOAD PUSH8 0xFFFFFFFFFFFFFFFF DUP2 GT ISZERO PUSH2 0x3D69 JUMPI PUSH2 0x3D68 PUSH2 0x3804 JUMP JUMPDEST JUMPDEST PUSH2 0x3D75 DUP7 DUP3 DUP8 ADD PUSH2 0x3D04 JUMP JUMPDEST SWAP4 POP POP PUSH1 0x20 DUP5 ADD CALLDATALOAD PUSH8 0xFFFFFFFFFFFFFFFF DUP2 GT ISZERO PUSH2 0x3D96 JUMPI PUSH2 0x3D95 PUSH2 0x3804 JUMP JUMPDEST JUMPDEST PUSH2 0x3DA2 DUP7 DUP3 DUP8 ADD PUSH2 0x3D04 JUMP JUMPDEST SWAP3 POP POP PUSH1 0x40 DUP5 ADD CALLDATALOAD PUSH8 0xFFFFFFFFFFFFFFFF DUP2 GT ISZERO PUSH2 0x3DC3 JUMPI PUSH2 0x3DC2 PUSH2 0x3804 JUMP JUMPDEST JUMPDEST PUSH2 0x3DCF DUP7 DUP3 DUP8 ADD PUSH2 0x3D04 JUMP JUMPDEST SWAP2 POP POP SWAP3 POP SWAP3 POP SWAP3 JUMP JUMPDEST PUSH1 0x0 PUSH1 0x20 DUP3 ADD SWAP1 POP PUSH2 0x3DEE PUSH1 0x0 DUP4 ADD DUP5 PUSH2 0x3A49 JUMP JUMPDEST SWAP3 SWAP2 POP POP JUMP JUMPDEST PUSH1 0x0 DUP2 MLOAD SWAP1 POP SWAP2 SWAP1 POP JUMP JUMPDEST PUSH1 0x0 DUP3 DUP3 MSTORE PUSH1 0x20 DUP3 ADD SWAP1 POP SWAP3 SWAP2 POP POP JUMP JUMPDEST PUSH1 0x0 DUP2 SWAP1 POP PUSH1 0x20 DUP3 ADD SWAP1 POP SWAP2 SWAP1 POP JUMP JUMPDEST PUSH2 0x3E29 DUP2 PUSH2 0x388C JUMP JUMPDEST DUP3 MSTORE POP POP JUMP JUMPDEST PUSH2 0x3E38 DUP2 PUSH2 0x3809 JUMP JUMPDEST DUP3 MSTORE POP POP JUMP JUMPDEST PUSH1 0x60 DUP3 ADD PUSH1 0x0 DUP3 ADD MLOAD PUSH2 0x3E54 PUSH1 0x0 DUP6 ADD DUP3 PUSH2 0x3E20 JUMP JUMPDEST POP PUSH1 0x20 DUP3 ADD MLOAD PUSH2 0x3E67 PUSH1 0x20 DUP6 ADD DUP3 PUSH2 0x3E2F JUMP JUMPDEST POP PUSH1 0x40 DUP3 ADD MLOAD PUSH2 0x3E7A PUSH1 0x40 DUP6 ADD DUP3 PUSH2 0x3E2F JUMP JUMPDEST POP POP POP POP JUMP JUMPDEST PUSH1 0x0 PUSH2 0x3E8C DUP4 DUP4 PUSH2 0x3E3E JUMP JUMPDEST PUSH1 0x60 DUP4 ADD SWAP1 POP SWAP3 SWAP2 POP POP JUMP JUMPDEST PUSH1 0x0 PUSH1 0x20 DUP3 ADD SWAP1 POP SWAP2 SWAP1 POP JUMP JUMPDEST PUSH1 0x0 PUSH2 0x3EB0 DUP3 PUSH2 0x3DF4 JUMP JUMPDEST PUSH2 0x3EBA DUP2 DUP6 PUSH2 0x3DFF JUMP JUMPDEST SWAP4 POP PUSH2 0x3EC5 DUP4 PUSH2 0x3E10 JUMP JUMPDEST DUP1 PUSH1 0x0 JUMPDEST DUP4 DUP2 LT ISZERO PUSH2 0x3EF6 JUMPI DUP2 MLOAD PUSH2 0x3EDD DUP9 DUP3 PUSH2 0x3E80 JUMP JUMPDEST SWAP8 POP PUSH2 0x3EE8 DUP4 PUSH2 0x3E98 JUMP JUMPDEST SWAP3 POP POP PUSH1 0x1 DUP2 ADD SWAP1 POP PUSH2 0x3EC9 JUMP JUMPDEST POP DUP6 SWAP4 POP POP POP POP SWAP3 SWAP2 POP POP JUMP JUMPDEST PUSH1 0x0 PUSH1 0x20 DUP3 ADD SWAP1 POP DUP2 DUP2 SUB PUSH1 0x0 DUP4 ADD MSTORE PUSH2 0x3F1D DUP2 DUP5 PUSH2 0x3EA5 JUMP JUMPDEST SWAP1 POP SWAP3 SWAP2 POP POP JUMP JUMPDEST PUSH1 0x0 PUSH1 0x20 DUP3 DUP5 SUB SLT ISZERO PUSH2 0x3F3B JUMPI PUSH2 0x3F3A PUSH2 0x37FF JUMP JUMPDEST JUMPDEST PUSH1 0x0 PUSH2 0x3F49 DUP5 DUP3 DUP6 ADD PUSH2 0x3B72 JUMP JUMPDEST SWAP2 POP POP SWAP3 SWAP2 POP POP JUMP JUMPDEST PUSH1 0x0 DUP2 MLOAD SWAP1 POP SWAP2 SWAP1 POP JUMP JUMPDEST PUSH1 0x0 DUP3 DUP3 MSTORE PUSH1 0x20 DUP3 ADD SWAP1 POP SWAP3 SWAP2 POP POP JUMP JUMPDEST PUSH1 0x0 DUP2 SWAP1 POP PUSH1 0x20 DUP3 ADD SWAP1 POP SWAP2 SWAP1 POP JUMP JUMPDEST PUSH1 0x0 PUSH2 0x3F8A DUP4 DUP4 PUSH2 0x3E2F JUMP JUMPDEST PUSH1 0x20 DUP4 ADD SWAP1 POP SWAP3 SWAP2 POP POP JUMP JUMPDEST PUSH1 0x0 PUSH1 0x20 DUP3 ADD SWAP1 POP SWAP2 SWAP1 POP JUMP JUMPDEST PUSH1 0x0 PUSH2 0x3FAE DUP3 PUSH2 0x3F52 JUMP JUMPDEST PUSH2 0x3FB8 DUP2 DUP6 PUSH2 0x3F5D JUMP JUMPDEST SWAP4 POP PUSH2 0x3FC3 DUP4 PUSH2 0x3F6E JUMP JUMPDEST DUP1 PUSH1 0x0 JUMPDEST DUP4 DUP2 LT ISZERO PUSH2 0x3FF4 JUMPI DUP2 MLOAD PUSH2 0x3FDB DUP9 DUP3 PUSH2 0x3F7E JUMP JUMPDEST SWAP8 POP PUSH2 0x3FE6 DUP4 PUSH2 0x3F96 JUMP JUMPDEST SWAP3 POP POP PUSH1 0x1 DUP2 ADD SWAP1 POP PUSH2 0x3FC7 JUMP JUMPDEST POP DUP6 SWAP4 POP POP POP POP SWAP3 SWAP2 POP POP JUMP JUMPDEST PUSH1 0x0 PUSH1 0x80 DUP3 ADD SWAP1 POP DUP2 DUP2 SUB PUSH1 0x0 DUP4 ADD MSTORE PUSH2 0x401B DUP2 DUP8 PUSH2 0x3A10 JUMP JUMPDEST SWAP1 POP DUP2 DUP2 SUB PUSH1 0x20 DUP4 ADD MSTORE PUSH2 0x402F DUP2 DUP7 PUSH2 0x3A10 JUMP JUMPDEST SWAP1 POP PUSH2 0x403E PUSH1 0x40 DUP4 ADD DUP6 PUSH2 0x3A49 JUMP JUMPDEST DUP2 DUP2 SUB PUSH1 0x60 DUP4 ADD MSTORE PUSH2 0x4050 DUP2 DUP5 PUSH2 0x3FA3 JUMP JUMPDEST SWAP1 POP SWAP6 SWAP5 POP POP POP POP POP JUMP JUMPDEST PUSH1 0x0 PUSH8 0xFFFFFFFFFFFFFFFF DUP3 GT ISZERO PUSH2 0x4076 JUMPI PUSH2 0x4075 PUSH2 0x3C07 JUMP JUMPDEST JUMPDEST PUSH1 0x20 DUP3 MUL SWAP1 POP PUSH1 0x20 DUP2 ADD SWAP1 POP SWAP2 SWAP1 POP JUMP JUMPDEST PUSH1 0x0 DUP1 REVERT JUMPDEST PUSH1 0x0 PUSH2 0x409F PUSH2 0x409A DUP5 PUSH2 0x405B JUMP JUMPDEST PUSH2 0x3C67 JUMP JUMPDEST SWAP1 POP DUP1 DUP4 DUP3 MSTORE PUSH1 0x20 DUP3 ADD SWAP1 POP PUSH1 0x20 DUP5 MUL DUP4 ADD DUP6 DUP2 GT ISZERO PUSH2 0x40C2 JUMPI PUSH2 0x40C1 PUSH2 0x4087 JUMP JUMPDEST JUMPDEST DUP4 JUMPDEST DUP2 DUP2 LT ISZERO PUSH2 0x4109 JUMPI DUP1 CALLDATALOAD PUSH8 0xFFFFFFFFFFFFFFFF DUP2 GT ISZERO PUSH2 0x40E7 JUMPI PUSH2 0x40E6 PUSH2 0x3BFD JUMP JUMPDEST JUMPDEST DUP1 DUP7 ADD PUSH2 0x40F4 DUP10 DUP3 PUSH2 0x3D04 JUMP JUMPDEST DUP6 MSTORE PUSH1 0x20 DUP6 ADD SWAP5 POP POP POP PUSH1 0x20 DUP2 ADD SWAP1 POP PUSH2 0x40C4 JUMP JUMPDEST POP POP POP SWAP4 SWAP3 POP POP POP JUMP JUMPDEST PUSH1 0x0 DUP3 PUSH1 0x1F DUP4 ADD SLT PUSH2 0x4128 JUMPI PUSH2 0x4127 PUSH2 0x3BFD JUMP JUMPDEST JUMPDEST DUP2 CALLDATALOAD PUSH2 0x4138 DUP5 DUP3 PUSH1 0x20 DUP7 ADD PUSH2 0x408C JUMP JUMPDEST SWAP2 POP POP SWAP3 SWAP2 POP POP JUMP JUMPDEST PUSH1 0x0 PUSH1 0x20 DUP3 DUP5 SUB SLT ISZERO PUSH2 0x4157 JUMPI PUSH2 0x4156 PUSH2 0x37FF JUMP JUMPDEST JUMPDEST PUSH1 0x0 DUP3 ADD CALLDATALOAD PUSH8 0xFFFFFFFFFFFFFFFF DUP2 GT ISZERO PUSH2 0x4175 JUMPI PUSH2 0x4174 PUSH2 0x3804 JUMP JUMPDEST JUMPDEST PUSH2 0x4181 DUP5 DUP3 DUP6 ADD PUSH2 0x4113 JUMP JUMPDEST SWAP2 POP POP SWAP3 SWAP2 POP POP JUMP JUMPDEST PUSH1 0x0 PUSH1 0x20 DUP3 ADD SWAP1 POP DUP2 DUP2 SUB PUSH1 0x0 DUP4 ADD MSTORE PUSH2 0x41A4 DUP2 DUP5 PUSH2 0x3FA3 JUMP JUMPDEST SWAP1 POP SWAP3 SWAP2 POP POP JUMP JUMPDEST PUSH1 0x0 PUSH1 0x40 DUP3 ADD SWAP1 POP DUP2 DUP2 SUB PUSH1 0x0 DUP4 ADD MSTORE PUSH2 0x41C6 DUP2 DUP6 PUSH2 0x3FA3 JUMP JUMPDEST SWAP1 POP DUP2 DUP2 SUB PUSH1 0x20 DUP4 ADD MSTORE PUSH2 0x41DA DUP2 DUP5 PUSH2 0x398A JUMP JUMPDEST SWAP1 POP SWAP4 SWAP3 POP POP POP JUMP JUMPDEST PUSH1 0x0 DUP2 MLOAD SWAP1 POP SWAP2 SWAP1 POP JUMP JUMPDEST PUSH1 0x0 DUP3 DUP3 MSTORE PUSH1 0x20 DUP3 ADD SWAP1 POP SWAP3 SWAP2 POP POP JUMP JUMPDEST PUSH1 0x0 DUP2 SWAP1 POP PUSH1 0x20 DUP3 ADD SWAP1 POP SWAP2 SWAP1 POP JUMP JUMPDEST PUSH1 0x0 DUP2 MLOAD SWAP1 POP SWAP2 SWAP1 POP JUMP JUMPDEST PUSH1 0x0 DUP3 DUP3 MSTORE PUSH1 0x20 DUP3 ADD SWAP1 POP SWAP3 SWAP2 POP POP JUMP JUMPDEST PUSH1 0x0 DUP2 SWAP1 POP PUSH1 0x20 DUP3 ADD SWAP1 POP SWAP2 SWAP1 POP JUMP JUMPDEST PUSH1 0x0 DUP3 DUP3 MSTORE PUSH1 0x20 DUP3 ADD SWAP1 POP SWAP3 SWAP2 POP POP JUMP JUMPDEST PUSH1 0x0 PUSH2 0x4257 DUP3 PUSH2 0x38AD JUMP JUMPDEST PUSH2 0x4261 DUP2 DUP6 PUSH2 0x423B JUMP JUMPDEST SWAP4 POP DUP4 PUSH1 0x20 DUP3 MUL DUP6 ADD PUSH2 0x4273 DUP6 PUSH2 0x38C9 JUMP JUMPDEST DUP1 PUSH1 0x0 JUMPDEST DUP6 DUP2 LT ISZERO PUSH2 0x42AF JUMPI DUP5 DUP5 SUB DUP10 MSTORE DUP2 MLOAD PUSH2 0x4290 DUP6 DUP3 PUSH2 0x3969 JUMP JUMPDEST SWAP5 POP PUSH2 0x429B DUP4 PUSH2 0x397D JUMP JUMPDEST SWAP3 POP PUSH1 0x20 DUP11 ADD SWAP10 POP POP PUSH1 0x1 DUP2 ADD SWAP1 POP PUSH2 0x4277 JUMP JUMPDEST POP DUP3 SWAP8 POP DUP8 SWAP6 POP POP POP POP POP POP SWAP3 SWAP2 POP POP JUMP JUMPDEST PUSH1 0x0 PUSH1 0x60 DUP4 ADD PUSH1 0x0 DUP4 ADD MLOAD PUSH2 0x42D9 PUSH1 0x0 DUP7 ADD DUP3 PUSH2 0x3E2F JUMP JUMPDEST POP PUSH1 0x20 DUP4 ADD MLOAD DUP5 DUP3 SUB PUSH1 0x20 DUP7 ADD MSTORE PUSH2 0x42F1 DUP3 DUP3 PUSH2 0x3930 JUMP JUMPDEST SWAP2 POP POP PUSH1 0x40 DUP4 ADD MLOAD DUP5 DUP3 SUB PUSH1 0x40 DUP7 ADD MSTORE PUSH2 0x430B DUP3 DUP3 PUSH2 0x424C JUMP JUMPDEST SWAP2 POP POP DUP1 SWAP2 POP POP SWAP3 SWAP2 POP POP JUMP JUMPDEST PUSH1 0x0 PUSH2 0x4324 DUP4 DUP4 PUSH2 0x42C1 JUMP JUMPDEST SWAP1 POP SWAP3 SWAP2 POP POP JUMP JUMPDEST PUSH1 0x0 PUSH1 0x20 DUP3 ADD SWAP1 POP SWAP2 SWAP1 POP JUMP JUMPDEST PUSH1 0x0 PUSH2 0x4344 DUP3 PUSH2 0x420F JUMP JUMPDEST PUSH2 0x434E DUP2 DUP6 PUSH2 0x421A JUMP JUMPDEST SWAP4 POP DUP4 PUSH1 0x20 DUP3 MUL DUP6 ADD PUSH2 0x4360 DUP6 PUSH2 0x422B JUMP JUMPDEST DUP1 PUSH1 0x0 JUMPDEST DUP6 DUP2 LT ISZERO PUSH2 0x439C JUMPI DUP5 DUP5 SUB DUP10 MSTORE DUP2 MLOAD PUSH2 0x437D DUP6 DUP3 PUSH2 0x4318 JUMP JUMPDEST SWAP5 POP PUSH2 0x4388 DUP4 PUSH2 0x432C JUMP JUMPDEST SWAP3 POP PUSH1 0x20 DUP11 ADD SWAP10 POP POP PUSH1 0x1 DUP2 ADD SWAP1 POP PUSH2 0x4364 JUMP JUMPDEST POP DUP3 SWAP8 POP DUP8 SWAP6 POP POP POP POP POP POP SWAP3 SWAP2 POP POP JUMP JUMPDEST PUSH1 0x0 PUSH1 0x80 DUP4 ADD PUSH1 0x0 DUP4 ADD MLOAD PUSH2 0x43C6 PUSH1 0x0 DUP7 ADD DUP3 PUSH2 0x3E2F JUMP JUMPDEST POP PUSH1 0x20 DUP4 ADD MLOAD DUP5 DUP3 SUB PUSH1 0x20 DUP7 ADD MSTORE PUSH2 0x43DE DUP3 DUP3 PUSH2 0x3930 JUMP JUMPDEST SWAP2 POP POP PUSH1 0x40 DUP4 ADD MLOAD DUP5 DUP3 SUB PUSH1 0x40 DUP7 ADD MSTORE PUSH2 0x43F8 DUP3 DUP3 PUSH2 0x3930 JUMP JUMPDEST SWAP2 POP POP PUSH1 0x60 DUP4 ADD MLOAD DUP5 DUP3 SUB PUSH1 0x60 DUP7 ADD MSTORE PUSH2 0x4412 DUP3 DUP3 PUSH2 0x4339 JUMP JUMPDEST SWAP2 POP POP DUP1 SWAP2 POP POP SWAP3 SWAP2 POP POP JUMP JUMPDEST PUSH1 0x0 PUSH2 0x442B DUP4 DUP4 PUSH2 0x43AE JUMP JUMPDEST SWAP1 POP SWAP3 SWAP2 POP POP JUMP JUMPDEST PUSH1 0x0 PUSH1 0x20 DUP3 ADD SWAP1 POP SWAP2 SWAP1 POP JUMP JUMPDEST PUSH1 0x0 PUSH2 0x444B DUP3 PUSH2 0x41E3 JUMP JUMPDEST PUSH2 0x4455 DUP2 DUP6 PUSH2 0x41EE JUMP JUMPDEST SWAP4 POP DUP4 PUSH1 0x20 DUP3 MUL DUP6 ADD PUSH2 0x4467 DUP6 PUSH2 0x41FF JUMP JUMPDEST DUP1 PUSH1 0x0 JUMPDEST DUP6 DUP2 LT ISZERO PUSH2 0x44A3 JUMPI DUP5 DUP5 SUB DUP10 MSTORE DUP2 MLOAD PUSH2 0x4484 DUP6 DUP3 PUSH2 0x441F JUMP JUMPDEST SWAP5 POP PUSH2 0x448F DUP4 PUSH2 0x4433 JUMP JUMPDEST SWAP3 POP PUSH1 0x20 DUP11 ADD SWAP10 POP POP PUSH1 0x1 DUP2 ADD SWAP1 POP PUSH2 0x446B JUMP JUMPDEST POP DUP3 SWAP8 POP DUP8 SWAP6 POP POP POP POP POP POP SWAP3 SWAP2 POP POP JUMP JUMPDEST PUSH1 0x0 PUSH1 0x20 DUP3 ADD SWAP1 POP DUP2 DUP2 SUB PUSH1 0x0 DUP4 ADD MSTORE PUSH2 0x44CF DUP2 DUP5 PUSH2 0x4440 JUMP JUMPDEST SWAP1 POP SWAP3 SWAP2 POP POP JUMP JUMPDEST PUSH1 0x0 DUP2 MLOAD SWAP1 POP SWAP2 SWAP1 POP JUMP JUMPDEST PUSH1 0x0 DUP3 DUP3 MSTORE PUSH1 0x20 DUP3 ADD SWAP1 POP SWAP3 SWAP2 POP POP JUMP JUMPDEST PUSH1 0x0 DUP2 SWAP1 POP PUSH1 0x20 DUP3 ADD SWAP1 POP SWAP2 SWAP1 POP JUMP JUMPDEST PUSH1 0x0 PUSH2 0x450F DUP4 DUP4 PUSH2 0x3E20 JUMP JUMPDEST PUSH1 0x20 DUP4 ADD SWAP1 POP SWAP3 SWAP2 POP POP JUMP JUMPDEST PUSH1 0x0 PUSH1 0x20 DUP3 ADD SWAP1 POP SWAP2 SWAP1 POP JUMP JUMPDEST PUSH1 0x0 PUSH2 0x4533 DUP3 PUSH2 0x44D7 JUMP JUMPDEST PUSH2 0x453D DUP2 DUP6 PUSH2 0x44E2 JUMP JUMPDEST SWAP4 POP PUSH2 0x4548 DUP4 PUSH2 0x44F3 JUMP JUMPDEST DUP1 PUSH1 0x0 JUMPDEST DUP4 DUP2 LT ISZERO PUSH2 0x4579 JUMPI DUP2 MLOAD PUSH2 0x4560 DUP9 DUP3 PUSH2 0x4503 JUMP JUMPDEST SWAP8 POP PUSH2 0x456B DUP4 PUSH2 0x451B JUMP JUMPDEST SWAP3 POP POP PUSH1 0x1 DUP2 ADD SWAP1 POP PUSH2 0x454C JUMP JUMPDEST POP DUP6 SWAP4 POP POP POP POP SWAP3 SWAP2 POP POP JUMP JUMPDEST PUSH1 0x0 PUSH1 0x20 DUP3 ADD SWAP1 POP DUP2 DUP2 SUB PUSH1 0x0 DUP4 ADD MSTORE PUSH2 0x45A0 DUP2 DUP5 PUSH2 0x4528 JUMP JUMPDEST SWAP1 POP SWAP3 SWAP2 POP POP JUMP JUMPDEST PUSH1 0x0 PUSH1 0xE0 DUP3 ADD SWAP1 POP PUSH2 0x45BD PUSH1 0x0 DUP4 ADD DUP11 PUSH2 0x389E JUMP JUMPDEST DUP2 DUP2 SUB PUSH1 0x20 DUP4 ADD MSTORE PUSH2 0x45CF DUP2 DUP10 PUSH2 0x3A10 JUMP JUMPDEST SWAP1 POP PUSH2 0x45DE PUSH1 0x40 DUP4 ADD DUP9 PUSH2 0x3A49 JUMP JUMPDEST PUSH2 0x45EB PUSH1 0x60 DUP4 ADD DUP8 PUSH2 0x3A49 JUMP JUMPDEST PUSH2 0x45F8 PUSH1 0x80 DUP4 ADD DUP7 PUSH2 0x3A49 JUMP JUMPDEST PUSH2 0x4605 PUSH1 0xA0 DUP4 ADD DUP6 PUSH2 0x3A49 JUMP JUMPDEST PUSH2 0x4612 PUSH1 0xC0 DUP4 ADD DUP5 PUSH2 0x3A49 JUMP JUMPDEST SWAP9 SWAP8 POP POP POP POP POP POP POP POP JUMP JUMPDEST PUSH1 0x0 PUSH1 0x20 DUP3 ADD SWAP1 POP PUSH2 0x4633 PUSH1 0x0 DUP4 ADD DUP5 PUSH2 0x389E JUMP JUMPDEST SWAP3 SWAP2 POP POP JUMP JUMPDEST PUSH2 0x4642 DUP2 PUSH2 0x3BC7 JUMP JUMPDEST DUP2 EQ PUSH2 0x464D JUMPI PUSH1 0x0 DUP1 REVERT JUMPDEST POP JUMP JUMPDEST PUSH1 0x0 DUP2 CALLDATALOAD SWAP1 POP PUSH2 0x465F DUP2 PUSH2 0x4639 JUMP JUMPDEST SWAP3 SWAP2 POP POP JUMP JUMPDEST PUSH1 0x0 DUP1 PUSH1 0x40 DUP4 DUP6 SUB SLT ISZERO PUSH2 0x467C JUMPI PUSH2 0x467B PUSH2 0x37FF JUMP JUMPDEST JUMPDEST PUSH1 0x0 PUSH2 0x468A DUP6 DUP3 DUP7 ADD PUSH2 0x382A JUMP JUMPDEST SWAP3 POP POP PUSH1 0x20 PUSH2 0x469B DUP6 DUP3 DUP7 ADD PUSH2 0x4650 JUMP JUMPDEST SWAP2 POP POP SWAP3 POP SWAP3 SWAP1 POP JUMP JUMPDEST PUSH1 0x0 PUSH1 0x80 DUP3 ADD SWAP1 POP DUP2 DUP2 SUB PUSH1 0x0 DUP4 ADD MSTORE PUSH2 0x46BF DUP2 DUP8 PUSH2 0x3A10 JUMP JUMPDEST SWAP1 POP DUP2 DUP2 SUB PUSH1 0x20 DUP4 ADD MSTORE PUSH2 0x46D3 DUP2 DUP7 PUSH2 0x3A10 JUMP JUMPDEST SWAP1 POP PUSH2 0x46E2 PUSH1 0x40 DUP4 ADD DUP6 PUSH2 0x3A49 JUMP JUMPDEST DUP2 DUP2 SUB PUSH1 0x60 DUP4 ADD MSTORE PUSH2 0x46F4 DUP2 DUP5 PUSH2 0x3A10 JUMP JUMPDEST SWAP1 POP SWAP6 SWAP5 POP POP POP POP POP JUMP JUMPDEST PUSH32 0x5461736B20646F6573206E6F7420657869737400000000000000000000000000 PUSH1 0x0 DUP3 ADD MSTORE POP JUMP JUMPDEST PUSH1 0x0 PUSH2 0x4735 PUSH1 0x13 DUP4 PUSH2 0x39FF JUMP JUMPDEST SWAP2 POP PUSH2 0x4740 DUP3 PUSH2 0x46FF JUMP JUMPDEST PUSH1 0x20 DUP3 ADD SWAP1 POP SWAP2 SWAP1 POP JUMP JUMPDEST PUSH1 0x0 PUSH1 0x20 DUP3 ADD SWAP1 POP DUP2 DUP2 SUB PUSH1 0x0 DUP4 ADD MSTORE PUSH2 0x4764 DUP2 PUSH2 0x4728 JUMP JUMPDEST SWAP1 POP SWAP2 SWAP1 POP JUMP JUMPDEST PUSH32 0x4E487B7100000000000000000000000000000000000000000000000000000000 PUSH1 0x0 MSTORE PUSH1 0x22 PUSH1 0x4 MSTORE PUSH1 0x24 PUSH1 0x0 REVERT JUMPDEST PUSH1 0x0 PUSH1 0x2 DUP3 DIV SWAP1 POP PUSH1 0x1 DUP3 AND DUP1 PUSH2 0x47B2 JUMPI PUSH1 0x7F DUP3 AND SWAP2 POP JUMPDEST PUSH1 0x20 DUP3 LT DUP2 SUB PUSH2 0x47C5 JUMPI PUSH2 0x47C4 PUSH2 0x476B JUMP JUMPDEST JUMPDEST POP SWAP2 SWAP1 POP JUMP JUMPDEST PUSH1 0x0 DUP2 SWAP1 POP SWAP3 SWAP2 POP POP JUMP JUMPDEST PUSH1 0x0 DUP2 SWAP1 POP DUP2 PUSH1 0x0 MSTORE PUSH1 0x20 PUSH1 0x0 KECCAK256 SWAP1 POP SWAP2 SWAP1 POP JUMP JUMPDEST PUSH1 0x0 DUP2 SLOAD PUSH2 0x47F8 DUP2 PUSH2 0x479A JUMP JUMPDEST PUSH2 0x4802 DUP2 DUP7 PUSH2 0x47CB JUMP JUMPDEST SWAP5 POP PUSH1 0x1 DUP3 AND PUSH1 0x0 DUP2 EQ PUSH2 0x481D JUMPI PUSH1 0x1 DUP2 EQ PUSH2 0x4832 JUMPI PUSH2 0x4865 JUMP JUMPDEST PUSH1 0xFF NOT DUP4 AND DUP7 MSTORE DUP2 ISZERO ISZERO DUP3 MUL DUP7 ADD SWAP4 POP PUSH2 0x4865 JUMP JUMPDEST PUSH2 0x483B DUP6 PUSH2 0x47D6 JUMP JUMPDEST PUSH1 0x0 JUMPDEST DUP4 DUP2 LT ISZERO PUSH2 0x485D JUMPI DUP2 SLOAD DUP2 DUP10 ADD MSTORE PUSH1 0x1 DUP3 ADD SWAP2 POP PUSH1 0x20 DUP2 ADD SWAP1 POP PUSH2 0x483E JUMP JUMPDEST DUP4 DUP9 ADD SWAP6 POP POP POP JUMPDEST POP POP POP SWAP3 SWAP2 POP POP JUMP JUMPDEST PUSH1 0x0 PUSH2 0x487A DUP3 DUP5 PUSH2 0x47EB JUMP JUMPDEST SWAP2 POP DUP2 SWAP1 POP SWAP3 SWAP2 POP POP JUMP JUMPDEST PUSH32 0x5461736B20616C7265616479207265736F6C7665640000000000000000000000 PUSH1 0x0 DUP3 ADD MSTORE POP JUMP JUMPDEST PUSH1 0x0 PUSH2 0x48BB PUSH1 0x15 DUP4 PUSH2 0x39FF JUMP JUMPDEST SWAP2 POP PUSH2 0x48C6 DUP3 PUSH2 0x4885 JUMP JUMPDEST PUSH1 0x20 DUP3 ADD SWAP1 POP SWAP2 SWAP1 POP JUMP JUMPDEST PUSH1 0x0 PUSH1 0x20 DUP3 ADD SWAP1 POP DUP2 DUP2 SUB PUSH1 0x0 DUP4 ADD MSTORE PUSH2 0x48EA DUP2 PUSH2 0x48AE JUMP JUMPDEST SWAP1 POP SWAP2 SWAP1 POP JUMP JUMPDEST PUSH32 0x4E487B7100000000000000000000000000000000000000000000000000000000 PUSH1 0x0 MSTORE PUSH1 0x11 PUSH1 0x4 MSTORE PUSH1 0x24 PUSH1 0x0 REVERT JUMPDEST PUSH1 0x0 PUSH2 0x492B DUP3 PUSH2 0x3809 JUMP JUMPDEST SWAP2 POP PUSH2 0x4936 DUP4 PUSH2 0x3809 JUMP JUMPDEST SWAP3 POP DUP3 DUP3 ADD SWAP1 POP DUP1 DUP3 GT ISZERO PUSH2 0x494E JUMPI PUSH2 0x494D PUSH2 0x48F1 JUMP JUMPDEST JUMPDEST SWAP3 SWAP2 POP POP JUMP JUMPDEST PUSH32 0x566F74696E6720706572696F64206E6F7420656E646564000000000000000000 PUSH1 0x0 DUP3 ADD MSTORE POP JUMP JUMPDEST PUSH1 0x0 PUSH2 0x498A PUSH1 0x17 DUP4 PUSH2 0x39FF JUMP JUMPDEST SWAP2 POP PUSH2 0x4995 DUP3 PUSH2 0x4954 JUMP JUMPDEST PUSH1 0x20 DUP3 ADD SWAP1 POP SWAP2 SWAP1 POP JUMP JUMPDEST PUSH1 0x0 PUSH1 0x20 DUP3 ADD SWAP1 POP DUP2 DUP2 SUB PUSH1 0x0 DUP4 ADD MSTORE PUSH2 0x49B9 DUP2 PUSH2 0x497D JUMP JUMPDEST SWAP1 POP SWAP2 SWAP1 POP JUMP JUMPDEST PUSH1 0x0 PUSH2 0x49CB DUP3 PUSH2 0x3809 JUMP JUMPDEST SWAP2 POP PUSH2 0x49D6 DUP4 PUSH2 0x3809 JUMP JUMPDEST SWAP3 POP DUP3 DUP3 MUL PUSH2 0x49E4 DUP2 PUSH2 0x3809 JUMP JUMPDEST SWAP2 POP DUP3 DUP3 DIV DUP5 EQ DUP4 ISZERO OR PUSH2 0x49FB JUMPI PUSH2 0x49FA PUSH2 0x48F1 JUMP JUMPDEST JUMPDEST POP SWAP3 SWAP2 POP POP JUMP JUMPDEST PUSH32 0x4E487B7100000000000000000000000000000000000000000000000000000000 PUSH1 0x0 MSTORE PUSH1 0x12 PUSH1 0x4 MSTORE PUSH1 0x24 PUSH1 0x0 REVERT JUMPDEST PUSH1 0x0 PUSH2 0x4A3C DUP3 PUSH2 0x3809 JUMP JUMPDEST SWAP2 POP PUSH2 0x4A47 DUP4 PUSH2 0x3809 JUMP JUMPDEST SWAP3 POP DUP3 PUSH2 0x4A57 JUMPI PUSH2 0x4A56 PUSH2 0x4A02 JUMP JUMPDEST JUMPDEST DUP3 DUP3 DIV SWAP1 POP SWAP3 SWAP2 POP POP JUMP JUMPDEST PUSH1 0x0 PUSH2 0x4A6D DUP3 PUSH2 0x3809 JUMP JUMPDEST SWAP2 POP PUSH2 0x4A78 DUP4 PUSH2 0x3809 JUMP JUMPDEST SWAP3 POP DUP3 DUP3 SUB SWAP1 POP DUP2 DUP2 GT ISZERO PUSH2 0x4A90 JUMPI PUSH2 0x4A8F PUSH2 0x48F1 JUMP JUMPDEST JUMPDEST SWAP3 SWAP2 POP POP JUMP JUMPDEST PUSH1 0x0 DUP2 SWAP1 POP DUP2 PUSH1 0x0 MSTORE PUSH1 0x20 PUSH1 0x0 KECCAK256 SWAP1 POP SWAP2 SWAP1 POP JUMP JUMPDEST PUSH1 0x0 PUSH1 0x20 PUSH1 0x1F DUP4 ADD DIV SWAP1 POP SWAP2 SWAP1 POP JUMP JUMPDEST PUSH1 0x0 DUP3 DUP3 SHL SWAP1 POP SWAP3 SWAP2 POP POP JUMP JUMPDEST PUSH1 0x0 PUSH1 0x8 DUP4 MUL PUSH2 0x4AF8 PUSH32 0xFFFFFFFFFFFFFFFFFFFFFFFFFFFFFFFFFFFFFFFFFFFFFFFFFFFFFFFFFFFFFFFF DUP3 PUSH2 0x4ABB JUMP JUMPDEST PUSH2 0x4B02 DUP7 DUP4 PUSH2 0x4ABB JUMP JUMPDEST SWAP6 POP DUP1 NOT DUP5 AND SWAP4 POP DUP1 DUP7 AND DUP5 OR SWAP3 POP POP POP SWAP4 SWAP3 POP POP POP JUMP JUMPDEST PUSH1 0x0 DUP2 SWAP1 POP SWAP2 SWAP1 POP JUMP JUMPDEST PUSH1 0x0 PUSH2 0x4B3F PUSH2 0x4B3A PUSH2 0x4B35 DUP5 PUSH2 0x3809 JUMP JUMPDEST PUSH2 0x4B1A JUMP JUMPDEST PUSH2 0x3809 JUMP JUMPDEST SWAP1 POP SWAP2 SWAP1 POP JUMP JUMPDEST PUSH1 0x0 DUP2 SWAP1 POP SWAP2 SWAP1 POP JUMP JUMPDEST PUSH2 0x4B59 DUP4 PUSH2 0x4B24 JUMP JUMPDEST PUSH2 0x4B6D PUSH2 0x4B65 DUP3 PUSH2 0x4B46 JUMP JUMPDEST DUP5 DUP5 SLOAD PUSH2 0x4AC8 JUMP JUMPDEST DUP3 SSTORE POP POP POP POP JUMP JUMPDEST PUSH1 0x0 SWAP1 JUMP JUMPDEST PUSH2 0x4B82 PUSH2 0x4B75 JUMP JUMPDEST PUSH2 0x4B8D DUP2 DUP5 DUP5 PUSH2 0x4B50 JUMP JUMPDEST POP POP POP JUMP JUMPDEST JUMPDEST DUP2 DUP2 LT ISZERO PUSH2 0x4BB1 JUMPI PUSH2 0x4BA6 PUSH1 0x0 DUP3 PUSH2 0x4B7A JUMP JUMPDEST PUSH1 0x1 DUP2 ADD SWAP1 POP PUSH2 0x4B93 JUMP JUMPDEST POP POP JUMP JUMPDEST PUSH1 0x1F DUP3 GT ISZERO PUSH2 0x4BF6 JUMPI PUSH2 0x4BC7 DUP2 PUSH2 0x4A96 JUMP JUMPDEST PUSH2 0x4BD0 DUP5 PUSH2 0x4AAB JUMP JUMPDEST DUP2 ADD PUSH1 0x20 DUP6 LT ISZERO PUSH2 0x4BDF JUMPI DUP2 SWAP1 POP JUMPDEST PUSH2 0x4BF3 PUSH2 0x4BEB DUP6 PUSH2 0x4AAB JUMP JUMPDEST DUP4 ADD DUP3 PUSH2 0x4B92 JUMP JUMPDEST POP POP JUMPDEST POP POP POP JUMP JUMPDEST PUSH1 0x0 DUP3 DUP3 SHR SWAP1 POP SWAP3 SWAP2 POP POP JUMP JUMPDEST PUSH1 0x0 PUSH2 0x4C19 PUSH1 0x0 NOT DUP5 PUSH1 0x8 MUL PUSH2 0x4BFB JUMP JUMPDEST NOT DUP1 DUP4 AND SWAP2 POP POP SWAP3 SWAP2 POP POP JUMP JUMPDEST PUSH1 0x0 PUSH2 0x4C32 DUP4 DUP4 PUSH2 0x4C08 JUMP JUMPDEST SWAP2 POP DUP3 PUSH1 0x2 MUL DUP3 OR SWAP1 POP SWAP3 SWAP2 POP POP JUMP JUMPDEST PUSH2 0x4C4B DUP3 PUSH2 0x38D9 JUMP JUMPDEST PUSH8 0xFFFFFFFFFFFFFFFF DUP2 GT ISZERO PUSH2 0x4C64 JUMPI PUSH2 0x4C63 PUSH2 0x3C07 JUMP JUMPDEST JUMPDEST PUSH2 0x4C6E DUP3 SLOAD PUSH2 0x479A JUMP JUMPDEST PUSH2 0x4C79 DUP3 DUP3 DUP6 PUSH2 0x4BB5 JUMP JUMPDEST PUSH1 0x0 PUSH1 0x20 SWAP1 POP PUSH1 0x1F DUP4 GT PUSH1 0x1 DUP2 EQ PUSH2 0x4CAC JUMPI PUSH1 0x0 DUP5 ISZERO PUSH2 0x4C9A JUMPI DUP3 DUP8 ADD MLOAD SWAP1 POP JUMPDEST PUSH2 0x4CA4 DUP6 DUP3 PUSH2 0x4C26 JUMP JUMPDEST DUP7 SSTORE POP PUSH2 0x4D0C JUMP JUMPDEST PUSH1 0x1F NOT DUP5 AND PUSH2 0x4CBA DUP7 PUSH2 0x4A96 JUMP JUMPDEST PUSH1 0x0 JUMPDEST DUP3 DUP2 LT ISZERO PUSH2 0x4CE2 JUMPI DUP5 DUP10 ADD MLOAD DUP3 SSTORE PUSH1 0x1 DUP3 ADD SWAP2 POP PUSH1 0x20 DUP6 ADD SWAP5 POP PUSH1 0x20 DUP2 ADD SWAP1 POP PUSH2 0x4CBD JUMP JUMPDEST DUP7 DUP4 LT ISZERO PUSH2 0x4CFF JUMPI DUP5 DUP10 ADD MLOAD PUSH2 0x4CFB PUSH1 0x1F DUP10 AND DUP3 PUSH2 0x4C08 JUMP JUMPDEST DUP4 SSTORE POP JUMPDEST PUSH1 0x1 PUSH1 0x2 DUP9 MUL ADD DUP9 SSTORE POP POP POP JUMPDEST POP POP POP POP POP POP JUMP JUMPDEST POP JUMP JUMPDEST PUSH1 0x0 PUSH2 0x4D24 PUSH1 0x0 DUP4 PUSH2 0x47CB JUMP JUMPDEST SWAP2 POP PUSH2 0x4D2F DUP3 PUSH2 0x4D14 JUMP JUMPDEST PUSH1 0x0 DUP3 ADD SWAP1 POP SWAP2 SWAP1 POP JUMP JUMPDEST PUSH1 0x0 PUSH2 0x4D45 DUP3 PUSH2 0x4D17 JUMP JUMPDEST SWAP2 POP DUP2 SWAP1 POP SWAP2 SWAP1 POP JUMP JUMPDEST PUSH32 0x4661696C656420746F2073656E642066756E647320746F204E474F0000000000 PUSH1 0x0 DUP3 ADD MSTORE POP JUMP JUMPDEST PUSH1 0x0 PUSH2 0x4D85 PUSH1 0x1B DUP4 PUSH2 0x39FF JUMP JUMPDEST SWAP2 POP PUSH2 0x4D90 DUP3 PUSH2 0x4D4F JUMP JUMPDEST PUSH1 0x20 DUP3 ADD SWAP1 POP SWAP2 SWAP1 POP JUMP JUMPDEST PUSH1 0x0 PUSH1 0x20 DUP3 ADD SWAP1 POP DUP2 DUP2 SUB PUSH1 0x0 DUP4 ADD MSTORE PUSH2 0x4DB4 DUP2 PUSH2 0x4D78 JUMP JUMPDEST SWAP1 POP SWAP2 SWAP1 POP JUMP JUMPDEST PUSH32 0x4E487B7100000000000000000000000000000000000000000000000000000000 PUSH1 0x0 MSTORE PUSH1 0x32 PUSH1 0x4 MSTORE PUSH1 0x24 PUSH1 0x0 REVERT JUMPDEST PUSH32 0x526566756E64206661696C656400000000000000000000000000000000000000 PUSH1 0x0 DUP3 ADD MSTORE POP JUMP JUMPDEST PUSH1 0x0 PUSH2 0x4E20 PUSH1 0xD DUP4 PUSH2 0x39FF JUMP JUMPDEST SWAP2 POP PUSH2 0x4E2B DUP3 PUSH2 0x4DEA JUMP JUMPDEST PUSH1 0x20 DUP3 ADD SWAP1 POP SWAP2 SWAP1 POP JUMP JUMPDEST PUSH1 0x0 PUSH1 0x20 DUP3 ADD SWAP1 POP DUP2 DUP2 SUB PUSH1 0x0 DUP4 ADD MSTORE PUSH2 0x4E4F DUP2 PUSH2 0x4E13 JUMP JUMPDEST SWAP1 POP SWAP2 SWAP1 POP JUMP JUMPDEST PUSH1 0x0 DUP2 SLOAD PUSH2 0x4E63 DUP2 PUSH2 0x479A JUMP JUMPDEST PUSH2 0x4E6D DUP2 DUP7 PUSH2 0x39FF JUMP JUMPDEST SWAP5 POP PUSH1 0x1 DUP3 AND PUSH1 0x0 DUP2 EQ PUSH2 0x4E88 JUMPI PUSH1 0x1 DUP2 EQ PUSH2 0x4E9E JUMPI PUSH2 0x4ED1 JUMP JUMPDEST PUSH1 0xFF NOT DUP4 AND DUP7 MSTORE DUP2 ISZERO ISZERO PUSH1 0x20 MUL DUP7 ADD SWAP4 POP PUSH2 0x4ED1 JUMP JUMPDEST PUSH2 0x4EA7 DUP6 PUSH2 0x4A96 JUMP JUMPDEST PUSH1 0x0 JUMPDEST DUP4 DUP2 LT ISZERO PUSH2 0x4EC9 JUMPI DUP2 SLOAD DUP2 DUP10 ADD MSTORE PUSH1 0x1 DUP3 ADD SWAP2 POP PUSH1 0x20 DUP2 ADD SWAP1 POP PUSH2 0x4EAA JUMP JUMPDEST DUP1 DUP9 ADD SWAP6 POP POP POP JUMPDEST POP POP POP SWAP3 SWAP2 POP POP JUMP JUMPDEST PUSH1 0x0 PUSH1 0x40 DUP3 ADD SWAP1 POP PUSH2 0x4EEF PUSH1 0x0 DUP4 ADD DUP6 PUSH2 0x3A49 JUMP JUMPDEST DUP2 DUP2 SUB PUSH1 0x20 DUP4 ADD MSTORE PUSH2 0x4F01 DUP2 DUP5 PUSH2 0x4E56 JUMP JUMPDEST SWAP1 POP SWAP4 SWAP3 POP POP POP JUMP JUMPDEST PUSH32 0x4D757374207374616B6520455448000000000000000000000000000000000000 PUSH1 0x0 DUP3 ADD MSTORE POP JUMP JUMPDEST PUSH1 0x0 PUSH2 0x4F40 PUSH1 0xE DUP4 PUSH2 0x39FF JUMP JUMPDEST SWAP2 POP PUSH2 0x4F4B DUP3 PUSH2 0x4F0A JUMP JUMPDEST PUSH1 0x20 DUP3 ADD SWAP1 POP SWAP2 SWAP1 POP JUMP JUMPDEST PUSH1 0x0 PUSH1 0x20 DUP3 ADD SWAP1 POP DUP2 DUP2 SUB PUSH1 0x0 DUP4 ADD MSTORE PUSH2 0x4F6F DUP2 PUSH2 0x4F33 JUMP JUMPDEST SWAP1 POP SWAP2 SWAP1 POP JUMP JUMPDEST PUSH32 0x4E474F20616C7265616479207265676973746572656400000000000000000000 PUSH1 0x0 DUP3 ADD MSTORE POP JUMP JUMPDEST PUSH1 0x0 PUSH2 0x4FAC PUSH1 0x16 DUP4 PUSH2 0x39FF JUMP JUMPDEST SWAP2 POP PUSH2 0x4FB7 DUP3 PUSH2 0x4F76 JUMP JUMPDEST PUSH1 0x20 DUP3 ADD SWAP1 POP SWAP2 SWAP1 POP JUMP JUMPDEST PUSH1 0x0 PUSH1 0x20 DUP3 ADD SWAP1 POP DUP2 DUP2 SUB PUSH1 0x0 DUP4 ADD MSTORE PUSH2 0x4FDB DUP2 PUSH2 0x4F9F JUMP JUMPDEST SWAP1 POP SWAP2 SWAP1 POP JUMP JUMPDEST PUSH1 0x0 PUSH1 0x40 DUP3 ADD SWAP1 POP PUSH2 0x4FF7 PUSH1 0x0 DUP4 ADD DUP6 PUSH2 0x389E JUMP JUMPDEST DUP2 DUP2 SUB PUSH1 0x20 DUP4 ADD MSTORE PUSH2 0x5009 DUP2 DUP5 PUSH2 0x3A10 JUMP JUMPDEST SWAP1 POP SWAP4 SWAP3 POP POP POP JUMP JUMPDEST PUSH32 0x4E474F206E6F7420726567697374657265640000000000000000000000000000 PUSH1 0x0 DUP3 ADD MSTORE POP JUMP JUMPDEST PUSH1 0x0 PUSH2 0x5048 PUSH1 0x12 DUP4 PUSH2 0x39FF JUMP JUMPDEST SWAP2 POP PUSH2 0x5053 DUP3 PUSH2 0x5012 JUMP JUMPDEST PUSH1 0x20 DUP3 ADD SWAP1 POP SWAP2 SWAP1 POP JUMP JUMPDEST PUSH1 0x0 PUSH1 0x20 DUP3 ADD SWAP1 POP DUP2 DUP2 SUB PUSH1 0x0 DUP4 ADD MSTORE PUSH2 0x5077 DUP2 PUSH2 0x503B JUMP JUMPDEST SWAP1 POP SWAP2 SWAP1 POP JUMP JUMPDEST PUSH1 0x0 PUSH2 0x5089 DUP3 PUSH2 0x3809 JUMP JUMPDEST SWAP2 POP PUSH32 0xFFFFFFFFFFFFFFFFFFFFFFFFFFFFFFFFFFFFFFFFFFFFFFFFFFFFFFFFFFFFFFFF DUP3 SUB PUSH2 0x50BB JUMPI PUSH2 0x50BA PUSH2 0x48F1 JUMP JUMPDEST JUMPDEST PUSH1 0x1 DUP3 ADD SWAP1 POP SWAP2 SWAP1 POP JUMP JUMPDEST PUSH1 0x0 PUSH1 0x40 DUP3 ADD SWAP1 POP PUSH2 0x50DB PUSH1 0x0 DUP4 ADD DUP6 PUSH2 0x3A49 JUMP JUMPDEST PUSH2 0x50E8 PUSH1 0x20 DUP4 ADD DUP5 PUSH2 0x389E JUMP JUMPDEST SWAP4 SWAP3 POP POP POP JUMP JUMPDEST PUSH1 0x0 DUP2 SWAP1 POP SWAP3 SWAP2 POP POP JUMP JUMPDEST PUSH32 0x5461736B20666F72200000000000000000000000000000000000000000000000 PUSH1 0x0 DUP3 ADD MSTORE POP JUMP JUMPDEST PUSH1 0x0 PUSH2 0x5130 PUSH1 0x9 DUP4 PUSH2 0x50EF JUMP JUMPDEST SWAP2 POP PUSH2 0x513B DUP3 PUSH2 0x50FA JUMP JUMPDEST PUSH1 0x9 DUP3 ADD SWAP1 POP SWAP2 SWAP1 POP JUMP JUMPDEST PUSH1 0x0 DUP2 SLOAD PUSH2 0x5153 DUP2 PUSH2 0x479A JUMP JUMPDEST PUSH2 0x515D DUP2 DUP7 PUSH2 0x50EF JUMP JUMPDEST SWAP5 POP PUSH1 0x1 DUP3 AND PUSH1 0x0 DUP2 EQ PUSH2 0x5178 JUMPI PUSH1 0x1 DUP2 EQ PUSH2 0x518D JUMPI PUSH2 0x51C0 JUMP JUMPDEST PUSH1 0xFF NOT DUP4 AND DUP7 MSTORE DUP2 ISZERO ISZERO DUP3 MUL DUP7 ADD SWAP4 POP PUSH2 0x51C0 JUMP JUMPDEST PUSH2 0x5196 DUP6 PUSH2 0x4A96 JUMP JUMPDEST PUSH1 0x0 JUMPDEST DUP4 DUP2 LT ISZERO PUSH2 0x51B8 JUMPI DUP2 SLOAD DUP2 DUP10 ADD MSTORE PUSH1 0x1 DUP3 ADD SWAP2 POP PUSH1 0x20 DUP2 ADD SWAP1 POP PUSH2 0x5199 JUMP JUMPDEST DUP4 DUP9 ADD SWAP6 POP POP POP JUMPDEST POP POP POP SWAP3 SWAP2 POP POP JUMP JUMPDEST PUSH32 0x20285374617475733A2000000000000000000000000000000000000000000000 PUSH1 0x0 DUP3 ADD MSTORE POP JUMP JUMPDEST PUSH1 0x0 PUSH2 0x51FF PUSH1 0xA DUP4 PUSH2 0x50EF JUMP JUMPDEST SWAP2 POP PUSH2 0x520A DUP3 PUSH2 0x51C9 JUMP JUMPDEST PUSH1 0xA DUP3 ADD SWAP1 POP SWAP2 SWAP1 POP JUMP JUMPDEST PUSH32 0x2900000000000000000000000000000000000000000000000000000000000000 PUSH1 0x0 DUP3 ADD MSTORE POP JUMP JUMPDEST PUSH1 0x0 PUSH2 0x524B PUSH1 0x1 DUP4 PUSH2 0x50EF JUMP JUMPDEST SWAP2 POP PUSH2 0x5256 DUP3 PUSH2 0x5215 JUMP JUMPDEST PUSH1 0x1 DUP3 ADD SWAP1 POP SWAP2 SWAP1 POP JUMP JUMPDEST PUSH1 0x0 PUSH2 0x526C DUP3 PUSH2 0x5123 JUMP JUMPDEST SWAP2 POP PUSH2 0x5278 DUP3 DUP6 PUSH2 0x5146 JUMP JUMPDEST SWAP2 POP PUSH2 0x5283 DUP3 PUSH2 0x51F2 JUMP JUMPDEST SWAP2 POP PUSH2 0x528F DUP3 DUP5 PUSH2 0x5146 JUMP JUMPDEST SWAP2 POP PUSH2 0x529A DUP3 PUSH2 0x523E JUMP JUMPDEST SWAP2 POP DUP2 SWAP1 POP SWAP4 SWAP3 POP POP POP JUMP JUMPDEST PUSH32 0x4E6F7420616E204E474F206F7220616C72656164792077697468647261776E00 PUSH1 0x0 DUP3 ADD MSTORE POP JUMP JUMPDEST PUSH1 0x0 PUSH2 0x52DC PUSH1 0x1F DUP4 PUSH2 0x39FF JUMP JUMPDEST SWAP2 POP PUSH2 0x52E7 DUP3 PUSH2 0x52A6 JUMP JUMPDEST PUSH1 0x20 DUP3 ADD SWAP1 POP SWAP2 SWAP1 POP JUMP JUMPDEST PUSH1 0x0 PUSH1 0x20 DUP3 ADD SWAP1 POP DUP2 DUP2 SUB PUSH1 0x0 DUP4 ADD MSTORE PUSH2 0x530B DUP2 PUSH2 0x52CF JUMP JUMPDEST SWAP1 POP SWAP2 SWAP1 POP JUMP JUMPDEST PUSH32 0x43616E6E6F7420776974686472617720776974682070656E64696E6720746173 PUSH1 0x0 DUP3 ADD MSTORE PUSH32 0x6B73000000000000000000000000000000000000000000000000000000000000 PUSH1 0x20 DUP3 ADD MSTORE POP JUMP JUMPDEST PUSH1 0x0 PUSH2 0x536E PUSH1 0x22 DUP4 PUSH2 0x39FF JUMP JUMPDEST SWAP2 POP PUSH2 0x5379 DUP3 PUSH2 0x5312 JUMP JUMPDEST PUSH1 0x40 DUP3 ADD SWAP1 POP SWAP2 SWAP1 POP JUMP JUMPDEST PUSH1 0x0 PUSH1 0x20 DUP3 ADD SWAP1 POP DUP2 DUP2 SUB PUSH1 0x0 DUP4 ADD MSTORE PUSH2 0x539D DUP2 PUSH2 0x5361 JUMP JUMPDEST SWAP1 POP SWAP2 SWAP1 POP JUMP JUMPDEST PUSH32 0x5769746864726177616C206661696C6564000000000000000000000000000000 PUSH1 0x0 DUP3 ADD MSTORE POP JUMP JUMPDEST PUSH1 0x0 PUSH2 0x53DA PUSH1 0x11 DUP4 PUSH2 0x39FF JUMP JUMPDEST SWAP2 POP PUSH2 0x53E5 DUP3 PUSH2 0x53A4 JUMP JUMPDEST PUSH1 0x20 DUP3 ADD SWAP1 POP SWAP2 SWAP1 POP JUMP JUMPDEST PUSH1 0x0 PUSH1 0x20 DUP3 ADD SWAP1 POP DUP2 DUP2 SUB PUSH1 0x0 DUP4 ADD MSTORE PUSH2 0x5409 DUP2 PUSH2 0x53CD JUMP JUMPDEST SWAP1 POP SWAP2 SWAP1 POP JUMP JUMPDEST PUSH1 0x0 PUSH1 0x40 DUP3 ADD SWAP1 POP PUSH2 0x5425 PUSH1 0x0 DUP4 ADD DUP6 PUSH2 0x389E JUMP JUMPDEST PUSH2 0x5432 PUSH1 0x20 DUP4 ADD DUP5 PUSH2 0x3A49 JUMP JUMPDEST SWAP4 SWAP3 POP POP POP JUMP JUMPDEST PUSH32 0x446964206E6F7420766F7465206F6E207461736B000000000000000000000000 PUSH1 0x0 DUP3 ADD MSTORE POP JUMP JUMPDEST PUSH1 0x0 PUSH2 0x546F PUSH1 0x14 DUP4 PUSH2 0x39FF JUMP JUMPDEST SWAP2 POP PUSH2 0x547A DUP3 PUSH2 0x5439 JUMP JUMPDEST PUSH1 0x20 DUP3 ADD SWAP1 POP SWAP2 SWAP1 POP JUMP JUMPDEST PUSH1 0x0 PUSH1 0x20 DUP3 ADD SWAP1 POP DUP2 DUP2 SUB PUSH1 0x0 DUP4 ADD MSTORE PUSH2 0x549E DUP2 PUSH2 0x5462 JUMP JUMPDEST SWAP1 POP SWAP2 SWAP1 POP JUMP JUMPDEST PUSH32 0x5461736B207374696C6C2070656E64696E670000000000000000000000000000 PUSH1 0x0 DUP3 ADD MSTORE POP JUMP JUMPDEST PUSH1 0x0 PUSH2 0x54DB PUSH1 0x12 DUP4 PUSH2 0x39FF JUMP JUMPDEST SWAP2 POP PUSH2 0x54E6 DUP3 PUSH2 0x54A5 JUMP JUMPDEST PUSH1 0x20 DUP3 ADD SWAP1 POP SWAP2 SWAP1 POP JUMP JUMPDEST PUSH1 0x0 PUSH1 0x20 DUP3 ADD SWAP1 POP DUP2 DUP2 SUB PUSH1 0x0 DUP4 ADD MSTORE PUSH2 0x550A DUP2 PUSH2 0x54CE JUMP JUMPDEST SWAP1 POP SWAP2 SWAP1 POP JUMP JUMPDEST PUSH32 0x52657761726420636C61696D206661696C656400000000000000000000000000 PUSH1 0x0 DUP3 ADD MSTORE POP JUMP JUMPDEST PUSH1 0x0 PUSH2 0x5547 PUSH1 0x13 DUP4 PUSH2 0x39FF JUMP JUMPDEST SWAP2 POP PUSH2 0x5552 DUP3 PUSH2 0x5511 JUMP JUMPDEST PUSH1 0x20 DUP3 ADD SWAP1 POP SWAP2 SWAP1 POP JUMP JUMPDEST PUSH1 0x0 PUSH1 0x20 DUP3 ADD SWAP1 POP DUP2 DUP2 SUB PUSH1 0x0 DUP4 ADD MSTORE PUSH2 0x5576 DUP2 PUSH2 0x553A JUMP JUMPDEST SWAP1 POP SWAP2 SWAP1 POP JUMP JUMPDEST PUSH32 0x4E6F74206120766F746572000000000000000000000000000000000000000000 PUSH1 0x0 DUP3 ADD MSTORE POP JUMP JUMPDEST PUSH1 0x0 PUSH2 0x55B3 PUSH1 0xB DUP4 PUSH2 0x39FF JUMP JUMPDEST SWAP2 POP PUSH2 0x55BE DUP3 PUSH2 0x557D JUMP JUMPDEST PUSH1 0x20 DUP3 ADD SWAP1 POP SWAP2 SWAP1 POP JUMP JUMPDEST PUSH1 0x0 PUSH1 0x20 DUP3 ADD SWAP1 POP DUP2 DUP2 SUB PUSH1 0x0 DUP4 ADD MSTORE PUSH2 0x55E2 DUP2 PUSH2 0x55A6 JUMP JUMPDEST SWAP1 POP SWAP2 SWAP1 POP JUMP JUMPDEST PUSH32 0x416C726561647920766F74656400000000000000000000000000000000000000 PUSH1 0x0 DUP3 ADD MSTORE POP JUMP JUMPDEST PUSH1 0x0 PUSH2 0x561F PUSH1 0xD DUP4 PUSH2 0x39FF JUMP JUMPDEST SWAP2 POP PUSH2 0x562A DUP3 PUSH2 0x55E9 JUMP JUMPDEST PUSH1 0x20 DUP3 ADD SWAP1 POP SWAP2 SWAP1 POP JUMP JUMPDEST PUSH1 0x0 PUSH1 0x20 DUP3 ADD SWAP1 POP DUP2 DUP2 SUB PUSH1 0x0 DUP4 ADD MSTORE PUSH2 0x564E DUP2 PUSH2 0x5612 JUMP JUMPDEST SWAP1 POP SWAP2 SWAP1 POP JUMP JUMPDEST PUSH32 0x5461736B206E6F742070656E64696E6700000000000000000000000000000000 PUSH1 0x0 DUP3 ADD MSTORE POP JUMP JUMPDEST PUSH1 0x0 PUSH2 0x568B PUSH1 0x10 DUP4 PUSH2 0x39FF JUMP JUMPDEST SWAP2 POP PUSH2 0x5696 DUP3 PUSH2 0x5655 JUMP JUMPDEST PUSH1 0x20 DUP3 ADD SWAP1 POP SWAP2 SWAP1 POP JUMP JUMPDEST PUSH1 0x0 PUSH1 0x20 DUP3 ADD SWAP1 POP DUP2 DUP2 SUB PUSH1 0x0 DUP4 ADD MSTORE PUSH2 0x56BA DUP2 PUSH2 0x567E JUMP JUMPDEST SWAP1 POP SWAP2 SWAP1 POP JUMP JUMPDEST PUSH32 0x566F74696E6720706572696F6420656E64656400000000000000000000000000 PUSH1 0x0 DUP3 ADD MSTORE POP JUMP JUMPDEST PUSH1 0x0 PUSH2 0x56F7 PUSH1 0x13 DUP4 PUSH2 0x39FF JUMP JUMPDEST SWAP2 POP PUSH2 0x5702 DUP3 PUSH2 0x56C1 JUMP JUMPDEST PUSH1 0x20 DUP3 ADD SWAP1 POP SWAP2 SWAP1 POP JUMP JUMPDEST PUSH1 0x0 PUSH1 0x20 DUP3 ADD SWAP1 POP DUP2 DUP2 SUB PUSH1 0x0 DUP4 ADD MSTORE PUSH2 0x5726 DUP2 PUSH2 0x56EA JUMP JUMPDEST SWAP1 POP SWAP2 SWAP1 POP JUMP JUMPDEST PUSH1 0x0 PUSH1 0x60 DUP3 ADD SWAP1 POP PUSH2 0x5742 PUSH1 0x0 DUP4 ADD DUP7 PUSH2 0x3A49 JUMP JUMPDEST PUSH2 0x574F PUSH1 0x20 DUP4 ADD DUP6 PUSH2 0x389E JUMP JUMPDEST PUSH2 0x575C PUSH1 0x40 DUP4 ADD DUP5 PUSH2 0x3BD3 JUMP JUMPDEST SWAP5 SWAP4 POP POP POP POP JUMP JUMPDEST PUSH32 0x416C7265616479206120766F7465720000000000000000000000000000000000 PUSH1 0x0 DUP3 ADD MSTORE POP JUMP JUMPDEST PUSH1 0x0 PUSH2 0x579A PUSH1 0xF DUP4 PUSH2 0x39FF JUMP JUMPDEST SWAP2 POP PUSH2 0x57A5 DUP3 PUSH2 0x5764 JUMP JUMPDEST PUSH1 0x20 DUP3 ADD SWAP1 POP SWAP2 SWAP1 POP JUMP JUMPDEST PUSH1 0x0 PUSH1 0x20 DUP3 ADD SWAP1 POP DUP2 DUP2 SUB PUSH1 0x0 DUP4 ADD MSTORE PUSH2 0x57C9 DUP2 PUSH2 0x578D JUMP JUMPDEST SWAP1 POP SWAP2 SWAP1 POP JUMP JUMPDEST PUSH32 0x4D75737420646F6E617465204554480000000000000000000000000000000000 PUSH1 0x0 DUP3 ADD MSTORE POP JUMP JUMPDEST PUSH1 0x0 PUSH2 0x5806 PUSH1 0xF DUP4 PUSH2 0x39FF JUMP JUMPDEST SWAP2 POP PUSH2 0x5811 DUP3 PUSH2 0x57D0 JUMP JUMPDEST PUSH1 0x20 DUP3 ADD SWAP1 POP SWAP2 SWAP1 POP JUMP JUMPDEST PUSH1 0x0 PUSH1 0x20 DUP3 ADD SWAP1 POP DUP2 DUP2 SUB PUSH1 0x0 DUP4 ADD MSTORE PUSH2 0x5835 DUP2 PUSH2 0x57F9 JUMP JUMPDEST SWAP1 POP SWAP2 SWAP1 POP JUMP JUMPDEST PUSH1 0x0 PUSH1 0x80 DUP3 ADD SWAP1 POP PUSH2 0x5851 PUSH1 0x0 DUP4 ADD DUP8 PUSH2 0x3A49 JUMP JUMPDEST PUSH2 0x585E PUSH1 0x20 DUP4 ADD DUP7 PUSH2 0x389E JUMP JUMPDEST PUSH2 0x586B PUSH1 0x40 DUP4 ADD DUP6 PUSH2 0x3A49 JUMP JUMPDEST PUSH2 0x5878 PUSH1 0x60 DUP4 ADD DUP5 PUSH2 0x3A49 JUMP JUMPDEST SWAP6 SWAP5 POP POP POP POP POP JUMP INVALID LOG2 PUSH5 0x6970667358 0x22 SLT KECCAK256 DUP9 NUMBER DUP8 0xB4 CALLVALUE SWAP9 SWAP16 0xBC DUP2 AND 0xAA BALANCE PUSH22 0x404A28A611B69F65DD78D802DC14AFF4F79AAC64736F PUSH13 0x634300081C0033000000000000 "},"gasEstimates":{"creation":{"codeDepositCost":"4542200","executionCost":"29561","totalCost":"4571761"},"external":{"claimVoterReward(uint256)":"infinite","createTask(string[])":"infinite","donate(uint256)":"infinite","getAllNGOs()":"infinite","getAllNGOsWithTasks()":"infinite","getAllTasks()":"infinite","getDonations(uint256)":"infinite","getNGODetails(address)":"infinite","getNGOTaskStatuses(address)":"infinite","getNGOTotalFunds(address)":"infinite","getPendingTasks()":"infinite","getTaskDetails(uint256)":"infinite","getVoterDetails(address)":"2958","hasVoted(address,uint256)":"3208","ngoList(uint256)":"5001","ngos(address)":"infinite","owner()":"2579","registerNGO(string,string,string)":"infinite","registerVoter()":"26253","resolveTask(uint256)":"infinite","taskCounter()":"2563","taskDonations(uint256,uint256)":"infinite","tasks(uint256)":"infinite","vote(uint256,bool)":"infinite","voters(address)":"2917","withdrawNgoStake()":"infinite","withdrawVoterStake()":"infinite"}},"methodIdentifiers":{"claimVoterReward(uint256)":"c893b82f","createTask(string[])":"771f84fe","donate(uint256)":"f14faf6f","getAllNGOs()":"87b5a2dd","getAllNGOsWithTasks()":"82c4dbe5","getAllTasks()":"779900b4","getDonations(uint256)":"596d9ce2","getNGODetails(address)":"734d78c5","getNGOTaskStatuses(address)":"7abe26b4","getNGOTotalFunds(address)":"9255cb3b","getPendingTasks()":"c35b9030","getTaskDetails(uint256)":"3888b9d5","getVoterDetails(address)":"ba71bef0","hasVoted(address,uint256)":"42545825","ngoList(uint256)":"967f8982","ngos(address)":"e6f7d11e","owner()":"8da5cb5b","registerNGO(string,string,string)":"48f667b3","registerVoter()":"ecb617d9","resolveTask(uint256)":"456d908e","taskCounter()":"58671730","taskDonations(uint256,uint256)":"3df78c91","tasks(uint256)":"8d977672","vote(uint256,bool)":"c9d27afe","voters(address)":"a3ec138d","withdrawNgoStake()":"987bdee4","withdrawVoterStake()":"dffb0ece"}},"storageLayout":{"storage":[{"astId":3,"contract":"contracts/CryptoDonationPlatform.sol:NGOFunding","label":"owner","offset":0,"slot":"0","type":"t_address"},{"astId":87,"contract":"contracts/CryptoDonationPlatform.sol:NGOFunding","label":"ngos","offset":0,"slot":"1","type":"t_mapping(t_address,t_struct(NGO)27_storage)"},{"astId":92,"contract":"contracts/CryptoDonationPlatform.sol:NGOFunding","label":"voters","offset":0,"slot":"2","type":"t_mapping(t_address,t_struct(Voter)34_storage)"},{"astId":97,"contract":"contracts/CryptoDonationPlatform.sol:NGOFunding","label":"tasks","offset":0,"slot":"3","type":"t_mapping(t_uint256,t_struct(Task)56_storage)"},{"astId":103,"contract":"contracts/CryptoDonationPlatform.sol:NGOFunding","label":"taskDonations","offset":0,"slot":"4","type":"t_mapping(t_uint256,t_array(t_struct(Donation)63_storage)dyn_storage)"},{"astId":105,"contract":"contracts/CryptoDonationPlatform.sol:NGOFunding","label":"taskCounter","offset":0,"slot":"5","type":"t_uint256"},{"astId":108,"contract":"contracts/CryptoDonationPlatform.sol:NGOFunding","label":"ngoList","offset":0,"slot":"6","type":"t_array(t_address)dyn_storage"}],"types":{"t_address":{"encoding":"inplace","label":"address","numberOfBytes":"20"},"t_array(t_address)dyn_storage":{"base":"t_address","encoding":"dynamic_array","label":"address[]","numberOfBytes":"32"},"t_array(t_string_storage)dyn_storage":{"base":"t_string_storage","encoding":"dynamic_array","label":"string[]","numberOfBytes":"32"},"t_array(t_struct(Donation)63_storage)dyn_storage":{"base":"t_struct(Donation)63_storage","encoding":"dynamic_array","label":"struct NGOFunding.Donation[]","numberOfBytes":"32"},"t_array(t_uint256)dyn_storage":{"base":"t_uint256","encoding":"dynamic_array","label":"uint256[]","numberOfBytes":"32"},"t_bool":{"encoding":"inplace","label":"bool","numberOfBytes":"1"},"t_mapping(t_address,t_bool)":{"encoding":"mapping","key":"t_address","label":"mapping(address => bool)","numberOfBytes":"32","value":"t_bool"},"t_mapping(t_address,t_struct(NGO)27_storage)":{"encoding":"mapping","key":"t_address","label":"mapping(address => struct NGOFunding.NGO)","numberOfBytes":"32","value":"t_struct(NGO)27_storage"},"t_mapping(t_address,t_struct(Voter)34_storage)":{"encoding":"mapping","key":"t_address","label":"mapping(address => struct NGOFunding.Voter)","numberOfBytes":"32","value":"t_struct(Voter)34_storage"},"t_mapping(t_uint256,t_array(t_struct(Donation)63_storage)dyn_storage)":{"encoding":"mapping","key":"t_uint256","label":"mapping(uint256 => struct NGOFunding.Donation[])","numberOfBytes":"32","value":"t_array(t_struct(Donation)63_storage)dyn_storage"},"t_mapping(t_uint256,t_bool)":{"encoding":"mapping","key":"t_uint256","label":"mapping(uint256 => bool)","numberOfBytes":"32","value":"t_bool"},"t_mapping(t_uint256,t_struct(Task)56_storage)":{"encoding":"mapping","key":"t_uint256","label":"mapping(uint256 => struct NGOFunding.Task)","numberOfBytes":"32","value":"t_struct(Task)56_storage"},"t_string_storage":{"encoding":"bytes","label":"string","numberOfBytes":"32"},"t_struct(Donation)63_storage":{"encoding":"inplace","label":"struct NGOFunding.Donation","members":[{"astId":58,"contract":"contracts/CryptoDonationPlatform.sol:NGOFunding","label":"donor","offset":0,"slot":"0","type":"t_address"},{"astId":60,"contract":"contracts/CryptoDonationPlatform.sol:NGOFunding","label":"amount","offset":0,"slot":"1","type":"t_uint256"},{"astId":62,"contract":"contracts/CryptoDonationPlatform.sol:NGOFunding","label":"timestamp","offset":0,"slot":"2","type":"t_uint256"}],"numberOfBytes":"96"},"t_struct(NGO)27_storage":{"encoding":"inplace","label":"struct NGOFunding.NGO","members":[{"astId":17,"contract":"contracts/CryptoDonationPlatform.sol:NGOFunding","label":"name","offset":0,"slot":"0","type":"t_string_storage"},{"astId":19,"contract":"contracts/CryptoDonationPlatform.sol:NGOFunding","label":"description","offset":0,"slot":"1","type":"t_string_storage"},{"astId":21,"contract":"contracts/CryptoDonationPlatform.sol:NGOFunding","label":"stakedEth","offset":0,"slot":"2","type":"t_uint256"},{"astId":23,"contract":"contracts/CryptoDonationPlatform.sol:NGOFunding","label":"logo","offset":0,"slot":"3","type":"t_string_storage"},{"astId":26,"contract":"contracts/CryptoDonationPlatform.sol:NGOFunding","label":"taskIds","offset":0,"slot":"4","type":"t_array(t_uint256)dyn_storage"}],"numberOfBytes":"160"},"t_struct(Task)56_storage":{"encoding":"inplace","label":"struct NGOFunding.Task","members":[{"astId":36,"contract":"contracts/CryptoDonationPlatform.sol:NGOFunding","label":"ngo","offset":0,"slot":"0","type":"t_address"},{"astId":39,"contract":"contracts/CryptoDonationPlatform.sol:NGOFunding","label":"proofLinks","offset":0,"slot":"1","type":"t_array(t_string_storage)dyn_storage"},{"astId":41,"contract":"contracts/CryptoDonationPlatform.sol:NGOFunding","label":"status","offset":0,"slot":"2","type":"t_string_storage"},{"astId":43,"contract":"contracts/CryptoDonationPlatform.sol:NGOFunding","label":"yesVotes","offset":0,"slot":"3","type":"t_uint256"},{"astId":45,"contract":"contracts/CryptoDonationPlatform.sol:NGOFunding","label":"noVotes","offset":0,"slot":"4","type":"t_uint256"},{"astId":47,"contract":"contracts/CryptoDonationPlatform.sol:NGOFunding","label":"totalFunds","offset":0,"slot":"5","type":"t_uint256"},{"astId":49,"contract":"contracts/CryptoDonationPlatform.sol:NGOFunding","label":"startTime","offset":0,"slot":"6","type":"t_uint256"},{"astId":53,"contract":"contracts/CryptoDonationPlatform.sol:NGOFunding","label":"voters","offset":0,"slot":"7","type":"t_mapping(t_address,t_bool)"},{"astId":55,"contract":"contracts/CryptoDonationPlatform.sol:NGOFunding","label":"voterCount","offset":0,"slot":"8","type":"t_uint256"}],"numberOfBytes":"288"},"t_struct(Voter)34_storage":{"encoding":"inplace","label":"struct NGOFunding.Voter","members":[{"astId":29,"contract":"contracts/CryptoDonationPlatform.sol:NGOFunding","label":"stakedEth","offset":0,"slot":"0","type":"t_uint256"},{"astId":33,"contract":"contracts/CryptoDonationPlatform.sol:NGOFunding","label":"hasVoted","offset":0,"slot":"1","type":"t_mapping(t_uint256,t_bool)"}],"numberOfBytes":"64"},"t_uint256":{"encoding":"inplace","label":"uint256","numberOfBytes":"32"}}},"userdoc":{"kind":"user","methods":{},"version":1}}}}