{"contracts/CryptoDonationPlatform.sol":{"NGOFunding":{"abi":[{"inputs":[],"stateMutability":"nonpayable","type":"constructor"},{"anonymous":false,"inputs":[{"indexed":false,"internalType":"uint256","name":"taskId","type":"uint256"},{"indexed":false,"internalType":"address","name":"donor","type":"address"},{"indexed":false,"internalType":"uint256","name":"amount","type":"uint256"},{"indexed":false,"internalType":"uint256","name":"donationId","type":"uint256"}],"name":"Donated","type":"event"},{"anonymous":false,"inputs":[{"indexed":false,"internalType":"address","name":"ngo","type":"address"},{"indexed":false,"internalType":"string","name":"name","type":"string"}],"name":"NGORegistered","type":"event"},{"anonymous":false,"inputs":[{"indexed":false,"internalType":"address","name":"ngo","type":"address"},{"indexed":false,"internalType":"uint256","name":"amount","type":"uint256"}],"name":"NGOStakeWithdrawn","type":"event"},{"anonymous":false,"inputs":[{"indexed":false,"internalType":"uint256","name":"taskId","type":"uint256"},{"indexed":false,"internalType":"address","name":"ngo","type":"address"}],"name":"TaskCreated","type":"event"},{"anonymous":false,"inputs":[{"indexed":false,"internalType":"uint256","name":"taskId","type":"uint256"},{"indexed":false,"internalType":"string","name":"status","type":"string"}],"name":"TaskResolved","type":"event"},{"anonymous":false,"inputs":[{"indexed":false,"internalType":"uint256","name":"taskId","type":"uint256"},{"indexed":false,"internalType":"address","name":"voter","type":"address"},{"indexed":false,"internalType":"bool","name":"vote","type":"bool"}],"name":"Voted","type":"event"},{"anonymous":false,"inputs":[{"indexed":false,"internalType":"address","name":"voter","type":"address"},{"indexed":false,"internalType":"uint256","name":"stakedEth","type":"uint256"}],"name":"VoterRegistered","type":"event"},{"inputs":[{"internalType":"uint256","name":"_taskId","type":"uint256"}],"name":"claimVoterReward","outputs":[],"stateMutability":"nonpayable","type":"function"},{"inputs":[{"internalType":"string[]","name":"_proofLinks","type":"string[]"}],"name":"createTask","outputs":[],"stateMutability":"nonpayable","type":"function"},{"inputs":[{"internalType":"uint256","name":"_taskId","type":"uint256"}],"name":"donate","outputs":[],"stateMutability":"payable","type":"function"},{"inputs":[],"name":"getAllNGOs","outputs":[{"internalType":"address[]","name":"","type":"address[]"}],"stateMutability":"view","type":"function"},{"inputs":[],"name":"getAllTasks","outputs":[{"internalType":"uint256[]","name":"","type":"uint256[]"}],"stateMutability":"view","type":"function"},{"inputs":[{"internalType":"uint256","name":"_taskId","type":"uint256"}],"name":"getDonations","outputs":[{"components":[{"internalType":"address","name":"donor","type":"address"},{"internalType":"uint256","name":"amount","type":"uint256"},{"internalType":"uint256","name":"timestamp","type":"uint256"}],"internalType":"struct NGOFunding.Donation[]","name":"","type":"tuple[]"}],"stateMutability":"view","type":"function"},{"inputs":[{"internalType":"address","name":"_ngo","type":"address"}],"name":"getNGODetails","outputs":[{"internalType":"string","name":"name","type":"string"},{"internalType":"string","name":"description","type":"string"},{"internalType":"uint256","name":"stakedEth","type":"uint256"},{"internalType":"uint256[]","name":"taskIds","type":"uint256[]"}],"stateMutability":"view","type":"function"},{"inputs":[{"internalType":"address","name":"_ngo","type":"address"}],"name":"getNGOTaskStatuses","outputs":[{"internalType":"uint256[]","name":"taskIds","type":"uint256[]"},{"internalType":"string[]","name":"statuses","type":"string[]"}],"stateMutability":"view","type":"function"},{"inputs":[{"internalType":"address","name":"_ngo","type":"address"}],"name":"getNGOTotalFunds","outputs":[{"internalType":"uint256","name":"totalFunds","type":"uint256"}],"stateMutability":"view","type":"function"},{"inputs":[],"name":"getPendingTasks","outputs":[{"internalType":"uint256[]","name":"","type":"uint256[]"}],"stateMutability":"view","type":"function"},{"inputs":[{"internalType":"uint256","name":"_taskId","type":"uint256"}],"name":"getTaskDetails","outputs":[{"internalType":"address","name":"ngo","type":"address"},{"internalType":"string[]","name":"proofLinks","type":"string[]"},{"internalType":"string","name":"status","type":"string"},{"internalType":"uint256","name":"yesVotes","type":"uint256"},{"internalType":"uint256","name":"noVotes","type":"uint256"},{"internalType":"uint256","name":"totalFunds","type":"uint256"},{"internalType":"uint256","name":"startTime","type":"uint256"},{"internalType":"uint256","name":"voterCount","type":"uint256"}],"stateMutability":"view","type":"function"},{"inputs":[{"internalType":"address","name":"_voter","type":"address"}],"name":"getVoterDetails","outputs":[{"internalType":"uint256","name":"stakedEth","type":"uint256"}],"stateMutability":"view","type":"function"},{"inputs":[{"internalType":"address","name":"_voter","type":"address"},{"internalType":"uint256","name":"_taskId","type":"uint256"}],"name":"hasVoted","outputs":[{"internalType":"bool","name":"","type":"bool"}],"stateMutability":"view","type":"function"},{"inputs":[{"internalType":"uint256","name":"","type":"uint256"}],"name":"ngoList","outputs":[{"internalType":"address","name":"","type":"address"}],"stateMutability":"view","type":"function"},{"inputs":[{"internalType":"address","name":"","type":"address"}],"name":"ngos","outputs":[{"internalType":"string","name":"name","type":"string"},{"internalType":"string","name":"description","type":"string"},{"internalType":"uint256","name":"stakedEth","type":"uint256"},{"internalType":"string","name":"logo","type":"string"}],"stateMutability":"view","type":"function"},{"inputs":[],"name":"owner","outputs":[{"internalType":"address","name":"","type":"address"}],"stateMutability":"view","type":"function"},{"inputs":[{"internalType":"string","name":"_name","type":"string"},{"internalType":"string","name":"_description","type":"string"},{"internalType":"string","name":"_logo","type":"string"}],"name":"registerNGO","outputs":[],"stateMutability":"payable","type":"function"},{"inputs":[],"name":"registerVoter","outputs":[],"stateMutability":"payable","type":"function"},{"inputs":[{"internalType":"uint256","name":"_taskId","type":"uint256"}],"name":"resolveTask","outputs":[],"stateMutability":"nonpayable","type":"function"},{"inputs":[],"name":"taskCounter","outputs":[{"internalType":"uint256","name":"","type":"uint256"}],"stateMutability":"view","type":"function"},{"inputs":[{"internalType":"uint256","name":"","type":"uint256"},{"internalType":"uint256","name":"","type":"uint256"}],"name":"taskDonations","outputs":[{"internalType":"address","name":"donor","type":"address"},{"internalType":"uint256","name":"amount","type":"uint256"},{"internalType":"uint256","name":"timestamp","type":"uint256"}],"stateMutability":"view","type":"function"},{"inputs":[{"internalType":"uint256","name":"","type":"uint256"}],"name":"tasks","outputs":[{"internalType":"address","name":"ngo","type":"address"},{"internalType":"string","name":"status","type":"string"},{"internalType":"uint256","name":"yesVotes","type":"uint256"},{"internalType":"uint256","name":"noVotes","type":"uint256"},{"internalType":"uint256","name":"totalFunds","type":"uint256"},{"internalType":"uint256","name":"startTime","type":"uint256"},{"internalType":"uint256","name":"voterCount","type":"uint256"}],"stateMutability":"view","type":"function"},{"inputs":[{"internalType":"uint256","name":"_taskId","type":"uint256"},{"internalType":"bool","name":"_approve","type":"bool"}],"name":"vote","outputs":[],"stateMutability":"nonpayable","type":"function"},{"inputs":[{"internalType":"address","name":"","type":"address"}],"name":"voters","outputs":[{"internalType":"uint256","name":"stakedEth","type":"uint256"}],"stateMutability":"view","type":"function"},{"inputs":[],"name":"withdrawNgoStake","outputs":[],"stateMutability":"nonpayable","type":"function"},{"inputs":[],"name":"withdrawVoterStake","outputs":[],"stateMutability":"nonpayable","type":"function"}],"devdoc":{"kind":"dev","methods":{},"version":1},"evm":{"bytecode":{"linkReferences":{},"object":"6080604052348015600f57600080fd5b50336000806101000a81548173ffffffffffffffffffffffffffffffffffffffff021916908373ffffffffffffffffffffffffffffffffffffffff160217905550614f178061005f6000396000f3fe6080604052600436106101815760003560e01c80638da5cb5b116100d1578063c35b90301161008a578063dffb0ece11610064578063dffb0ece146105e6578063e6f7d11e146105fd578063ecb617d91461063d578063f14faf6f1461064757610181565b8063c35b903014610569578063c893b82f14610594578063c9d27afe146105bd57610181565b80638da5cb5b146104335780639255cb3b1461045e578063967f89821461049b578063987bdee4146104d8578063a3ec138d146104ef578063ba71bef01461052c57610181565b8063596d9ce21161013e578063779900b411610118578063779900b41461035c5780637abe26b41461038757806387b5a2dd146103c55780638d977672146103f057610181565b8063596d9ce2146102b6578063734d78c5146102f3578063771f84fe1461033357610181565b80633888b9d5146101865780633df78c91146101ca5780634254582514610209578063456d908e1461024657806348f667b31461026f578063586717301461028b575b600080fd5b34801561019257600080fd5b506101ad60048036038101906101a8919061334a565b610663565b6040516101c1989796959493929190613563565b60405180910390f35b3480156101d657600080fd5b506101f160048036038101906101ec91906135ef565b6108da565b6040516102009392919061362f565b60405180910390f35b34801561021557600080fd5b50610230600480360381019061022b9190613692565b610941565b60405161023d91906136ed565b60405180910390f35b34801561025257600080fd5b5061026d6004803603810190610268919061334a565b6109ac565b005b6102896004803603810190610284919061383d565b610f9b565b005b34801561029757600080fd5b506102a061121f565b6040516102ad91906138e4565b60405180910390f35b3480156102c257600080fd5b506102dd60048036038101906102d8919061334a565b611225565b6040516102ea9190613a0e565b60405180910390f35b3480156102ff57600080fd5b5061031a60048036038101906103159190613a30565b611301565b60405161032a9493929190613b0c565b60405180910390f35b34801561033f57600080fd5b5061035a60048036038101906103559190613c4c565b61151d565b005b34801561036857600080fd5b50610371611729565b60405161037e9190613c95565b60405180910390f35b34801561039357600080fd5b506103ae60048036038101906103a99190613a30565b6117d1565b6040516103bc929190613cb7565b60405180910390f35b3480156103d157600080fd5b506103da6119fb565b6040516103e79190613d9d565b60405180910390f35b3480156103fc57600080fd5b506104176004803603810190610412919061334a565b611a89565b60405161042a9796959493929190613dbf565b60405180910390f35b34801561043f57600080fd5b50610448611b73565b6040516104559190613e35565b60405180910390f35b34801561046a57600080fd5b5061048560048036038101906104809190613a30565b611b97565b60405161049291906138e4565b60405180910390f35b3480156104a757600080fd5b506104c260048036038101906104bd919061334a565b611d1e565b6040516104cf9190613e35565b60405180910390f35b3480156104e457600080fd5b506104ed611d5d565b005b3480156104fb57600080fd5b5061051660048036038101906105119190613a30565b61202f565b60405161052391906138e4565b60405180910390f35b34801561053857600080fd5b50610553600480360381019061054e9190613a30565b61204d565b60405161056091906138e4565b60405180910390f35b34801561057557600080fd5b5061057e612099565b60405161058b9190613c95565b60405180910390f35b3480156105a057600080fd5b506105bb60048036038101906105b6919061334a565b6122b5565b005b3480156105c957600080fd5b506105e460048036038101906105df9190613e7c565b612599565b005b3480156105f257600080fd5b506105fb612a1a565b005b34801561060957600080fd5b50610624600480360381019061061f9190613a30565b612bde565b6040516106349493929190613ebc565b60405180910390f35b610645612da6565b005b610661600480360381019061065c919061334a565b612ef0565b005b6000606080600080600080600080600360008b81526020019081526020016000209050600073ffffffffffffffffffffffffffffffffffffffff168160000160009054906101000a900473ffffffffffffffffffffffffffffffffffffffff1673ffffffffffffffffffffffffffffffffffffffff1603610719576040517f08c379a000000000000000000000000000000000000000000000000000000000815260040161071090613f62565b60405180910390fd5b8060000160009054906101000a900473ffffffffffffffffffffffffffffffffffffffff1681600101826002018360030154846004015485600501548660060154876008015486805480602002602001604051908101604052809291908181526020016000905b8282101561082c57838290600052602060002001805461079f90613fb1565b80601f01602080910402602001604051908101604052809291908181526020018280546107cb90613fb1565b80156108185780601f106107ed57610100808354040283529160200191610818565b820191906000526020600020905b8154815290600101906020018083116107fb57829003601f168201915b505050505081526020019060010190610780565b50505050965085805461083e90613fb1565b80601f016020809104026020016040519081016040528092919081815260200182805461086a90613fb1565b80156108b75780601f1061088c576101008083540402835291602001916108b7565b820191906000526020600020905b81548152906001019060200180831161089a57829003601f168201915b505050505095509850985098509850985098509850985050919395975091939597565b600460205281600052604060002081815481106108f657600080fd5b9060005260206000209060030201600091509150508060000160009054906101000a900473ffffffffffffffffffffffffffffffffffffffff16908060010154908060020154905083565b6000600260008473ffffffffffffffffffffffffffffffffffffffff1673ffffffffffffffffffffffffffffffffffffffff168152602001908152602001600020600101600083815260200190815260200160002060009054906101000a900460ff16905092915050565b6000600360008381526020019081526020016000209050600073ffffffffffffffffffffffffffffffffffffffff168160000160009054906101000a900473ffffffffffffffffffffffffffffffffffffffff1673ffffffffffffffffffffffffffffffffffffffff1603610a56576040517f08c379a0000000000000000000000000000000000000000000000000000000008152600401610a4d90613f62565b60405180910390fd5b6040518060400160405280600781526020017f70656e64696e67000000000000000000000000000000000000000000000000008152508051906020012081600201604051610aa49190614085565b604051809103902014610aec576040517f08c379a0000000000000000000000000000000000000000000000000000000008152600401610ae3906140e8565b60405180910390fd5b62093a808160060154610aff9190614137565b4211610b40576040517f08c379a0000000000000000000000000000000000000000000000000000000008152600401610b37906141b7565b60405180910390fd5b600080826008015411610b54576000610b72565b606460058360050154610b6791906141d7565b610b719190614248565b5b90506000818360050154610b869190614279565b9050600083600401548460030154610b9e9190614137565b9050600081118015610bcc575060328160648660030154610bbf91906141d7565b610bc99190614248565b10155b15610cee576040518060400160405280600881526020017f617070726f766564000000000000000000000000000000000000000000000000815250846002019081610c179190614459565b5060008460000160009054906101000a900473ffffffffffffffffffffffffffffffffffffffff1673ffffffffffffffffffffffffffffffffffffffff1683604051610c6290614551565b60006040518083038185875af1925050503d8060008114610c9f576040519150601f19603f3d011682016040523d82523d6000602084013e610ca4565b606091505b5050905080610ce8576040517f08c379a0000000000000000000000000000000000000000000000000000000008152600401610cdf906145b2565b60405180910390fd5b50610f58565b6040518060400160405280600881526020017f72656a6563746564000000000000000000000000000000000000000000000000815250846002019081610d349190614459565b506000805b6004600088815260200190815260200160002080549050811015610da857600460008881526020019081526020016000208181548110610d7c57610d7b6145d2565b5b90600052602060002090600302016001015482610d999190614137565b91508080600101915050610d39565b5060005b6004600088815260200190815260200160002080549050811015610f55576000600460008981526020019081526020016000208281548110610df157610df06145d2565b5b90600052602060002090600302016040518060600160405290816000820160009054906101000a900473ffffffffffffffffffffffffffffffffffffffff1673ffffffffffffffffffffffffffffffffffffffff1673ffffffffffffffffffffffffffffffffffffffff168152602001600182015481526020016002820154815250509050600083868360200151610e8991906141d7565b610e939190614248565b90506000826000015173ffffffffffffffffffffffffffffffffffffffff1682604051610ebf90614551565b60006040518083038185875af1925050503d8060008114610efc576040519150601f19603f3d011682016040523d82523d6000602084013e610f01565b606091505b5050905080610f45576040517f08c379a0000000000000000000000000000000000000000000000000000000008152600401610f3c9061464d565b60405180910390fd5b5050508080600101915050610dac565b50505b7f622e8aea88c24b5860ee5c8b8fbf8e18b632e7a412ed546c499ded2088e187ad8585600201604051610f8c9291906146f1565b60405180910390a15050505050565b60003411610fde576040517f08c379a0000000000000000000000000000000000000000000000000000000008152600401610fd59061476d565b60405180910390fd5b6000600160003373ffffffffffffffffffffffffffffffffffffffff1673ffffffffffffffffffffffffffffffffffffffff1681526020019081526020016000206002015414611063576040517f08c379a000000000000000000000000000000000000000000000000000000000815260040161105a906147d9565b60405180910390fd5b6040518060a00160405280848152602001838152602001348152602001828152602001600067ffffffffffffffff8111156110a1576110a0613712565b5b6040519080825280602002602001820160405280156110cf5781602001602082028036833780820191505090505b50815250600160003373ffffffffffffffffffffffffffffffffffffffff1673ffffffffffffffffffffffffffffffffffffffff16815260200190815260200160002060008201518160000190816111279190614459565b50602082015181600101908161113d9190614459565b5060408201518160020155606082015181600301908161115d9190614459565b50608082015181600401908051906020019061117a9291906131d9565b509050506006339080600181540180825580915050600190039060005260206000200160009091909190916101000a81548173ffffffffffffffffffffffffffffffffffffffff021916908373ffffffffffffffffffffffffffffffffffffffff1602179055507f0386741c0345c35e0430ddfe5fee0c0afbfad9de0f6c1f1ece8021927c2f732033846040516112129291906147f9565b60405180910390a1505050565b60055481565b606060046000838152602001908152602001600020805480602002602001604051908101604052809291908181526020016000905b828210156112f657838290600052602060002090600302016040518060600160405290816000820160009054906101000a900473ffffffffffffffffffffffffffffffffffffffff1673ffffffffffffffffffffffffffffffffffffffff1673ffffffffffffffffffffffffffffffffffffffff168152602001600182015481526020016002820154815250508152602001906001019061125a565b505050509050919050565b606080600060606000600160008773ffffffffffffffffffffffffffffffffffffffff1673ffffffffffffffffffffffffffffffffffffffff16815260200190815260200160002090506000816002015411611392576040517f08c379a000000000000000000000000000000000000000000000000000000000815260040161138990614875565b60405180910390fd5b80600001816001018260020154836004018380546113af90613fb1565b80601f01602080910402602001604051908101604052809291908181526020018280546113db90613fb1565b80156114285780601f106113fd57610100808354040283529160200191611428565b820191906000526020600020905b81548152906001019060200180831161140b57829003601f168201915b5050505050935082805461143b90613fb1565b80601f016020809104026020016040519081016040528092919081815260200182805461146790613fb1565b80156114b45780601f10611489576101008083540402835291602001916114b4565b820191906000526020600020905b81548152906001019060200180831161149757829003601f168201915b505050505092508080548060200260200160405190810160405280929190818152602001828054801561150657602002820191906000526020600020905b8154815260200190600101908083116114f2575b505050505090509450945094509450509193509193565b6000600160003373ffffffffffffffffffffffffffffffffffffffff1673ffffffffffffffffffffffffffffffffffffffff16815260200190815260200160002060020154116115a2576040517f08c379a000000000000000000000000000000000000000000000000000000000815260040161159990614875565b60405180910390fd5b600560008154809291906115b590614895565b919050555060006003600060055481526020019081526020016000209050338160000160006101000a81548173ffffffffffffffffffffffffffffffffffffffff021916908373ffffffffffffffffffffffffffffffffffffffff1602179055508181600101908051906020019061162e929190613226565b506040518060400160405280600781526020017f70656e64696e67000000000000000000000000000000000000000000000000008152508160020190816116759190614459565b50428160060181905550600160003373ffffffffffffffffffffffffffffffffffffffff1673ffffffffffffffffffffffffffffffffffffffff16815260200190815260200160002060040160055490806001815401808255809150506001900390600052602060002001600090919091909150557fe9ee39160568153d230ca0e29961267415d513defbb7d3b21af0fe940e1ebd156005543360405161171d9291906148dd565b60405180910390a15050565b6060600060055467ffffffffffffffff81111561174957611748613712565b5b6040519080825280602002602001820160405280156117775781602001602082028036833780820191505090505b5090506000600190505b60055481116117c95780826001836117999190614279565b815181106117aa576117a96145d2565b5b60200260200101818152505080806117c190614895565b915050611781565b508091505090565b6060806000600160008573ffffffffffffffffffffffffffffffffffffffff1673ffffffffffffffffffffffffffffffffffffffff1681526020019081526020016000209050600081600201541161185e576040517f08c379a000000000000000000000000000000000000000000000000000000000815260040161185590614875565b60405180910390fd5b806004018054806020026020016040519081016040528092919081815260200182805480156118ac57602002820191906000526020600020905b815481526020019060010190808311611898575b50505050509250825167ffffffffffffffff8111156118ce576118cd613712565b5b60405190808252806020026020018201604052801561190157816020015b60608152602001906001900390816118ec5790505b50915060005b83518110156119f45760036000858381518110611927576119266145d2565b5b60200260200101518152602001908152602001600020600201805461194b90613fb1565b80601f016020809104026020016040519081016040528092919081815260200182805461197790613fb1565b80156119c45780601f10611999576101008083540402835291602001916119c4565b820191906000526020600020905b8154815290600101906020018083116119a757829003601f168201915b50505050508382815181106119dc576119db6145d2565b5b60200260200101819052508080600101915050611907565b5050915091565b60606006805480602002602001604051908101604052809291908181526020018280548015611a7f57602002820191906000526020600020905b8160009054906101000a900473ffffffffffffffffffffffffffffffffffffffff1673ffffffffffffffffffffffffffffffffffffffff1681526020019060010190808311611a35575b5050505050905090565b60036020528060005260406000206000915090508060000160009054906101000a900473ffffffffffffffffffffffffffffffffffffffff1690806002018054611ad290613fb1565b80601f0160208091040260200160405190810160405280929190818152602001828054611afe90613fb1565b8015611b4b5780601f10611b2057610100808354040283529160200191611b4b565b820191906000526020600020905b815481529060010190602001808311611b2e57829003601f168201915b5050505050908060030154908060040154908060050154908060060154908060080154905087565b60008054906101000a900473ffffffffffffffffffffffffffffffffffffffff1681565b600080600160008473ffffffffffffffffffffffffffffffffffffffff1673ffffffffffffffffffffffffffffffffffffffff16815260200190815260200160002090506000816002015411611c22576040517f08c379a0000000000000000000000000000000000000000000000000000000008152600401611c1990614875565b60405180910390fd5b6000915060005b8160040180549050811015611d17576040518060400160405280600881526020017f617070726f7665640000000000000000000000000000000000000000000000008152508051906020012060036000846004018481548110611c8f57611c8e6145d2565b5b90600052602060002001548152602001908152602001600020600201604051611cb89190614085565b604051809103902003611d0a5760036000836004018381548110611cdf57611cde6145d2565b5b906000526020600020015481526020019081526020016000206005015483611d079190614137565b92505b8080600101915050611c29565b5050919050565b60068181548110611d2e57600080fd5b906000526020600020016000915054906101000a900473ffffffffffffffffffffffffffffffffffffffff1681565b6000600160003373ffffffffffffffffffffffffffffffffffffffff1673ffffffffffffffffffffffffffffffffffffffff1681526020019081526020016000206002015411611de2576040517f08c379a0000000000000000000000000000000000000000000000000000000008152600401611dd990614952565b60405180910390fd5b6000600160003373ffffffffffffffffffffffffffffffffffffffff1673ffffffffffffffffffffffffffffffffffffffff168152602001908152602001600020905060005b8160040180549050811015611f3157600060036000846004018481548110611e5357611e526145d2565b5b9060005260206000200154815260200190815260200160002090506040518060400160405280600781526020017f70656e64696e67000000000000000000000000000000000000000000000000008152508051906020012081600201604051611ebc9190614085565b6040518091039020148015611ee3575062093a808160060154611edf9190614137565b4211155b15611f23576040517f08c379a0000000000000000000000000000000000000000000000000000000008152600401611f1a906149e4565b60405180910390fd5b508080600101915050611e28565b506000816002015490506000826002018190555060003373ffffffffffffffffffffffffffffffffffffffff1682604051611f6b90614551565b60006040518083038185875af1925050503d8060008114611fa8576040519150601f19603f3d011682016040523d82523d6000602084013e611fad565b606091505b5050905080611ff1576040517f08c379a0000000000000000000000000000000000000000000000000000000008152600401611fe890614a50565b60405180910390fd5b7f45e86ef28678bb11eb3a2909bef25215399cdebb7c34dacb2179034cf6e2c9053383604051612022929190614a70565b60405180910390a1505050565b60026020528060005260406000206000915090508060000154905081565b6000600260008373ffffffffffffffffffffffffffffffffffffffff1673ffffffffffffffffffffffffffffffffffffffff168152602001908152602001600020600001549050919050565b6060600080600190505b600554811161216c576040518060400160405280600781526020017f70656e64696e6700000000000000000000000000000000000000000000000000815250805190602001206003600083815260200190815260200160002060020160405161210c9190614085565b6040518091039020148015612145575062093a8060036000838152602001908152602001600020600601546121419190614137565b4211155b1561215957818061215590614895565b9250505b808061216490614895565b9150506120a3565b5060008167ffffffffffffffff81111561218957612188613712565b5b6040519080825280602002602001820160405280156121b75781602001602082028036833780820191505090505b509050600080600190505b60055481116122ab576040518060400160405280600781526020017f70656e64696e6700000000000000000000000000000000000000000000000000815250805190602001206003600083815260200190815260200160002060020160405161222b9190614085565b6040518091039020148015612264575062093a8060036000838152602001908152602001600020600601546122609190614137565b4211155b15612298578083838151811061227d5761227c6145d2565b5b602002602001018181525050818061229490614895565b9250505b80806122a390614895565b9150506121c2565b5081935050505090565b6003600082815260200190815260200160002060070160003373ffffffffffffffffffffffffffffffffffffffff1673ffffffffffffffffffffffffffffffffffffffff16815260200190815260200160002060009054906101000a900460ff16612355576040517f08c379a000000000000000000000000000000000000000000000000000000000815260040161234c90614ae5565b60405180910390fd5b6040518060400160405280600781526020017f70656e64696e670000000000000000000000000000000000000000000000000081525080519060200120600360008381526020019081526020016000206002016040516123b59190614085565b6040518091039020036123fd576040517f08c379a00000000000000000000000000000000000000000000000000000000081526004016123f490614b51565b60405180910390fd5b600060646005600360008581526020019081526020016000206005015461242491906141d7565b61242e9190614248565b9050600080600360008581526020019081526020016000206008015411612456576000612479565b6003600084815260200190815260200160002060080154826124789190614248565b5b905060003373ffffffffffffffffffffffffffffffffffffffff16826040516124a190614551565b60006040518083038185875af1925050503d80600081146124de576040519150601f19603f3d011682016040523d82523d6000602084013e6124e3565b606091505b5050905080612527576040517f08c379a000000000000000000000000000000000000000000000000000000000815260040161251e90614bbd565b60405180910390fd5b60006003600086815260200190815260200160002060070160003373ffffffffffffffffffffffffffffffffffffffff1673ffffffffffffffffffffffffffffffffffffffff16815260200190815260200160002060006101000a81548160ff02191690831515021790555050505050565b6000600260003373ffffffffffffffffffffffffffffffffffffffff1673ffffffffffffffffffffffffffffffffffffffff168152602001908152602001600020600001541161261e576040517f08c379a000000000000000000000000000000000000000000000000000000000815260040161261590614c29565b60405180910390fd5b600073ffffffffffffffffffffffffffffffffffffffff166003600084815260200190815260200160002060000160009054906101000a900473ffffffffffffffffffffffffffffffffffffffff1673ffffffffffffffffffffffffffffffffffffffff16036126c3576040517f08c379a00000000000000000000000000000000000000000000000000000000081526004016126ba90613f62565b60405180910390fd5b600260003373ffffffffffffffffffffffffffffffffffffffff1673ffffffffffffffffffffffffffffffffffffffff168152602001908152602001600020600101600083815260200190815260200160002060009054906101000a900460ff1615612764576040517f08c379a000000000000000000000000000000000000000000000000000000000815260040161275b90614c95565b60405180910390fd5b6040518060400160405280600781526020017f70656e64696e670000000000000000000000000000000000000000000000000081525080519060200120600360008481526020019081526020016000206002016040516127c49190614085565b60405180910390201461280c576040517f08c379a000000000000000000000000000000000000000000000000000000000815260040161280390614d01565b60405180910390fd5b62093a8060036000848152602001908152602001600020600601546128319190614137565b421115612873576040517f08c379a000000000000000000000000000000000000000000000000000000000815260040161286a90614d6d565b60405180910390fd5b6001600260003373ffffffffffffffffffffffffffffffffffffffff1673ffffffffffffffffffffffffffffffffffffffff168152602001908152602001600020600101600084815260200190815260200160002060006101000a81548160ff02191690831515021790555060016003600084815260200190815260200160002060070160003373ffffffffffffffffffffffffffffffffffffffff1673ffffffffffffffffffffffffffffffffffffffff16815260200190815260200160002060006101000a81548160ff02191690831515021790555060036000838152602001908152602001600020600801600081548092919061297290614895565b919050555080156129ae576003600083815260200190815260200160002060030160008154809291906129a490614895565b91905055506129db565b6003600083815260200190815260200160002060040160008154809291906129d590614895565b91905055505b7ff2913dbe661ee2acc4a046d8fbcdc792373bda34c41c6086484b5345e5785e5f823383604051612a0e93929190614d8d565b60405180910390a15050565b6000600260003373ffffffffffffffffffffffffffffffffffffffff1673ffffffffffffffffffffffffffffffffffffffff1681526020019081526020016000206000015411612a9f576040517f08c379a0000000000000000000000000000000000000000000000000000000008152600401612a9690614c29565b60405180910390fd5b6000600260003373ffffffffffffffffffffffffffffffffffffffff1673ffffffffffffffffffffffffffffffffffffffff1681526020019081526020016000206000015490506000600260003373ffffffffffffffffffffffffffffffffffffffff1673ffffffffffffffffffffffffffffffffffffffff1681526020019081526020016000206000018190555060003373ffffffffffffffffffffffffffffffffffffffff1682604051612b5490614551565b60006040518083038185875af1925050503d8060008114612b91576040519150601f19603f3d011682016040523d82523d6000602084013e612b96565b606091505b5050905080612bda576040517f08c379a0000000000000000000000000000000000000000000000000000000008152600401612bd190614a50565b60405180910390fd5b5050565b6001602052806000526040600020600091509050806000018054612c0190613fb1565b80601f0160208091040260200160405190810160405280929190818152602001828054612c2d90613fb1565b8015612c7a5780601f10612c4f57610100808354040283529160200191612c7a565b820191906000526020600020905b815481529060010190602001808311612c5d57829003601f168201915b505050505090806001018054612c8f90613fb1565b80601f0160208091040260200160405190810160405280929190818152602001828054612cbb90613fb1565b8015612d085780601f10612cdd57610100808354040283529160200191612d08565b820191906000526020600020905b815481529060010190602001808311612ceb57829003601f168201915b505050505090806002015490806003018054612d2390613fb1565b80601f0160208091040260200160405190810160405280929190818152602001828054612d4f90613fb1565b8015612d9c5780601f10612d7157610100808354040283529160200191612d9c565b820191906000526020600020905b815481529060010190602001808311612d7f57829003601f168201915b5050505050905084565b60003411612de9576040517f08c379a0000000000000000000000000000000000000000000000000000000008152600401612de09061476d565b60405180910390fd5b6000600260003373ffffffffffffffffffffffffffffffffffffffff1673ffffffffffffffffffffffffffffffffffffffff1681526020019081526020016000206000015414612e6e576040517f08c379a0000000000000000000000000000000000000000000000000000000008152600401612e6590614e10565b60405180910390fd5b34600260003373ffffffffffffffffffffffffffffffffffffffff1673ffffffffffffffffffffffffffffffffffffffff168152602001908152602001600020600001819055507ff16ce2c2236e2c6e3df646f80d657bceef4cd7f3a240c47e82adfa17a5f472413334604051612ee6929190614a70565b60405180910390a1565b600073ffffffffffffffffffffffffffffffffffffffff166003600083815260200190815260200160002060000160009054906101000a900473ffffffffffffffffffffffffffffffffffffffff1673ffffffffffffffffffffffffffffffffffffffff1603612f95576040517f08c379a0000000000000000000000000000000000000000000000000000000008152600401612f8c90613f62565b60405180910390fd5b60003411612fd8576040517f08c379a0000000000000000000000000000000000000000000000000000000008152600401612fcf90614e7c565b60405180910390fd5b6040518060400160405280600781526020017f70656e64696e670000000000000000000000000000000000000000000000000081525080519060200120600360008381526020019081526020016000206002016040516130389190614085565b604051809103902014613080576040517f08c379a000000000000000000000000000000000000000000000000000000000815260040161307790614d01565b60405180910390fd5b346003600083815260200190815260200160002060050160008282546130a69190614137565b925050819055506004600082815260200190815260200160002060405180606001604052803373ffffffffffffffffffffffffffffffffffffffff16815260200134815260200142815250908060018154018082558091505060019003906000526020600020906003020160009091909190915060008201518160000160006101000a81548173ffffffffffffffffffffffffffffffffffffffff021916908373ffffffffffffffffffffffffffffffffffffffff160217905550602082015181600101556040820151816002015550507f27e413b8931dc4cb7edc879292ebc482a3047336d03423ea91addae7a2cf850a813334600160046000878152602001908152602001600020805490506131be9190614279565b6040516131ce9493929190614e9c565b60405180910390a150565b828054828255906000526020600020908101928215613215579160200282015b828111156132145782518255916020019190600101906131f9565b5b509050613222919061327f565b5090565b82805482825590600052602060002090810192821561326e579160200282015b8281111561326d57825182908161325d9190614459565b5091602001919060010190613246565b5b50905061327b919061329c565b5090565b5b80821115613298576000816000905550600101613280565b5090565b5b808211156132bc57600081816132b391906132c0565b5060010161329d565b5090565b5080546132cc90613fb1565b6000825580601f106132de57506132fd565b601f0160209004906000526020600020908101906132fc919061327f565b5b50565b6000604051905090565b600080fd5b600080fd5b6000819050919050565b61332781613314565b811461333257600080fd5b50565b6000813590506133448161331e565b92915050565b6000602082840312156133605761335f61330a565b5b600061336e84828501613335565b91505092915050565b600073ffffffffffffffffffffffffffffffffffffffff82169050919050565b60006133a282613377565b9050919050565b6133b281613397565b82525050565b600081519050919050565b600082825260208201905092915050565b6000819050602082019050919050565b600081519050919050565b600082825260208201905092915050565b60005b8381101561341e578082015181840152602081019050613403565b60008484015250505050565b6000601f19601f8301169050919050565b6000613446826133e4565b61345081856133ef565b9350613460818560208601613400565b6134698161342a565b840191505092915050565b6000613480838361343b565b905092915050565b6000602082019050919050565b60006134a0826133b8565b6134aa81856133c3565b9350836020820285016134bc856133d4565b8060005b858110156134f857848403895281516134d98582613474565b94506134e483613488565b925060208a019950506001810190506134c0565b50829750879550505050505092915050565b600082825260208201905092915050565b6000613526826133e4565b613530818561350a565b9350613540818560208601613400565b6135498161342a565b840191505092915050565b61355d81613314565b82525050565b600061010082019050613579600083018b6133a9565b818103602083015261358b818a613495565b9050818103604083015261359f818961351b565b90506135ae6060830188613554565b6135bb6080830187613554565b6135c860a0830186613554565b6135d560c0830185613554565b6135e260e0830184613554565b9998505050505050505050565b600080604083850312156136065761360561330a565b5b600061361485828601613335565b925050602061362585828601613335565b9150509250929050565b600060608201905061364460008301866133a9565b6136516020830185613554565b61365e6040830184613554565b949350505050565b61366f81613397565b811461367a57600080fd5b50565b60008135905061368c81613666565b92915050565b600080604083850312156136a9576136a861330a565b5b60006136b78582860161367d565b92505060206136c885828601613335565b9150509250929050565b60008115159050919050565b6136e7816136d2565b82525050565b600060208201905061370260008301846136de565b92915050565b600080fd5b600080fd5b7f4e487b7100000000000000000000000000000000000000000000000000000000600052604160045260246000fd5b61374a8261342a565b810181811067ffffffffffffffff8211171561376957613768613712565b5b80604052505050565b600061377c613300565b90506137888282613741565b919050565b600067ffffffffffffffff8211156137a8576137a7613712565b5b6137b18261342a565b9050602081019050919050565b82818337600083830152505050565b60006137e06137db8461378d565b613772565b9050828152602081018484840111156137fc576137fb61370d565b5b6138078482856137be565b509392505050565b600082601f83011261382457613823613708565b5b81356138348482602086016137cd565b91505092915050565b6000806000606084860312156138565761385561330a565b5b600084013567ffffffffffffffff8111156138745761387361330f565b5b6138808682870161380f565b935050602084013567ffffffffffffffff8111156138a1576138a061330f565b5b6138ad8682870161380f565b925050604084013567ffffffffffffffff8111156138ce576138cd61330f565b5b6138da8682870161380f565b9150509250925092565b60006020820190506138f96000830184613554565b92915050565b600081519050919050565b600082825260208201905092915050565b6000819050602082019050919050565b61393481613397565b82525050565b61394381613314565b82525050565b60608201600082015161395f600085018261392b565b506020820151613972602085018261393a565b506040820151613985604085018261393a565b50505050565b60006139978383613949565b60608301905092915050565b6000602082019050919050565b60006139bb826138ff565b6139c5818561390a565b93506139d08361391b565b8060005b83811015613a015781516139e8888261398b565b97506139f3836139a3565b9250506001810190506139d4565b5085935050505092915050565b60006020820190508181036000830152613a2881846139b0565b905092915050565b600060208284031215613a4657613a4561330a565b5b6000613a548482850161367d565b91505092915050565b600081519050919050565b600082825260208201905092915050565b6000819050602082019050919050565b6000613a95838361393a565b60208301905092915050565b6000602082019050919050565b6000613ab982613a5d565b613ac38185613a68565b9350613ace83613a79565b8060005b83811015613aff578151613ae68882613a89565b9750613af183613aa1565b925050600181019050613ad2565b5085935050505092915050565b60006080820190508181036000830152613b26818761351b565b90508181036020830152613b3a818661351b565b9050613b496040830185613554565b8181036060830152613b5b8184613aae565b905095945050505050565b600067ffffffffffffffff821115613b8157613b80613712565b5b602082029050602081019050919050565b600080fd5b6000613baa613ba584613b66565b613772565b90508083825260208201905060208402830185811115613bcd57613bcc613b92565b5b835b81811015613c1457803567ffffffffffffffff811115613bf257613bf1613708565b5b808601613bff898261380f565b85526020850194505050602081019050613bcf565b5050509392505050565b600082601f830112613c3357613c32613708565b5b8135613c43848260208601613b97565b91505092915050565b600060208284031215613c6257613c6161330a565b5b600082013567ffffffffffffffff811115613c8057613c7f61330f565b5b613c8c84828501613c1e565b91505092915050565b60006020820190508181036000830152613caf8184613aae565b905092915050565b60006040820190508181036000830152613cd18185613aae565b90508181036020830152613ce58184613495565b90509392505050565b600081519050919050565b600082825260208201905092915050565b6000819050602082019050919050565b6000613d26838361392b565b60208301905092915050565b6000602082019050919050565b6000613d4a82613cee565b613d548185613cf9565b9350613d5f83613d0a565b8060005b83811015613d90578151613d778882613d1a565b9750613d8283613d32565b925050600181019050613d63565b5085935050505092915050565b60006020820190508181036000830152613db78184613d3f565b905092915050565b600060e082019050613dd4600083018a6133a9565b8181036020830152613de6818961351b565b9050613df56040830188613554565b613e026060830187613554565b613e0f6080830186613554565b613e1c60a0830185613554565b613e2960c0830184613554565b98975050505050505050565b6000602082019050613e4a60008301846133a9565b92915050565b613e59816136d2565b8114613e6457600080fd5b50565b600081359050613e7681613e50565b92915050565b60008060408385031215613e9357613e9261330a565b5b6000613ea185828601613335565b9250506020613eb285828601613e67565b9150509250929050565b60006080820190508181036000830152613ed6818761351b565b90508181036020830152613eea818661351b565b9050613ef96040830185613554565b8181036060830152613f0b818461351b565b905095945050505050565b7f5461736b20646f6573206e6f7420657869737400000000000000000000000000600082015250565b6000613f4c60138361350a565b9150613f5782613f16565b602082019050919050565b60006020820190508181036000830152613f7b81613f3f565b9050919050565b7f4e487b7100000000000000000000000000000000000000000000000000000000600052602260045260246000fd5b60006002820490506001821680613fc957607f821691505b602082108103613fdc57613fdb613f82565b5b50919050565b600081905092915050565b60008190508160005260206000209050919050565b6000815461400f81613fb1565b6140198186613fe2565b9450600182166000811461403457600181146140495761407c565b60ff198316865281151582028601935061407c565b61405285613fed565b60005b8381101561407457815481890152600182019150602081019050614055565b838801955050505b50505092915050565b60006140918284614002565b915081905092915050565b7f5461736b20616c7265616479207265736f6c7665640000000000000000000000600082015250565b60006140d260158361350a565b91506140dd8261409c565b602082019050919050565b60006020820190508181036000830152614101816140c5565b9050919050565b7f4e487b7100000000000000000000000000000000000000000000000000000000600052601160045260246000fd5b600061414282613314565b915061414d83613314565b925082820190508082111561416557614164614108565b5b92915050565b7f566f74696e6720706572696f64206e6f7420656e646564000000000000000000600082015250565b60006141a160178361350a565b91506141ac8261416b565b602082019050919050565b600060208201905081810360008301526141d081614194565b9050919050565b60006141e282613314565b91506141ed83613314565b92508282026141fb81613314565b9150828204841483151761421257614211614108565b5b5092915050565b7f4e487b7100000000000000000000000000000000000000000000000000000000600052601260045260246000fd5b600061425382613314565b915061425e83613314565b92508261426e5761426d614219565b5b828204905092915050565b600061428482613314565b915061428f83613314565b92508282039050818111156142a7576142a6614108565b5b92915050565b60008190508160005260206000209050919050565b60006020601f8301049050919050565b600082821b905092915050565b60006008830261430f7fffffffffffffffffffffffffffffffffffffffffffffffffffffffffffffffff826142d2565b61431986836142d2565b95508019841693508086168417925050509392505050565b6000819050919050565b600061435661435161434c84613314565b614331565b613314565b9050919050565b6000819050919050565b6143708361433b565b61438461437c8261435d565b8484546142df565b825550505050565b600090565b61439961438c565b6143a4818484614367565b505050565b5b818110156143c8576143bd600082614391565b6001810190506143aa565b5050565b601f82111561440d576143de816142ad565b6143e7846142c2565b810160208510156143f6578190505b61440a614402856142c2565b8301826143a9565b50505b505050565b600082821c905092915050565b600061443060001984600802614412565b1980831691505092915050565b6000614449838361441f565b9150826002028217905092915050565b614462826133e4565b67ffffffffffffffff81111561447b5761447a613712565b5b6144858254613fb1565b6144908282856143cc565b600060209050601f8311600181146144c357600084156144b1578287015190505b6144bb858261443d565b865550614523565b601f1984166144d1866142ad565b60005b828110156144f9578489015182556001820191506020850194506020810190506144d4565b868310156145165784890151614512601f89168261441f565b8355505b6001600288020188555050505b505050505050565b50565b600061453b600083613fe2565b91506145468261452b565b600082019050919050565b600061455c8261452e565b9150819050919050565b7f4661696c656420746f2073656e642066756e647320746f204e474f0000000000600082015250565b600061459c601b8361350a565b91506145a782614566565b602082019050919050565b600060208201905081810360008301526145cb8161458f565b9050919050565b7f4e487b7100000000000000000000000000000000000000000000000000000000600052603260045260246000fd5b7f526566756e64206661696c656400000000000000000000000000000000000000600082015250565b6000614637600d8361350a565b915061464282614601565b602082019050919050565b600060208201905081810360008301526146668161462a565b9050919050565b6000815461467a81613fb1565b614684818661350a565b9450600182166000811461469f57600181146146b5576146e8565b60ff1983168652811515602002860193506146e8565b6146be856142ad565b60005b838110156146e0578154818901526001820191506020810190506146c1565b808801955050505b50505092915050565b60006040820190506147066000830185613554565b8181036020830152614718818461466d565b90509392505050565b7f4d757374207374616b6520455448000000000000000000000000000000000000600082015250565b6000614757600e8361350a565b915061476282614721565b602082019050919050565b600060208201905081810360008301526147868161474a565b9050919050565b7f4e474f20616c7265616479207265676973746572656400000000000000000000600082015250565b60006147c360168361350a565b91506147ce8261478d565b602082019050919050565b600060208201905081810360008301526147f2816147b6565b9050919050565b600060408201905061480e60008301856133a9565b8181036020830152614820818461351b565b90509392505050565b7f4e474f206e6f7420726567697374657265640000000000000000000000000000600082015250565b600061485f60128361350a565b915061486a82614829565b602082019050919050565b6000602082019050818103600083015261488e81614852565b9050919050565b60006148a082613314565b91507fffffffffffffffffffffffffffffffffffffffffffffffffffffffffffffffff82036148d2576148d1614108565b5b600182019050919050565b60006040820190506148f26000830185613554565b6148ff60208301846133a9565b9392505050565b7f4e6f7420616e204e474f206f7220616c72656164792077697468647261776e00600082015250565b600061493c601f8361350a565b915061494782614906565b602082019050919050565b6000602082019050818103600083015261496b8161492f565b9050919050565b7f43616e6e6f7420776974686472617720776974682070656e64696e672074617360008201527f6b73000000000000000000000000000000000000000000000000000000000000602082015250565b60006149ce60228361350a565b91506149d982614972565b604082019050919050565b600060208201905081810360008301526149fd816149c1565b9050919050565b7f5769746864726177616c206661696c6564000000000000000000000000000000600082015250565b6000614a3a60118361350a565b9150614a4582614a04565b602082019050919050565b60006020820190508181036000830152614a6981614a2d565b9050919050565b6000604082019050614a8560008301856133a9565b614a926020830184613554565b9392505050565b7f446964206e6f7420766f7465206f6e207461736b000000000000000000000000600082015250565b6000614acf60148361350a565b9150614ada82614a99565b602082019050919050565b60006020820190508181036000830152614afe81614ac2565b9050919050565b7f5461736b207374696c6c2070656e64696e670000000000000000000000000000600082015250565b6000614b3b60128361350a565b9150614b4682614b05565b602082019050919050565b60006020820190508181036000830152614b6a81614b2e565b9050919050565b7f52657761726420636c61696d206661696c656400000000000000000000000000600082015250565b6000614ba760138361350a565b9150614bb282614b71565b602082019050919050565b60006020820190508181036000830152614bd681614b9a565b9050919050565b7f4e6f74206120766f746572000000000000000000000000000000000000000000600082015250565b6000614c13600b8361350a565b9150614c1e82614bdd565b602082019050919050565b60006020820190508181036000830152614c4281614c06565b9050919050565b7f416c726561647920766f74656400000000000000000000000000000000000000600082015250565b6000614c7f600d8361350a565b9150614c8a82614c49565b602082019050919050565b60006020820190508181036000830152614cae81614c72565b9050919050565b7f5461736b206e6f742070656e64696e6700000000000000000000000000000000600082015250565b6000614ceb60108361350a565b9150614cf682614cb5565b602082019050919050565b60006020820190508181036000830152614d1a81614cde565b9050919050565b7f566f74696e6720706572696f6420656e64656400000000000000000000000000600082015250565b6000614d5760138361350a565b9150614d6282614d21565b602082019050919050565b60006020820190508181036000830152614d8681614d4a565b9050919050565b6000606082019050614da26000830186613554565b614daf60208301856133a9565b614dbc60408301846136de565b949350505050565b7f416c7265616479206120766f7465720000000000000000000000000000000000600082015250565b6000614dfa600f8361350a565b9150614e0582614dc4565b602082019050919050565b60006020820190508181036000830152614e2981614ded565b9050919050565b7f4d75737420646f6e617465204554480000000000000000000000000000000000600082015250565b6000614e66600f8361350a565b9150614e7182614e30565b602082019050919050565b60006020820190508181036000830152614e9581614e59565b9050919050565b6000608082019050614eb16000830187613554565b614ebe60208301866133a9565b614ecb6040830185613554565b614ed86060830184613554565b9594505050505056fea2646970667358221220815dd2bb89d6c20da8c6c8ecc193769b7e08b261fe5d136be76189a898b5ea7a64736f6c634300081c0033","opcodes":"PUSH1 0x80 PUSH1 0x40 MSTORE CALLVALUE DUP1 ISZERO PUSH1 0xF JUMPI PUSH1 0x0 DUP1 REVERT JUMPDEST POP CALLER PUSH1 0x0 DUP1 PUSH2 0x100 EXP DUP2 SLOAD DUP2 PUSH20 0xFFFFFFFFFFFFFFFFFFFFFFFFFFFFFFFFFFFFFFFF MUL NOT AND SWAP1 DUP4 PUSH20 0xFFFFFFFFFFFFFFFFFFFFFFFFFFFFFFFFFFFFFFFF AND MUL OR SWAP1 SSTORE POP PUSH2 0x4F17 DUP1 PUSH2 0x5F PUSH1 0x0 CODECOPY PUSH1 0x0 RETURN INVALID PUSH1 0x80 PUSH1 0x40 MSTORE PUSH1 0x4 CALLDATASIZE LT PUSH2 0x181 JUMPI PUSH1 0x0 CALLDATALOAD PUSH1 0xE0 SHR DUP1 PUSH4 0x8DA5CB5B GT PUSH2 0xD1 JUMPI DUP1 PUSH4 0xC35B9030 GT PUSH2 0x8A JUMPI DUP1 PUSH4 0xDFFB0ECE GT PUSH2 0x64 JUMPI DUP1 PUSH4 0xDFFB0ECE EQ PUSH2 0x5E6 JUMPI DUP1 PUSH4 0xE6F7D11E EQ PUSH2 0x5FD JUMPI DUP1 PUSH4 0xECB617D9 EQ PUSH2 0x63D JUMPI DUP1 PUSH4 0xF14FAF6F EQ PUSH2 0x647 JUMPI PUSH2 0x181 JUMP JUMPDEST DUP1 PUSH4 0xC35B9030 EQ PUSH2 0x569 JUMPI DUP1 PUSH4 0xC893B82F EQ PUSH2 0x594 JUMPI DUP1 PUSH4 0xC9D27AFE EQ PUSH2 0x5BD JUMPI PUSH2 0x181 JUMP JUMPDEST DUP1 PUSH4 0x8DA5CB5B EQ PUSH2 0x433 JUMPI DUP1 PUSH4 0x9255CB3B EQ PUSH2 0x45E JUMPI DUP1 PUSH4 0x967F8982 EQ PUSH2 0x49B JUMPI DUP1 PUSH4 0x987BDEE4 EQ PUSH2 0x4D8 JUMPI DUP1 PUSH4 0xA3EC138D EQ PUSH2 0x4EF JUMPI DUP1 PUSH4 0xBA71BEF0 EQ PUSH2 0x52C JUMPI PUSH2 0x181 JUMP JUMPDEST DUP1 PUSH4 0x596D9CE2 GT PUSH2 0x13E JUMPI DUP1 PUSH4 0x779900B4 GT PUSH2 0x118 JUMPI DUP1 PUSH4 0x779900B4 EQ PUSH2 0x35C JUMPI DUP1 PUSH4 0x7ABE26B4 EQ PUSH2 0x387 JUMPI DUP1 PUSH4 0x87B5A2DD EQ PUSH2 0x3C5 JUMPI DUP1 PUSH4 0x8D977672 EQ PUSH2 0x3F0 JUMPI PUSH2 0x181 JUMP JUMPDEST DUP1 PUSH4 0x596D9CE2 EQ PUSH2 0x2B6 JUMPI DUP1 PUSH4 0x734D78C5 EQ PUSH2 0x2F3 JUMPI DUP1 PUSH4 0x771F84FE EQ PUSH2 0x333 JUMPI PUSH2 0x181 JUMP JUMPDEST DUP1 PUSH4 0x3888B9D5 EQ PUSH2 0x186 JUMPI DUP1 PUSH4 0x3DF78C91 EQ PUSH2 0x1CA JUMPI DUP1 PUSH4 0x42545825 EQ PUSH2 0x209 JUMPI DUP1 PUSH4 0x456D908E EQ PUSH2 0x246 JUMPI DUP1 PUSH4 0x48F667B3 EQ PUSH2 0x26F JUMPI DUP1 PUSH4 0x58671730 EQ PUSH2 0x28B JUMPI JUMPDEST PUSH1 0x0 DUP1 REVERT JUMPDEST CALLVALUE DUP1 ISZERO PUSH2 0x192 JUMPI PUSH1 0x0 DUP1 REVERT JUMPDEST POP PUSH2 0x1AD PUSH1 0x4 DUP1 CALLDATASIZE SUB DUP2 ADD SWAP1 PUSH2 0x1A8 SWAP2 SWAP1 PUSH2 0x334A JUMP JUMPDEST PUSH2 0x663 JUMP JUMPDEST PUSH1 0x40 MLOAD PUSH2 0x1C1 SWAP9 SWAP8 SWAP7 SWAP6 SWAP5 SWAP4 SWAP3 SWAP2 SWAP1 PUSH2 0x3563 JUMP JUMPDEST PUSH1 0x40 MLOAD DUP1 SWAP2 SUB SWAP1 RETURN JUMPDEST CALLVALUE DUP1 ISZERO PUSH2 0x1D6 JUMPI PUSH1 0x0 DUP1 REVERT JUMPDEST POP PUSH2 0x1F1 PUSH1 0x4 DUP1 CALLDATASIZE SUB DUP2 ADD SWAP1 PUSH2 0x1EC SWAP2 SWAP1 PUSH2 0x35EF JUMP JUMPDEST PUSH2 0x8DA JUMP JUMPDEST PUSH1 0x40 MLOAD PUSH2 0x200 SWAP4 SWAP3 SWAP2 SWAP1 PUSH2 0x362F JUMP JUMPDEST PUSH1 0x40 MLOAD DUP1 SWAP2 SUB SWAP1 RETURN JUMPDEST CALLVALUE DUP1 ISZERO PUSH2 0x215 JUMPI PUSH1 0x0 DUP1 REVERT JUMPDEST POP PUSH2 0x230 PUSH1 0x4 DUP1 CALLDATASIZE SUB DUP2 ADD SWAP1 PUSH2 0x22B SWAP2 SWAP1 PUSH2 0x3692 JUMP JUMPDEST PUSH2 0x941 JUMP JUMPDEST PUSH1 0x40 MLOAD PUSH2 0x23D SWAP2 SWAP1 PUSH2 0x36ED JUMP JUMPDEST PUSH1 0x40 MLOAD DUP1 SWAP2 SUB SWAP1 RETURN JUMPDEST CALLVALUE DUP1 ISZERO PUSH2 0x252 JUMPI PUSH1 0x0 DUP1 REVERT JUMPDEST POP PUSH2 0x26D PUSH1 0x4 DUP1 CALLDATASIZE SUB DUP2 ADD SWAP1 PUSH2 0x268 SWAP2 SWAP1 PUSH2 0x334A JUMP JUMPDEST PUSH2 0x9AC JUMP JUMPDEST STOP JUMPDEST PUSH2 0x289 PUSH1 0x4 DUP1 CALLDATASIZE SUB DUP2 ADD SWAP1 PUSH2 0x284 SWAP2 SWAP1 PUSH2 0x383D JUMP JUMPDEST PUSH2 0xF9B JUMP JUMPDEST STOP JUMPDEST CALLVALUE DUP1 ISZERO PUSH2 0x297 JUMPI PUSH1 0x0 DUP1 REVERT JUMPDEST POP PUSH2 0x2A0 PUSH2 0x121F JUMP JUMPDEST PUSH1 0x40 MLOAD PUSH2 0x2AD SWAP2 SWAP1 PUSH2 0x38E4 JUMP JUMPDEST PUSH1 0x40 MLOAD DUP1 SWAP2 SUB SWAP1 RETURN JUMPDEST CALLVALUE DUP1 ISZERO PUSH2 0x2C2 JUMPI PUSH1 0x0 DUP1 REVERT JUMPDEST POP PUSH2 0x2DD PUSH1 0x4 DUP1 CALLDATASIZE SUB DUP2 ADD SWAP1 PUSH2 0x2D8 SWAP2 SWAP1 PUSH2 0x334A JUMP JUMPDEST PUSH2 0x1225 JUMP JUMPDEST PUSH1 0x40 MLOAD PUSH2 0x2EA SWAP2 SWAP1 PUSH2 0x3A0E JUMP JUMPDEST PUSH1 0x40 MLOAD DUP1 SWAP2 SUB SWAP1 RETURN JUMPDEST CALLVALUE DUP1 ISZERO PUSH2 0x2FF JUMPI PUSH1 0x0 DUP1 REVERT JUMPDEST POP PUSH2 0x31A PUSH1 0x4 DUP1 CALLDATASIZE SUB DUP2 ADD SWAP1 PUSH2 0x315 SWAP2 SWAP1 PUSH2 0x3A30 JUMP JUMPDEST PUSH2 0x1301 JUMP JUMPDEST PUSH1 0x40 MLOAD PUSH2 0x32A SWAP5 SWAP4 SWAP3 SWAP2 SWAP1 PUSH2 0x3B0C JUMP JUMPDEST PUSH1 0x40 MLOAD DUP1 SWAP2 SUB SWAP1 RETURN JUMPDEST CALLVALUE DUP1 ISZERO PUSH2 0x33F JUMPI PUSH1 0x0 DUP1 REVERT JUMPDEST POP PUSH2 0x35A PUSH1 0x4 DUP1 CALLDATASIZE SUB DUP2 ADD SWAP1 PUSH2 0x355 SWAP2 SWAP1 PUSH2 0x3C4C JUMP JUMPDEST PUSH2 0x151D JUMP JUMPDEST STOP JUMPDEST CALLVALUE DUP1 ISZERO PUSH2 0x368 JUMPI PUSH1 0x0 DUP1 REVERT JUMPDEST POP PUSH2 0x371 PUSH2 0x1729 JUMP JUMPDEST PUSH1 0x40 MLOAD PUSH2 0x37E SWAP2 SWAP1 PUSH2 0x3C95 JUMP JUMPDEST PUSH1 0x40 MLOAD DUP1 SWAP2 SUB SWAP1 RETURN JUMPDEST CALLVALUE DUP1 ISZERO PUSH2 0x393 JUMPI PUSH1 0x0 DUP1 REVERT JUMPDEST POP PUSH2 0x3AE PUSH1 0x4 DUP1 CALLDATASIZE SUB DUP2 ADD SWAP1 PUSH2 0x3A9 SWAP2 SWAP1 PUSH2 0x3A30 JUMP JUMPDEST PUSH2 0x17D1 JUMP JUMPDEST PUSH1 0x40 MLOAD PUSH2 0x3BC SWAP3 SWAP2 SWAP1 PUSH2 0x3CB7 JUMP JUMPDEST PUSH1 0x40 MLOAD DUP1 SWAP2 SUB SWAP1 RETURN JUMPDEST CALLVALUE DUP1 ISZERO PUSH2 0x3D1 JUMPI PUSH1 0x0 DUP1 REVERT JUMPDEST POP PUSH2 0x3DA PUSH2 0x19FB JUMP JUMPDEST PUSH1 0x40 MLOAD PUSH2 0x3E7 SWAP2 SWAP1 PUSH2 0x3D9D JUMP JUMPDEST PUSH1 0x40 MLOAD DUP1 SWAP2 SUB SWAP1 RETURN JUMPDEST CALLVALUE DUP1 ISZERO PUSH2 0x3FC JUMPI PUSH1 0x0 DUP1 REVERT JUMPDEST POP PUSH2 0x417 PUSH1 0x4 DUP1 CALLDATASIZE SUB DUP2 ADD SWAP1 PUSH2 0x412 SWAP2 SWAP1 PUSH2 0x334A JUMP JUMPDEST PUSH2 0x1A89 JUMP JUMPDEST PUSH1 0x40 MLOAD PUSH2 0x42A SWAP8 SWAP7 SWAP6 SWAP5 SWAP4 SWAP3 SWAP2 SWAP1 PUSH2 0x3DBF JUMP JUMPDEST PUSH1 0x40 MLOAD DUP1 SWAP2 SUB SWAP1 RETURN JUMPDEST CALLVALUE DUP1 ISZERO PUSH2 0x43F JUMPI PUSH1 0x0 DUP1 REVERT JUMPDEST POP PUSH2 0x448 PUSH2 0x1B73 JUMP JUMPDEST PUSH1 0x40 MLOAD PUSH2 0x455 SWAP2 SWAP1 PUSH2 0x3E35 JUMP JUMPDEST PUSH1 0x40 MLOAD DUP1 SWAP2 SUB SWAP1 RETURN JUMPDEST CALLVALUE DUP1 ISZERO PUSH2 0x46A JUMPI PUSH1 0x0 DUP1 REVERT JUMPDEST POP PUSH2 0x485 PUSH1 0x4 DUP1 CALLDATASIZE SUB DUP2 ADD SWAP1 PUSH2 0x480 SWAP2 SWAP1 PUSH2 0x3A30 JUMP JUMPDEST PUSH2 0x1B97 JUMP JUMPDEST PUSH1 0x40 MLOAD PUSH2 0x492 SWAP2 SWAP1 PUSH2 0x38E4 JUMP JUMPDEST PUSH1 0x40 MLOAD DUP1 SWAP2 SUB SWAP1 RETURN JUMPDEST CALLVALUE DUP1 ISZERO PUSH2 0x4A7 JUMPI PUSH1 0x0 DUP1 REVERT JUMPDEST POP PUSH2 0x4C2 PUSH1 0x4 DUP1 CALLDATASIZE SUB DUP2 ADD SWAP1 PUSH2 0x4BD SWAP2 SWAP1 PUSH2 0x334A JUMP JUMPDEST PUSH2 0x1D1E JUMP JUMPDEST PUSH1 0x40 MLOAD PUSH2 0x4CF SWAP2 SWAP1 PUSH2 0x3E35 JUMP JUMPDEST PUSH1 0x40 MLOAD DUP1 SWAP2 SUB SWAP1 RETURN JUMPDEST CALLVALUE DUP1 ISZERO PUSH2 0x4E4 JUMPI PUSH1 0x0 DUP1 REVERT JUMPDEST POP PUSH2 0x4ED PUSH2 0x1D5D JUMP JUMPDEST STOP JUMPDEST CALLVALUE DUP1 ISZERO PUSH2 0x4FB JUMPI PUSH1 0x0 DUP1 REVERT JUMPDEST POP PUSH2 0x516 PUSH1 0x4 DUP1 CALLDATASIZE SUB DUP2 ADD SWAP1 PUSH2 0x511 SWAP2 SWAP1 PUSH2 0x3A30 JUMP JUMPDEST PUSH2 0x202F JUMP JUMPDEST PUSH1 0x40 MLOAD PUSH2 0x523 SWAP2 SWAP1 PUSH2 0x38E4 JUMP JUMPDEST PUSH1 0x40 MLOAD DUP1 SWAP2 SUB SWAP1 RETURN JUMPDEST CALLVALUE DUP1 ISZERO PUSH2 0x538 JUMPI PUSH1 0x0 DUP1 REVERT JUMPDEST POP PUSH2 0x553 PUSH1 0x4 DUP1 CALLDATASIZE SUB DUP2 ADD SWAP1 PUSH2 0x54E SWAP2 SWAP1 PUSH2 0x3A30 JUMP JUMPDEST PUSH2 0x204D JUMP JUMPDEST PUSH1 0x40 MLOAD PUSH2 0x560 SWAP2 SWAP1 PUSH2 0x38E4 JUMP JUMPDEST PUSH1 0x40 MLOAD DUP1 SWAP2 SUB SWAP1 RETURN JUMPDEST CALLVALUE DUP1 ISZERO PUSH2 0x575 JUMPI PUSH1 0x0 DUP1 REVERT JUMPDEST POP PUSH2 0x57E PUSH2 0x2099 JUMP JUMPDEST PUSH1 0x40 MLOAD PUSH2 0x58B SWAP2 SWAP1 PUSH2 0x3C95 JUMP JUMPDEST PUSH1 0x40 MLOAD DUP1 SWAP2 SUB SWAP1 RETURN JUMPDEST CALLVALUE DUP1 ISZERO PUSH2 0x5A0 JUMPI PUSH1 0x0 DUP1 REVERT JUMPDEST POP PUSH2 0x5BB PUSH1 0x4 DUP1 CALLDATASIZE SUB DUP2 ADD SWAP1 PUSH2 0x5B6 SWAP2 SWAP1 PUSH2 0x334A JUMP JUMPDEST PUSH2 0x22B5 JUMP JUMPDEST STOP JUMPDEST CALLVALUE DUP1 ISZERO PUSH2 0x5C9 JUMPI PUSH1 0x0 DUP1 REVERT JUMPDEST POP PUSH2 0x5E4 PUSH1 0x4 DUP1 CALLDATASIZE SUB DUP2 ADD SWAP1 PUSH2 0x5DF SWAP2 SWAP1 PUSH2 0x3E7C JUMP JUMPDEST PUSH2 0x2599 JUMP JUMPDEST STOP JUMPDEST CALLVALUE DUP1 ISZERO PUSH2 0x5F2 JUMPI PUSH1 0x0 DUP1 REVERT JUMPDEST POP PUSH2 0x5FB PUSH2 0x2A1A JUMP JUMPDEST STOP JUMPDEST CALLVALUE DUP1 ISZERO PUSH2 0x609 JUMPI PUSH1 0x0 DUP1 REVERT JUMPDEST POP PUSH2 0x624 PUSH1 0x4 DUP1 CALLDATASIZE SUB DUP2 ADD SWAP1 PUSH2 0x61F SWAP2 SWAP1 PUSH2 0x3A30 JUMP JUMPDEST PUSH2 0x2BDE JUMP JUMPDEST PUSH1 0x40 MLOAD PUSH2 0x634 SWAP5 SWAP4 SWAP3 SWAP2 SWAP1 PUSH2 0x3EBC JUMP JUMPDEST PUSH1 0x40 MLOAD DUP1 SWAP2 SUB SWAP1 RETURN JUMPDEST PUSH2 0x645 PUSH2 0x2DA6 JUMP JUMPDEST STOP JUMPDEST PUSH2 0x661 PUSH1 0x4 DUP1 CALLDATASIZE SUB DUP2 ADD SWAP1 PUSH2 0x65C SWAP2 SWAP1 PUSH2 0x334A JUMP JUMPDEST PUSH2 0x2EF0 JUMP JUMPDEST STOP JUMPDEST PUSH1 0x0 PUSH1 0x60 DUP1 PUSH1 0x0 DUP1 PUSH1 0x0 DUP1 PUSH1 0x0 DUP1 PUSH1 0x3 PUSH1 0x0 DUP12 DUP2 MSTORE PUSH1 0x20 ADD SWAP1 DUP2 MSTORE PUSH1 0x20 ADD PUSH1 0x0 KECCAK256 SWAP1 POP PUSH1 0x0 PUSH20 0xFFFFFFFFFFFFFFFFFFFFFFFFFFFFFFFFFFFFFFFF AND DUP2 PUSH1 0x0 ADD PUSH1 0x0 SWAP1 SLOAD SWAP1 PUSH2 0x100 EXP SWAP1 DIV PUSH20 0xFFFFFFFFFFFFFFFFFFFFFFFFFFFFFFFFFFFFFFFF AND PUSH20 0xFFFFFFFFFFFFFFFFFFFFFFFFFFFFFFFFFFFFFFFF AND SUB PUSH2 0x719 JUMPI PUSH1 0x40 MLOAD PUSH32 0x8C379A000000000000000000000000000000000000000000000000000000000 DUP2 MSTORE PUSH1 0x4 ADD PUSH2 0x710 SWAP1 PUSH2 0x3F62 JUMP JUMPDEST PUSH1 0x40 MLOAD DUP1 SWAP2 SUB SWAP1 REVERT JUMPDEST DUP1 PUSH1 0x0 ADD PUSH1 0x0 SWAP1 SLOAD SWAP1 PUSH2 0x100 EXP SWAP1 DIV PUSH20 0xFFFFFFFFFFFFFFFFFFFFFFFFFFFFFFFFFFFFFFFF AND DUP2 PUSH1 0x1 ADD DUP3 PUSH1 0x2 ADD DUP4 PUSH1 0x3 ADD SLOAD DUP5 PUSH1 0x4 ADD SLOAD DUP6 PUSH1 0x5 ADD SLOAD DUP7 PUSH1 0x6 ADD SLOAD DUP8 PUSH1 0x8 ADD SLOAD DUP7 DUP1 SLOAD DUP1 PUSH1 0x20 MUL PUSH1 0x20 ADD PUSH1 0x40 MLOAD SWAP1 DUP2 ADD PUSH1 0x40 MSTORE DUP1 SWAP3 SWAP2 SWAP1 DUP2 DUP2 MSTORE PUSH1 0x20 ADD PUSH1 0x0 SWAP1 JUMPDEST DUP3 DUP3 LT ISZERO PUSH2 0x82C JUMPI DUP4 DUP3 SWAP1 PUSH1 0x0 MSTORE PUSH1 0x20 PUSH1 0x0 KECCAK256 ADD DUP1 SLOAD PUSH2 0x79F SWAP1 PUSH2 0x3FB1 JUMP JUMPDEST DUP1 PUSH1 0x1F ADD PUSH1 0x20 DUP1 SWAP2 DIV MUL PUSH1 0x20 ADD PUSH1 0x40 MLOAD SWAP1 DUP2 ADD PUSH1 0x40 MSTORE DUP1 SWAP3 SWAP2 SWAP1 DUP2 DUP2 MSTORE PUSH1 0x20 ADD DUP3 DUP1 SLOAD PUSH2 0x7CB SWAP1 PUSH2 0x3FB1 JUMP JUMPDEST DUP1 ISZERO PUSH2 0x818 JUMPI DUP1 PUSH1 0x1F LT PUSH2 0x7ED JUMPI PUSH2 0x100 DUP1 DUP4 SLOAD DIV MUL DUP4 MSTORE SWAP2 PUSH1 0x20 ADD SWAP2 PUSH2 0x818 JUMP JUMPDEST DUP3 ADD SWAP2 SWAP1 PUSH1 0x0 MSTORE PUSH1 0x20 PUSH1 0x0 KECCAK256 SWAP1 JUMPDEST DUP2 SLOAD DUP2 MSTORE SWAP1 PUSH1 0x1 ADD SWAP1 PUSH1 0x20 ADD DUP1 DUP4 GT PUSH2 0x7FB JUMPI DUP3 SWAP1 SUB PUSH1 0x1F AND DUP3 ADD SWAP2 JUMPDEST POP POP POP POP POP DUP2 MSTORE PUSH1 0x20 ADD SWAP1 PUSH1 0x1 ADD SWAP1 PUSH2 0x780 JUMP JUMPDEST POP POP POP POP SWAP7 POP DUP6 DUP1 SLOAD PUSH2 0x83E SWAP1 PUSH2 0x3FB1 JUMP JUMPDEST DUP1 PUSH1 0x1F ADD PUSH1 0x20 DUP1 SWAP2 DIV MUL PUSH1 0x20 ADD PUSH1 0x40 MLOAD SWAP1 DUP2 ADD PUSH1 0x40 MSTORE DUP1 SWAP3 SWAP2 SWAP1 DUP2 DUP2 MSTORE PUSH1 0x20 ADD DUP3 DUP1 SLOAD PUSH2 0x86A SWAP1 PUSH2 0x3FB1 JUMP JUMPDEST DUP1 ISZERO PUSH2 0x8B7 JUMPI DUP1 PUSH1 0x1F LT PUSH2 0x88C JUMPI PUSH2 0x100 DUP1 DUP4 SLOAD DIV MUL DUP4 MSTORE SWAP2 PUSH1 0x20 ADD SWAP2 PUSH2 0x8B7 JUMP JUMPDEST DUP3 ADD SWAP2 SWAP1 PUSH1 0x0 MSTORE PUSH1 0x20 PUSH1 0x0 KECCAK256 SWAP1 JUMPDEST DUP2 SLOAD DUP2 MSTORE SWAP1 PUSH1 0x1 ADD SWAP1 PUSH1 0x20 ADD DUP1 DUP4 GT PUSH2 0x89A JUMPI DUP3 SWAP1 SUB PUSH1 0x1F AND DUP3 ADD SWAP2 JUMPDEST POP POP POP POP POP SWAP6 POP SWAP9 POP SWAP9 POP SWAP9 POP SWAP9 POP SWAP9 POP SWAP9 POP SWAP9 POP SWAP9 POP POP SWAP2 SWAP4 SWAP6 SWAP8 POP SWAP2 SWAP4 SWAP6 SWAP8 JUMP JUMPDEST PUSH1 0x4 PUSH1 0x20 MSTORE DUP2 PUSH1 0x0 MSTORE PUSH1 0x40 PUSH1 0x0 KECCAK256 DUP2 DUP2 SLOAD DUP2 LT PUSH2 0x8F6 JUMPI PUSH1 0x0 DUP1 REVERT JUMPDEST SWAP1 PUSH1 0x0 MSTORE PUSH1 0x20 PUSH1 0x0 KECCAK256 SWAP1 PUSH1 0x3 MUL ADD PUSH1 0x0 SWAP2 POP SWAP2 POP POP DUP1 PUSH1 0x0 ADD PUSH1 0x0 SWAP1 SLOAD SWAP1 PUSH2 0x100 EXP SWAP1 DIV PUSH20 0xFFFFFFFFFFFFFFFFFFFFFFFFFFFFFFFFFFFFFFFF AND SWAP1 DUP1 PUSH1 0x1 ADD SLOAD SWAP1 DUP1 PUSH1 0x2 ADD SLOAD SWAP1 POP DUP4 JUMP JUMPDEST PUSH1 0x0 PUSH1 0x2 PUSH1 0x0 DUP5 PUSH20 0xFFFFFFFFFFFFFFFFFFFFFFFFFFFFFFFFFFFFFFFF AND PUSH20 0xFFFFFFFFFFFFFFFFFFFFFFFFFFFFFFFFFFFFFFFF AND DUP2 MSTORE PUSH1 0x20 ADD SWAP1 DUP2 MSTORE PUSH1 0x20 ADD PUSH1 0x0 KECCAK256 PUSH1 0x1 ADD PUSH1 0x0 DUP4 DUP2 MSTORE PUSH1 0x20 ADD SWAP1 DUP2 MSTORE PUSH1 0x20 ADD PUSH1 0x0 KECCAK256 PUSH1 0x0 SWAP1 SLOAD SWAP1 PUSH2 0x100 EXP SWAP1 DIV PUSH1 0xFF AND SWAP1 POP SWAP3 SWAP2 POP POP JUMP JUMPDEST PUSH1 0x0 PUSH1 0x3 PUSH1 0x0 DUP4 DUP2 MSTORE PUSH1 0x20 ADD SWAP1 DUP2 MSTORE PUSH1 0x20 ADD PUSH1 0x0 KECCAK256 SWAP1 POP PUSH1 0x0 PUSH20 0xFFFFFFFFFFFFFFFFFFFFFFFFFFFFFFFFFFFFFFFF AND DUP2 PUSH1 0x0 ADD PUSH1 0x0 SWAP1 SLOAD SWAP1 PUSH2 0x100 EXP SWAP1 DIV PUSH20 0xFFFFFFFFFFFFFFFFFFFFFFFFFFFFFFFFFFFFFFFF AND PUSH20 0xFFFFFFFFFFFFFFFFFFFFFFFFFFFFFFFFFFFFFFFF AND SUB PUSH2 0xA56 JUMPI PUSH1 0x40 MLOAD PUSH32 0x8C379A000000000000000000000000000000000000000000000000000000000 DUP2 MSTORE PUSH1 0x4 ADD PUSH2 0xA4D SWAP1 PUSH2 0x3F62 JUMP JUMPDEST PUSH1 0x40 MLOAD DUP1 SWAP2 SUB SWAP1 REVERT JUMPDEST PUSH1 0x40 MLOAD DUP1 PUSH1 0x40 ADD PUSH1 0x40 MSTORE DUP1 PUSH1 0x7 DUP2 MSTORE PUSH1 0x20 ADD PUSH32 0x70656E64696E6700000000000000000000000000000000000000000000000000 DUP2 MSTORE POP DUP1 MLOAD SWAP1 PUSH1 0x20 ADD KECCAK256 DUP2 PUSH1 0x2 ADD PUSH1 0x40 MLOAD PUSH2 0xAA4 SWAP2 SWAP1 PUSH2 0x4085 JUMP JUMPDEST PUSH1 0x40 MLOAD DUP1 SWAP2 SUB SWAP1 KECCAK256 EQ PUSH2 0xAEC JUMPI PUSH1 0x40 MLOAD PUSH32 0x8C379A000000000000000000000000000000000000000000000000000000000 DUP2 MSTORE PUSH1 0x4 ADD PUSH2 0xAE3 SWAP1 PUSH2 0x40E8 JUMP JUMPDEST PUSH1 0x40 MLOAD DUP1 SWAP2 SUB SWAP1 REVERT JUMPDEST PUSH3 0x93A80 DUP2 PUSH1 0x6 ADD SLOAD PUSH2 0xAFF SWAP2 SWAP1 PUSH2 0x4137 JUMP JUMPDEST TIMESTAMP GT PUSH2 0xB40 JUMPI PUSH1 0x40 MLOAD PUSH32 0x8C379A000000000000000000000000000000000000000000000000000000000 DUP2 MSTORE PUSH1 0x4 ADD PUSH2 0xB37 SWAP1 PUSH2 0x41B7 JUMP JUMPDEST PUSH1 0x40 MLOAD DUP1 SWAP2 SUB SWAP1 REVERT JUMPDEST PUSH1 0x0 DUP1 DUP3 PUSH1 0x8 ADD SLOAD GT PUSH2 0xB54 JUMPI PUSH1 0x0 PUSH2 0xB72 JUMP JUMPDEST PUSH1 0x64 PUSH1 0x5 DUP4 PUSH1 0x5 ADD SLOAD PUSH2 0xB67 SWAP2 SWAP1 PUSH2 0x41D7 JUMP JUMPDEST PUSH2 0xB71 SWAP2 SWAP1 PUSH2 0x4248 JUMP JUMPDEST JUMPDEST SWAP1 POP PUSH1 0x0 DUP2 DUP4 PUSH1 0x5 ADD SLOAD PUSH2 0xB86 SWAP2 SWAP1 PUSH2 0x4279 JUMP JUMPDEST SWAP1 POP PUSH1 0x0 DUP4 PUSH1 0x4 ADD SLOAD DUP5 PUSH1 0x3 ADD SLOAD PUSH2 0xB9E SWAP2 SWAP1 PUSH2 0x4137 JUMP JUMPDEST SWAP1 POP PUSH1 0x0 DUP2 GT DUP1 ISZERO PUSH2 0xBCC JUMPI POP PUSH1 0x32 DUP2 PUSH1 0x64 DUP7 PUSH1 0x3 ADD SLOAD PUSH2 0xBBF SWAP2 SWAP1 PUSH2 0x41D7 JUMP JUMPDEST PUSH2 0xBC9 SWAP2 SWAP1 PUSH2 0x4248 JUMP JUMPDEST LT ISZERO JUMPDEST ISZERO PUSH2 0xCEE JUMPI PUSH1 0x40 MLOAD DUP1 PUSH1 0x40 ADD PUSH1 0x40 MSTORE DUP1 PUSH1 0x8 DUP2 MSTORE PUSH1 0x20 ADD PUSH32 0x617070726F766564000000000000000000000000000000000000000000000000 DUP2 MSTORE POP DUP5 PUSH1 0x2 ADD SWAP1 DUP2 PUSH2 0xC17 SWAP2 SWAP1 PUSH2 0x4459 JUMP JUMPDEST POP PUSH1 0x0 DUP5 PUSH1 0x0 ADD PUSH1 0x0 SWAP1 SLOAD SWAP1 PUSH2 0x100 EXP SWAP1 DIV PUSH20 0xFFFFFFFFFFFFFFFFFFFFFFFFFFFFFFFFFFFFFFFF AND PUSH20 0xFFFFFFFFFFFFFFFFFFFFFFFFFFFFFFFFFFFFFFFF AND DUP4 PUSH1 0x40 MLOAD PUSH2 0xC62 SWAP1 PUSH2 0x4551 JUMP JUMPDEST PUSH1 0x0 PUSH1 0x40 MLOAD DUP1 DUP4 SUB DUP2 DUP6 DUP8 GAS CALL SWAP3 POP POP POP RETURNDATASIZE DUP1 PUSH1 0x0 DUP2 EQ PUSH2 0xC9F JUMPI PUSH1 0x40 MLOAD SWAP2 POP PUSH1 0x1F NOT PUSH1 0x3F RETURNDATASIZE ADD AND DUP3 ADD PUSH1 0x40 MSTORE RETURNDATASIZE DUP3 MSTORE RETURNDATASIZE PUSH1 0x0 PUSH1 0x20 DUP5 ADD RETURNDATACOPY PUSH2 0xCA4 JUMP JUMPDEST PUSH1 0x60 SWAP2 POP JUMPDEST POP POP SWAP1 POP DUP1 PUSH2 0xCE8 JUMPI PUSH1 0x40 MLOAD PUSH32 0x8C379A000000000000000000000000000000000000000000000000000000000 DUP2 MSTORE PUSH1 0x4 ADD PUSH2 0xCDF SWAP1 PUSH2 0x45B2 JUMP JUMPDEST PUSH1 0x40 MLOAD DUP1 SWAP2 SUB SWAP1 REVERT JUMPDEST POP PUSH2 0xF58 JUMP JUMPDEST PUSH1 0x40 MLOAD DUP1 PUSH1 0x40 ADD PUSH1 0x40 MSTORE DUP1 PUSH1 0x8 DUP2 MSTORE PUSH1 0x20 ADD PUSH32 0x72656A6563746564000000000000000000000000000000000000000000000000 DUP2 MSTORE POP DUP5 PUSH1 0x2 ADD SWAP1 DUP2 PUSH2 0xD34 SWAP2 SWAP1 PUSH2 0x4459 JUMP JUMPDEST POP PUSH1 0x0 DUP1 JUMPDEST PUSH1 0x4 PUSH1 0x0 DUP9 DUP2 MSTORE PUSH1 0x20 ADD SWAP1 DUP2 MSTORE PUSH1 0x20 ADD PUSH1 0x0 KECCAK256 DUP1 SLOAD SWAP1 POP DUP2 LT ISZERO PUSH2 0xDA8 JUMPI PUSH1 0x4 PUSH1 0x0 DUP9 DUP2 MSTORE PUSH1 0x20 ADD SWAP1 DUP2 MSTORE PUSH1 0x20 ADD PUSH1 0x0 KECCAK256 DUP2 DUP2 SLOAD DUP2 LT PUSH2 0xD7C JUMPI PUSH2 0xD7B PUSH2 0x45D2 JUMP JUMPDEST JUMPDEST SWAP1 PUSH1 0x0 MSTORE PUSH1 0x20 PUSH1 0x0 KECCAK256 SWAP1 PUSH1 0x3 MUL ADD PUSH1 0x1 ADD SLOAD DUP3 PUSH2 0xD99 SWAP2 SWAP1 PUSH2 0x4137 JUMP JUMPDEST SWAP2 POP DUP1 DUP1 PUSH1 0x1 ADD SWAP2 POP POP PUSH2 0xD39 JUMP JUMPDEST POP PUSH1 0x0 JUMPDEST PUSH1 0x4 PUSH1 0x0 DUP9 DUP2 MSTORE PUSH1 0x20 ADD SWAP1 DUP2 MSTORE PUSH1 0x20 ADD PUSH1 0x0 KECCAK256 DUP1 SLOAD SWAP1 POP DUP2 LT ISZERO PUSH2 0xF55 JUMPI PUSH1 0x0 PUSH1 0x4 PUSH1 0x0 DUP10 DUP2 MSTORE PUSH1 0x20 ADD SWAP1 DUP2 MSTORE PUSH1 0x20 ADD PUSH1 0x0 KECCAK256 DUP3 DUP2 SLOAD DUP2 LT PUSH2 0xDF1 JUMPI PUSH2 0xDF0 PUSH2 0x45D2 JUMP JUMPDEST JUMPDEST SWAP1 PUSH1 0x0 MSTORE PUSH1 0x20 PUSH1 0x0 KECCAK256 SWAP1 PUSH1 0x3 MUL ADD PUSH1 0x40 MLOAD DUP1 PUSH1 0x60 ADD PUSH1 0x40 MSTORE SWAP1 DUP2 PUSH1 0x0 DUP3 ADD PUSH1 0x0 SWAP1 SLOAD SWAP1 PUSH2 0x100 EXP SWAP1 DIV PUSH20 0xFFFFFFFFFFFFFFFFFFFFFFFFFFFFFFFFFFFFFFFF AND PUSH20 0xFFFFFFFFFFFFFFFFFFFFFFFFFFFFFFFFFFFFFFFF AND PUSH20 0xFFFFFFFFFFFFFFFFFFFFFFFFFFFFFFFFFFFFFFFF AND DUP2 MSTORE PUSH1 0x20 ADD PUSH1 0x1 DUP3 ADD SLOAD DUP2 MSTORE PUSH1 0x20 ADD PUSH1 0x2 DUP3 ADD SLOAD DUP2 MSTORE POP POP SWAP1 POP PUSH1 0x0 DUP4 DUP7 DUP4 PUSH1 0x20 ADD MLOAD PUSH2 0xE89 SWAP2 SWAP1 PUSH2 0x41D7 JUMP JUMPDEST PUSH2 0xE93 SWAP2 SWAP1 PUSH2 0x4248 JUMP JUMPDEST SWAP1 POP PUSH1 0x0 DUP3 PUSH1 0x0 ADD MLOAD PUSH20 0xFFFFFFFFFFFFFFFFFFFFFFFFFFFFFFFFFFFFFFFF AND DUP3 PUSH1 0x40 MLOAD PUSH2 0xEBF SWAP1 PUSH2 0x4551 JUMP JUMPDEST PUSH1 0x0 PUSH1 0x40 MLOAD DUP1 DUP4 SUB DUP2 DUP6 DUP8 GAS CALL SWAP3 POP POP POP RETURNDATASIZE DUP1 PUSH1 0x0 DUP2 EQ PUSH2 0xEFC JUMPI PUSH1 0x40 MLOAD SWAP2 POP PUSH1 0x1F NOT PUSH1 0x3F RETURNDATASIZE ADD AND DUP3 ADD PUSH1 0x40 MSTORE RETURNDATASIZE DUP3 MSTORE RETURNDATASIZE PUSH1 0x0 PUSH1 0x20 DUP5 ADD RETURNDATACOPY PUSH2 0xF01 JUMP JUMPDEST PUSH1 0x60 SWAP2 POP JUMPDEST POP POP SWAP1 POP DUP1 PUSH2 0xF45 JUMPI PUSH1 0x40 MLOAD PUSH32 0x8C379A000000000000000000000000000000000000000000000000000000000 DUP2 MSTORE PUSH1 0x4 ADD PUSH2 0xF3C SWAP1 PUSH2 0x464D JUMP JUMPDEST PUSH1 0x40 MLOAD DUP1 SWAP2 SUB SWAP1 REVERT JUMPDEST POP POP POP DUP1 DUP1 PUSH1 0x1 ADD SWAP2 POP POP PUSH2 0xDAC JUMP JUMPDEST POP POP JUMPDEST PUSH32 0x622E8AEA88C24B5860EE5C8B8FBF8E18B632E7A412ED546C499DED2088E187AD DUP6 DUP6 PUSH1 0x2 ADD PUSH1 0x40 MLOAD PUSH2 0xF8C SWAP3 SWAP2 SWAP1 PUSH2 0x46F1 JUMP JUMPDEST PUSH1 0x40 MLOAD DUP1 SWAP2 SUB SWAP1 LOG1 POP POP POP POP POP JUMP JUMPDEST PUSH1 0x0 CALLVALUE GT PUSH2 0xFDE JUMPI PUSH1 0x40 MLOAD PUSH32 0x8C379A000000000000000000000000000000000000000000000000000000000 DUP2 MSTORE PUSH1 0x4 ADD PUSH2 0xFD5 SWAP1 PUSH2 0x476D JUMP JUMPDEST PUSH1 0x40 MLOAD DUP1 SWAP2 SUB SWAP1 REVERT JUMPDEST PUSH1 0x0 PUSH1 0x1 PUSH1 0x0 CALLER PUSH20 0xFFFFFFFFFFFFFFFFFFFFFFFFFFFFFFFFFFFFFFFF AND PUSH20 0xFFFFFFFFFFFFFFFFFFFFFFFFFFFFFFFFFFFFFFFF AND DUP2 MSTORE PUSH1 0x20 ADD SWAP1 DUP2 MSTORE PUSH1 0x20 ADD PUSH1 0x0 KECCAK256 PUSH1 0x2 ADD SLOAD EQ PUSH2 0x1063 JUMPI PUSH1 0x40 MLOAD PUSH32 0x8C379A000000000000000000000000000000000000000000000000000000000 DUP2 MSTORE PUSH1 0x4 ADD PUSH2 0x105A SWAP1 PUSH2 0x47D9 JUMP JUMPDEST PUSH1 0x40 MLOAD DUP1 SWAP2 SUB SWAP1 REVERT JUMPDEST PUSH1 0x40 MLOAD DUP1 PUSH1 0xA0 ADD PUSH1 0x40 MSTORE DUP1 DUP5 DUP2 MSTORE PUSH1 0x20 ADD DUP4 DUP2 MSTORE PUSH1 0x20 ADD CALLVALUE DUP2 MSTORE PUSH1 0x20 ADD DUP3 DUP2 MSTORE PUSH1 0x20 ADD PUSH1 0x0 PUSH8 0xFFFFFFFFFFFFFFFF DUP2 GT ISZERO PUSH2 0x10A1 JUMPI PUSH2 0x10A0 PUSH2 0x3712 JUMP JUMPDEST JUMPDEST PUSH1 0x40 MLOAD SWAP1 DUP1 DUP3 MSTORE DUP1 PUSH1 0x20 MUL PUSH1 0x20 ADD DUP3 ADD PUSH1 0x40 MSTORE DUP1 ISZERO PUSH2 0x10CF JUMPI DUP2 PUSH1 0x20 ADD PUSH1 0x20 DUP3 MUL DUP1 CALLDATASIZE DUP4 CALLDATACOPY DUP1 DUP3 ADD SWAP2 POP POP SWAP1 POP JUMPDEST POP DUP2 MSTORE POP PUSH1 0x1 PUSH1 0x0 CALLER PUSH20 0xFFFFFFFFFFFFFFFFFFFFFFFFFFFFFFFFFFFFFFFF AND PUSH20 0xFFFFFFFFFFFFFFFFFFFFFFFFFFFFFFFFFFFFFFFF AND DUP2 MSTORE PUSH1 0x20 ADD SWAP1 DUP2 MSTORE PUSH1 0x20 ADD PUSH1 0x0 KECCAK256 PUSH1 0x0 DUP3 ADD MLOAD DUP2 PUSH1 0x0 ADD SWAP1 DUP2 PUSH2 0x1127 SWAP2 SWAP1 PUSH2 0x4459 JUMP JUMPDEST POP PUSH1 0x20 DUP3 ADD MLOAD DUP2 PUSH1 0x1 ADD SWAP1 DUP2 PUSH2 0x113D SWAP2 SWAP1 PUSH2 0x4459 JUMP JUMPDEST POP PUSH1 0x40 DUP3 ADD MLOAD DUP2 PUSH1 0x2 ADD SSTORE PUSH1 0x60 DUP3 ADD MLOAD DUP2 PUSH1 0x3 ADD SWAP1 DUP2 PUSH2 0x115D SWAP2 SWAP1 PUSH2 0x4459 JUMP JUMPDEST POP PUSH1 0x80 DUP3 ADD MLOAD DUP2 PUSH1 0x4 ADD SWAP1 DUP1 MLOAD SWAP1 PUSH1 0x20 ADD SWAP1 PUSH2 0x117A SWAP3 SWAP2 SWAP1 PUSH2 0x31D9 JUMP JUMPDEST POP SWAP1 POP POP PUSH1 0x6 CALLER SWAP1 DUP1 PUSH1 0x1 DUP2 SLOAD ADD DUP1 DUP3 SSTORE DUP1 SWAP2 POP POP PUSH1 0x1 SWAP1 SUB SWAP1 PUSH1 0x0 MSTORE PUSH1 0x20 PUSH1 0x0 KECCAK256 ADD PUSH1 0x0 SWAP1 SWAP2 SWAP1 SWAP2 SWAP1 SWAP2 PUSH2 0x100 EXP DUP2 SLOAD DUP2 PUSH20 0xFFFFFFFFFFFFFFFFFFFFFFFFFFFFFFFFFFFFFFFF MUL NOT AND SWAP1 DUP4 PUSH20 0xFFFFFFFFFFFFFFFFFFFFFFFFFFFFFFFFFFFFFFFF AND MUL OR SWAP1 SSTORE POP PUSH32 0x386741C0345C35E0430DDFE5FEE0C0AFBFAD9DE0F6C1F1ECE8021927C2F7320 CALLER DUP5 PUSH1 0x40 MLOAD PUSH2 0x1212 SWAP3 SWAP2 SWAP1 PUSH2 0x47F9 JUMP JUMPDEST PUSH1 0x40 MLOAD DUP1 SWAP2 SUB SWAP1 LOG1 POP POP POP JUMP JUMPDEST PUSH1 0x5 SLOAD DUP2 JUMP JUMPDEST PUSH1 0x60 PUSH1 0x4 PUSH1 0x0 DUP4 DUP2 MSTORE PUSH1 0x20 ADD SWAP1 DUP2 MSTORE PUSH1 0x20 ADD PUSH1 0x0 KECCAK256 DUP1 SLOAD DUP1 PUSH1 0x20 MUL PUSH1 0x20 ADD PUSH1 0x40 MLOAD SWAP1 DUP2 ADD PUSH1 0x40 MSTORE DUP1 SWAP3 SWAP2 SWAP1 DUP2 DUP2 MSTORE PUSH1 0x20 ADD PUSH1 0x0 SWAP1 JUMPDEST DUP3 DUP3 LT ISZERO PUSH2 0x12F6 JUMPI DUP4 DUP3 SWAP1 PUSH1 0x0 MSTORE PUSH1 0x20 PUSH1 0x0 KECCAK256 SWAP1 PUSH1 0x3 MUL ADD PUSH1 0x40 MLOAD DUP1 PUSH1 0x60 ADD PUSH1 0x40 MSTORE SWAP1 DUP2 PUSH1 0x0 DUP3 ADD PUSH1 0x0 SWAP1 SLOAD SWAP1 PUSH2 0x100 EXP SWAP1 DIV PUSH20 0xFFFFFFFFFFFFFFFFFFFFFFFFFFFFFFFFFFFFFFFF AND PUSH20 0xFFFFFFFFFFFFFFFFFFFFFFFFFFFFFFFFFFFFFFFF AND PUSH20 0xFFFFFFFFFFFFFFFFFFFFFFFFFFFFFFFFFFFFFFFF AND DUP2 MSTORE PUSH1 0x20 ADD PUSH1 0x1 DUP3 ADD SLOAD DUP2 MSTORE PUSH1 0x20 ADD PUSH1 0x2 DUP3 ADD SLOAD DUP2 MSTORE POP POP DUP2 MSTORE PUSH1 0x20 ADD SWAP1 PUSH1 0x1 ADD SWAP1 PUSH2 0x125A JUMP JUMPDEST POP POP POP POP SWAP1 POP SWAP2 SWAP1 POP JUMP JUMPDEST PUSH1 0x60 DUP1 PUSH1 0x0 PUSH1 0x60 PUSH1 0x0 PUSH1 0x1 PUSH1 0x0 DUP8 PUSH20 0xFFFFFFFFFFFFFFFFFFFFFFFFFFFFFFFFFFFFFFFF AND PUSH20 0xFFFFFFFFFFFFFFFFFFFFFFFFFFFFFFFFFFFFFFFF AND DUP2 MSTORE PUSH1 0x20 ADD SWAP1 DUP2 MSTORE PUSH1 0x20 ADD PUSH1 0x0 KECCAK256 SWAP1 POP PUSH1 0x0 DUP2 PUSH1 0x2 ADD SLOAD GT PUSH2 0x1392 JUMPI PUSH1 0x40 MLOAD PUSH32 0x8C379A000000000000000000000000000000000000000000000000000000000 DUP2 MSTORE PUSH1 0x4 ADD PUSH2 0x1389 SWAP1 PUSH2 0x4875 JUMP JUMPDEST PUSH1 0x40 MLOAD DUP1 SWAP2 SUB SWAP1 REVERT JUMPDEST DUP1 PUSH1 0x0 ADD DUP2 PUSH1 0x1 ADD DUP3 PUSH1 0x2 ADD SLOAD DUP4 PUSH1 0x4 ADD DUP4 DUP1 SLOAD PUSH2 0x13AF SWAP1 PUSH2 0x3FB1 JUMP JUMPDEST DUP1 PUSH1 0x1F ADD PUSH1 0x20 DUP1 SWAP2 DIV MUL PUSH1 0x20 ADD PUSH1 0x40 MLOAD SWAP1 DUP2 ADD PUSH1 0x40 MSTORE DUP1 SWAP3 SWAP2 SWAP1 DUP2 DUP2 MSTORE PUSH1 0x20 ADD DUP3 DUP1 SLOAD PUSH2 0x13DB SWAP1 PUSH2 0x3FB1 JUMP JUMPDEST DUP1 ISZERO PUSH2 0x1428 JUMPI DUP1 PUSH1 0x1F LT PUSH2 0x13FD JUMPI PUSH2 0x100 DUP1 DUP4 SLOAD DIV MUL DUP4 MSTORE SWAP2 PUSH1 0x20 ADD SWAP2 PUSH2 0x1428 JUMP JUMPDEST DUP3 ADD SWAP2 SWAP1 PUSH1 0x0 MSTORE PUSH1 0x20 PUSH1 0x0 KECCAK256 SWAP1 JUMPDEST DUP2 SLOAD DUP2 MSTORE SWAP1 PUSH1 0x1 ADD SWAP1 PUSH1 0x20 ADD DUP1 DUP4 GT PUSH2 0x140B JUMPI DUP3 SWAP1 SUB PUSH1 0x1F AND DUP3 ADD SWAP2 JUMPDEST POP POP POP POP POP SWAP4 POP DUP3 DUP1 SLOAD PUSH2 0x143B SWAP1 PUSH2 0x3FB1 JUMP JUMPDEST DUP1 PUSH1 0x1F ADD PUSH1 0x20 DUP1 SWAP2 DIV MUL PUSH1 0x20 ADD PUSH1 0x40 MLOAD SWAP1 DUP2 ADD PUSH1 0x40 MSTORE DUP1 SWAP3 SWAP2 SWAP1 DUP2 DUP2 MSTORE PUSH1 0x20 ADD DUP3 DUP1 SLOAD PUSH2 0x1467 SWAP1 PUSH2 0x3FB1 JUMP JUMPDEST DUP1 ISZERO PUSH2 0x14B4 JUMPI DUP1 PUSH1 0x1F LT PUSH2 0x1489 JUMPI PUSH2 0x100 DUP1 DUP4 SLOAD DIV MUL DUP4 MSTORE SWAP2 PUSH1 0x20 ADD SWAP2 PUSH2 0x14B4 JUMP JUMPDEST DUP3 ADD SWAP2 SWAP1 PUSH1 0x0 MSTORE PUSH1 0x20 PUSH1 0x0 KECCAK256 SWAP1 JUMPDEST DUP2 SLOAD DUP2 MSTORE SWAP1 PUSH1 0x1 ADD SWAP1 PUSH1 0x20 ADD DUP1 DUP4 GT PUSH2 0x1497 JUMPI DUP3 SWAP1 SUB PUSH1 0x1F AND DUP3 ADD SWAP2 JUMPDEST POP POP POP POP POP SWAP3 POP DUP1 DUP1 SLOAD DUP1 PUSH1 0x20 MUL PUSH1 0x20 ADD PUSH1 0x40 MLOAD SWAP1 DUP2 ADD PUSH1 0x40 MSTORE DUP1 SWAP3 SWAP2 SWAP1 DUP2 DUP2 MSTORE PUSH1 0x20 ADD DUP3 DUP1 SLOAD DUP1 ISZERO PUSH2 0x1506 JUMPI PUSH1 0x20 MUL DUP3 ADD SWAP2 SWAP1 PUSH1 0x0 MSTORE PUSH1 0x20 PUSH1 0x0 KECCAK256 SWAP1 JUMPDEST DUP2 SLOAD DUP2 MSTORE PUSH1 0x20 ADD SWAP1 PUSH1 0x1 ADD SWAP1 DUP1 DUP4 GT PUSH2 0x14F2 JUMPI JUMPDEST POP POP POP POP POP SWAP1 POP SWAP5 POP SWAP5 POP SWAP5 POP SWAP5 POP POP SWAP2 SWAP4 POP SWAP2 SWAP4 JUMP JUMPDEST PUSH1 0x0 PUSH1 0x1 PUSH1 0x0 CALLER PUSH20 0xFFFFFFFFFFFFFFFFFFFFFFFFFFFFFFFFFFFFFFFF AND PUSH20 0xFFFFFFFFFFFFFFFFFFFFFFFFFFFFFFFFFFFFFFFF AND DUP2 MSTORE PUSH1 0x20 ADD SWAP1 DUP2 MSTORE PUSH1 0x20 ADD PUSH1 0x0 KECCAK256 PUSH1 0x2 ADD SLOAD GT PUSH2 0x15A2 JUMPI PUSH1 0x40 MLOAD PUSH32 0x8C379A000000000000000000000000000000000000000000000000000000000 DUP2 MSTORE PUSH1 0x4 ADD PUSH2 0x1599 SWAP1 PUSH2 0x4875 JUMP JUMPDEST PUSH1 0x40 MLOAD DUP1 SWAP2 SUB SWAP1 REVERT JUMPDEST PUSH1 0x5 PUSH1 0x0 DUP2 SLOAD DUP1 SWAP3 SWAP2 SWAP1 PUSH2 0x15B5 SWAP1 PUSH2 0x4895 JUMP JUMPDEST SWAP2 SWAP1 POP SSTORE POP PUSH1 0x0 PUSH1 0x3 PUSH1 0x0 PUSH1 0x5 SLOAD DUP2 MSTORE PUSH1 0x20 ADD SWAP1 DUP2 MSTORE PUSH1 0x20 ADD PUSH1 0x0 KECCAK256 SWAP1 POP CALLER DUP2 PUSH1 0x0 ADD PUSH1 0x0 PUSH2 0x100 EXP DUP2 SLOAD DUP2 PUSH20 0xFFFFFFFFFFFFFFFFFFFFFFFFFFFFFFFFFFFFFFFF MUL NOT AND SWAP1 DUP4 PUSH20 0xFFFFFFFFFFFFFFFFFFFFFFFFFFFFFFFFFFFFFFFF AND MUL OR SWAP1 SSTORE POP DUP2 DUP2 PUSH1 0x1 ADD SWAP1 DUP1 MLOAD SWAP1 PUSH1 0x20 ADD SWAP1 PUSH2 0x162E SWAP3 SWAP2 SWAP1 PUSH2 0x3226 JUMP JUMPDEST POP PUSH1 0x40 MLOAD DUP1 PUSH1 0x40 ADD PUSH1 0x40 MSTORE DUP1 PUSH1 0x7 DUP2 MSTORE PUSH1 0x20 ADD PUSH32 0x70656E64696E6700000000000000000000000000000000000000000000000000 DUP2 MSTORE POP DUP2 PUSH1 0x2 ADD SWAP1 DUP2 PUSH2 0x1675 SWAP2 SWAP1 PUSH2 0x4459 JUMP JUMPDEST POP TIMESTAMP DUP2 PUSH1 0x6 ADD DUP2 SWAP1 SSTORE POP PUSH1 0x1 PUSH1 0x0 CALLER PUSH20 0xFFFFFFFFFFFFFFFFFFFFFFFFFFFFFFFFFFFFFFFF AND PUSH20 0xFFFFFFFFFFFFFFFFFFFFFFFFFFFFFFFFFFFFFFFF AND DUP2 MSTORE PUSH1 0x20 ADD SWAP1 DUP2 MSTORE PUSH1 0x20 ADD PUSH1 0x0 KECCAK256 PUSH1 0x4 ADD PUSH1 0x5 SLOAD SWAP1 DUP1 PUSH1 0x1 DUP2 SLOAD ADD DUP1 DUP3 SSTORE DUP1 SWAP2 POP POP PUSH1 0x1 SWAP1 SUB SWAP1 PUSH1 0x0 MSTORE PUSH1 0x20 PUSH1 0x0 KECCAK256 ADD PUSH1 0x0 SWAP1 SWAP2 SWAP1 SWAP2 SWAP1 SWAP2 POP SSTORE PUSH32 0xE9EE39160568153D230CA0E29961267415D513DEFBB7D3B21AF0FE940E1EBD15 PUSH1 0x5 SLOAD CALLER PUSH1 0x40 MLOAD PUSH2 0x171D SWAP3 SWAP2 SWAP1 PUSH2 0x48DD JUMP JUMPDEST PUSH1 0x40 MLOAD DUP1 SWAP2 SUB SWAP1 LOG1 POP POP JUMP JUMPDEST PUSH1 0x60 PUSH1 0x0 PUSH1 0x5 SLOAD PUSH8 0xFFFFFFFFFFFFFFFF DUP2 GT ISZERO PUSH2 0x1749 JUMPI PUSH2 0x1748 PUSH2 0x3712 JUMP JUMPDEST JUMPDEST PUSH1 0x40 MLOAD SWAP1 DUP1 DUP3 MSTORE DUP1 PUSH1 0x20 MUL PUSH1 0x20 ADD DUP3 ADD PUSH1 0x40 MSTORE DUP1 ISZERO PUSH2 0x1777 JUMPI DUP2 PUSH1 0x20 ADD PUSH1 0x20 DUP3 MUL DUP1 CALLDATASIZE DUP4 CALLDATACOPY DUP1 DUP3 ADD SWAP2 POP POP SWAP1 POP JUMPDEST POP SWAP1 POP PUSH1 0x0 PUSH1 0x1 SWAP1 POP JUMPDEST PUSH1 0x5 SLOAD DUP2 GT PUSH2 0x17C9 JUMPI DUP1 DUP3 PUSH1 0x1 DUP4 PUSH2 0x1799 SWAP2 SWAP1 PUSH2 0x4279 JUMP JUMPDEST DUP2 MLOAD DUP2 LT PUSH2 0x17AA JUMPI PUSH2 0x17A9 PUSH2 0x45D2 JUMP JUMPDEST JUMPDEST PUSH1 0x20 MUL PUSH1 0x20 ADD ADD DUP2 DUP2 MSTORE POP POP DUP1 DUP1 PUSH2 0x17C1 SWAP1 PUSH2 0x4895 JUMP JUMPDEST SWAP2 POP POP PUSH2 0x1781 JUMP JUMPDEST POP DUP1 SWAP2 POP POP SWAP1 JUMP JUMPDEST PUSH1 0x60 DUP1 PUSH1 0x0 PUSH1 0x1 PUSH1 0x0 DUP6 PUSH20 0xFFFFFFFFFFFFFFFFFFFFFFFFFFFFFFFFFFFFFFFF AND PUSH20 0xFFFFFFFFFFFFFFFFFFFFFFFFFFFFFFFFFFFFFFFF AND DUP2 MSTORE PUSH1 0x20 ADD SWAP1 DUP2 MSTORE PUSH1 0x20 ADD PUSH1 0x0 KECCAK256 SWAP1 POP PUSH1 0x0 DUP2 PUSH1 0x2 ADD SLOAD GT PUSH2 0x185E JUMPI PUSH1 0x40 MLOAD PUSH32 0x8C379A000000000000000000000000000000000000000000000000000000000 DUP2 MSTORE PUSH1 0x4 ADD PUSH2 0x1855 SWAP1 PUSH2 0x4875 JUMP JUMPDEST PUSH1 0x40 MLOAD DUP1 SWAP2 SUB SWAP1 REVERT JUMPDEST DUP1 PUSH1 0x4 ADD DUP1 SLOAD DUP1 PUSH1 0x20 MUL PUSH1 0x20 ADD PUSH1 0x40 MLOAD SWAP1 DUP2 ADD PUSH1 0x40 MSTORE DUP1 SWAP3 SWAP2 SWAP1 DUP2 DUP2 MSTORE PUSH1 0x20 ADD DUP3 DUP1 SLOAD DUP1 ISZERO PUSH2 0x18AC JUMPI PUSH1 0x20 MUL DUP3 ADD SWAP2 SWAP1 PUSH1 0x0 MSTORE PUSH1 0x20 PUSH1 0x0 KECCAK256 SWAP1 JUMPDEST DUP2 SLOAD DUP2 MSTORE PUSH1 0x20 ADD SWAP1 PUSH1 0x1 ADD SWAP1 DUP1 DUP4 GT PUSH2 0x1898 JUMPI JUMPDEST POP POP POP POP POP SWAP3 POP DUP3 MLOAD PUSH8 0xFFFFFFFFFFFFFFFF DUP2 GT ISZERO PUSH2 0x18CE JUMPI PUSH2 0x18CD PUSH2 0x3712 JUMP JUMPDEST JUMPDEST PUSH1 0x40 MLOAD SWAP1 DUP1 DUP3 MSTORE DUP1 PUSH1 0x20 MUL PUSH1 0x20 ADD DUP3 ADD PUSH1 0x40 MSTORE DUP1 ISZERO PUSH2 0x1901 JUMPI DUP2 PUSH1 0x20 ADD JUMPDEST PUSH1 0x60 DUP2 MSTORE PUSH1 0x20 ADD SWAP1 PUSH1 0x1 SWAP1 SUB SWAP1 DUP2 PUSH2 0x18EC JUMPI SWAP1 POP JUMPDEST POP SWAP2 POP PUSH1 0x0 JUMPDEST DUP4 MLOAD DUP2 LT ISZERO PUSH2 0x19F4 JUMPI PUSH1 0x3 PUSH1 0x0 DUP6 DUP4 DUP2 MLOAD DUP2 LT PUSH2 0x1927 JUMPI PUSH2 0x1926 PUSH2 0x45D2 JUMP JUMPDEST JUMPDEST PUSH1 0x20 MUL PUSH1 0x20 ADD ADD MLOAD DUP2 MSTORE PUSH1 0x20 ADD SWAP1 DUP2 MSTORE PUSH1 0x20 ADD PUSH1 0x0 KECCAK256 PUSH1 0x2 ADD DUP1 SLOAD PUSH2 0x194B SWAP1 PUSH2 0x3FB1 JUMP JUMPDEST DUP1 PUSH1 0x1F ADD PUSH1 0x20 DUP1 SWAP2 DIV MUL PUSH1 0x20 ADD PUSH1 0x40 MLOAD SWAP1 DUP2 ADD PUSH1 0x40 MSTORE DUP1 SWAP3 SWAP2 SWAP1 DUP2 DUP2 MSTORE PUSH1 0x20 ADD DUP3 DUP1 SLOAD PUSH2 0x1977 SWAP1 PUSH2 0x3FB1 JUMP JUMPDEST DUP1 ISZERO PUSH2 0x19C4 JUMPI DUP1 PUSH1 0x1F LT PUSH2 0x1999 JUMPI PUSH2 0x100 DUP1 DUP4 SLOAD DIV MUL DUP4 MSTORE SWAP2 PUSH1 0x20 ADD SWAP2 PUSH2 0x19C4 JUMP JUMPDEST DUP3 ADD SWAP2 SWAP1 PUSH1 0x0 MSTORE PUSH1 0x20 PUSH1 0x0 KECCAK256 SWAP1 JUMPDEST DUP2 SLOAD DUP2 MSTORE SWAP1 PUSH1 0x1 ADD SWAP1 PUSH1 0x20 ADD DUP1 DUP4 GT PUSH2 0x19A7 JUMPI DUP3 SWAP1 SUB PUSH1 0x1F AND DUP3 ADD SWAP2 JUMPDEST POP POP POP POP POP DUP4 DUP3 DUP2 MLOAD DUP2 LT PUSH2 0x19DC JUMPI PUSH2 0x19DB PUSH2 0x45D2 JUMP JUMPDEST JUMPDEST PUSH1 0x20 MUL PUSH1 0x20 ADD ADD DUP2 SWAP1 MSTORE POP DUP1 DUP1 PUSH1 0x1 ADD SWAP2 POP POP PUSH2 0x1907 JUMP JUMPDEST POP POP SWAP2 POP SWAP2 JUMP JUMPDEST PUSH1 0x60 PUSH1 0x6 DUP1 SLOAD DUP1 PUSH1 0x20 MUL PUSH1 0x20 ADD PUSH1 0x40 MLOAD SWAP1 DUP2 ADD PUSH1 0x40 MSTORE DUP1 SWAP3 SWAP2 SWAP1 DUP2 DUP2 MSTORE PUSH1 0x20 ADD DUP3 DUP1 SLOAD DUP1 ISZERO PUSH2 0x1A7F JUMPI PUSH1 0x20 MUL DUP3 ADD SWAP2 SWAP1 PUSH1 0x0 MSTORE PUSH1 0x20 PUSH1 0x0 KECCAK256 SWAP1 JUMPDEST DUP2 PUSH1 0x0 SWAP1 SLOAD SWAP1 PUSH2 0x100 EXP SWAP1 DIV PUSH20 0xFFFFFFFFFFFFFFFFFFFFFFFFFFFFFFFFFFFFFFFF AND PUSH20 0xFFFFFFFFFFFFFFFFFFFFFFFFFFFFFFFFFFFFFFFF AND DUP2 MSTORE PUSH1 0x20 ADD SWAP1 PUSH1 0x1 ADD SWAP1 DUP1 DUP4 GT PUSH2 0x1A35 JUMPI JUMPDEST POP POP POP POP POP SWAP1 POP SWAP1 JUMP JUMPDEST PUSH1 0x3 PUSH1 0x20 MSTORE DUP1 PUSH1 0x0 MSTORE PUSH1 0x40 PUSH1 0x0 KECCAK256 PUSH1 0x0 SWAP2 POP SWAP1 POP DUP1 PUSH1 0x0 ADD PUSH1 0x0 SWAP1 SLOAD SWAP1 PUSH2 0x100 EXP SWAP1 DIV PUSH20 0xFFFFFFFFFFFFFFFFFFFFFFFFFFFFFFFFFFFFFFFF AND SWAP1 DUP1 PUSH1 0x2 ADD DUP1 SLOAD PUSH2 0x1AD2 SWAP1 PUSH2 0x3FB1 JUMP JUMPDEST DUP1 PUSH1 0x1F ADD PUSH1 0x20 DUP1 SWAP2 DIV MUL PUSH1 0x20 ADD PUSH1 0x40 MLOAD SWAP1 DUP2 ADD PUSH1 0x40 MSTORE DUP1 SWAP3 SWAP2 SWAP1 DUP2 DUP2 MSTORE PUSH1 0x20 ADD DUP3 DUP1 SLOAD PUSH2 0x1AFE SWAP1 PUSH2 0x3FB1 JUMP JUMPDEST DUP1 ISZERO PUSH2 0x1B4B JUMPI DUP1 PUSH1 0x1F LT PUSH2 0x1B20 JUMPI PUSH2 0x100 DUP1 DUP4 SLOAD DIV MUL DUP4 MSTORE SWAP2 PUSH1 0x20 ADD SWAP2 PUSH2 0x1B4B JUMP JUMPDEST DUP3 ADD SWAP2 SWAP1 PUSH1 0x0 MSTORE PUSH1 0x20 PUSH1 0x0 KECCAK256 SWAP1 JUMPDEST DUP2 SLOAD DUP2 MSTORE SWAP1 PUSH1 0x1 ADD SWAP1 PUSH1 0x20 ADD DUP1 DUP4 GT PUSH2 0x1B2E JUMPI DUP3 SWAP1 SUB PUSH1 0x1F AND DUP3 ADD SWAP2 JUMPDEST POP POP POP POP POP SWAP1 DUP1 PUSH1 0x3 ADD SLOAD SWAP1 DUP1 PUSH1 0x4 ADD SLOAD SWAP1 DUP1 PUSH1 0x5 ADD SLOAD SWAP1 DUP1 PUSH1 0x6 ADD SLOAD SWAP1 DUP1 PUSH1 0x8 ADD SLOAD SWAP1 POP DUP8 JUMP JUMPDEST PUSH1 0x0 DUP1 SLOAD SWAP1 PUSH2 0x100 EXP SWAP1 DIV PUSH20 0xFFFFFFFFFFFFFFFFFFFFFFFFFFFFFFFFFFFFFFFF AND DUP2 JUMP JUMPDEST PUSH1 0x0 DUP1 PUSH1 0x1 PUSH1 0x0 DUP5 PUSH20 0xFFFFFFFFFFFFFFFFFFFFFFFFFFFFFFFFFFFFFFFF AND PUSH20 0xFFFFFFFFFFFFFFFFFFFFFFFFFFFFFFFFFFFFFFFF AND DUP2 MSTORE PUSH1 0x20 ADD SWAP1 DUP2 MSTORE PUSH1 0x20 ADD PUSH1 0x0 KECCAK256 SWAP1 POP PUSH1 0x0 DUP2 PUSH1 0x2 ADD SLOAD GT PUSH2 0x1C22 JUMPI PUSH1 0x40 MLOAD PUSH32 0x8C379A000000000000000000000000000000000000000000000000000000000 DUP2 MSTORE PUSH1 0x4 ADD PUSH2 0x1C19 SWAP1 PUSH2 0x4875 JUMP JUMPDEST PUSH1 0x40 MLOAD DUP1 SWAP2 SUB SWAP1 REVERT JUMPDEST PUSH1 0x0 SWAP2 POP PUSH1 0x0 JUMPDEST DUP2 PUSH1 0x4 ADD DUP1 SLOAD SWAP1 POP DUP2 LT ISZERO PUSH2 0x1D17 JUMPI PUSH1 0x40 MLOAD DUP1 PUSH1 0x40 ADD PUSH1 0x40 MSTORE DUP1 PUSH1 0x8 DUP2 MSTORE PUSH1 0x20 ADD PUSH32 0x617070726F766564000000000000000000000000000000000000000000000000 DUP2 MSTORE POP DUP1 MLOAD SWAP1 PUSH1 0x20 ADD KECCAK256 PUSH1 0x3 PUSH1 0x0 DUP5 PUSH1 0x4 ADD DUP5 DUP2 SLOAD DUP2 LT PUSH2 0x1C8F JUMPI PUSH2 0x1C8E PUSH2 0x45D2 JUMP JUMPDEST JUMPDEST SWAP1 PUSH1 0x0 MSTORE PUSH1 0x20 PUSH1 0x0 KECCAK256 ADD SLOAD DUP2 MSTORE PUSH1 0x20 ADD SWAP1 DUP2 MSTORE PUSH1 0x20 ADD PUSH1 0x0 KECCAK256 PUSH1 0x2 ADD PUSH1 0x40 MLOAD PUSH2 0x1CB8 SWAP2 SWAP1 PUSH2 0x4085 JUMP JUMPDEST PUSH1 0x40 MLOAD DUP1 SWAP2 SUB SWAP1 KECCAK256 SUB PUSH2 0x1D0A JUMPI PUSH1 0x3 PUSH1 0x0 DUP4 PUSH1 0x4 ADD DUP4 DUP2 SLOAD DUP2 LT PUSH2 0x1CDF JUMPI PUSH2 0x1CDE PUSH2 0x45D2 JUMP JUMPDEST JUMPDEST SWAP1 PUSH1 0x0 MSTORE PUSH1 0x20 PUSH1 0x0 KECCAK256 ADD SLOAD DUP2 MSTORE PUSH1 0x20 ADD SWAP1 DUP2 MSTORE PUSH1 0x20 ADD PUSH1 0x0 KECCAK256 PUSH1 0x5 ADD SLOAD DUP4 PUSH2 0x1D07 SWAP2 SWAP1 PUSH2 0x4137 JUMP JUMPDEST SWAP3 POP JUMPDEST DUP1 DUP1 PUSH1 0x1 ADD SWAP2 POP POP PUSH2 0x1C29 JUMP JUMPDEST POP POP SWAP2 SWAP1 POP JUMP JUMPDEST PUSH1 0x6 DUP2 DUP2 SLOAD DUP2 LT PUSH2 0x1D2E JUMPI PUSH1 0x0 DUP1 REVERT JUMPDEST SWAP1 PUSH1 0x0 MSTORE PUSH1 0x20 PUSH1 0x0 KECCAK256 ADD PUSH1 0x0 SWAP2 POP SLOAD SWAP1 PUSH2 0x100 EXP SWAP1 DIV PUSH20 0xFFFFFFFFFFFFFFFFFFFFFFFFFFFFFFFFFFFFFFFF AND DUP2 JUMP JUMPDEST PUSH1 0x0 PUSH1 0x1 PUSH1 0x0 CALLER PUSH20 0xFFFFFFFFFFFFFFFFFFFFFFFFFFFFFFFFFFFFFFFF AND PUSH20 0xFFFFFFFFFFFFFFFFFFFFFFFFFFFFFFFFFFFFFFFF AND DUP2 MSTORE PUSH1 0x20 ADD SWAP1 DUP2 MSTORE PUSH1 0x20 ADD PUSH1 0x0 KECCAK256 PUSH1 0x2 ADD SLOAD GT PUSH2 0x1DE2 JUMPI PUSH1 0x40 MLOAD PUSH32 0x8C379A000000000000000000000000000000000000000000000000000000000 DUP2 MSTORE PUSH1 0x4 ADD PUSH2 0x1DD9 SWAP1 PUSH2 0x4952 JUMP JUMPDEST PUSH1 0x40 MLOAD DUP1 SWAP2 SUB SWAP1 REVERT JUMPDEST PUSH1 0x0 PUSH1 0x1 PUSH1 0x0 CALLER PUSH20 0xFFFFFFFFFFFFFFFFFFFFFFFFFFFFFFFFFFFFFFFF AND PUSH20 0xFFFFFFFFFFFFFFFFFFFFFFFFFFFFFFFFFFFFFFFF AND DUP2 MSTORE PUSH1 0x20 ADD SWAP1 DUP2 MSTORE PUSH1 0x20 ADD PUSH1 0x0 KECCAK256 SWAP1 POP PUSH1 0x0 JUMPDEST DUP2 PUSH1 0x4 ADD DUP1 SLOAD SWAP1 POP DUP2 LT ISZERO PUSH2 0x1F31 JUMPI PUSH1 0x0 PUSH1 0x3 PUSH1 0x0 DUP5 PUSH1 0x4 ADD DUP5 DUP2 SLOAD DUP2 LT PUSH2 0x1E53 JUMPI PUSH2 0x1E52 PUSH2 0x45D2 JUMP JUMPDEST JUMPDEST SWAP1 PUSH1 0x0 MSTORE PUSH1 0x20 PUSH1 0x0 KECCAK256 ADD SLOAD DUP2 MSTORE PUSH1 0x20 ADD SWAP1 DUP2 MSTORE PUSH1 0x20 ADD PUSH1 0x0 KECCAK256 SWAP1 POP PUSH1 0x40 MLOAD DUP1 PUSH1 0x40 ADD PUSH1 0x40 MSTORE DUP1 PUSH1 0x7 DUP2 MSTORE PUSH1 0x20 ADD PUSH32 0x70656E64696E6700000000000000000000000000000000000000000000000000 DUP2 MSTORE POP DUP1 MLOAD SWAP1 PUSH1 0x20 ADD KECCAK256 DUP2 PUSH1 0x2 ADD PUSH1 0x40 MLOAD PUSH2 0x1EBC SWAP2 SWAP1 PUSH2 0x4085 JUMP JUMPDEST PUSH1 0x40 MLOAD DUP1 SWAP2 SUB SWAP1 KECCAK256 EQ DUP1 ISZERO PUSH2 0x1EE3 JUMPI POP PUSH3 0x93A80 DUP2 PUSH1 0x6 ADD SLOAD PUSH2 0x1EDF SWAP2 SWAP1 PUSH2 0x4137 JUMP JUMPDEST TIMESTAMP GT ISZERO JUMPDEST ISZERO PUSH2 0x1F23 JUMPI PUSH1 0x40 MLOAD PUSH32 0x8C379A000000000000000000000000000000000000000000000000000000000 DUP2 MSTORE PUSH1 0x4 ADD PUSH2 0x1F1A SWAP1 PUSH2 0x49E4 JUMP JUMPDEST PUSH1 0x40 MLOAD DUP1 SWAP2 SUB SWAP1 REVERT JUMPDEST POP DUP1 DUP1 PUSH1 0x1 ADD SWAP2 POP POP PUSH2 0x1E28 JUMP JUMPDEST POP PUSH1 0x0 DUP2 PUSH1 0x2 ADD SLOAD SWAP1 POP PUSH1 0x0 DUP3 PUSH1 0x2 ADD DUP2 SWAP1 SSTORE POP PUSH1 0x0 CALLER PUSH20 0xFFFFFFFFFFFFFFFFFFFFFFFFFFFFFFFFFFFFFFFF AND DUP3 PUSH1 0x40 MLOAD PUSH2 0x1F6B SWAP1 PUSH2 0x4551 JUMP JUMPDEST PUSH1 0x0 PUSH1 0x40 MLOAD DUP1 DUP4 SUB DUP2 DUP6 DUP8 GAS CALL SWAP3 POP POP POP RETURNDATASIZE DUP1 PUSH1 0x0 DUP2 EQ PUSH2 0x1FA8 JUMPI PUSH1 0x40 MLOAD SWAP2 POP PUSH1 0x1F NOT PUSH1 0x3F RETURNDATASIZE ADD AND DUP3 ADD PUSH1 0x40 MSTORE RETURNDATASIZE DUP3 MSTORE RETURNDATASIZE PUSH1 0x0 PUSH1 0x20 DUP5 ADD RETURNDATACOPY PUSH2 0x1FAD JUMP JUMPDEST PUSH1 0x60 SWAP2 POP JUMPDEST POP POP SWAP1 POP DUP1 PUSH2 0x1FF1 JUMPI PUSH1 0x40 MLOAD PUSH32 0x8C379A000000000000000000000000000000000000000000000000000000000 DUP2 MSTORE PUSH1 0x4 ADD PUSH2 0x1FE8 SWAP1 PUSH2 0x4A50 JUMP JUMPDEST PUSH1 0x40 MLOAD DUP1 SWAP2 SUB SWAP1 REVERT JUMPDEST PUSH32 0x45E86EF28678BB11EB3A2909BEF25215399CDEBB7C34DACB2179034CF6E2C905 CALLER DUP4 PUSH1 0x40 MLOAD PUSH2 0x2022 SWAP3 SWAP2 SWAP1 PUSH2 0x4A70 JUMP JUMPDEST PUSH1 0x40 MLOAD DUP1 SWAP2 SUB SWAP1 LOG1 POP POP POP JUMP JUMPDEST PUSH1 0x2 PUSH1 0x20 MSTORE DUP1 PUSH1 0x0 MSTORE PUSH1 0x40 PUSH1 0x0 KECCAK256 PUSH1 0x0 SWAP2 POP SWAP1 POP DUP1 PUSH1 0x0 ADD SLOAD SWAP1 POP DUP2 JUMP JUMPDEST PUSH1 0x0 PUSH1 0x2 PUSH1 0x0 DUP4 PUSH20 0xFFFFFFFFFFFFFFFFFFFFFFFFFFFFFFFFFFFFFFFF AND PUSH20 0xFFFFFFFFFFFFFFFFFFFFFFFFFFFFFFFFFFFFFFFF AND DUP2 MSTORE PUSH1 0x20 ADD SWAP1 DUP2 MSTORE PUSH1 0x20 ADD PUSH1 0x0 KECCAK256 PUSH1 0x0 ADD SLOAD SWAP1 POP SWAP2 SWAP1 POP JUMP JUMPDEST PUSH1 0x60 PUSH1 0x0 DUP1 PUSH1 0x1 SWAP1 POP JUMPDEST PUSH1 0x5 SLOAD DUP2 GT PUSH2 0x216C JUMPI PUSH1 0x40 MLOAD DUP1 PUSH1 0x40 ADD PUSH1 0x40 MSTORE DUP1 PUSH1 0x7 DUP2 MSTORE PUSH1 0x20 ADD PUSH32 0x70656E64696E6700000000000000000000000000000000000000000000000000 DUP2 MSTORE POP DUP1 MLOAD SWAP1 PUSH1 0x20 ADD KECCAK256 PUSH1 0x3 PUSH1 0x0 DUP4 DUP2 MSTORE PUSH1 0x20 ADD SWAP1 DUP2 MSTORE PUSH1 0x20 ADD PUSH1 0x0 KECCAK256 PUSH1 0x2 ADD PUSH1 0x40 MLOAD PUSH2 0x210C SWAP2 SWAP1 PUSH2 0x4085 JUMP JUMPDEST PUSH1 0x40 MLOAD DUP1 SWAP2 SUB SWAP1 KECCAK256 EQ DUP1 ISZERO PUSH2 0x2145 JUMPI POP PUSH3 0x93A80 PUSH1 0x3 PUSH1 0x0 DUP4 DUP2 MSTORE PUSH1 0x20 ADD SWAP1 DUP2 MSTORE PUSH1 0x20 ADD PUSH1 0x0 KECCAK256 PUSH1 0x6 ADD SLOAD PUSH2 0x2141 SWAP2 SWAP1 PUSH2 0x4137 JUMP JUMPDEST TIMESTAMP GT ISZERO JUMPDEST ISZERO PUSH2 0x2159 JUMPI DUP2 DUP1 PUSH2 0x2155 SWAP1 PUSH2 0x4895 JUMP JUMPDEST SWAP3 POP POP JUMPDEST DUP1 DUP1 PUSH2 0x2164 SWAP1 PUSH2 0x4895 JUMP JUMPDEST SWAP2 POP POP PUSH2 0x20A3 JUMP JUMPDEST POP PUSH1 0x0 DUP2 PUSH8 0xFFFFFFFFFFFFFFFF DUP2 GT ISZERO PUSH2 0x2189 JUMPI PUSH2 0x2188 PUSH2 0x3712 JUMP JUMPDEST JUMPDEST PUSH1 0x40 MLOAD SWAP1 DUP1 DUP3 MSTORE DUP1 PUSH1 0x20 MUL PUSH1 0x20 ADD DUP3 ADD PUSH1 0x40 MSTORE DUP1 ISZERO PUSH2 0x21B7 JUMPI DUP2 PUSH1 0x20 ADD PUSH1 0x20 DUP3 MUL DUP1 CALLDATASIZE DUP4 CALLDATACOPY DUP1 DUP3 ADD SWAP2 POP POP SWAP1 POP JUMPDEST POP SWAP1 POP PUSH1 0x0 DUP1 PUSH1 0x1 SWAP1 POP JUMPDEST PUSH1 0x5 SLOAD DUP2 GT PUSH2 0x22AB JUMPI PUSH1 0x40 MLOAD DUP1 PUSH1 0x40 ADD PUSH1 0x40 MSTORE DUP1 PUSH1 0x7 DUP2 MSTORE PUSH1 0x20 ADD PUSH32 0x70656E64696E6700000000000000000000000000000000000000000000000000 DUP2 MSTORE POP DUP1 MLOAD SWAP1 PUSH1 0x20 ADD KECCAK256 PUSH1 0x3 PUSH1 0x0 DUP4 DUP2 MSTORE PUSH1 0x20 ADD SWAP1 DUP2 MSTORE PUSH1 0x20 ADD PUSH1 0x0 KECCAK256 PUSH1 0x2 ADD PUSH1 0x40 MLOAD PUSH2 0x222B SWAP2 SWAP1 PUSH2 0x4085 JUMP JUMPDEST PUSH1 0x40 MLOAD DUP1 SWAP2 SUB SWAP1 KECCAK256 EQ DUP1 ISZERO PUSH2 0x2264 JUMPI POP PUSH3 0x93A80 PUSH1 0x3 PUSH1 0x0 DUP4 DUP2 MSTORE PUSH1 0x20 ADD SWAP1 DUP2 MSTORE PUSH1 0x20 ADD PUSH1 0x0 KECCAK256 PUSH1 0x6 ADD SLOAD PUSH2 0x2260 SWAP2 SWAP1 PUSH2 0x4137 JUMP JUMPDEST TIMESTAMP GT ISZERO JUMPDEST ISZERO PUSH2 0x2298 JUMPI DUP1 DUP4 DUP4 DUP2 MLOAD DUP2 LT PUSH2 0x227D JUMPI PUSH2 0x227C PUSH2 0x45D2 JUMP JUMPDEST JUMPDEST PUSH1 0x20 MUL PUSH1 0x20 ADD ADD DUP2 DUP2 MSTORE POP POP DUP2 DUP1 PUSH2 0x2294 SWAP1 PUSH2 0x4895 JUMP JUMPDEST SWAP3 POP POP JUMPDEST DUP1 DUP1 PUSH2 0x22A3 SWAP1 PUSH2 0x4895 JUMP JUMPDEST SWAP2 POP POP PUSH2 0x21C2 JUMP JUMPDEST POP DUP2 SWAP4 POP POP POP POP SWAP1 JUMP JUMPDEST PUSH1 0x3 PUSH1 0x0 DUP3 DUP2 MSTORE PUSH1 0x20 ADD SWAP1 DUP2 MSTORE PUSH1 0x20 ADD PUSH1 0x0 KECCAK256 PUSH1 0x7 ADD PUSH1 0x0 CALLER PUSH20 0xFFFFFFFFFFFFFFFFFFFFFFFFFFFFFFFFFFFFFFFF AND PUSH20 0xFFFFFFFFFFFFFFFFFFFFFFFFFFFFFFFFFFFFFFFF AND DUP2 MSTORE PUSH1 0x20 ADD SWAP1 DUP2 MSTORE PUSH1 0x20 ADD PUSH1 0x0 KECCAK256 PUSH1 0x0 SWAP1 SLOAD SWAP1 PUSH2 0x100 EXP SWAP1 DIV PUSH1 0xFF AND PUSH2 0x2355 JUMPI PUSH1 0x40 MLOAD PUSH32 0x8C379A000000000000000000000000000000000000000000000000000000000 DUP2 MSTORE PUSH1 0x4 ADD PUSH2 0x234C SWAP1 PUSH2 0x4AE5 JUMP JUMPDEST PUSH1 0x40 MLOAD DUP1 SWAP2 SUB SWAP1 REVERT JUMPDEST PUSH1 0x40 MLOAD DUP1 PUSH1 0x40 ADD PUSH1 0x40 MSTORE DUP1 PUSH1 0x7 DUP2 MSTORE PUSH1 0x20 ADD PUSH32 0x70656E64696E6700000000000000000000000000000000000000000000000000 DUP2 MSTORE POP DUP1 MLOAD SWAP1 PUSH1 0x20 ADD KECCAK256 PUSH1 0x3 PUSH1 0x0 DUP4 DUP2 MSTORE PUSH1 0x20 ADD SWAP1 DUP2 MSTORE PUSH1 0x20 ADD PUSH1 0x0 KECCAK256 PUSH1 0x2 ADD PUSH1 0x40 MLOAD PUSH2 0x23B5 SWAP2 SWAP1 PUSH2 0x4085 JUMP JUMPDEST PUSH1 0x40 MLOAD DUP1 SWAP2 SUB SWAP1 KECCAK256 SUB PUSH2 0x23FD JUMPI PUSH1 0x40 MLOAD PUSH32 0x8C379A000000000000000000000000000000000000000000000000000000000 DUP2 MSTORE PUSH1 0x4 ADD PUSH2 0x23F4 SWAP1 PUSH2 0x4B51 JUMP JUMPDEST PUSH1 0x40 MLOAD DUP1 SWAP2 SUB SWAP1 REVERT JUMPDEST PUSH1 0x0 PUSH1 0x64 PUSH1 0x5 PUSH1 0x3 PUSH1 0x0 DUP6 DUP2 MSTORE PUSH1 0x20 ADD SWAP1 DUP2 MSTORE PUSH1 0x20 ADD PUSH1 0x0 KECCAK256 PUSH1 0x5 ADD SLOAD PUSH2 0x2424 SWAP2 SWAP1 PUSH2 0x41D7 JUMP JUMPDEST PUSH2 0x242E SWAP2 SWAP1 PUSH2 0x4248 JUMP JUMPDEST SWAP1 POP PUSH1 0x0 DUP1 PUSH1 0x3 PUSH1 0x0 DUP6 DUP2 MSTORE PUSH1 0x20 ADD SWAP1 DUP2 MSTORE PUSH1 0x20 ADD PUSH1 0x0 KECCAK256 PUSH1 0x8 ADD SLOAD GT PUSH2 0x2456 JUMPI PUSH1 0x0 PUSH2 0x2479 JUMP JUMPDEST PUSH1 0x3 PUSH1 0x0 DUP5 DUP2 MSTORE PUSH1 0x20 ADD SWAP1 DUP2 MSTORE PUSH1 0x20 ADD PUSH1 0x0 KECCAK256 PUSH1 0x8 ADD SLOAD DUP3 PUSH2 0x2478 SWAP2 SWAP1 PUSH2 0x4248 JUMP JUMPDEST JUMPDEST SWAP1 POP PUSH1 0x0 CALLER PUSH20 0xFFFFFFFFFFFFFFFFFFFFFFFFFFFFFFFFFFFFFFFF AND DUP3 PUSH1 0x40 MLOAD PUSH2 0x24A1 SWAP1 PUSH2 0x4551 JUMP JUMPDEST PUSH1 0x0 PUSH1 0x40 MLOAD DUP1 DUP4 SUB DUP2 DUP6 DUP8 GAS CALL SWAP3 POP POP POP RETURNDATASIZE DUP1 PUSH1 0x0 DUP2 EQ PUSH2 0x24DE JUMPI PUSH1 0x40 MLOAD SWAP2 POP PUSH1 0x1F NOT PUSH1 0x3F RETURNDATASIZE ADD AND DUP3 ADD PUSH1 0x40 MSTORE RETURNDATASIZE DUP3 MSTORE RETURNDATASIZE PUSH1 0x0 PUSH1 0x20 DUP5 ADD RETURNDATACOPY PUSH2 0x24E3 JUMP JUMPDEST PUSH1 0x60 SWAP2 POP JUMPDEST POP POP SWAP1 POP DUP1 PUSH2 0x2527 JUMPI PUSH1 0x40 MLOAD PUSH32 0x8C379A000000000000000000000000000000000000000000000000000000000 DUP2 MSTORE PUSH1 0x4 ADD PUSH2 0x251E SWAP1 PUSH2 0x4BBD JUMP JUMPDEST PUSH1 0x40 MLOAD DUP1 SWAP2 SUB SWAP1 REVERT JUMPDEST PUSH1 0x0 PUSH1 0x3 PUSH1 0x0 DUP7 DUP2 MSTORE PUSH1 0x20 ADD SWAP1 DUP2 MSTORE PUSH1 0x20 ADD PUSH1 0x0 KECCAK256 PUSH1 0x7 ADD PUSH1 0x0 CALLER PUSH20 0xFFFFFFFFFFFFFFFFFFFFFFFFFFFFFFFFFFFFFFFF AND PUSH20 0xFFFFFFFFFFFFFFFFFFFFFFFFFFFFFFFFFFFFFFFF AND DUP2 MSTORE PUSH1 0x20 ADD SWAP1 DUP2 MSTORE PUSH1 0x20 ADD PUSH1 0x0 KECCAK256 PUSH1 0x0 PUSH2 0x100 EXP DUP2 SLOAD DUP2 PUSH1 0xFF MUL NOT AND SWAP1 DUP4 ISZERO ISZERO MUL OR SWAP1 SSTORE POP POP POP POP POP JUMP JUMPDEST PUSH1 0x0 PUSH1 0x2 PUSH1 0x0 CALLER PUSH20 0xFFFFFFFFFFFFFFFFFFFFFFFFFFFFFFFFFFFFFFFF AND PUSH20 0xFFFFFFFFFFFFFFFFFFFFFFFFFFFFFFFFFFFFFFFF AND DUP2 MSTORE PUSH1 0x20 ADD SWAP1 DUP2 MSTORE PUSH1 0x20 ADD PUSH1 0x0 KECCAK256 PUSH1 0x0 ADD SLOAD GT PUSH2 0x261E JUMPI PUSH1 0x40 MLOAD PUSH32 0x8C379A000000000000000000000000000000000000000000000000000000000 DUP2 MSTORE PUSH1 0x4 ADD PUSH2 0x2615 SWAP1 PUSH2 0x4C29 JUMP JUMPDEST PUSH1 0x40 MLOAD DUP1 SWAP2 SUB SWAP1 REVERT JUMPDEST PUSH1 0x0 PUSH20 0xFFFFFFFFFFFFFFFFFFFFFFFFFFFFFFFFFFFFFFFF AND PUSH1 0x3 PUSH1 0x0 DUP5 DUP2 MSTORE PUSH1 0x20 ADD SWAP1 DUP2 MSTORE PUSH1 0x20 ADD PUSH1 0x0 KECCAK256 PUSH1 0x0 ADD PUSH1 0x0 SWAP1 SLOAD SWAP1 PUSH2 0x100 EXP SWAP1 DIV PUSH20 0xFFFFFFFFFFFFFFFFFFFFFFFFFFFFFFFFFFFFFFFF AND PUSH20 0xFFFFFFFFFFFFFFFFFFFFFFFFFFFFFFFFFFFFFFFF AND SUB PUSH2 0x26C3 JUMPI PUSH1 0x40 MLOAD PUSH32 0x8C379A000000000000000000000000000000000000000000000000000000000 DUP2 MSTORE PUSH1 0x4 ADD PUSH2 0x26BA SWAP1 PUSH2 0x3F62 JUMP JUMPDEST PUSH1 0x40 MLOAD DUP1 SWAP2 SUB SWAP1 REVERT JUMPDEST PUSH1 0x2 PUSH1 0x0 CALLER PUSH20 0xFFFFFFFFFFFFFFFFFFFFFFFFFFFFFFFFFFFFFFFF AND PUSH20 0xFFFFFFFFFFFFFFFFFFFFFFFFFFFFFFFFFFFFFFFF AND DUP2 MSTORE PUSH1 0x20 ADD SWAP1 DUP2 MSTORE PUSH1 0x20 ADD PUSH1 0x0 KECCAK256 PUSH1 0x1 ADD PUSH1 0x0 DUP4 DUP2 MSTORE PUSH1 0x20 ADD SWAP1 DUP2 MSTORE PUSH1 0x20 ADD PUSH1 0x0 KECCAK256 PUSH1 0x0 SWAP1 SLOAD SWAP1 PUSH2 0x100 EXP SWAP1 DIV PUSH1 0xFF AND ISZERO PUSH2 0x2764 JUMPI PUSH1 0x40 MLOAD PUSH32 0x8C379A000000000000000000000000000000000000000000000000000000000 DUP2 MSTORE PUSH1 0x4 ADD PUSH2 0x275B SWAP1 PUSH2 0x4C95 JUMP JUMPDEST PUSH1 0x40 MLOAD DUP1 SWAP2 SUB SWAP1 REVERT JUMPDEST PUSH1 0x40 MLOAD DUP1 PUSH1 0x40 ADD PUSH1 0x40 MSTORE DUP1 PUSH1 0x7 DUP2 MSTORE PUSH1 0x20 ADD PUSH32 0x70656E64696E6700000000000000000000000000000000000000000000000000 DUP2 MSTORE POP DUP1 MLOAD SWAP1 PUSH1 0x20 ADD KECCAK256 PUSH1 0x3 PUSH1 0x0 DUP5 DUP2 MSTORE PUSH1 0x20 ADD SWAP1 DUP2 MSTORE PUSH1 0x20 ADD PUSH1 0x0 KECCAK256 PUSH1 0x2 ADD PUSH1 0x40 MLOAD PUSH2 0x27C4 SWAP2 SWAP1 PUSH2 0x4085 JUMP JUMPDEST PUSH1 0x40 MLOAD DUP1 SWAP2 SUB SWAP1 KECCAK256 EQ PUSH2 0x280C JUMPI PUSH1 0x40 MLOAD PUSH32 0x8C379A000000000000000000000000000000000000000000000000000000000 DUP2 MSTORE PUSH1 0x4 ADD PUSH2 0x2803 SWAP1 PUSH2 0x4D01 JUMP JUMPDEST PUSH1 0x40 MLOAD DUP1 SWAP2 SUB SWAP1 REVERT JUMPDEST PUSH3 0x93A80 PUSH1 0x3 PUSH1 0x0 DUP5 DUP2 MSTORE PUSH1 0x20 ADD SWAP1 DUP2 MSTORE PUSH1 0x20 ADD PUSH1 0x0 KECCAK256 PUSH1 0x6 ADD SLOAD PUSH2 0x2831 SWAP2 SWAP1 PUSH2 0x4137 JUMP JUMPDEST TIMESTAMP GT ISZERO PUSH2 0x2873 JUMPI PUSH1 0x40 MLOAD PUSH32 0x8C379A000000000000000000000000000000000000000000000000000000000 DUP2 MSTORE PUSH1 0x4 ADD PUSH2 0x286A SWAP1 PUSH2 0x4D6D JUMP JUMPDEST PUSH1 0x40 MLOAD DUP1 SWAP2 SUB SWAP1 REVERT JUMPDEST PUSH1 0x1 PUSH1 0x2 PUSH1 0x0 CALLER PUSH20 0xFFFFFFFFFFFFFFFFFFFFFFFFFFFFFFFFFFFFFFFF AND PUSH20 0xFFFFFFFFFFFFFFFFFFFFFFFFFFFFFFFFFFFFFFFF AND DUP2 MSTORE PUSH1 0x20 ADD SWAP1 DUP2 MSTORE PUSH1 0x20 ADD PUSH1 0x0 KECCAK256 PUSH1 0x1 ADD PUSH1 0x0 DUP5 DUP2 MSTORE PUSH1 0x20 ADD SWAP1 DUP2 MSTORE PUSH1 0x20 ADD PUSH1 0x0 KECCAK256 PUSH1 0x0 PUSH2 0x100 EXP DUP2 SLOAD DUP2 PUSH1 0xFF MUL NOT AND SWAP1 DUP4 ISZERO ISZERO MUL OR SWAP1 SSTORE POP PUSH1 0x1 PUSH1 0x3 PUSH1 0x0 DUP5 DUP2 MSTORE PUSH1 0x20 ADD SWAP1 DUP2 MSTORE PUSH1 0x20 ADD PUSH1 0x0 KECCAK256 PUSH1 0x7 ADD PUSH1 0x0 CALLER PUSH20 0xFFFFFFFFFFFFFFFFFFFFFFFFFFFFFFFFFFFFFFFF AND PUSH20 0xFFFFFFFFFFFFFFFFFFFFFFFFFFFFFFFFFFFFFFFF AND DUP2 MSTORE PUSH1 0x20 ADD SWAP1 DUP2 MSTORE PUSH1 0x20 ADD PUSH1 0x0 KECCAK256 PUSH1 0x0 PUSH2 0x100 EXP DUP2 SLOAD DUP2 PUSH1 0xFF MUL NOT AND SWAP1 DUP4 ISZERO ISZERO MUL OR SWAP1 SSTORE POP PUSH1 0x3 PUSH1 0x0 DUP4 DUP2 MSTORE PUSH1 0x20 ADD SWAP1 DUP2 MSTORE PUSH1 0x20 ADD PUSH1 0x0 KECCAK256 PUSH1 0x8 ADD PUSH1 0x0 DUP2 SLOAD DUP1 SWAP3 SWAP2 SWAP1 PUSH2 0x2972 SWAP1 PUSH2 0x4895 JUMP JUMPDEST SWAP2 SWAP1 POP SSTORE POP DUP1 ISZERO PUSH2 0x29AE JUMPI PUSH1 0x3 PUSH1 0x0 DUP4 DUP2 MSTORE PUSH1 0x20 ADD SWAP1 DUP2 MSTORE PUSH1 0x20 ADD PUSH1 0x0 KECCAK256 PUSH1 0x3 ADD PUSH1 0x0 DUP2 SLOAD DUP1 SWAP3 SWAP2 SWAP1 PUSH2 0x29A4 SWAP1 PUSH2 0x4895 JUMP JUMPDEST SWAP2 SWAP1 POP SSTORE POP PUSH2 0x29DB JUMP JUMPDEST PUSH1 0x3 PUSH1 0x0 DUP4 DUP2 MSTORE PUSH1 0x20 ADD SWAP1 DUP2 MSTORE PUSH1 0x20 ADD PUSH1 0x0 KECCAK256 PUSH1 0x4 ADD PUSH1 0x0 DUP2 SLOAD DUP1 SWAP3 SWAP2 SWAP1 PUSH2 0x29D5 SWAP1 PUSH2 0x4895 JUMP JUMPDEST SWAP2 SWAP1 POP SSTORE POP JUMPDEST PUSH32 0xF2913DBE661EE2ACC4A046D8FBCDC792373BDA34C41C6086484B5345E5785E5F DUP3 CALLER DUP4 PUSH1 0x40 MLOAD PUSH2 0x2A0E SWAP4 SWAP3 SWAP2 SWAP1 PUSH2 0x4D8D JUMP JUMPDEST PUSH1 0x40 MLOAD DUP1 SWAP2 SUB SWAP1 LOG1 POP POP JUMP JUMPDEST PUSH1 0x0 PUSH1 0x2 PUSH1 0x0 CALLER PUSH20 0xFFFFFFFFFFFFFFFFFFFFFFFFFFFFFFFFFFFFFFFF AND PUSH20 0xFFFFFFFFFFFFFFFFFFFFFFFFFFFFFFFFFFFFFFFF AND DUP2 MSTORE PUSH1 0x20 ADD SWAP1 DUP2 MSTORE PUSH1 0x20 ADD PUSH1 0x0 KECCAK256 PUSH1 0x0 ADD SLOAD GT PUSH2 0x2A9F JUMPI PUSH1 0x40 MLOAD PUSH32 0x8C379A000000000000000000000000000000000000000000000000000000000 DUP2 MSTORE PUSH1 0x4 ADD PUSH2 0x2A96 SWAP1 PUSH2 0x4C29 JUMP JUMPDEST PUSH1 0x40 MLOAD DUP1 SWAP2 SUB SWAP1 REVERT JUMPDEST PUSH1 0x0 PUSH1 0x2 PUSH1 0x0 CALLER PUSH20 0xFFFFFFFFFFFFFFFFFFFFFFFFFFFFFFFFFFFFFFFF AND PUSH20 0xFFFFFFFFFFFFFFFFFFFFFFFFFFFFFFFFFFFFFFFF AND DUP2 MSTORE PUSH1 0x20 ADD SWAP1 DUP2 MSTORE PUSH1 0x20 ADD PUSH1 0x0 KECCAK256 PUSH1 0x0 ADD SLOAD SWAP1 POP PUSH1 0x0 PUSH1 0x2 PUSH1 0x0 CALLER PUSH20 0xFFFFFFFFFFFFFFFFFFFFFFFFFFFFFFFFFFFFFFFF AND PUSH20 0xFFFFFFFFFFFFFFFFFFFFFFFFFFFFFFFFFFFFFFFF AND DUP2 MSTORE PUSH1 0x20 ADD SWAP1 DUP2 MSTORE PUSH1 0x20 ADD PUSH1 0x0 KECCAK256 PUSH1 0x0 ADD DUP2 SWAP1 SSTORE POP PUSH1 0x0 CALLER PUSH20 0xFFFFFFFFFFFFFFFFFFFFFFFFFFFFFFFFFFFFFFFF AND DUP3 PUSH1 0x40 MLOAD PUSH2 0x2B54 SWAP1 PUSH2 0x4551 JUMP JUMPDEST PUSH1 0x0 PUSH1 0x40 MLOAD DUP1 DUP4 SUB DUP2 DUP6 DUP8 GAS CALL SWAP3 POP POP POP RETURNDATASIZE DUP1 PUSH1 0x0 DUP2 EQ PUSH2 0x2B91 JUMPI PUSH1 0x40 MLOAD SWAP2 POP PUSH1 0x1F NOT PUSH1 0x3F RETURNDATASIZE ADD AND DUP3 ADD PUSH1 0x40 MSTORE RETURNDATASIZE DUP3 MSTORE RETURNDATASIZE PUSH1 0x0 PUSH1 0x20 DUP5 ADD RETURNDATACOPY PUSH2 0x2B96 JUMP JUMPDEST PUSH1 0x60 SWAP2 POP JUMPDEST POP POP SWAP1 POP DUP1 PUSH2 0x2BDA JUMPI PUSH1 0x40 MLOAD PUSH32 0x8C379A000000000000000000000000000000000000000000000000000000000 DUP2 MSTORE PUSH1 0x4 ADD PUSH2 0x2BD1 SWAP1 PUSH2 0x4A50 JUMP JUMPDEST PUSH1 0x40 MLOAD DUP1 SWAP2 SUB SWAP1 REVERT JUMPDEST POP POP JUMP JUMPDEST PUSH1 0x1 PUSH1 0x20 MSTORE DUP1 PUSH1 0x0 MSTORE PUSH1 0x40 PUSH1 0x0 KECCAK256 PUSH1 0x0 SWAP2 POP SWAP1 POP DUP1 PUSH1 0x0 ADD DUP1 SLOAD PUSH2 0x2C01 SWAP1 PUSH2 0x3FB1 JUMP JUMPDEST DUP1 PUSH1 0x1F ADD PUSH1 0x20 DUP1 SWAP2 DIV MUL PUSH1 0x20 ADD PUSH1 0x40 MLOAD SWAP1 DUP2 ADD PUSH1 0x40 MSTORE DUP1 SWAP3 SWAP2 SWAP1 DUP2 DUP2 MSTORE PUSH1 0x20 ADD DUP3 DUP1 SLOAD PUSH2 0x2C2D SWAP1 PUSH2 0x3FB1 JUMP JUMPDEST DUP1 ISZERO PUSH2 0x2C7A JUMPI DUP1 PUSH1 0x1F LT PUSH2 0x2C4F JUMPI PUSH2 0x100 DUP1 DUP4 SLOAD DIV MUL DUP4 MSTORE SWAP2 PUSH1 0x20 ADD SWAP2 PUSH2 0x2C7A JUMP JUMPDEST DUP3 ADD SWAP2 SWAP1 PUSH1 0x0 MSTORE PUSH1 0x20 PUSH1 0x0 KECCAK256 SWAP1 JUMPDEST DUP2 SLOAD DUP2 MSTORE SWAP1 PUSH1 0x1 ADD SWAP1 PUSH1 0x20 ADD DUP1 DUP4 GT PUSH2 0x2C5D JUMPI DUP3 SWAP1 SUB PUSH1 0x1F AND DUP3 ADD SWAP2 JUMPDEST POP POP POP POP POP SWAP1 DUP1 PUSH1 0x1 ADD DUP1 SLOAD PUSH2 0x2C8F SWAP1 PUSH2 0x3FB1 JUMP JUMPDEST DUP1 PUSH1 0x1F ADD PUSH1 0x20 DUP1 SWAP2 DIV MUL PUSH1 0x20 ADD PUSH1 0x40 MLOAD SWAP1 DUP2 ADD PUSH1 0x40 MSTORE DUP1 SWAP3 SWAP2 SWAP1 DUP2 DUP2 MSTORE PUSH1 0x20 ADD DUP3 DUP1 SLOAD PUSH2 0x2CBB SWAP1 PUSH2 0x3FB1 JUMP JUMPDEST DUP1 ISZERO PUSH2 0x2D08 JUMPI DUP1 PUSH1 0x1F LT PUSH2 0x2CDD JUMPI PUSH2 0x100 DUP1 DUP4 SLOAD DIV MUL DUP4 MSTORE SWAP2 PUSH1 0x20 ADD SWAP2 PUSH2 0x2D08 JUMP JUMPDEST DUP3 ADD SWAP2 SWAP1 PUSH1 0x0 MSTORE PUSH1 0x20 PUSH1 0x0 KECCAK256 SWAP1 JUMPDEST DUP2 SLOAD DUP2 MSTORE SWAP1 PUSH1 0x1 ADD SWAP1 PUSH1 0x20 ADD DUP1 DUP4 GT PUSH2 0x2CEB JUMPI DUP3 SWAP1 SUB PUSH1 0x1F AND DUP3 ADD SWAP2 JUMPDEST POP POP POP POP POP SWAP1 DUP1 PUSH1 0x2 ADD SLOAD SWAP1 DUP1 PUSH1 0x3 ADD DUP1 SLOAD PUSH2 0x2D23 SWAP1 PUSH2 0x3FB1 JUMP JUMPDEST DUP1 PUSH1 0x1F ADD PUSH1 0x20 DUP1 SWAP2 DIV MUL PUSH1 0x20 ADD PUSH1 0x40 MLOAD SWAP1 DUP2 ADD PUSH1 0x40 MSTORE DUP1 SWAP3 SWAP2 SWAP1 DUP2 DUP2 MSTORE PUSH1 0x20 ADD DUP3 DUP1 SLOAD PUSH2 0x2D4F SWAP1 PUSH2 0x3FB1 JUMP JUMPDEST DUP1 ISZERO PUSH2 0x2D9C JUMPI DUP1 PUSH1 0x1F LT PUSH2 0x2D71 JUMPI PUSH2 0x100 DUP1 DUP4 SLOAD DIV MUL DUP4 MSTORE SWAP2 PUSH1 0x20 ADD SWAP2 PUSH2 0x2D9C JUMP JUMPDEST DUP3 ADD SWAP2 SWAP1 PUSH1 0x0 MSTORE PUSH1 0x20 PUSH1 0x0 KECCAK256 SWAP1 JUMPDEST DUP2 SLOAD DUP2 MSTORE SWAP1 PUSH1 0x1 ADD SWAP1 PUSH1 0x20 ADD DUP1 DUP4 GT PUSH2 0x2D7F JUMPI DUP3 SWAP1 SUB PUSH1 0x1F AND DUP3 ADD SWAP2 JUMPDEST POP POP POP POP POP SWAP1 POP DUP5 JUMP JUMPDEST PUSH1 0x0 CALLVALUE GT PUSH2 0x2DE9 JUMPI PUSH1 0x40 MLOAD PUSH32 0x8C379A000000000000000000000000000000000000000000000000000000000 DUP2 MSTORE PUSH1 0x4 ADD PUSH2 0x2DE0 SWAP1 PUSH2 0x476D JUMP JUMPDEST PUSH1 0x40 MLOAD DUP1 SWAP2 SUB SWAP1 REVERT JUMPDEST PUSH1 0x0 PUSH1 0x2 PUSH1 0x0 CALLER PUSH20 0xFFFFFFFFFFFFFFFFFFFFFFFFFFFFFFFFFFFFFFFF AND PUSH20 0xFFFFFFFFFFFFFFFFFFFFFFFFFFFFFFFFFFFFFFFF AND DUP2 MSTORE PUSH1 0x20 ADD SWAP1 DUP2 MSTORE PUSH1 0x20 ADD PUSH1 0x0 KECCAK256 PUSH1 0x0 ADD SLOAD EQ PUSH2 0x2E6E JUMPI PUSH1 0x40 MLOAD PUSH32 0x8C379A000000000000000000000000000000000000000000000000000000000 DUP2 MSTORE PUSH1 0x4 ADD PUSH2 0x2E65 SWAP1 PUSH2 0x4E10 JUMP JUMPDEST PUSH1 0x40 MLOAD DUP1 SWAP2 SUB SWAP1 REVERT JUMPDEST CALLVALUE PUSH1 0x2 PUSH1 0x0 CALLER PUSH20 0xFFFFFFFFFFFFFFFFFFFFFFFFFFFFFFFFFFFFFFFF AND PUSH20 0xFFFFFFFFFFFFFFFFFFFFFFFFFFFFFFFFFFFFFFFF AND DUP2 MSTORE PUSH1 0x20 ADD SWAP1 DUP2 MSTORE PUSH1 0x20 ADD PUSH1 0x0 KECCAK256 PUSH1 0x0 ADD DUP2 SWAP1 SSTORE POP PUSH32 0xF16CE2C2236E2C6E3DF646F80D657BCEEF4CD7F3A240C47E82ADFA17A5F47241 CALLER CALLVALUE PUSH1 0x40 MLOAD PUSH2 0x2EE6 SWAP3 SWAP2 SWAP1 PUSH2 0x4A70 JUMP JUMPDEST PUSH1 0x40 MLOAD DUP1 SWAP2 SUB SWAP1 LOG1 JUMP JUMPDEST PUSH1 0x0 PUSH20 0xFFFFFFFFFFFFFFFFFFFFFFFFFFFFFFFFFFFFFFFF AND PUSH1 0x3 PUSH1 0x0 DUP4 DUP2 MSTORE PUSH1 0x20 ADD SWAP1 DUP2 MSTORE PUSH1 0x20 ADD PUSH1 0x0 KECCAK256 PUSH1 0x0 ADD PUSH1 0x0 SWAP1 SLOAD SWAP1 PUSH2 0x100 EXP SWAP1 DIV PUSH20 0xFFFFFFFFFFFFFFFFFFFFFFFFFFFFFFFFFFFFFFFF AND PUSH20 0xFFFFFFFFFFFFFFFFFFFFFFFFFFFFFFFFFFFFFFFF AND SUB PUSH2 0x2F95 JUMPI PUSH1 0x40 MLOAD PUSH32 0x8C379A000000000000000000000000000000000000000000000000000000000 DUP2 MSTORE PUSH1 0x4 ADD PUSH2 0x2F8C SWAP1 PUSH2 0x3F62 JUMP JUMPDEST PUSH1 0x40 MLOAD DUP1 SWAP2 SUB SWAP1 REVERT JUMPDEST PUSH1 0x0 CALLVALUE GT PUSH2 0x2FD8 JUMPI PUSH1 0x40 MLOAD PUSH32 0x8C379A000000000000000000000000000000000000000000000000000000000 DUP2 MSTORE PUSH1 0x4 ADD PUSH2 0x2FCF SWAP1 PUSH2 0x4E7C JUMP JUMPDEST PUSH1 0x40 MLOAD DUP1 SWAP2 SUB SWAP1 REVERT JUMPDEST PUSH1 0x40 MLOAD DUP1 PUSH1 0x40 ADD PUSH1 0x40 MSTORE DUP1 PUSH1 0x7 DUP2 MSTORE PUSH1 0x20 ADD PUSH32 0x70656E64696E6700000000000000000000000000000000000000000000000000 DUP2 MSTORE POP DUP1 MLOAD SWAP1 PUSH1 0x20 ADD KECCAK256 PUSH1 0x3 PUSH1 0x0 DUP4 DUP2 MSTORE PUSH1 0x20 ADD SWAP1 DUP2 MSTORE PUSH1 0x20 ADD PUSH1 0x0 KECCAK256 PUSH1 0x2 ADD PUSH1 0x40 MLOAD PUSH2 0x3038 SWAP2 SWAP1 PUSH2 0x4085 JUMP JUMPDEST PUSH1 0x40 MLOAD DUP1 SWAP2 SUB SWAP1 KECCAK256 EQ PUSH2 0x3080 JUMPI PUSH1 0x40 MLOAD PUSH32 0x8C379A000000000000000000000000000000000000000000000000000000000 DUP2 MSTORE PUSH1 0x4 ADD PUSH2 0x3077 SWAP1 PUSH2 0x4D01 JUMP JUMPDEST PUSH1 0x40 MLOAD DUP1 SWAP2 SUB SWAP1 REVERT JUMPDEST CALLVALUE PUSH1 0x3 PUSH1 0x0 DUP4 DUP2 MSTORE PUSH1 0x20 ADD SWAP1 DUP2 MSTORE PUSH1 0x20 ADD PUSH1 0x0 KECCAK256 PUSH1 0x5 ADD PUSH1 0x0 DUP3 DUP3 SLOAD PUSH2 0x30A6 SWAP2 SWAP1 PUSH2 0x4137 JUMP JUMPDEST SWAP3 POP POP DUP2 SWAP1 SSTORE POP PUSH1 0x4 PUSH1 0x0 DUP3 DUP2 MSTORE PUSH1 0x20 ADD SWAP1 DUP2 MSTORE PUSH1 0x20 ADD PUSH1 0x0 KECCAK256 PUSH1 0x40 MLOAD DUP1 PUSH1 0x60 ADD PUSH1 0x40 MSTORE DUP1 CALLER PUSH20 0xFFFFFFFFFFFFFFFFFFFFFFFFFFFFFFFFFFFFFFFF AND DUP2 MSTORE PUSH1 0x20 ADD CALLVALUE DUP2 MSTORE PUSH1 0x20 ADD TIMESTAMP DUP2 MSTORE POP SWAP1 DUP1 PUSH1 0x1 DUP2 SLOAD ADD DUP1 DUP3 SSTORE DUP1 SWAP2 POP POP PUSH1 0x1 SWAP1 SUB SWAP1 PUSH1 0x0 MSTORE PUSH1 0x20 PUSH1 0x0 KECCAK256 SWAP1 PUSH1 0x3 MUL ADD PUSH1 0x0 SWAP1 SWAP2 SWAP1 SWAP2 SWAP1 SWAP2 POP PUSH1 0x0 DUP3 ADD MLOAD DUP2 PUSH1 0x0 ADD PUSH1 0x0 PUSH2 0x100 EXP DUP2 SLOAD DUP2 PUSH20 0xFFFFFFFFFFFFFFFFFFFFFFFFFFFFFFFFFFFFFFFF MUL NOT AND SWAP1 DUP4 PUSH20 0xFFFFFFFFFFFFFFFFFFFFFFFFFFFFFFFFFFFFFFFF AND MUL OR SWAP1 SSTORE POP PUSH1 0x20 DUP3 ADD MLOAD DUP2 PUSH1 0x1 ADD SSTORE PUSH1 0x40 DUP3 ADD MLOAD DUP2 PUSH1 0x2 ADD SSTORE POP POP PUSH32 0x27E413B8931DC4CB7EDC879292EBC482A3047336D03423EA91ADDAE7A2CF850A DUP2 CALLER CALLVALUE PUSH1 0x1 PUSH1 0x4 PUSH1 0x0 DUP8 DUP2 MSTORE PUSH1 0x20 ADD SWAP1 DUP2 MSTORE PUSH1 0x20 ADD PUSH1 0x0 KECCAK256 DUP1 SLOAD SWAP1 POP PUSH2 0x31BE SWAP2 SWAP1 PUSH2 0x4279 JUMP JUMPDEST PUSH1 0x40 MLOAD PUSH2 0x31CE SWAP5 SWAP4 SWAP3 SWAP2 SWAP1 PUSH2 0x4E9C JUMP JUMPDEST PUSH1 0x40 MLOAD DUP1 SWAP2 SUB SWAP1 LOG1 POP JUMP JUMPDEST DUP3 DUP1 SLOAD DUP3 DUP3 SSTORE SWAP1 PUSH1 0x0 MSTORE PUSH1 0x20 PUSH1 0x0 KECCAK256 SWAP1 DUP2 ADD SWAP3 DUP3 ISZERO PUSH2 0x3215 JUMPI SWAP2 PUSH1 0x20 MUL DUP3 ADD JUMPDEST DUP3 DUP2 GT ISZERO PUSH2 0x3214 JUMPI DUP3 MLOAD DUP3 SSTORE SWAP2 PUSH1 0x20 ADD SWAP2 SWAP1 PUSH1 0x1 ADD SWAP1 PUSH2 0x31F9 JUMP JUMPDEST JUMPDEST POP SWAP1 POP PUSH2 0x3222 SWAP2 SWAP1 PUSH2 0x327F JUMP JUMPDEST POP SWAP1 JUMP JUMPDEST DUP3 DUP1 SLOAD DUP3 DUP3 SSTORE SWAP1 PUSH1 0x0 MSTORE PUSH1 0x20 PUSH1 0x0 KECCAK256 SWAP1 DUP2 ADD SWAP3 DUP3 ISZERO PUSH2 0x326E JUMPI SWAP2 PUSH1 0x20 MUL DUP3 ADD JUMPDEST DUP3 DUP2 GT ISZERO PUSH2 0x326D JUMPI DUP3 MLOAD DUP3 SWAP1 DUP2 PUSH2 0x325D SWAP2 SWAP1 PUSH2 0x4459 JUMP JUMPDEST POP SWAP2 PUSH1 0x20 ADD SWAP2 SWAP1 PUSH1 0x1 ADD SWAP1 PUSH2 0x3246 JUMP JUMPDEST JUMPDEST POP SWAP1 POP PUSH2 0x327B SWAP2 SWAP1 PUSH2 0x329C JUMP JUMPDEST POP SWAP1 JUMP JUMPDEST JUMPDEST DUP1 DUP3 GT ISZERO PUSH2 0x3298 JUMPI PUSH1 0x0 DUP2 PUSH1 0x0 SWAP1 SSTORE POP PUSH1 0x1 ADD PUSH2 0x3280 JUMP JUMPDEST POP SWAP1 JUMP JUMPDEST JUMPDEST DUP1 DUP3 GT ISZERO PUSH2 0x32BC JUMPI PUSH1 0x0 DUP2 DUP2 PUSH2 0x32B3 SWAP2 SWAP1 PUSH2 0x32C0 JUMP JUMPDEST POP PUSH1 0x1 ADD PUSH2 0x329D JUMP JUMPDEST POP SWAP1 JUMP JUMPDEST POP DUP1 SLOAD PUSH2 0x32CC SWAP1 PUSH2 0x3FB1 JUMP JUMPDEST PUSH1 0x0 DUP3 SSTORE DUP1 PUSH1 0x1F LT PUSH2 0x32DE JUMPI POP PUSH2 0x32FD JUMP JUMPDEST PUSH1 0x1F ADD PUSH1 0x20 SWAP1 DIV SWAP1 PUSH1 0x0 MSTORE PUSH1 0x20 PUSH1 0x0 KECCAK256 SWAP1 DUP2 ADD SWAP1 PUSH2 0x32FC SWAP2 SWAP1 PUSH2 0x327F JUMP JUMPDEST JUMPDEST POP JUMP JUMPDEST PUSH1 0x0 PUSH1 0x40 MLOAD SWAP1 POP SWAP1 JUMP JUMPDEST PUSH1 0x0 DUP1 REVERT JUMPDEST PUSH1 0x0 DUP1 REVERT JUMPDEST PUSH1 0x0 DUP2 SWAP1 POP SWAP2 SWAP1 POP JUMP JUMPDEST PUSH2 0x3327 DUP2 PUSH2 0x3314 JUMP JUMPDEST DUP2 EQ PUSH2 0x3332 JUMPI PUSH1 0x0 DUP1 REVERT JUMPDEST POP JUMP JUMPDEST PUSH1 0x0 DUP2 CALLDATALOAD SWAP1 POP PUSH2 0x3344 DUP2 PUSH2 0x331E JUMP JUMPDEST SWAP3 SWAP2 POP POP JUMP JUMPDEST PUSH1 0x0 PUSH1 0x20 DUP3 DUP5 SUB SLT ISZERO PUSH2 0x3360 JUMPI PUSH2 0x335F PUSH2 0x330A JUMP JUMPDEST JUMPDEST PUSH1 0x0 PUSH2 0x336E DUP5 DUP3 DUP6 ADD PUSH2 0x3335 JUMP JUMPDEST SWAP2 POP POP SWAP3 SWAP2 POP POP JUMP JUMPDEST PUSH1 0x0 PUSH20 0xFFFFFFFFFFFFFFFFFFFFFFFFFFFFFFFFFFFFFFFF DUP3 AND SWAP1 POP SWAP2 SWAP1 POP JUMP JUMPDEST PUSH1 0x0 PUSH2 0x33A2 DUP3 PUSH2 0x3377 JUMP JUMPDEST SWAP1 POP SWAP2 SWAP1 POP JUMP JUMPDEST PUSH2 0x33B2 DUP2 PUSH2 0x3397 JUMP JUMPDEST DUP3 MSTORE POP POP JUMP JUMPDEST PUSH1 0x0 DUP2 MLOAD SWAP1 POP SWAP2 SWAP1 POP JUMP JUMPDEST PUSH1 0x0 DUP3 DUP3 MSTORE PUSH1 0x20 DUP3 ADD SWAP1 POP SWAP3 SWAP2 POP POP JUMP JUMPDEST PUSH1 0x0 DUP2 SWAP1 POP PUSH1 0x20 DUP3 ADD SWAP1 POP SWAP2 SWAP1 POP JUMP JUMPDEST PUSH1 0x0 DUP2 MLOAD SWAP1 POP SWAP2 SWAP1 POP JUMP JUMPDEST PUSH1 0x0 DUP3 DUP3 MSTORE PUSH1 0x20 DUP3 ADD SWAP1 POP SWAP3 SWAP2 POP POP JUMP JUMPDEST PUSH1 0x0 JUMPDEST DUP4 DUP2 LT ISZERO PUSH2 0x341E JUMPI DUP1 DUP3 ADD MLOAD DUP2 DUP5 ADD MSTORE PUSH1 0x20 DUP2 ADD SWAP1 POP PUSH2 0x3403 JUMP JUMPDEST PUSH1 0x0 DUP5 DUP5 ADD MSTORE POP POP POP POP JUMP JUMPDEST PUSH1 0x0 PUSH1 0x1F NOT PUSH1 0x1F DUP4 ADD AND SWAP1 POP SWAP2 SWAP1 POP JUMP JUMPDEST PUSH1 0x0 PUSH2 0x3446 DUP3 PUSH2 0x33E4 JUMP JUMPDEST PUSH2 0x3450 DUP2 DUP6 PUSH2 0x33EF JUMP JUMPDEST SWAP4 POP PUSH2 0x3460 DUP2 DUP6 PUSH1 0x20 DUP7 ADD PUSH2 0x3400 JUMP JUMPDEST PUSH2 0x3469 DUP2 PUSH2 0x342A JUMP JUMPDEST DUP5 ADD SWAP2 POP POP SWAP3 SWAP2 POP POP JUMP JUMPDEST PUSH1 0x0 PUSH2 0x3480 DUP4 DUP4 PUSH2 0x343B JUMP JUMPDEST SWAP1 POP SWAP3 SWAP2 POP POP JUMP JUMPDEST PUSH1 0x0 PUSH1 0x20 DUP3 ADD SWAP1 POP SWAP2 SWAP1 POP JUMP JUMPDEST PUSH1 0x0 PUSH2 0x34A0 DUP3 PUSH2 0x33B8 JUMP JUMPDEST PUSH2 0x34AA DUP2 DUP6 PUSH2 0x33C3 JUMP JUMPDEST SWAP4 POP DUP4 PUSH1 0x20 DUP3 MUL DUP6 ADD PUSH2 0x34BC DUP6 PUSH2 0x33D4 JUMP JUMPDEST DUP1 PUSH1 0x0 JUMPDEST DUP6 DUP2 LT ISZERO PUSH2 0x34F8 JUMPI DUP5 DUP5 SUB DUP10 MSTORE DUP2 MLOAD PUSH2 0x34D9 DUP6 DUP3 PUSH2 0x3474 JUMP JUMPDEST SWAP5 POP PUSH2 0x34E4 DUP4 PUSH2 0x3488 JUMP JUMPDEST SWAP3 POP PUSH1 0x20 DUP11 ADD SWAP10 POP POP PUSH1 0x1 DUP2 ADD SWAP1 POP PUSH2 0x34C0 JUMP JUMPDEST POP DUP3 SWAP8 POP DUP8 SWAP6 POP POP POP POP POP POP SWAP3 SWAP2 POP POP JUMP JUMPDEST PUSH1 0x0 DUP3 DUP3 MSTORE PUSH1 0x20 DUP3 ADD SWAP1 POP SWAP3 SWAP2 POP POP JUMP JUMPDEST PUSH1 0x0 PUSH2 0x3526 DUP3 PUSH2 0x33E4 JUMP JUMPDEST PUSH2 0x3530 DUP2 DUP6 PUSH2 0x350A JUMP JUMPDEST SWAP4 POP PUSH2 0x3540 DUP2 DUP6 PUSH1 0x20 DUP7 ADD PUSH2 0x3400 JUMP JUMPDEST PUSH2 0x3549 DUP2 PUSH2 0x342A JUMP JUMPDEST DUP5 ADD SWAP2 POP POP SWAP3 SWAP2 POP POP JUMP JUMPDEST PUSH2 0x355D DUP2 PUSH2 0x3314 JUMP JUMPDEST DUP3 MSTORE POP POP JUMP JUMPDEST PUSH1 0x0 PUSH2 0x100 DUP3 ADD SWAP1 POP PUSH2 0x3579 PUSH1 0x0 DUP4 ADD DUP12 PUSH2 0x33A9 JUMP JUMPDEST DUP2 DUP2 SUB PUSH1 0x20 DUP4 ADD MSTORE PUSH2 0x358B DUP2 DUP11 PUSH2 0x3495 JUMP JUMPDEST SWAP1 POP DUP2 DUP2 SUB PUSH1 0x40 DUP4 ADD MSTORE PUSH2 0x359F DUP2 DUP10 PUSH2 0x351B JUMP JUMPDEST SWAP1 POP PUSH2 0x35AE PUSH1 0x60 DUP4 ADD DUP9 PUSH2 0x3554 JUMP JUMPDEST PUSH2 0x35BB PUSH1 0x80 DUP4 ADD DUP8 PUSH2 0x3554 JUMP JUMPDEST PUSH2 0x35C8 PUSH1 0xA0 DUP4 ADD DUP7 PUSH2 0x3554 JUMP JUMPDEST PUSH2 0x35D5 PUSH1 0xC0 DUP4 ADD DUP6 PUSH2 0x3554 JUMP JUMPDEST PUSH2 0x35E2 PUSH1 0xE0 DUP4 ADD DUP5 PUSH2 0x3554 JUMP JUMPDEST SWAP10 SWAP9 POP POP POP POP POP POP POP POP POP JUMP JUMPDEST PUSH1 0x0 DUP1 PUSH1 0x40 DUP4 DUP6 SUB SLT ISZERO PUSH2 0x3606 JUMPI PUSH2 0x3605 PUSH2 0x330A JUMP JUMPDEST JUMPDEST PUSH1 0x0 PUSH2 0x3614 DUP6 DUP3 DUP7 ADD PUSH2 0x3335 JUMP JUMPDEST SWAP3 POP POP PUSH1 0x20 PUSH2 0x3625 DUP6 DUP3 DUP7 ADD PUSH2 0x3335 JUMP JUMPDEST SWAP2 POP POP SWAP3 POP SWAP3 SWAP1 POP JUMP JUMPDEST PUSH1 0x0 PUSH1 0x60 DUP3 ADD SWAP1 POP PUSH2 0x3644 PUSH1 0x0 DUP4 ADD DUP7 PUSH2 0x33A9 JUMP JUMPDEST PUSH2 0x3651 PUSH1 0x20 DUP4 ADD DUP6 PUSH2 0x3554 JUMP JUMPDEST PUSH2 0x365E PUSH1 0x40 DUP4 ADD DUP5 PUSH2 0x3554 JUMP JUMPDEST SWAP5 SWAP4 POP POP POP POP JUMP JUMPDEST PUSH2 0x366F DUP2 PUSH2 0x3397 JUMP JUMPDEST DUP2 EQ PUSH2 0x367A JUMPI PUSH1 0x0 DUP1 REVERT JUMPDEST POP JUMP JUMPDEST PUSH1 0x0 DUP2 CALLDATALOAD SWAP1 POP PUSH2 0x368C DUP2 PUSH2 0x3666 JUMP JUMPDEST SWAP3 SWAP2 POP POP JUMP JUMPDEST PUSH1 0x0 DUP1 PUSH1 0x40 DUP4 DUP6 SUB SLT ISZERO PUSH2 0x36A9 JUMPI PUSH2 0x36A8 PUSH2 0x330A JUMP JUMPDEST JUMPDEST PUSH1 0x0 PUSH2 0x36B7 DUP6 DUP3 DUP7 ADD PUSH2 0x367D JUMP JUMPDEST SWAP3 POP POP PUSH1 0x20 PUSH2 0x36C8 DUP6 DUP3 DUP7 ADD PUSH2 0x3335 JUMP JUMPDEST SWAP2 POP POP SWAP3 POP SWAP3 SWAP1 POP JUMP JUMPDEST PUSH1 0x0 DUP2 ISZERO ISZERO SWAP1 POP SWAP2 SWAP1 POP JUMP JUMPDEST PUSH2 0x36E7 DUP2 PUSH2 0x36D2 JUMP JUMPDEST DUP3 MSTORE POP POP JUMP JUMPDEST PUSH1 0x0 PUSH1 0x20 DUP3 ADD SWAP1 POP PUSH2 0x3702 PUSH1 0x0 DUP4 ADD DUP5 PUSH2 0x36DE JUMP JUMPDEST SWAP3 SWAP2 POP POP JUMP JUMPDEST PUSH1 0x0 DUP1 REVERT JUMPDEST PUSH1 0x0 DUP1 REVERT JUMPDEST PUSH32 0x4E487B7100000000000000000000000000000000000000000000000000000000 PUSH1 0x0 MSTORE PUSH1 0x41 PUSH1 0x4 MSTORE PUSH1 0x24 PUSH1 0x0 REVERT JUMPDEST PUSH2 0x374A DUP3 PUSH2 0x342A JUMP JUMPDEST DUP2 ADD DUP2 DUP2 LT PUSH8 0xFFFFFFFFFFFFFFFF DUP3 GT OR ISZERO PUSH2 0x3769 JUMPI PUSH2 0x3768 PUSH2 0x3712 JUMP JUMPDEST JUMPDEST DUP1 PUSH1 0x40 MSTORE POP POP POP JUMP JUMPDEST PUSH1 0x0 PUSH2 0x377C PUSH2 0x3300 JUMP JUMPDEST SWAP1 POP PUSH2 0x3788 DUP3 DUP3 PUSH2 0x3741 JUMP JUMPDEST SWAP2 SWAP1 POP JUMP JUMPDEST PUSH1 0x0 PUSH8 0xFFFFFFFFFFFFFFFF DUP3 GT ISZERO PUSH2 0x37A8 JUMPI PUSH2 0x37A7 PUSH2 0x3712 JUMP JUMPDEST JUMPDEST PUSH2 0x37B1 DUP3 PUSH2 0x342A JUMP JUMPDEST SWAP1 POP PUSH1 0x20 DUP2 ADD SWAP1 POP SWAP2 SWAP1 POP JUMP JUMPDEST DUP3 DUP2 DUP4 CALLDATACOPY PUSH1 0x0 DUP4 DUP4 ADD MSTORE POP POP POP JUMP JUMPDEST PUSH1 0x0 PUSH2 0x37E0 PUSH2 0x37DB DUP5 PUSH2 0x378D JUMP JUMPDEST PUSH2 0x3772 JUMP JUMPDEST SWAP1 POP DUP3 DUP2 MSTORE PUSH1 0x20 DUP2 ADD DUP5 DUP5 DUP5 ADD GT ISZERO PUSH2 0x37FC JUMPI PUSH2 0x37FB PUSH2 0x370D JUMP JUMPDEST JUMPDEST PUSH2 0x3807 DUP5 DUP3 DUP6 PUSH2 0x37BE JUMP JUMPDEST POP SWAP4 SWAP3 POP POP POP JUMP JUMPDEST PUSH1 0x0 DUP3 PUSH1 0x1F DUP4 ADD SLT PUSH2 0x3824 JUMPI PUSH2 0x3823 PUSH2 0x3708 JUMP JUMPDEST JUMPDEST DUP2 CALLDATALOAD PUSH2 0x3834 DUP5 DUP3 PUSH1 0x20 DUP7 ADD PUSH2 0x37CD JUMP JUMPDEST SWAP2 POP POP SWAP3 SWAP2 POP POP JUMP JUMPDEST PUSH1 0x0 DUP1 PUSH1 0x0 PUSH1 0x60 DUP5 DUP7 SUB SLT ISZERO PUSH2 0x3856 JUMPI PUSH2 0x3855 PUSH2 0x330A JUMP JUMPDEST JUMPDEST PUSH1 0x0 DUP5 ADD CALLDATALOAD PUSH8 0xFFFFFFFFFFFFFFFF DUP2 GT ISZERO PUSH2 0x3874 JUMPI PUSH2 0x3873 PUSH2 0x330F JUMP JUMPDEST JUMPDEST PUSH2 0x3880 DUP7 DUP3 DUP8 ADD PUSH2 0x380F JUMP JUMPDEST SWAP4 POP POP PUSH1 0x20 DUP5 ADD CALLDATALOAD PUSH8 0xFFFFFFFFFFFFFFFF DUP2 GT ISZERO PUSH2 0x38A1 JUMPI PUSH2 0x38A0 PUSH2 0x330F JUMP JUMPDEST JUMPDEST PUSH2 0x38AD DUP7 DUP3 DUP8 ADD PUSH2 0x380F JUMP JUMPDEST SWAP3 POP POP PUSH1 0x40 DUP5 ADD CALLDATALOAD PUSH8 0xFFFFFFFFFFFFFFFF DUP2 GT ISZERO PUSH2 0x38CE JUMPI PUSH2 0x38CD PUSH2 0x330F JUMP JUMPDEST JUMPDEST PUSH2 0x38DA DUP7 DUP3 DUP8 ADD PUSH2 0x380F JUMP JUMPDEST SWAP2 POP POP SWAP3 POP SWAP3 POP SWAP3 JUMP JUMPDEST PUSH1 0x0 PUSH1 0x20 DUP3 ADD SWAP1 POP PUSH2 0x38F9 PUSH1 0x0 DUP4 ADD DUP5 PUSH2 0x3554 JUMP JUMPDEST SWAP3 SWAP2 POP POP JUMP JUMPDEST PUSH1 0x0 DUP2 MLOAD SWAP1 POP SWAP2 SWAP1 POP JUMP JUMPDEST PUSH1 0x0 DUP3 DUP3 MSTORE PUSH1 0x20 DUP3 ADD SWAP1 POP SWAP3 SWAP2 POP POP JUMP JUMPDEST PUSH1 0x0 DUP2 SWAP1 POP PUSH1 0x20 DUP3 ADD SWAP1 POP SWAP2 SWAP1 POP JUMP JUMPDEST PUSH2 0x3934 DUP2 PUSH2 0x3397 JUMP JUMPDEST DUP3 MSTORE POP POP JUMP JUMPDEST PUSH2 0x3943 DUP2 PUSH2 0x3314 JUMP JUMPDEST DUP3 MSTORE POP POP JUMP JUMPDEST PUSH1 0x60 DUP3 ADD PUSH1 0x0 DUP3 ADD MLOAD PUSH2 0x395F PUSH1 0x0 DUP6 ADD DUP3 PUSH2 0x392B JUMP JUMPDEST POP PUSH1 0x20 DUP3 ADD MLOAD PUSH2 0x3972 PUSH1 0x20 DUP6 ADD DUP3 PUSH2 0x393A JUMP JUMPDEST POP PUSH1 0x40 DUP3 ADD MLOAD PUSH2 0x3985 PUSH1 0x40 DUP6 ADD DUP3 PUSH2 0x393A JUMP JUMPDEST POP POP POP POP JUMP JUMPDEST PUSH1 0x0 PUSH2 0x3997 DUP4 DUP4 PUSH2 0x3949 JUMP JUMPDEST PUSH1 0x60 DUP4 ADD SWAP1 POP SWAP3 SWAP2 POP POP JUMP JUMPDEST PUSH1 0x0 PUSH1 0x20 DUP3 ADD SWAP1 POP SWAP2 SWAP1 POP JUMP JUMPDEST PUSH1 0x0 PUSH2 0x39BB DUP3 PUSH2 0x38FF JUMP JUMPDEST PUSH2 0x39C5 DUP2 DUP6 PUSH2 0x390A JUMP JUMPDEST SWAP4 POP PUSH2 0x39D0 DUP4 PUSH2 0x391B JUMP JUMPDEST DUP1 PUSH1 0x0 JUMPDEST DUP4 DUP2 LT ISZERO PUSH2 0x3A01 JUMPI DUP2 MLOAD PUSH2 0x39E8 DUP9 DUP3 PUSH2 0x398B JUMP JUMPDEST SWAP8 POP PUSH2 0x39F3 DUP4 PUSH2 0x39A3 JUMP JUMPDEST SWAP3 POP POP PUSH1 0x1 DUP2 ADD SWAP1 POP PUSH2 0x39D4 JUMP JUMPDEST POP DUP6 SWAP4 POP POP POP POP SWAP3 SWAP2 POP POP JUMP JUMPDEST PUSH1 0x0 PUSH1 0x20 DUP3 ADD SWAP1 POP DUP2 DUP2 SUB PUSH1 0x0 DUP4 ADD MSTORE PUSH2 0x3A28 DUP2 DUP5 PUSH2 0x39B0 JUMP JUMPDEST SWAP1 POP SWAP3 SWAP2 POP POP JUMP JUMPDEST PUSH1 0x0 PUSH1 0x20 DUP3 DUP5 SUB SLT ISZERO PUSH2 0x3A46 JUMPI PUSH2 0x3A45 PUSH2 0x330A JUMP JUMPDEST JUMPDEST PUSH1 0x0 PUSH2 0x3A54 DUP5 DUP3 DUP6 ADD PUSH2 0x367D JUMP JUMPDEST SWAP2 POP POP SWAP3 SWAP2 POP POP JUMP JUMPDEST PUSH1 0x0 DUP2 MLOAD SWAP1 POP SWAP2 SWAP1 POP JUMP JUMPDEST PUSH1 0x0 DUP3 DUP3 MSTORE PUSH1 0x20 DUP3 ADD SWAP1 POP SWAP3 SWAP2 POP POP JUMP JUMPDEST PUSH1 0x0 DUP2 SWAP1 POP PUSH1 0x20 DUP3 ADD SWAP1 POP SWAP2 SWAP1 POP JUMP JUMPDEST PUSH1 0x0 PUSH2 0x3A95 DUP4 DUP4 PUSH2 0x393A JUMP JUMPDEST PUSH1 0x20 DUP4 ADD SWAP1 POP SWAP3 SWAP2 POP POP JUMP JUMPDEST PUSH1 0x0 PUSH1 0x20 DUP3 ADD SWAP1 POP SWAP2 SWAP1 POP JUMP JUMPDEST PUSH1 0x0 PUSH2 0x3AB9 DUP3 PUSH2 0x3A5D JUMP JUMPDEST PUSH2 0x3AC3 DUP2 DUP6 PUSH2 0x3A68 JUMP JUMPDEST SWAP4 POP PUSH2 0x3ACE DUP4 PUSH2 0x3A79 JUMP JUMPDEST DUP1 PUSH1 0x0 JUMPDEST DUP4 DUP2 LT ISZERO PUSH2 0x3AFF JUMPI DUP2 MLOAD PUSH2 0x3AE6 DUP9 DUP3 PUSH2 0x3A89 JUMP JUMPDEST SWAP8 POP PUSH2 0x3AF1 DUP4 PUSH2 0x3AA1 JUMP JUMPDEST SWAP3 POP POP PUSH1 0x1 DUP2 ADD SWAP1 POP PUSH2 0x3AD2 JUMP JUMPDEST POP DUP6 SWAP4 POP POP POP POP SWAP3 SWAP2 POP POP JUMP JUMPDEST PUSH1 0x0 PUSH1 0x80 DUP3 ADD SWAP1 POP DUP2 DUP2 SUB PUSH1 0x0 DUP4 ADD MSTORE PUSH2 0x3B26 DUP2 DUP8 PUSH2 0x351B JUMP JUMPDEST SWAP1 POP DUP2 DUP2 SUB PUSH1 0x20 DUP4 ADD MSTORE PUSH2 0x3B3A DUP2 DUP7 PUSH2 0x351B JUMP JUMPDEST SWAP1 POP PUSH2 0x3B49 PUSH1 0x40 DUP4 ADD DUP6 PUSH2 0x3554 JUMP JUMPDEST DUP2 DUP2 SUB PUSH1 0x60 DUP4 ADD MSTORE PUSH2 0x3B5B DUP2 DUP5 PUSH2 0x3AAE JUMP JUMPDEST SWAP1 POP SWAP6 SWAP5 POP POP POP POP POP JUMP JUMPDEST PUSH1 0x0 PUSH8 0xFFFFFFFFFFFFFFFF DUP3 GT ISZERO PUSH2 0x3B81 JUMPI PUSH2 0x3B80 PUSH2 0x3712 JUMP JUMPDEST JUMPDEST PUSH1 0x20 DUP3 MUL SWAP1 POP PUSH1 0x20 DUP2 ADD SWAP1 POP SWAP2 SWAP1 POP JUMP JUMPDEST PUSH1 0x0 DUP1 REVERT JUMPDEST PUSH1 0x0 PUSH2 0x3BAA PUSH2 0x3BA5 DUP5 PUSH2 0x3B66 JUMP JUMPDEST PUSH2 0x3772 JUMP JUMPDEST SWAP1 POP DUP1 DUP4 DUP3 MSTORE PUSH1 0x20 DUP3 ADD SWAP1 POP PUSH1 0x20 DUP5 MUL DUP4 ADD DUP6 DUP2 GT ISZERO PUSH2 0x3BCD JUMPI PUSH2 0x3BCC PUSH2 0x3B92 JUMP JUMPDEST JUMPDEST DUP4 JUMPDEST DUP2 DUP2 LT ISZERO PUSH2 0x3C14 JUMPI DUP1 CALLDATALOAD PUSH8 0xFFFFFFFFFFFFFFFF DUP2 GT ISZERO PUSH2 0x3BF2 JUMPI PUSH2 0x3BF1 PUSH2 0x3708 JUMP JUMPDEST JUMPDEST DUP1 DUP7 ADD PUSH2 0x3BFF DUP10 DUP3 PUSH2 0x380F JUMP JUMPDEST DUP6 MSTORE PUSH1 0x20 DUP6 ADD SWAP5 POP POP POP PUSH1 0x20 DUP2 ADD SWAP1 POP PUSH2 0x3BCF JUMP JUMPDEST POP POP POP SWAP4 SWAP3 POP POP POP JUMP JUMPDEST PUSH1 0x0 DUP3 PUSH1 0x1F DUP4 ADD SLT PUSH2 0x3C33 JUMPI PUSH2 0x3C32 PUSH2 0x3708 JUMP JUMPDEST JUMPDEST DUP2 CALLDATALOAD PUSH2 0x3C43 DUP5 DUP3 PUSH1 0x20 DUP7 ADD PUSH2 0x3B97 JUMP JUMPDEST SWAP2 POP POP SWAP3 SWAP2 POP POP JUMP JUMPDEST PUSH1 0x0 PUSH1 0x20 DUP3 DUP5 SUB SLT ISZERO PUSH2 0x3C62 JUMPI PUSH2 0x3C61 PUSH2 0x330A JUMP JUMPDEST JUMPDEST PUSH1 0x0 DUP3 ADD CALLDATALOAD PUSH8 0xFFFFFFFFFFFFFFFF DUP2 GT ISZERO PUSH2 0x3C80 JUMPI PUSH2 0x3C7F PUSH2 0x330F JUMP JUMPDEST JUMPDEST PUSH2 0x3C8C DUP5 DUP3 DUP6 ADD PUSH2 0x3C1E JUMP JUMPDEST SWAP2 POP POP SWAP3 SWAP2 POP POP JUMP JUMPDEST PUSH1 0x0 PUSH1 0x20 DUP3 ADD SWAP1 POP DUP2 DUP2 SUB PUSH1 0x0 DUP4 ADD MSTORE PUSH2 0x3CAF DUP2 DUP5 PUSH2 0x3AAE JUMP JUMPDEST SWAP1 POP SWAP3 SWAP2 POP POP JUMP JUMPDEST PUSH1 0x0 PUSH1 0x40 DUP3 ADD SWAP1 POP DUP2 DUP2 SUB PUSH1 0x0 DUP4 ADD MSTORE PUSH2 0x3CD1 DUP2 DUP6 PUSH2 0x3AAE JUMP JUMPDEST SWAP1 POP DUP2 DUP2 SUB PUSH1 0x20 DUP4 ADD MSTORE PUSH2 0x3CE5 DUP2 DUP5 PUSH2 0x3495 JUMP JUMPDEST SWAP1 POP SWAP4 SWAP3 POP POP POP JUMP JUMPDEST PUSH1 0x0 DUP2 MLOAD SWAP1 POP SWAP2 SWAP1 POP JUMP JUMPDEST PUSH1 0x0 DUP3 DUP3 MSTORE PUSH1 0x20 DUP3 ADD SWAP1 POP SWAP3 SWAP2 POP POP JUMP JUMPDEST PUSH1 0x0 DUP2 SWAP1 POP PUSH1 0x20 DUP3 ADD SWAP1 POP SWAP2 SWAP1 POP JUMP JUMPDEST PUSH1 0x0 PUSH2 0x3D26 DUP4 DUP4 PUSH2 0x392B JUMP JUMPDEST PUSH1 0x20 DUP4 ADD SWAP1 POP SWAP3 SWAP2 POP POP JUMP JUMPDEST PUSH1 0x0 PUSH1 0x20 DUP3 ADD SWAP1 POP SWAP2 SWAP1 POP JUMP JUMPDEST PUSH1 0x0 PUSH2 0x3D4A DUP3 PUSH2 0x3CEE JUMP JUMPDEST PUSH2 0x3D54 DUP2 DUP6 PUSH2 0x3CF9 JUMP JUMPDEST SWAP4 POP PUSH2 0x3D5F DUP4 PUSH2 0x3D0A JUMP JUMPDEST DUP1 PUSH1 0x0 JUMPDEST DUP4 DUP2 LT ISZERO PUSH2 0x3D90 JUMPI DUP2 MLOAD PUSH2 0x3D77 DUP9 DUP3 PUSH2 0x3D1A JUMP JUMPDEST SWAP8 POP PUSH2 0x3D82 DUP4 PUSH2 0x3D32 JUMP JUMPDEST SWAP3 POP POP PUSH1 0x1 DUP2 ADD SWAP1 POP PUSH2 0x3D63 JUMP JUMPDEST POP DUP6 SWAP4 POP POP POP POP SWAP3 SWAP2 POP POP JUMP JUMPDEST PUSH1 0x0 PUSH1 0x20 DUP3 ADD SWAP1 POP DUP2 DUP2 SUB PUSH1 0x0 DUP4 ADD MSTORE PUSH2 0x3DB7 DUP2 DUP5 PUSH2 0x3D3F JUMP JUMPDEST SWAP1 POP SWAP3 SWAP2 POP POP JUMP JUMPDEST PUSH1 0x0 PUSH1 0xE0 DUP3 ADD SWAP1 POP PUSH2 0x3DD4 PUSH1 0x0 DUP4 ADD DUP11 PUSH2 0x33A9 JUMP JUMPDEST DUP2 DUP2 SUB PUSH1 0x20 DUP4 ADD MSTORE PUSH2 0x3DE6 DUP2 DUP10 PUSH2 0x351B JUMP JUMPDEST SWAP1 POP PUSH2 0x3DF5 PUSH1 0x40 DUP4 ADD DUP9 PUSH2 0x3554 JUMP JUMPDEST PUSH2 0x3E02 PUSH1 0x60 DUP4 ADD DUP8 PUSH2 0x3554 JUMP JUMPDEST PUSH2 0x3E0F PUSH1 0x80 DUP4 ADD DUP7 PUSH2 0x3554 JUMP JUMPDEST PUSH2 0x3E1C PUSH1 0xA0 DUP4 ADD DUP6 PUSH2 0x3554 JUMP JUMPDEST PUSH2 0x3E29 PUSH1 0xC0 DUP4 ADD DUP5 PUSH2 0x3554 JUMP JUMPDEST SWAP9 SWAP8 POP POP POP POP POP POP POP POP JUMP JUMPDEST PUSH1 0x0 PUSH1 0x20 DUP3 ADD SWAP1 POP PUSH2 0x3E4A PUSH1 0x0 DUP4 ADD DUP5 PUSH2 0x33A9 JUMP JUMPDEST SWAP3 SWAP2 POP POP JUMP JUMPDEST PUSH2 0x3E59 DUP2 PUSH2 0x36D2 JUMP JUMPDEST DUP2 EQ PUSH2 0x3E64 JUMPI PUSH1 0x0 DUP1 REVERT JUMPDEST POP JUMP JUMPDEST PUSH1 0x0 DUP2 CALLDATALOAD SWAP1 POP PUSH2 0x3E76 DUP2 PUSH2 0x3E50 JUMP JUMPDEST SWAP3 SWAP2 POP POP JUMP JUMPDEST PUSH1 0x0 DUP1 PUSH1 0x40 DUP4 DUP6 SUB SLT ISZERO PUSH2 0x3E93 JUMPI PUSH2 0x3E92 PUSH2 0x330A JUMP JUMPDEST JUMPDEST PUSH1 0x0 PUSH2 0x3EA1 DUP6 DUP3 DUP7 ADD PUSH2 0x3335 JUMP JUMPDEST SWAP3 POP POP PUSH1 0x20 PUSH2 0x3EB2 DUP6 DUP3 DUP7 ADD PUSH2 0x3E67 JUMP JUMPDEST SWAP2 POP POP SWAP3 POP SWAP3 SWAP1 POP JUMP JUMPDEST PUSH1 0x0 PUSH1 0x80 DUP3 ADD SWAP1 POP DUP2 DUP2 SUB PUSH1 0x0 DUP4 ADD MSTORE PUSH2 0x3ED6 DUP2 DUP8 PUSH2 0x351B JUMP JUMPDEST SWAP1 POP DUP2 DUP2 SUB PUSH1 0x20 DUP4 ADD MSTORE PUSH2 0x3EEA DUP2 DUP7 PUSH2 0x351B JUMP JUMPDEST SWAP1 POP PUSH2 0x3EF9 PUSH1 0x40 DUP4 ADD DUP6 PUSH2 0x3554 JUMP JUMPDEST DUP2 DUP2 SUB PUSH1 0x60 DUP4 ADD MSTORE PUSH2 0x3F0B DUP2 DUP5 PUSH2 0x351B JUMP JUMPDEST SWAP1 POP SWAP6 SWAP5 POP POP POP POP POP JUMP JUMPDEST PUSH32 0x5461736B20646F6573206E6F7420657869737400000000000000000000000000 PUSH1 0x0 DUP3 ADD MSTORE POP JUMP JUMPDEST PUSH1 0x0 PUSH2 0x3F4C PUSH1 0x13 DUP4 PUSH2 0x350A JUMP JUMPDEST SWAP2 POP PUSH2 0x3F57 DUP3 PUSH2 0x3F16 JUMP JUMPDEST PUSH1 0x20 DUP3 ADD SWAP1 POP SWAP2 SWAP1 POP JUMP JUMPDEST PUSH1 0x0 PUSH1 0x20 DUP3 ADD SWAP1 POP DUP2 DUP2 SUB PUSH1 0x0 DUP4 ADD MSTORE PUSH2 0x3F7B DUP2 PUSH2 0x3F3F JUMP JUMPDEST SWAP1 POP SWAP2 SWAP1 POP JUMP JUMPDEST PUSH32 0x4E487B7100000000000000000000000000000000000000000000000000000000 PUSH1 0x0 MSTORE PUSH1 0x22 PUSH1 0x4 MSTORE PUSH1 0x24 PUSH1 0x0 REVERT JUMPDEST PUSH1 0x0 PUSH1 0x2 DUP3 DIV SWAP1 POP PUSH1 0x1 DUP3 AND DUP1 PUSH2 0x3FC9 JUMPI PUSH1 0x7F DUP3 AND SWAP2 POP JUMPDEST PUSH1 0x20 DUP3 LT DUP2 SUB PUSH2 0x3FDC JUMPI PUSH2 0x3FDB PUSH2 0x3F82 JUMP JUMPDEST JUMPDEST POP SWAP2 SWAP1 POP JUMP JUMPDEST PUSH1 0x0 DUP2 SWAP1 POP SWAP3 SWAP2 POP POP JUMP JUMPDEST PUSH1 0x0 DUP2 SWAP1 POP DUP2 PUSH1 0x0 MSTORE PUSH1 0x20 PUSH1 0x0 KECCAK256 SWAP1 POP SWAP2 SWAP1 POP JUMP JUMPDEST PUSH1 0x0 DUP2 SLOAD PUSH2 0x400F DUP2 PUSH2 0x3FB1 JUMP JUMPDEST PUSH2 0x4019 DUP2 DUP7 PUSH2 0x3FE2 JUMP JUMPDEST SWAP5 POP PUSH1 0x1 DUP3 AND PUSH1 0x0 DUP2 EQ PUSH2 0x4034 JUMPI PUSH1 0x1 DUP2 EQ PUSH2 0x4049 JUMPI PUSH2 0x407C JUMP JUMPDEST PUSH1 0xFF NOT DUP4 AND DUP7 MSTORE DUP2 ISZERO ISZERO DUP3 MUL DUP7 ADD SWAP4 POP PUSH2 0x407C JUMP JUMPDEST PUSH2 0x4052 DUP6 PUSH2 0x3FED JUMP JUMPDEST PUSH1 0x0 JUMPDEST DUP4 DUP2 LT ISZERO PUSH2 0x4074 JUMPI DUP2 SLOAD DUP2 DUP10 ADD MSTORE PUSH1 0x1 DUP3 ADD SWAP2 POP PUSH1 0x20 DUP2 ADD SWAP1 POP PUSH2 0x4055 JUMP JUMPDEST DUP4 DUP9 ADD SWAP6 POP POP POP JUMPDEST POP POP POP SWAP3 SWAP2 POP POP JUMP JUMPDEST PUSH1 0x0 PUSH2 0x4091 DUP3 DUP5 PUSH2 0x4002 JUMP JUMPDEST SWAP2 POP DUP2 SWAP1 POP SWAP3 SWAP2 POP POP JUMP JUMPDEST PUSH32 0x5461736B20616C7265616479207265736F6C7665640000000000000000000000 PUSH1 0x0 DUP3 ADD MSTORE POP JUMP JUMPDEST PUSH1 0x0 PUSH2 0x40D2 PUSH1 0x15 DUP4 PUSH2 0x350A JUMP JUMPDEST SWAP2 POP PUSH2 0x40DD DUP3 PUSH2 0x409C JUMP JUMPDEST PUSH1 0x20 DUP3 ADD SWAP1 POP SWAP2 SWAP1 POP JUMP JUMPDEST PUSH1 0x0 PUSH1 0x20 DUP3 ADD SWAP1 POP DUP2 DUP2 SUB PUSH1 0x0 DUP4 ADD MSTORE PUSH2 0x4101 DUP2 PUSH2 0x40C5 JUMP JUMPDEST SWAP1 POP SWAP2 SWAP1 POP JUMP JUMPDEST PUSH32 0x4E487B7100000000000000000000000000000000000000000000000000000000 PUSH1 0x0 MSTORE PUSH1 0x11 PUSH1 0x4 MSTORE PUSH1 0x24 PUSH1 0x0 REVERT JUMPDEST PUSH1 0x0 PUSH2 0x4142 DUP3 PUSH2 0x3314 JUMP JUMPDEST SWAP2 POP PUSH2 0x414D DUP4 PUSH2 0x3314 JUMP JUMPDEST SWAP3 POP DUP3 DUP3 ADD SWAP1 POP DUP1 DUP3 GT ISZERO PUSH2 0x4165 JUMPI PUSH2 0x4164 PUSH2 0x4108 JUMP JUMPDEST JUMPDEST SWAP3 SWAP2 POP POP JUMP JUMPDEST PUSH32 0x566F74696E6720706572696F64206E6F7420656E646564000000000000000000 PUSH1 0x0 DUP3 ADD MSTORE POP JUMP JUMPDEST PUSH1 0x0 PUSH2 0x41A1 PUSH1 0x17 DUP4 PUSH2 0x350A JUMP JUMPDEST SWAP2 POP PUSH2 0x41AC DUP3 PUSH2 0x416B JUMP JUMPDEST PUSH1 0x20 DUP3 ADD SWAP1 POP SWAP2 SWAP1 POP JUMP JUMPDEST PUSH1 0x0 PUSH1 0x20 DUP3 ADD SWAP1 POP DUP2 DUP2 SUB PUSH1 0x0 DUP4 ADD MSTORE PUSH2 0x41D0 DUP2 PUSH2 0x4194 JUMP JUMPDEST SWAP1 POP SWAP2 SWAP1 POP JUMP JUMPDEST PUSH1 0x0 PUSH2 0x41E2 DUP3 PUSH2 0x3314 JUMP JUMPDEST SWAP2 POP PUSH2 0x41ED DUP4 PUSH2 0x3314 JUMP JUMPDEST SWAP3 POP DUP3 DUP3 MUL PUSH2 0x41FB DUP2 PUSH2 0x3314 JUMP JUMPDEST SWAP2 POP DUP3 DUP3 DIV DUP5 EQ DUP4 ISZERO OR PUSH2 0x4212 JUMPI PUSH2 0x4211 PUSH2 0x4108 JUMP JUMPDEST JUMPDEST POP SWAP3 SWAP2 POP POP JUMP JUMPDEST PUSH32 0x4E487B7100000000000000000000000000000000000000000000000000000000 PUSH1 0x0 MSTORE PUSH1 0x12 PUSH1 0x4 MSTORE PUSH1 0x24 PUSH1 0x0 REVERT JUMPDEST PUSH1 0x0 PUSH2 0x4253 DUP3 PUSH2 0x3314 JUMP JUMPDEST SWAP2 POP PUSH2 0x425E DUP4 PUSH2 0x3314 JUMP JUMPDEST SWAP3 POP DUP3 PUSH2 0x426E JUMPI PUSH2 0x426D PUSH2 0x4219 JUMP JUMPDEST JUMPDEST DUP3 DUP3 DIV SWAP1 POP SWAP3 SWAP2 POP POP JUMP JUMPDEST PUSH1 0x0 PUSH2 0x4284 DUP3 PUSH2 0x3314 JUMP JUMPDEST SWAP2 POP PUSH2 0x428F DUP4 PUSH2 0x3314 JUMP JUMPDEST SWAP3 POP DUP3 DUP3 SUB SWAP1 POP DUP2 DUP2 GT ISZERO PUSH2 0x42A7 JUMPI PUSH2 0x42A6 PUSH2 0x4108 JUMP JUMPDEST JUMPDEST SWAP3 SWAP2 POP POP JUMP JUMPDEST PUSH1 0x0 DUP2 SWAP1 POP DUP2 PUSH1 0x0 MSTORE PUSH1 0x20 PUSH1 0x0 KECCAK256 SWAP1 POP SWAP2 SWAP1 POP JUMP JUMPDEST PUSH1 0x0 PUSH1 0x20 PUSH1 0x1F DUP4 ADD DIV SWAP1 POP SWAP2 SWAP1 POP JUMP JUMPDEST PUSH1 0x0 DUP3 DUP3 SHL SWAP1 POP SWAP3 SWAP2 POP POP JUMP JUMPDEST PUSH1 0x0 PUSH1 0x8 DUP4 MUL PUSH2 0x430F PUSH32 0xFFFFFFFFFFFFFFFFFFFFFFFFFFFFFFFFFFFFFFFFFFFFFFFFFFFFFFFFFFFFFFFF DUP3 PUSH2 0x42D2 JUMP JUMPDEST PUSH2 0x4319 DUP7 DUP4 PUSH2 0x42D2 JUMP JUMPDEST SWAP6 POP DUP1 NOT DUP5 AND SWAP4 POP DUP1 DUP7 AND DUP5 OR SWAP3 POP POP POP SWAP4 SWAP3 POP POP POP JUMP JUMPDEST PUSH1 0x0 DUP2 SWAP1 POP SWAP2 SWAP1 POP JUMP JUMPDEST PUSH1 0x0 PUSH2 0x4356 PUSH2 0x4351 PUSH2 0x434C DUP5 PUSH2 0x3314 JUMP JUMPDEST PUSH2 0x4331 JUMP JUMPDEST PUSH2 0x3314 JUMP JUMPDEST SWAP1 POP SWAP2 SWAP1 POP JUMP JUMPDEST PUSH1 0x0 DUP2 SWAP1 POP SWAP2 SWAP1 POP JUMP JUMPDEST PUSH2 0x4370 DUP4 PUSH2 0x433B JUMP JUMPDEST PUSH2 0x4384 PUSH2 0x437C DUP3 PUSH2 0x435D JUMP JUMPDEST DUP5 DUP5 SLOAD PUSH2 0x42DF JUMP JUMPDEST DUP3 SSTORE POP POP POP POP JUMP JUMPDEST PUSH1 0x0 SWAP1 JUMP JUMPDEST PUSH2 0x4399 PUSH2 0x438C JUMP JUMPDEST PUSH2 0x43A4 DUP2 DUP5 DUP5 PUSH2 0x4367 JUMP JUMPDEST POP POP POP JUMP JUMPDEST JUMPDEST DUP2 DUP2 LT ISZERO PUSH2 0x43C8 JUMPI PUSH2 0x43BD PUSH1 0x0 DUP3 PUSH2 0x4391 JUMP JUMPDEST PUSH1 0x1 DUP2 ADD SWAP1 POP PUSH2 0x43AA JUMP JUMPDEST POP POP JUMP JUMPDEST PUSH1 0x1F DUP3 GT ISZERO PUSH2 0x440D JUMPI PUSH2 0x43DE DUP2 PUSH2 0x42AD JUMP JUMPDEST PUSH2 0x43E7 DUP5 PUSH2 0x42C2 JUMP JUMPDEST DUP2 ADD PUSH1 0x20 DUP6 LT ISZERO PUSH2 0x43F6 JUMPI DUP2 SWAP1 POP JUMPDEST PUSH2 0x440A PUSH2 0x4402 DUP6 PUSH2 0x42C2 JUMP JUMPDEST DUP4 ADD DUP3 PUSH2 0x43A9 JUMP JUMPDEST POP POP JUMPDEST POP POP POP JUMP JUMPDEST PUSH1 0x0 DUP3 DUP3 SHR SWAP1 POP SWAP3 SWAP2 POP POP JUMP JUMPDEST PUSH1 0x0 PUSH2 0x4430 PUSH1 0x0 NOT DUP5 PUSH1 0x8 MUL PUSH2 0x4412 JUMP JUMPDEST NOT DUP1 DUP4 AND SWAP2 POP POP SWAP3 SWAP2 POP POP JUMP JUMPDEST PUSH1 0x0 PUSH2 0x4449 DUP4 DUP4 PUSH2 0x441F JUMP JUMPDEST SWAP2 POP DUP3 PUSH1 0x2 MUL DUP3 OR SWAP1 POP SWAP3 SWAP2 POP POP JUMP JUMPDEST PUSH2 0x4462 DUP3 PUSH2 0x33E4 JUMP JUMPDEST PUSH8 0xFFFFFFFFFFFFFFFF DUP2 GT ISZERO PUSH2 0x447B JUMPI PUSH2 0x447A PUSH2 0x3712 JUMP JUMPDEST JUMPDEST PUSH2 0x4485 DUP3 SLOAD PUSH2 0x3FB1 JUMP JUMPDEST PUSH2 0x4490 DUP3 DUP3 DUP6 PUSH2 0x43CC JUMP JUMPDEST PUSH1 0x0 PUSH1 0x20 SWAP1 POP PUSH1 0x1F DUP4 GT PUSH1 0x1 DUP2 EQ PUSH2 0x44C3 JUMPI PUSH1 0x0 DUP5 ISZERO PUSH2 0x44B1 JUMPI DUP3 DUP8 ADD MLOAD SWAP1 POP JUMPDEST PUSH2 0x44BB DUP6 DUP3 PUSH2 0x443D JUMP JUMPDEST DUP7 SSTORE POP PUSH2 0x4523 JUMP JUMPDEST PUSH1 0x1F NOT DUP5 AND PUSH2 0x44D1 DUP7 PUSH2 0x42AD JUMP JUMPDEST PUSH1 0x0 JUMPDEST DUP3 DUP2 LT ISZERO PUSH2 0x44F9 JUMPI DUP5 DUP10 ADD MLOAD DUP3 SSTORE PUSH1 0x1 DUP3 ADD SWAP2 POP PUSH1 0x20 DUP6 ADD SWAP5 POP PUSH1 0x20 DUP2 ADD SWAP1 POP PUSH2 0x44D4 JUMP JUMPDEST DUP7 DUP4 LT ISZERO PUSH2 0x4516 JUMPI DUP5 DUP10 ADD MLOAD PUSH2 0x4512 PUSH1 0x1F DUP10 AND DUP3 PUSH2 0x441F JUMP JUMPDEST DUP4 SSTORE POP JUMPDEST PUSH1 0x1 PUSH1 0x2 DUP9 MUL ADD DUP9 SSTORE POP POP POP JUMPDEST POP POP POP POP POP POP JUMP JUMPDEST POP JUMP JUMPDEST PUSH1 0x0 PUSH2 0x453B PUSH1 0x0 DUP4 PUSH2 0x3FE2 JUMP JUMPDEST SWAP2 POP PUSH2 0x4546 DUP3 PUSH2 0x452B JUMP JUMPDEST PUSH1 0x0 DUP3 ADD SWAP1 POP SWAP2 SWAP1 POP JUMP JUMPDEST PUSH1 0x0 PUSH2 0x455C DUP3 PUSH2 0x452E JUMP JUMPDEST SWAP2 POP DUP2 SWAP1 POP SWAP2 SWAP1 POP JUMP JUMPDEST PUSH32 0x4661696C656420746F2073656E642066756E647320746F204E474F0000000000 PUSH1 0x0 DUP3 ADD MSTORE POP JUMP JUMPDEST PUSH1 0x0 PUSH2 0x459C PUSH1 0x1B DUP4 PUSH2 0x350A JUMP JUMPDEST SWAP2 POP PUSH2 0x45A7 DUP3 PUSH2 0x4566 JUMP JUMPDEST PUSH1 0x20 DUP3 ADD SWAP1 POP SWAP2 SWAP1 POP JUMP JUMPDEST PUSH1 0x0 PUSH1 0x20 DUP3 ADD SWAP1 POP DUP2 DUP2 SUB PUSH1 0x0 DUP4 ADD MSTORE PUSH2 0x45CB DUP2 PUSH2 0x458F JUMP JUMPDEST SWAP1 POP SWAP2 SWAP1 POP JUMP JUMPDEST PUSH32 0x4E487B7100000000000000000000000000000000000000000000000000000000 PUSH1 0x0 MSTORE PUSH1 0x32 PUSH1 0x4 MSTORE PUSH1 0x24 PUSH1 0x0 REVERT JUMPDEST PUSH32 0x526566756E64206661696C656400000000000000000000000000000000000000 PUSH1 0x0 DUP3 ADD MSTORE POP JUMP JUMPDEST PUSH1 0x0 PUSH2 0x4637 PUSH1 0xD DUP4 PUSH2 0x350A JUMP JUMPDEST SWAP2 POP PUSH2 0x4642 DUP3 PUSH2 0x4601 JUMP JUMPDEST PUSH1 0x20 DUP3 ADD SWAP1 POP SWAP2 SWAP1 POP JUMP JUMPDEST PUSH1 0x0 PUSH1 0x20 DUP3 ADD SWAP1 POP DUP2 DUP2 SUB PUSH1 0x0 DUP4 ADD MSTORE PUSH2 0x4666 DUP2 PUSH2 0x462A JUMP JUMPDEST SWAP1 POP SWAP2 SWAP1 POP JUMP JUMPDEST PUSH1 0x0 DUP2 SLOAD PUSH2 0x467A DUP2 PUSH2 0x3FB1 JUMP JUMPDEST PUSH2 0x4684 DUP2 DUP7 PUSH2 0x350A JUMP JUMPDEST SWAP5 POP PUSH1 0x1 DUP3 AND PUSH1 0x0 DUP2 EQ PUSH2 0x469F JUMPI PUSH1 0x1 DUP2 EQ PUSH2 0x46B5 JUMPI PUSH2 0x46E8 JUMP JUMPDEST PUSH1 0xFF NOT DUP4 AND DUP7 MSTORE DUP2 ISZERO ISZERO PUSH1 0x20 MUL DUP7 ADD SWAP4 POP PUSH2 0x46E8 JUMP JUMPDEST PUSH2 0x46BE DUP6 PUSH2 0x42AD JUMP JUMPDEST PUSH1 0x0 JUMPDEST DUP4 DUP2 LT ISZERO PUSH2 0x46E0 JUMPI DUP2 SLOAD DUP2 DUP10 ADD MSTORE PUSH1 0x1 DUP3 ADD SWAP2 POP PUSH1 0x20 DUP2 ADD SWAP1 POP PUSH2 0x46C1 JUMP JUMPDEST DUP1 DUP9 ADD SWAP6 POP POP POP JUMPDEST POP POP POP SWAP3 SWAP2 POP POP JUMP JUMPDEST PUSH1 0x0 PUSH1 0x40 DUP3 ADD SWAP1 POP PUSH2 0x4706 PUSH1 0x0 DUP4 ADD DUP6 PUSH2 0x3554 JUMP JUMPDEST DUP2 DUP2 SUB PUSH1 0x20 DUP4 ADD MSTORE PUSH2 0x4718 DUP2 DUP5 PUSH2 0x466D JUMP JUMPDEST SWAP1 POP SWAP4 SWAP3 POP POP POP JUMP JUMPDEST PUSH32 0x4D757374207374616B6520455448000000000000000000000000000000000000 PUSH1 0x0 DUP3 ADD MSTORE POP JUMP JUMPDEST PUSH1 0x0 PUSH2 0x4757 PUSH1 0xE DUP4 PUSH2 0x350A JUMP JUMPDEST SWAP2 POP PUSH2 0x4762 DUP3 PUSH2 0x4721 JUMP JUMPDEST PUSH1 0x20 DUP3 ADD SWAP1 POP SWAP2 SWAP1 POP JUMP JUMPDEST PUSH1 0x0 PUSH1 0x20 DUP3 ADD SWAP1 POP DUP2 DUP2 SUB PUSH1 0x0 DUP4 ADD MSTORE PUSH2 0x4786 DUP2 PUSH2 0x474A JUMP JUMPDEST SWAP1 POP SWAP2 SWAP1 POP JUMP JUMPDEST PUSH32 0x4E474F20616C7265616479207265676973746572656400000000000000000000 PUSH1 0x0 DUP3 ADD MSTORE POP JUMP JUMPDEST PUSH1 0x0 PUSH2 0x47C3 PUSH1 0x16 DUP4 PUSH2 0x350A JUMP JUMPDEST SWAP2 POP PUSH2 0x47CE DUP3 PUSH2 0x478D JUMP JUMPDEST PUSH1 0x20 DUP3 ADD SWAP1 POP SWAP2 SWAP1 POP JUMP JUMPDEST PUSH1 0x0 PUSH1 0x20 DUP3 ADD SWAP1 POP DUP2 DUP2 SUB PUSH1 0x0 DUP4 ADD MSTORE PUSH2 0x47F2 DUP2 PUSH2 0x47B6 JUMP JUMPDEST SWAP1 POP SWAP2 SWAP1 POP JUMP JUMPDEST PUSH1 0x0 PUSH1 0x40 DUP3 ADD SWAP1 POP PUSH2 0x480E PUSH1 0x0 DUP4 ADD DUP6 PUSH2 0x33A9 JUMP JUMPDEST DUP2 DUP2 SUB PUSH1 0x20 DUP4 ADD MSTORE PUSH2 0x4820 DUP2 DUP5 PUSH2 0x351B JUMP JUMPDEST SWAP1 POP SWAP4 SWAP3 POP POP POP JUMP JUMPDEST PUSH32 0x4E474F206E6F7420726567697374657265640000000000000000000000000000 PUSH1 0x0 DUP3 ADD MSTORE POP JUMP JUMPDEST PUSH1 0x0 PUSH2 0x485F PUSH1 0x12 DUP4 PUSH2 0x350A JUMP JUMPDEST SWAP2 POP PUSH2 0x486A DUP3 PUSH2 0x4829 JUMP JUMPDEST PUSH1 0x20 DUP3 ADD SWAP1 POP SWAP2 SWAP1 POP JUMP JUMPDEST PUSH1 0x0 PUSH1 0x20 DUP3 ADD SWAP1 POP DUP2 DUP2 SUB PUSH1 0x0 DUP4 ADD MSTORE PUSH2 0x488E DUP2 PUSH2 0x4852 JUMP JUMPDEST SWAP1 POP SWAP2 SWAP1 POP JUMP JUMPDEST PUSH1 0x0 PUSH2 0x48A0 DUP3 PUSH2 0x3314 JUMP JUMPDEST SWAP2 POP PUSH32 0xFFFFFFFFFFFFFFFFFFFFFFFFFFFFFFFFFFFFFFFFFFFFFFFFFFFFFFFFFFFFFFFF DUP3 SUB PUSH2 0x48D2 JUMPI PUSH2 0x48D1 PUSH2 0x4108 JUMP JUMPDEST JUMPDEST PUSH1 0x1 DUP3 ADD SWAP1 POP SWAP2 SWAP1 POP JUMP JUMPDEST PUSH1 0x0 PUSH1 0x40 DUP3 ADD SWAP1 POP PUSH2 0x48F2 PUSH1 0x0 DUP4 ADD DUP6 PUSH2 0x3554 JUMP JUMPDEST PUSH2 0x48FF PUSH1 0x20 DUP4 ADD DUP5 PUSH2 0x33A9 JUMP JUMPDEST SWAP4 SWAP3 POP POP POP JUMP JUMPDEST PUSH32 0x4E6F7420616E204E474F206F7220616C72656164792077697468647261776E00 PUSH1 0x0 DUP3 ADD MSTORE POP JUMP JUMPDEST PUSH1 0x0 PUSH2 0x493C PUSH1 0x1F DUP4 PUSH2 0x350A JUMP JUMPDEST SWAP2 POP PUSH2 0x4947 DUP3 PUSH2 0x4906 JUMP JUMPDEST PUSH1 0x20 DUP3 ADD SWAP1 POP SWAP2 SWAP1 POP JUMP JUMPDEST PUSH1 0x0 PUSH1 0x20 DUP3 ADD SWAP1 POP DUP2 DUP2 SUB PUSH1 0x0 DUP4 ADD MSTORE PUSH2 0x496B DUP2 PUSH2 0x492F JUMP JUMPDEST SWAP1 POP SWAP2 SWAP1 POP JUMP JUMPDEST PUSH32 0x43616E6E6F7420776974686472617720776974682070656E64696E6720746173 PUSH1 0x0 DUP3 ADD MSTORE PUSH32 0x6B73000000000000000000000000000000000000000000000000000000000000 PUSH1 0x20 DUP3 ADD MSTORE POP JUMP JUMPDEST PUSH1 0x0 PUSH2 0x49CE PUSH1 0x22 DUP4 PUSH2 0x350A JUMP JUMPDEST SWAP2 POP PUSH2 0x49D9 DUP3 PUSH2 0x4972 JUMP JUMPDEST PUSH1 0x40 DUP3 ADD SWAP1 POP SWAP2 SWAP1 POP JUMP JUMPDEST PUSH1 0x0 PUSH1 0x20 DUP3 ADD SWAP1 POP DUP2 DUP2 SUB PUSH1 0x0 DUP4 ADD MSTORE PUSH2 0x49FD DUP2 PUSH2 0x49C1 JUMP JUMPDEST SWAP1 POP SWAP2 SWAP1 POP JUMP JUMPDEST PUSH32 0x5769746864726177616C206661696C6564000000000000000000000000000000 PUSH1 0x0 DUP3 ADD MSTORE POP JUMP JUMPDEST PUSH1 0x0 PUSH2 0x4A3A PUSH1 0x11 DUP4 PUSH2 0x350A JUMP JUMPDEST SWAP2 POP PUSH2 0x4A45 DUP3 PUSH2 0x4A04 JUMP JUMPDEST PUSH1 0x20 DUP3 ADD SWAP1 POP SWAP2 SWAP1 POP JUMP JUMPDEST PUSH1 0x0 PUSH1 0x20 DUP3 ADD SWAP1 POP DUP2 DUP2 SUB PUSH1 0x0 DUP4 ADD MSTORE PUSH2 0x4A69 DUP2 PUSH2 0x4A2D JUMP JUMPDEST SWAP1 POP SWAP2 SWAP1 POP JUMP JUMPDEST PUSH1 0x0 PUSH1 0x40 DUP3 ADD SWAP1 POP PUSH2 0x4A85 PUSH1 0x0 DUP4 ADD DUP6 PUSH2 0x33A9 JUMP JUMPDEST PUSH2 0x4A92 PUSH1 0x20 DUP4 ADD DUP5 PUSH2 0x3554 JUMP JUMPDEST SWAP4 SWAP3 POP POP POP JUMP JUMPDEST PUSH32 0x446964206E6F7420766F7465206F6E207461736B000000000000000000000000 PUSH1 0x0 DUP3 ADD MSTORE POP JUMP JUMPDEST PUSH1 0x0 PUSH2 0x4ACF PUSH1 0x14 DUP4 PUSH2 0x350A JUMP JUMPDEST SWAP2 POP PUSH2 0x4ADA DUP3 PUSH2 0x4A99 JUMP JUMPDEST PUSH1 0x20 DUP3 ADD SWAP1 POP SWAP2 SWAP1 POP JUMP JUMPDEST PUSH1 0x0 PUSH1 0x20 DUP3 ADD SWAP1 POP DUP2 DUP2 SUB PUSH1 0x0 DUP4 ADD MSTORE PUSH2 0x4AFE DUP2 PUSH2 0x4AC2 JUMP JUMPDEST SWAP1 POP SWAP2 SWAP1 POP JUMP JUMPDEST PUSH32 0x5461736B207374696C6C2070656E64696E670000000000000000000000000000 PUSH1 0x0 DUP3 ADD MSTORE POP JUMP JUMPDEST PUSH1 0x0 PUSH2 0x4B3B PUSH1 0x12 DUP4 PUSH2 0x350A JUMP JUMPDEST SWAP2 POP PUSH2 0x4B46 DUP3 PUSH2 0x4B05 JUMP JUMPDEST PUSH1 0x20 DUP3 ADD SWAP1 POP SWAP2 SWAP1 POP JUMP JUMPDEST PUSH1 0x0 PUSH1 0x20 DUP3 ADD SWAP1 POP DUP2 DUP2 SUB PUSH1 0x0 DUP4 ADD MSTORE PUSH2 0x4B6A DUP2 PUSH2 0x4B2E JUMP JUMPDEST SWAP1 POP SWAP2 SWAP1 POP JUMP JUMPDEST PUSH32 0x52657761726420636C61696D206661696C656400000000000000000000000000 PUSH1 0x0 DUP3 ADD MSTORE POP JUMP JUMPDEST PUSH1 0x0 PUSH2 0x4BA7 PUSH1 0x13 DUP4 PUSH2 0x350A JUMP JUMPDEST SWAP2 POP PUSH2 0x4BB2 DUP3 PUSH2 0x4B71 JUMP JUMPDEST PUSH1 0x20 DUP3 ADD SWAP1 POP SWAP2 SWAP1 POP JUMP JUMPDEST PUSH1 0x0 PUSH1 0x20 DUP3 ADD SWAP1 POP DUP2 DUP2 SUB PUSH1 0x0 DUP4 ADD MSTORE PUSH2 0x4BD6 DUP2 PUSH2 0x4B9A JUMP JUMPDEST SWAP1 POP SWAP2 SWAP1 POP JUMP JUMPDEST PUSH32 0x4E6F74206120766F746572000000000000000000000000000000000000000000 PUSH1 0x0 DUP3 ADD MSTORE POP JUMP JUMPDEST PUSH1 0x0 PUSH2 0x4C13 PUSH1 0xB DUP4 PUSH2 0x350A JUMP JUMPDEST SWAP2 POP PUSH2 0x4C1E DUP3 PUSH2 0x4BDD JUMP JUMPDEST PUSH1 0x20 DUP3 ADD SWAP1 POP SWAP2 SWAP1 POP JUMP JUMPDEST PUSH1 0x0 PUSH1 0x20 DUP3 ADD SWAP1 POP DUP2 DUP2 SUB PUSH1 0x0 DUP4 ADD MSTORE PUSH2 0x4C42 DUP2 PUSH2 0x4C06 JUMP JUMPDEST SWAP1 POP SWAP2 SWAP1 POP JUMP JUMPDEST PUSH32 0x416C726561647920766F74656400000000000000000000000000000000000000 PUSH1 0x0 DUP3 ADD MSTORE POP JUMP JUMPDEST PUSH1 0x0 PUSH2 0x4C7F PUSH1 0xD DUP4 PUSH2 0x350A JUMP JUMPDEST SWAP2 POP PUSH2 0x4C8A DUP3 PUSH2 0x4C49 JUMP JUMPDEST PUSH1 0x20 DUP3 ADD SWAP1 POP SWAP2 SWAP1 POP JUMP JUMPDEST PUSH1 0x0 PUSH1 0x20 DUP3 ADD SWAP1 POP DUP2 DUP2 SUB PUSH1 0x0 DUP4 ADD MSTORE PUSH2 0x4CAE DUP2 PUSH2 0x4C72 JUMP JUMPDEST SWAP1 POP SWAP2 SWAP1 POP JUMP JUMPDEST PUSH32 0x5461736B206E6F742070656E64696E6700000000000000000000000000000000 PUSH1 0x0 DUP3 ADD MSTORE POP JUMP JUMPDEST PUSH1 0x0 PUSH2 0x4CEB PUSH1 0x10 DUP4 PUSH2 0x350A JUMP JUMPDEST SWAP2 POP PUSH2 0x4CF6 DUP3 PUSH2 0x4CB5 JUMP JUMPDEST PUSH1 0x20 DUP3 ADD SWAP1 POP SWAP2 SWAP1 POP JUMP JUMPDEST PUSH1 0x0 PUSH1 0x20 DUP3 ADD SWAP1 POP DUP2 DUP2 SUB PUSH1 0x0 DUP4 ADD MSTORE PUSH2 0x4D1A DUP2 PUSH2 0x4CDE JUMP JUMPDEST SWAP1 POP SWAP2 SWAP1 POP JUMP JUMPDEST PUSH32 0x566F74696E6720706572696F6420656E64656400000000000000000000000000 PUSH1 0x0 DUP3 ADD MSTORE POP JUMP JUMPDEST PUSH1 0x0 PUSH2 0x4D57 PUSH1 0x13 DUP4 PUSH2 0x350A JUMP JUMPDEST SWAP2 POP PUSH2 0x4D62 DUP3 PUSH2 0x4D21 JUMP JUMPDEST PUSH1 0x20 DUP3 ADD SWAP1 POP SWAP2 SWAP1 POP JUMP JUMPDEST PUSH1 0x0 PUSH1 0x20 DUP3 ADD SWAP1 POP DUP2 DUP2 SUB PUSH1 0x0 DUP4 ADD MSTORE PUSH2 0x4D86 DUP2 PUSH2 0x4D4A JUMP JUMPDEST SWAP1 POP SWAP2 SWAP1 POP JUMP JUMPDEST PUSH1 0x0 PUSH1 0x60 DUP3 ADD SWAP1 POP PUSH2 0x4DA2 PUSH1 0x0 DUP4 ADD DUP7 PUSH2 0x3554 JUMP JUMPDEST PUSH2 0x4DAF PUSH1 0x20 DUP4 ADD DUP6 PUSH2 0x33A9 JUMP JUMPDEST PUSH2 0x4DBC PUSH1 0x40 DUP4 ADD DUP5 PUSH2 0x36DE JUMP JUMPDEST SWAP5 SWAP4 POP POP POP POP JUMP JUMPDEST PUSH32 0x416C7265616479206120766F7465720000000000000000000000000000000000 PUSH1 0x0 DUP3 ADD MSTORE POP JUMP JUMPDEST PUSH1 0x0 PUSH2 0x4DFA PUSH1 0xF DUP4 PUSH2 0x350A JUMP JUMPDEST SWAP2 POP PUSH2 0x4E05 DUP3 PUSH2 0x4DC4 JUMP JUMPDEST PUSH1 0x20 DUP3 ADD SWAP1 POP SWAP2 SWAP1 POP JUMP JUMPDEST PUSH1 0x0 PUSH1 0x20 DUP3 ADD SWAP1 POP DUP2 DUP2 SUB PUSH1 0x0 DUP4 ADD MSTORE PUSH2 0x4E29 DUP2 PUSH2 0x4DED JUMP JUMPDEST SWAP1 POP SWAP2 SWAP1 POP JUMP JUMPDEST PUSH32 0x4D75737420646F6E617465204554480000000000000000000000000000000000 PUSH1 0x0 DUP3 ADD MSTORE POP JUMP JUMPDEST PUSH1 0x0 PUSH2 0x4E66 PUSH1 0xF DUP4 PUSH2 0x350A JUMP JUMPDEST SWAP2 POP PUSH2 0x4E71 DUP3 PUSH2 0x4E30 JUMP JUMPDEST PUSH1 0x20 DUP3 ADD SWAP1 POP SWAP2 SWAP1 POP JUMP JUMPDEST PUSH1 0x0 PUSH1 0x20 DUP3 ADD SWAP1 POP DUP2 DUP2 SUB PUSH1 0x0 DUP4 ADD MSTORE PUSH2 0x4E95 DUP2 PUSH2 0x4E59 JUMP JUMPDEST SWAP1 POP SWAP2 SWAP1 POP JUMP JUMPDEST PUSH1 0x0 PUSH1 0x80 DUP3 ADD SWAP1 POP PUSH2 0x4EB1 PUSH1 0x0 DUP4 ADD DUP8 PUSH2 0x3554 JUMP JUMPDEST PUSH2 0x4EBE PUSH1 0x20 DUP4 ADD DUP7 PUSH2 0x33A9 JUMP JUMPDEST PUSH2 0x4ECB PUSH1 0x40 DUP4 ADD DUP6 PUSH2 0x3554 JUMP JUMPDEST PUSH2 0x4ED8 PUSH1 0x60 DUP4 ADD DUP5 PUSH2 0x3554 JUMP JUMPDEST SWAP6 SWAP5 POP POP POP POP POP JUMP INVALID LOG2 PUSH5 0x6970667358 0x22 SLT KECCAK256 DUP2 TSTORE 0xD2 0xBB DUP10 0xD6 0xC2 0xD 0xA8 0xC6 0xC8 0xEC 0xC1 SWAP4 PUSH23 0x9B7E08B261FE5D136BE76189A898B5EA7A64736F6C6343 STOP ADDMOD SHR STOP CALLER "},"gasEstimates":{"creation":{"codeDepositCost":"4049400","executionCost":"28897","totalCost":"4078297"},"external":{"claimVoterReward(uint256)":"infinite","createTask(string[])":"infinite","donate(uint256)":"infinite","getAllNGOs()":"infinite","getAllTasks()":"infinite","getDonations(uint256)":"infinite","getNGODetails(address)":"infinite","getNGOTaskStatuses(address)":"infinite","getNGOTotalFunds(address)":"infinite","getPendingTasks()":"infinite","getTaskDetails(uint256)":"infinite","getVoterDetails(address)":"2980","hasVoted(address,uint256)":"3208","ngoList(uint256)":"5023","ngos(address)":"infinite","owner()":"2534","registerNGO(string,string,string)":"infinite","registerVoter()":"26253","resolveTask(uint256)":"infinite","taskCounter()":"2563","taskDonations(uint256,uint256)":"infinite","tasks(uint256)":"infinite","vote(uint256,bool)":"infinite","voters(address)":"2939","withdrawNgoStake()":"infinite","withdrawVoterStake()":"infinite"}},"methodIdentifiers":{"claimVoterReward(uint256)":"c893b82f","createTask(string[])":"771f84fe","donate(uint256)":"f14faf6f","getAllNGOs()":"87b5a2dd","getAllTasks()":"779900b4","getDonations(uint256)":"596d9ce2","getNGODetails(address)":"734d78c5","getNGOTaskStatuses(address)":"7abe26b4","getNGOTotalFunds(address)":"9255cb3b","getPendingTasks()":"c35b9030","getTaskDetails(uint256)":"3888b9d5","getVoterDetails(address)":"ba71bef0","hasVoted(address,uint256)":"42545825","ngoList(uint256)":"967f8982","ngos(address)":"e6f7d11e","owner()":"8da5cb5b","registerNGO(string,string,string)":"48f667b3","registerVoter()":"ecb617d9","resolveTask(uint256)":"456d908e","taskCounter()":"58671730","taskDonations(uint256,uint256)":"3df78c91","tasks(uint256)":"8d977672","vote(uint256,bool)":"c9d27afe","voters(address)":"a3ec138d","withdrawNgoStake()":"987bdee4","withdrawVoterStake()":"dffb0ece"}},"storageLayout":{"storage":[{"astId":3,"contract":"contracts/CryptoDonationPlatform.sol:NGOFunding","label":"owner","offset":0,"slot":"0","type":"t_address"},{"astId":68,"contract":"contracts/CryptoDonationPlatform.sol:NGOFunding","label":"ngos","offset":0,"slot":"1","type":"t_mapping(t_address,t_struct(NGO)27_storage)"},{"astId":73,"contract":"contracts/CryptoDonationPlatform.sol:NGOFunding","label":"voters","offset":0,"slot":"2","type":"t_mapping(t_address,t_struct(Voter)34_storage)"},{"astId":78,"contract":"contracts/CryptoDonationPlatform.sol:NGOFunding","label":"tasks","offset":0,"slot":"3","type":"t_mapping(t_uint256,t_struct(Task)56_storage)"},{"astId":84,"contract":"contracts/CryptoDonationPlatform.sol:NGOFunding","label":"taskDonations","offset":0,"slot":"4","type":"t_mapping(t_uint256,t_array(t_struct(Donation)63_storage)dyn_storage)"},{"astId":86,"contract":"contracts/CryptoDonationPlatform.sol:NGOFunding","label":"taskCounter","offset":0,"slot":"5","type":"t_uint256"},{"astId":89,"contract":"contracts/CryptoDonationPlatform.sol:NGOFunding","label":"ngoList","offset":0,"slot":"6","type":"t_array(t_address)dyn_storage"}],"types":{"t_address":{"encoding":"inplace","label":"address","numberOfBytes":"20"},"t_array(t_address)dyn_storage":{"base":"t_address","encoding":"dynamic_array","label":"address[]","numberOfBytes":"32"},"t_array(t_string_storage)dyn_storage":{"base":"t_string_storage","encoding":"dynamic_array","label":"string[]","numberOfBytes":"32"},"t_array(t_struct(Donation)63_storage)dyn_storage":{"base":"t_struct(Donation)63_storage","encoding":"dynamic_array","label":"struct NGOFunding.Donation[]","numberOfBytes":"32"},"t_array(t_uint256)dyn_storage":{"base":"t_uint256","encoding":"dynamic_array","label":"uint256[]","numberOfBytes":"32"},"t_bool":{"encoding":"inplace","label":"bool","numberOfBytes":"1"},"t_mapping(t_address,t_bool)":{"encoding":"mapping","key":"t_address","label":"mapping(address => bool)","numberOfBytes":"32","value":"t_bool"},"t_mapping(t_address,t_struct(NGO)27_storage)":{"encoding":"mapping","key":"t_address","label":"mapping(address => struct NGOFunding.NGO)","numberOfBytes":"32","value":"t_struct(NGO)27_storage"},"t_mapping(t_address,t_struct(Voter)34_storage)":{"encoding":"mapping","key":"t_address","label":"mapping(address => struct NGOFunding.Voter)","numberOfBytes":"32","value":"t_struct(Voter)34_storage"},"t_mapping(t_uint256,t_array(t_struct(Donation)63_storage)dyn_storage)":{"encoding":"mapping","key":"t_uint256","label":"mapping(uint256 => struct NGOFunding.Donation[])","numberOfBytes":"32","value":"t_array(t_struct(Donation)63_storage)dyn_storage"},"t_mapping(t_uint256,t_bool)":{"encoding":"mapping","key":"t_uint256","label":"mapping(uint256 => bool)","numberOfBytes":"32","value":"t_bool"},"t_mapping(t_uint256,t_struct(Task)56_storage)":{"encoding":"mapping","key":"t_uint256","label":"mapping(uint256 => struct NGOFunding.Task)","numberOfBytes":"32","value":"t_struct(Task)56_storage"},"t_string_storage":{"encoding":"bytes","label":"string","numberOfBytes":"32"},"t_struct(Donation)63_storage":{"encoding":"inplace","label":"struct NGOFunding.Donation","members":[{"astId":58,"contract":"contracts/CryptoDonationPlatform.sol:NGOFunding","label":"donor","offset":0,"slot":"0","type":"t_address"},{"astId":60,"contract":"contracts/CryptoDonationPlatform.sol:NGOFunding","label":"amount","offset":0,"slot":"1","type":"t_uint256"},{"astId":62,"contract":"contracts/CryptoDonationPlatform.sol:NGOFunding","label":"timestamp","offset":0,"slot":"2","type":"t_uint256"}],"numberOfBytes":"96"},"t_struct(NGO)27_storage":{"encoding":"inplace","label":"struct NGOFunding.NGO","members":[{"astId":17,"contract":"contracts/CryptoDonationPlatform.sol:NGOFunding","label":"name","offset":0,"slot":"0","type":"t_string_storage"},{"astId":19,"contract":"contracts/CryptoDonationPlatform.sol:NGOFunding","label":"description","offset":0,"slot":"1","type":"t_string_storage"},{"astId":21,"contract":"contracts/CryptoDonationPlatform.sol:NGOFunding","label":"stakedEth","offset":0,"slot":"2","type":"t_uint256"},{"astId":23,"contract":"contracts/CryptoDonationPlatform.sol:NGOFunding","label":"logo","offset":0,"slot":"3","type":"t_string_storage"},{"astId":26,"contract":"contracts/CryptoDonationPlatform.sol:NGOFunding","label":"taskIds","offset":0,"slot":"4","type":"t_array(t_uint256)dyn_storage"}],"numberOfBytes":"160"},"t_struct(Task)56_storage":{"encoding":"inplace","label":"struct NGOFunding.Task","members":[{"astId":36,"contract":"contracts/CryptoDonationPlatform.sol:NGOFunding","label":"ngo","offset":0,"slot":"0","type":"t_address"},{"astId":39,"contract":"contracts/CryptoDonationPlatform.sol:NGOFunding","label":"proofLinks","offset":0,"slot":"1","type":"t_array(t_string_storage)dyn_storage"},{"astId":41,"contract":"contracts/CryptoDonationPlatform.sol:NGOFunding","label":"status","offset":0,"slot":"2","type":"t_string_storage"},{"astId":43,"contract":"contracts/CryptoDonationPlatform.sol:NGOFunding","label":"yesVotes","offset":0,"slot":"3","type":"t_uint256"},{"astId":45,"contract":"contracts/CryptoDonationPlatform.sol:NGOFunding","label":"noVotes","offset":0,"slot":"4","type":"t_uint256"},{"astId":47,"contract":"contracts/CryptoDonationPlatform.sol:NGOFunding","label":"totalFunds","offset":0,"slot":"5","type":"t_uint256"},{"astId":49,"contract":"contracts/CryptoDonationPlatform.sol:NGOFunding","label":"startTime","offset":0,"slot":"6","type":"t_uint256"},{"astId":53,"contract":"contracts/CryptoDonationPlatform.sol:NGOFunding","label":"voters","offset":0,"slot":"7","type":"t_mapping(t_address,t_bool)"},{"astId":55,"contract":"contracts/CryptoDonationPlatform.sol:NGOFunding","label":"voterCount","offset":0,"slot":"8","type":"t_uint256"}],"numberOfBytes":"288"},"t_struct(Voter)34_storage":{"encoding":"inplace","label":"struct NGOFunding.Voter","members":[{"astId":29,"contract":"contracts/CryptoDonationPlatform.sol:NGOFunding","label":"stakedEth","offset":0,"slot":"0","type":"t_uint256"},{"astId":33,"contract":"contracts/CryptoDonationPlatform.sol:NGOFunding","label":"hasVoted","offset":0,"slot":"1","type":"t_mapping(t_uint256,t_bool)"}],"numberOfBytes":"64"},"t_uint256":{"encoding":"inplace","label":"uint256","numberOfBytes":"32"}}},"userdoc":{"kind":"user","methods":{},"version":1}}}}