{"contracts/CryptoDonationPlatform.sol":{"NGOFunding":{"abi":[{"inputs":[],"stateMutability":"nonpayable","type":"constructor"},{"anonymous":false,"inputs":[{"indexed":false,"internalType":"uint256","name":"taskId","type":"uint256"},{"indexed":false,"internalType":"address","name":"donor","type":"address"},{"indexed":false,"internalType":"uint256","name":"amount","type":"uint256"},{"indexed":false,"internalType":"uint256","name":"donationId","type":"uint256"}],"name":"Donated","type":"event"},{"anonymous":false,"inputs":[{"indexed":false,"internalType":"address","name":"ngo","type":"address"},{"indexed":false,"internalType":"uint256","name":"amount","type":"uint256"}],"name":"NGOStakeWithdrawn","type":"event"},{"anonymous":false,"inputs":[{"indexed":false,"internalType":"uint256","name":"taskId","type":"uint256"},{"indexed":false,"internalType":"address","name":"ngo","type":"address"}],"name":"TaskCreated","type":"event"},{"anonymous":false,"inputs":[{"indexed":false,"internalType":"uint256","name":"taskId","type":"uint256"},{"indexed":false,"internalType":"string","name":"status","type":"string"}],"name":"TaskResolved","type":"event"},{"anonymous":false,"inputs":[{"indexed":false,"internalType":"uint256","name":"taskId","type":"uint256"},{"indexed":false,"internalType":"address","name":"voter","type":"address"},{"indexed":false,"internalType":"bool","name":"vote","type":"bool"}],"name":"Voted","type":"event"},{"inputs":[{"internalType":"address","name":"ngoAdd","type":"address"}],"name":"adminWithdraw","outputs":[],"stateMutability":"nonpayable","type":"function"},{"inputs":[{"internalType":"uint256","name":"_taskId","type":"uint256"}],"name":"claimVoterReward","outputs":[],"stateMutability":"nonpayable","type":"function"},{"inputs":[{"internalType":"string[]","name":"_proofLinks","type":"string[]"},{"internalType":"string","name":"_name","type":"string"},{"internalType":"string","name":"_description","type":"string"}],"name":"createTask","outputs":[],"stateMutability":"nonpayable","type":"function"},{"inputs":[{"internalType":"uint256","name":"_taskId","type":"uint256"}],"name":"donate","outputs":[],"stateMutability":"payable","type":"function"},{"inputs":[],"name":"getAllNGOs","outputs":[{"internalType":"address[]","name":"","type":"address[]"}],"stateMutability":"view","type":"function"},{"inputs":[],"name":"getAllNGOsWithTasks","outputs":[{"components":[{"internalType":"uint256","name":"id","type":"uint256"},{"internalType":"string","name":"name","type":"string"},{"internalType":"string","name":"description","type":"string"},{"components":[{"internalType":"uint256","name":"taskId","type":"uint256"},{"internalType":"string","name":"description","type":"string"},{"internalType":"string[]","name":"proofLinks","type":"string[]"}],"internalType":"struct NGOFunding.TaskDetails[]","name":"tasks","type":"tuple[]"}],"internalType":"struct NGOFunding.NGOWithTasks[]","name":"","type":"tuple[]"}],"stateMutability":"view","type":"function"},{"inputs":[],"name":"getAllTasks","outputs":[{"internalType":"uint256[]","name":"","type":"uint256[]"}],"stateMutability":"view","type":"function"},{"inputs":[{"internalType":"uint256","name":"_taskId","type":"uint256"}],"name":"getDonations","outputs":[{"components":[{"internalType":"address","name":"donor","type":"address"},{"internalType":"uint256","name":"amount","type":"uint256"},{"internalType":"uint256","name":"timestamp","type":"uint256"}],"internalType":"struct NGOFunding.Donation[]","name":"","type":"tuple[]"}],"stateMutability":"view","type":"function"},{"inputs":[{"internalType":"address","name":"_ngo","type":"address"}],"name":"getNGODetails","outputs":[{"internalType":"string","name":"name","type":"string"},{"internalType":"string","name":"description","type":"string"},{"internalType":"uint256","name":"stakedEth","type":"uint256"},{"internalType":"uint256[]","name":"taskIds","type":"uint256[]"},{"internalType":"string","name":"logo","type":"string"}],"stateMutability":"view","type":"function"},{"inputs":[{"internalType":"address","name":"_ngo","type":"address"}],"name":"getNGOTaskStatuses","outputs":[{"internalType":"uint256[]","name":"taskIds","type":"uint256[]"},{"internalType":"string[]","name":"statuses","type":"string[]"}],"stateMutability":"view","type":"function"},{"inputs":[{"internalType":"address","name":"_ngo","type":"address"}],"name":"getNGOTotalFunds","outputs":[{"internalType":"uint256","name":"totalFunds","type":"uint256"}],"stateMutability":"view","type":"function"},{"inputs":[],"name":"getPendingTasks","outputs":[{"internalType":"uint256[]","name":"","type":"uint256[]"}],"stateMutability":"view","type":"function"},{"inputs":[{"internalType":"uint256","name":"_taskId","type":"uint256"}],"name":"getTaskDetails","outputs":[{"internalType":"address","name":"ngo","type":"address"},{"internalType":"string[]","name":"proofLinks","type":"string[]"},{"internalType":"string","name":"status","type":"string"},{"internalType":"uint256","name":"yesVotes","type":"uint256"},{"internalType":"uint256","name":"noVotes","type":"uint256"},{"internalType":"uint256","name":"totalFunds","type":"uint256"},{"internalType":"uint256","name":"startTime","type":"uint256"},{"internalType":"uint256","name":"voterCount","type":"uint256"},{"internalType":"string","name":"name","type":"string"},{"internalType":"string","name":"taskDescription","type":"string"}],"stateMutability":"view","type":"function"},{"inputs":[{"internalType":"address","name":"_voter","type":"address"}],"name":"getVoterDetails","outputs":[{"internalType":"uint256","name":"stakedEth","type":"uint256"}],"stateMutability":"view","type":"function"},{"inputs":[{"internalType":"address","name":"_voter","type":"address"},{"internalType":"uint256","name":"_taskId","type":"uint256"}],"name":"hasVoted","outputs":[{"internalType":"bool","name":"","type":"bool"}],"stateMutability":"view","type":"function"},{"inputs":[{"internalType":"uint256","name":"","type":"uint256"}],"name":"ngoList","outputs":[{"internalType":"address","name":"","type":"address"}],"stateMutability":"view","type":"function"},{"inputs":[{"internalType":"address","name":"","type":"address"}],"name":"ngos","outputs":[{"internalType":"string","name":"name","type":"string"},{"internalType":"string","name":"description","type":"string"},{"internalType":"uint256","name":"stakedEth","type":"uint256"},{"internalType":"string","name":"logo","type":"string"}],"stateMutability":"view","type":"function"},{"inputs":[],"name":"owner","outputs":[{"internalType":"address","name":"","type":"address"}],"stateMutability":"view","type":"function"},{"inputs":[{"internalType":"string","name":"_name","type":"string"},{"internalType":"string","name":"_description","type":"string"},{"internalType":"string","name":"_logo","type":"string"}],"name":"registerNGO","outputs":[],"stateMutability":"payable","type":"function"},{"inputs":[],"name":"registerVoter","outputs":[],"stateMutability":"payable","type":"function"},{"inputs":[{"internalType":"uint256","name":"_taskId","type":"uint256"}],"name":"resolveTask","outputs":[],"stateMutability":"nonpayable","type":"function"},{"inputs":[],"name":"taskCounter","outputs":[{"internalType":"uint256","name":"","type":"uint256"}],"stateMutability":"view","type":"function"},{"inputs":[{"internalType":"uint256","name":"","type":"uint256"},{"internalType":"uint256","name":"","type":"uint256"}],"name":"taskDonations","outputs":[{"internalType":"address","name":"donor","type":"address"},{"internalType":"uint256","name":"amount","type":"uint256"},{"internalType":"uint256","name":"timestamp","type":"uint256"}],"stateMutability":"view","type":"function"},{"inputs":[{"internalType":"uint256","name":"","type":"uint256"}],"name":"tasks","outputs":[{"internalType":"string","name":"name","type":"string"},{"internalType":"string","name":"description","type":"string"},{"internalType":"address","name":"ngo","type":"address"},{"internalType":"string","name":"status","type":"string"},{"internalType":"uint256","name":"yesVotes","type":"uint256"},{"internalType":"uint256","name":"noVotes","type":"uint256"},{"internalType":"uint256","name":"totalFunds","type":"uint256"},{"internalType":"uint256","name":"startTime","type":"uint256"},{"internalType":"uint256","name":"voterCount","type":"uint256"}],"stateMutability":"view","type":"function"},{"inputs":[{"internalType":"uint256","name":"_taskId","type":"uint256"},{"internalType":"bool","name":"_approve","type":"bool"}],"name":"vote","outputs":[],"stateMutability":"nonpayable","type":"function"},{"inputs":[{"internalType":"address","name":"","type":"address"}],"name":"voters","outputs":[{"internalType":"uint256","name":"stakedEth","type":"uint256"}],"stateMutability":"view","type":"function"},{"inputs":[],"name":"withdrawNgoStake","outputs":[],"stateMutability":"payable","type":"function"},{"inputs":[],"name":"withdrawVoterStake","outputs":[],"stateMutability":"payable","type":"function"}],"devdoc":{"kind":"dev","methods":{},"version":1},"evm":{"bytecode":{"linkReferences":{},"object":"6080604052348015600f57600080fd5b50336000806101000a81548173ffffffffffffffffffffffffffffffffffffffff021916908373ffffffffffffffffffffffffffffffffffffffff160217905550615f808061005f6000396000f3fe6080604052600436106101b75760003560e01c80639255cb3b116100ec578063c35b90301161008a578063dffb0ece11610064578063dffb0ece14610668578063e6f7d11e14610672578063ecb617d9146106b2578063f14faf6f146106bc576101b7565b8063c35b9030146105eb578063c893b82f14610616578063c9d27afe1461063f576101b7565b8063a28835b6116100c6578063a28835b61461051f578063a3ec138d14610548578063b580b47c14610585578063ba71bef0146105ae576101b7565b80639255cb3b1461049b578063967f8982146104d8578063987bdee414610515576101b7565b8063734d78c51161015957806382c4dbe51161013357806382c4dbe5146103d557806387b5a2dd146104005780638d9776721461042b5780638da5cb5b14610470576101b7565b8063734d78c51461032b578063779900b41461036c5780637abe26b414610397576101b7565b8063456d908e11610195578063456d908e1461027e57806348f667b3146102a757806358671730146102c3578063596d9ce2146102ee576101b7565b80633888b9d5146101bc5780633df78c91146102025780634254582514610241575b600080fd5b3480156101c857600080fd5b506101e360048036038101906101de9190613fb8565b6106d8565b6040516101f99a999897969594939291906141d1565b60405180910390f35b34801561020e57600080fd5b5061022960048036038101906102249190614289565b610a79565b604051610238939291906142c9565b60405180910390f35b34801561024d57600080fd5b506102686004803603810190610263919061432c565b610ae0565b6040516102759190614387565b60405180910390f35b34801561028a57600080fd5b506102a560048036038101906102a09190613fb8565b610b4b565b005b6102c160048036038101906102bc91906144d7565b61113a565b005b3480156102cf57600080fd5b506102d861138b565b6040516102e5919061457e565b60405180910390f35b3480156102fa57600080fd5b5061031560048036038101906103109190613fb8565b611391565b60405161032291906146a8565b60405180910390f35b34801561033757600080fd5b50610352600480360381019061034d91906146ca565b61146d565b6040516103639594939291906147a6565b60405180910390f35b34801561037857600080fd5b5061038161171e565b60405161038e9190614815565b60405180910390f35b3480156103a357600080fd5b506103be60048036038101906103b991906146ca565b6117c6565b6040516103cc929190614837565b60405180910390f35b3480156103e157600080fd5b506103ea6119f0565b6040516103f79190614b40565b60405180910390f35b34801561040c57600080fd5b50610415611eb5565b6040516104229190614c11565b60405180910390f35b34801561043757600080fd5b50610452600480360381019061044d9190613fb8565b611f43565b60405161046799989796959493929190614c33565b60405180910390f35b34801561047c57600080fd5b50610485612149565b6040516104929190614cd5565b60405180910390f35b3480156104a757600080fd5b506104c260048036038101906104bd91906146ca565b61216d565b6040516104cf919061457e565b60405180910390f35b3480156104e457600080fd5b506104ff60048036038101906104fa9190613fb8565b6122f4565b60405161050c9190614cd5565b60405180910390f35b61051d612333565b005b34801561052b57600080fd5b50610546600480360381019061054191906146ca565b61268f565b005b34801561055457600080fd5b5061056f600480360381019061056a91906146ca565b6129f0565b60405161057c919061457e565b60405180910390f35b34801561059157600080fd5b506105ac60048036038101906105a79190614dd6565b612a0e565b005b3480156105ba57600080fd5b506105d560048036038101906105d091906146ca565b612c40565b6040516105e2919061457e565b60405180910390f35b3480156105f757600080fd5b50610600612c8c565b60405161060d9190614815565b60405180910390f35b34801561062257600080fd5b5061063d60048036038101906106389190613fb8565b612ea8565b005b34801561064b57600080fd5b5061066660048036038101906106619190614ea9565b61318c565b005b61067061360d565b005b34801561067e57600080fd5b50610699600480360381019061069491906146ca565b61381b565b6040516106a99493929190614ee9565b60405180910390f35b6106ba6139e3565b005b6106d660048036038101906106d19190613fb8565b613af4565b005b600060608060008060008060006060806000600360008d81526020019081526020016000209050600073ffffffffffffffffffffffffffffffffffffffff168160020160009054906101000a900473ffffffffffffffffffffffffffffffffffffffff1673ffffffffffffffffffffffffffffffffffffffff1603610792576040517f08c379a000000000000000000000000000000000000000000000000000000000815260040161078990614f8f565b60405180910390fd5b8060020160009054906101000a900473ffffffffffffffffffffffffffffffffffffffff168160030182600401836005015484600601548560070154866008015487600a0154886000018960010188805480602002602001604051908101604052809291908181526020016000905b828210156108ad57838290600052602060002001805461082090614fde565b80601f016020809104026020016040519081016040528092919081815260200182805461084c90614fde565b80156108995780601f1061086e57610100808354040283529160200191610899565b820191906000526020600020905b81548152906001019060200180831161087c57829003601f168201915b505050505081526020019060010190610801565b5050505098508780546108bf90614fde565b80601f01602080910402602001604051908101604052809291908181526020018280546108eb90614fde565b80156109385780601f1061090d57610100808354040283529160200191610938565b820191906000526020600020905b81548152906001019060200180831161091b57829003601f168201915b5050505050975081805461094b90614fde565b80601f016020809104026020016040519081016040528092919081815260200182805461097790614fde565b80156109c45780601f10610999576101008083540402835291602001916109c4565b820191906000526020600020905b8154815290600101906020018083116109a757829003601f168201915b505050505091508080546109d790614fde565b80601f0160208091040260200160405190810160405280929190818152602001828054610a0390614fde565b8015610a505780601f10610a2557610100808354040283529160200191610a50565b820191906000526020600020905b815481529060010190602001808311610a3357829003601f168201915b505050505090509a509a509a509a509a509a509a509a509a509a50509193959799509193959799565b60046020528160005260406000208181548110610a9557600080fd5b9060005260206000209060030201600091509150508060000160009054906101000a900473ffffffffffffffffffffffffffffffffffffffff16908060010154908060020154905083565b6000600260008473ffffffffffffffffffffffffffffffffffffffff1673ffffffffffffffffffffffffffffffffffffffff168152602001908152602001600020600101600083815260200190815260200160002060009054906101000a900460ff16905092915050565b6000600360008381526020019081526020016000209050600073ffffffffffffffffffffffffffffffffffffffff168160020160009054906101000a900473ffffffffffffffffffffffffffffffffffffffff1673ffffffffffffffffffffffffffffffffffffffff1603610bf5576040517f08c379a0000000000000000000000000000000000000000000000000000000008152600401610bec90614f8f565b60405180910390fd5b6040518060400160405280600781526020017f70656e64696e67000000000000000000000000000000000000000000000000008152508051906020012081600401604051610c4391906150b2565b604051809103902014610c8b576040517f08c379a0000000000000000000000000000000000000000000000000000000008152600401610c8290615115565b60405180910390fd5b62093a808160080154610c9e9190615164565b4211610cdf576040517f08c379a0000000000000000000000000000000000000000000000000000000008152600401610cd6906151e4565b60405180910390fd5b60008082600a015411610cf3576000610d11565b606460058360070154610d069190615204565b610d109190615275565b5b90506000818360070154610d2591906152a6565b9050600083600601548460050154610d3d9190615164565b9050600081118015610d6b575060328160648660050154610d5e9190615204565b610d689190615275565b10155b15610e8d576040518060400160405280600881526020017f617070726f766564000000000000000000000000000000000000000000000000815250846004019081610db69190615486565b5060008460020160009054906101000a900473ffffffffffffffffffffffffffffffffffffffff1673ffffffffffffffffffffffffffffffffffffffff1683604051610e019061557e565b60006040518083038185875af1925050503d8060008114610e3e576040519150601f19603f3d011682016040523d82523d6000602084013e610e43565b606091505b5050905080610e87576040517f08c379a0000000000000000000000000000000000000000000000000000000008152600401610e7e906155df565b60405180910390fd5b506110f7565b6040518060400160405280600881526020017f72656a6563746564000000000000000000000000000000000000000000000000815250846004019081610ed39190615486565b506000805b6004600088815260200190815260200160002080549050811015610f4757600460008881526020019081526020016000208181548110610f1b57610f1a6155ff565b5b90600052602060002090600302016001015482610f389190615164565b91508080600101915050610ed8565b5060005b60046000888152602001908152602001600020805490508110156110f4576000600460008981526020019081526020016000208281548110610f9057610f8f6155ff565b5b90600052602060002090600302016040518060600160405290816000820160009054906101000a900473ffffffffffffffffffffffffffffffffffffffff1673ffffffffffffffffffffffffffffffffffffffff1673ffffffffffffffffffffffffffffffffffffffff1681526020016001820154815260200160028201548152505090506000838683602001516110289190615204565b6110329190615275565b90506000826000015173ffffffffffffffffffffffffffffffffffffffff168260405161105e9061557e565b60006040518083038185875af1925050503d806000811461109b576040519150601f19603f3d011682016040523d82523d6000602084013e6110a0565b606091505b50509050806110e4576040517f08c379a00000000000000000000000000000000000000000000000000000000081526004016110db9061567a565b60405180910390fd5b5050508080600101915050610f4b565b50505b7f622e8aea88c24b5860ee5c8b8fbf8e18b632e7a412ed546c499ded2088e187ad858560040160405161112b92919061571e565b60405180910390a15050505050565b662386f26fc100003411611183576040517f08c379a000000000000000000000000000000000000000000000000000000000815260040161117a9061579a565b60405180910390fd5b6000600160003373ffffffffffffffffffffffffffffffffffffffff1673ffffffffffffffffffffffffffffffffffffffff1681526020019081526020016000206002015414611208576040517f08c379a00000000000000000000000000000000000000000000000000000000081526004016111ff90615806565b60405180910390fd5b6040518060a00160405280848152602001838152602001348152602001828152602001600067ffffffffffffffff811115611246576112456143ac565b5b6040519080825280602002602001820160405280156112745781602001602082028036833780820191505090505b50815250600160003373ffffffffffffffffffffffffffffffffffffffff1673ffffffffffffffffffffffffffffffffffffffff16815260200190815260200160002060008201518160000190816112cc9190615486565b5060208201518160010190816112e29190615486565b506040820151816002015560608201518160030190816113029190615486565b50608082015181600401908051906020019061131f929190613ddd565b509050506006339080600181540180825580915050600190039060005260206000200160009091909190916101000a81548173ffffffffffffffffffffffffffffffffffffffff021916908373ffffffffffffffffffffffffffffffffffffffff160217905550505050565b60055481565b606060046000838152602001908152602001600020805480602002602001604051908101604052809291908181526020016000905b8282101561146257838290600052602060002090600302016040518060600160405290816000820160009054906101000a900473ffffffffffffffffffffffffffffffffffffffff1673ffffffffffffffffffffffffffffffffffffffff1673ffffffffffffffffffffffffffffffffffffffff16815260200160018201548152602001600282015481525050815260200190600101906113c6565b505050509050919050565b60608060006060806000600160008873ffffffffffffffffffffffffffffffffffffffff1673ffffffffffffffffffffffffffffffffffffffff168152602001908152602001600020905060008160020154116114ff576040517f08c379a00000000000000000000000000000000000000000000000000000000081526004016114f690615872565b60405180910390fd5b80600001816001018260020154836004018460030184805461152090614fde565b80601f016020809104026020016040519081016040528092919081815260200182805461154c90614fde565b80156115995780601f1061156e57610100808354040283529160200191611599565b820191906000526020600020905b81548152906001019060200180831161157c57829003601f168201915b505050505094508380546115ac90614fde565b80601f01602080910402602001604051908101604052809291908181526020018280546115d890614fde565b80156116255780601f106115fa57610100808354040283529160200191611625565b820191906000526020600020905b81548152906001019060200180831161160857829003601f168201915b505050505093508180548060200260200160405190810160405280929190818152602001828054801561167757602002820191906000526020600020905b815481526020019060010190808311611663575b5050505050915080805461168a90614fde565b80601f01602080910402602001604051908101604052809291908181526020018280546116b690614fde565b80156117035780601f106116d857610100808354040283529160200191611703565b820191906000526020600020905b8154815290600101906020018083116116e657829003601f168201915b50505050509050955095509550955095505091939590929450565b6060600060055467ffffffffffffffff81111561173e5761173d6143ac565b5b60405190808252806020026020018201604052801561176c5781602001602082028036833780820191505090505b5090506000600190505b60055481116117be57808260018361178e91906152a6565b8151811061179f5761179e6155ff565b5b60200260200101818152505080806117b690615892565b915050611776565b508091505090565b6060806000600160008573ffffffffffffffffffffffffffffffffffffffff1673ffffffffffffffffffffffffffffffffffffffff16815260200190815260200160002090506000816002015411611853576040517f08c379a000000000000000000000000000000000000000000000000000000000815260040161184a90615872565b60405180910390fd5b806004018054806020026020016040519081016040528092919081815260200182805480156118a157602002820191906000526020600020905b81548152602001906001019080831161188d575b50505050509250825167ffffffffffffffff8111156118c3576118c26143ac565b5b6040519080825280602002602001820160405280156118f657816020015b60608152602001906001900390816118e15790505b50915060005b83518110156119e9576003600085838151811061191c5761191b6155ff565b5b60200260200101518152602001908152602001600020600401805461194090614fde565b80601f016020809104026020016040519081016040528092919081815260200182805461196c90614fde565b80156119b95780601f1061198e576101008083540402835291602001916119b9565b820191906000526020600020905b81548152906001019060200180831161199c57829003601f168201915b50505050508382815181106119d1576119d06155ff565b5b602002602001018190525080806001019150506118fc565b5050915091565b6060600060068054905067ffffffffffffffff811115611a1357611a126143ac565b5b604051908082528060200260200182016040528015611a4c57816020015b611a39613e2a565b815260200190600190039081611a315790505b50905060005b600680549050811015611ead57600060068281548110611a7557611a746155ff565b5b9060005260206000200160009054906101000a900473ffffffffffffffffffffffffffffffffffffffff1690506000600160008373ffffffffffffffffffffffffffffffffffffffff1673ffffffffffffffffffffffffffffffffffffffff16815260200190815260200160002090506000816004018054905067ffffffffffffffff811115611b0857611b076143ac565b5b604051908082528060200260200182016040528015611b4157816020015b611b2e613e52565b815260200190600190039081611b265790505b50905060005b8260040180549050811015611d39576000836004018281548110611b6e57611b6d6155ff565b5b9060005260206000200154905060006003600083815260200190815260200160002090506040518060600160405280838152602001826001018054611bb290614fde565b80601f0160208091040260200160405190810160405280929190818152602001828054611bde90614fde565b8015611c2b5780601f10611c0057610100808354040283529160200191611c2b565b820191906000526020600020905b815481529060010190602001808311611c0e57829003601f168201915b5050505050815260200182600301805480602002602001604051908101604052809291908181526020016000905b82821015611d05578382906000526020600020018054611c7890614fde565b80601f0160208091040260200160405190810160405280929190818152602001828054611ca490614fde565b8015611cf15780601f10611cc657610100808354040283529160200191611cf1565b820191906000526020600020905b815481529060010190602001808311611cd457829003601f168201915b505050505081526020019060010190611c59565b50505050815250848481518110611d1f57611d1e6155ff565b5b602002602001018190525050508080600101915050611b47565b506040518060800160405280600186611d529190615164565b8152602001836000018054611d6690614fde565b80601f0160208091040260200160405190810160405280929190818152602001828054611d9290614fde565b8015611ddf5780601f10611db457610100808354040283529160200191611ddf565b820191906000526020600020905b815481529060010190602001808311611dc257829003601f168201915b50505050508152602001836001018054611df890614fde565b80601f0160208091040260200160405190810160405280929190818152602001828054611e2490614fde565b8015611e715780601f10611e4657610100808354040283529160200191611e71565b820191906000526020600020905b815481529060010190602001808311611e5457829003601f168201915b5050505050815260200182815250858581518110611e9257611e916155ff565b5b60200260200101819052505050508080600101915050611a52565b508091505090565b60606006805480602002602001604051908101604052809291908181526020018280548015611f3957602002820191906000526020600020905b8160009054906101000a900473ffffffffffffffffffffffffffffffffffffffff1673ffffffffffffffffffffffffffffffffffffffff1681526020019060010190808311611eef575b5050505050905090565b6003602052806000526040600020600091509050806000018054611f6690614fde565b80601f0160208091040260200160405190810160405280929190818152602001828054611f9290614fde565b8015611fdf5780601f10611fb457610100808354040283529160200191611fdf565b820191906000526020600020905b815481529060010190602001808311611fc257829003601f168201915b505050505090806001018054611ff490614fde565b80601f016020809104026020016040519081016040528092919081815260200182805461202090614fde565b801561206d5780601f106120425761010080835404028352916020019161206d565b820191906000526020600020905b81548152906001019060200180831161205057829003601f168201915b5050505050908060020160009054906101000a900473ffffffffffffffffffffffffffffffffffffffff16908060040180546120a890614fde565b80601f01602080910402602001604051908101604052809291908181526020018280546120d490614fde565b80156121215780601f106120f657610100808354040283529160200191612121565b820191906000526020600020905b81548152906001019060200180831161210457829003601f168201915b50505050509080600501549080600601549080600701549080600801549080600a0154905089565b60008054906101000a900473ffffffffffffffffffffffffffffffffffffffff1681565b600080600160008473ffffffffffffffffffffffffffffffffffffffff1673ffffffffffffffffffffffffffffffffffffffff168152602001908152602001600020905060008160020154116121f8576040517f08c379a00000000000000000000000000000000000000000000000000000000081526004016121ef90615872565b60405180910390fd5b6000915060005b81600401805490508110156122ed576040518060400160405280600881526020017f617070726f7665640000000000000000000000000000000000000000000000008152508051906020012060036000846004018481548110612265576122646155ff565b5b9060005260206000200154815260200190815260200160002060040160405161228e91906150b2565b6040518091039020036122e057600360008360040183815481106122b5576122b46155ff565b5b9060005260206000200154815260200190815260200160002060070154836122dd9190615164565b92505b80806001019150506121ff565b5050919050565b6006818154811061230457600080fd5b906000526020600020016000915054906101000a900473ffffffffffffffffffffffffffffffffffffffff1681565b6000600160003373ffffffffffffffffffffffffffffffffffffffff1673ffffffffffffffffffffffffffffffffffffffff16815260200190815260200160002060020154116123b8576040517f08c379a00000000000000000000000000000000000000000000000000000000081526004016123af90615926565b60405180910390fd5b6000600160003373ffffffffffffffffffffffffffffffffffffffff1673ffffffffffffffffffffffffffffffffffffffff168152602001908152602001600020905060005b816004018054905081101561250757600060036000846004018481548110612429576124286155ff565b5b9060005260206000200154815260200190815260200160002090506040518060400160405280600781526020017f70656e64696e6700000000000000000000000000000000000000000000000000815250805190602001208160040160405161249291906150b2565b60405180910390201480156124b9575062093a8081600801546124b59190615164565b4211155b156124f9576040517f08c379a00000000000000000000000000000000000000000000000000000000081526004016124f0906159b8565b60405180910390fd5b5080806001019150506123fe565b506000816002015490506000826002018190555060003373ffffffffffffffffffffffffffffffffffffffff16826040516125419061557e565b60006040518083038185875af1925050503d806000811461257e576040519150601f19603f3d011682016040523d82523d6000602084013e612583565b606091505b50509050806125c7576040517f08c379a00000000000000000000000000000000000000000000000000000000081526004016125be90615a24565b60405180910390fd5b600160003373ffffffffffffffffffffffffffffffffffffffff1673ffffffffffffffffffffffffffffffffffffffff168152602001908152602001600020600080820160006126179190613e73565b6001820160006126279190613e73565b600282016000905560038201600061263f9190613e73565b60048201600061264f9190613eb3565b50507f45e86ef28678bb11eb3a2909bef25215399cdebb7c34dacb2179034cf6e2c9053383604051612682929190615a44565b60405180910390a1505050565b60008054906101000a900473ffffffffffffffffffffffffffffffffffffffff1673ffffffffffffffffffffffffffffffffffffffff163373ffffffffffffffffffffffffffffffffffffffff161461271d576040517f08c379a000000000000000000000000000000000000000000000000000000000815260040161271490615ab9565b60405180910390fd5b6000600160008373ffffffffffffffffffffffffffffffffffffffff1673ffffffffffffffffffffffffffffffffffffffff16815260200190815260200160002060020154116127a2576040517f08c379a000000000000000000000000000000000000000000000000000000000815260040161279990615926565b60405180910390fd5b6000600160008373ffffffffffffffffffffffffffffffffffffffff1673ffffffffffffffffffffffffffffffffffffffff168152602001908152602001600020905060005b81600401805490508110156128f157600060036000846004018481548110612813576128126155ff565b5b9060005260206000200154815260200190815260200160002090506040518060400160405280600781526020017f70656e64696e6700000000000000000000000000000000000000000000000000815250805190602001208160040160405161287c91906150b2565b60405180910390201480156128a3575062093a80816008015461289f9190615164565b4211155b156128e3576040517f08c379a00000000000000000000000000000000000000000000000000000000081526004016128da906159b8565b60405180910390fd5b5080806001019150506127e8565b506000816002015490506000826002018190555060003373ffffffffffffffffffffffffffffffffffffffff168260405161292b9061557e565b60006040518083038185875af1925050503d8060008114612968576040519150601f19603f3d011682016040523d82523d6000602084013e61296d565b606091505b50509050806129b1576040517f08c379a00000000000000000000000000000000000000000000000000000000081526004016129a890615a24565b60405180910390fd5b7f45e86ef28678bb11eb3a2909bef25215399cdebb7c34dacb2179034cf6e2c90533836040516129e2929190615a44565b60405180910390a150505050565b60026020528060005260406000206000915090508060000154905081565b6000600160003373ffffffffffffffffffffffffffffffffffffffff1673ffffffffffffffffffffffffffffffffffffffff1681526020019081526020016000206002015411612a93576040517f08c379a0000000000000000000000000000000000000000000000000000000008152600401612a8a90615872565b60405180910390fd5b60056000815480929190612aa690615892565b919050555060006003600060055481526020019081526020016000209050338160020160006101000a81548173ffffffffffffffffffffffffffffffffffffffff021916908373ffffffffffffffffffffffffffffffffffffffff16021790555083816003019080519060200190612b1f929190613ed4565b506040518060400160405280600781526020017f70656e64696e6700000000000000000000000000000000000000000000000000815250816004019081612b669190615486565b5042816008018190555082816000019081612b819190615486565b5081816001019081612b939190615486565b50600160003373ffffffffffffffffffffffffffffffffffffffff1673ffffffffffffffffffffffffffffffffffffffff16815260200190815260200160002060040160055490806001815401808255809150506001900390600052602060002001600090919091909150557fe9ee39160568153d230ca0e29961267415d513defbb7d3b21af0fe940e1ebd1560055433604051612c32929190615ad9565b60405180910390a150505050565b6000600260008373ffffffffffffffffffffffffffffffffffffffff1673ffffffffffffffffffffffffffffffffffffffff168152602001908152602001600020600001549050919050565b6060600080600190505b6005548111612d5f576040518060400160405280600781526020017f70656e64696e67000000000000000000000000000000000000000000000000008152508051906020012060036000838152602001908152602001600020600401604051612cff91906150b2565b6040518091039020148015612d38575062093a806003600083815260200190815260200160002060080154612d349190615164565b4211155b15612d4c578180612d4890615892565b9250505b8080612d5790615892565b915050612c96565b5060008167ffffffffffffffff811115612d7c57612d7b6143ac565b5b604051908082528060200260200182016040528015612daa5781602001602082028036833780820191505090505b509050600080600190505b6005548111612e9e576040518060400160405280600781526020017f70656e64696e67000000000000000000000000000000000000000000000000008152508051906020012060036000838152602001908152602001600020600401604051612e1e91906150b2565b6040518091039020148015612e57575062093a806003600083815260200190815260200160002060080154612e539190615164565b4211155b15612e8b5780838381518110612e7057612e6f6155ff565b5b6020026020010181815250508180612e8790615892565b9250505b8080612e9690615892565b915050612db5565b5081935050505090565b6003600082815260200190815260200160002060090160003373ffffffffffffffffffffffffffffffffffffffff1673ffffffffffffffffffffffffffffffffffffffff16815260200190815260200160002060009054906101000a900460ff16612f48576040517f08c379a0000000000000000000000000000000000000000000000000000000008152600401612f3f90615b4e565b60405180910390fd5b6040518060400160405280600781526020017f70656e64696e67000000000000000000000000000000000000000000000000008152508051906020012060036000838152602001908152602001600020600401604051612fa891906150b2565b604051809103902003612ff0576040517f08c379a0000000000000000000000000000000000000000000000000000000008152600401612fe790615bba565b60405180910390fd5b60006064600560036000858152602001908152602001600020600701546130179190615204565b6130219190615275565b905060008060036000858152602001908152602001600020600a01541161304957600061306c565b60036000848152602001908152602001600020600a01548261306b9190615275565b5b905060003373ffffffffffffffffffffffffffffffffffffffff16826040516130949061557e565b60006040518083038185875af1925050503d80600081146130d1576040519150601f19603f3d011682016040523d82523d6000602084013e6130d6565b606091505b505090508061311a576040517f08c379a000000000000000000000000000000000000000000000000000000000815260040161311190615c26565b60405180910390fd5b60006003600086815260200190815260200160002060090160003373ffffffffffffffffffffffffffffffffffffffff1673ffffffffffffffffffffffffffffffffffffffff16815260200190815260200160002060006101000a81548160ff02191690831515021790555050505050565b6000600260003373ffffffffffffffffffffffffffffffffffffffff1673ffffffffffffffffffffffffffffffffffffffff1681526020019081526020016000206000015411613211576040517f08c379a000000000000000000000000000000000000000000000000000000000815260040161320890615c92565b60405180910390fd5b600073ffffffffffffffffffffffffffffffffffffffff166003600084815260200190815260200160002060020160009054906101000a900473ffffffffffffffffffffffffffffffffffffffff1673ffffffffffffffffffffffffffffffffffffffff16036132b6576040517f08c379a00000000000000000000000000000000000000000000000000000000081526004016132ad90614f8f565b60405180910390fd5b600260003373ffffffffffffffffffffffffffffffffffffffff1673ffffffffffffffffffffffffffffffffffffffff168152602001908152602001600020600101600083815260200190815260200160002060009054906101000a900460ff1615613357576040517f08c379a000000000000000000000000000000000000000000000000000000000815260040161334e90615cfe565b60405180910390fd5b6040518060400160405280600781526020017f70656e64696e670000000000000000000000000000000000000000000000000081525080519060200120600360008481526020019081526020016000206004016040516133b791906150b2565b6040518091039020146133ff576040517f08c379a00000000000000000000000000000000000000000000000000000000081526004016133f690615d6a565b60405180910390fd5b62093a8060036000848152602001908152602001600020600801546134249190615164565b421115613466576040517f08c379a000000000000000000000000000000000000000000000000000000000815260040161345d90615dd6565b60405180910390fd5b6001600260003373ffffffffffffffffffffffffffffffffffffffff1673ffffffffffffffffffffffffffffffffffffffff168152602001908152602001600020600101600084815260200190815260200160002060006101000a81548160ff02191690831515021790555060016003600084815260200190815260200160002060090160003373ffffffffffffffffffffffffffffffffffffffff1673ffffffffffffffffffffffffffffffffffffffff16815260200190815260200160002060006101000a81548160ff02191690831515021790555060036000838152602001908152602001600020600a01600081548092919061356590615892565b919050555080156135a15760036000838152602001908152602001600020600501600081548092919061359790615892565b91905055506135ce565b6003600083815260200190815260200160002060060160008154809291906135c890615892565b91905055505b7ff2913dbe661ee2acc4a046d8fbcdc792373bda34c41c6086484b5345e5785e5f82338360405161360193929190615df6565b60405180910390a15050565b6000600260003373ffffffffffffffffffffffffffffffffffffffff1673ffffffffffffffffffffffffffffffffffffffff1681526020019081526020016000206000015411613692576040517f08c379a000000000000000000000000000000000000000000000000000000000815260040161368990615c92565b60405180910390fd5b6000600260003373ffffffffffffffffffffffffffffffffffffffff1673ffffffffffffffffffffffffffffffffffffffff1681526020019081526020016000206000015490506000600260003373ffffffffffffffffffffffffffffffffffffffff1673ffffffffffffffffffffffffffffffffffffffff1681526020019081526020016000206000018190555060003373ffffffffffffffffffffffffffffffffffffffff16826040516137479061557e565b60006040518083038185875af1925050503d8060008114613784576040519150601f19603f3d011682016040523d82523d6000602084013e613789565b606091505b50509050806137cd576040517f08c379a00000000000000000000000000000000000000000000000000000000081526004016137c490615a24565b60405180910390fd5b600260003373ffffffffffffffffffffffffffffffffffffffff1673ffffffffffffffffffffffffffffffffffffffff16815260200190815260200160002060008082016000905550505050565b600160205280600052604060002060009150905080600001805461383e90614fde565b80601f016020809104026020016040519081016040528092919081815260200182805461386a90614fde565b80156138b75780601f1061388c576101008083540402835291602001916138b7565b820191906000526020600020905b81548152906001019060200180831161389a57829003601f168201915b5050505050908060010180546138cc90614fde565b80601f01602080910402602001604051908101604052809291908181526020018280546138f890614fde565b80156139455780601f1061391a57610100808354040283529160200191613945565b820191906000526020600020905b81548152906001019060200180831161392857829003601f168201915b50505050509080600201549080600301805461396090614fde565b80601f016020809104026020016040519081016040528092919081815260200182805461398c90614fde565b80156139d95780601f106139ae576101008083540402835291602001916139d9565b820191906000526020600020905b8154815290600101906020018083116139bc57829003601f168201915b5050505050905084565b60003411613a26576040517f08c379a0000000000000000000000000000000000000000000000000000000008152600401613a1d9061579a565b60405180910390fd5b6000600260003373ffffffffffffffffffffffffffffffffffffffff1673ffffffffffffffffffffffffffffffffffffffff1681526020019081526020016000206000015414613aab576040517f08c379a0000000000000000000000000000000000000000000000000000000008152600401613aa290615e79565b60405180910390fd5b34600260003373ffffffffffffffffffffffffffffffffffffffff1673ffffffffffffffffffffffffffffffffffffffff16815260200190815260200160002060000181905550565b600073ffffffffffffffffffffffffffffffffffffffff166003600083815260200190815260200160002060020160009054906101000a900473ffffffffffffffffffffffffffffffffffffffff1673ffffffffffffffffffffffffffffffffffffffff1603613b99576040517f08c379a0000000000000000000000000000000000000000000000000000000008152600401613b9090614f8f565b60405180910390fd5b60003411613bdc576040517f08c379a0000000000000000000000000000000000000000000000000000000008152600401613bd390615ee5565b60405180910390fd5b6040518060400160405280600781526020017f70656e64696e67000000000000000000000000000000000000000000000000008152508051906020012060036000838152602001908152602001600020600401604051613c3c91906150b2565b604051809103902014613c84576040517f08c379a0000000000000000000000000000000000000000000000000000000008152600401613c7b90615d6a565b60405180910390fd5b34600360008381526020019081526020016000206007016000828254613caa9190615164565b925050819055506004600082815260200190815260200160002060405180606001604052803373ffffffffffffffffffffffffffffffffffffffff16815260200134815260200142815250908060018154018082558091505060019003906000526020600020906003020160009091909190915060008201518160000160006101000a81548173ffffffffffffffffffffffffffffffffffffffff021916908373ffffffffffffffffffffffffffffffffffffffff160217905550602082015181600101556040820151816002015550507f27e413b8931dc4cb7edc879292ebc482a3047336d03423ea91addae7a2cf850a81333460016004600087815260200190815260200160002080549050613dc291906152a6565b604051613dd29493929190615f05565b60405180910390a150565b828054828255906000526020600020908101928215613e19579160200282015b82811115613e18578251825591602001919060010190613dfd565b5b509050613e269190613f2d565b5090565b6040518060800160405280600081526020016060815260200160608152602001606081525090565b60405180606001604052806000815260200160608152602001606081525090565b508054613e7f90614fde565b6000825580601f10613e915750613eb0565b601f016020900490600052602060002090810190613eaf9190613f2d565b5b50565b5080546000825590600052602060002090810190613ed19190613f2d565b50565b828054828255906000526020600020908101928215613f1c579160200282015b82811115613f1b578251829081613f0b9190615486565b5091602001919060010190613ef4565b5b509050613f299190613f4a565b5090565b5b80821115613f46576000816000905550600101613f2e565b5090565b5b80821115613f6a5760008181613f619190613e73565b50600101613f4b565b5090565b6000604051905090565b600080fd5b600080fd5b6000819050919050565b613f9581613f82565b8114613fa057600080fd5b50565b600081359050613fb281613f8c565b92915050565b600060208284031215613fce57613fcd613f78565b5b6000613fdc84828501613fa3565b91505092915050565b600073ffffffffffffffffffffffffffffffffffffffff82169050919050565b600061401082613fe5565b9050919050565b61402081614005565b82525050565b600081519050919050565b600082825260208201905092915050565b6000819050602082019050919050565b600081519050919050565b600082825260208201905092915050565b60005b8381101561408c578082015181840152602081019050614071565b60008484015250505050565b6000601f19601f8301169050919050565b60006140b482614052565b6140be818561405d565b93506140ce81856020860161406e565b6140d781614098565b840191505092915050565b60006140ee83836140a9565b905092915050565b6000602082019050919050565b600061410e82614026565b6141188185614031565b93508360208202850161412a85614042565b8060005b85811015614166578484038952815161414785826140e2565b9450614152836140f6565b925060208a0199505060018101905061412e565b50829750879550505050505092915050565b600082825260208201905092915050565b600061419482614052565b61419e8185614178565b93506141ae81856020860161406e565b6141b781614098565b840191505092915050565b6141cb81613f82565b82525050565b6000610140820190506141e7600083018d614017565b81810360208301526141f9818c614103565b9050818103604083015261420d818b614189565b905061421c606083018a6141c2565b61422960808301896141c2565b61423660a08301886141c2565b61424360c08301876141c2565b61425060e08301866141c2565b8181036101008301526142638185614189565b90508181036101208301526142788184614189565b90509b9a5050505050505050505050565b600080604083850312156142a05761429f613f78565b5b60006142ae85828601613fa3565b92505060206142bf85828601613fa3565b9150509250929050565b60006060820190506142de6000830186614017565b6142eb60208301856141c2565b6142f860408301846141c2565b949350505050565b61430981614005565b811461431457600080fd5b50565b60008135905061432681614300565b92915050565b6000806040838503121561434357614342613f78565b5b600061435185828601614317565b925050602061436285828601613fa3565b9150509250929050565b60008115159050919050565b6143818161436c565b82525050565b600060208201905061439c6000830184614378565b92915050565b600080fd5b600080fd5b7f4e487b7100000000000000000000000000000000000000000000000000000000600052604160045260246000fd5b6143e482614098565b810181811067ffffffffffffffff82111715614403576144026143ac565b5b80604052505050565b6000614416613f6e565b905061442282826143db565b919050565b600067ffffffffffffffff821115614442576144416143ac565b5b61444b82614098565b9050602081019050919050565b82818337600083830152505050565b600061447a61447584614427565b61440c565b905082815260208101848484011115614496576144956143a7565b5b6144a1848285614458565b509392505050565b600082601f8301126144be576144bd6143a2565b5b81356144ce848260208601614467565b91505092915050565b6000806000606084860312156144f0576144ef613f78565b5b600084013567ffffffffffffffff81111561450e5761450d613f7d565b5b61451a868287016144a9565b935050602084013567ffffffffffffffff81111561453b5761453a613f7d565b5b614547868287016144a9565b925050604084013567ffffffffffffffff81111561456857614567613f7d565b5b614574868287016144a9565b9150509250925092565b600060208201905061459360008301846141c2565b92915050565b600081519050919050565b600082825260208201905092915050565b6000819050602082019050919050565b6145ce81614005565b82525050565b6145dd81613f82565b82525050565b6060820160008201516145f960008501826145c5565b50602082015161460c60208501826145d4565b50604082015161461f60408501826145d4565b50505050565b600061463183836145e3565b60608301905092915050565b6000602082019050919050565b600061465582614599565b61465f81856145a4565b935061466a836145b5565b8060005b8381101561469b5781516146828882614625565b975061468d8361463d565b92505060018101905061466e565b5085935050505092915050565b600060208201905081810360008301526146c2818461464a565b905092915050565b6000602082840312156146e0576146df613f78565b5b60006146ee84828501614317565b91505092915050565b600081519050919050565b600082825260208201905092915050565b6000819050602082019050919050565b600061472f83836145d4565b60208301905092915050565b6000602082019050919050565b6000614753826146f7565b61475d8185614702565b935061476883614713565b8060005b838110156147995781516147808882614723565b975061478b8361473b565b92505060018101905061476c565b5085935050505092915050565b600060a08201905081810360008301526147c08188614189565b905081810360208301526147d48187614189565b90506147e360408301866141c2565b81810360608301526147f58185614748565b905081810360808301526148098184614189565b90509695505050505050565b6000602082019050818103600083015261482f8184614748565b905092915050565b600060408201905081810360008301526148518185614748565b905081810360208301526148658184614103565b90509392505050565b600081519050919050565b600082825260208201905092915050565b6000819050602082019050919050565b600081519050919050565b600082825260208201905092915050565b6000819050602082019050919050565b600082825260208201905092915050565b60006148e282614026565b6148ec81856148c6565b9350836020820285016148fe85614042565b8060005b8581101561493a578484038952815161491b85826140e2565b9450614926836140f6565b925060208a01995050600181019050614902565b50829750879550505050505092915050565b600060608301600083015161496460008601826145d4565b506020830151848203602086015261497c82826140a9565b9150506040830151848203604086015261499682826148d7565b9150508091505092915050565b60006149af838361494c565b905092915050565b6000602082019050919050565b60006149cf8261489a565b6149d981856148a5565b9350836020820285016149eb856148b6565b8060005b85811015614a275784840389528151614a0885826149a3565b9450614a13836149b7565b925060208a019950506001810190506149ef565b50829750879550505050505092915050565b6000608083016000830151614a5160008601826145d4565b5060208301518482036020860152614a6982826140a9565b91505060408301518482036040860152614a8382826140a9565b91505060608301518482036060860152614a9d82826149c4565b9150508091505092915050565b6000614ab68383614a39565b905092915050565b6000602082019050919050565b6000614ad68261486e565b614ae08185614879565b935083602082028501614af28561488a565b8060005b85811015614b2e5784840389528151614b0f8582614aaa565b9450614b1a83614abe565b925060208a01995050600181019050614af6565b50829750879550505050505092915050565b60006020820190508181036000830152614b5a8184614acb565b905092915050565b600081519050919050565b600082825260208201905092915050565b6000819050602082019050919050565b6000614b9a83836145c5565b60208301905092915050565b6000602082019050919050565b6000614bbe82614b62565b614bc88185614b6d565b9350614bd383614b7e565b8060005b83811015614c04578151614beb8882614b8e565b9750614bf683614ba6565b925050600181019050614bd7565b5085935050505092915050565b60006020820190508181036000830152614c2b8184614bb3565b905092915050565b6000610120820190508181036000830152614c4e818c614189565b90508181036020830152614c62818b614189565b9050614c71604083018a614017565b8181036060830152614c838189614189565b9050614c9260808301886141c2565b614c9f60a08301876141c2565b614cac60c08301866141c2565b614cb960e08301856141c2565b614cc76101008301846141c2565b9a9950505050505050505050565b6000602082019050614cea6000830184614017565b92915050565b600067ffffffffffffffff821115614d0b57614d0a6143ac565b5b602082029050602081019050919050565b600080fd5b6000614d34614d2f84614cf0565b61440c565b90508083825260208201905060208402830185811115614d5757614d56614d1c565b5b835b81811015614d9e57803567ffffffffffffffff811115614d7c57614d7b6143a2565b5b808601614d8989826144a9565b85526020850194505050602081019050614d59565b5050509392505050565b600082601f830112614dbd57614dbc6143a2565b5b8135614dcd848260208601614d21565b91505092915050565b600080600060608486031215614def57614dee613f78565b5b600084013567ffffffffffffffff811115614e0d57614e0c613f7d565b5b614e1986828701614da8565b935050602084013567ffffffffffffffff811115614e3a57614e39613f7d565b5b614e46868287016144a9565b925050604084013567ffffffffffffffff811115614e6757614e66613f7d565b5b614e73868287016144a9565b9150509250925092565b614e868161436c565b8114614e9157600080fd5b50565b600081359050614ea381614e7d565b92915050565b60008060408385031215614ec057614ebf613f78565b5b6000614ece85828601613fa3565b9250506020614edf85828601614e94565b9150509250929050565b60006080820190508181036000830152614f038187614189565b90508181036020830152614f178186614189565b9050614f2660408301856141c2565b8181036060830152614f388184614189565b905095945050505050565b7f5461736b20646f6573206e6f7420657869737400000000000000000000000000600082015250565b6000614f79601383614178565b9150614f8482614f43565b602082019050919050565b60006020820190508181036000830152614fa881614f6c565b9050919050565b7f4e487b7100000000000000000000000000000000000000000000000000000000600052602260045260246000fd5b60006002820490506001821680614ff657607f821691505b60208210810361500957615008614faf565b5b50919050565b600081905092915050565b60008190508160005260206000209050919050565b6000815461503c81614fde565b615046818661500f565b945060018216600081146150615760018114615076576150a9565b60ff19831686528115158202860193506150a9565b61507f8561501a565b60005b838110156150a157815481890152600182019150602081019050615082565b838801955050505b50505092915050565b60006150be828461502f565b915081905092915050565b7f5461736b20616c7265616479207265736f6c7665640000000000000000000000600082015250565b60006150ff601583614178565b915061510a826150c9565b602082019050919050565b6000602082019050818103600083015261512e816150f2565b9050919050565b7f4e487b7100000000000000000000000000000000000000000000000000000000600052601160045260246000fd5b600061516f82613f82565b915061517a83613f82565b925082820190508082111561519257615191615135565b5b92915050565b7f566f74696e6720706572696f64206e6f7420656e646564000000000000000000600082015250565b60006151ce601783614178565b91506151d982615198565b602082019050919050565b600060208201905081810360008301526151fd816151c1565b9050919050565b600061520f82613f82565b915061521a83613f82565b925082820261522881613f82565b9150828204841483151761523f5761523e615135565b5b5092915050565b7f4e487b7100000000000000000000000000000000000000000000000000000000600052601260045260246000fd5b600061528082613f82565b915061528b83613f82565b92508261529b5761529a615246565b5b828204905092915050565b60006152b182613f82565b91506152bc83613f82565b92508282039050818111156152d4576152d3615135565b5b92915050565b60008190508160005260206000209050919050565b60006020601f8301049050919050565b600082821b905092915050565b60006008830261533c7fffffffffffffffffffffffffffffffffffffffffffffffffffffffffffffffff826152ff565b61534686836152ff565b95508019841693508086168417925050509392505050565b6000819050919050565b600061538361537e61537984613f82565b61535e565b613f82565b9050919050565b6000819050919050565b61539d83615368565b6153b16153a98261538a565b84845461530c565b825550505050565b600090565b6153c66153b9565b6153d1818484615394565b505050565b5b818110156153f5576153ea6000826153be565b6001810190506153d7565b5050565b601f82111561543a5761540b816152da565b615414846152ef565b81016020851015615423578190505b61543761542f856152ef565b8301826153d6565b50505b505050565b600082821c905092915050565b600061545d6000198460080261543f565b1980831691505092915050565b6000615476838361544c565b9150826002028217905092915050565b61548f82614052565b67ffffffffffffffff8111156154a8576154a76143ac565b5b6154b28254614fde565b6154bd8282856153f9565b600060209050601f8311600181146154f057600084156154de578287015190505b6154e8858261546a565b865550615550565b601f1984166154fe866152da565b60005b8281101561552657848901518255600182019150602085019450602081019050615501565b86831015615543578489015161553f601f89168261544c565b8355505b6001600288020188555050505b505050505050565b50565b600061556860008361500f565b915061557382615558565b600082019050919050565b60006155898261555b565b9150819050919050565b7f4661696c656420746f2073656e642066756e647320746f204e474f0000000000600082015250565b60006155c9601b83614178565b91506155d482615593565b602082019050919050565b600060208201905081810360008301526155f8816155bc565b9050919050565b7f4e487b7100000000000000000000000000000000000000000000000000000000600052603260045260246000fd5b7f526566756e64206661696c656400000000000000000000000000000000000000600082015250565b6000615664600d83614178565b915061566f8261562e565b602082019050919050565b6000602082019050818103600083015261569381615657565b9050919050565b600081546156a781614fde565b6156b18186614178565b945060018216600081146156cc57600181146156e257615715565b60ff198316865281151560200286019350615715565b6156eb856152da565b60005b8381101561570d578154818901526001820191506020810190506156ee565b808801955050505b50505092915050565b600060408201905061573360008301856141c2565b8181036020830152615745818461569a565b90509392505050565b7f4d757374207374616b6520455448000000000000000000000000000000000000600082015250565b6000615784600e83614178565b915061578f8261574e565b602082019050919050565b600060208201905081810360008301526157b381615777565b9050919050565b7f4e474f20616c7265616479207265676973746572656400000000000000000000600082015250565b60006157f0601683614178565b91506157fb826157ba565b602082019050919050565b6000602082019050818103600083015261581f816157e3565b9050919050565b7f4e474f206e6f7420726567697374657265640000000000000000000000000000600082015250565b600061585c601283614178565b915061586782615826565b602082019050919050565b6000602082019050818103600083015261588b8161584f565b9050919050565b600061589d82613f82565b91507fffffffffffffffffffffffffffffffffffffffffffffffffffffffffffffffff82036158cf576158ce615135565b5b600182019050919050565b7f4e6f7420616e204e474f206f7220616c72656164792077697468647261776e00600082015250565b6000615910601f83614178565b915061591b826158da565b602082019050919050565b6000602082019050818103600083015261593f81615903565b9050919050565b7f43616e6e6f7420776974686472617720776974682070656e64696e672074617360008201527f6b73000000000000000000000000000000000000000000000000000000000000602082015250565b60006159a2602283614178565b91506159ad82615946565b604082019050919050565b600060208201905081810360008301526159d181615995565b9050919050565b7f5769746864726177616c206661696c6564000000000000000000000000000000600082015250565b6000615a0e601183614178565b9150615a19826159d8565b602082019050919050565b60006020820190508181036000830152615a3d81615a01565b9050919050565b6000604082019050615a596000830185614017565b615a6660208301846141c2565b9392505050565b7f4f6e6c79206f776e65722063616e2063616c6c20746869730000000000000000600082015250565b6000615aa3601883614178565b9150615aae82615a6d565b602082019050919050565b60006020820190508181036000830152615ad281615a96565b9050919050565b6000604082019050615aee60008301856141c2565b615afb6020830184614017565b9392505050565b7f446964206e6f7420766f7465206f6e207461736b000000000000000000000000600082015250565b6000615b38601483614178565b9150615b4382615b02565b602082019050919050565b60006020820190508181036000830152615b6781615b2b565b9050919050565b7f5461736b207374696c6c2070656e64696e670000000000000000000000000000600082015250565b6000615ba4601283614178565b9150615baf82615b6e565b602082019050919050565b60006020820190508181036000830152615bd381615b97565b9050919050565b7f52657761726420636c61696d206661696c656400000000000000000000000000600082015250565b6000615c10601383614178565b9150615c1b82615bda565b602082019050919050565b60006020820190508181036000830152615c3f81615c03565b9050919050565b7f4e6f74206120766f746572000000000000000000000000000000000000000000600082015250565b6000615c7c600b83614178565b9150615c8782615c46565b602082019050919050565b60006020820190508181036000830152615cab81615c6f565b9050919050565b7f416c726561647920766f74656400000000000000000000000000000000000000600082015250565b6000615ce8600d83614178565b9150615cf382615cb2565b602082019050919050565b60006020820190508181036000830152615d1781615cdb565b9050919050565b7f5461736b206e6f742070656e64696e6700000000000000000000000000000000600082015250565b6000615d54601083614178565b9150615d5f82615d1e565b602082019050919050565b60006020820190508181036000830152615d8381615d47565b9050919050565b7f566f74696e6720706572696f6420656e64656400000000000000000000000000600082015250565b6000615dc0601383614178565b9150615dcb82615d8a565b602082019050919050565b60006020820190508181036000830152615def81615db3565b9050919050565b6000606082019050615e0b60008301866141c2565b615e186020830185614017565b615e256040830184614378565b949350505050565b7f416c7265616479206120766f7465720000000000000000000000000000000000600082015250565b6000615e63600f83614178565b9150615e6e82615e2d565b602082019050919050565b60006020820190508181036000830152615e9281615e56565b9050919050565b7f4d75737420646f6e617465204554480000000000000000000000000000000000600082015250565b6000615ecf600f83614178565b9150615eda82615e99565b602082019050919050565b60006020820190508181036000830152615efe81615ec2565b9050919050565b6000608082019050615f1a60008301876141c2565b615f276020830186614017565b615f3460408301856141c2565b615f4160608301846141c2565b9594505050505056fea26469706673582212202c136fac7b24f3aafe4454c678dbbf2e2ddbee1a3c0502a8361f254bad3f559e64736f6c634300081c0033","opcodes":"PUSH1 0x80 PUSH1 0x40 MSTORE CALLVALUE DUP1 ISZERO PUSH1 0xF JUMPI PUSH1 0x0 DUP1 REVERT JUMPDEST POP CALLER PUSH1 0x0 DUP1 PUSH2 0x100 EXP DUP2 SLOAD DUP2 PUSH20 0xFFFFFFFFFFFFFFFFFFFFFFFFFFFFFFFFFFFFFFFF MUL NOT AND SWAP1 DUP4 PUSH20 0xFFFFFFFFFFFFFFFFFFFFFFFFFFFFFFFFFFFFFFFF AND MUL OR SWAP1 SSTORE POP PUSH2 0x5F80 DUP1 PUSH2 0x5F PUSH1 0x0 CODECOPY PUSH1 0x0 RETURN INVALID PUSH1 0x80 PUSH1 0x40 MSTORE PUSH1 0x4 CALLDATASIZE LT PUSH2 0x1B7 JUMPI PUSH1 0x0 CALLDATALOAD PUSH1 0xE0 SHR DUP1 PUSH4 0x9255CB3B GT PUSH2 0xEC JUMPI DUP1 PUSH4 0xC35B9030 GT PUSH2 0x8A JUMPI DUP1 PUSH4 0xDFFB0ECE GT PUSH2 0x64 JUMPI DUP1 PUSH4 0xDFFB0ECE EQ PUSH2 0x668 JUMPI DUP1 PUSH4 0xE6F7D11E EQ PUSH2 0x672 JUMPI DUP1 PUSH4 0xECB617D9 EQ PUSH2 0x6B2 JUMPI DUP1 PUSH4 0xF14FAF6F EQ PUSH2 0x6BC JUMPI PUSH2 0x1B7 JUMP JUMPDEST DUP1 PUSH4 0xC35B9030 EQ PUSH2 0x5EB JUMPI DUP1 PUSH4 0xC893B82F EQ PUSH2 0x616 JUMPI DUP1 PUSH4 0xC9D27AFE EQ PUSH2 0x63F JUMPI PUSH2 0x1B7 JUMP JUMPDEST DUP1 PUSH4 0xA28835B6 GT PUSH2 0xC6 JUMPI DUP1 PUSH4 0xA28835B6 EQ PUSH2 0x51F JUMPI DUP1 PUSH4 0xA3EC138D EQ PUSH2 0x548 JUMPI DUP1 PUSH4 0xB580B47C EQ PUSH2 0x585 JUMPI DUP1 PUSH4 0xBA71BEF0 EQ PUSH2 0x5AE JUMPI PUSH2 0x1B7 JUMP JUMPDEST DUP1 PUSH4 0x9255CB3B EQ PUSH2 0x49B JUMPI DUP1 PUSH4 0x967F8982 EQ PUSH2 0x4D8 JUMPI DUP1 PUSH4 0x987BDEE4 EQ PUSH2 0x515 JUMPI PUSH2 0x1B7 JUMP JUMPDEST DUP1 PUSH4 0x734D78C5 GT PUSH2 0x159 JUMPI DUP1 PUSH4 0x82C4DBE5 GT PUSH2 0x133 JUMPI DUP1 PUSH4 0x82C4DBE5 EQ PUSH2 0x3D5 JUMPI DUP1 PUSH4 0x87B5A2DD EQ PUSH2 0x400 JUMPI DUP1 PUSH4 0x8D977672 EQ PUSH2 0x42B JUMPI DUP1 PUSH4 0x8DA5CB5B EQ PUSH2 0x470 JUMPI PUSH2 0x1B7 JUMP JUMPDEST DUP1 PUSH4 0x734D78C5 EQ PUSH2 0x32B JUMPI DUP1 PUSH4 0x779900B4 EQ PUSH2 0x36C JUMPI DUP1 PUSH4 0x7ABE26B4 EQ PUSH2 0x397 JUMPI PUSH2 0x1B7 JUMP JUMPDEST DUP1 PUSH4 0x456D908E GT PUSH2 0x195 JUMPI DUP1 PUSH4 0x456D908E EQ PUSH2 0x27E JUMPI DUP1 PUSH4 0x48F667B3 EQ PUSH2 0x2A7 JUMPI DUP1 PUSH4 0x58671730 EQ PUSH2 0x2C3 JUMPI DUP1 PUSH4 0x596D9CE2 EQ PUSH2 0x2EE JUMPI PUSH2 0x1B7 JUMP JUMPDEST DUP1 PUSH4 0x3888B9D5 EQ PUSH2 0x1BC JUMPI DUP1 PUSH4 0x3DF78C91 EQ PUSH2 0x202 JUMPI DUP1 PUSH4 0x42545825 EQ PUSH2 0x241 JUMPI JUMPDEST PUSH1 0x0 DUP1 REVERT JUMPDEST CALLVALUE DUP1 ISZERO PUSH2 0x1C8 JUMPI PUSH1 0x0 DUP1 REVERT JUMPDEST POP PUSH2 0x1E3 PUSH1 0x4 DUP1 CALLDATASIZE SUB DUP2 ADD SWAP1 PUSH2 0x1DE SWAP2 SWAP1 PUSH2 0x3FB8 JUMP JUMPDEST PUSH2 0x6D8 JUMP JUMPDEST PUSH1 0x40 MLOAD PUSH2 0x1F9 SWAP11 SWAP10 SWAP9 SWAP8 SWAP7 SWAP6 SWAP5 SWAP4 SWAP3 SWAP2 SWAP1 PUSH2 0x41D1 JUMP JUMPDEST PUSH1 0x40 MLOAD DUP1 SWAP2 SUB SWAP1 RETURN JUMPDEST CALLVALUE DUP1 ISZERO PUSH2 0x20E JUMPI PUSH1 0x0 DUP1 REVERT JUMPDEST POP PUSH2 0x229 PUSH1 0x4 DUP1 CALLDATASIZE SUB DUP2 ADD SWAP1 PUSH2 0x224 SWAP2 SWAP1 PUSH2 0x4289 JUMP JUMPDEST PUSH2 0xA79 JUMP JUMPDEST PUSH1 0x40 MLOAD PUSH2 0x238 SWAP4 SWAP3 SWAP2 SWAP1 PUSH2 0x42C9 JUMP JUMPDEST PUSH1 0x40 MLOAD DUP1 SWAP2 SUB SWAP1 RETURN JUMPDEST CALLVALUE DUP1 ISZERO PUSH2 0x24D JUMPI PUSH1 0x0 DUP1 REVERT JUMPDEST POP PUSH2 0x268 PUSH1 0x4 DUP1 CALLDATASIZE SUB DUP2 ADD SWAP1 PUSH2 0x263 SWAP2 SWAP1 PUSH2 0x432C JUMP JUMPDEST PUSH2 0xAE0 JUMP JUMPDEST PUSH1 0x40 MLOAD PUSH2 0x275 SWAP2 SWAP1 PUSH2 0x4387 JUMP JUMPDEST PUSH1 0x40 MLOAD DUP1 SWAP2 SUB SWAP1 RETURN JUMPDEST CALLVALUE DUP1 ISZERO PUSH2 0x28A JUMPI PUSH1 0x0 DUP1 REVERT JUMPDEST POP PUSH2 0x2A5 PUSH1 0x4 DUP1 CALLDATASIZE SUB DUP2 ADD SWAP1 PUSH2 0x2A0 SWAP2 SWAP1 PUSH2 0x3FB8 JUMP JUMPDEST PUSH2 0xB4B JUMP JUMPDEST STOP JUMPDEST PUSH2 0x2C1 PUSH1 0x4 DUP1 CALLDATASIZE SUB DUP2 ADD SWAP1 PUSH2 0x2BC SWAP2 SWAP1 PUSH2 0x44D7 JUMP JUMPDEST PUSH2 0x113A JUMP JUMPDEST STOP JUMPDEST CALLVALUE DUP1 ISZERO PUSH2 0x2CF JUMPI PUSH1 0x0 DUP1 REVERT JUMPDEST POP PUSH2 0x2D8 PUSH2 0x138B JUMP JUMPDEST PUSH1 0x40 MLOAD PUSH2 0x2E5 SWAP2 SWAP1 PUSH2 0x457E JUMP JUMPDEST PUSH1 0x40 MLOAD DUP1 SWAP2 SUB SWAP1 RETURN JUMPDEST CALLVALUE DUP1 ISZERO PUSH2 0x2FA JUMPI PUSH1 0x0 DUP1 REVERT JUMPDEST POP PUSH2 0x315 PUSH1 0x4 DUP1 CALLDATASIZE SUB DUP2 ADD SWAP1 PUSH2 0x310 SWAP2 SWAP1 PUSH2 0x3FB8 JUMP JUMPDEST PUSH2 0x1391 JUMP JUMPDEST PUSH1 0x40 MLOAD PUSH2 0x322 SWAP2 SWAP1 PUSH2 0x46A8 JUMP JUMPDEST PUSH1 0x40 MLOAD DUP1 SWAP2 SUB SWAP1 RETURN JUMPDEST CALLVALUE DUP1 ISZERO PUSH2 0x337 JUMPI PUSH1 0x0 DUP1 REVERT JUMPDEST POP PUSH2 0x352 PUSH1 0x4 DUP1 CALLDATASIZE SUB DUP2 ADD SWAP1 PUSH2 0x34D SWAP2 SWAP1 PUSH2 0x46CA JUMP JUMPDEST PUSH2 0x146D JUMP JUMPDEST PUSH1 0x40 MLOAD PUSH2 0x363 SWAP6 SWAP5 SWAP4 SWAP3 SWAP2 SWAP1 PUSH2 0x47A6 JUMP JUMPDEST PUSH1 0x40 MLOAD DUP1 SWAP2 SUB SWAP1 RETURN JUMPDEST CALLVALUE DUP1 ISZERO PUSH2 0x378 JUMPI PUSH1 0x0 DUP1 REVERT JUMPDEST POP PUSH2 0x381 PUSH2 0x171E JUMP JUMPDEST PUSH1 0x40 MLOAD PUSH2 0x38E SWAP2 SWAP1 PUSH2 0x4815 JUMP JUMPDEST PUSH1 0x40 MLOAD DUP1 SWAP2 SUB SWAP1 RETURN JUMPDEST CALLVALUE DUP1 ISZERO PUSH2 0x3A3 JUMPI PUSH1 0x0 DUP1 REVERT JUMPDEST POP PUSH2 0x3BE PUSH1 0x4 DUP1 CALLDATASIZE SUB DUP2 ADD SWAP1 PUSH2 0x3B9 SWAP2 SWAP1 PUSH2 0x46CA JUMP JUMPDEST PUSH2 0x17C6 JUMP JUMPDEST PUSH1 0x40 MLOAD PUSH2 0x3CC SWAP3 SWAP2 SWAP1 PUSH2 0x4837 JUMP JUMPDEST PUSH1 0x40 MLOAD DUP1 SWAP2 SUB SWAP1 RETURN JUMPDEST CALLVALUE DUP1 ISZERO PUSH2 0x3E1 JUMPI PUSH1 0x0 DUP1 REVERT JUMPDEST POP PUSH2 0x3EA PUSH2 0x19F0 JUMP JUMPDEST PUSH1 0x40 MLOAD PUSH2 0x3F7 SWAP2 SWAP1 PUSH2 0x4B40 JUMP JUMPDEST PUSH1 0x40 MLOAD DUP1 SWAP2 SUB SWAP1 RETURN JUMPDEST CALLVALUE DUP1 ISZERO PUSH2 0x40C JUMPI PUSH1 0x0 DUP1 REVERT JUMPDEST POP PUSH2 0x415 PUSH2 0x1EB5 JUMP JUMPDEST PUSH1 0x40 MLOAD PUSH2 0x422 SWAP2 SWAP1 PUSH2 0x4C11 JUMP JUMPDEST PUSH1 0x40 MLOAD DUP1 SWAP2 SUB SWAP1 RETURN JUMPDEST CALLVALUE DUP1 ISZERO PUSH2 0x437 JUMPI PUSH1 0x0 DUP1 REVERT JUMPDEST POP PUSH2 0x452 PUSH1 0x4 DUP1 CALLDATASIZE SUB DUP2 ADD SWAP1 PUSH2 0x44D SWAP2 SWAP1 PUSH2 0x3FB8 JUMP JUMPDEST PUSH2 0x1F43 JUMP JUMPDEST PUSH1 0x40 MLOAD PUSH2 0x467 SWAP10 SWAP9 SWAP8 SWAP7 SWAP6 SWAP5 SWAP4 SWAP3 SWAP2 SWAP1 PUSH2 0x4C33 JUMP JUMPDEST PUSH1 0x40 MLOAD DUP1 SWAP2 SUB SWAP1 RETURN JUMPDEST CALLVALUE DUP1 ISZERO PUSH2 0x47C JUMPI PUSH1 0x0 DUP1 REVERT JUMPDEST POP PUSH2 0x485 PUSH2 0x2149 JUMP JUMPDEST PUSH1 0x40 MLOAD PUSH2 0x492 SWAP2 SWAP1 PUSH2 0x4CD5 JUMP JUMPDEST PUSH1 0x40 MLOAD DUP1 SWAP2 SUB SWAP1 RETURN JUMPDEST CALLVALUE DUP1 ISZERO PUSH2 0x4A7 JUMPI PUSH1 0x0 DUP1 REVERT JUMPDEST POP PUSH2 0x4C2 PUSH1 0x4 DUP1 CALLDATASIZE SUB DUP2 ADD SWAP1 PUSH2 0x4BD SWAP2 SWAP1 PUSH2 0x46CA JUMP JUMPDEST PUSH2 0x216D JUMP JUMPDEST PUSH1 0x40 MLOAD PUSH2 0x4CF SWAP2 SWAP1 PUSH2 0x457E JUMP JUMPDEST PUSH1 0x40 MLOAD DUP1 SWAP2 SUB SWAP1 RETURN JUMPDEST CALLVALUE DUP1 ISZERO PUSH2 0x4E4 JUMPI PUSH1 0x0 DUP1 REVERT JUMPDEST POP PUSH2 0x4FF PUSH1 0x4 DUP1 CALLDATASIZE SUB DUP2 ADD SWAP1 PUSH2 0x4FA SWAP2 SWAP1 PUSH2 0x3FB8 JUMP JUMPDEST PUSH2 0x22F4 JUMP JUMPDEST PUSH1 0x40 MLOAD PUSH2 0x50C SWAP2 SWAP1 PUSH2 0x4CD5 JUMP JUMPDEST PUSH1 0x40 MLOAD DUP1 SWAP2 SUB SWAP1 RETURN JUMPDEST PUSH2 0x51D PUSH2 0x2333 JUMP JUMPDEST STOP JUMPDEST CALLVALUE DUP1 ISZERO PUSH2 0x52B JUMPI PUSH1 0x0 DUP1 REVERT JUMPDEST POP PUSH2 0x546 PUSH1 0x4 DUP1 CALLDATASIZE SUB DUP2 ADD SWAP1 PUSH2 0x541 SWAP2 SWAP1 PUSH2 0x46CA JUMP JUMPDEST PUSH2 0x268F JUMP JUMPDEST STOP JUMPDEST CALLVALUE DUP1 ISZERO PUSH2 0x554 JUMPI PUSH1 0x0 DUP1 REVERT JUMPDEST POP PUSH2 0x56F PUSH1 0x4 DUP1 CALLDATASIZE SUB DUP2 ADD SWAP1 PUSH2 0x56A SWAP2 SWAP1 PUSH2 0x46CA JUMP JUMPDEST PUSH2 0x29F0 JUMP JUMPDEST PUSH1 0x40 MLOAD PUSH2 0x57C SWAP2 SWAP1 PUSH2 0x457E JUMP JUMPDEST PUSH1 0x40 MLOAD DUP1 SWAP2 SUB SWAP1 RETURN JUMPDEST CALLVALUE DUP1 ISZERO PUSH2 0x591 JUMPI PUSH1 0x0 DUP1 REVERT JUMPDEST POP PUSH2 0x5AC PUSH1 0x4 DUP1 CALLDATASIZE SUB DUP2 ADD SWAP1 PUSH2 0x5A7 SWAP2 SWAP1 PUSH2 0x4DD6 JUMP JUMPDEST PUSH2 0x2A0E JUMP JUMPDEST STOP JUMPDEST CALLVALUE DUP1 ISZERO PUSH2 0x5BA JUMPI PUSH1 0x0 DUP1 REVERT JUMPDEST POP PUSH2 0x5D5 PUSH1 0x4 DUP1 CALLDATASIZE SUB DUP2 ADD SWAP1 PUSH2 0x5D0 SWAP2 SWAP1 PUSH2 0x46CA JUMP JUMPDEST PUSH2 0x2C40 JUMP JUMPDEST PUSH1 0x40 MLOAD PUSH2 0x5E2 SWAP2 SWAP1 PUSH2 0x457E JUMP JUMPDEST PUSH1 0x40 MLOAD DUP1 SWAP2 SUB SWAP1 RETURN JUMPDEST CALLVALUE DUP1 ISZERO PUSH2 0x5F7 JUMPI PUSH1 0x0 DUP1 REVERT JUMPDEST POP PUSH2 0x600 PUSH2 0x2C8C JUMP JUMPDEST PUSH1 0x40 MLOAD PUSH2 0x60D SWAP2 SWAP1 PUSH2 0x4815 JUMP JUMPDEST PUSH1 0x40 MLOAD DUP1 SWAP2 SUB SWAP1 RETURN JUMPDEST CALLVALUE DUP1 ISZERO PUSH2 0x622 JUMPI PUSH1 0x0 DUP1 REVERT JUMPDEST POP PUSH2 0x63D PUSH1 0x4 DUP1 CALLDATASIZE SUB DUP2 ADD SWAP1 PUSH2 0x638 SWAP2 SWAP1 PUSH2 0x3FB8 JUMP JUMPDEST PUSH2 0x2EA8 JUMP JUMPDEST STOP JUMPDEST CALLVALUE DUP1 ISZERO PUSH2 0x64B JUMPI PUSH1 0x0 DUP1 REVERT JUMPDEST POP PUSH2 0x666 PUSH1 0x4 DUP1 CALLDATASIZE SUB DUP2 ADD SWAP1 PUSH2 0x661 SWAP2 SWAP1 PUSH2 0x4EA9 JUMP JUMPDEST PUSH2 0x318C JUMP JUMPDEST STOP JUMPDEST PUSH2 0x670 PUSH2 0x360D JUMP JUMPDEST STOP JUMPDEST CALLVALUE DUP1 ISZERO PUSH2 0x67E JUMPI PUSH1 0x0 DUP1 REVERT JUMPDEST POP PUSH2 0x699 PUSH1 0x4 DUP1 CALLDATASIZE SUB DUP2 ADD SWAP1 PUSH2 0x694 SWAP2 SWAP1 PUSH2 0x46CA JUMP JUMPDEST PUSH2 0x381B JUMP JUMPDEST PUSH1 0x40 MLOAD PUSH2 0x6A9 SWAP5 SWAP4 SWAP3 SWAP2 SWAP1 PUSH2 0x4EE9 JUMP JUMPDEST PUSH1 0x40 MLOAD DUP1 SWAP2 SUB SWAP1 RETURN JUMPDEST PUSH2 0x6BA PUSH2 0x39E3 JUMP JUMPDEST STOP JUMPDEST PUSH2 0x6D6 PUSH1 0x4 DUP1 CALLDATASIZE SUB DUP2 ADD SWAP1 PUSH2 0x6D1 SWAP2 SWAP1 PUSH2 0x3FB8 JUMP JUMPDEST PUSH2 0x3AF4 JUMP JUMPDEST STOP JUMPDEST PUSH1 0x0 PUSH1 0x60 DUP1 PUSH1 0x0 DUP1 PUSH1 0x0 DUP1 PUSH1 0x0 PUSH1 0x60 DUP1 PUSH1 0x0 PUSH1 0x3 PUSH1 0x0 DUP14 DUP2 MSTORE PUSH1 0x20 ADD SWAP1 DUP2 MSTORE PUSH1 0x20 ADD PUSH1 0x0 KECCAK256 SWAP1 POP PUSH1 0x0 PUSH20 0xFFFFFFFFFFFFFFFFFFFFFFFFFFFFFFFFFFFFFFFF AND DUP2 PUSH1 0x2 ADD PUSH1 0x0 SWAP1 SLOAD SWAP1 PUSH2 0x100 EXP SWAP1 DIV PUSH20 0xFFFFFFFFFFFFFFFFFFFFFFFFFFFFFFFFFFFFFFFF AND PUSH20 0xFFFFFFFFFFFFFFFFFFFFFFFFFFFFFFFFFFFFFFFF AND SUB PUSH2 0x792 JUMPI PUSH1 0x40 MLOAD PUSH32 0x8C379A000000000000000000000000000000000000000000000000000000000 DUP2 MSTORE PUSH1 0x4 ADD PUSH2 0x789 SWAP1 PUSH2 0x4F8F JUMP JUMPDEST PUSH1 0x40 MLOAD DUP1 SWAP2 SUB SWAP1 REVERT JUMPDEST DUP1 PUSH1 0x2 ADD PUSH1 0x0 SWAP1 SLOAD SWAP1 PUSH2 0x100 EXP SWAP1 DIV PUSH20 0xFFFFFFFFFFFFFFFFFFFFFFFFFFFFFFFFFFFFFFFF AND DUP2 PUSH1 0x3 ADD DUP3 PUSH1 0x4 ADD DUP4 PUSH1 0x5 ADD SLOAD DUP5 PUSH1 0x6 ADD SLOAD DUP6 PUSH1 0x7 ADD SLOAD DUP7 PUSH1 0x8 ADD SLOAD DUP8 PUSH1 0xA ADD SLOAD DUP9 PUSH1 0x0 ADD DUP10 PUSH1 0x1 ADD DUP9 DUP1 SLOAD DUP1 PUSH1 0x20 MUL PUSH1 0x20 ADD PUSH1 0x40 MLOAD SWAP1 DUP2 ADD PUSH1 0x40 MSTORE DUP1 SWAP3 SWAP2 SWAP1 DUP2 DUP2 MSTORE PUSH1 0x20 ADD PUSH1 0x0 SWAP1 JUMPDEST DUP3 DUP3 LT ISZERO PUSH2 0x8AD JUMPI DUP4 DUP3 SWAP1 PUSH1 0x0 MSTORE PUSH1 0x20 PUSH1 0x0 KECCAK256 ADD DUP1 SLOAD PUSH2 0x820 SWAP1 PUSH2 0x4FDE JUMP JUMPDEST DUP1 PUSH1 0x1F ADD PUSH1 0x20 DUP1 SWAP2 DIV MUL PUSH1 0x20 ADD PUSH1 0x40 MLOAD SWAP1 DUP2 ADD PUSH1 0x40 MSTORE DUP1 SWAP3 SWAP2 SWAP1 DUP2 DUP2 MSTORE PUSH1 0x20 ADD DUP3 DUP1 SLOAD PUSH2 0x84C SWAP1 PUSH2 0x4FDE JUMP JUMPDEST DUP1 ISZERO PUSH2 0x899 JUMPI DUP1 PUSH1 0x1F LT PUSH2 0x86E JUMPI PUSH2 0x100 DUP1 DUP4 SLOAD DIV MUL DUP4 MSTORE SWAP2 PUSH1 0x20 ADD SWAP2 PUSH2 0x899 JUMP JUMPDEST DUP3 ADD SWAP2 SWAP1 PUSH1 0x0 MSTORE PUSH1 0x20 PUSH1 0x0 KECCAK256 SWAP1 JUMPDEST DUP2 SLOAD DUP2 MSTORE SWAP1 PUSH1 0x1 ADD SWAP1 PUSH1 0x20 ADD DUP1 DUP4 GT PUSH2 0x87C JUMPI DUP3 SWAP1 SUB PUSH1 0x1F AND DUP3 ADD SWAP2 JUMPDEST POP POP POP POP POP DUP2 MSTORE PUSH1 0x20 ADD SWAP1 PUSH1 0x1 ADD SWAP1 PUSH2 0x801 JUMP JUMPDEST POP POP POP POP SWAP9 POP DUP8 DUP1 SLOAD PUSH2 0x8BF SWAP1 PUSH2 0x4FDE JUMP JUMPDEST DUP1 PUSH1 0x1F ADD PUSH1 0x20 DUP1 SWAP2 DIV MUL PUSH1 0x20 ADD PUSH1 0x40 MLOAD SWAP1 DUP2 ADD PUSH1 0x40 MSTORE DUP1 SWAP3 SWAP2 SWAP1 DUP2 DUP2 MSTORE PUSH1 0x20 ADD DUP3 DUP1 SLOAD PUSH2 0x8EB SWAP1 PUSH2 0x4FDE JUMP JUMPDEST DUP1 ISZERO PUSH2 0x938 JUMPI DUP1 PUSH1 0x1F LT PUSH2 0x90D JUMPI PUSH2 0x100 DUP1 DUP4 SLOAD DIV MUL DUP4 MSTORE SWAP2 PUSH1 0x20 ADD SWAP2 PUSH2 0x938 JUMP JUMPDEST DUP3 ADD SWAP2 SWAP1 PUSH1 0x0 MSTORE PUSH1 0x20 PUSH1 0x0 KECCAK256 SWAP1 JUMPDEST DUP2 SLOAD DUP2 MSTORE SWAP1 PUSH1 0x1 ADD SWAP1 PUSH1 0x20 ADD DUP1 DUP4 GT PUSH2 0x91B JUMPI DUP3 SWAP1 SUB PUSH1 0x1F AND DUP3 ADD SWAP2 JUMPDEST POP POP POP POP POP SWAP8 POP DUP2 DUP1 SLOAD PUSH2 0x94B SWAP1 PUSH2 0x4FDE JUMP JUMPDEST DUP1 PUSH1 0x1F ADD PUSH1 0x20 DUP1 SWAP2 DIV MUL PUSH1 0x20 ADD PUSH1 0x40 MLOAD SWAP1 DUP2 ADD PUSH1 0x40 MSTORE DUP1 SWAP3 SWAP2 SWAP1 DUP2 DUP2 MSTORE PUSH1 0x20 ADD DUP3 DUP1 SLOAD PUSH2 0x977 SWAP1 PUSH2 0x4FDE JUMP JUMPDEST DUP1 ISZERO PUSH2 0x9C4 JUMPI DUP1 PUSH1 0x1F LT PUSH2 0x999 JUMPI PUSH2 0x100 DUP1 DUP4 SLOAD DIV MUL DUP4 MSTORE SWAP2 PUSH1 0x20 ADD SWAP2 PUSH2 0x9C4 JUMP JUMPDEST DUP3 ADD SWAP2 SWAP1 PUSH1 0x0 MSTORE PUSH1 0x20 PUSH1 0x0 KECCAK256 SWAP1 JUMPDEST DUP2 SLOAD DUP2 MSTORE SWAP1 PUSH1 0x1 ADD SWAP1 PUSH1 0x20 ADD DUP1 DUP4 GT PUSH2 0x9A7 JUMPI DUP3 SWAP1 SUB PUSH1 0x1F AND DUP3 ADD SWAP2 JUMPDEST POP POP POP POP POP SWAP2 POP DUP1 DUP1 SLOAD PUSH2 0x9D7 SWAP1 PUSH2 0x4FDE JUMP JUMPDEST DUP1 PUSH1 0x1F ADD PUSH1 0x20 DUP1 SWAP2 DIV MUL PUSH1 0x20 ADD PUSH1 0x40 MLOAD SWAP1 DUP2 ADD PUSH1 0x40 MSTORE DUP1 SWAP3 SWAP2 SWAP1 DUP2 DUP2 MSTORE PUSH1 0x20 ADD DUP3 DUP1 SLOAD PUSH2 0xA03 SWAP1 PUSH2 0x4FDE JUMP JUMPDEST DUP1 ISZERO PUSH2 0xA50 JUMPI DUP1 PUSH1 0x1F LT PUSH2 0xA25 JUMPI PUSH2 0x100 DUP1 DUP4 SLOAD DIV MUL DUP4 MSTORE SWAP2 PUSH1 0x20 ADD SWAP2 PUSH2 0xA50 JUMP JUMPDEST DUP3 ADD SWAP2 SWAP1 PUSH1 0x0 MSTORE PUSH1 0x20 PUSH1 0x0 KECCAK256 SWAP1 JUMPDEST DUP2 SLOAD DUP2 MSTORE SWAP1 PUSH1 0x1 ADD SWAP1 PUSH1 0x20 ADD DUP1 DUP4 GT PUSH2 0xA33 JUMPI DUP3 SWAP1 SUB PUSH1 0x1F AND DUP3 ADD SWAP2 JUMPDEST POP POP POP POP POP SWAP1 POP SWAP11 POP SWAP11 POP SWAP11 POP SWAP11 POP SWAP11 POP SWAP11 POP SWAP11 POP SWAP11 POP SWAP11 POP SWAP11 POP POP SWAP2 SWAP4 SWAP6 SWAP8 SWAP10 POP SWAP2 SWAP4 SWAP6 SWAP8 SWAP10 JUMP JUMPDEST PUSH1 0x4 PUSH1 0x20 MSTORE DUP2 PUSH1 0x0 MSTORE PUSH1 0x40 PUSH1 0x0 KECCAK256 DUP2 DUP2 SLOAD DUP2 LT PUSH2 0xA95 JUMPI PUSH1 0x0 DUP1 REVERT JUMPDEST SWAP1 PUSH1 0x0 MSTORE PUSH1 0x20 PUSH1 0x0 KECCAK256 SWAP1 PUSH1 0x3 MUL ADD PUSH1 0x0 SWAP2 POP SWAP2 POP POP DUP1 PUSH1 0x0 ADD PUSH1 0x0 SWAP1 SLOAD SWAP1 PUSH2 0x100 EXP SWAP1 DIV PUSH20 0xFFFFFFFFFFFFFFFFFFFFFFFFFFFFFFFFFFFFFFFF AND SWAP1 DUP1 PUSH1 0x1 ADD SLOAD SWAP1 DUP1 PUSH1 0x2 ADD SLOAD SWAP1 POP DUP4 JUMP JUMPDEST PUSH1 0x0 PUSH1 0x2 PUSH1 0x0 DUP5 PUSH20 0xFFFFFFFFFFFFFFFFFFFFFFFFFFFFFFFFFFFFFFFF AND PUSH20 0xFFFFFFFFFFFFFFFFFFFFFFFFFFFFFFFFFFFFFFFF AND DUP2 MSTORE PUSH1 0x20 ADD SWAP1 DUP2 MSTORE PUSH1 0x20 ADD PUSH1 0x0 KECCAK256 PUSH1 0x1 ADD PUSH1 0x0 DUP4 DUP2 MSTORE PUSH1 0x20 ADD SWAP1 DUP2 MSTORE PUSH1 0x20 ADD PUSH1 0x0 KECCAK256 PUSH1 0x0 SWAP1 SLOAD SWAP1 PUSH2 0x100 EXP SWAP1 DIV PUSH1 0xFF AND SWAP1 POP SWAP3 SWAP2 POP POP JUMP JUMPDEST PUSH1 0x0 PUSH1 0x3 PUSH1 0x0 DUP4 DUP2 MSTORE PUSH1 0x20 ADD SWAP1 DUP2 MSTORE PUSH1 0x20 ADD PUSH1 0x0 KECCAK256 SWAP1 POP PUSH1 0x0 PUSH20 0xFFFFFFFFFFFFFFFFFFFFFFFFFFFFFFFFFFFFFFFF AND DUP2 PUSH1 0x2 ADD PUSH1 0x0 SWAP1 SLOAD SWAP1 PUSH2 0x100 EXP SWAP1 DIV PUSH20 0xFFFFFFFFFFFFFFFFFFFFFFFFFFFFFFFFFFFFFFFF AND PUSH20 0xFFFFFFFFFFFFFFFFFFFFFFFFFFFFFFFFFFFFFFFF AND SUB PUSH2 0xBF5 JUMPI PUSH1 0x40 MLOAD PUSH32 0x8C379A000000000000000000000000000000000000000000000000000000000 DUP2 MSTORE PUSH1 0x4 ADD PUSH2 0xBEC SWAP1 PUSH2 0x4F8F JUMP JUMPDEST PUSH1 0x40 MLOAD DUP1 SWAP2 SUB SWAP1 REVERT JUMPDEST PUSH1 0x40 MLOAD DUP1 PUSH1 0x40 ADD PUSH1 0x40 MSTORE DUP1 PUSH1 0x7 DUP2 MSTORE PUSH1 0x20 ADD PUSH32 0x70656E64696E6700000000000000000000000000000000000000000000000000 DUP2 MSTORE POP DUP1 MLOAD SWAP1 PUSH1 0x20 ADD KECCAK256 DUP2 PUSH1 0x4 ADD PUSH1 0x40 MLOAD PUSH2 0xC43 SWAP2 SWAP1 PUSH2 0x50B2 JUMP JUMPDEST PUSH1 0x40 MLOAD DUP1 SWAP2 SUB SWAP1 KECCAK256 EQ PUSH2 0xC8B JUMPI PUSH1 0x40 MLOAD PUSH32 0x8C379A000000000000000000000000000000000000000000000000000000000 DUP2 MSTORE PUSH1 0x4 ADD PUSH2 0xC82 SWAP1 PUSH2 0x5115 JUMP JUMPDEST PUSH1 0x40 MLOAD DUP1 SWAP2 SUB SWAP1 REVERT JUMPDEST PUSH3 0x93A80 DUP2 PUSH1 0x8 ADD SLOAD PUSH2 0xC9E SWAP2 SWAP1 PUSH2 0x5164 JUMP JUMPDEST TIMESTAMP GT PUSH2 0xCDF JUMPI PUSH1 0x40 MLOAD PUSH32 0x8C379A000000000000000000000000000000000000000000000000000000000 DUP2 MSTORE PUSH1 0x4 ADD PUSH2 0xCD6 SWAP1 PUSH2 0x51E4 JUMP JUMPDEST PUSH1 0x40 MLOAD DUP1 SWAP2 SUB SWAP1 REVERT JUMPDEST PUSH1 0x0 DUP1 DUP3 PUSH1 0xA ADD SLOAD GT PUSH2 0xCF3 JUMPI PUSH1 0x0 PUSH2 0xD11 JUMP JUMPDEST PUSH1 0x64 PUSH1 0x5 DUP4 PUSH1 0x7 ADD SLOAD PUSH2 0xD06 SWAP2 SWAP1 PUSH2 0x5204 JUMP JUMPDEST PUSH2 0xD10 SWAP2 SWAP1 PUSH2 0x5275 JUMP JUMPDEST JUMPDEST SWAP1 POP PUSH1 0x0 DUP2 DUP4 PUSH1 0x7 ADD SLOAD PUSH2 0xD25 SWAP2 SWAP1 PUSH2 0x52A6 JUMP JUMPDEST SWAP1 POP PUSH1 0x0 DUP4 PUSH1 0x6 ADD SLOAD DUP5 PUSH1 0x5 ADD SLOAD PUSH2 0xD3D SWAP2 SWAP1 PUSH2 0x5164 JUMP JUMPDEST SWAP1 POP PUSH1 0x0 DUP2 GT DUP1 ISZERO PUSH2 0xD6B JUMPI POP PUSH1 0x32 DUP2 PUSH1 0x64 DUP7 PUSH1 0x5 ADD SLOAD PUSH2 0xD5E SWAP2 SWAP1 PUSH2 0x5204 JUMP JUMPDEST PUSH2 0xD68 SWAP2 SWAP1 PUSH2 0x5275 JUMP JUMPDEST LT ISZERO JUMPDEST ISZERO PUSH2 0xE8D JUMPI PUSH1 0x40 MLOAD DUP1 PUSH1 0x40 ADD PUSH1 0x40 MSTORE DUP1 PUSH1 0x8 DUP2 MSTORE PUSH1 0x20 ADD PUSH32 0x617070726F766564000000000000000000000000000000000000000000000000 DUP2 MSTORE POP DUP5 PUSH1 0x4 ADD SWAP1 DUP2 PUSH2 0xDB6 SWAP2 SWAP1 PUSH2 0x5486 JUMP JUMPDEST POP PUSH1 0x0 DUP5 PUSH1 0x2 ADD PUSH1 0x0 SWAP1 SLOAD SWAP1 PUSH2 0x100 EXP SWAP1 DIV PUSH20 0xFFFFFFFFFFFFFFFFFFFFFFFFFFFFFFFFFFFFFFFF AND PUSH20 0xFFFFFFFFFFFFFFFFFFFFFFFFFFFFFFFFFFFFFFFF AND DUP4 PUSH1 0x40 MLOAD PUSH2 0xE01 SWAP1 PUSH2 0x557E JUMP JUMPDEST PUSH1 0x0 PUSH1 0x40 MLOAD DUP1 DUP4 SUB DUP2 DUP6 DUP8 GAS CALL SWAP3 POP POP POP RETURNDATASIZE DUP1 PUSH1 0x0 DUP2 EQ PUSH2 0xE3E JUMPI PUSH1 0x40 MLOAD SWAP2 POP PUSH1 0x1F NOT PUSH1 0x3F RETURNDATASIZE ADD AND DUP3 ADD PUSH1 0x40 MSTORE RETURNDATASIZE DUP3 MSTORE RETURNDATASIZE PUSH1 0x0 PUSH1 0x20 DUP5 ADD RETURNDATACOPY PUSH2 0xE43 JUMP JUMPDEST PUSH1 0x60 SWAP2 POP JUMPDEST POP POP SWAP1 POP DUP1 PUSH2 0xE87 JUMPI PUSH1 0x40 MLOAD PUSH32 0x8C379A000000000000000000000000000000000000000000000000000000000 DUP2 MSTORE PUSH1 0x4 ADD PUSH2 0xE7E SWAP1 PUSH2 0x55DF JUMP JUMPDEST PUSH1 0x40 MLOAD DUP1 SWAP2 SUB SWAP1 REVERT JUMPDEST POP PUSH2 0x10F7 JUMP JUMPDEST PUSH1 0x40 MLOAD DUP1 PUSH1 0x40 ADD PUSH1 0x40 MSTORE DUP1 PUSH1 0x8 DUP2 MSTORE PUSH1 0x20 ADD PUSH32 0x72656A6563746564000000000000000000000000000000000000000000000000 DUP2 MSTORE POP DUP5 PUSH1 0x4 ADD SWAP1 DUP2 PUSH2 0xED3 SWAP2 SWAP1 PUSH2 0x5486 JUMP JUMPDEST POP PUSH1 0x0 DUP1 JUMPDEST PUSH1 0x4 PUSH1 0x0 DUP9 DUP2 MSTORE PUSH1 0x20 ADD SWAP1 DUP2 MSTORE PUSH1 0x20 ADD PUSH1 0x0 KECCAK256 DUP1 SLOAD SWAP1 POP DUP2 LT ISZERO PUSH2 0xF47 JUMPI PUSH1 0x4 PUSH1 0x0 DUP9 DUP2 MSTORE PUSH1 0x20 ADD SWAP1 DUP2 MSTORE PUSH1 0x20 ADD PUSH1 0x0 KECCAK256 DUP2 DUP2 SLOAD DUP2 LT PUSH2 0xF1B JUMPI PUSH2 0xF1A PUSH2 0x55FF JUMP JUMPDEST JUMPDEST SWAP1 PUSH1 0x0 MSTORE PUSH1 0x20 PUSH1 0x0 KECCAK256 SWAP1 PUSH1 0x3 MUL ADD PUSH1 0x1 ADD SLOAD DUP3 PUSH2 0xF38 SWAP2 SWAP1 PUSH2 0x5164 JUMP JUMPDEST SWAP2 POP DUP1 DUP1 PUSH1 0x1 ADD SWAP2 POP POP PUSH2 0xED8 JUMP JUMPDEST POP PUSH1 0x0 JUMPDEST PUSH1 0x4 PUSH1 0x0 DUP9 DUP2 MSTORE PUSH1 0x20 ADD SWAP1 DUP2 MSTORE PUSH1 0x20 ADD PUSH1 0x0 KECCAK256 DUP1 SLOAD SWAP1 POP DUP2 LT ISZERO PUSH2 0x10F4 JUMPI PUSH1 0x0 PUSH1 0x4 PUSH1 0x0 DUP10 DUP2 MSTORE PUSH1 0x20 ADD SWAP1 DUP2 MSTORE PUSH1 0x20 ADD PUSH1 0x0 KECCAK256 DUP3 DUP2 SLOAD DUP2 LT PUSH2 0xF90 JUMPI PUSH2 0xF8F PUSH2 0x55FF JUMP JUMPDEST JUMPDEST SWAP1 PUSH1 0x0 MSTORE PUSH1 0x20 PUSH1 0x0 KECCAK256 SWAP1 PUSH1 0x3 MUL ADD PUSH1 0x40 MLOAD DUP1 PUSH1 0x60 ADD PUSH1 0x40 MSTORE SWAP1 DUP2 PUSH1 0x0 DUP3 ADD PUSH1 0x0 SWAP1 SLOAD SWAP1 PUSH2 0x100 EXP SWAP1 DIV PUSH20 0xFFFFFFFFFFFFFFFFFFFFFFFFFFFFFFFFFFFFFFFF AND PUSH20 0xFFFFFFFFFFFFFFFFFFFFFFFFFFFFFFFFFFFFFFFF AND PUSH20 0xFFFFFFFFFFFFFFFFFFFFFFFFFFFFFFFFFFFFFFFF AND DUP2 MSTORE PUSH1 0x20 ADD PUSH1 0x1 DUP3 ADD SLOAD DUP2 MSTORE PUSH1 0x20 ADD PUSH1 0x2 DUP3 ADD SLOAD DUP2 MSTORE POP POP SWAP1 POP PUSH1 0x0 DUP4 DUP7 DUP4 PUSH1 0x20 ADD MLOAD PUSH2 0x1028 SWAP2 SWAP1 PUSH2 0x5204 JUMP JUMPDEST PUSH2 0x1032 SWAP2 SWAP1 PUSH2 0x5275 JUMP JUMPDEST SWAP1 POP PUSH1 0x0 DUP3 PUSH1 0x0 ADD MLOAD PUSH20 0xFFFFFFFFFFFFFFFFFFFFFFFFFFFFFFFFFFFFFFFF AND DUP3 PUSH1 0x40 MLOAD PUSH2 0x105E SWAP1 PUSH2 0x557E JUMP JUMPDEST PUSH1 0x0 PUSH1 0x40 MLOAD DUP1 DUP4 SUB DUP2 DUP6 DUP8 GAS CALL SWAP3 POP POP POP RETURNDATASIZE DUP1 PUSH1 0x0 DUP2 EQ PUSH2 0x109B JUMPI PUSH1 0x40 MLOAD SWAP2 POP PUSH1 0x1F NOT PUSH1 0x3F RETURNDATASIZE ADD AND DUP3 ADD PUSH1 0x40 MSTORE RETURNDATASIZE DUP3 MSTORE RETURNDATASIZE PUSH1 0x0 PUSH1 0x20 DUP5 ADD RETURNDATACOPY PUSH2 0x10A0 JUMP JUMPDEST PUSH1 0x60 SWAP2 POP JUMPDEST POP POP SWAP1 POP DUP1 PUSH2 0x10E4 JUMPI PUSH1 0x40 MLOAD PUSH32 0x8C379A000000000000000000000000000000000000000000000000000000000 DUP2 MSTORE PUSH1 0x4 ADD PUSH2 0x10DB SWAP1 PUSH2 0x567A JUMP JUMPDEST PUSH1 0x40 MLOAD DUP1 SWAP2 SUB SWAP1 REVERT JUMPDEST POP POP POP DUP1 DUP1 PUSH1 0x1 ADD SWAP2 POP POP PUSH2 0xF4B JUMP JUMPDEST POP POP JUMPDEST PUSH32 0x622E8AEA88C24B5860EE5C8B8FBF8E18B632E7A412ED546C499DED2088E187AD DUP6 DUP6 PUSH1 0x4 ADD PUSH1 0x40 MLOAD PUSH2 0x112B SWAP3 SWAP2 SWAP1 PUSH2 0x571E JUMP JUMPDEST PUSH1 0x40 MLOAD DUP1 SWAP2 SUB SWAP1 LOG1 POP POP POP POP POP JUMP JUMPDEST PUSH7 0x2386F26FC10000 CALLVALUE GT PUSH2 0x1183 JUMPI PUSH1 0x40 MLOAD PUSH32 0x8C379A000000000000000000000000000000000000000000000000000000000 DUP2 MSTORE PUSH1 0x4 ADD PUSH2 0x117A SWAP1 PUSH2 0x579A JUMP JUMPDEST PUSH1 0x40 MLOAD DUP1 SWAP2 SUB SWAP1 REVERT JUMPDEST PUSH1 0x0 PUSH1 0x1 PUSH1 0x0 CALLER PUSH20 0xFFFFFFFFFFFFFFFFFFFFFFFFFFFFFFFFFFFFFFFF AND PUSH20 0xFFFFFFFFFFFFFFFFFFFFFFFFFFFFFFFFFFFFFFFF AND DUP2 MSTORE PUSH1 0x20 ADD SWAP1 DUP2 MSTORE PUSH1 0x20 ADD PUSH1 0x0 KECCAK256 PUSH1 0x2 ADD SLOAD EQ PUSH2 0x1208 JUMPI PUSH1 0x40 MLOAD PUSH32 0x8C379A000000000000000000000000000000000000000000000000000000000 DUP2 MSTORE PUSH1 0x4 ADD PUSH2 0x11FF SWAP1 PUSH2 0x5806 JUMP JUMPDEST PUSH1 0x40 MLOAD DUP1 SWAP2 SUB SWAP1 REVERT JUMPDEST PUSH1 0x40 MLOAD DUP1 PUSH1 0xA0 ADD PUSH1 0x40 MSTORE DUP1 DUP5 DUP2 MSTORE PUSH1 0x20 ADD DUP4 DUP2 MSTORE PUSH1 0x20 ADD CALLVALUE DUP2 MSTORE PUSH1 0x20 ADD DUP3 DUP2 MSTORE PUSH1 0x20 ADD PUSH1 0x0 PUSH8 0xFFFFFFFFFFFFFFFF DUP2 GT ISZERO PUSH2 0x1246 JUMPI PUSH2 0x1245 PUSH2 0x43AC JUMP JUMPDEST JUMPDEST PUSH1 0x40 MLOAD SWAP1 DUP1 DUP3 MSTORE DUP1 PUSH1 0x20 MUL PUSH1 0x20 ADD DUP3 ADD PUSH1 0x40 MSTORE DUP1 ISZERO PUSH2 0x1274 JUMPI DUP2 PUSH1 0x20 ADD PUSH1 0x20 DUP3 MUL DUP1 CALLDATASIZE DUP4 CALLDATACOPY DUP1 DUP3 ADD SWAP2 POP POP SWAP1 POP JUMPDEST POP DUP2 MSTORE POP PUSH1 0x1 PUSH1 0x0 CALLER PUSH20 0xFFFFFFFFFFFFFFFFFFFFFFFFFFFFFFFFFFFFFFFF AND PUSH20 0xFFFFFFFFFFFFFFFFFFFFFFFFFFFFFFFFFFFFFFFF AND DUP2 MSTORE PUSH1 0x20 ADD SWAP1 DUP2 MSTORE PUSH1 0x20 ADD PUSH1 0x0 KECCAK256 PUSH1 0x0 DUP3 ADD MLOAD DUP2 PUSH1 0x0 ADD SWAP1 DUP2 PUSH2 0x12CC SWAP2 SWAP1 PUSH2 0x5486 JUMP JUMPDEST POP PUSH1 0x20 DUP3 ADD MLOAD DUP2 PUSH1 0x1 ADD SWAP1 DUP2 PUSH2 0x12E2 SWAP2 SWAP1 PUSH2 0x5486 JUMP JUMPDEST POP PUSH1 0x40 DUP3 ADD MLOAD DUP2 PUSH1 0x2 ADD SSTORE PUSH1 0x60 DUP3 ADD MLOAD DUP2 PUSH1 0x3 ADD SWAP1 DUP2 PUSH2 0x1302 SWAP2 SWAP1 PUSH2 0x5486 JUMP JUMPDEST POP PUSH1 0x80 DUP3 ADD MLOAD DUP2 PUSH1 0x4 ADD SWAP1 DUP1 MLOAD SWAP1 PUSH1 0x20 ADD SWAP1 PUSH2 0x131F SWAP3 SWAP2 SWAP1 PUSH2 0x3DDD JUMP JUMPDEST POP SWAP1 POP POP PUSH1 0x6 CALLER SWAP1 DUP1 PUSH1 0x1 DUP2 SLOAD ADD DUP1 DUP3 SSTORE DUP1 SWAP2 POP POP PUSH1 0x1 SWAP1 SUB SWAP1 PUSH1 0x0 MSTORE PUSH1 0x20 PUSH1 0x0 KECCAK256 ADD PUSH1 0x0 SWAP1 SWAP2 SWAP1 SWAP2 SWAP1 SWAP2 PUSH2 0x100 EXP DUP2 SLOAD DUP2 PUSH20 0xFFFFFFFFFFFFFFFFFFFFFFFFFFFFFFFFFFFFFFFF MUL NOT AND SWAP1 DUP4 PUSH20 0xFFFFFFFFFFFFFFFFFFFFFFFFFFFFFFFFFFFFFFFF AND MUL OR SWAP1 SSTORE POP POP POP POP JUMP JUMPDEST PUSH1 0x5 SLOAD DUP2 JUMP JUMPDEST PUSH1 0x60 PUSH1 0x4 PUSH1 0x0 DUP4 DUP2 MSTORE PUSH1 0x20 ADD SWAP1 DUP2 MSTORE PUSH1 0x20 ADD PUSH1 0x0 KECCAK256 DUP1 SLOAD DUP1 PUSH1 0x20 MUL PUSH1 0x20 ADD PUSH1 0x40 MLOAD SWAP1 DUP2 ADD PUSH1 0x40 MSTORE DUP1 SWAP3 SWAP2 SWAP1 DUP2 DUP2 MSTORE PUSH1 0x20 ADD PUSH1 0x0 SWAP1 JUMPDEST DUP3 DUP3 LT ISZERO PUSH2 0x1462 JUMPI DUP4 DUP3 SWAP1 PUSH1 0x0 MSTORE PUSH1 0x20 PUSH1 0x0 KECCAK256 SWAP1 PUSH1 0x3 MUL ADD PUSH1 0x40 MLOAD DUP1 PUSH1 0x60 ADD PUSH1 0x40 MSTORE SWAP1 DUP2 PUSH1 0x0 DUP3 ADD PUSH1 0x0 SWAP1 SLOAD SWAP1 PUSH2 0x100 EXP SWAP1 DIV PUSH20 0xFFFFFFFFFFFFFFFFFFFFFFFFFFFFFFFFFFFFFFFF AND PUSH20 0xFFFFFFFFFFFFFFFFFFFFFFFFFFFFFFFFFFFFFFFF AND PUSH20 0xFFFFFFFFFFFFFFFFFFFFFFFFFFFFFFFFFFFFFFFF AND DUP2 MSTORE PUSH1 0x20 ADD PUSH1 0x1 DUP3 ADD SLOAD DUP2 MSTORE PUSH1 0x20 ADD PUSH1 0x2 DUP3 ADD SLOAD DUP2 MSTORE POP POP DUP2 MSTORE PUSH1 0x20 ADD SWAP1 PUSH1 0x1 ADD SWAP1 PUSH2 0x13C6 JUMP JUMPDEST POP POP POP POP SWAP1 POP SWAP2 SWAP1 POP JUMP JUMPDEST PUSH1 0x60 DUP1 PUSH1 0x0 PUSH1 0x60 DUP1 PUSH1 0x0 PUSH1 0x1 PUSH1 0x0 DUP9 PUSH20 0xFFFFFFFFFFFFFFFFFFFFFFFFFFFFFFFFFFFFFFFF AND PUSH20 0xFFFFFFFFFFFFFFFFFFFFFFFFFFFFFFFFFFFFFFFF AND DUP2 MSTORE PUSH1 0x20 ADD SWAP1 DUP2 MSTORE PUSH1 0x20 ADD PUSH1 0x0 KECCAK256 SWAP1 POP PUSH1 0x0 DUP2 PUSH1 0x2 ADD SLOAD GT PUSH2 0x14FF JUMPI PUSH1 0x40 MLOAD PUSH32 0x8C379A000000000000000000000000000000000000000000000000000000000 DUP2 MSTORE PUSH1 0x4 ADD PUSH2 0x14F6 SWAP1 PUSH2 0x5872 JUMP JUMPDEST PUSH1 0x40 MLOAD DUP1 SWAP2 SUB SWAP1 REVERT JUMPDEST DUP1 PUSH1 0x0 ADD DUP2 PUSH1 0x1 ADD DUP3 PUSH1 0x2 ADD SLOAD DUP4 PUSH1 0x4 ADD DUP5 PUSH1 0x3 ADD DUP5 DUP1 SLOAD PUSH2 0x1520 SWAP1 PUSH2 0x4FDE JUMP JUMPDEST DUP1 PUSH1 0x1F ADD PUSH1 0x20 DUP1 SWAP2 DIV MUL PUSH1 0x20 ADD PUSH1 0x40 MLOAD SWAP1 DUP2 ADD PUSH1 0x40 MSTORE DUP1 SWAP3 SWAP2 SWAP1 DUP2 DUP2 MSTORE PUSH1 0x20 ADD DUP3 DUP1 SLOAD PUSH2 0x154C SWAP1 PUSH2 0x4FDE JUMP JUMPDEST DUP1 ISZERO PUSH2 0x1599 JUMPI DUP1 PUSH1 0x1F LT PUSH2 0x156E JUMPI PUSH2 0x100 DUP1 DUP4 SLOAD DIV MUL DUP4 MSTORE SWAP2 PUSH1 0x20 ADD SWAP2 PUSH2 0x1599 JUMP JUMPDEST DUP3 ADD SWAP2 SWAP1 PUSH1 0x0 MSTORE PUSH1 0x20 PUSH1 0x0 KECCAK256 SWAP1 JUMPDEST DUP2 SLOAD DUP2 MSTORE SWAP1 PUSH1 0x1 ADD SWAP1 PUSH1 0x20 ADD DUP1 DUP4 GT PUSH2 0x157C JUMPI DUP3 SWAP1 SUB PUSH1 0x1F AND DUP3 ADD SWAP2 JUMPDEST POP POP POP POP POP SWAP5 POP DUP4 DUP1 SLOAD PUSH2 0x15AC SWAP1 PUSH2 0x4FDE JUMP JUMPDEST DUP1 PUSH1 0x1F ADD PUSH1 0x20 DUP1 SWAP2 DIV MUL PUSH1 0x20 ADD PUSH1 0x40 MLOAD SWAP1 DUP2 ADD PUSH1 0x40 MSTORE DUP1 SWAP3 SWAP2 SWAP1 DUP2 DUP2 MSTORE PUSH1 0x20 ADD DUP3 DUP1 SLOAD PUSH2 0x15D8 SWAP1 PUSH2 0x4FDE JUMP JUMPDEST DUP1 ISZERO PUSH2 0x1625 JUMPI DUP1 PUSH1 0x1F LT PUSH2 0x15FA JUMPI PUSH2 0x100 DUP1 DUP4 SLOAD DIV MUL DUP4 MSTORE SWAP2 PUSH1 0x20 ADD SWAP2 PUSH2 0x1625 JUMP JUMPDEST DUP3 ADD SWAP2 SWAP1 PUSH1 0x0 MSTORE PUSH1 0x20 PUSH1 0x0 KECCAK256 SWAP1 JUMPDEST DUP2 SLOAD DUP2 MSTORE SWAP1 PUSH1 0x1 ADD SWAP1 PUSH1 0x20 ADD DUP1 DUP4 GT PUSH2 0x1608 JUMPI DUP3 SWAP1 SUB PUSH1 0x1F AND DUP3 ADD SWAP2 JUMPDEST POP POP POP POP POP SWAP4 POP DUP2 DUP1 SLOAD DUP1 PUSH1 0x20 MUL PUSH1 0x20 ADD PUSH1 0x40 MLOAD SWAP1 DUP2 ADD PUSH1 0x40 MSTORE DUP1 SWAP3 SWAP2 SWAP1 DUP2 DUP2 MSTORE PUSH1 0x20 ADD DUP3 DUP1 SLOAD DUP1 ISZERO PUSH2 0x1677 JUMPI PUSH1 0x20 MUL DUP3 ADD SWAP2 SWAP1 PUSH1 0x0 MSTORE PUSH1 0x20 PUSH1 0x0 KECCAK256 SWAP1 JUMPDEST DUP2 SLOAD DUP2 MSTORE PUSH1 0x20 ADD SWAP1 PUSH1 0x1 ADD SWAP1 DUP1 DUP4 GT PUSH2 0x1663 JUMPI JUMPDEST POP POP POP POP POP SWAP2 POP DUP1 DUP1 SLOAD PUSH2 0x168A SWAP1 PUSH2 0x4FDE JUMP JUMPDEST DUP1 PUSH1 0x1F ADD PUSH1 0x20 DUP1 SWAP2 DIV MUL PUSH1 0x20 ADD PUSH1 0x40 MLOAD SWAP1 DUP2 ADD PUSH1 0x40 MSTORE DUP1 SWAP3 SWAP2 SWAP1 DUP2 DUP2 MSTORE PUSH1 0x20 ADD DUP3 DUP1 SLOAD PUSH2 0x16B6 SWAP1 PUSH2 0x4FDE JUMP JUMPDEST DUP1 ISZERO PUSH2 0x1703 JUMPI DUP1 PUSH1 0x1F LT PUSH2 0x16D8 JUMPI PUSH2 0x100 DUP1 DUP4 SLOAD DIV MUL DUP4 MSTORE SWAP2 PUSH1 0x20 ADD SWAP2 PUSH2 0x1703 JUMP JUMPDEST DUP3 ADD SWAP2 SWAP1 PUSH1 0x0 MSTORE PUSH1 0x20 PUSH1 0x0 KECCAK256 SWAP1 JUMPDEST DUP2 SLOAD DUP2 MSTORE SWAP1 PUSH1 0x1 ADD SWAP1 PUSH1 0x20 ADD DUP1 DUP4 GT PUSH2 0x16E6 JUMPI DUP3 SWAP1 SUB PUSH1 0x1F AND DUP3 ADD SWAP2 JUMPDEST POP POP POP POP POP SWAP1 POP SWAP6 POP SWAP6 POP SWAP6 POP SWAP6 POP SWAP6 POP POP SWAP2 SWAP4 SWAP6 SWAP1 SWAP3 SWAP5 POP JUMP JUMPDEST PUSH1 0x60 PUSH1 0x0 PUSH1 0x5 SLOAD PUSH8 0xFFFFFFFFFFFFFFFF DUP2 GT ISZERO PUSH2 0x173E JUMPI PUSH2 0x173D PUSH2 0x43AC JUMP JUMPDEST JUMPDEST PUSH1 0x40 MLOAD SWAP1 DUP1 DUP3 MSTORE DUP1 PUSH1 0x20 MUL PUSH1 0x20 ADD DUP3 ADD PUSH1 0x40 MSTORE DUP1 ISZERO PUSH2 0x176C JUMPI DUP2 PUSH1 0x20 ADD PUSH1 0x20 DUP3 MUL DUP1 CALLDATASIZE DUP4 CALLDATACOPY DUP1 DUP3 ADD SWAP2 POP POP SWAP1 POP JUMPDEST POP SWAP1 POP PUSH1 0x0 PUSH1 0x1 SWAP1 POP JUMPDEST PUSH1 0x5 SLOAD DUP2 GT PUSH2 0x17BE JUMPI DUP1 DUP3 PUSH1 0x1 DUP4 PUSH2 0x178E SWAP2 SWAP1 PUSH2 0x52A6 JUMP JUMPDEST DUP2 MLOAD DUP2 LT PUSH2 0x179F JUMPI PUSH2 0x179E PUSH2 0x55FF JUMP JUMPDEST JUMPDEST PUSH1 0x20 MUL PUSH1 0x20 ADD ADD DUP2 DUP2 MSTORE POP POP DUP1 DUP1 PUSH2 0x17B6 SWAP1 PUSH2 0x5892 JUMP JUMPDEST SWAP2 POP POP PUSH2 0x1776 JUMP JUMPDEST POP DUP1 SWAP2 POP POP SWAP1 JUMP JUMPDEST PUSH1 0x60 DUP1 PUSH1 0x0 PUSH1 0x1 PUSH1 0x0 DUP6 PUSH20 0xFFFFFFFFFFFFFFFFFFFFFFFFFFFFFFFFFFFFFFFF AND PUSH20 0xFFFFFFFFFFFFFFFFFFFFFFFFFFFFFFFFFFFFFFFF AND DUP2 MSTORE PUSH1 0x20 ADD SWAP1 DUP2 MSTORE PUSH1 0x20 ADD PUSH1 0x0 KECCAK256 SWAP1 POP PUSH1 0x0 DUP2 PUSH1 0x2 ADD SLOAD GT PUSH2 0x1853 JUMPI PUSH1 0x40 MLOAD PUSH32 0x8C379A000000000000000000000000000000000000000000000000000000000 DUP2 MSTORE PUSH1 0x4 ADD PUSH2 0x184A SWAP1 PUSH2 0x5872 JUMP JUMPDEST PUSH1 0x40 MLOAD DUP1 SWAP2 SUB SWAP1 REVERT JUMPDEST DUP1 PUSH1 0x4 ADD DUP1 SLOAD DUP1 PUSH1 0x20 MUL PUSH1 0x20 ADD PUSH1 0x40 MLOAD SWAP1 DUP2 ADD PUSH1 0x40 MSTORE DUP1 SWAP3 SWAP2 SWAP1 DUP2 DUP2 MSTORE PUSH1 0x20 ADD DUP3 DUP1 SLOAD DUP1 ISZERO PUSH2 0x18A1 JUMPI PUSH1 0x20 MUL DUP3 ADD SWAP2 SWAP1 PUSH1 0x0 MSTORE PUSH1 0x20 PUSH1 0x0 KECCAK256 SWAP1 JUMPDEST DUP2 SLOAD DUP2 MSTORE PUSH1 0x20 ADD SWAP1 PUSH1 0x1 ADD SWAP1 DUP1 DUP4 GT PUSH2 0x188D JUMPI JUMPDEST POP POP POP POP POP SWAP3 POP DUP3 MLOAD PUSH8 0xFFFFFFFFFFFFFFFF DUP2 GT ISZERO PUSH2 0x18C3 JUMPI PUSH2 0x18C2 PUSH2 0x43AC JUMP JUMPDEST JUMPDEST PUSH1 0x40 MLOAD SWAP1 DUP1 DUP3 MSTORE DUP1 PUSH1 0x20 MUL PUSH1 0x20 ADD DUP3 ADD PUSH1 0x40 MSTORE DUP1 ISZERO PUSH2 0x18F6 JUMPI DUP2 PUSH1 0x20 ADD JUMPDEST PUSH1 0x60 DUP2 MSTORE PUSH1 0x20 ADD SWAP1 PUSH1 0x1 SWAP1 SUB SWAP1 DUP2 PUSH2 0x18E1 JUMPI SWAP1 POP JUMPDEST POP SWAP2 POP PUSH1 0x0 JUMPDEST DUP4 MLOAD DUP2 LT ISZERO PUSH2 0x19E9 JUMPI PUSH1 0x3 PUSH1 0x0 DUP6 DUP4 DUP2 MLOAD DUP2 LT PUSH2 0x191C JUMPI PUSH2 0x191B PUSH2 0x55FF JUMP JUMPDEST JUMPDEST PUSH1 0x20 MUL PUSH1 0x20 ADD ADD MLOAD DUP2 MSTORE PUSH1 0x20 ADD SWAP1 DUP2 MSTORE PUSH1 0x20 ADD PUSH1 0x0 KECCAK256 PUSH1 0x4 ADD DUP1 SLOAD PUSH2 0x1940 SWAP1 PUSH2 0x4FDE JUMP JUMPDEST DUP1 PUSH1 0x1F ADD PUSH1 0x20 DUP1 SWAP2 DIV MUL PUSH1 0x20 ADD PUSH1 0x40 MLOAD SWAP1 DUP2 ADD PUSH1 0x40 MSTORE DUP1 SWAP3 SWAP2 SWAP1 DUP2 DUP2 MSTORE PUSH1 0x20 ADD DUP3 DUP1 SLOAD PUSH2 0x196C SWAP1 PUSH2 0x4FDE JUMP JUMPDEST DUP1 ISZERO PUSH2 0x19B9 JUMPI DUP1 PUSH1 0x1F LT PUSH2 0x198E JUMPI PUSH2 0x100 DUP1 DUP4 SLOAD DIV MUL DUP4 MSTORE SWAP2 PUSH1 0x20 ADD SWAP2 PUSH2 0x19B9 JUMP JUMPDEST DUP3 ADD SWAP2 SWAP1 PUSH1 0x0 MSTORE PUSH1 0x20 PUSH1 0x0 KECCAK256 SWAP1 JUMPDEST DUP2 SLOAD DUP2 MSTORE SWAP1 PUSH1 0x1 ADD SWAP1 PUSH1 0x20 ADD DUP1 DUP4 GT PUSH2 0x199C JUMPI DUP3 SWAP1 SUB PUSH1 0x1F AND DUP3 ADD SWAP2 JUMPDEST POP POP POP POP POP DUP4 DUP3 DUP2 MLOAD DUP2 LT PUSH2 0x19D1 JUMPI PUSH2 0x19D0 PUSH2 0x55FF JUMP JUMPDEST JUMPDEST PUSH1 0x20 MUL PUSH1 0x20 ADD ADD DUP2 SWAP1 MSTORE POP DUP1 DUP1 PUSH1 0x1 ADD SWAP2 POP POP PUSH2 0x18FC JUMP JUMPDEST POP POP SWAP2 POP SWAP2 JUMP JUMPDEST PUSH1 0x60 PUSH1 0x0 PUSH1 0x6 DUP1 SLOAD SWAP1 POP PUSH8 0xFFFFFFFFFFFFFFFF DUP2 GT ISZERO PUSH2 0x1A13 JUMPI PUSH2 0x1A12 PUSH2 0x43AC JUMP JUMPDEST JUMPDEST PUSH1 0x40 MLOAD SWAP1 DUP1 DUP3 MSTORE DUP1 PUSH1 0x20 MUL PUSH1 0x20 ADD DUP3 ADD PUSH1 0x40 MSTORE DUP1 ISZERO PUSH2 0x1A4C JUMPI DUP2 PUSH1 0x20 ADD JUMPDEST PUSH2 0x1A39 PUSH2 0x3E2A JUMP JUMPDEST DUP2 MSTORE PUSH1 0x20 ADD SWAP1 PUSH1 0x1 SWAP1 SUB SWAP1 DUP2 PUSH2 0x1A31 JUMPI SWAP1 POP JUMPDEST POP SWAP1 POP PUSH1 0x0 JUMPDEST PUSH1 0x6 DUP1 SLOAD SWAP1 POP DUP2 LT ISZERO PUSH2 0x1EAD JUMPI PUSH1 0x0 PUSH1 0x6 DUP3 DUP2 SLOAD DUP2 LT PUSH2 0x1A75 JUMPI PUSH2 0x1A74 PUSH2 0x55FF JUMP JUMPDEST JUMPDEST SWAP1 PUSH1 0x0 MSTORE PUSH1 0x20 PUSH1 0x0 KECCAK256 ADD PUSH1 0x0 SWAP1 SLOAD SWAP1 PUSH2 0x100 EXP SWAP1 DIV PUSH20 0xFFFFFFFFFFFFFFFFFFFFFFFFFFFFFFFFFFFFFFFF AND SWAP1 POP PUSH1 0x0 PUSH1 0x1 PUSH1 0x0 DUP4 PUSH20 0xFFFFFFFFFFFFFFFFFFFFFFFFFFFFFFFFFFFFFFFF AND PUSH20 0xFFFFFFFFFFFFFFFFFFFFFFFFFFFFFFFFFFFFFFFF AND DUP2 MSTORE PUSH1 0x20 ADD SWAP1 DUP2 MSTORE PUSH1 0x20 ADD PUSH1 0x0 KECCAK256 SWAP1 POP PUSH1 0x0 DUP2 PUSH1 0x4 ADD DUP1 SLOAD SWAP1 POP PUSH8 0xFFFFFFFFFFFFFFFF DUP2 GT ISZERO PUSH2 0x1B08 JUMPI PUSH2 0x1B07 PUSH2 0x43AC JUMP JUMPDEST JUMPDEST PUSH1 0x40 MLOAD SWAP1 DUP1 DUP3 MSTORE DUP1 PUSH1 0x20 MUL PUSH1 0x20 ADD DUP3 ADD PUSH1 0x40 MSTORE DUP1 ISZERO PUSH2 0x1B41 JUMPI DUP2 PUSH1 0x20 ADD JUMPDEST PUSH2 0x1B2E PUSH2 0x3E52 JUMP JUMPDEST DUP2 MSTORE PUSH1 0x20 ADD SWAP1 PUSH1 0x1 SWAP1 SUB SWAP1 DUP2 PUSH2 0x1B26 JUMPI SWAP1 POP JUMPDEST POP SWAP1 POP PUSH1 0x0 JUMPDEST DUP3 PUSH1 0x4 ADD DUP1 SLOAD SWAP1 POP DUP2 LT ISZERO PUSH2 0x1D39 JUMPI PUSH1 0x0 DUP4 PUSH1 0x4 ADD DUP3 DUP2 SLOAD DUP2 LT PUSH2 0x1B6E JUMPI PUSH2 0x1B6D PUSH2 0x55FF JUMP JUMPDEST JUMPDEST SWAP1 PUSH1 0x0 MSTORE PUSH1 0x20 PUSH1 0x0 KECCAK256 ADD SLOAD SWAP1 POP PUSH1 0x0 PUSH1 0x3 PUSH1 0x0 DUP4 DUP2 MSTORE PUSH1 0x20 ADD SWAP1 DUP2 MSTORE PUSH1 0x20 ADD PUSH1 0x0 KECCAK256 SWAP1 POP PUSH1 0x40 MLOAD DUP1 PUSH1 0x60 ADD PUSH1 0x40 MSTORE DUP1 DUP4 DUP2 MSTORE PUSH1 0x20 ADD DUP3 PUSH1 0x1 ADD DUP1 SLOAD PUSH2 0x1BB2 SWAP1 PUSH2 0x4FDE JUMP JUMPDEST DUP1 PUSH1 0x1F ADD PUSH1 0x20 DUP1 SWAP2 DIV MUL PUSH1 0x20 ADD PUSH1 0x40 MLOAD SWAP1 DUP2 ADD PUSH1 0x40 MSTORE DUP1 SWAP3 SWAP2 SWAP1 DUP2 DUP2 MSTORE PUSH1 0x20 ADD DUP3 DUP1 SLOAD PUSH2 0x1BDE SWAP1 PUSH2 0x4FDE JUMP JUMPDEST DUP1 ISZERO PUSH2 0x1C2B JUMPI DUP1 PUSH1 0x1F LT PUSH2 0x1C00 JUMPI PUSH2 0x100 DUP1 DUP4 SLOAD DIV MUL DUP4 MSTORE SWAP2 PUSH1 0x20 ADD SWAP2 PUSH2 0x1C2B JUMP JUMPDEST DUP3 ADD SWAP2 SWAP1 PUSH1 0x0 MSTORE PUSH1 0x20 PUSH1 0x0 KECCAK256 SWAP1 JUMPDEST DUP2 SLOAD DUP2 MSTORE SWAP1 PUSH1 0x1 ADD SWAP1 PUSH1 0x20 ADD DUP1 DUP4 GT PUSH2 0x1C0E JUMPI DUP3 SWAP1 SUB PUSH1 0x1F AND DUP3 ADD SWAP2 JUMPDEST POP POP POP POP POP DUP2 MSTORE PUSH1 0x20 ADD DUP3 PUSH1 0x3 ADD DUP1 SLOAD DUP1 PUSH1 0x20 MUL PUSH1 0x20 ADD PUSH1 0x40 MLOAD SWAP1 DUP2 ADD PUSH1 0x40 MSTORE DUP1 SWAP3 SWAP2 SWAP1 DUP2 DUP2 MSTORE PUSH1 0x20 ADD PUSH1 0x0 SWAP1 JUMPDEST DUP3 DUP3 LT ISZERO PUSH2 0x1D05 JUMPI DUP4 DUP3 SWAP1 PUSH1 0x0 MSTORE PUSH1 0x20 PUSH1 0x0 KECCAK256 ADD DUP1 SLOAD PUSH2 0x1C78 SWAP1 PUSH2 0x4FDE JUMP JUMPDEST DUP1 PUSH1 0x1F ADD PUSH1 0x20 DUP1 SWAP2 DIV MUL PUSH1 0x20 ADD PUSH1 0x40 MLOAD SWAP1 DUP2 ADD PUSH1 0x40 MSTORE DUP1 SWAP3 SWAP2 SWAP1 DUP2 DUP2 MSTORE PUSH1 0x20 ADD DUP3 DUP1 SLOAD PUSH2 0x1CA4 SWAP1 PUSH2 0x4FDE JUMP JUMPDEST DUP1 ISZERO PUSH2 0x1CF1 JUMPI DUP1 PUSH1 0x1F LT PUSH2 0x1CC6 JUMPI PUSH2 0x100 DUP1 DUP4 SLOAD DIV MUL DUP4 MSTORE SWAP2 PUSH1 0x20 ADD SWAP2 PUSH2 0x1CF1 JUMP JUMPDEST DUP3 ADD SWAP2 SWAP1 PUSH1 0x0 MSTORE PUSH1 0x20 PUSH1 0x0 KECCAK256 SWAP1 JUMPDEST DUP2 SLOAD DUP2 MSTORE SWAP1 PUSH1 0x1 ADD SWAP1 PUSH1 0x20 ADD DUP1 DUP4 GT PUSH2 0x1CD4 JUMPI DUP3 SWAP1 SUB PUSH1 0x1F AND DUP3 ADD SWAP2 JUMPDEST POP POP POP POP POP DUP2 MSTORE PUSH1 0x20 ADD SWAP1 PUSH1 0x1 ADD SWAP1 PUSH2 0x1C59 JUMP JUMPDEST POP POP POP POP DUP2 MSTORE POP DUP5 DUP5 DUP2 MLOAD DUP2 LT PUSH2 0x1D1F JUMPI PUSH2 0x1D1E PUSH2 0x55FF JUMP JUMPDEST JUMPDEST PUSH1 0x20 MUL PUSH1 0x20 ADD ADD DUP2 SWAP1 MSTORE POP POP POP DUP1 DUP1 PUSH1 0x1 ADD SWAP2 POP POP PUSH2 0x1B47 JUMP JUMPDEST POP PUSH1 0x40 MLOAD DUP1 PUSH1 0x80 ADD PUSH1 0x40 MSTORE DUP1 PUSH1 0x1 DUP7 PUSH2 0x1D52 SWAP2 SWAP1 PUSH2 0x5164 JUMP JUMPDEST DUP2 MSTORE PUSH1 0x20 ADD DUP4 PUSH1 0x0 ADD DUP1 SLOAD PUSH2 0x1D66 SWAP1 PUSH2 0x4FDE JUMP JUMPDEST DUP1 PUSH1 0x1F ADD PUSH1 0x20 DUP1 SWAP2 DIV MUL PUSH1 0x20 ADD PUSH1 0x40 MLOAD SWAP1 DUP2 ADD PUSH1 0x40 MSTORE DUP1 SWAP3 SWAP2 SWAP1 DUP2 DUP2 MSTORE PUSH1 0x20 ADD DUP3 DUP1 SLOAD PUSH2 0x1D92 SWAP1 PUSH2 0x4FDE JUMP JUMPDEST DUP1 ISZERO PUSH2 0x1DDF JUMPI DUP1 PUSH1 0x1F LT PUSH2 0x1DB4 JUMPI PUSH2 0x100 DUP1 DUP4 SLOAD DIV MUL DUP4 MSTORE SWAP2 PUSH1 0x20 ADD SWAP2 PUSH2 0x1DDF JUMP JUMPDEST DUP3 ADD SWAP2 SWAP1 PUSH1 0x0 MSTORE PUSH1 0x20 PUSH1 0x0 KECCAK256 SWAP1 JUMPDEST DUP2 SLOAD DUP2 MSTORE SWAP1 PUSH1 0x1 ADD SWAP1 PUSH1 0x20 ADD DUP1 DUP4 GT PUSH2 0x1DC2 JUMPI DUP3 SWAP1 SUB PUSH1 0x1F AND DUP3 ADD SWAP2 JUMPDEST POP POP POP POP POP DUP2 MSTORE PUSH1 0x20 ADD DUP4 PUSH1 0x1 ADD DUP1 SLOAD PUSH2 0x1DF8 SWAP1 PUSH2 0x4FDE JUMP JUMPDEST DUP1 PUSH1 0x1F ADD PUSH1 0x20 DUP1 SWAP2 DIV MUL PUSH1 0x20 ADD PUSH1 0x40 MLOAD SWAP1 DUP2 ADD PUSH1 0x40 MSTORE DUP1 SWAP3 SWAP2 SWAP1 DUP2 DUP2 MSTORE PUSH1 0x20 ADD DUP3 DUP1 SLOAD PUSH2 0x1E24 SWAP1 PUSH2 0x4FDE JUMP JUMPDEST DUP1 ISZERO PUSH2 0x1E71 JUMPI DUP1 PUSH1 0x1F LT PUSH2 0x1E46 JUMPI PUSH2 0x100 DUP1 DUP4 SLOAD DIV MUL DUP4 MSTORE SWAP2 PUSH1 0x20 ADD SWAP2 PUSH2 0x1E71 JUMP JUMPDEST DUP3 ADD SWAP2 SWAP1 PUSH1 0x0 MSTORE PUSH1 0x20 PUSH1 0x0 KECCAK256 SWAP1 JUMPDEST DUP2 SLOAD DUP2 MSTORE SWAP1 PUSH1 0x1 ADD SWAP1 PUSH1 0x20 ADD DUP1 DUP4 GT PUSH2 0x1E54 JUMPI DUP3 SWAP1 SUB PUSH1 0x1F AND DUP3 ADD SWAP2 JUMPDEST POP POP POP POP POP DUP2 MSTORE PUSH1 0x20 ADD DUP3 DUP2 MSTORE POP DUP6 DUP6 DUP2 MLOAD DUP2 LT PUSH2 0x1E92 JUMPI PUSH2 0x1E91 PUSH2 0x55FF JUMP JUMPDEST JUMPDEST PUSH1 0x20 MUL PUSH1 0x20 ADD ADD DUP2 SWAP1 MSTORE POP POP POP POP DUP1 DUP1 PUSH1 0x1 ADD SWAP2 POP POP PUSH2 0x1A52 JUMP JUMPDEST POP DUP1 SWAP2 POP POP SWAP1 JUMP JUMPDEST PUSH1 0x60 PUSH1 0x6 DUP1 SLOAD DUP1 PUSH1 0x20 MUL PUSH1 0x20 ADD PUSH1 0x40 MLOAD SWAP1 DUP2 ADD PUSH1 0x40 MSTORE DUP1 SWAP3 SWAP2 SWAP1 DUP2 DUP2 MSTORE PUSH1 0x20 ADD DUP3 DUP1 SLOAD DUP1 ISZERO PUSH2 0x1F39 JUMPI PUSH1 0x20 MUL DUP3 ADD SWAP2 SWAP1 PUSH1 0x0 MSTORE PUSH1 0x20 PUSH1 0x0 KECCAK256 SWAP1 JUMPDEST DUP2 PUSH1 0x0 SWAP1 SLOAD SWAP1 PUSH2 0x100 EXP SWAP1 DIV PUSH20 0xFFFFFFFFFFFFFFFFFFFFFFFFFFFFFFFFFFFFFFFF AND PUSH20 0xFFFFFFFFFFFFFFFFFFFFFFFFFFFFFFFFFFFFFFFF AND DUP2 MSTORE PUSH1 0x20 ADD SWAP1 PUSH1 0x1 ADD SWAP1 DUP1 DUP4 GT PUSH2 0x1EEF JUMPI JUMPDEST POP POP POP POP POP SWAP1 POP SWAP1 JUMP JUMPDEST PUSH1 0x3 PUSH1 0x20 MSTORE DUP1 PUSH1 0x0 MSTORE PUSH1 0x40 PUSH1 0x0 KECCAK256 PUSH1 0x0 SWAP2 POP SWAP1 POP DUP1 PUSH1 0x0 ADD DUP1 SLOAD PUSH2 0x1F66 SWAP1 PUSH2 0x4FDE JUMP JUMPDEST DUP1 PUSH1 0x1F ADD PUSH1 0x20 DUP1 SWAP2 DIV MUL PUSH1 0x20 ADD PUSH1 0x40 MLOAD SWAP1 DUP2 ADD PUSH1 0x40 MSTORE DUP1 SWAP3 SWAP2 SWAP1 DUP2 DUP2 MSTORE PUSH1 0x20 ADD DUP3 DUP1 SLOAD PUSH2 0x1F92 SWAP1 PUSH2 0x4FDE JUMP JUMPDEST DUP1 ISZERO PUSH2 0x1FDF JUMPI DUP1 PUSH1 0x1F LT PUSH2 0x1FB4 JUMPI PUSH2 0x100 DUP1 DUP4 SLOAD DIV MUL DUP4 MSTORE SWAP2 PUSH1 0x20 ADD SWAP2 PUSH2 0x1FDF JUMP JUMPDEST DUP3 ADD SWAP2 SWAP1 PUSH1 0x0 MSTORE PUSH1 0x20 PUSH1 0x0 KECCAK256 SWAP1 JUMPDEST DUP2 SLOAD DUP2 MSTORE SWAP1 PUSH1 0x1 ADD SWAP1 PUSH1 0x20 ADD DUP1 DUP4 GT PUSH2 0x1FC2 JUMPI DUP3 SWAP1 SUB PUSH1 0x1F AND DUP3 ADD SWAP2 JUMPDEST POP POP POP POP POP SWAP1 DUP1 PUSH1 0x1 ADD DUP1 SLOAD PUSH2 0x1FF4 SWAP1 PUSH2 0x4FDE JUMP JUMPDEST DUP1 PUSH1 0x1F ADD PUSH1 0x20 DUP1 SWAP2 DIV MUL PUSH1 0x20 ADD PUSH1 0x40 MLOAD SWAP1 DUP2 ADD PUSH1 0x40 MSTORE DUP1 SWAP3 SWAP2 SWAP1 DUP2 DUP2 MSTORE PUSH1 0x20 ADD DUP3 DUP1 SLOAD PUSH2 0x2020 SWAP1 PUSH2 0x4FDE JUMP JUMPDEST DUP1 ISZERO PUSH2 0x206D JUMPI DUP1 PUSH1 0x1F LT PUSH2 0x2042 JUMPI PUSH2 0x100 DUP1 DUP4 SLOAD DIV MUL DUP4 MSTORE SWAP2 PUSH1 0x20 ADD SWAP2 PUSH2 0x206D JUMP JUMPDEST DUP3 ADD SWAP2 SWAP1 PUSH1 0x0 MSTORE PUSH1 0x20 PUSH1 0x0 KECCAK256 SWAP1 JUMPDEST DUP2 SLOAD DUP2 MSTORE SWAP1 PUSH1 0x1 ADD SWAP1 PUSH1 0x20 ADD DUP1 DUP4 GT PUSH2 0x2050 JUMPI DUP3 SWAP1 SUB PUSH1 0x1F AND DUP3 ADD SWAP2 JUMPDEST POP POP POP POP POP SWAP1 DUP1 PUSH1 0x2 ADD PUSH1 0x0 SWAP1 SLOAD SWAP1 PUSH2 0x100 EXP SWAP1 DIV PUSH20 0xFFFFFFFFFFFFFFFFFFFFFFFFFFFFFFFFFFFFFFFF AND SWAP1 DUP1 PUSH1 0x4 ADD DUP1 SLOAD PUSH2 0x20A8 SWAP1 PUSH2 0x4FDE JUMP JUMPDEST DUP1 PUSH1 0x1F ADD PUSH1 0x20 DUP1 SWAP2 DIV MUL PUSH1 0x20 ADD PUSH1 0x40 MLOAD SWAP1 DUP2 ADD PUSH1 0x40 MSTORE DUP1 SWAP3 SWAP2 SWAP1 DUP2 DUP2 MSTORE PUSH1 0x20 ADD DUP3 DUP1 SLOAD PUSH2 0x20D4 SWAP1 PUSH2 0x4FDE JUMP JUMPDEST DUP1 ISZERO PUSH2 0x2121 JUMPI DUP1 PUSH1 0x1F LT PUSH2 0x20F6 JUMPI PUSH2 0x100 DUP1 DUP4 SLOAD DIV MUL DUP4 MSTORE SWAP2 PUSH1 0x20 ADD SWAP2 PUSH2 0x2121 JUMP JUMPDEST DUP3 ADD SWAP2 SWAP1 PUSH1 0x0 MSTORE PUSH1 0x20 PUSH1 0x0 KECCAK256 SWAP1 JUMPDEST DUP2 SLOAD DUP2 MSTORE SWAP1 PUSH1 0x1 ADD SWAP1 PUSH1 0x20 ADD DUP1 DUP4 GT PUSH2 0x2104 JUMPI DUP3 SWAP1 SUB PUSH1 0x1F AND DUP3 ADD SWAP2 JUMPDEST POP POP POP POP POP SWAP1 DUP1 PUSH1 0x5 ADD SLOAD SWAP1 DUP1 PUSH1 0x6 ADD SLOAD SWAP1 DUP1 PUSH1 0x7 ADD SLOAD SWAP1 DUP1 PUSH1 0x8 ADD SLOAD SWAP1 DUP1 PUSH1 0xA ADD SLOAD SWAP1 POP DUP10 JUMP JUMPDEST PUSH1 0x0 DUP1 SLOAD SWAP1 PUSH2 0x100 EXP SWAP1 DIV PUSH20 0xFFFFFFFFFFFFFFFFFFFFFFFFFFFFFFFFFFFFFFFF AND DUP2 JUMP JUMPDEST PUSH1 0x0 DUP1 PUSH1 0x1 PUSH1 0x0 DUP5 PUSH20 0xFFFFFFFFFFFFFFFFFFFFFFFFFFFFFFFFFFFFFFFF AND PUSH20 0xFFFFFFFFFFFFFFFFFFFFFFFFFFFFFFFFFFFFFFFF AND DUP2 MSTORE PUSH1 0x20 ADD SWAP1 DUP2 MSTORE PUSH1 0x20 ADD PUSH1 0x0 KECCAK256 SWAP1 POP PUSH1 0x0 DUP2 PUSH1 0x2 ADD SLOAD GT PUSH2 0x21F8 JUMPI PUSH1 0x40 MLOAD PUSH32 0x8C379A000000000000000000000000000000000000000000000000000000000 DUP2 MSTORE PUSH1 0x4 ADD PUSH2 0x21EF SWAP1 PUSH2 0x5872 JUMP JUMPDEST PUSH1 0x40 MLOAD DUP1 SWAP2 SUB SWAP1 REVERT JUMPDEST PUSH1 0x0 SWAP2 POP PUSH1 0x0 JUMPDEST DUP2 PUSH1 0x4 ADD DUP1 SLOAD SWAP1 POP DUP2 LT ISZERO PUSH2 0x22ED JUMPI PUSH1 0x40 MLOAD DUP1 PUSH1 0x40 ADD PUSH1 0x40 MSTORE DUP1 PUSH1 0x8 DUP2 MSTORE PUSH1 0x20 ADD PUSH32 0x617070726F766564000000000000000000000000000000000000000000000000 DUP2 MSTORE POP DUP1 MLOAD SWAP1 PUSH1 0x20 ADD KECCAK256 PUSH1 0x3 PUSH1 0x0 DUP5 PUSH1 0x4 ADD DUP5 DUP2 SLOAD DUP2 LT PUSH2 0x2265 JUMPI PUSH2 0x2264 PUSH2 0x55FF JUMP JUMPDEST JUMPDEST SWAP1 PUSH1 0x0 MSTORE PUSH1 0x20 PUSH1 0x0 KECCAK256 ADD SLOAD DUP2 MSTORE PUSH1 0x20 ADD SWAP1 DUP2 MSTORE PUSH1 0x20 ADD PUSH1 0x0 KECCAK256 PUSH1 0x4 ADD PUSH1 0x40 MLOAD PUSH2 0x228E SWAP2 SWAP1 PUSH2 0x50B2 JUMP JUMPDEST PUSH1 0x40 MLOAD DUP1 SWAP2 SUB SWAP1 KECCAK256 SUB PUSH2 0x22E0 JUMPI PUSH1 0x3 PUSH1 0x0 DUP4 PUSH1 0x4 ADD DUP4 DUP2 SLOAD DUP2 LT PUSH2 0x22B5 JUMPI PUSH2 0x22B4 PUSH2 0x55FF JUMP JUMPDEST JUMPDEST SWAP1 PUSH1 0x0 MSTORE PUSH1 0x20 PUSH1 0x0 KECCAK256 ADD SLOAD DUP2 MSTORE PUSH1 0x20 ADD SWAP1 DUP2 MSTORE PUSH1 0x20 ADD PUSH1 0x0 KECCAK256 PUSH1 0x7 ADD SLOAD DUP4 PUSH2 0x22DD SWAP2 SWAP1 PUSH2 0x5164 JUMP JUMPDEST SWAP3 POP JUMPDEST DUP1 DUP1 PUSH1 0x1 ADD SWAP2 POP POP PUSH2 0x21FF JUMP JUMPDEST POP POP SWAP2 SWAP1 POP JUMP JUMPDEST PUSH1 0x6 DUP2 DUP2 SLOAD DUP2 LT PUSH2 0x2304 JUMPI PUSH1 0x0 DUP1 REVERT JUMPDEST SWAP1 PUSH1 0x0 MSTORE PUSH1 0x20 PUSH1 0x0 KECCAK256 ADD PUSH1 0x0 SWAP2 POP SLOAD SWAP1 PUSH2 0x100 EXP SWAP1 DIV PUSH20 0xFFFFFFFFFFFFFFFFFFFFFFFFFFFFFFFFFFFFFFFF AND DUP2 JUMP JUMPDEST PUSH1 0x0 PUSH1 0x1 PUSH1 0x0 CALLER PUSH20 0xFFFFFFFFFFFFFFFFFFFFFFFFFFFFFFFFFFFFFFFF AND PUSH20 0xFFFFFFFFFFFFFFFFFFFFFFFFFFFFFFFFFFFFFFFF AND DUP2 MSTORE PUSH1 0x20 ADD SWAP1 DUP2 MSTORE PUSH1 0x20 ADD PUSH1 0x0 KECCAK256 PUSH1 0x2 ADD SLOAD GT PUSH2 0x23B8 JUMPI PUSH1 0x40 MLOAD PUSH32 0x8C379A000000000000000000000000000000000000000000000000000000000 DUP2 MSTORE PUSH1 0x4 ADD PUSH2 0x23AF SWAP1 PUSH2 0x5926 JUMP JUMPDEST PUSH1 0x40 MLOAD DUP1 SWAP2 SUB SWAP1 REVERT JUMPDEST PUSH1 0x0 PUSH1 0x1 PUSH1 0x0 CALLER PUSH20 0xFFFFFFFFFFFFFFFFFFFFFFFFFFFFFFFFFFFFFFFF AND PUSH20 0xFFFFFFFFFFFFFFFFFFFFFFFFFFFFFFFFFFFFFFFF AND DUP2 MSTORE PUSH1 0x20 ADD SWAP1 DUP2 MSTORE PUSH1 0x20 ADD PUSH1 0x0 KECCAK256 SWAP1 POP PUSH1 0x0 JUMPDEST DUP2 PUSH1 0x4 ADD DUP1 SLOAD SWAP1 POP DUP2 LT ISZERO PUSH2 0x2507 JUMPI PUSH1 0x0 PUSH1 0x3 PUSH1 0x0 DUP5 PUSH1 0x4 ADD DUP5 DUP2 SLOAD DUP2 LT PUSH2 0x2429 JUMPI PUSH2 0x2428 PUSH2 0x55FF JUMP JUMPDEST JUMPDEST SWAP1 PUSH1 0x0 MSTORE PUSH1 0x20 PUSH1 0x0 KECCAK256 ADD SLOAD DUP2 MSTORE PUSH1 0x20 ADD SWAP1 DUP2 MSTORE PUSH1 0x20 ADD PUSH1 0x0 KECCAK256 SWAP1 POP PUSH1 0x40 MLOAD DUP1 PUSH1 0x40 ADD PUSH1 0x40 MSTORE DUP1 PUSH1 0x7 DUP2 MSTORE PUSH1 0x20 ADD PUSH32 0x70656E64696E6700000000000000000000000000000000000000000000000000 DUP2 MSTORE POP DUP1 MLOAD SWAP1 PUSH1 0x20 ADD KECCAK256 DUP2 PUSH1 0x4 ADD PUSH1 0x40 MLOAD PUSH2 0x2492 SWAP2 SWAP1 PUSH2 0x50B2 JUMP JUMPDEST PUSH1 0x40 MLOAD DUP1 SWAP2 SUB SWAP1 KECCAK256 EQ DUP1 ISZERO PUSH2 0x24B9 JUMPI POP PUSH3 0x93A80 DUP2 PUSH1 0x8 ADD SLOAD PUSH2 0x24B5 SWAP2 SWAP1 PUSH2 0x5164 JUMP JUMPDEST TIMESTAMP GT ISZERO JUMPDEST ISZERO PUSH2 0x24F9 JUMPI PUSH1 0x40 MLOAD PUSH32 0x8C379A000000000000000000000000000000000000000000000000000000000 DUP2 MSTORE PUSH1 0x4 ADD PUSH2 0x24F0 SWAP1 PUSH2 0x59B8 JUMP JUMPDEST PUSH1 0x40 MLOAD DUP1 SWAP2 SUB SWAP1 REVERT JUMPDEST POP DUP1 DUP1 PUSH1 0x1 ADD SWAP2 POP POP PUSH2 0x23FE JUMP JUMPDEST POP PUSH1 0x0 DUP2 PUSH1 0x2 ADD SLOAD SWAP1 POP PUSH1 0x0 DUP3 PUSH1 0x2 ADD DUP2 SWAP1 SSTORE POP PUSH1 0x0 CALLER PUSH20 0xFFFFFFFFFFFFFFFFFFFFFFFFFFFFFFFFFFFFFFFF AND DUP3 PUSH1 0x40 MLOAD PUSH2 0x2541 SWAP1 PUSH2 0x557E JUMP JUMPDEST PUSH1 0x0 PUSH1 0x40 MLOAD DUP1 DUP4 SUB DUP2 DUP6 DUP8 GAS CALL SWAP3 POP POP POP RETURNDATASIZE DUP1 PUSH1 0x0 DUP2 EQ PUSH2 0x257E JUMPI PUSH1 0x40 MLOAD SWAP2 POP PUSH1 0x1F NOT PUSH1 0x3F RETURNDATASIZE ADD AND DUP3 ADD PUSH1 0x40 MSTORE RETURNDATASIZE DUP3 MSTORE RETURNDATASIZE PUSH1 0x0 PUSH1 0x20 DUP5 ADD RETURNDATACOPY PUSH2 0x2583 JUMP JUMPDEST PUSH1 0x60 SWAP2 POP JUMPDEST POP POP SWAP1 POP DUP1 PUSH2 0x25C7 JUMPI PUSH1 0x40 MLOAD PUSH32 0x8C379A000000000000000000000000000000000000000000000000000000000 DUP2 MSTORE PUSH1 0x4 ADD PUSH2 0x25BE SWAP1 PUSH2 0x5A24 JUMP JUMPDEST PUSH1 0x40 MLOAD DUP1 SWAP2 SUB SWAP1 REVERT JUMPDEST PUSH1 0x1 PUSH1 0x0 CALLER PUSH20 0xFFFFFFFFFFFFFFFFFFFFFFFFFFFFFFFFFFFFFFFF AND PUSH20 0xFFFFFFFFFFFFFFFFFFFFFFFFFFFFFFFFFFFFFFFF AND DUP2 MSTORE PUSH1 0x20 ADD SWAP1 DUP2 MSTORE PUSH1 0x20 ADD PUSH1 0x0 KECCAK256 PUSH1 0x0 DUP1 DUP3 ADD PUSH1 0x0 PUSH2 0x2617 SWAP2 SWAP1 PUSH2 0x3E73 JUMP JUMPDEST PUSH1 0x1 DUP3 ADD PUSH1 0x0 PUSH2 0x2627 SWAP2 SWAP1 PUSH2 0x3E73 JUMP JUMPDEST PUSH1 0x2 DUP3 ADD PUSH1 0x0 SWAP1 SSTORE PUSH1 0x3 DUP3 ADD PUSH1 0x0 PUSH2 0x263F SWAP2 SWAP1 PUSH2 0x3E73 JUMP JUMPDEST PUSH1 0x4 DUP3 ADD PUSH1 0x0 PUSH2 0x264F SWAP2 SWAP1 PUSH2 0x3EB3 JUMP JUMPDEST POP POP PUSH32 0x45E86EF28678BB11EB3A2909BEF25215399CDEBB7C34DACB2179034CF6E2C905 CALLER DUP4 PUSH1 0x40 MLOAD PUSH2 0x2682 SWAP3 SWAP2 SWAP1 PUSH2 0x5A44 JUMP JUMPDEST PUSH1 0x40 MLOAD DUP1 SWAP2 SUB SWAP1 LOG1 POP POP POP JUMP JUMPDEST PUSH1 0x0 DUP1 SLOAD SWAP1 PUSH2 0x100 EXP SWAP1 DIV PUSH20 0xFFFFFFFFFFFFFFFFFFFFFFFFFFFFFFFFFFFFFFFF AND PUSH20 0xFFFFFFFFFFFFFFFFFFFFFFFFFFFFFFFFFFFFFFFF AND CALLER PUSH20 0xFFFFFFFFFFFFFFFFFFFFFFFFFFFFFFFFFFFFFFFF AND EQ PUSH2 0x271D JUMPI PUSH1 0x40 MLOAD PUSH32 0x8C379A000000000000000000000000000000000000000000000000000000000 DUP2 MSTORE PUSH1 0x4 ADD PUSH2 0x2714 SWAP1 PUSH2 0x5AB9 JUMP JUMPDEST PUSH1 0x40 MLOAD DUP1 SWAP2 SUB SWAP1 REVERT JUMPDEST PUSH1 0x0 PUSH1 0x1 PUSH1 0x0 DUP4 PUSH20 0xFFFFFFFFFFFFFFFFFFFFFFFFFFFFFFFFFFFFFFFF AND PUSH20 0xFFFFFFFFFFFFFFFFFFFFFFFFFFFFFFFFFFFFFFFF AND DUP2 MSTORE PUSH1 0x20 ADD SWAP1 DUP2 MSTORE PUSH1 0x20 ADD PUSH1 0x0 KECCAK256 PUSH1 0x2 ADD SLOAD GT PUSH2 0x27A2 JUMPI PUSH1 0x40 MLOAD PUSH32 0x8C379A000000000000000000000000000000000000000000000000000000000 DUP2 MSTORE PUSH1 0x4 ADD PUSH2 0x2799 SWAP1 PUSH2 0x5926 JUMP JUMPDEST PUSH1 0x40 MLOAD DUP1 SWAP2 SUB SWAP1 REVERT JUMPDEST PUSH1 0x0 PUSH1 0x1 PUSH1 0x0 DUP4 PUSH20 0xFFFFFFFFFFFFFFFFFFFFFFFFFFFFFFFFFFFFFFFF AND PUSH20 0xFFFFFFFFFFFFFFFFFFFFFFFFFFFFFFFFFFFFFFFF AND DUP2 MSTORE PUSH1 0x20 ADD SWAP1 DUP2 MSTORE PUSH1 0x20 ADD PUSH1 0x0 KECCAK256 SWAP1 POP PUSH1 0x0 JUMPDEST DUP2 PUSH1 0x4 ADD DUP1 SLOAD SWAP1 POP DUP2 LT ISZERO PUSH2 0x28F1 JUMPI PUSH1 0x0 PUSH1 0x3 PUSH1 0x0 DUP5 PUSH1 0x4 ADD DUP5 DUP2 SLOAD DUP2 LT PUSH2 0x2813 JUMPI PUSH2 0x2812 PUSH2 0x55FF JUMP JUMPDEST JUMPDEST SWAP1 PUSH1 0x0 MSTORE PUSH1 0x20 PUSH1 0x0 KECCAK256 ADD SLOAD DUP2 MSTORE PUSH1 0x20 ADD SWAP1 DUP2 MSTORE PUSH1 0x20 ADD PUSH1 0x0 KECCAK256 SWAP1 POP PUSH1 0x40 MLOAD DUP1 PUSH1 0x40 ADD PUSH1 0x40 MSTORE DUP1 PUSH1 0x7 DUP2 MSTORE PUSH1 0x20 ADD PUSH32 0x70656E64696E6700000000000000000000000000000000000000000000000000 DUP2 MSTORE POP DUP1 MLOAD SWAP1 PUSH1 0x20 ADD KECCAK256 DUP2 PUSH1 0x4 ADD PUSH1 0x40 MLOAD PUSH2 0x287C SWAP2 SWAP1 PUSH2 0x50B2 JUMP JUMPDEST PUSH1 0x40 MLOAD DUP1 SWAP2 SUB SWAP1 KECCAK256 EQ DUP1 ISZERO PUSH2 0x28A3 JUMPI POP PUSH3 0x93A80 DUP2 PUSH1 0x8 ADD SLOAD PUSH2 0x289F SWAP2 SWAP1 PUSH2 0x5164 JUMP JUMPDEST TIMESTAMP GT ISZERO JUMPDEST ISZERO PUSH2 0x28E3 JUMPI PUSH1 0x40 MLOAD PUSH32 0x8C379A000000000000000000000000000000000000000000000000000000000 DUP2 MSTORE PUSH1 0x4 ADD PUSH2 0x28DA SWAP1 PUSH2 0x59B8 JUMP JUMPDEST PUSH1 0x40 MLOAD DUP1 SWAP2 SUB SWAP1 REVERT JUMPDEST POP DUP1 DUP1 PUSH1 0x1 ADD SWAP2 POP POP PUSH2 0x27E8 JUMP JUMPDEST POP PUSH1 0x0 DUP2 PUSH1 0x2 ADD SLOAD SWAP1 POP PUSH1 0x0 DUP3 PUSH1 0x2 ADD DUP2 SWAP1 SSTORE POP PUSH1 0x0 CALLER PUSH20 0xFFFFFFFFFFFFFFFFFFFFFFFFFFFFFFFFFFFFFFFF AND DUP3 PUSH1 0x40 MLOAD PUSH2 0x292B SWAP1 PUSH2 0x557E JUMP JUMPDEST PUSH1 0x0 PUSH1 0x40 MLOAD DUP1 DUP4 SUB DUP2 DUP6 DUP8 GAS CALL SWAP3 POP POP POP RETURNDATASIZE DUP1 PUSH1 0x0 DUP2 EQ PUSH2 0x2968 JUMPI PUSH1 0x40 MLOAD SWAP2 POP PUSH1 0x1F NOT PUSH1 0x3F RETURNDATASIZE ADD AND DUP3 ADD PUSH1 0x40 MSTORE RETURNDATASIZE DUP3 MSTORE RETURNDATASIZE PUSH1 0x0 PUSH1 0x20 DUP5 ADD RETURNDATACOPY PUSH2 0x296D JUMP JUMPDEST PUSH1 0x60 SWAP2 POP JUMPDEST POP POP SWAP1 POP DUP1 PUSH2 0x29B1 JUMPI PUSH1 0x40 MLOAD PUSH32 0x8C379A000000000000000000000000000000000000000000000000000000000 DUP2 MSTORE PUSH1 0x4 ADD PUSH2 0x29A8 SWAP1 PUSH2 0x5A24 JUMP JUMPDEST PUSH1 0x40 MLOAD DUP1 SWAP2 SUB SWAP1 REVERT JUMPDEST PUSH32 0x45E86EF28678BB11EB3A2909BEF25215399CDEBB7C34DACB2179034CF6E2C905 CALLER DUP4 PUSH1 0x40 MLOAD PUSH2 0x29E2 SWAP3 SWAP2 SWAP1 PUSH2 0x5A44 JUMP JUMPDEST PUSH1 0x40 MLOAD DUP1 SWAP2 SUB SWAP1 LOG1 POP POP POP POP JUMP JUMPDEST PUSH1 0x2 PUSH1 0x20 MSTORE DUP1 PUSH1 0x0 MSTORE PUSH1 0x40 PUSH1 0x0 KECCAK256 PUSH1 0x0 SWAP2 POP SWAP1 POP DUP1 PUSH1 0x0 ADD SLOAD SWAP1 POP DUP2 JUMP JUMPDEST PUSH1 0x0 PUSH1 0x1 PUSH1 0x0 CALLER PUSH20 0xFFFFFFFFFFFFFFFFFFFFFFFFFFFFFFFFFFFFFFFF AND PUSH20 0xFFFFFFFFFFFFFFFFFFFFFFFFFFFFFFFFFFFFFFFF AND DUP2 MSTORE PUSH1 0x20 ADD SWAP1 DUP2 MSTORE PUSH1 0x20 ADD PUSH1 0x0 KECCAK256 PUSH1 0x2 ADD SLOAD GT PUSH2 0x2A93 JUMPI PUSH1 0x40 MLOAD PUSH32 0x8C379A000000000000000000000000000000000000000000000000000000000 DUP2 MSTORE PUSH1 0x4 ADD PUSH2 0x2A8A SWAP1 PUSH2 0x5872 JUMP JUMPDEST PUSH1 0x40 MLOAD DUP1 SWAP2 SUB SWAP1 REVERT JUMPDEST PUSH1 0x5 PUSH1 0x0 DUP2 SLOAD DUP1 SWAP3 SWAP2 SWAP1 PUSH2 0x2AA6 SWAP1 PUSH2 0x5892 JUMP JUMPDEST SWAP2 SWAP1 POP SSTORE POP PUSH1 0x0 PUSH1 0x3 PUSH1 0x0 PUSH1 0x5 SLOAD DUP2 MSTORE PUSH1 0x20 ADD SWAP1 DUP2 MSTORE PUSH1 0x20 ADD PUSH1 0x0 KECCAK256 SWAP1 POP CALLER DUP2 PUSH1 0x2 ADD PUSH1 0x0 PUSH2 0x100 EXP DUP2 SLOAD DUP2 PUSH20 0xFFFFFFFFFFFFFFFFFFFFFFFFFFFFFFFFFFFFFFFF MUL NOT AND SWAP1 DUP4 PUSH20 0xFFFFFFFFFFFFFFFFFFFFFFFFFFFFFFFFFFFFFFFF AND MUL OR SWAP1 SSTORE POP DUP4 DUP2 PUSH1 0x3 ADD SWAP1 DUP1 MLOAD SWAP1 PUSH1 0x20 ADD SWAP1 PUSH2 0x2B1F SWAP3 SWAP2 SWAP1 PUSH2 0x3ED4 JUMP JUMPDEST POP PUSH1 0x40 MLOAD DUP1 PUSH1 0x40 ADD PUSH1 0x40 MSTORE DUP1 PUSH1 0x7 DUP2 MSTORE PUSH1 0x20 ADD PUSH32 0x70656E64696E6700000000000000000000000000000000000000000000000000 DUP2 MSTORE POP DUP2 PUSH1 0x4 ADD SWAP1 DUP2 PUSH2 0x2B66 SWAP2 SWAP1 PUSH2 0x5486 JUMP JUMPDEST POP TIMESTAMP DUP2 PUSH1 0x8 ADD DUP2 SWAP1 SSTORE POP DUP3 DUP2 PUSH1 0x0 ADD SWAP1 DUP2 PUSH2 0x2B81 SWAP2 SWAP1 PUSH2 0x5486 JUMP JUMPDEST POP DUP2 DUP2 PUSH1 0x1 ADD SWAP1 DUP2 PUSH2 0x2B93 SWAP2 SWAP1 PUSH2 0x5486 JUMP JUMPDEST POP PUSH1 0x1 PUSH1 0x0 CALLER PUSH20 0xFFFFFFFFFFFFFFFFFFFFFFFFFFFFFFFFFFFFFFFF AND PUSH20 0xFFFFFFFFFFFFFFFFFFFFFFFFFFFFFFFFFFFFFFFF AND DUP2 MSTORE PUSH1 0x20 ADD SWAP1 DUP2 MSTORE PUSH1 0x20 ADD PUSH1 0x0 KECCAK256 PUSH1 0x4 ADD PUSH1 0x5 SLOAD SWAP1 DUP1 PUSH1 0x1 DUP2 SLOAD ADD DUP1 DUP3 SSTORE DUP1 SWAP2 POP POP PUSH1 0x1 SWAP1 SUB SWAP1 PUSH1 0x0 MSTORE PUSH1 0x20 PUSH1 0x0 KECCAK256 ADD PUSH1 0x0 SWAP1 SWAP2 SWAP1 SWAP2 SWAP1 SWAP2 POP SSTORE PUSH32 0xE9EE39160568153D230CA0E29961267415D513DEFBB7D3B21AF0FE940E1EBD15 PUSH1 0x5 SLOAD CALLER PUSH1 0x40 MLOAD PUSH2 0x2C32 SWAP3 SWAP2 SWAP1 PUSH2 0x5AD9 JUMP JUMPDEST PUSH1 0x40 MLOAD DUP1 SWAP2 SUB SWAP1 LOG1 POP POP POP POP JUMP JUMPDEST PUSH1 0x0 PUSH1 0x2 PUSH1 0x0 DUP4 PUSH20 0xFFFFFFFFFFFFFFFFFFFFFFFFFFFFFFFFFFFFFFFF AND PUSH20 0xFFFFFFFFFFFFFFFFFFFFFFFFFFFFFFFFFFFFFFFF AND DUP2 MSTORE PUSH1 0x20 ADD SWAP1 DUP2 MSTORE PUSH1 0x20 ADD PUSH1 0x0 KECCAK256 PUSH1 0x0 ADD SLOAD SWAP1 POP SWAP2 SWAP1 POP JUMP JUMPDEST PUSH1 0x60 PUSH1 0x0 DUP1 PUSH1 0x1 SWAP1 POP JUMPDEST PUSH1 0x5 SLOAD DUP2 GT PUSH2 0x2D5F JUMPI PUSH1 0x40 MLOAD DUP1 PUSH1 0x40 ADD PUSH1 0x40 MSTORE DUP1 PUSH1 0x7 DUP2 MSTORE PUSH1 0x20 ADD PUSH32 0x70656E64696E6700000000000000000000000000000000000000000000000000 DUP2 MSTORE POP DUP1 MLOAD SWAP1 PUSH1 0x20 ADD KECCAK256 PUSH1 0x3 PUSH1 0x0 DUP4 DUP2 MSTORE PUSH1 0x20 ADD SWAP1 DUP2 MSTORE PUSH1 0x20 ADD PUSH1 0x0 KECCAK256 PUSH1 0x4 ADD PUSH1 0x40 MLOAD PUSH2 0x2CFF SWAP2 SWAP1 PUSH2 0x50B2 JUMP JUMPDEST PUSH1 0x40 MLOAD DUP1 SWAP2 SUB SWAP1 KECCAK256 EQ DUP1 ISZERO PUSH2 0x2D38 JUMPI POP PUSH3 0x93A80 PUSH1 0x3 PUSH1 0x0 DUP4 DUP2 MSTORE PUSH1 0x20 ADD SWAP1 DUP2 MSTORE PUSH1 0x20 ADD PUSH1 0x0 KECCAK256 PUSH1 0x8 ADD SLOAD PUSH2 0x2D34 SWAP2 SWAP1 PUSH2 0x5164 JUMP JUMPDEST TIMESTAMP GT ISZERO JUMPDEST ISZERO PUSH2 0x2D4C JUMPI DUP2 DUP1 PUSH2 0x2D48 SWAP1 PUSH2 0x5892 JUMP JUMPDEST SWAP3 POP POP JUMPDEST DUP1 DUP1 PUSH2 0x2D57 SWAP1 PUSH2 0x5892 JUMP JUMPDEST SWAP2 POP POP PUSH2 0x2C96 JUMP JUMPDEST POP PUSH1 0x0 DUP2 PUSH8 0xFFFFFFFFFFFFFFFF DUP2 GT ISZERO PUSH2 0x2D7C JUMPI PUSH2 0x2D7B PUSH2 0x43AC JUMP JUMPDEST JUMPDEST PUSH1 0x40 MLOAD SWAP1 DUP1 DUP3 MSTORE DUP1 PUSH1 0x20 MUL PUSH1 0x20 ADD DUP3 ADD PUSH1 0x40 MSTORE DUP1 ISZERO PUSH2 0x2DAA JUMPI DUP2 PUSH1 0x20 ADD PUSH1 0x20 DUP3 MUL DUP1 CALLDATASIZE DUP4 CALLDATACOPY DUP1 DUP3 ADD SWAP2 POP POP SWAP1 POP JUMPDEST POP SWAP1 POP PUSH1 0x0 DUP1 PUSH1 0x1 SWAP1 POP JUMPDEST PUSH1 0x5 SLOAD DUP2 GT PUSH2 0x2E9E JUMPI PUSH1 0x40 MLOAD DUP1 PUSH1 0x40 ADD PUSH1 0x40 MSTORE DUP1 PUSH1 0x7 DUP2 MSTORE PUSH1 0x20 ADD PUSH32 0x70656E64696E6700000000000000000000000000000000000000000000000000 DUP2 MSTORE POP DUP1 MLOAD SWAP1 PUSH1 0x20 ADD KECCAK256 PUSH1 0x3 PUSH1 0x0 DUP4 DUP2 MSTORE PUSH1 0x20 ADD SWAP1 DUP2 MSTORE PUSH1 0x20 ADD PUSH1 0x0 KECCAK256 PUSH1 0x4 ADD PUSH1 0x40 MLOAD PUSH2 0x2E1E SWAP2 SWAP1 PUSH2 0x50B2 JUMP JUMPDEST PUSH1 0x40 MLOAD DUP1 SWAP2 SUB SWAP1 KECCAK256 EQ DUP1 ISZERO PUSH2 0x2E57 JUMPI POP PUSH3 0x93A80 PUSH1 0x3 PUSH1 0x0 DUP4 DUP2 MSTORE PUSH1 0x20 ADD SWAP1 DUP2 MSTORE PUSH1 0x20 ADD PUSH1 0x0 KECCAK256 PUSH1 0x8 ADD SLOAD PUSH2 0x2E53 SWAP2 SWAP1 PUSH2 0x5164 JUMP JUMPDEST TIMESTAMP GT ISZERO JUMPDEST ISZERO PUSH2 0x2E8B JUMPI DUP1 DUP4 DUP4 DUP2 MLOAD DUP2 LT PUSH2 0x2E70 JUMPI PUSH2 0x2E6F PUSH2 0x55FF JUMP JUMPDEST JUMPDEST PUSH1 0x20 MUL PUSH1 0x20 ADD ADD DUP2 DUP2 MSTORE POP POP DUP2 DUP1 PUSH2 0x2E87 SWAP1 PUSH2 0x5892 JUMP JUMPDEST SWAP3 POP POP JUMPDEST DUP1 DUP1 PUSH2 0x2E96 SWAP1 PUSH2 0x5892 JUMP JUMPDEST SWAP2 POP POP PUSH2 0x2DB5 JUMP JUMPDEST POP DUP2 SWAP4 POP POP POP POP SWAP1 JUMP JUMPDEST PUSH1 0x3 PUSH1 0x0 DUP3 DUP2 MSTORE PUSH1 0x20 ADD SWAP1 DUP2 MSTORE PUSH1 0x20 ADD PUSH1 0x0 KECCAK256 PUSH1 0x9 ADD PUSH1 0x0 CALLER PUSH20 0xFFFFFFFFFFFFFFFFFFFFFFFFFFFFFFFFFFFFFFFF AND PUSH20 0xFFFFFFFFFFFFFFFFFFFFFFFFFFFFFFFFFFFFFFFF AND DUP2 MSTORE PUSH1 0x20 ADD SWAP1 DUP2 MSTORE PUSH1 0x20 ADD PUSH1 0x0 KECCAK256 PUSH1 0x0 SWAP1 SLOAD SWAP1 PUSH2 0x100 EXP SWAP1 DIV PUSH1 0xFF AND PUSH2 0x2F48 JUMPI PUSH1 0x40 MLOAD PUSH32 0x8C379A000000000000000000000000000000000000000000000000000000000 DUP2 MSTORE PUSH1 0x4 ADD PUSH2 0x2F3F SWAP1 PUSH2 0x5B4E JUMP JUMPDEST PUSH1 0x40 MLOAD DUP1 SWAP2 SUB SWAP1 REVERT JUMPDEST PUSH1 0x40 MLOAD DUP1 PUSH1 0x40 ADD PUSH1 0x40 MSTORE DUP1 PUSH1 0x7 DUP2 MSTORE PUSH1 0x20 ADD PUSH32 0x70656E64696E6700000000000000000000000000000000000000000000000000 DUP2 MSTORE POP DUP1 MLOAD SWAP1 PUSH1 0x20 ADD KECCAK256 PUSH1 0x3 PUSH1 0x0 DUP4 DUP2 MSTORE PUSH1 0x20 ADD SWAP1 DUP2 MSTORE PUSH1 0x20 ADD PUSH1 0x0 KECCAK256 PUSH1 0x4 ADD PUSH1 0x40 MLOAD PUSH2 0x2FA8 SWAP2 SWAP1 PUSH2 0x50B2 JUMP JUMPDEST PUSH1 0x40 MLOAD DUP1 SWAP2 SUB SWAP1 KECCAK256 SUB PUSH2 0x2FF0 JUMPI PUSH1 0x40 MLOAD PUSH32 0x8C379A000000000000000000000000000000000000000000000000000000000 DUP2 MSTORE PUSH1 0x4 ADD PUSH2 0x2FE7 SWAP1 PUSH2 0x5BBA JUMP JUMPDEST PUSH1 0x40 MLOAD DUP1 SWAP2 SUB SWAP1 REVERT JUMPDEST PUSH1 0x0 PUSH1 0x64 PUSH1 0x5 PUSH1 0x3 PUSH1 0x0 DUP6 DUP2 MSTORE PUSH1 0x20 ADD SWAP1 DUP2 MSTORE PUSH1 0x20 ADD PUSH1 0x0 KECCAK256 PUSH1 0x7 ADD SLOAD PUSH2 0x3017 SWAP2 SWAP1 PUSH2 0x5204 JUMP JUMPDEST PUSH2 0x3021 SWAP2 SWAP1 PUSH2 0x5275 JUMP JUMPDEST SWAP1 POP PUSH1 0x0 DUP1 PUSH1 0x3 PUSH1 0x0 DUP6 DUP2 MSTORE PUSH1 0x20 ADD SWAP1 DUP2 MSTORE PUSH1 0x20 ADD PUSH1 0x0 KECCAK256 PUSH1 0xA ADD SLOAD GT PUSH2 0x3049 JUMPI PUSH1 0x0 PUSH2 0x306C JUMP JUMPDEST PUSH1 0x3 PUSH1 0x0 DUP5 DUP2 MSTORE PUSH1 0x20 ADD SWAP1 DUP2 MSTORE PUSH1 0x20 ADD PUSH1 0x0 KECCAK256 PUSH1 0xA ADD SLOAD DUP3 PUSH2 0x306B SWAP2 SWAP1 PUSH2 0x5275 JUMP JUMPDEST JUMPDEST SWAP1 POP PUSH1 0x0 CALLER PUSH20 0xFFFFFFFFFFFFFFFFFFFFFFFFFFFFFFFFFFFFFFFF AND DUP3 PUSH1 0x40 MLOAD PUSH2 0x3094 SWAP1 PUSH2 0x557E JUMP JUMPDEST PUSH1 0x0 PUSH1 0x40 MLOAD DUP1 DUP4 SUB DUP2 DUP6 DUP8 GAS CALL SWAP3 POP POP POP RETURNDATASIZE DUP1 PUSH1 0x0 DUP2 EQ PUSH2 0x30D1 JUMPI PUSH1 0x40 MLOAD SWAP2 POP PUSH1 0x1F NOT PUSH1 0x3F RETURNDATASIZE ADD AND DUP3 ADD PUSH1 0x40 MSTORE RETURNDATASIZE DUP3 MSTORE RETURNDATASIZE PUSH1 0x0 PUSH1 0x20 DUP5 ADD RETURNDATACOPY PUSH2 0x30D6 JUMP JUMPDEST PUSH1 0x60 SWAP2 POP JUMPDEST POP POP SWAP1 POP DUP1 PUSH2 0x311A JUMPI PUSH1 0x40 MLOAD PUSH32 0x8C379A000000000000000000000000000000000000000000000000000000000 DUP2 MSTORE PUSH1 0x4 ADD PUSH2 0x3111 SWAP1 PUSH2 0x5C26 JUMP JUMPDEST PUSH1 0x40 MLOAD DUP1 SWAP2 SUB SWAP1 REVERT JUMPDEST PUSH1 0x0 PUSH1 0x3 PUSH1 0x0 DUP7 DUP2 MSTORE PUSH1 0x20 ADD SWAP1 DUP2 MSTORE PUSH1 0x20 ADD PUSH1 0x0 KECCAK256 PUSH1 0x9 ADD PUSH1 0x0 CALLER PUSH20 0xFFFFFFFFFFFFFFFFFFFFFFFFFFFFFFFFFFFFFFFF AND PUSH20 0xFFFFFFFFFFFFFFFFFFFFFFFFFFFFFFFFFFFFFFFF AND DUP2 MSTORE PUSH1 0x20 ADD SWAP1 DUP2 MSTORE PUSH1 0x20 ADD PUSH1 0x0 KECCAK256 PUSH1 0x0 PUSH2 0x100 EXP DUP2 SLOAD DUP2 PUSH1 0xFF MUL NOT AND SWAP1 DUP4 ISZERO ISZERO MUL OR SWAP1 SSTORE POP POP POP POP POP JUMP JUMPDEST PUSH1 0x0 PUSH1 0x2 PUSH1 0x0 CALLER PUSH20 0xFFFFFFFFFFFFFFFFFFFFFFFFFFFFFFFFFFFFFFFF AND PUSH20 0xFFFFFFFFFFFFFFFFFFFFFFFFFFFFFFFFFFFFFFFF AND DUP2 MSTORE PUSH1 0x20 ADD SWAP1 DUP2 MSTORE PUSH1 0x20 ADD PUSH1 0x0 KECCAK256 PUSH1 0x0 ADD SLOAD GT PUSH2 0x3211 JUMPI PUSH1 0x40 MLOAD PUSH32 0x8C379A000000000000000000000000000000000000000000000000000000000 DUP2 MSTORE PUSH1 0x4 ADD PUSH2 0x3208 SWAP1 PUSH2 0x5C92 JUMP JUMPDEST PUSH1 0x40 MLOAD DUP1 SWAP2 SUB SWAP1 REVERT JUMPDEST PUSH1 0x0 PUSH20 0xFFFFFFFFFFFFFFFFFFFFFFFFFFFFFFFFFFFFFFFF AND PUSH1 0x3 PUSH1 0x0 DUP5 DUP2 MSTORE PUSH1 0x20 ADD SWAP1 DUP2 MSTORE PUSH1 0x20 ADD PUSH1 0x0 KECCAK256 PUSH1 0x2 ADD PUSH1 0x0 SWAP1 SLOAD SWAP1 PUSH2 0x100 EXP SWAP1 DIV PUSH20 0xFFFFFFFFFFFFFFFFFFFFFFFFFFFFFFFFFFFFFFFF AND PUSH20 0xFFFFFFFFFFFFFFFFFFFFFFFFFFFFFFFFFFFFFFFF AND SUB PUSH2 0x32B6 JUMPI PUSH1 0x40 MLOAD PUSH32 0x8C379A000000000000000000000000000000000000000000000000000000000 DUP2 MSTORE PUSH1 0x4 ADD PUSH2 0x32AD SWAP1 PUSH2 0x4F8F JUMP JUMPDEST PUSH1 0x40 MLOAD DUP1 SWAP2 SUB SWAP1 REVERT JUMPDEST PUSH1 0x2 PUSH1 0x0 CALLER PUSH20 0xFFFFFFFFFFFFFFFFFFFFFFFFFFFFFFFFFFFFFFFF AND PUSH20 0xFFFFFFFFFFFFFFFFFFFFFFFFFFFFFFFFFFFFFFFF AND DUP2 MSTORE PUSH1 0x20 ADD SWAP1 DUP2 MSTORE PUSH1 0x20 ADD PUSH1 0x0 KECCAK256 PUSH1 0x1 ADD PUSH1 0x0 DUP4 DUP2 MSTORE PUSH1 0x20 ADD SWAP1 DUP2 MSTORE PUSH1 0x20 ADD PUSH1 0x0 KECCAK256 PUSH1 0x0 SWAP1 SLOAD SWAP1 PUSH2 0x100 EXP SWAP1 DIV PUSH1 0xFF AND ISZERO PUSH2 0x3357 JUMPI PUSH1 0x40 MLOAD PUSH32 0x8C379A000000000000000000000000000000000000000000000000000000000 DUP2 MSTORE PUSH1 0x4 ADD PUSH2 0x334E SWAP1 PUSH2 0x5CFE JUMP JUMPDEST PUSH1 0x40 MLOAD DUP1 SWAP2 SUB SWAP1 REVERT JUMPDEST PUSH1 0x40 MLOAD DUP1 PUSH1 0x40 ADD PUSH1 0x40 MSTORE DUP1 PUSH1 0x7 DUP2 MSTORE PUSH1 0x20 ADD PUSH32 0x70656E64696E6700000000000000000000000000000000000000000000000000 DUP2 MSTORE POP DUP1 MLOAD SWAP1 PUSH1 0x20 ADD KECCAK256 PUSH1 0x3 PUSH1 0x0 DUP5 DUP2 MSTORE PUSH1 0x20 ADD SWAP1 DUP2 MSTORE PUSH1 0x20 ADD PUSH1 0x0 KECCAK256 PUSH1 0x4 ADD PUSH1 0x40 MLOAD PUSH2 0x33B7 SWAP2 SWAP1 PUSH2 0x50B2 JUMP JUMPDEST PUSH1 0x40 MLOAD DUP1 SWAP2 SUB SWAP1 KECCAK256 EQ PUSH2 0x33FF JUMPI PUSH1 0x40 MLOAD PUSH32 0x8C379A000000000000000000000000000000000000000000000000000000000 DUP2 MSTORE PUSH1 0x4 ADD PUSH2 0x33F6 SWAP1 PUSH2 0x5D6A JUMP JUMPDEST PUSH1 0x40 MLOAD DUP1 SWAP2 SUB SWAP1 REVERT JUMPDEST PUSH3 0x93A80 PUSH1 0x3 PUSH1 0x0 DUP5 DUP2 MSTORE PUSH1 0x20 ADD SWAP1 DUP2 MSTORE PUSH1 0x20 ADD PUSH1 0x0 KECCAK256 PUSH1 0x8 ADD SLOAD PUSH2 0x3424 SWAP2 SWAP1 PUSH2 0x5164 JUMP JUMPDEST TIMESTAMP GT ISZERO PUSH2 0x3466 JUMPI PUSH1 0x40 MLOAD PUSH32 0x8C379A000000000000000000000000000000000000000000000000000000000 DUP2 MSTORE PUSH1 0x4 ADD PUSH2 0x345D SWAP1 PUSH2 0x5DD6 JUMP JUMPDEST PUSH1 0x40 MLOAD DUP1 SWAP2 SUB SWAP1 REVERT JUMPDEST PUSH1 0x1 PUSH1 0x2 PUSH1 0x0 CALLER PUSH20 0xFFFFFFFFFFFFFFFFFFFFFFFFFFFFFFFFFFFFFFFF AND PUSH20 0xFFFFFFFFFFFFFFFFFFFFFFFFFFFFFFFFFFFFFFFF AND DUP2 MSTORE PUSH1 0x20 ADD SWAP1 DUP2 MSTORE PUSH1 0x20 ADD PUSH1 0x0 KECCAK256 PUSH1 0x1 ADD PUSH1 0x0 DUP5 DUP2 MSTORE PUSH1 0x20 ADD SWAP1 DUP2 MSTORE PUSH1 0x20 ADD PUSH1 0x0 KECCAK256 PUSH1 0x0 PUSH2 0x100 EXP DUP2 SLOAD DUP2 PUSH1 0xFF MUL NOT AND SWAP1 DUP4 ISZERO ISZERO MUL OR SWAP1 SSTORE POP PUSH1 0x1 PUSH1 0x3 PUSH1 0x0 DUP5 DUP2 MSTORE PUSH1 0x20 ADD SWAP1 DUP2 MSTORE PUSH1 0x20 ADD PUSH1 0x0 KECCAK256 PUSH1 0x9 ADD PUSH1 0x0 CALLER PUSH20 0xFFFFFFFFFFFFFFFFFFFFFFFFFFFFFFFFFFFFFFFF AND PUSH20 0xFFFFFFFFFFFFFFFFFFFFFFFFFFFFFFFFFFFFFFFF AND DUP2 MSTORE PUSH1 0x20 ADD SWAP1 DUP2 MSTORE PUSH1 0x20 ADD PUSH1 0x0 KECCAK256 PUSH1 0x0 PUSH2 0x100 EXP DUP2 SLOAD DUP2 PUSH1 0xFF MUL NOT AND SWAP1 DUP4 ISZERO ISZERO MUL OR SWAP1 SSTORE POP PUSH1 0x3 PUSH1 0x0 DUP4 DUP2 MSTORE PUSH1 0x20 ADD SWAP1 DUP2 MSTORE PUSH1 0x20 ADD PUSH1 0x0 KECCAK256 PUSH1 0xA ADD PUSH1 0x0 DUP2 SLOAD DUP1 SWAP3 SWAP2 SWAP1 PUSH2 0x3565 SWAP1 PUSH2 0x5892 JUMP JUMPDEST SWAP2 SWAP1 POP SSTORE POP DUP1 ISZERO PUSH2 0x35A1 JUMPI PUSH1 0x3 PUSH1 0x0 DUP4 DUP2 MSTORE PUSH1 0x20 ADD SWAP1 DUP2 MSTORE PUSH1 0x20 ADD PUSH1 0x0 KECCAK256 PUSH1 0x5 ADD PUSH1 0x0 DUP2 SLOAD DUP1 SWAP3 SWAP2 SWAP1 PUSH2 0x3597 SWAP1 PUSH2 0x5892 JUMP JUMPDEST SWAP2 SWAP1 POP SSTORE POP PUSH2 0x35CE JUMP JUMPDEST PUSH1 0x3 PUSH1 0x0 DUP4 DUP2 MSTORE PUSH1 0x20 ADD SWAP1 DUP2 MSTORE PUSH1 0x20 ADD PUSH1 0x0 KECCAK256 PUSH1 0x6 ADD PUSH1 0x0 DUP2 SLOAD DUP1 SWAP3 SWAP2 SWAP1 PUSH2 0x35C8 SWAP1 PUSH2 0x5892 JUMP JUMPDEST SWAP2 SWAP1 POP SSTORE POP JUMPDEST PUSH32 0xF2913DBE661EE2ACC4A046D8FBCDC792373BDA34C41C6086484B5345E5785E5F DUP3 CALLER DUP4 PUSH1 0x40 MLOAD PUSH2 0x3601 SWAP4 SWAP3 SWAP2 SWAP1 PUSH2 0x5DF6 JUMP JUMPDEST PUSH1 0x40 MLOAD DUP1 SWAP2 SUB SWAP1 LOG1 POP POP JUMP JUMPDEST PUSH1 0x0 PUSH1 0x2 PUSH1 0x0 CALLER PUSH20 0xFFFFFFFFFFFFFFFFFFFFFFFFFFFFFFFFFFFFFFFF AND PUSH20 0xFFFFFFFFFFFFFFFFFFFFFFFFFFFFFFFFFFFFFFFF AND DUP2 MSTORE PUSH1 0x20 ADD SWAP1 DUP2 MSTORE PUSH1 0x20 ADD PUSH1 0x0 KECCAK256 PUSH1 0x0 ADD SLOAD GT PUSH2 0x3692 JUMPI PUSH1 0x40 MLOAD PUSH32 0x8C379A000000000000000000000000000000000000000000000000000000000 DUP2 MSTORE PUSH1 0x4 ADD PUSH2 0x3689 SWAP1 PUSH2 0x5C92 JUMP JUMPDEST PUSH1 0x40 MLOAD DUP1 SWAP2 SUB SWAP1 REVERT JUMPDEST PUSH1 0x0 PUSH1 0x2 PUSH1 0x0 CALLER PUSH20 0xFFFFFFFFFFFFFFFFFFFFFFFFFFFFFFFFFFFFFFFF AND PUSH20 0xFFFFFFFFFFFFFFFFFFFFFFFFFFFFFFFFFFFFFFFF AND DUP2 MSTORE PUSH1 0x20 ADD SWAP1 DUP2 MSTORE PUSH1 0x20 ADD PUSH1 0x0 KECCAK256 PUSH1 0x0 ADD SLOAD SWAP1 POP PUSH1 0x0 PUSH1 0x2 PUSH1 0x0 CALLER PUSH20 0xFFFFFFFFFFFFFFFFFFFFFFFFFFFFFFFFFFFFFFFF AND PUSH20 0xFFFFFFFFFFFFFFFFFFFFFFFFFFFFFFFFFFFFFFFF AND DUP2 MSTORE PUSH1 0x20 ADD SWAP1 DUP2 MSTORE PUSH1 0x20 ADD PUSH1 0x0 KECCAK256 PUSH1 0x0 ADD DUP2 SWAP1 SSTORE POP PUSH1 0x0 CALLER PUSH20 0xFFFFFFFFFFFFFFFFFFFFFFFFFFFFFFFFFFFFFFFF AND DUP3 PUSH1 0x40 MLOAD PUSH2 0x3747 SWAP1 PUSH2 0x557E JUMP JUMPDEST PUSH1 0x0 PUSH1 0x40 MLOAD DUP1 DUP4 SUB DUP2 DUP6 DUP8 GAS CALL SWAP3 POP POP POP RETURNDATASIZE DUP1 PUSH1 0x0 DUP2 EQ PUSH2 0x3784 JUMPI PUSH1 0x40 MLOAD SWAP2 POP PUSH1 0x1F NOT PUSH1 0x3F RETURNDATASIZE ADD AND DUP3 ADD PUSH1 0x40 MSTORE RETURNDATASIZE DUP3 MSTORE RETURNDATASIZE PUSH1 0x0 PUSH1 0x20 DUP5 ADD RETURNDATACOPY PUSH2 0x3789 JUMP JUMPDEST PUSH1 0x60 SWAP2 POP JUMPDEST POP POP SWAP1 POP DUP1 PUSH2 0x37CD JUMPI PUSH1 0x40 MLOAD PUSH32 0x8C379A000000000000000000000000000000000000000000000000000000000 DUP2 MSTORE PUSH1 0x4 ADD PUSH2 0x37C4 SWAP1 PUSH2 0x5A24 JUMP JUMPDEST PUSH1 0x40 MLOAD DUP1 SWAP2 SUB SWAP1 REVERT JUMPDEST PUSH1 0x2 PUSH1 0x0 CALLER PUSH20 0xFFFFFFFFFFFFFFFFFFFFFFFFFFFFFFFFFFFFFFFF AND PUSH20 0xFFFFFFFFFFFFFFFFFFFFFFFFFFFFFFFFFFFFFFFF AND DUP2 MSTORE PUSH1 0x20 ADD SWAP1 DUP2 MSTORE PUSH1 0x20 ADD PUSH1 0x0 KECCAK256 PUSH1 0x0 DUP1 DUP3 ADD PUSH1 0x0 SWAP1 SSTORE POP POP POP POP JUMP JUMPDEST PUSH1 0x1 PUSH1 0x20 MSTORE DUP1 PUSH1 0x0 MSTORE PUSH1 0x40 PUSH1 0x0 KECCAK256 PUSH1 0x0 SWAP2 POP SWAP1 POP DUP1 PUSH1 0x0 ADD DUP1 SLOAD PUSH2 0x383E SWAP1 PUSH2 0x4FDE JUMP JUMPDEST DUP1 PUSH1 0x1F ADD PUSH1 0x20 DUP1 SWAP2 DIV MUL PUSH1 0x20 ADD PUSH1 0x40 MLOAD SWAP1 DUP2 ADD PUSH1 0x40 MSTORE DUP1 SWAP3 SWAP2 SWAP1 DUP2 DUP2 MSTORE PUSH1 0x20 ADD DUP3 DUP1 SLOAD PUSH2 0x386A SWAP1 PUSH2 0x4FDE JUMP JUMPDEST DUP1 ISZERO PUSH2 0x38B7 JUMPI DUP1 PUSH1 0x1F LT PUSH2 0x388C JUMPI PUSH2 0x100 DUP1 DUP4 SLOAD DIV MUL DUP4 MSTORE SWAP2 PUSH1 0x20 ADD SWAP2 PUSH2 0x38B7 JUMP JUMPDEST DUP3 ADD SWAP2 SWAP1 PUSH1 0x0 MSTORE PUSH1 0x20 PUSH1 0x0 KECCAK256 SWAP1 JUMPDEST DUP2 SLOAD DUP2 MSTORE SWAP1 PUSH1 0x1 ADD SWAP1 PUSH1 0x20 ADD DUP1 DUP4 GT PUSH2 0x389A JUMPI DUP3 SWAP1 SUB PUSH1 0x1F AND DUP3 ADD SWAP2 JUMPDEST POP POP POP POP POP SWAP1 DUP1 PUSH1 0x1 ADD DUP1 SLOAD PUSH2 0x38CC SWAP1 PUSH2 0x4FDE JUMP JUMPDEST DUP1 PUSH1 0x1F ADD PUSH1 0x20 DUP1 SWAP2 DIV MUL PUSH1 0x20 ADD PUSH1 0x40 MLOAD SWAP1 DUP2 ADD PUSH1 0x40 MSTORE DUP1 SWAP3 SWAP2 SWAP1 DUP2 DUP2 MSTORE PUSH1 0x20 ADD DUP3 DUP1 SLOAD PUSH2 0x38F8 SWAP1 PUSH2 0x4FDE JUMP JUMPDEST DUP1 ISZERO PUSH2 0x3945 JUMPI DUP1 PUSH1 0x1F LT PUSH2 0x391A JUMPI PUSH2 0x100 DUP1 DUP4 SLOAD DIV MUL DUP4 MSTORE SWAP2 PUSH1 0x20 ADD SWAP2 PUSH2 0x3945 JUMP JUMPDEST DUP3 ADD SWAP2 SWAP1 PUSH1 0x0 MSTORE PUSH1 0x20 PUSH1 0x0 KECCAK256 SWAP1 JUMPDEST DUP2 SLOAD DUP2 MSTORE SWAP1 PUSH1 0x1 ADD SWAP1 PUSH1 0x20 ADD DUP1 DUP4 GT PUSH2 0x3928 JUMPI DUP3 SWAP1 SUB PUSH1 0x1F AND DUP3 ADD SWAP2 JUMPDEST POP POP POP POP POP SWAP1 DUP1 PUSH1 0x2 ADD SLOAD SWAP1 DUP1 PUSH1 0x3 ADD DUP1 SLOAD PUSH2 0x3960 SWAP1 PUSH2 0x4FDE JUMP JUMPDEST DUP1 PUSH1 0x1F ADD PUSH1 0x20 DUP1 SWAP2 DIV MUL PUSH1 0x20 ADD PUSH1 0x40 MLOAD SWAP1 DUP2 ADD PUSH1 0x40 MSTORE DUP1 SWAP3 SWAP2 SWAP1 DUP2 DUP2 MSTORE PUSH1 0x20 ADD DUP3 DUP1 SLOAD PUSH2 0x398C SWAP1 PUSH2 0x4FDE JUMP JUMPDEST DUP1 ISZERO PUSH2 0x39D9 JUMPI DUP1 PUSH1 0x1F LT PUSH2 0x39AE JUMPI PUSH2 0x100 DUP1 DUP4 SLOAD DIV MUL DUP4 MSTORE SWAP2 PUSH1 0x20 ADD SWAP2 PUSH2 0x39D9 JUMP JUMPDEST DUP3 ADD SWAP2 SWAP1 PUSH1 0x0 MSTORE PUSH1 0x20 PUSH1 0x0 KECCAK256 SWAP1 JUMPDEST DUP2 SLOAD DUP2 MSTORE SWAP1 PUSH1 0x1 ADD SWAP1 PUSH1 0x20 ADD DUP1 DUP4 GT PUSH2 0x39BC JUMPI DUP3 SWAP1 SUB PUSH1 0x1F AND DUP3 ADD SWAP2 JUMPDEST POP POP POP POP POP SWAP1 POP DUP5 JUMP JUMPDEST PUSH1 0x0 CALLVALUE GT PUSH2 0x3A26 JUMPI PUSH1 0x40 MLOAD PUSH32 0x8C379A000000000000000000000000000000000000000000000000000000000 DUP2 MSTORE PUSH1 0x4 ADD PUSH2 0x3A1D SWAP1 PUSH2 0x579A JUMP JUMPDEST PUSH1 0x40 MLOAD DUP1 SWAP2 SUB SWAP1 REVERT JUMPDEST PUSH1 0x0 PUSH1 0x2 PUSH1 0x0 CALLER PUSH20 0xFFFFFFFFFFFFFFFFFFFFFFFFFFFFFFFFFFFFFFFF AND PUSH20 0xFFFFFFFFFFFFFFFFFFFFFFFFFFFFFFFFFFFFFFFF AND DUP2 MSTORE PUSH1 0x20 ADD SWAP1 DUP2 MSTORE PUSH1 0x20 ADD PUSH1 0x0 KECCAK256 PUSH1 0x0 ADD SLOAD EQ PUSH2 0x3AAB JUMPI PUSH1 0x40 MLOAD PUSH32 0x8C379A000000000000000000000000000000000000000000000000000000000 DUP2 MSTORE PUSH1 0x4 ADD PUSH2 0x3AA2 SWAP1 PUSH2 0x5E79 JUMP JUMPDEST PUSH1 0x40 MLOAD DUP1 SWAP2 SUB SWAP1 REVERT JUMPDEST CALLVALUE PUSH1 0x2 PUSH1 0x0 CALLER PUSH20 0xFFFFFFFFFFFFFFFFFFFFFFFFFFFFFFFFFFFFFFFF AND PUSH20 0xFFFFFFFFFFFFFFFFFFFFFFFFFFFFFFFFFFFFFFFF AND DUP2 MSTORE PUSH1 0x20 ADD SWAP1 DUP2 MSTORE PUSH1 0x20 ADD PUSH1 0x0 KECCAK256 PUSH1 0x0 ADD DUP2 SWAP1 SSTORE POP JUMP JUMPDEST PUSH1 0x0 PUSH20 0xFFFFFFFFFFFFFFFFFFFFFFFFFFFFFFFFFFFFFFFF AND PUSH1 0x3 PUSH1 0x0 DUP4 DUP2 MSTORE PUSH1 0x20 ADD SWAP1 DUP2 MSTORE PUSH1 0x20 ADD PUSH1 0x0 KECCAK256 PUSH1 0x2 ADD PUSH1 0x0 SWAP1 SLOAD SWAP1 PUSH2 0x100 EXP SWAP1 DIV PUSH20 0xFFFFFFFFFFFFFFFFFFFFFFFFFFFFFFFFFFFFFFFF AND PUSH20 0xFFFFFFFFFFFFFFFFFFFFFFFFFFFFFFFFFFFFFFFF AND SUB PUSH2 0x3B99 JUMPI PUSH1 0x40 MLOAD PUSH32 0x8C379A000000000000000000000000000000000000000000000000000000000 DUP2 MSTORE PUSH1 0x4 ADD PUSH2 0x3B90 SWAP1 PUSH2 0x4F8F JUMP JUMPDEST PUSH1 0x40 MLOAD DUP1 SWAP2 SUB SWAP1 REVERT JUMPDEST PUSH1 0x0 CALLVALUE GT PUSH2 0x3BDC JUMPI PUSH1 0x40 MLOAD PUSH32 0x8C379A000000000000000000000000000000000000000000000000000000000 DUP2 MSTORE PUSH1 0x4 ADD PUSH2 0x3BD3 SWAP1 PUSH2 0x5EE5 JUMP JUMPDEST PUSH1 0x40 MLOAD DUP1 SWAP2 SUB SWAP1 REVERT JUMPDEST PUSH1 0x40 MLOAD DUP1 PUSH1 0x40 ADD PUSH1 0x40 MSTORE DUP1 PUSH1 0x7 DUP2 MSTORE PUSH1 0x20 ADD PUSH32 0x70656E64696E6700000000000000000000000000000000000000000000000000 DUP2 MSTORE POP DUP1 MLOAD SWAP1 PUSH1 0x20 ADD KECCAK256 PUSH1 0x3 PUSH1 0x0 DUP4 DUP2 MSTORE PUSH1 0x20 ADD SWAP1 DUP2 MSTORE PUSH1 0x20 ADD PUSH1 0x0 KECCAK256 PUSH1 0x4 ADD PUSH1 0x40 MLOAD PUSH2 0x3C3C SWAP2 SWAP1 PUSH2 0x50B2 JUMP JUMPDEST PUSH1 0x40 MLOAD DUP1 SWAP2 SUB SWAP1 KECCAK256 EQ PUSH2 0x3C84 JUMPI PUSH1 0x40 MLOAD PUSH32 0x8C379A000000000000000000000000000000000000000000000000000000000 DUP2 MSTORE PUSH1 0x4 ADD PUSH2 0x3C7B SWAP1 PUSH2 0x5D6A JUMP JUMPDEST PUSH1 0x40 MLOAD DUP1 SWAP2 SUB SWAP1 REVERT JUMPDEST CALLVALUE PUSH1 0x3 PUSH1 0x0 DUP4 DUP2 MSTORE PUSH1 0x20 ADD SWAP1 DUP2 MSTORE PUSH1 0x20 ADD PUSH1 0x0 KECCAK256 PUSH1 0x7 ADD PUSH1 0x0 DUP3 DUP3 SLOAD PUSH2 0x3CAA SWAP2 SWAP1 PUSH2 0x5164 JUMP JUMPDEST SWAP3 POP POP DUP2 SWAP1 SSTORE POP PUSH1 0x4 PUSH1 0x0 DUP3 DUP2 MSTORE PUSH1 0x20 ADD SWAP1 DUP2 MSTORE PUSH1 0x20 ADD PUSH1 0x0 KECCAK256 PUSH1 0x40 MLOAD DUP1 PUSH1 0x60 ADD PUSH1 0x40 MSTORE DUP1 CALLER PUSH20 0xFFFFFFFFFFFFFFFFFFFFFFFFFFFFFFFFFFFFFFFF AND DUP2 MSTORE PUSH1 0x20 ADD CALLVALUE DUP2 MSTORE PUSH1 0x20 ADD TIMESTAMP DUP2 MSTORE POP SWAP1 DUP1 PUSH1 0x1 DUP2 SLOAD ADD DUP1 DUP3 SSTORE DUP1 SWAP2 POP POP PUSH1 0x1 SWAP1 SUB SWAP1 PUSH1 0x0 MSTORE PUSH1 0x20 PUSH1 0x0 KECCAK256 SWAP1 PUSH1 0x3 MUL ADD PUSH1 0x0 SWAP1 SWAP2 SWAP1 SWAP2 SWAP1 SWAP2 POP PUSH1 0x0 DUP3 ADD MLOAD DUP2 PUSH1 0x0 ADD PUSH1 0x0 PUSH2 0x100 EXP DUP2 SLOAD DUP2 PUSH20 0xFFFFFFFFFFFFFFFFFFFFFFFFFFFFFFFFFFFFFFFF MUL NOT AND SWAP1 DUP4 PUSH20 0xFFFFFFFFFFFFFFFFFFFFFFFFFFFFFFFFFFFFFFFF AND MUL OR SWAP1 SSTORE POP PUSH1 0x20 DUP3 ADD MLOAD DUP2 PUSH1 0x1 ADD SSTORE PUSH1 0x40 DUP3 ADD MLOAD DUP2 PUSH1 0x2 ADD SSTORE POP POP PUSH32 0x27E413B8931DC4CB7EDC879292EBC482A3047336D03423EA91ADDAE7A2CF850A DUP2 CALLER CALLVALUE PUSH1 0x1 PUSH1 0x4 PUSH1 0x0 DUP8 DUP2 MSTORE PUSH1 0x20 ADD SWAP1 DUP2 MSTORE PUSH1 0x20 ADD PUSH1 0x0 KECCAK256 DUP1 SLOAD SWAP1 POP PUSH2 0x3DC2 SWAP2 SWAP1 PUSH2 0x52A6 JUMP JUMPDEST PUSH1 0x40 MLOAD PUSH2 0x3DD2 SWAP5 SWAP4 SWAP3 SWAP2 SWAP1 PUSH2 0x5F05 JUMP JUMPDEST PUSH1 0x40 MLOAD DUP1 SWAP2 SUB SWAP1 LOG1 POP JUMP JUMPDEST DUP3 DUP1 SLOAD DUP3 DUP3 SSTORE SWAP1 PUSH1 0x0 MSTORE PUSH1 0x20 PUSH1 0x0 KECCAK256 SWAP1 DUP2 ADD SWAP3 DUP3 ISZERO PUSH2 0x3E19 JUMPI SWAP2 PUSH1 0x20 MUL DUP3 ADD JUMPDEST DUP3 DUP2 GT ISZERO PUSH2 0x3E18 JUMPI DUP3 MLOAD DUP3 SSTORE SWAP2 PUSH1 0x20 ADD SWAP2 SWAP1 PUSH1 0x1 ADD SWAP1 PUSH2 0x3DFD JUMP JUMPDEST JUMPDEST POP SWAP1 POP PUSH2 0x3E26 SWAP2 SWAP1 PUSH2 0x3F2D JUMP JUMPDEST POP SWAP1 JUMP JUMPDEST PUSH1 0x40 MLOAD DUP1 PUSH1 0x80 ADD PUSH1 0x40 MSTORE DUP1 PUSH1 0x0 DUP2 MSTORE PUSH1 0x20 ADD PUSH1 0x60 DUP2 MSTORE PUSH1 0x20 ADD PUSH1 0x60 DUP2 MSTORE PUSH1 0x20 ADD PUSH1 0x60 DUP2 MSTORE POP SWAP1 JUMP JUMPDEST PUSH1 0x40 MLOAD DUP1 PUSH1 0x60 ADD PUSH1 0x40 MSTORE DUP1 PUSH1 0x0 DUP2 MSTORE PUSH1 0x20 ADD PUSH1 0x60 DUP2 MSTORE PUSH1 0x20 ADD PUSH1 0x60 DUP2 MSTORE POP SWAP1 JUMP JUMPDEST POP DUP1 SLOAD PUSH2 0x3E7F SWAP1 PUSH2 0x4FDE JUMP JUMPDEST PUSH1 0x0 DUP3 SSTORE DUP1 PUSH1 0x1F LT PUSH2 0x3E91 JUMPI POP PUSH2 0x3EB0 JUMP JUMPDEST PUSH1 0x1F ADD PUSH1 0x20 SWAP1 DIV SWAP1 PUSH1 0x0 MSTORE PUSH1 0x20 PUSH1 0x0 KECCAK256 SWAP1 DUP2 ADD SWAP1 PUSH2 0x3EAF SWAP2 SWAP1 PUSH2 0x3F2D JUMP JUMPDEST JUMPDEST POP JUMP JUMPDEST POP DUP1 SLOAD PUSH1 0x0 DUP3 SSTORE SWAP1 PUSH1 0x0 MSTORE PUSH1 0x20 PUSH1 0x0 KECCAK256 SWAP1 DUP2 ADD SWAP1 PUSH2 0x3ED1 SWAP2 SWAP1 PUSH2 0x3F2D JUMP JUMPDEST POP JUMP JUMPDEST DUP3 DUP1 SLOAD DUP3 DUP3 SSTORE SWAP1 PUSH1 0x0 MSTORE PUSH1 0x20 PUSH1 0x0 KECCAK256 SWAP1 DUP2 ADD SWAP3 DUP3 ISZERO PUSH2 0x3F1C JUMPI SWAP2 PUSH1 0x20 MUL DUP3 ADD JUMPDEST DUP3 DUP2 GT ISZERO PUSH2 0x3F1B JUMPI DUP3 MLOAD DUP3 SWAP1 DUP2 PUSH2 0x3F0B SWAP2 SWAP1 PUSH2 0x5486 JUMP JUMPDEST POP SWAP2 PUSH1 0x20 ADD SWAP2 SWAP1 PUSH1 0x1 ADD SWAP1 PUSH2 0x3EF4 JUMP JUMPDEST JUMPDEST POP SWAP1 POP PUSH2 0x3F29 SWAP2 SWAP1 PUSH2 0x3F4A JUMP JUMPDEST POP SWAP1 JUMP JUMPDEST JUMPDEST DUP1 DUP3 GT ISZERO PUSH2 0x3F46 JUMPI PUSH1 0x0 DUP2 PUSH1 0x0 SWAP1 SSTORE POP PUSH1 0x1 ADD PUSH2 0x3F2E JUMP JUMPDEST POP SWAP1 JUMP JUMPDEST JUMPDEST DUP1 DUP3 GT ISZERO PUSH2 0x3F6A JUMPI PUSH1 0x0 DUP2 DUP2 PUSH2 0x3F61 SWAP2 SWAP1 PUSH2 0x3E73 JUMP JUMPDEST POP PUSH1 0x1 ADD PUSH2 0x3F4B JUMP JUMPDEST POP SWAP1 JUMP JUMPDEST PUSH1 0x0 PUSH1 0x40 MLOAD SWAP1 POP SWAP1 JUMP JUMPDEST PUSH1 0x0 DUP1 REVERT JUMPDEST PUSH1 0x0 DUP1 REVERT JUMPDEST PUSH1 0x0 DUP2 SWAP1 POP SWAP2 SWAP1 POP JUMP JUMPDEST PUSH2 0x3F95 DUP2 PUSH2 0x3F82 JUMP JUMPDEST DUP2 EQ PUSH2 0x3FA0 JUMPI PUSH1 0x0 DUP1 REVERT JUMPDEST POP JUMP JUMPDEST PUSH1 0x0 DUP2 CALLDATALOAD SWAP1 POP PUSH2 0x3FB2 DUP2 PUSH2 0x3F8C JUMP JUMPDEST SWAP3 SWAP2 POP POP JUMP JUMPDEST PUSH1 0x0 PUSH1 0x20 DUP3 DUP5 SUB SLT ISZERO PUSH2 0x3FCE JUMPI PUSH2 0x3FCD PUSH2 0x3F78 JUMP JUMPDEST JUMPDEST PUSH1 0x0 PUSH2 0x3FDC DUP5 DUP3 DUP6 ADD PUSH2 0x3FA3 JUMP JUMPDEST SWAP2 POP POP SWAP3 SWAP2 POP POP JUMP JUMPDEST PUSH1 0x0 PUSH20 0xFFFFFFFFFFFFFFFFFFFFFFFFFFFFFFFFFFFFFFFF DUP3 AND SWAP1 POP SWAP2 SWAP1 POP JUMP JUMPDEST PUSH1 0x0 PUSH2 0x4010 DUP3 PUSH2 0x3FE5 JUMP JUMPDEST SWAP1 POP SWAP2 SWAP1 POP JUMP JUMPDEST PUSH2 0x4020 DUP2 PUSH2 0x4005 JUMP JUMPDEST DUP3 MSTORE POP POP JUMP JUMPDEST PUSH1 0x0 DUP2 MLOAD SWAP1 POP SWAP2 SWAP1 POP JUMP JUMPDEST PUSH1 0x0 DUP3 DUP3 MSTORE PUSH1 0x20 DUP3 ADD SWAP1 POP SWAP3 SWAP2 POP POP JUMP JUMPDEST PUSH1 0x0 DUP2 SWAP1 POP PUSH1 0x20 DUP3 ADD SWAP1 POP SWAP2 SWAP1 POP JUMP JUMPDEST PUSH1 0x0 DUP2 MLOAD SWAP1 POP SWAP2 SWAP1 POP JUMP JUMPDEST PUSH1 0x0 DUP3 DUP3 MSTORE PUSH1 0x20 DUP3 ADD SWAP1 POP SWAP3 SWAP2 POP POP JUMP JUMPDEST PUSH1 0x0 JUMPDEST DUP4 DUP2 LT ISZERO PUSH2 0x408C JUMPI DUP1 DUP3 ADD MLOAD DUP2 DUP5 ADD MSTORE PUSH1 0x20 DUP2 ADD SWAP1 POP PUSH2 0x4071 JUMP JUMPDEST PUSH1 0x0 DUP5 DUP5 ADD MSTORE POP POP POP POP JUMP JUMPDEST PUSH1 0x0 PUSH1 0x1F NOT PUSH1 0x1F DUP4 ADD AND SWAP1 POP SWAP2 SWAP1 POP JUMP JUMPDEST PUSH1 0x0 PUSH2 0x40B4 DUP3 PUSH2 0x4052 JUMP JUMPDEST PUSH2 0x40BE DUP2 DUP6 PUSH2 0x405D JUMP JUMPDEST SWAP4 POP PUSH2 0x40CE DUP2 DUP6 PUSH1 0x20 DUP7 ADD PUSH2 0x406E JUMP JUMPDEST PUSH2 0x40D7 DUP2 PUSH2 0x4098 JUMP JUMPDEST DUP5 ADD SWAP2 POP POP SWAP3 SWAP2 POP POP JUMP JUMPDEST PUSH1 0x0 PUSH2 0x40EE DUP4 DUP4 PUSH2 0x40A9 JUMP JUMPDEST SWAP1 POP SWAP3 SWAP2 POP POP JUMP JUMPDEST PUSH1 0x0 PUSH1 0x20 DUP3 ADD SWAP1 POP SWAP2 SWAP1 POP JUMP JUMPDEST PUSH1 0x0 PUSH2 0x410E DUP3 PUSH2 0x4026 JUMP JUMPDEST PUSH2 0x4118 DUP2 DUP6 PUSH2 0x4031 JUMP JUMPDEST SWAP4 POP DUP4 PUSH1 0x20 DUP3 MUL DUP6 ADD PUSH2 0x412A DUP6 PUSH2 0x4042 JUMP JUMPDEST DUP1 PUSH1 0x0 JUMPDEST DUP6 DUP2 LT ISZERO PUSH2 0x4166 JUMPI DUP5 DUP5 SUB DUP10 MSTORE DUP2 MLOAD PUSH2 0x4147 DUP6 DUP3 PUSH2 0x40E2 JUMP JUMPDEST SWAP5 POP PUSH2 0x4152 DUP4 PUSH2 0x40F6 JUMP JUMPDEST SWAP3 POP PUSH1 0x20 DUP11 ADD SWAP10 POP POP PUSH1 0x1 DUP2 ADD SWAP1 POP PUSH2 0x412E JUMP JUMPDEST POP DUP3 SWAP8 POP DUP8 SWAP6 POP POP POP POP POP POP SWAP3 SWAP2 POP POP JUMP JUMPDEST PUSH1 0x0 DUP3 DUP3 MSTORE PUSH1 0x20 DUP3 ADD SWAP1 POP SWAP3 SWAP2 POP POP JUMP JUMPDEST PUSH1 0x0 PUSH2 0x4194 DUP3 PUSH2 0x4052 JUMP JUMPDEST PUSH2 0x419E DUP2 DUP6 PUSH2 0x4178 JUMP JUMPDEST SWAP4 POP PUSH2 0x41AE DUP2 DUP6 PUSH1 0x20 DUP7 ADD PUSH2 0x406E JUMP JUMPDEST PUSH2 0x41B7 DUP2 PUSH2 0x4098 JUMP JUMPDEST DUP5 ADD SWAP2 POP POP SWAP3 SWAP2 POP POP JUMP JUMPDEST PUSH2 0x41CB DUP2 PUSH2 0x3F82 JUMP JUMPDEST DUP3 MSTORE POP POP JUMP JUMPDEST PUSH1 0x0 PUSH2 0x140 DUP3 ADD SWAP1 POP PUSH2 0x41E7 PUSH1 0x0 DUP4 ADD DUP14 PUSH2 0x4017 JUMP JUMPDEST DUP2 DUP2 SUB PUSH1 0x20 DUP4 ADD MSTORE PUSH2 0x41F9 DUP2 DUP13 PUSH2 0x4103 JUMP JUMPDEST SWAP1 POP DUP2 DUP2 SUB PUSH1 0x40 DUP4 ADD MSTORE PUSH2 0x420D DUP2 DUP12 PUSH2 0x4189 JUMP JUMPDEST SWAP1 POP PUSH2 0x421C PUSH1 0x60 DUP4 ADD DUP11 PUSH2 0x41C2 JUMP JUMPDEST PUSH2 0x4229 PUSH1 0x80 DUP4 ADD DUP10 PUSH2 0x41C2 JUMP JUMPDEST PUSH2 0x4236 PUSH1 0xA0 DUP4 ADD DUP9 PUSH2 0x41C2 JUMP JUMPDEST PUSH2 0x4243 PUSH1 0xC0 DUP4 ADD DUP8 PUSH2 0x41C2 JUMP JUMPDEST PUSH2 0x4250 PUSH1 0xE0 DUP4 ADD DUP7 PUSH2 0x41C2 JUMP JUMPDEST DUP2 DUP2 SUB PUSH2 0x100 DUP4 ADD MSTORE PUSH2 0x4263 DUP2 DUP6 PUSH2 0x4189 JUMP JUMPDEST SWAP1 POP DUP2 DUP2 SUB PUSH2 0x120 DUP4 ADD MSTORE PUSH2 0x4278 DUP2 DUP5 PUSH2 0x4189 JUMP JUMPDEST SWAP1 POP SWAP12 SWAP11 POP POP POP POP POP POP POP POP POP POP POP JUMP JUMPDEST PUSH1 0x0 DUP1 PUSH1 0x40 DUP4 DUP6 SUB SLT ISZERO PUSH2 0x42A0 JUMPI PUSH2 0x429F PUSH2 0x3F78 JUMP JUMPDEST JUMPDEST PUSH1 0x0 PUSH2 0x42AE DUP6 DUP3 DUP7 ADD PUSH2 0x3FA3 JUMP JUMPDEST SWAP3 POP POP PUSH1 0x20 PUSH2 0x42BF DUP6 DUP3 DUP7 ADD PUSH2 0x3FA3 JUMP JUMPDEST SWAP2 POP POP SWAP3 POP SWAP3 SWAP1 POP JUMP JUMPDEST PUSH1 0x0 PUSH1 0x60 DUP3 ADD SWAP1 POP PUSH2 0x42DE PUSH1 0x0 DUP4 ADD DUP7 PUSH2 0x4017 JUMP JUMPDEST PUSH2 0x42EB PUSH1 0x20 DUP4 ADD DUP6 PUSH2 0x41C2 JUMP JUMPDEST PUSH2 0x42F8 PUSH1 0x40 DUP4 ADD DUP5 PUSH2 0x41C2 JUMP JUMPDEST SWAP5 SWAP4 POP POP POP POP JUMP JUMPDEST PUSH2 0x4309 DUP2 PUSH2 0x4005 JUMP JUMPDEST DUP2 EQ PUSH2 0x4314 JUMPI PUSH1 0x0 DUP1 REVERT JUMPDEST POP JUMP JUMPDEST PUSH1 0x0 DUP2 CALLDATALOAD SWAP1 POP PUSH2 0x4326 DUP2 PUSH2 0x4300 JUMP JUMPDEST SWAP3 SWAP2 POP POP JUMP JUMPDEST PUSH1 0x0 DUP1 PUSH1 0x40 DUP4 DUP6 SUB SLT ISZERO PUSH2 0x4343 JUMPI PUSH2 0x4342 PUSH2 0x3F78 JUMP JUMPDEST JUMPDEST PUSH1 0x0 PUSH2 0x4351 DUP6 DUP3 DUP7 ADD PUSH2 0x4317 JUMP JUMPDEST SWAP3 POP POP PUSH1 0x20 PUSH2 0x4362 DUP6 DUP3 DUP7 ADD PUSH2 0x3FA3 JUMP JUMPDEST SWAP2 POP POP SWAP3 POP SWAP3 SWAP1 POP JUMP JUMPDEST PUSH1 0x0 DUP2 ISZERO ISZERO SWAP1 POP SWAP2 SWAP1 POP JUMP JUMPDEST PUSH2 0x4381 DUP2 PUSH2 0x436C JUMP JUMPDEST DUP3 MSTORE POP POP JUMP JUMPDEST PUSH1 0x0 PUSH1 0x20 DUP3 ADD SWAP1 POP PUSH2 0x439C PUSH1 0x0 DUP4 ADD DUP5 PUSH2 0x4378 JUMP JUMPDEST SWAP3 SWAP2 POP POP JUMP JUMPDEST PUSH1 0x0 DUP1 REVERT JUMPDEST PUSH1 0x0 DUP1 REVERT JUMPDEST PUSH32 0x4E487B7100000000000000000000000000000000000000000000000000000000 PUSH1 0x0 MSTORE PUSH1 0x41 PUSH1 0x4 MSTORE PUSH1 0x24 PUSH1 0x0 REVERT JUMPDEST PUSH2 0x43E4 DUP3 PUSH2 0x4098 JUMP JUMPDEST DUP2 ADD DUP2 DUP2 LT PUSH8 0xFFFFFFFFFFFFFFFF DUP3 GT OR ISZERO PUSH2 0x4403 JUMPI PUSH2 0x4402 PUSH2 0x43AC JUMP JUMPDEST JUMPDEST DUP1 PUSH1 0x40 MSTORE POP POP POP JUMP JUMPDEST PUSH1 0x0 PUSH2 0x4416 PUSH2 0x3F6E JUMP JUMPDEST SWAP1 POP PUSH2 0x4422 DUP3 DUP3 PUSH2 0x43DB JUMP JUMPDEST SWAP2 SWAP1 POP JUMP JUMPDEST PUSH1 0x0 PUSH8 0xFFFFFFFFFFFFFFFF DUP3 GT ISZERO PUSH2 0x4442 JUMPI PUSH2 0x4441 PUSH2 0x43AC JUMP JUMPDEST JUMPDEST PUSH2 0x444B DUP3 PUSH2 0x4098 JUMP JUMPDEST SWAP1 POP PUSH1 0x20 DUP2 ADD SWAP1 POP SWAP2 SWAP1 POP JUMP JUMPDEST DUP3 DUP2 DUP4 CALLDATACOPY PUSH1 0x0 DUP4 DUP4 ADD MSTORE POP POP POP JUMP JUMPDEST PUSH1 0x0 PUSH2 0x447A PUSH2 0x4475 DUP5 PUSH2 0x4427 JUMP JUMPDEST PUSH2 0x440C JUMP JUMPDEST SWAP1 POP DUP3 DUP2 MSTORE PUSH1 0x20 DUP2 ADD DUP5 DUP5 DUP5 ADD GT ISZERO PUSH2 0x4496 JUMPI PUSH2 0x4495 PUSH2 0x43A7 JUMP JUMPDEST JUMPDEST PUSH2 0x44A1 DUP5 DUP3 DUP6 PUSH2 0x4458 JUMP JUMPDEST POP SWAP4 SWAP3 POP POP POP JUMP JUMPDEST PUSH1 0x0 DUP3 PUSH1 0x1F DUP4 ADD SLT PUSH2 0x44BE JUMPI PUSH2 0x44BD PUSH2 0x43A2 JUMP JUMPDEST JUMPDEST DUP2 CALLDATALOAD PUSH2 0x44CE DUP5 DUP3 PUSH1 0x20 DUP7 ADD PUSH2 0x4467 JUMP JUMPDEST SWAP2 POP POP SWAP3 SWAP2 POP POP JUMP JUMPDEST PUSH1 0x0 DUP1 PUSH1 0x0 PUSH1 0x60 DUP5 DUP7 SUB SLT ISZERO PUSH2 0x44F0 JUMPI PUSH2 0x44EF PUSH2 0x3F78 JUMP JUMPDEST JUMPDEST PUSH1 0x0 DUP5 ADD CALLDATALOAD PUSH8 0xFFFFFFFFFFFFFFFF DUP2 GT ISZERO PUSH2 0x450E JUMPI PUSH2 0x450D PUSH2 0x3F7D JUMP JUMPDEST JUMPDEST PUSH2 0x451A DUP7 DUP3 DUP8 ADD PUSH2 0x44A9 JUMP JUMPDEST SWAP4 POP POP PUSH1 0x20 DUP5 ADD CALLDATALOAD PUSH8 0xFFFFFFFFFFFFFFFF DUP2 GT ISZERO PUSH2 0x453B JUMPI PUSH2 0x453A PUSH2 0x3F7D JUMP JUMPDEST JUMPDEST PUSH2 0x4547 DUP7 DUP3 DUP8 ADD PUSH2 0x44A9 JUMP JUMPDEST SWAP3 POP POP PUSH1 0x40 DUP5 ADD CALLDATALOAD PUSH8 0xFFFFFFFFFFFFFFFF DUP2 GT ISZERO PUSH2 0x4568 JUMPI PUSH2 0x4567 PUSH2 0x3F7D JUMP JUMPDEST JUMPDEST PUSH2 0x4574 DUP7 DUP3 DUP8 ADD PUSH2 0x44A9 JUMP JUMPDEST SWAP2 POP POP SWAP3 POP SWAP3 POP SWAP3 JUMP JUMPDEST PUSH1 0x0 PUSH1 0x20 DUP3 ADD SWAP1 POP PUSH2 0x4593 PUSH1 0x0 DUP4 ADD DUP5 PUSH2 0x41C2 JUMP JUMPDEST SWAP3 SWAP2 POP POP JUMP JUMPDEST PUSH1 0x0 DUP2 MLOAD SWAP1 POP SWAP2 SWAP1 POP JUMP JUMPDEST PUSH1 0x0 DUP3 DUP3 MSTORE PUSH1 0x20 DUP3 ADD SWAP1 POP SWAP3 SWAP2 POP POP JUMP JUMPDEST PUSH1 0x0 DUP2 SWAP1 POP PUSH1 0x20 DUP3 ADD SWAP1 POP SWAP2 SWAP1 POP JUMP JUMPDEST PUSH2 0x45CE DUP2 PUSH2 0x4005 JUMP JUMPDEST DUP3 MSTORE POP POP JUMP JUMPDEST PUSH2 0x45DD DUP2 PUSH2 0x3F82 JUMP JUMPDEST DUP3 MSTORE POP POP JUMP JUMPDEST PUSH1 0x60 DUP3 ADD PUSH1 0x0 DUP3 ADD MLOAD PUSH2 0x45F9 PUSH1 0x0 DUP6 ADD DUP3 PUSH2 0x45C5 JUMP JUMPDEST POP PUSH1 0x20 DUP3 ADD MLOAD PUSH2 0x460C PUSH1 0x20 DUP6 ADD DUP3 PUSH2 0x45D4 JUMP JUMPDEST POP PUSH1 0x40 DUP3 ADD MLOAD PUSH2 0x461F PUSH1 0x40 DUP6 ADD DUP3 PUSH2 0x45D4 JUMP JUMPDEST POP POP POP POP JUMP JUMPDEST PUSH1 0x0 PUSH2 0x4631 DUP4 DUP4 PUSH2 0x45E3 JUMP JUMPDEST PUSH1 0x60 DUP4 ADD SWAP1 POP SWAP3 SWAP2 POP POP JUMP JUMPDEST PUSH1 0x0 PUSH1 0x20 DUP3 ADD SWAP1 POP SWAP2 SWAP1 POP JUMP JUMPDEST PUSH1 0x0 PUSH2 0x4655 DUP3 PUSH2 0x4599 JUMP JUMPDEST PUSH2 0x465F DUP2 DUP6 PUSH2 0x45A4 JUMP JUMPDEST SWAP4 POP PUSH2 0x466A DUP4 PUSH2 0x45B5 JUMP JUMPDEST DUP1 PUSH1 0x0 JUMPDEST DUP4 DUP2 LT ISZERO PUSH2 0x469B JUMPI DUP2 MLOAD PUSH2 0x4682 DUP9 DUP3 PUSH2 0x4625 JUMP JUMPDEST SWAP8 POP PUSH2 0x468D DUP4 PUSH2 0x463D JUMP JUMPDEST SWAP3 POP POP PUSH1 0x1 DUP2 ADD SWAP1 POP PUSH2 0x466E JUMP JUMPDEST POP DUP6 SWAP4 POP POP POP POP SWAP3 SWAP2 POP POP JUMP JUMPDEST PUSH1 0x0 PUSH1 0x20 DUP3 ADD SWAP1 POP DUP2 DUP2 SUB PUSH1 0x0 DUP4 ADD MSTORE PUSH2 0x46C2 DUP2 DUP5 PUSH2 0x464A JUMP JUMPDEST SWAP1 POP SWAP3 SWAP2 POP POP JUMP JUMPDEST PUSH1 0x0 PUSH1 0x20 DUP3 DUP5 SUB SLT ISZERO PUSH2 0x46E0 JUMPI PUSH2 0x46DF PUSH2 0x3F78 JUMP JUMPDEST JUMPDEST PUSH1 0x0 PUSH2 0x46EE DUP5 DUP3 DUP6 ADD PUSH2 0x4317 JUMP JUMPDEST SWAP2 POP POP SWAP3 SWAP2 POP POP JUMP JUMPDEST PUSH1 0x0 DUP2 MLOAD SWAP1 POP SWAP2 SWAP1 POP JUMP JUMPDEST PUSH1 0x0 DUP3 DUP3 MSTORE PUSH1 0x20 DUP3 ADD SWAP1 POP SWAP3 SWAP2 POP POP JUMP JUMPDEST PUSH1 0x0 DUP2 SWAP1 POP PUSH1 0x20 DUP3 ADD SWAP1 POP SWAP2 SWAP1 POP JUMP JUMPDEST PUSH1 0x0 PUSH2 0x472F DUP4 DUP4 PUSH2 0x45D4 JUMP JUMPDEST PUSH1 0x20 DUP4 ADD SWAP1 POP SWAP3 SWAP2 POP POP JUMP JUMPDEST PUSH1 0x0 PUSH1 0x20 DUP3 ADD SWAP1 POP SWAP2 SWAP1 POP JUMP JUMPDEST PUSH1 0x0 PUSH2 0x4753 DUP3 PUSH2 0x46F7 JUMP JUMPDEST PUSH2 0x475D DUP2 DUP6 PUSH2 0x4702 JUMP JUMPDEST SWAP4 POP PUSH2 0x4768 DUP4 PUSH2 0x4713 JUMP JUMPDEST DUP1 PUSH1 0x0 JUMPDEST DUP4 DUP2 LT ISZERO PUSH2 0x4799 JUMPI DUP2 MLOAD PUSH2 0x4780 DUP9 DUP3 PUSH2 0x4723 JUMP JUMPDEST SWAP8 POP PUSH2 0x478B DUP4 PUSH2 0x473B JUMP JUMPDEST SWAP3 POP POP PUSH1 0x1 DUP2 ADD SWAP1 POP PUSH2 0x476C JUMP JUMPDEST POP DUP6 SWAP4 POP POP POP POP SWAP3 SWAP2 POP POP JUMP JUMPDEST PUSH1 0x0 PUSH1 0xA0 DUP3 ADD SWAP1 POP DUP2 DUP2 SUB PUSH1 0x0 DUP4 ADD MSTORE PUSH2 0x47C0 DUP2 DUP9 PUSH2 0x4189 JUMP JUMPDEST SWAP1 POP DUP2 DUP2 SUB PUSH1 0x20 DUP4 ADD MSTORE PUSH2 0x47D4 DUP2 DUP8 PUSH2 0x4189 JUMP JUMPDEST SWAP1 POP PUSH2 0x47E3 PUSH1 0x40 DUP4 ADD DUP7 PUSH2 0x41C2 JUMP JUMPDEST DUP2 DUP2 SUB PUSH1 0x60 DUP4 ADD MSTORE PUSH2 0x47F5 DUP2 DUP6 PUSH2 0x4748 JUMP JUMPDEST SWAP1 POP DUP2 DUP2 SUB PUSH1 0x80 DUP4 ADD MSTORE PUSH2 0x4809 DUP2 DUP5 PUSH2 0x4189 JUMP JUMPDEST SWAP1 POP SWAP7 SWAP6 POP POP POP POP POP POP JUMP JUMPDEST PUSH1 0x0 PUSH1 0x20 DUP3 ADD SWAP1 POP DUP2 DUP2 SUB PUSH1 0x0 DUP4 ADD MSTORE PUSH2 0x482F DUP2 DUP5 PUSH2 0x4748 JUMP JUMPDEST SWAP1 POP SWAP3 SWAP2 POP POP JUMP JUMPDEST PUSH1 0x0 PUSH1 0x40 DUP3 ADD SWAP1 POP DUP2 DUP2 SUB PUSH1 0x0 DUP4 ADD MSTORE PUSH2 0x4851 DUP2 DUP6 PUSH2 0x4748 JUMP JUMPDEST SWAP1 POP DUP2 DUP2 SUB PUSH1 0x20 DUP4 ADD MSTORE PUSH2 0x4865 DUP2 DUP5 PUSH2 0x4103 JUMP JUMPDEST SWAP1 POP SWAP4 SWAP3 POP POP POP JUMP JUMPDEST PUSH1 0x0 DUP2 MLOAD SWAP1 POP SWAP2 SWAP1 POP JUMP JUMPDEST PUSH1 0x0 DUP3 DUP3 MSTORE PUSH1 0x20 DUP3 ADD SWAP1 POP SWAP3 SWAP2 POP POP JUMP JUMPDEST PUSH1 0x0 DUP2 SWAP1 POP PUSH1 0x20 DUP3 ADD SWAP1 POP SWAP2 SWAP1 POP JUMP JUMPDEST PUSH1 0x0 DUP2 MLOAD SWAP1 POP SWAP2 SWAP1 POP JUMP JUMPDEST PUSH1 0x0 DUP3 DUP3 MSTORE PUSH1 0x20 DUP3 ADD SWAP1 POP SWAP3 SWAP2 POP POP JUMP JUMPDEST PUSH1 0x0 DUP2 SWAP1 POP PUSH1 0x20 DUP3 ADD SWAP1 POP SWAP2 SWAP1 POP JUMP JUMPDEST PUSH1 0x0 DUP3 DUP3 MSTORE PUSH1 0x20 DUP3 ADD SWAP1 POP SWAP3 SWAP2 POP POP JUMP JUMPDEST PUSH1 0x0 PUSH2 0x48E2 DUP3 PUSH2 0x4026 JUMP JUMPDEST PUSH2 0x48EC DUP2 DUP6 PUSH2 0x48C6 JUMP JUMPDEST SWAP4 POP DUP4 PUSH1 0x20 DUP3 MUL DUP6 ADD PUSH2 0x48FE DUP6 PUSH2 0x4042 JUMP JUMPDEST DUP1 PUSH1 0x0 JUMPDEST DUP6 DUP2 LT ISZERO PUSH2 0x493A JUMPI DUP5 DUP5 SUB DUP10 MSTORE DUP2 MLOAD PUSH2 0x491B DUP6 DUP3 PUSH2 0x40E2 JUMP JUMPDEST SWAP5 POP PUSH2 0x4926 DUP4 PUSH2 0x40F6 JUMP JUMPDEST SWAP3 POP PUSH1 0x20 DUP11 ADD SWAP10 POP POP PUSH1 0x1 DUP2 ADD SWAP1 POP PUSH2 0x4902 JUMP JUMPDEST POP DUP3 SWAP8 POP DUP8 SWAP6 POP POP POP POP POP POP SWAP3 SWAP2 POP POP JUMP JUMPDEST PUSH1 0x0 PUSH1 0x60 DUP4 ADD PUSH1 0x0 DUP4 ADD MLOAD PUSH2 0x4964 PUSH1 0x0 DUP7 ADD DUP3 PUSH2 0x45D4 JUMP JUMPDEST POP PUSH1 0x20 DUP4 ADD MLOAD DUP5 DUP3 SUB PUSH1 0x20 DUP7 ADD MSTORE PUSH2 0x497C DUP3 DUP3 PUSH2 0x40A9 JUMP JUMPDEST SWAP2 POP POP PUSH1 0x40 DUP4 ADD MLOAD DUP5 DUP3 SUB PUSH1 0x40 DUP7 ADD MSTORE PUSH2 0x4996 DUP3 DUP3 PUSH2 0x48D7 JUMP JUMPDEST SWAP2 POP POP DUP1 SWAP2 POP POP SWAP3 SWAP2 POP POP JUMP JUMPDEST PUSH1 0x0 PUSH2 0x49AF DUP4 DUP4 PUSH2 0x494C JUMP JUMPDEST SWAP1 POP SWAP3 SWAP2 POP POP JUMP JUMPDEST PUSH1 0x0 PUSH1 0x20 DUP3 ADD SWAP1 POP SWAP2 SWAP1 POP JUMP JUMPDEST PUSH1 0x0 PUSH2 0x49CF DUP3 PUSH2 0x489A JUMP JUMPDEST PUSH2 0x49D9 DUP2 DUP6 PUSH2 0x48A5 JUMP JUMPDEST SWAP4 POP DUP4 PUSH1 0x20 DUP3 MUL DUP6 ADD PUSH2 0x49EB DUP6 PUSH2 0x48B6 JUMP JUMPDEST DUP1 PUSH1 0x0 JUMPDEST DUP6 DUP2 LT ISZERO PUSH2 0x4A27 JUMPI DUP5 DUP5 SUB DUP10 MSTORE DUP2 MLOAD PUSH2 0x4A08 DUP6 DUP3 PUSH2 0x49A3 JUMP JUMPDEST SWAP5 POP PUSH2 0x4A13 DUP4 PUSH2 0x49B7 JUMP JUMPDEST SWAP3 POP PUSH1 0x20 DUP11 ADD SWAP10 POP POP PUSH1 0x1 DUP2 ADD SWAP1 POP PUSH2 0x49EF JUMP JUMPDEST POP DUP3 SWAP8 POP DUP8 SWAP6 POP POP POP POP POP POP SWAP3 SWAP2 POP POP JUMP JUMPDEST PUSH1 0x0 PUSH1 0x80 DUP4 ADD PUSH1 0x0 DUP4 ADD MLOAD PUSH2 0x4A51 PUSH1 0x0 DUP7 ADD DUP3 PUSH2 0x45D4 JUMP JUMPDEST POP PUSH1 0x20 DUP4 ADD MLOAD DUP5 DUP3 SUB PUSH1 0x20 DUP7 ADD MSTORE PUSH2 0x4A69 DUP3 DUP3 PUSH2 0x40A9 JUMP JUMPDEST SWAP2 POP POP PUSH1 0x40 DUP4 ADD MLOAD DUP5 DUP3 SUB PUSH1 0x40 DUP7 ADD MSTORE PUSH2 0x4A83 DUP3 DUP3 PUSH2 0x40A9 JUMP JUMPDEST SWAP2 POP POP PUSH1 0x60 DUP4 ADD MLOAD DUP5 DUP3 SUB PUSH1 0x60 DUP7 ADD MSTORE PUSH2 0x4A9D DUP3 DUP3 PUSH2 0x49C4 JUMP JUMPDEST SWAP2 POP POP DUP1 SWAP2 POP POP SWAP3 SWAP2 POP POP JUMP JUMPDEST PUSH1 0x0 PUSH2 0x4AB6 DUP4 DUP4 PUSH2 0x4A39 JUMP JUMPDEST SWAP1 POP SWAP3 SWAP2 POP POP JUMP JUMPDEST PUSH1 0x0 PUSH1 0x20 DUP3 ADD SWAP1 POP SWAP2 SWAP1 POP JUMP JUMPDEST PUSH1 0x0 PUSH2 0x4AD6 DUP3 PUSH2 0x486E JUMP JUMPDEST PUSH2 0x4AE0 DUP2 DUP6 PUSH2 0x4879 JUMP JUMPDEST SWAP4 POP DUP4 PUSH1 0x20 DUP3 MUL DUP6 ADD PUSH2 0x4AF2 DUP6 PUSH2 0x488A JUMP JUMPDEST DUP1 PUSH1 0x0 JUMPDEST DUP6 DUP2 LT ISZERO PUSH2 0x4B2E JUMPI DUP5 DUP5 SUB DUP10 MSTORE DUP2 MLOAD PUSH2 0x4B0F DUP6 DUP3 PUSH2 0x4AAA JUMP JUMPDEST SWAP5 POP PUSH2 0x4B1A DUP4 PUSH2 0x4ABE JUMP JUMPDEST SWAP3 POP PUSH1 0x20 DUP11 ADD SWAP10 POP POP PUSH1 0x1 DUP2 ADD SWAP1 POP PUSH2 0x4AF6 JUMP JUMPDEST POP DUP3 SWAP8 POP DUP8 SWAP6 POP POP POP POP POP POP SWAP3 SWAP2 POP POP JUMP JUMPDEST PUSH1 0x0 PUSH1 0x20 DUP3 ADD SWAP1 POP DUP2 DUP2 SUB PUSH1 0x0 DUP4 ADD MSTORE PUSH2 0x4B5A DUP2 DUP5 PUSH2 0x4ACB JUMP JUMPDEST SWAP1 POP SWAP3 SWAP2 POP POP JUMP JUMPDEST PUSH1 0x0 DUP2 MLOAD SWAP1 POP SWAP2 SWAP1 POP JUMP JUMPDEST PUSH1 0x0 DUP3 DUP3 MSTORE PUSH1 0x20 DUP3 ADD SWAP1 POP SWAP3 SWAP2 POP POP JUMP JUMPDEST PUSH1 0x0 DUP2 SWAP1 POP PUSH1 0x20 DUP3 ADD SWAP1 POP SWAP2 SWAP1 POP JUMP JUMPDEST PUSH1 0x0 PUSH2 0x4B9A DUP4 DUP4 PUSH2 0x45C5 JUMP JUMPDEST PUSH1 0x20 DUP4 ADD SWAP1 POP SWAP3 SWAP2 POP POP JUMP JUMPDEST PUSH1 0x0 PUSH1 0x20 DUP3 ADD SWAP1 POP SWAP2 SWAP1 POP JUMP JUMPDEST PUSH1 0x0 PUSH2 0x4BBE DUP3 PUSH2 0x4B62 JUMP JUMPDEST PUSH2 0x4BC8 DUP2 DUP6 PUSH2 0x4B6D JUMP JUMPDEST SWAP4 POP PUSH2 0x4BD3 DUP4 PUSH2 0x4B7E JUMP JUMPDEST DUP1 PUSH1 0x0 JUMPDEST DUP4 DUP2 LT ISZERO PUSH2 0x4C04 JUMPI DUP2 MLOAD PUSH2 0x4BEB DUP9 DUP3 PUSH2 0x4B8E JUMP JUMPDEST SWAP8 POP PUSH2 0x4BF6 DUP4 PUSH2 0x4BA6 JUMP JUMPDEST SWAP3 POP POP PUSH1 0x1 DUP2 ADD SWAP1 POP PUSH2 0x4BD7 JUMP JUMPDEST POP DUP6 SWAP4 POP POP POP POP SWAP3 SWAP2 POP POP JUMP JUMPDEST PUSH1 0x0 PUSH1 0x20 DUP3 ADD SWAP1 POP DUP2 DUP2 SUB PUSH1 0x0 DUP4 ADD MSTORE PUSH2 0x4C2B DUP2 DUP5 PUSH2 0x4BB3 JUMP JUMPDEST SWAP1 POP SWAP3 SWAP2 POP POP JUMP JUMPDEST PUSH1 0x0 PUSH2 0x120 DUP3 ADD SWAP1 POP DUP2 DUP2 SUB PUSH1 0x0 DUP4 ADD MSTORE PUSH2 0x4C4E DUP2 DUP13 PUSH2 0x4189 JUMP JUMPDEST SWAP1 POP DUP2 DUP2 SUB PUSH1 0x20 DUP4 ADD MSTORE PUSH2 0x4C62 DUP2 DUP12 PUSH2 0x4189 JUMP JUMPDEST SWAP1 POP PUSH2 0x4C71 PUSH1 0x40 DUP4 ADD DUP11 PUSH2 0x4017 JUMP JUMPDEST DUP2 DUP2 SUB PUSH1 0x60 DUP4 ADD MSTORE PUSH2 0x4C83 DUP2 DUP10 PUSH2 0x4189 JUMP JUMPDEST SWAP1 POP PUSH2 0x4C92 PUSH1 0x80 DUP4 ADD DUP9 PUSH2 0x41C2 JUMP JUMPDEST PUSH2 0x4C9F PUSH1 0xA0 DUP4 ADD DUP8 PUSH2 0x41C2 JUMP JUMPDEST PUSH2 0x4CAC PUSH1 0xC0 DUP4 ADD DUP7 PUSH2 0x41C2 JUMP JUMPDEST PUSH2 0x4CB9 PUSH1 0xE0 DUP4 ADD DUP6 PUSH2 0x41C2 JUMP JUMPDEST PUSH2 0x4CC7 PUSH2 0x100 DUP4 ADD DUP5 PUSH2 0x41C2 JUMP JUMPDEST SWAP11 SWAP10 POP POP POP POP POP POP POP POP POP POP JUMP JUMPDEST PUSH1 0x0 PUSH1 0x20 DUP3 ADD SWAP1 POP PUSH2 0x4CEA PUSH1 0x0 DUP4 ADD DUP5 PUSH2 0x4017 JUMP JUMPDEST SWAP3 SWAP2 POP POP JUMP JUMPDEST PUSH1 0x0 PUSH8 0xFFFFFFFFFFFFFFFF DUP3 GT ISZERO PUSH2 0x4D0B JUMPI PUSH2 0x4D0A PUSH2 0x43AC JUMP JUMPDEST JUMPDEST PUSH1 0x20 DUP3 MUL SWAP1 POP PUSH1 0x20 DUP2 ADD SWAP1 POP SWAP2 SWAP1 POP JUMP JUMPDEST PUSH1 0x0 DUP1 REVERT JUMPDEST PUSH1 0x0 PUSH2 0x4D34 PUSH2 0x4D2F DUP5 PUSH2 0x4CF0 JUMP JUMPDEST PUSH2 0x440C JUMP JUMPDEST SWAP1 POP DUP1 DUP4 DUP3 MSTORE PUSH1 0x20 DUP3 ADD SWAP1 POP PUSH1 0x20 DUP5 MUL DUP4 ADD DUP6 DUP2 GT ISZERO PUSH2 0x4D57 JUMPI PUSH2 0x4D56 PUSH2 0x4D1C JUMP JUMPDEST JUMPDEST DUP4 JUMPDEST DUP2 DUP2 LT ISZERO PUSH2 0x4D9E JUMPI DUP1 CALLDATALOAD PUSH8 0xFFFFFFFFFFFFFFFF DUP2 GT ISZERO PUSH2 0x4D7C JUMPI PUSH2 0x4D7B PUSH2 0x43A2 JUMP JUMPDEST JUMPDEST DUP1 DUP7 ADD PUSH2 0x4D89 DUP10 DUP3 PUSH2 0x44A9 JUMP JUMPDEST DUP6 MSTORE PUSH1 0x20 DUP6 ADD SWAP5 POP POP POP PUSH1 0x20 DUP2 ADD SWAP1 POP PUSH2 0x4D59 JUMP JUMPDEST POP POP POP SWAP4 SWAP3 POP POP POP JUMP JUMPDEST PUSH1 0x0 DUP3 PUSH1 0x1F DUP4 ADD SLT PUSH2 0x4DBD JUMPI PUSH2 0x4DBC PUSH2 0x43A2 JUMP JUMPDEST JUMPDEST DUP2 CALLDATALOAD PUSH2 0x4DCD DUP5 DUP3 PUSH1 0x20 DUP7 ADD PUSH2 0x4D21 JUMP JUMPDEST SWAP2 POP POP SWAP3 SWAP2 POP POP JUMP JUMPDEST PUSH1 0x0 DUP1 PUSH1 0x0 PUSH1 0x60 DUP5 DUP7 SUB SLT ISZERO PUSH2 0x4DEF JUMPI PUSH2 0x4DEE PUSH2 0x3F78 JUMP JUMPDEST JUMPDEST PUSH1 0x0 DUP5 ADD CALLDATALOAD PUSH8 0xFFFFFFFFFFFFFFFF DUP2 GT ISZERO PUSH2 0x4E0D JUMPI PUSH2 0x4E0C PUSH2 0x3F7D JUMP JUMPDEST JUMPDEST PUSH2 0x4E19 DUP7 DUP3 DUP8 ADD PUSH2 0x4DA8 JUMP JUMPDEST SWAP4 POP POP PUSH1 0x20 DUP5 ADD CALLDATALOAD PUSH8 0xFFFFFFFFFFFFFFFF DUP2 GT ISZERO PUSH2 0x4E3A JUMPI PUSH2 0x4E39 PUSH2 0x3F7D JUMP JUMPDEST JUMPDEST PUSH2 0x4E46 DUP7 DUP3 DUP8 ADD PUSH2 0x44A9 JUMP JUMPDEST SWAP3 POP POP PUSH1 0x40 DUP5 ADD CALLDATALOAD PUSH8 0xFFFFFFFFFFFFFFFF DUP2 GT ISZERO PUSH2 0x4E67 JUMPI PUSH2 0x4E66 PUSH2 0x3F7D JUMP JUMPDEST JUMPDEST PUSH2 0x4E73 DUP7 DUP3 DUP8 ADD PUSH2 0x44A9 JUMP JUMPDEST SWAP2 POP POP SWAP3 POP SWAP3 POP SWAP3 JUMP JUMPDEST PUSH2 0x4E86 DUP2 PUSH2 0x436C JUMP JUMPDEST DUP2 EQ PUSH2 0x4E91 JUMPI PUSH1 0x0 DUP1 REVERT JUMPDEST POP JUMP JUMPDEST PUSH1 0x0 DUP2 CALLDATALOAD SWAP1 POP PUSH2 0x4EA3 DUP2 PUSH2 0x4E7D JUMP JUMPDEST SWAP3 SWAP2 POP POP JUMP JUMPDEST PUSH1 0x0 DUP1 PUSH1 0x40 DUP4 DUP6 SUB SLT ISZERO PUSH2 0x4EC0 JUMPI PUSH2 0x4EBF PUSH2 0x3F78 JUMP JUMPDEST JUMPDEST PUSH1 0x0 PUSH2 0x4ECE DUP6 DUP3 DUP7 ADD PUSH2 0x3FA3 JUMP JUMPDEST SWAP3 POP POP PUSH1 0x20 PUSH2 0x4EDF DUP6 DUP3 DUP7 ADD PUSH2 0x4E94 JUMP JUMPDEST SWAP2 POP POP SWAP3 POP SWAP3 SWAP1 POP JUMP JUMPDEST PUSH1 0x0 PUSH1 0x80 DUP3 ADD SWAP1 POP DUP2 DUP2 SUB PUSH1 0x0 DUP4 ADD MSTORE PUSH2 0x4F03 DUP2 DUP8 PUSH2 0x4189 JUMP JUMPDEST SWAP1 POP DUP2 DUP2 SUB PUSH1 0x20 DUP4 ADD MSTORE PUSH2 0x4F17 DUP2 DUP7 PUSH2 0x4189 JUMP JUMPDEST SWAP1 POP PUSH2 0x4F26 PUSH1 0x40 DUP4 ADD DUP6 PUSH2 0x41C2 JUMP JUMPDEST DUP2 DUP2 SUB PUSH1 0x60 DUP4 ADD MSTORE PUSH2 0x4F38 DUP2 DUP5 PUSH2 0x4189 JUMP JUMPDEST SWAP1 POP SWAP6 SWAP5 POP POP POP POP POP JUMP JUMPDEST PUSH32 0x5461736B20646F6573206E6F7420657869737400000000000000000000000000 PUSH1 0x0 DUP3 ADD MSTORE POP JUMP JUMPDEST PUSH1 0x0 PUSH2 0x4F79 PUSH1 0x13 DUP4 PUSH2 0x4178 JUMP JUMPDEST SWAP2 POP PUSH2 0x4F84 DUP3 PUSH2 0x4F43 JUMP JUMPDEST PUSH1 0x20 DUP3 ADD SWAP1 POP SWAP2 SWAP1 POP JUMP JUMPDEST PUSH1 0x0 PUSH1 0x20 DUP3 ADD SWAP1 POP DUP2 DUP2 SUB PUSH1 0x0 DUP4 ADD MSTORE PUSH2 0x4FA8 DUP2 PUSH2 0x4F6C JUMP JUMPDEST SWAP1 POP SWAP2 SWAP1 POP JUMP JUMPDEST PUSH32 0x4E487B7100000000000000000000000000000000000000000000000000000000 PUSH1 0x0 MSTORE PUSH1 0x22 PUSH1 0x4 MSTORE PUSH1 0x24 PUSH1 0x0 REVERT JUMPDEST PUSH1 0x0 PUSH1 0x2 DUP3 DIV SWAP1 POP PUSH1 0x1 DUP3 AND DUP1 PUSH2 0x4FF6 JUMPI PUSH1 0x7F DUP3 AND SWAP2 POP JUMPDEST PUSH1 0x20 DUP3 LT DUP2 SUB PUSH2 0x5009 JUMPI PUSH2 0x5008 PUSH2 0x4FAF JUMP JUMPDEST JUMPDEST POP SWAP2 SWAP1 POP JUMP JUMPDEST PUSH1 0x0 DUP2 SWAP1 POP SWAP3 SWAP2 POP POP JUMP JUMPDEST PUSH1 0x0 DUP2 SWAP1 POP DUP2 PUSH1 0x0 MSTORE PUSH1 0x20 PUSH1 0x0 KECCAK256 SWAP1 POP SWAP2 SWAP1 POP JUMP JUMPDEST PUSH1 0x0 DUP2 SLOAD PUSH2 0x503C DUP2 PUSH2 0x4FDE JUMP JUMPDEST PUSH2 0x5046 DUP2 DUP7 PUSH2 0x500F JUMP JUMPDEST SWAP5 POP PUSH1 0x1 DUP3 AND PUSH1 0x0 DUP2 EQ PUSH2 0x5061 JUMPI PUSH1 0x1 DUP2 EQ PUSH2 0x5076 JUMPI PUSH2 0x50A9 JUMP JUMPDEST PUSH1 0xFF NOT DUP4 AND DUP7 MSTORE DUP2 ISZERO ISZERO DUP3 MUL DUP7 ADD SWAP4 POP PUSH2 0x50A9 JUMP JUMPDEST PUSH2 0x507F DUP6 PUSH2 0x501A JUMP JUMPDEST PUSH1 0x0 JUMPDEST DUP4 DUP2 LT ISZERO PUSH2 0x50A1 JUMPI DUP2 SLOAD DUP2 DUP10 ADD MSTORE PUSH1 0x1 DUP3 ADD SWAP2 POP PUSH1 0x20 DUP2 ADD SWAP1 POP PUSH2 0x5082 JUMP JUMPDEST DUP4 DUP9 ADD SWAP6 POP POP POP JUMPDEST POP POP POP SWAP3 SWAP2 POP POP JUMP JUMPDEST PUSH1 0x0 PUSH2 0x50BE DUP3 DUP5 PUSH2 0x502F JUMP JUMPDEST SWAP2 POP DUP2 SWAP1 POP SWAP3 SWAP2 POP POP JUMP JUMPDEST PUSH32 0x5461736B20616C7265616479207265736F6C7665640000000000000000000000 PUSH1 0x0 DUP3 ADD MSTORE POP JUMP JUMPDEST PUSH1 0x0 PUSH2 0x50FF PUSH1 0x15 DUP4 PUSH2 0x4178 JUMP JUMPDEST SWAP2 POP PUSH2 0x510A DUP3 PUSH2 0x50C9 JUMP JUMPDEST PUSH1 0x20 DUP3 ADD SWAP1 POP SWAP2 SWAP1 POP JUMP JUMPDEST PUSH1 0x0 PUSH1 0x20 DUP3 ADD SWAP1 POP DUP2 DUP2 SUB PUSH1 0x0 DUP4 ADD MSTORE PUSH2 0x512E DUP2 PUSH2 0x50F2 JUMP JUMPDEST SWAP1 POP SWAP2 SWAP1 POP JUMP JUMPDEST PUSH32 0x4E487B7100000000000000000000000000000000000000000000000000000000 PUSH1 0x0 MSTORE PUSH1 0x11 PUSH1 0x4 MSTORE PUSH1 0x24 PUSH1 0x0 REVERT JUMPDEST PUSH1 0x0 PUSH2 0x516F DUP3 PUSH2 0x3F82 JUMP JUMPDEST SWAP2 POP PUSH2 0x517A DUP4 PUSH2 0x3F82 JUMP JUMPDEST SWAP3 POP DUP3 DUP3 ADD SWAP1 POP DUP1 DUP3 GT ISZERO PUSH2 0x5192 JUMPI PUSH2 0x5191 PUSH2 0x5135 JUMP JUMPDEST JUMPDEST SWAP3 SWAP2 POP POP JUMP JUMPDEST PUSH32 0x566F74696E6720706572696F64206E6F7420656E646564000000000000000000 PUSH1 0x0 DUP3 ADD MSTORE POP JUMP JUMPDEST PUSH1 0x0 PUSH2 0x51CE PUSH1 0x17 DUP4 PUSH2 0x4178 JUMP JUMPDEST SWAP2 POP PUSH2 0x51D9 DUP3 PUSH2 0x5198 JUMP JUMPDEST PUSH1 0x20 DUP3 ADD SWAP1 POP SWAP2 SWAP1 POP JUMP JUMPDEST PUSH1 0x0 PUSH1 0x20 DUP3 ADD SWAP1 POP DUP2 DUP2 SUB PUSH1 0x0 DUP4 ADD MSTORE PUSH2 0x51FD DUP2 PUSH2 0x51C1 JUMP JUMPDEST SWAP1 POP SWAP2 SWAP1 POP JUMP JUMPDEST PUSH1 0x0 PUSH2 0x520F DUP3 PUSH2 0x3F82 JUMP JUMPDEST SWAP2 POP PUSH2 0x521A DUP4 PUSH2 0x3F82 JUMP JUMPDEST SWAP3 POP DUP3 DUP3 MUL PUSH2 0x5228 DUP2 PUSH2 0x3F82 JUMP JUMPDEST SWAP2 POP DUP3 DUP3 DIV DUP5 EQ DUP4 ISZERO OR PUSH2 0x523F JUMPI PUSH2 0x523E PUSH2 0x5135 JUMP JUMPDEST JUMPDEST POP SWAP3 SWAP2 POP POP JUMP JUMPDEST PUSH32 0x4E487B7100000000000000000000000000000000000000000000000000000000 PUSH1 0x0 MSTORE PUSH1 0x12 PUSH1 0x4 MSTORE PUSH1 0x24 PUSH1 0x0 REVERT JUMPDEST PUSH1 0x0 PUSH2 0x5280 DUP3 PUSH2 0x3F82 JUMP JUMPDEST SWAP2 POP PUSH2 0x528B DUP4 PUSH2 0x3F82 JUMP JUMPDEST SWAP3 POP DUP3 PUSH2 0x529B JUMPI PUSH2 0x529A PUSH2 0x5246 JUMP JUMPDEST JUMPDEST DUP3 DUP3 DIV SWAP1 POP SWAP3 SWAP2 POP POP JUMP JUMPDEST PUSH1 0x0 PUSH2 0x52B1 DUP3 PUSH2 0x3F82 JUMP JUMPDEST SWAP2 POP PUSH2 0x52BC DUP4 PUSH2 0x3F82 JUMP JUMPDEST SWAP3 POP DUP3 DUP3 SUB SWAP1 POP DUP2 DUP2 GT ISZERO PUSH2 0x52D4 JUMPI PUSH2 0x52D3 PUSH2 0x5135 JUMP JUMPDEST JUMPDEST SWAP3 SWAP2 POP POP JUMP JUMPDEST PUSH1 0x0 DUP2 SWAP1 POP DUP2 PUSH1 0x0 MSTORE PUSH1 0x20 PUSH1 0x0 KECCAK256 SWAP1 POP SWAP2 SWAP1 POP JUMP JUMPDEST PUSH1 0x0 PUSH1 0x20 PUSH1 0x1F DUP4 ADD DIV SWAP1 POP SWAP2 SWAP1 POP JUMP JUMPDEST PUSH1 0x0 DUP3 DUP3 SHL SWAP1 POP SWAP3 SWAP2 POP POP JUMP JUMPDEST PUSH1 0x0 PUSH1 0x8 DUP4 MUL PUSH2 0x533C PUSH32 0xFFFFFFFFFFFFFFFFFFFFFFFFFFFFFFFFFFFFFFFFFFFFFFFFFFFFFFFFFFFFFFFF DUP3 PUSH2 0x52FF JUMP JUMPDEST PUSH2 0x5346 DUP7 DUP4 PUSH2 0x52FF JUMP JUMPDEST SWAP6 POP DUP1 NOT DUP5 AND SWAP4 POP DUP1 DUP7 AND DUP5 OR SWAP3 POP POP POP SWAP4 SWAP3 POP POP POP JUMP JUMPDEST PUSH1 0x0 DUP2 SWAP1 POP SWAP2 SWAP1 POP JUMP JUMPDEST PUSH1 0x0 PUSH2 0x5383 PUSH2 0x537E PUSH2 0x5379 DUP5 PUSH2 0x3F82 JUMP JUMPDEST PUSH2 0x535E JUMP JUMPDEST PUSH2 0x3F82 JUMP JUMPDEST SWAP1 POP SWAP2 SWAP1 POP JUMP JUMPDEST PUSH1 0x0 DUP2 SWAP1 POP SWAP2 SWAP1 POP JUMP JUMPDEST PUSH2 0x539D DUP4 PUSH2 0x5368 JUMP JUMPDEST PUSH2 0x53B1 PUSH2 0x53A9 DUP3 PUSH2 0x538A JUMP JUMPDEST DUP5 DUP5 SLOAD PUSH2 0x530C JUMP JUMPDEST DUP3 SSTORE POP POP POP POP JUMP JUMPDEST PUSH1 0x0 SWAP1 JUMP JUMPDEST PUSH2 0x53C6 PUSH2 0x53B9 JUMP JUMPDEST PUSH2 0x53D1 DUP2 DUP5 DUP5 PUSH2 0x5394 JUMP JUMPDEST POP POP POP JUMP JUMPDEST JUMPDEST DUP2 DUP2 LT ISZERO PUSH2 0x53F5 JUMPI PUSH2 0x53EA PUSH1 0x0 DUP3 PUSH2 0x53BE JUMP JUMPDEST PUSH1 0x1 DUP2 ADD SWAP1 POP PUSH2 0x53D7 JUMP JUMPDEST POP POP JUMP JUMPDEST PUSH1 0x1F DUP3 GT ISZERO PUSH2 0x543A JUMPI PUSH2 0x540B DUP2 PUSH2 0x52DA JUMP JUMPDEST PUSH2 0x5414 DUP5 PUSH2 0x52EF JUMP JUMPDEST DUP2 ADD PUSH1 0x20 DUP6 LT ISZERO PUSH2 0x5423 JUMPI DUP2 SWAP1 POP JUMPDEST PUSH2 0x5437 PUSH2 0x542F DUP6 PUSH2 0x52EF JUMP JUMPDEST DUP4 ADD DUP3 PUSH2 0x53D6 JUMP JUMPDEST POP POP JUMPDEST POP POP POP JUMP JUMPDEST PUSH1 0x0 DUP3 DUP3 SHR SWAP1 POP SWAP3 SWAP2 POP POP JUMP JUMPDEST PUSH1 0x0 PUSH2 0x545D PUSH1 0x0 NOT DUP5 PUSH1 0x8 MUL PUSH2 0x543F JUMP JUMPDEST NOT DUP1 DUP4 AND SWAP2 POP POP SWAP3 SWAP2 POP POP JUMP JUMPDEST PUSH1 0x0 PUSH2 0x5476 DUP4 DUP4 PUSH2 0x544C JUMP JUMPDEST SWAP2 POP DUP3 PUSH1 0x2 MUL DUP3 OR SWAP1 POP SWAP3 SWAP2 POP POP JUMP JUMPDEST PUSH2 0x548F DUP3 PUSH2 0x4052 JUMP JUMPDEST PUSH8 0xFFFFFFFFFFFFFFFF DUP2 GT ISZERO PUSH2 0x54A8 JUMPI PUSH2 0x54A7 PUSH2 0x43AC JUMP JUMPDEST JUMPDEST PUSH2 0x54B2 DUP3 SLOAD PUSH2 0x4FDE JUMP JUMPDEST PUSH2 0x54BD DUP3 DUP3 DUP6 PUSH2 0x53F9 JUMP JUMPDEST PUSH1 0x0 PUSH1 0x20 SWAP1 POP PUSH1 0x1F DUP4 GT PUSH1 0x1 DUP2 EQ PUSH2 0x54F0 JUMPI PUSH1 0x0 DUP5 ISZERO PUSH2 0x54DE JUMPI DUP3 DUP8 ADD MLOAD SWAP1 POP JUMPDEST PUSH2 0x54E8 DUP6 DUP3 PUSH2 0x546A JUMP JUMPDEST DUP7 SSTORE POP PUSH2 0x5550 JUMP JUMPDEST PUSH1 0x1F NOT DUP5 AND PUSH2 0x54FE DUP7 PUSH2 0x52DA JUMP JUMPDEST PUSH1 0x0 JUMPDEST DUP3 DUP2 LT ISZERO PUSH2 0x5526 JUMPI DUP5 DUP10 ADD MLOAD DUP3 SSTORE PUSH1 0x1 DUP3 ADD SWAP2 POP PUSH1 0x20 DUP6 ADD SWAP5 POP PUSH1 0x20 DUP2 ADD SWAP1 POP PUSH2 0x5501 JUMP JUMPDEST DUP7 DUP4 LT ISZERO PUSH2 0x5543 JUMPI DUP5 DUP10 ADD MLOAD PUSH2 0x553F PUSH1 0x1F DUP10 AND DUP3 PUSH2 0x544C JUMP JUMPDEST DUP4 SSTORE POP JUMPDEST PUSH1 0x1 PUSH1 0x2 DUP9 MUL ADD DUP9 SSTORE POP POP POP JUMPDEST POP POP POP POP POP POP JUMP JUMPDEST POP JUMP JUMPDEST PUSH1 0x0 PUSH2 0x5568 PUSH1 0x0 DUP4 PUSH2 0x500F JUMP JUMPDEST SWAP2 POP PUSH2 0x5573 DUP3 PUSH2 0x5558 JUMP JUMPDEST PUSH1 0x0 DUP3 ADD SWAP1 POP SWAP2 SWAP1 POP JUMP JUMPDEST PUSH1 0x0 PUSH2 0x5589 DUP3 PUSH2 0x555B JUMP JUMPDEST SWAP2 POP DUP2 SWAP1 POP SWAP2 SWAP1 POP JUMP JUMPDEST PUSH32 0x4661696C656420746F2073656E642066756E647320746F204E474F0000000000 PUSH1 0x0 DUP3 ADD MSTORE POP JUMP JUMPDEST PUSH1 0x0 PUSH2 0x55C9 PUSH1 0x1B DUP4 PUSH2 0x4178 JUMP JUMPDEST SWAP2 POP PUSH2 0x55D4 DUP3 PUSH2 0x5593 JUMP JUMPDEST PUSH1 0x20 DUP3 ADD SWAP1 POP SWAP2 SWAP1 POP JUMP JUMPDEST PUSH1 0x0 PUSH1 0x20 DUP3 ADD SWAP1 POP DUP2 DUP2 SUB PUSH1 0x0 DUP4 ADD MSTORE PUSH2 0x55F8 DUP2 PUSH2 0x55BC JUMP JUMPDEST SWAP1 POP SWAP2 SWAP1 POP JUMP JUMPDEST PUSH32 0x4E487B7100000000000000000000000000000000000000000000000000000000 PUSH1 0x0 MSTORE PUSH1 0x32 PUSH1 0x4 MSTORE PUSH1 0x24 PUSH1 0x0 REVERT JUMPDEST PUSH32 0x526566756E64206661696C656400000000000000000000000000000000000000 PUSH1 0x0 DUP3 ADD MSTORE POP JUMP JUMPDEST PUSH1 0x0 PUSH2 0x5664 PUSH1 0xD DUP4 PUSH2 0x4178 JUMP JUMPDEST SWAP2 POP PUSH2 0x566F DUP3 PUSH2 0x562E JUMP JUMPDEST PUSH1 0x20 DUP3 ADD SWAP1 POP SWAP2 SWAP1 POP JUMP JUMPDEST PUSH1 0x0 PUSH1 0x20 DUP3 ADD SWAP1 POP DUP2 DUP2 SUB PUSH1 0x0 DUP4 ADD MSTORE PUSH2 0x5693 DUP2 PUSH2 0x5657 JUMP JUMPDEST SWAP1 POP SWAP2 SWAP1 POP JUMP JUMPDEST PUSH1 0x0 DUP2 SLOAD PUSH2 0x56A7 DUP2 PUSH2 0x4FDE JUMP JUMPDEST PUSH2 0x56B1 DUP2 DUP7 PUSH2 0x4178 JUMP JUMPDEST SWAP5 POP PUSH1 0x1 DUP3 AND PUSH1 0x0 DUP2 EQ PUSH2 0x56CC JUMPI PUSH1 0x1 DUP2 EQ PUSH2 0x56E2 JUMPI PUSH2 0x5715 JUMP JUMPDEST PUSH1 0xFF NOT DUP4 AND DUP7 MSTORE DUP2 ISZERO ISZERO PUSH1 0x20 MUL DUP7 ADD SWAP4 POP PUSH2 0x5715 JUMP JUMPDEST PUSH2 0x56EB DUP6 PUSH2 0x52DA JUMP JUMPDEST PUSH1 0x0 JUMPDEST DUP4 DUP2 LT ISZERO PUSH2 0x570D JUMPI DUP2 SLOAD DUP2 DUP10 ADD MSTORE PUSH1 0x1 DUP3 ADD SWAP2 POP PUSH1 0x20 DUP2 ADD SWAP1 POP PUSH2 0x56EE JUMP JUMPDEST DUP1 DUP9 ADD SWAP6 POP POP POP JUMPDEST POP POP POP SWAP3 SWAP2 POP POP JUMP JUMPDEST PUSH1 0x0 PUSH1 0x40 DUP3 ADD SWAP1 POP PUSH2 0x5733 PUSH1 0x0 DUP4 ADD DUP6 PUSH2 0x41C2 JUMP JUMPDEST DUP2 DUP2 SUB PUSH1 0x20 DUP4 ADD MSTORE PUSH2 0x5745 DUP2 DUP5 PUSH2 0x569A JUMP JUMPDEST SWAP1 POP SWAP4 SWAP3 POP POP POP JUMP JUMPDEST PUSH32 0x4D757374207374616B6520455448000000000000000000000000000000000000 PUSH1 0x0 DUP3 ADD MSTORE POP JUMP JUMPDEST PUSH1 0x0 PUSH2 0x5784 PUSH1 0xE DUP4 PUSH2 0x4178 JUMP JUMPDEST SWAP2 POP PUSH2 0x578F DUP3 PUSH2 0x574E JUMP JUMPDEST PUSH1 0x20 DUP3 ADD SWAP1 POP SWAP2 SWAP1 POP JUMP JUMPDEST PUSH1 0x0 PUSH1 0x20 DUP3 ADD SWAP1 POP DUP2 DUP2 SUB PUSH1 0x0 DUP4 ADD MSTORE PUSH2 0x57B3 DUP2 PUSH2 0x5777 JUMP JUMPDEST SWAP1 POP SWAP2 SWAP1 POP JUMP JUMPDEST PUSH32 0x4E474F20616C7265616479207265676973746572656400000000000000000000 PUSH1 0x0 DUP3 ADD MSTORE POP JUMP JUMPDEST PUSH1 0x0 PUSH2 0x57F0 PUSH1 0x16 DUP4 PUSH2 0x4178 JUMP JUMPDEST SWAP2 POP PUSH2 0x57FB DUP3 PUSH2 0x57BA JUMP JUMPDEST PUSH1 0x20 DUP3 ADD SWAP1 POP SWAP2 SWAP1 POP JUMP JUMPDEST PUSH1 0x0 PUSH1 0x20 DUP3 ADD SWAP1 POP DUP2 DUP2 SUB PUSH1 0x0 DUP4 ADD MSTORE PUSH2 0x581F DUP2 PUSH2 0x57E3 JUMP JUMPDEST SWAP1 POP SWAP2 SWAP1 POP JUMP JUMPDEST PUSH32 0x4E474F206E6F7420726567697374657265640000000000000000000000000000 PUSH1 0x0 DUP3 ADD MSTORE POP JUMP JUMPDEST PUSH1 0x0 PUSH2 0x585C PUSH1 0x12 DUP4 PUSH2 0x4178 JUMP JUMPDEST SWAP2 POP PUSH2 0x5867 DUP3 PUSH2 0x5826 JUMP JUMPDEST PUSH1 0x20 DUP3 ADD SWAP1 POP SWAP2 SWAP1 POP JUMP JUMPDEST PUSH1 0x0 PUSH1 0x20 DUP3 ADD SWAP1 POP DUP2 DUP2 SUB PUSH1 0x0 DUP4 ADD MSTORE PUSH2 0x588B DUP2 PUSH2 0x584F JUMP JUMPDEST SWAP1 POP SWAP2 SWAP1 POP JUMP JUMPDEST PUSH1 0x0 PUSH2 0x589D DUP3 PUSH2 0x3F82 JUMP JUMPDEST SWAP2 POP PUSH32 0xFFFFFFFFFFFFFFFFFFFFFFFFFFFFFFFFFFFFFFFFFFFFFFFFFFFFFFFFFFFFFFFF DUP3 SUB PUSH2 0x58CF JUMPI PUSH2 0x58CE PUSH2 0x5135 JUMP JUMPDEST JUMPDEST PUSH1 0x1 DUP3 ADD SWAP1 POP SWAP2 SWAP1 POP JUMP JUMPDEST PUSH32 0x4E6F7420616E204E474F206F7220616C72656164792077697468647261776E00 PUSH1 0x0 DUP3 ADD MSTORE POP JUMP JUMPDEST PUSH1 0x0 PUSH2 0x5910 PUSH1 0x1F DUP4 PUSH2 0x4178 JUMP JUMPDEST SWAP2 POP PUSH2 0x591B DUP3 PUSH2 0x58DA JUMP JUMPDEST PUSH1 0x20 DUP3 ADD SWAP1 POP SWAP2 SWAP1 POP JUMP JUMPDEST PUSH1 0x0 PUSH1 0x20 DUP3 ADD SWAP1 POP DUP2 DUP2 SUB PUSH1 0x0 DUP4 ADD MSTORE PUSH2 0x593F DUP2 PUSH2 0x5903 JUMP JUMPDEST SWAP1 POP SWAP2 SWAP1 POP JUMP JUMPDEST PUSH32 0x43616E6E6F7420776974686472617720776974682070656E64696E6720746173 PUSH1 0x0 DUP3 ADD MSTORE PUSH32 0x6B73000000000000000000000000000000000000000000000000000000000000 PUSH1 0x20 DUP3 ADD MSTORE POP JUMP JUMPDEST PUSH1 0x0 PUSH2 0x59A2 PUSH1 0x22 DUP4 PUSH2 0x4178 JUMP JUMPDEST SWAP2 POP PUSH2 0x59AD DUP3 PUSH2 0x5946 JUMP JUMPDEST PUSH1 0x40 DUP3 ADD SWAP1 POP SWAP2 SWAP1 POP JUMP JUMPDEST PUSH1 0x0 PUSH1 0x20 DUP3 ADD SWAP1 POP DUP2 DUP2 SUB PUSH1 0x0 DUP4 ADD MSTORE PUSH2 0x59D1 DUP2 PUSH2 0x5995 JUMP JUMPDEST SWAP1 POP SWAP2 SWAP1 POP JUMP JUMPDEST PUSH32 0x5769746864726177616C206661696C6564000000000000000000000000000000 PUSH1 0x0 DUP3 ADD MSTORE POP JUMP JUMPDEST PUSH1 0x0 PUSH2 0x5A0E PUSH1 0x11 DUP4 PUSH2 0x4178 JUMP JUMPDEST SWAP2 POP PUSH2 0x5A19 DUP3 PUSH2 0x59D8 JUMP JUMPDEST PUSH1 0x20 DUP3 ADD SWAP1 POP SWAP2 SWAP1 POP JUMP JUMPDEST PUSH1 0x0 PUSH1 0x20 DUP3 ADD SWAP1 POP DUP2 DUP2 SUB PUSH1 0x0 DUP4 ADD MSTORE PUSH2 0x5A3D DUP2 PUSH2 0x5A01 JUMP JUMPDEST SWAP1 POP SWAP2 SWAP1 POP JUMP JUMPDEST PUSH1 0x0 PUSH1 0x40 DUP3 ADD SWAP1 POP PUSH2 0x5A59 PUSH1 0x0 DUP4 ADD DUP6 PUSH2 0x4017 JUMP JUMPDEST PUSH2 0x5A66 PUSH1 0x20 DUP4 ADD DUP5 PUSH2 0x41C2 JUMP JUMPDEST SWAP4 SWAP3 POP POP POP JUMP JUMPDEST PUSH32 0x4F6E6C79206F776E65722063616E2063616C6C20746869730000000000000000 PUSH1 0x0 DUP3 ADD MSTORE POP JUMP JUMPDEST PUSH1 0x0 PUSH2 0x5AA3 PUSH1 0x18 DUP4 PUSH2 0x4178 JUMP JUMPDEST SWAP2 POP PUSH2 0x5AAE DUP3 PUSH2 0x5A6D JUMP JUMPDEST PUSH1 0x20 DUP3 ADD SWAP1 POP SWAP2 SWAP1 POP JUMP JUMPDEST PUSH1 0x0 PUSH1 0x20 DUP3 ADD SWAP1 POP DUP2 DUP2 SUB PUSH1 0x0 DUP4 ADD MSTORE PUSH2 0x5AD2 DUP2 PUSH2 0x5A96 JUMP JUMPDEST SWAP1 POP SWAP2 SWAP1 POP JUMP JUMPDEST PUSH1 0x0 PUSH1 0x40 DUP3 ADD SWAP1 POP PUSH2 0x5AEE PUSH1 0x0 DUP4 ADD DUP6 PUSH2 0x41C2 JUMP JUMPDEST PUSH2 0x5AFB PUSH1 0x20 DUP4 ADD DUP5 PUSH2 0x4017 JUMP JUMPDEST SWAP4 SWAP3 POP POP POP JUMP JUMPDEST PUSH32 0x446964206E6F7420766F7465206F6E207461736B000000000000000000000000 PUSH1 0x0 DUP3 ADD MSTORE POP JUMP JUMPDEST PUSH1 0x0 PUSH2 0x5B38 PUSH1 0x14 DUP4 PUSH2 0x4178 JUMP JUMPDEST SWAP2 POP PUSH2 0x5B43 DUP3 PUSH2 0x5B02 JUMP JUMPDEST PUSH1 0x20 DUP3 ADD SWAP1 POP SWAP2 SWAP1 POP JUMP JUMPDEST PUSH1 0x0 PUSH1 0x20 DUP3 ADD SWAP1 POP DUP2 DUP2 SUB PUSH1 0x0 DUP4 ADD MSTORE PUSH2 0x5B67 DUP2 PUSH2 0x5B2B JUMP JUMPDEST SWAP1 POP SWAP2 SWAP1 POP JUMP JUMPDEST PUSH32 0x5461736B207374696C6C2070656E64696E670000000000000000000000000000 PUSH1 0x0 DUP3 ADD MSTORE POP JUMP JUMPDEST PUSH1 0x0 PUSH2 0x5BA4 PUSH1 0x12 DUP4 PUSH2 0x4178 JUMP JUMPDEST SWAP2 POP PUSH2 0x5BAF DUP3 PUSH2 0x5B6E JUMP JUMPDEST PUSH1 0x20 DUP3 ADD SWAP1 POP SWAP2 SWAP1 POP JUMP JUMPDEST PUSH1 0x0 PUSH1 0x20 DUP3 ADD SWAP1 POP DUP2 DUP2 SUB PUSH1 0x0 DUP4 ADD MSTORE PUSH2 0x5BD3 DUP2 PUSH2 0x5B97 JUMP JUMPDEST SWAP1 POP SWAP2 SWAP1 POP JUMP JUMPDEST PUSH32 0x52657761726420636C61696D206661696C656400000000000000000000000000 PUSH1 0x0 DUP3 ADD MSTORE POP JUMP JUMPDEST PUSH1 0x0 PUSH2 0x5C10 PUSH1 0x13 DUP4 PUSH2 0x4178 JUMP JUMPDEST SWAP2 POP PUSH2 0x5C1B DUP3 PUSH2 0x5BDA JUMP JUMPDEST PUSH1 0x20 DUP3 ADD SWAP1 POP SWAP2 SWAP1 POP JUMP JUMPDEST PUSH1 0x0 PUSH1 0x20 DUP3 ADD SWAP1 POP DUP2 DUP2 SUB PUSH1 0x0 DUP4 ADD MSTORE PUSH2 0x5C3F DUP2 PUSH2 0x5C03 JUMP JUMPDEST SWAP1 POP SWAP2 SWAP1 POP JUMP JUMPDEST PUSH32 0x4E6F74206120766F746572000000000000000000000000000000000000000000 PUSH1 0x0 DUP3 ADD MSTORE POP JUMP JUMPDEST PUSH1 0x0 PUSH2 0x5C7C PUSH1 0xB DUP4 PUSH2 0x4178 JUMP JUMPDEST SWAP2 POP PUSH2 0x5C87 DUP3 PUSH2 0x5C46 JUMP JUMPDEST PUSH1 0x20 DUP3 ADD SWAP1 POP SWAP2 SWAP1 POP JUMP JUMPDEST PUSH1 0x0 PUSH1 0x20 DUP3 ADD SWAP1 POP DUP2 DUP2 SUB PUSH1 0x0 DUP4 ADD MSTORE PUSH2 0x5CAB DUP2 PUSH2 0x5C6F JUMP JUMPDEST SWAP1 POP SWAP2 SWAP1 POP JUMP JUMPDEST PUSH32 0x416C726561647920766F74656400000000000000000000000000000000000000 PUSH1 0x0 DUP3 ADD MSTORE POP JUMP JUMPDEST PUSH1 0x0 PUSH2 0x5CE8 PUSH1 0xD DUP4 PUSH2 0x4178 JUMP JUMPDEST SWAP2 POP PUSH2 0x5CF3 DUP3 PUSH2 0x5CB2 JUMP JUMPDEST PUSH1 0x20 DUP3 ADD SWAP1 POP SWAP2 SWAP1 POP JUMP JUMPDEST PUSH1 0x0 PUSH1 0x20 DUP3 ADD SWAP1 POP DUP2 DUP2 SUB PUSH1 0x0 DUP4 ADD MSTORE PUSH2 0x5D17 DUP2 PUSH2 0x5CDB JUMP JUMPDEST SWAP1 POP SWAP2 SWAP1 POP JUMP JUMPDEST PUSH32 0x5461736B206E6F742070656E64696E6700000000000000000000000000000000 PUSH1 0x0 DUP3 ADD MSTORE POP JUMP JUMPDEST PUSH1 0x0 PUSH2 0x5D54 PUSH1 0x10 DUP4 PUSH2 0x4178 JUMP JUMPDEST SWAP2 POP PUSH2 0x5D5F DUP3 PUSH2 0x5D1E JUMP JUMPDEST PUSH1 0x20 DUP3 ADD SWAP1 POP SWAP2 SWAP1 POP JUMP JUMPDEST PUSH1 0x0 PUSH1 0x20 DUP3 ADD SWAP1 POP DUP2 DUP2 SUB PUSH1 0x0 DUP4 ADD MSTORE PUSH2 0x5D83 DUP2 PUSH2 0x5D47 JUMP JUMPDEST SWAP1 POP SWAP2 SWAP1 POP JUMP JUMPDEST PUSH32 0x566F74696E6720706572696F6420656E64656400000000000000000000000000 PUSH1 0x0 DUP3 ADD MSTORE POP JUMP JUMPDEST PUSH1 0x0 PUSH2 0x5DC0 PUSH1 0x13 DUP4 PUSH2 0x4178 JUMP JUMPDEST SWAP2 POP PUSH2 0x5DCB DUP3 PUSH2 0x5D8A JUMP JUMPDEST PUSH1 0x20 DUP3 ADD SWAP1 POP SWAP2 SWAP1 POP JUMP JUMPDEST PUSH1 0x0 PUSH1 0x20 DUP3 ADD SWAP1 POP DUP2 DUP2 SUB PUSH1 0x0 DUP4 ADD MSTORE PUSH2 0x5DEF DUP2 PUSH2 0x5DB3 JUMP JUMPDEST SWAP1 POP SWAP2 SWAP1 POP JUMP JUMPDEST PUSH1 0x0 PUSH1 0x60 DUP3 ADD SWAP1 POP PUSH2 0x5E0B PUSH1 0x0 DUP4 ADD DUP7 PUSH2 0x41C2 JUMP JUMPDEST PUSH2 0x5E18 PUSH1 0x20 DUP4 ADD DUP6 PUSH2 0x4017 JUMP JUMPDEST PUSH2 0x5E25 PUSH1 0x40 DUP4 ADD DUP5 PUSH2 0x4378 JUMP JUMPDEST SWAP5 SWAP4 POP POP POP POP JUMP JUMPDEST PUSH32 0x416C7265616479206120766F7465720000000000000000000000000000000000 PUSH1 0x0 DUP3 ADD MSTORE POP JUMP JUMPDEST PUSH1 0x0 PUSH2 0x5E63 PUSH1 0xF DUP4 PUSH2 0x4178 JUMP JUMPDEST SWAP2 POP PUSH2 0x5E6E DUP3 PUSH2 0x5E2D JUMP JUMPDEST PUSH1 0x20 DUP3 ADD SWAP1 POP SWAP2 SWAP1 POP JUMP JUMPDEST PUSH1 0x0 PUSH1 0x20 DUP3 ADD SWAP1 POP DUP2 DUP2 SUB PUSH1 0x0 DUP4 ADD MSTORE PUSH2 0x5E92 DUP2 PUSH2 0x5E56 JUMP JUMPDEST SWAP1 POP SWAP2 SWAP1 POP JUMP JUMPDEST PUSH32 0x4D75737420646F6E617465204554480000000000000000000000000000000000 PUSH1 0x0 DUP3 ADD MSTORE POP JUMP JUMPDEST PUSH1 0x0 PUSH2 0x5ECF PUSH1 0xF DUP4 PUSH2 0x4178 JUMP JUMPDEST SWAP2 POP PUSH2 0x5EDA DUP3 PUSH2 0x5E99 JUMP JUMPDEST PUSH1 0x20 DUP3 ADD SWAP1 POP SWAP2 SWAP1 POP JUMP JUMPDEST PUSH1 0x0 PUSH1 0x20 DUP3 ADD SWAP1 POP DUP2 DUP2 SUB PUSH1 0x0 DUP4 ADD MSTORE PUSH2 0x5EFE DUP2 PUSH2 0x5EC2 JUMP JUMPDEST SWAP1 POP SWAP2 SWAP1 POP JUMP JUMPDEST PUSH1 0x0 PUSH1 0x80 DUP3 ADD SWAP1 POP PUSH2 0x5F1A PUSH1 0x0 DUP4 ADD DUP8 PUSH2 0x41C2 JUMP JUMPDEST PUSH2 0x5F27 PUSH1 0x20 DUP4 ADD DUP7 PUSH2 0x4017 JUMP JUMPDEST PUSH2 0x5F34 PUSH1 0x40 DUP4 ADD DUP6 PUSH2 0x41C2 JUMP JUMPDEST PUSH2 0x5F41 PUSH1 0x60 DUP4 ADD DUP5 PUSH2 0x41C2 JUMP JUMPDEST SWAP6 SWAP5 POP POP POP POP POP JUMP INVALID LOG2 PUSH5 0x6970667358 0x22 SLT KECCAK256 0x2C SGT PUSH16 0xAC7B24F3AAFE4454C678DBBF2E2DDBEE BYTE EXTCODECOPY SDIV MUL 0xA8 CALLDATASIZE 0x1F 0x25 0x4B 0xAD EXTCODEHASH SSTORE SWAP15 PUSH5 0x736F6C6343 STOP ADDMOD SHR STOP CALLER "},"gasEstimates":{"creation":{"codeDepositCost":"4889600","executionCost":"30041","totalCost":"4919641"},"external":{"adminWithdraw(address)":"infinite","claimVoterReward(uint256)":"infinite","createTask(string[],string,string)":"infinite","donate(uint256)":"infinite","getAllNGOs()":"infinite","getAllNGOsWithTasks()":"infinite","getAllTasks()":"infinite","getDonations(uint256)":"infinite","getNGODetails(address)":"infinite","getNGOTaskStatuses(address)":"infinite","getNGOTotalFunds(address)":"infinite","getPendingTasks()":"infinite","getTaskDetails(uint256)":"infinite","getVoterDetails(address)":"2958","hasVoted(address,uint256)":"3231","ngoList(uint256)":"5024","ngos(address)":"infinite","owner()":"2622","registerNGO(string,string,string)":"infinite","registerVoter()":"24656","resolveTask(uint256)":"infinite","taskCounter()":"2519","taskDonations(uint256,uint256)":"infinite","tasks(uint256)":"infinite","vote(uint256,bool)":"infinite","voters(address)":"2895","withdrawNgoStake()":"infinite","withdrawVoterStake()":"infinite"}},"methodIdentifiers":{"adminWithdraw(address)":"a28835b6","claimVoterReward(uint256)":"c893b82f","createTask(string[],string,string)":"b580b47c","donate(uint256)":"f14faf6f","getAllNGOs()":"87b5a2dd","getAllNGOsWithTasks()":"82c4dbe5","getAllTasks()":"779900b4","getDonations(uint256)":"596d9ce2","getNGODetails(address)":"734d78c5","getNGOTaskStatuses(address)":"7abe26b4","getNGOTotalFunds(address)":"9255cb3b","getPendingTasks()":"c35b9030","getTaskDetails(uint256)":"3888b9d5","getVoterDetails(address)":"ba71bef0","hasVoted(address,uint256)":"42545825","ngoList(uint256)":"967f8982","ngos(address)":"e6f7d11e","owner()":"8da5cb5b","registerNGO(string,string,string)":"48f667b3","registerVoter()":"ecb617d9","resolveTask(uint256)":"456d908e","taskCounter()":"58671730","taskDonations(uint256,uint256)":"3df78c91","tasks(uint256)":"8d977672","vote(uint256,bool)":"c9d27afe","voters(address)":"a3ec138d","withdrawNgoStake()":"987bdee4","withdrawVoterStake()":"dffb0ece"}},"storageLayout":{"storage":[{"astId":3,"contract":"contracts/CryptoDonationPlatform.sol:NGOFunding","label":"owner","offset":0,"slot":"0","type":"t_address"},{"astId":91,"contract":"contracts/CryptoDonationPlatform.sol:NGOFunding","label":"ngos","offset":0,"slot":"1","type":"t_mapping(t_address,t_struct(NGO)27_storage)"},{"astId":96,"contract":"contracts/CryptoDonationPlatform.sol:NGOFunding","label":"voters","offset":0,"slot":"2","type":"t_mapping(t_address,t_struct(Voter)34_storage)"},{"astId":101,"contract":"contracts/CryptoDonationPlatform.sol:NGOFunding","label":"tasks","offset":0,"slot":"3","type":"t_mapping(t_uint256,t_struct(Task)60_storage)"},{"astId":107,"contract":"contracts/CryptoDonationPlatform.sol:NGOFunding","label":"taskDonations","offset":0,"slot":"4","type":"t_mapping(t_uint256,t_array(t_struct(Donation)67_storage)dyn_storage)"},{"astId":109,"contract":"contracts/CryptoDonationPlatform.sol:NGOFunding","label":"taskCounter","offset":0,"slot":"5","type":"t_uint256"},{"astId":112,"contract":"contracts/CryptoDonationPlatform.sol:NGOFunding","label":"ngoList","offset":0,"slot":"6","type":"t_array(t_address)dyn_storage"}],"types":{"t_address":{"encoding":"inplace","label":"address","numberOfBytes":"20"},"t_array(t_address)dyn_storage":{"base":"t_address","encoding":"dynamic_array","label":"address[]","numberOfBytes":"32"},"t_array(t_string_storage)dyn_storage":{"base":"t_string_storage","encoding":"dynamic_array","label":"string[]","numberOfBytes":"32"},"t_array(t_struct(Donation)67_storage)dyn_storage":{"base":"t_struct(Donation)67_storage","encoding":"dynamic_array","label":"struct NGOFunding.Donation[]","numberOfBytes":"32"},"t_array(t_uint256)dyn_storage":{"base":"t_uint256","encoding":"dynamic_array","label":"uint256[]","numberOfBytes":"32"},"t_bool":{"encoding":"inplace","label":"bool","numberOfBytes":"1"},"t_mapping(t_address,t_bool)":{"encoding":"mapping","key":"t_address","label":"mapping(address => bool)","numberOfBytes":"32","value":"t_bool"},"t_mapping(t_address,t_struct(NGO)27_storage)":{"encoding":"mapping","key":"t_address","label":"mapping(address => struct NGOFunding.NGO)","numberOfBytes":"32","value":"t_struct(NGO)27_storage"},"t_mapping(t_address,t_struct(Voter)34_storage)":{"encoding":"mapping","key":"t_address","label":"mapping(address => struct NGOFunding.Voter)","numberOfBytes":"32","value":"t_struct(Voter)34_storage"},"t_mapping(t_uint256,t_array(t_struct(Donation)67_storage)dyn_storage)":{"encoding":"mapping","key":"t_uint256","label":"mapping(uint256 => struct NGOFunding.Donation[])","numberOfBytes":"32","value":"t_array(t_struct(Donation)67_storage)dyn_storage"},"t_mapping(t_uint256,t_bool)":{"encoding":"mapping","key":"t_uint256","label":"mapping(uint256 => bool)","numberOfBytes":"32","value":"t_bool"},"t_mapping(t_uint256,t_struct(Task)60_storage)":{"encoding":"mapping","key":"t_uint256","label":"mapping(uint256 => struct NGOFunding.Task)","numberOfBytes":"32","value":"t_struct(Task)60_storage"},"t_string_storage":{"encoding":"bytes","label":"string","numberOfBytes":"32"},"t_struct(Donation)67_storage":{"encoding":"inplace","label":"struct NGOFunding.Donation","members":[{"astId":62,"contract":"contracts/CryptoDonationPlatform.sol:NGOFunding","label":"donor","offset":0,"slot":"0","type":"t_address"},{"astId":64,"contract":"contracts/CryptoDonationPlatform.sol:NGOFunding","label":"amount","offset":0,"slot":"1","type":"t_uint256"},{"astId":66,"contract":"contracts/CryptoDonationPlatform.sol:NGOFunding","label":"timestamp","offset":0,"slot":"2","type":"t_uint256"}],"numberOfBytes":"96"},"t_struct(NGO)27_storage":{"encoding":"inplace","label":"struct NGOFunding.NGO","members":[{"astId":17,"contract":"contracts/CryptoDonationPlatform.sol:NGOFunding","label":"name","offset":0,"slot":"0","type":"t_string_storage"},{"astId":19,"contract":"contracts/CryptoDonationPlatform.sol:NGOFunding","label":"description","offset":0,"slot":"1","type":"t_string_storage"},{"astId":21,"contract":"contracts/CryptoDonationPlatform.sol:NGOFunding","label":"stakedEth","offset":0,"slot":"2","type":"t_uint256"},{"astId":23,"contract":"contracts/CryptoDonationPlatform.sol:NGOFunding","label":"logo","offset":0,"slot":"3","type":"t_string_storage"},{"astId":26,"contract":"contracts/CryptoDonationPlatform.sol:NGOFunding","label":"taskIds","offset":0,"slot":"4","type":"t_array(t_uint256)dyn_storage"}],"numberOfBytes":"160"},"t_struct(Task)60_storage":{"encoding":"inplace","label":"struct NGOFunding.Task","members":[{"astId":36,"contract":"contracts/CryptoDonationPlatform.sol:NGOFunding","label":"name","offset":0,"slot":"0","type":"t_string_storage"},{"astId":38,"contract":"contracts/CryptoDonationPlatform.sol:NGOFunding","label":"description","offset":0,"slot":"1","type":"t_string_storage"},{"astId":40,"contract":"contracts/CryptoDonationPlatform.sol:NGOFunding","label":"ngo","offset":0,"slot":"2","type":"t_address"},{"astId":43,"contract":"contracts/CryptoDonationPlatform.sol:NGOFunding","label":"proofLinks","offset":0,"slot":"3","type":"t_array(t_string_storage)dyn_storage"},{"astId":45,"contract":"contracts/CryptoDonationPlatform.sol:NGOFunding","label":"status","offset":0,"slot":"4","type":"t_string_storage"},{"astId":47,"contract":"contracts/CryptoDonationPlatform.sol:NGOFunding","label":"yesVotes","offset":0,"slot":"5","type":"t_uint256"},{"astId":49,"contract":"contracts/CryptoDonationPlatform.sol:NGOFunding","label":"noVotes","offset":0,"slot":"6","type":"t_uint256"},{"astId":51,"contract":"contracts/CryptoDonationPlatform.sol:NGOFunding","label":"totalFunds","offset":0,"slot":"7","type":"t_uint256"},{"astId":53,"contract":"contracts/CryptoDonationPlatform.sol:NGOFunding","label":"startTime","offset":0,"slot":"8","type":"t_uint256"},{"astId":57,"contract":"contracts/CryptoDonationPlatform.sol:NGOFunding","label":"voters","offset":0,"slot":"9","type":"t_mapping(t_address,t_bool)"},{"astId":59,"contract":"contracts/CryptoDonationPlatform.sol:NGOFunding","label":"voterCount","offset":0,"slot":"10","type":"t_uint256"}],"numberOfBytes":"352"},"t_struct(Voter)34_storage":{"encoding":"inplace","label":"struct NGOFunding.Voter","members":[{"astId":29,"contract":"contracts/CryptoDonationPlatform.sol:NGOFunding","label":"stakedEth","offset":0,"slot":"0","type":"t_uint256"},{"astId":33,"contract":"contracts/CryptoDonationPlatform.sol:NGOFunding","label":"hasVoted","offset":0,"slot":"1","type":"t_mapping(t_uint256,t_bool)"}],"numberOfBytes":"64"},"t_uint256":{"encoding":"inplace","label":"uint256","numberOfBytes":"32"}}},"userdoc":{"kind":"user","methods":{},"version":1}}}}