{
  "_format": "hh-sol-artifact-1",
  "contractName": "NGOFunding",
  "sourceName": "contracts/CryptoDonationPlatform.sol",
  "abi": [
    {
      "inputs": [],
      "stateMutability": "nonpayable",
      "type": "constructor"
    },
    {
      "anonymous": false,
      "inputs": [
        {
          "indexed": false,
          "internalType": "uint256",
          "name": "taskId",
          "type": "uint256"
        },
        {
          "indexed": false,
          "internalType": "address",
          "name": "donor",
          "type": "address"
        },
        {
          "indexed": false,
          "internalType": "uint256",
          "name": "amount",
          "type": "uint256"
        },
        {
          "indexed": false,
          "internalType": "uint256",
          "name": "donationId",
          "type": "uint256"
        }
      ],
      "name": "Donated",
      "type": "event"
    },
    {
      "anonymous": false,
      "inputs": [
        {
          "indexed": false,
          "internalType": "address",
          "name": "ngo",
          "type": "address"
        },
        {
          "indexed": false,
          "internalType": "uint256",
          "name": "amount",
          "type": "uint256"
        }
      ],
      "name": "NGOStakeWithdrawn",
      "type": "event"
    },
    {
      "anonymous": false,
      "inputs": [
        {
          "indexed": false,
          "internalType": "uint256",
          "name": "taskId",
          "type": "uint256"
        },
        {
          "indexed": false,
          "internalType": "address",
          "name": "ngo",
          "type": "address"
        }
      ],
      "name": "TaskCreated",
      "type": "event"
    },
    {
      "anonymous": false,
      "inputs": [
        {
          "indexed": false,
          "internalType": "uint256",
          "name": "taskId",
          "type": "uint256"
        },
        {
          "indexed": false,
          "internalType": "string",
          "name": "status",
          "type": "string"
        }
      ],
      "name": "TaskResolved",
      "type": "event"
    },
    {
      "anonymous": false,
      "inputs": [
        {
          "indexed": false,
          "internalType": "uint256",
          "name": "taskId",
          "type": "uint256"
        },
        {
          "indexed": false,
          "internalType": "address",
          "name": "voter",
          "type": "address"
        },
        {
          "indexed": false,
          "internalType": "bool",
          "name": "vote",
          "type": "bool"
        }
      ],
      "name": "Voted",
      "type": "event"
    },
    {
      "inputs": [
        {
          "internalType": "address",
          "name": "ngoAdd",
          "type": "address"
        }
      ],
      "name": "adminWithdraw",
      "outputs": [],
      "stateMutability": "nonpayable",
      "type": "function"
    },
    {
      "inputs": [
        {
          "internalType": "uint256",
          "name": "_taskId",
          "type": "uint256"
        }
      ],
      "name": "claimVoterReward",
      "outputs": [],
      "stateMutability": "nonpayable",
      "type": "function"
    },
    {
      "inputs": [
        {
          "internalType": "string[]",
          "name": "_proofLinks",
          "type": "string[]"
        },
        {
          "internalType": "string",
          "name": "_name",
          "type": "string"
        },
        {
          "internalType": "string",
          "name": "_description",
          "type": "string"
        }
      ],
      "name": "createTask",
      "outputs": [],
      "stateMutability": "nonpayable",
      "type": "function"
    },
    {
      "inputs": [
        {
          "internalType": "uint256",
          "name": "_taskId",
          "type": "uint256"
        }
      ],
      "name": "donate",
      "outputs": [],
      "stateMutability": "payable",
      "type": "function"
    },
    {
      "inputs": [],
      "name": "getAllNGOs",
      "outputs": [
        {
          "internalType": "address[]",
          "name": "",
          "type": "address[]"
        }
      ],
      "stateMutability": "view",
      "type": "function"
    },
    {
      "inputs": [],
      "name": "getAllNGOsWithTasks",
      "outputs": [
        {
          "components": [
            {
              "internalType": "uint256",
              "name": "id",
              "type": "uint256"
            },
            {
              "internalType": "string",
              "name": "name",
              "type": "string"
            },
            {
              "internalType": "string",
              "name": "description",
              "type": "string"
            },
            {
              "components": [
                {
                  "internalType": "uint256",
                  "name": "taskId",
                  "type": "uint256"
                },
                {
                  "internalType": "string",
                  "name": "description",
                  "type": "string"
                },
                {
                  "internalType": "string[]",
                  "name": "proofLinks",
                  "type": "string[]"
                }
              ],
              "internalType": "struct NGOFunding.TaskDetails[]",
              "name": "tasks",
              "type": "tuple[]"
            }
          ],
          "internalType": "struct NGOFunding.NGOWithTasks[]",
          "name": "",
          "type": "tuple[]"
        }
      ],
      "stateMutability": "view",
      "type": "function"
    },
    {
      "inputs": [],
      "name": "getAllTasks",
      "outputs": [
        {
          "internalType": "uint256[]",
          "name": "",
          "type": "uint256[]"
        }
      ],
      "stateMutability": "view",
      "type": "function"
    },
    {
      "inputs": [
        {
          "internalType": "uint256",
          "name": "_taskId",
          "type": "uint256"
        }
      ],
      "name": "getDonations",
      "outputs": [
        {
          "components": [
            {
              "internalType": "address",
              "name": "donor",
              "type": "address"
            },
            {
              "internalType": "uint256",
              "name": "amount",
              "type": "uint256"
            },
            {
              "internalType": "uint256",
              "name": "timestamp",
              "type": "uint256"
            }
          ],
          "internalType": "struct NGOFunding.Donation[]",
          "name": "",
          "type": "tuple[]"
        }
      ],
      "stateMutability": "view",
      "type": "function"
    },
    {
      "inputs": [
        {
          "internalType": "address",
          "name": "_ngo",
          "type": "address"
        }
      ],
      "name": "getNGODetails",
      "outputs": [
        {
          "internalType": "string",
          "name": "name",
          "type": "string"
        },
        {
          "internalType": "string",
          "name": "description",
          "type": "string"
        },
        {
          "internalType": "uint256",
          "name": "stakedEth",
          "type": "uint256"
        },
        {
          "internalType": "uint256[]",
          "name": "taskIds",
          "type": "uint256[]"
        },
        {
          "internalType": "string",
          "name": "logo",
          "type": "string"
        }
      ],
      "stateMutability": "view",
      "type": "function"
    },
    {
      "inputs": [
        {
          "internalType": "address",
          "name": "_ngo",
          "type": "address"
        }
      ],
      "name": "getNGOTaskStatuses",
      "outputs": [
        {
          "internalType": "uint256[]",
          "name": "taskIds",
          "type": "uint256[]"
        },
        {
          "internalType": "string[]",
          "name": "statuses",
          "type": "string[]"
        }
      ],
      "stateMutability": "view",
      "type": "function"
    },
    {
      "inputs": [
        {
          "internalType": "address",
          "name": "_ngo",
          "type": "address"
        }
      ],
      "name": "getNGOTotalFunds",
      "outputs": [
        {
          "internalType": "uint256",
          "name": "totalFunds",
          "type": "uint256"
        }
      ],
      "stateMutability": "view",
      "type": "function"
    },
    {
      "inputs": [],
      "name": "getPendingTasks",
      "outputs": [
        {
          "internalType": "uint256[]",
          "name": "",
          "type": "uint256[]"
        }
      ],
      "stateMutability": "view",
      "type": "function"
    },
    {
      "inputs": [
        {
          "internalType": "uint256",
          "name": "_taskId",
          "type": "uint256"
        }
      ],
      "name": "getTaskDetails",
      "outputs": [
        {
          "internalType": "address",
          "name": "ngo",
          "type": "address"
        },
        {
          "internalType": "string[]",
          "name": "proofLinks",
          "type": "string[]"
        },
        {
          "internalType": "string",
          "name": "status",
          "type": "string"
        },
        {
          "internalType": "uint256",
          "name": "yesVotes",
          "type": "uint256"
        },
        {
          "internalType": "uint256",
          "name": "noVotes",
          "type": "uint256"
        },
        {
          "internalType": "uint256",
          "name": "totalFunds",
          "type": "uint256"
        },
        {
          "internalType": "uint256",
          "name": "startTime",
          "type": "uint256"
        },
        {
          "internalType": "uint256",
          "name": "voterCount",
          "type": "uint256"
        },
        {
          "internalType": "string",
          "name": "name",
          "type": "string"
        },
        {
          "internalType": "string",
          "name": "taskDescription",
          "type": "string"
        }
      ],
      "stateMutability": "view",
      "type": "function"
    },
    {
      "inputs": [
        {
          "internalType": "address",
          "name": "_voter",
          "type": "address"
        }
      ],
      "name": "getVoterDetails",
      "outputs": [
        {
          "internalType": "uint256",
          "name": "stakedEth",
          "type": "uint256"
        }
      ],
      "stateMutability": "view",
      "type": "function"
    },
    {
      "inputs": [
        {
          "internalType": "address",
          "name": "_voter",
          "type": "address"
        },
        {
          "internalType": "uint256",
          "name": "_taskId",
          "type": "uint256"
        }
      ],
      "name": "hasVoted",
      "outputs": [
        {
          "internalType": "bool",
          "name": "",
          "type": "bool"
        }
      ],
      "stateMutability": "view",
      "type": "function"
    },
    {
      "inputs": [
        {
          "internalType": "uint256",
          "name": "",
          "type": "uint256"
        }
      ],
      "name": "ngoList",
      "outputs": [
        {
          "internalType": "address",
          "name": "",
          "type": "address"
        }
      ],
      "stateMutability": "view",
      "type": "function"
    },
    {
      "inputs": [
        {
          "internalType": "address",
          "name": "",
          "type": "address"
        }
      ],
      "name": "ngos",
      "outputs": [
        {
          "internalType": "string",
          "name": "name",
          "type": "string"
        },
        {
          "internalType": "string",
          "name": "description",
          "type": "string"
        },
        {
          "internalType": "uint256",
          "name": "stakedEth",
          "type": "uint256"
        },
        {
          "internalType": "string",
          "name": "logo",
          "type": "string"
        }
      ],
      "stateMutability": "view",
      "type": "function"
    },
    {
      "inputs": [],
      "name": "owner",
      "outputs": [
        {
          "internalType": "address",
          "name": "",
          "type": "address"
        }
      ],
      "stateMutability": "view",
      "type": "function"
    },
    {
      "inputs": [
        {
          "internalType": "string",
          "name": "_name",
          "type": "string"
        },
        {
          "internalType": "string",
          "name": "_description",
          "type": "string"
        },
        {
          "internalType": "string",
          "name": "_logo",
          "type": "string"
        }
      ],
      "name": "registerNGO",
      "outputs": [],
      "stateMutability": "payable",
      "type": "function"
    },
    {
      "inputs": [],
      "name": "registerVoter",
      "outputs": [],
      "stateMutability": "payable",
      "type": "function"
    },
    {
      "inputs": [
        {
          "internalType": "uint256",
          "name": "_taskId",
          "type": "uint256"
        }
      ],
      "name": "resolveTask",
      "outputs": [],
      "stateMutability": "nonpayable",
      "type": "function"
    },
    {
      "inputs": [],
      "name": "taskCounter",
      "outputs": [
        {
          "internalType": "uint256",
          "name": "",
          "type": "uint256"
        }
      ],
      "stateMutability": "view",
      "type": "function"
    },
    {
      "inputs": [
        {
          "internalType": "uint256",
          "name": "",
          "type": "uint256"
        },
        {
          "internalType": "uint256",
          "name": "",
          "type": "uint256"
        }
      ],
      "name": "taskDonations",
      "outputs": [
        {
          "internalType": "address",
          "name": "donor",
          "type": "address"
        },
        {
          "internalType": "uint256",
          "name": "amount",
          "type": "uint256"
        },
        {
          "internalType": "uint256",
          "name": "timestamp",
          "type": "uint256"
        }
      ],
      "stateMutability": "view",
      "type": "function"
    },
    {
      "inputs": [
        {
          "internalType": "uint256",
          "name": "",
          "type": "uint256"
        }
      ],
      "name": "tasks",
      "outputs": [
        {
          "internalType": "string",
          "name": "name",
          "type": "string"
        },
        {
          "internalType": "string",
          "name": "description",
          "type": "string"
        },
        {
          "internalType": "address",
          "name": "ngo",
          "type": "address"
        },
        {
          "internalType": "string",
          "name": "status",
          "type": "string"
        },
        {
          "internalType": "uint256",
          "name": "yesVotes",
          "type": "uint256"
        },
        {
          "internalType": "uint256",
          "name": "noVotes",
          "type": "uint256"
        },
        {
          "internalType": "uint256",
          "name": "totalFunds",
          "type": "uint256"
        },
        {
          "internalType": "uint256",
          "name": "startTime",
          "type": "uint256"
        },
        {
          "internalType": "uint256",
          "name": "voterCount",
          "type": "uint256"
        }
      ],
      "stateMutability": "view",
      "type": "function"
    },
    {
      "inputs": [
        {
          "internalType": "uint256",
          "name": "_taskId",
          "type": "uint256"
        },
        {
          "internalType": "bool",
          "name": "_approve",
          "type": "bool"
        }
      ],
      "name": "vote",
      "outputs": [],
      "stateMutability": "nonpayable",
      "type": "function"
    },
    {
      "inputs": [
        {
          "internalType": "address",
          "name": "",
          "type": "address"
        }
      ],
      "name": "voters",
      "outputs": [
        {
          "internalType": "uint256",
          "name": "stakedEth",
          "type": "uint256"
        }
      ],
      "stateMutability": "view",
      "type": "function"
    },
    {
      "inputs": [],
      "name": "withdrawNgoStake",
      "outputs": [],
      "stateMutability": "payable",
      "type": "function"
    },
    {
      "inputs": [],
      "name": "withdrawVoterStake",
      "outputs": [],
      "stateMutability": "payable",
      "type": "function"
    }
  ],
  "bytecode": "0x6080604052348015600f57600080fd5b50336000806101000a81548173ffffffffffffffffffffffffffffffffffffffff021916908373ffffffffffffffffffffffffffffffffffffffff160217905550615f818061005f6000396000f3fe6080604052600436106101b75760003560e01c80639255cb3b116100ec578063c35b90301161008a578063dffb0ece11610064578063dffb0ece14610668578063e6f7d11e14610672578063ecb617d9146106b2578063f14faf6f146106bc576101b7565b8063c35b9030146105eb578063c893b82f14610616578063c9d27afe1461063f576101b7565b8063a28835b6116100c6578063a28835b61461051f578063a3ec138d14610548578063b580b47c14610585578063ba71bef0146105ae576101b7565b80639255cb3b1461049b578063967f8982146104d8578063987bdee414610515576101b7565b8063734d78c51161015957806382c4dbe51161013357806382c4dbe5146103d557806387b5a2dd146104005780638d9776721461042b5780638da5cb5b14610470576101b7565b8063734d78c51461032b578063779900b41461036c5780637abe26b414610397576101b7565b8063456d908e11610195578063456d908e1461027e57806348f667b3146102a757806358671730146102c3578063596d9ce2146102ee576101b7565b80633888b9d5146101bc5780633df78c91146102025780634254582514610241575b600080fd5b3480156101c857600080fd5b506101e360048036038101906101de9190613fb9565b6106d8565b6040516101f99a999897969594939291906141d2565b60405180910390f35b34801561020e57600080fd5b506102296004803603810190610224919061428a565b610a79565b604051610238939291906142ca565b60405180910390f35b34801561024d57600080fd5b506102686004803603810190610263919061432d565b610ae0565b6040516102759190614388565b60405180910390f35b34801561028a57600080fd5b506102a560048036038101906102a09190613fb9565b610b4b565b005b6102c160048036038101906102bc91906144d8565b61113a565b005b3480156102cf57600080fd5b506102d861138c565b6040516102e5919061457f565b60405180910390f35b3480156102fa57600080fd5b5061031560048036038101906103109190613fb9565b611392565b60405161032291906146a9565b60405180910390f35b34801561033757600080fd5b50610352600480360381019061034d91906146cb565b61146e565b6040516103639594939291906147a7565b60405180910390f35b34801561037857600080fd5b5061038161171f565b60405161038e9190614816565b60405180910390f35b3480156103a357600080fd5b506103be60048036038101906103b991906146cb565b6117c7565b6040516103cc929190614838565b60405180910390f35b3480156103e157600080fd5b506103ea6119f1565b6040516103f79190614b41565b60405180910390f35b34801561040c57600080fd5b50610415611eb6565b6040516104229190614c12565b60405180910390f35b34801561043757600080fd5b50610452600480360381019061044d9190613fb9565b611f44565b60405161046799989796959493929190614c34565b60405180910390f35b34801561047c57600080fd5b5061048561214a565b6040516104929190614cd6565b60405180910390f35b3480156104a757600080fd5b506104c260048036038101906104bd91906146cb565b61216e565b6040516104cf919061457f565b60405180910390f35b3480156104e457600080fd5b506104ff60048036038101906104fa9190613fb9565b6122f5565b60405161050c9190614cd6565b60405180910390f35b61051d612334565b005b34801561052b57600080fd5b50610546600480360381019061054191906146cb565b612690565b005b34801561055457600080fd5b5061056f600480360381019061056a91906146cb565b6129f1565b60405161057c919061457f565b60405180910390f35b34801561059157600080fd5b506105ac60048036038101906105a79190614dd7565b612a0f565b005b3480156105ba57600080fd5b506105d560048036038101906105d091906146cb565b612c41565b6040516105e2919061457f565b60405180910390f35b3480156105f757600080fd5b50610600612c8d565b60405161060d9190614816565b60405180910390f35b34801561062257600080fd5b5061063d60048036038101906106389190613fb9565b612ea9565b005b34801561064b57600080fd5b5061066660048036038101906106619190614eaa565b61318d565b005b61067061360e565b005b34801561067e57600080fd5b50610699600480360381019061069491906146cb565b61381c565b6040516106a99493929190614eea565b60405180910390f35b6106ba6139e4565b005b6106d660048036038101906106d19190613fb9565b613af5565b005b600060608060008060008060006060806000600360008d81526020019081526020016000209050600073ffffffffffffffffffffffffffffffffffffffff168160020160009054906101000a900473ffffffffffffffffffffffffffffffffffffffff1673ffffffffffffffffffffffffffffffffffffffff1603610792576040517f08c379a000000000000000000000000000000000000000000000000000000000815260040161078990614f90565b60405180910390fd5b8060020160009054906101000a900473ffffffffffffffffffffffffffffffffffffffff168160030182600401836005015484600601548560070154866008015487600a0154886000018960010188805480602002602001604051908101604052809291908181526020016000905b828210156108ad57838290600052602060002001805461082090614fdf565b80601f016020809104026020016040519081016040528092919081815260200182805461084c90614fdf565b80156108995780601f1061086e57610100808354040283529160200191610899565b820191906000526020600020905b81548152906001019060200180831161087c57829003601f168201915b505050505081526020019060010190610801565b5050505098508780546108bf90614fdf565b80601f01602080910402602001604051908101604052809291908181526020018280546108eb90614fdf565b80156109385780601f1061090d57610100808354040283529160200191610938565b820191906000526020600020905b81548152906001019060200180831161091b57829003601f168201915b5050505050975081805461094b90614fdf565b80601f016020809104026020016040519081016040528092919081815260200182805461097790614fdf565b80156109c45780601f10610999576101008083540402835291602001916109c4565b820191906000526020600020905b8154815290600101906020018083116109a757829003601f168201915b505050505091508080546109d790614fdf565b80601f0160208091040260200160405190810160405280929190818152602001828054610a0390614fdf565b8015610a505780601f10610a2557610100808354040283529160200191610a50565b820191906000526020600020905b815481529060010190602001808311610a3357829003601f168201915b505050505090509a509a509a509a509a509a509a509a509a509a50509193959799509193959799565b60046020528160005260406000208181548110610a9557600080fd5b9060005260206000209060030201600091509150508060000160009054906101000a900473ffffffffffffffffffffffffffffffffffffffff16908060010154908060020154905083565b6000600260008473ffffffffffffffffffffffffffffffffffffffff1673ffffffffffffffffffffffffffffffffffffffff168152602001908152602001600020600101600083815260200190815260200160002060009054906101000a900460ff16905092915050565b6000600360008381526020019081526020016000209050600073ffffffffffffffffffffffffffffffffffffffff168160020160009054906101000a900473ffffffffffffffffffffffffffffffffffffffff1673ffffffffffffffffffffffffffffffffffffffff1603610bf5576040517f08c379a0000000000000000000000000000000000000000000000000000000008152600401610bec90614f90565b60405180910390fd5b6040518060400160405280600781526020017f70656e64696e67000000000000000000000000000000000000000000000000008152508051906020012081600401604051610c4391906150b3565b604051809103902014610c8b576040517f08c379a0000000000000000000000000000000000000000000000000000000008152600401610c8290615116565b60405180910390fd5b62093a808160080154610c9e9190615165565b4211610cdf576040517f08c379a0000000000000000000000000000000000000000000000000000000008152600401610cd6906151e5565b60405180910390fd5b60008082600a015411610cf3576000610d11565b606460058360070154610d069190615205565b610d109190615276565b5b90506000818360070154610d2591906152a7565b9050600083600601548460050154610d3d9190615165565b9050600081118015610d6b575060328160648660050154610d5e9190615205565b610d689190615276565b10155b15610e8d576040518060400160405280600881526020017f617070726f766564000000000000000000000000000000000000000000000000815250846004019081610db69190615487565b5060008460020160009054906101000a900473ffffffffffffffffffffffffffffffffffffffff1673ffffffffffffffffffffffffffffffffffffffff1683604051610e019061557f565b60006040518083038185875af1925050503d8060008114610e3e576040519150601f19603f3d011682016040523d82523d6000602084013e610e43565b606091505b5050905080610e87576040517f08c379a0000000000000000000000000000000000000000000000000000000008152600401610e7e906155e0565b60405180910390fd5b506110f7565b6040518060400160405280600881526020017f72656a6563746564000000000000000000000000000000000000000000000000815250846004019081610ed39190615487565b506000805b6004600088815260200190815260200160002080549050811015610f4757600460008881526020019081526020016000208181548110610f1b57610f1a615600565b5b90600052602060002090600302016001015482610f389190615165565b91508080600101915050610ed8565b5060005b60046000888152602001908152602001600020805490508110156110f4576000600460008981526020019081526020016000208281548110610f9057610f8f615600565b5b90600052602060002090600302016040518060600160405290816000820160009054906101000a900473ffffffffffffffffffffffffffffffffffffffff1673ffffffffffffffffffffffffffffffffffffffff1673ffffffffffffffffffffffffffffffffffffffff1681526020016001820154815260200160028201548152505090506000838683602001516110289190615205565b6110329190615276565b90506000826000015173ffffffffffffffffffffffffffffffffffffffff168260405161105e9061557f565b60006040518083038185875af1925050503d806000811461109b576040519150601f19603f3d011682016040523d82523d6000602084013e6110a0565b606091505b50509050806110e4576040517f08c379a00000000000000000000000000000000000000000000000000000000081526004016110db9061567b565b60405180910390fd5b5050508080600101915050610f4b565b50505b7f622e8aea88c24b5860ee5c8b8fbf8e18b632e7a412ed546c499ded2088e187ad858560040160405161112b92919061571f565b60405180910390a15050505050565b670de0b6b3a76400003411611184576040517f08c379a000000000000000000000000000000000000000000000000000000000815260040161117b9061579b565b60405180910390fd5b6000600160003373ffffffffffffffffffffffffffffffffffffffff1673ffffffffffffffffffffffffffffffffffffffff1681526020019081526020016000206002015414611209576040517f08c379a000000000000000000000000000000000000000000000000000000000815260040161120090615807565b60405180910390fd5b6040518060a00160405280848152602001838152602001348152602001828152602001600067ffffffffffffffff811115611247576112466143ad565b5b6040519080825280602002602001820160405280156112755781602001602082028036833780820191505090505b50815250600160003373ffffffffffffffffffffffffffffffffffffffff1673ffffffffffffffffffffffffffffffffffffffff16815260200190815260200160002060008201518160000190816112cd9190615487565b5060208201518160010190816112e39190615487565b506040820151816002015560608201518160030190816113039190615487565b506080820151816004019080519060200190611320929190613dde565b509050506006339080600181540180825580915050600190039060005260206000200160009091909190916101000a81548173ffffffffffffffffffffffffffffffffffffffff021916908373ffffffffffffffffffffffffffffffffffffffff160217905550505050565b60055481565b606060046000838152602001908152602001600020805480602002602001604051908101604052809291908181526020016000905b8282101561146357838290600052602060002090600302016040518060600160405290816000820160009054906101000a900473ffffffffffffffffffffffffffffffffffffffff1673ffffffffffffffffffffffffffffffffffffffff1673ffffffffffffffffffffffffffffffffffffffff16815260200160018201548152602001600282015481525050815260200190600101906113c7565b505050509050919050565b60608060006060806000600160008873ffffffffffffffffffffffffffffffffffffffff1673ffffffffffffffffffffffffffffffffffffffff16815260200190815260200160002090506000816002015411611500576040517f08c379a00000000000000000000000000000000000000000000000000000000081526004016114f790615873565b60405180910390fd5b80600001816001018260020154836004018460030184805461152190614fdf565b80601f016020809104026020016040519081016040528092919081815260200182805461154d90614fdf565b801561159a5780601f1061156f5761010080835404028352916020019161159a565b820191906000526020600020905b81548152906001019060200180831161157d57829003601f168201915b505050505094508380546115ad90614fdf565b80601f01602080910402602001604051908101604052809291908181526020018280546115d990614fdf565b80156116265780601f106115fb57610100808354040283529160200191611626565b820191906000526020600020905b81548152906001019060200180831161160957829003601f168201915b505050505093508180548060200260200160405190810160405280929190818152602001828054801561167857602002820191906000526020600020905b815481526020019060010190808311611664575b5050505050915080805461168b90614fdf565b80601f01602080910402602001604051908101604052809291908181526020018280546116b790614fdf565b80156117045780601f106116d957610100808354040283529160200191611704565b820191906000526020600020905b8154815290600101906020018083116116e757829003601f168201915b50505050509050955095509550955095505091939590929450565b6060600060055467ffffffffffffffff81111561173f5761173e6143ad565b5b60405190808252806020026020018201604052801561176d5781602001602082028036833780820191505090505b5090506000600190505b60055481116117bf57808260018361178f91906152a7565b815181106117a05761179f615600565b5b60200260200101818152505080806117b790615893565b915050611777565b508091505090565b6060806000600160008573ffffffffffffffffffffffffffffffffffffffff1673ffffffffffffffffffffffffffffffffffffffff16815260200190815260200160002090506000816002015411611854576040517f08c379a000000000000000000000000000000000000000000000000000000000815260040161184b90615873565b60405180910390fd5b806004018054806020026020016040519081016040528092919081815260200182805480156118a257602002820191906000526020600020905b81548152602001906001019080831161188e575b50505050509250825167ffffffffffffffff8111156118c4576118c36143ad565b5b6040519080825280602002602001820160405280156118f757816020015b60608152602001906001900390816118e25790505b50915060005b83518110156119ea576003600085838151811061191d5761191c615600565b5b60200260200101518152602001908152602001600020600401805461194190614fdf565b80601f016020809104026020016040519081016040528092919081815260200182805461196d90614fdf565b80156119ba5780601f1061198f576101008083540402835291602001916119ba565b820191906000526020600020905b81548152906001019060200180831161199d57829003601f168201915b50505050508382815181106119d2576119d1615600565b5b602002602001018190525080806001019150506118fd565b5050915091565b6060600060068054905067ffffffffffffffff811115611a1457611a136143ad565b5b604051908082528060200260200182016040528015611a4d57816020015b611a3a613e2b565b815260200190600190039081611a325790505b50905060005b600680549050811015611eae57600060068281548110611a7657611a75615600565b5b9060005260206000200160009054906101000a900473ffffffffffffffffffffffffffffffffffffffff1690506000600160008373ffffffffffffffffffffffffffffffffffffffff1673ffffffffffffffffffffffffffffffffffffffff16815260200190815260200160002090506000816004018054905067ffffffffffffffff811115611b0957611b086143ad565b5b604051908082528060200260200182016040528015611b4257816020015b611b2f613e53565b815260200190600190039081611b275790505b50905060005b8260040180549050811015611d3a576000836004018281548110611b6f57611b6e615600565b5b9060005260206000200154905060006003600083815260200190815260200160002090506040518060600160405280838152602001826001018054611bb390614fdf565b80601f0160208091040260200160405190810160405280929190818152602001828054611bdf90614fdf565b8015611c2c5780601f10611c0157610100808354040283529160200191611c2c565b820191906000526020600020905b815481529060010190602001808311611c0f57829003601f168201915b5050505050815260200182600301805480602002602001604051908101604052809291908181526020016000905b82821015611d06578382906000526020600020018054611c7990614fdf565b80601f0160208091040260200160405190810160405280929190818152602001828054611ca590614fdf565b8015611cf25780601f10611cc757610100808354040283529160200191611cf2565b820191906000526020600020905b815481529060010190602001808311611cd557829003601f168201915b505050505081526020019060010190611c5a565b50505050815250848481518110611d2057611d1f615600565b5b602002602001018190525050508080600101915050611b48565b506040518060800160405280600186611d539190615165565b8152602001836000018054611d6790614fdf565b80601f0160208091040260200160405190810160405280929190818152602001828054611d9390614fdf565b8015611de05780601f10611db557610100808354040283529160200191611de0565b820191906000526020600020905b815481529060010190602001808311611dc357829003601f168201915b50505050508152602001836001018054611df990614fdf565b80601f0160208091040260200160405190810160405280929190818152602001828054611e2590614fdf565b8015611e725780601f10611e4757610100808354040283529160200191611e72565b820191906000526020600020905b815481529060010190602001808311611e5557829003601f168201915b5050505050815260200182815250858581518110611e9357611e92615600565b5b60200260200101819052505050508080600101915050611a53565b508091505090565b60606006805480602002602001604051908101604052809291908181526020018280548015611f3a57602002820191906000526020600020905b8160009054906101000a900473ffffffffffffffffffffffffffffffffffffffff1673ffffffffffffffffffffffffffffffffffffffff1681526020019060010190808311611ef0575b5050505050905090565b6003602052806000526040600020600091509050806000018054611f6790614fdf565b80601f0160208091040260200160405190810160405280929190818152602001828054611f9390614fdf565b8015611fe05780601f10611fb557610100808354040283529160200191611fe0565b820191906000526020600020905b815481529060010190602001808311611fc357829003601f168201915b505050505090806001018054611ff590614fdf565b80601f016020809104026020016040519081016040528092919081815260200182805461202190614fdf565b801561206e5780601f106120435761010080835404028352916020019161206e565b820191906000526020600020905b81548152906001019060200180831161205157829003601f168201915b5050505050908060020160009054906101000a900473ffffffffffffffffffffffffffffffffffffffff16908060040180546120a990614fdf565b80601f01602080910402602001604051908101604052809291908181526020018280546120d590614fdf565b80156121225780601f106120f757610100808354040283529160200191612122565b820191906000526020600020905b81548152906001019060200180831161210557829003601f168201915b50505050509080600501549080600601549080600701549080600801549080600a0154905089565b60008054906101000a900473ffffffffffffffffffffffffffffffffffffffff1681565b600080600160008473ffffffffffffffffffffffffffffffffffffffff1673ffffffffffffffffffffffffffffffffffffffff168152602001908152602001600020905060008160020154116121f9576040517f08c379a00000000000000000000000000000000000000000000000000000000081526004016121f090615873565b60405180910390fd5b6000915060005b81600401805490508110156122ee576040518060400160405280600881526020017f617070726f766564000000000000000000000000000000000000000000000000815250805190602001206003600084600401848154811061226657612265615600565b5b9060005260206000200154815260200190815260200160002060040160405161228f91906150b3565b6040518091039020036122e157600360008360040183815481106122b6576122b5615600565b5b9060005260206000200154815260200190815260200160002060070154836122de9190615165565b92505b8080600101915050612200565b5050919050565b6006818154811061230557600080fd5b906000526020600020016000915054906101000a900473ffffffffffffffffffffffffffffffffffffffff1681565b6000600160003373ffffffffffffffffffffffffffffffffffffffff1673ffffffffffffffffffffffffffffffffffffffff16815260200190815260200160002060020154116123b9576040517f08c379a00000000000000000000000000000000000000000000000000000000081526004016123b090615927565b60405180910390fd5b6000600160003373ffffffffffffffffffffffffffffffffffffffff1673ffffffffffffffffffffffffffffffffffffffff168152602001908152602001600020905060005b81600401805490508110156125085760006003600084600401848154811061242a57612429615600565b5b9060005260206000200154815260200190815260200160002090506040518060400160405280600781526020017f70656e64696e6700000000000000000000000000000000000000000000000000815250805190602001208160040160405161249391906150b3565b60405180910390201480156124ba575062093a8081600801546124b69190615165565b4211155b156124fa576040517f08c379a00000000000000000000000000000000000000000000000000000000081526004016124f1906159b9565b60405180910390fd5b5080806001019150506123ff565b506000816002015490506000826002018190555060003373ffffffffffffffffffffffffffffffffffffffff16826040516125429061557f565b60006040518083038185875af1925050503d806000811461257f576040519150601f19603f3d011682016040523d82523d6000602084013e612584565b606091505b50509050806125c8576040517f08c379a00000000000000000000000000000000000000000000000000000000081526004016125bf90615a25565b60405180910390fd5b600160003373ffffffffffffffffffffffffffffffffffffffff1673ffffffffffffffffffffffffffffffffffffffff168152602001908152602001600020600080820160006126189190613e74565b6001820160006126289190613e74565b60028201600090556003820160006126409190613e74565b6004820160006126509190613eb4565b50507f45e86ef28678bb11eb3a2909bef25215399cdebb7c34dacb2179034cf6e2c9053383604051612683929190615a45565b60405180910390a1505050565b60008054906101000a900473ffffffffffffffffffffffffffffffffffffffff1673ffffffffffffffffffffffffffffffffffffffff163373ffffffffffffffffffffffffffffffffffffffff161461271e576040517f08c379a000000000000000000000000000000000000000000000000000000000815260040161271590615aba565b60405180910390fd5b6000600160008373ffffffffffffffffffffffffffffffffffffffff1673ffffffffffffffffffffffffffffffffffffffff16815260200190815260200160002060020154116127a3576040517f08c379a000000000000000000000000000000000000000000000000000000000815260040161279a90615927565b60405180910390fd5b6000600160008373ffffffffffffffffffffffffffffffffffffffff1673ffffffffffffffffffffffffffffffffffffffff168152602001908152602001600020905060005b81600401805490508110156128f25760006003600084600401848154811061281457612813615600565b5b9060005260206000200154815260200190815260200160002090506040518060400160405280600781526020017f70656e64696e6700000000000000000000000000000000000000000000000000815250805190602001208160040160405161287d91906150b3565b60405180910390201480156128a4575062093a8081600801546128a09190615165565b4211155b156128e4576040517f08c379a00000000000000000000000000000000000000000000000000000000081526004016128db906159b9565b60405180910390fd5b5080806001019150506127e9565b506000816002015490506000826002018190555060003373ffffffffffffffffffffffffffffffffffffffff168260405161292c9061557f565b60006040518083038185875af1925050503d8060008114612969576040519150601f19603f3d011682016040523d82523d6000602084013e61296e565b606091505b50509050806129b2576040517f08c379a00000000000000000000000000000000000000000000000000000000081526004016129a990615a25565b60405180910390fd5b7f45e86ef28678bb11eb3a2909bef25215399cdebb7c34dacb2179034cf6e2c90533836040516129e3929190615a45565b60405180910390a150505050565b60026020528060005260406000206000915090508060000154905081565b6000600160003373ffffffffffffffffffffffffffffffffffffffff1673ffffffffffffffffffffffffffffffffffffffff1681526020019081526020016000206002015411612a94576040517f08c379a0000000000000000000000000000000000000000000000000000000008152600401612a8b90615873565b60405180910390fd5b60056000815480929190612aa790615893565b919050555060006003600060055481526020019081526020016000209050338160020160006101000a81548173ffffffffffffffffffffffffffffffffffffffff021916908373ffffffffffffffffffffffffffffffffffffffff16021790555083816003019080519060200190612b20929190613ed5565b506040518060400160405280600781526020017f70656e64696e6700000000000000000000000000000000000000000000000000815250816004019081612b679190615487565b5042816008018190555082816000019081612b829190615487565b5081816001019081612b949190615487565b50600160003373ffffffffffffffffffffffffffffffffffffffff1673ffffffffffffffffffffffffffffffffffffffff16815260200190815260200160002060040160055490806001815401808255809150506001900390600052602060002001600090919091909150557fe9ee39160568153d230ca0e29961267415d513defbb7d3b21af0fe940e1ebd1560055433604051612c33929190615ada565b60405180910390a150505050565b6000600260008373ffffffffffffffffffffffffffffffffffffffff1673ffffffffffffffffffffffffffffffffffffffff168152602001908152602001600020600001549050919050565b6060600080600190505b6005548111612d60576040518060400160405280600781526020017f70656e64696e67000000000000000000000000000000000000000000000000008152508051906020012060036000838152602001908152602001600020600401604051612d0091906150b3565b6040518091039020148015612d39575062093a806003600083815260200190815260200160002060080154612d359190615165565b4211155b15612d4d578180612d4990615893565b9250505b8080612d5890615893565b915050612c97565b5060008167ffffffffffffffff811115612d7d57612d7c6143ad565b5b604051908082528060200260200182016040528015612dab5781602001602082028036833780820191505090505b509050600080600190505b6005548111612e9f576040518060400160405280600781526020017f70656e64696e67000000000000000000000000000000000000000000000000008152508051906020012060036000838152602001908152602001600020600401604051612e1f91906150b3565b6040518091039020148015612e58575062093a806003600083815260200190815260200160002060080154612e549190615165565b4211155b15612e8c5780838381518110612e7157612e70615600565b5b6020026020010181815250508180612e8890615893565b9250505b8080612e9790615893565b915050612db6565b5081935050505090565b6003600082815260200190815260200160002060090160003373ffffffffffffffffffffffffffffffffffffffff1673ffffffffffffffffffffffffffffffffffffffff16815260200190815260200160002060009054906101000a900460ff16612f49576040517f08c379a0000000000000000000000000000000000000000000000000000000008152600401612f4090615b4f565b60405180910390fd5b6040518060400160405280600781526020017f70656e64696e67000000000000000000000000000000000000000000000000008152508051906020012060036000838152602001908152602001600020600401604051612fa991906150b3565b604051809103902003612ff1576040517f08c379a0000000000000000000000000000000000000000000000000000000008152600401612fe890615bbb565b60405180910390fd5b60006064600560036000858152602001908152602001600020600701546130189190615205565b6130229190615276565b905060008060036000858152602001908152602001600020600a01541161304a57600061306d565b60036000848152602001908152602001600020600a01548261306c9190615276565b5b905060003373ffffffffffffffffffffffffffffffffffffffff16826040516130959061557f565b60006040518083038185875af1925050503d80600081146130d2576040519150601f19603f3d011682016040523d82523d6000602084013e6130d7565b606091505b505090508061311b576040517f08c379a000000000000000000000000000000000000000000000000000000000815260040161311290615c27565b60405180910390fd5b60006003600086815260200190815260200160002060090160003373ffffffffffffffffffffffffffffffffffffffff1673ffffffffffffffffffffffffffffffffffffffff16815260200190815260200160002060006101000a81548160ff02191690831515021790555050505050565b6000600260003373ffffffffffffffffffffffffffffffffffffffff1673ffffffffffffffffffffffffffffffffffffffff1681526020019081526020016000206000015411613212576040517f08c379a000000000000000000000000000000000000000000000000000000000815260040161320990615c93565b60405180910390fd5b600073ffffffffffffffffffffffffffffffffffffffff166003600084815260200190815260200160002060020160009054906101000a900473ffffffffffffffffffffffffffffffffffffffff1673ffffffffffffffffffffffffffffffffffffffff16036132b7576040517f08c379a00000000000000000000000000000000000000000000000000000000081526004016132ae90614f90565b60405180910390fd5b600260003373ffffffffffffffffffffffffffffffffffffffff1673ffffffffffffffffffffffffffffffffffffffff168152602001908152602001600020600101600083815260200190815260200160002060009054906101000a900460ff1615613358576040517f08c379a000000000000000000000000000000000000000000000000000000000815260040161334f90615cff565b60405180910390fd5b6040518060400160405280600781526020017f70656e64696e670000000000000000000000000000000000000000000000000081525080519060200120600360008481526020019081526020016000206004016040516133b891906150b3565b604051809103902014613400576040517f08c379a00000000000000000000000000000000000000000000000000000000081526004016133f790615d6b565b60405180910390fd5b62093a8060036000848152602001908152602001600020600801546134259190615165565b421115613467576040517f08c379a000000000000000000000000000000000000000000000000000000000815260040161345e90615dd7565b60405180910390fd5b6001600260003373ffffffffffffffffffffffffffffffffffffffff1673ffffffffffffffffffffffffffffffffffffffff168152602001908152602001600020600101600084815260200190815260200160002060006101000a81548160ff02191690831515021790555060016003600084815260200190815260200160002060090160003373ffffffffffffffffffffffffffffffffffffffff1673ffffffffffffffffffffffffffffffffffffffff16815260200190815260200160002060006101000a81548160ff02191690831515021790555060036000838152602001908152602001600020600a01600081548092919061356690615893565b919050555080156135a25760036000838152602001908152602001600020600501600081548092919061359890615893565b91905055506135cf565b6003600083815260200190815260200160002060060160008154809291906135c990615893565b91905055505b7ff2913dbe661ee2acc4a046d8fbcdc792373bda34c41c6086484b5345e5785e5f82338360405161360293929190615df7565b60405180910390a15050565b6000600260003373ffffffffffffffffffffffffffffffffffffffff1673ffffffffffffffffffffffffffffffffffffffff1681526020019081526020016000206000015411613693576040517f08c379a000000000000000000000000000000000000000000000000000000000815260040161368a90615c93565b60405180910390fd5b6000600260003373ffffffffffffffffffffffffffffffffffffffff1673ffffffffffffffffffffffffffffffffffffffff1681526020019081526020016000206000015490506000600260003373ffffffffffffffffffffffffffffffffffffffff1673ffffffffffffffffffffffffffffffffffffffff1681526020019081526020016000206000018190555060003373ffffffffffffffffffffffffffffffffffffffff16826040516137489061557f565b60006040518083038185875af1925050503d8060008114613785576040519150601f19603f3d011682016040523d82523d6000602084013e61378a565b606091505b50509050806137ce576040517f08c379a00000000000000000000000000000000000000000000000000000000081526004016137c590615a25565b60405180910390fd5b600260003373ffffffffffffffffffffffffffffffffffffffff1673ffffffffffffffffffffffffffffffffffffffff16815260200190815260200160002060008082016000905550505050565b600160205280600052604060002060009150905080600001805461383f90614fdf565b80601f016020809104026020016040519081016040528092919081815260200182805461386b90614fdf565b80156138b85780601f1061388d576101008083540402835291602001916138b8565b820191906000526020600020905b81548152906001019060200180831161389b57829003601f168201915b5050505050908060010180546138cd90614fdf565b80601f01602080910402602001604051908101604052809291908181526020018280546138f990614fdf565b80156139465780601f1061391b57610100808354040283529160200191613946565b820191906000526020600020905b81548152906001019060200180831161392957829003601f168201915b50505050509080600201549080600301805461396190614fdf565b80601f016020809104026020016040519081016040528092919081815260200182805461398d90614fdf565b80156139da5780601f106139af576101008083540402835291602001916139da565b820191906000526020600020905b8154815290600101906020018083116139bd57829003601f168201915b5050505050905084565b60003411613a27576040517f08c379a0000000000000000000000000000000000000000000000000000000008152600401613a1e9061579b565b60405180910390fd5b6000600260003373ffffffffffffffffffffffffffffffffffffffff1673ffffffffffffffffffffffffffffffffffffffff1681526020019081526020016000206000015414613aac576040517f08c379a0000000000000000000000000000000000000000000000000000000008152600401613aa390615e7a565b60405180910390fd5b34600260003373ffffffffffffffffffffffffffffffffffffffff1673ffffffffffffffffffffffffffffffffffffffff16815260200190815260200160002060000181905550565b600073ffffffffffffffffffffffffffffffffffffffff166003600083815260200190815260200160002060020160009054906101000a900473ffffffffffffffffffffffffffffffffffffffff1673ffffffffffffffffffffffffffffffffffffffff1603613b9a576040517f08c379a0000000000000000000000000000000000000000000000000000000008152600401613b9190614f90565b60405180910390fd5b60003411613bdd576040517f08c379a0000000000000000000000000000000000000000000000000000000008152600401613bd490615ee6565b60405180910390fd5b6040518060400160405280600781526020017f70656e64696e67000000000000000000000000000000000000000000000000008152508051906020012060036000838152602001908152602001600020600401604051613c3d91906150b3565b604051809103902014613c85576040517f08c379a0000000000000000000000000000000000000000000000000000000008152600401613c7c90615d6b565b60405180910390fd5b34600360008381526020019081526020016000206007016000828254613cab9190615165565b925050819055506004600082815260200190815260200160002060405180606001604052803373ffffffffffffffffffffffffffffffffffffffff16815260200134815260200142815250908060018154018082558091505060019003906000526020600020906003020160009091909190915060008201518160000160006101000a81548173ffffffffffffffffffffffffffffffffffffffff021916908373ffffffffffffffffffffffffffffffffffffffff160217905550602082015181600101556040820151816002015550507f27e413b8931dc4cb7edc879292ebc482a3047336d03423ea91addae7a2cf850a81333460016004600087815260200190815260200160002080549050613dc391906152a7565b604051613dd39493929190615f06565b60405180910390a150565b828054828255906000526020600020908101928215613e1a579160200282015b82811115613e19578251825591602001919060010190613dfe565b5b509050613e279190613f2e565b5090565b6040518060800160405280600081526020016060815260200160608152602001606081525090565b60405180606001604052806000815260200160608152602001606081525090565b508054613e8090614fdf565b6000825580601f10613e925750613eb1565b601f016020900490600052602060002090810190613eb09190613f2e565b5b50565b5080546000825590600052602060002090810190613ed29190613f2e565b50565b828054828255906000526020600020908101928215613f1d579160200282015b82811115613f1c578251829081613f0c9190615487565b5091602001919060010190613ef5565b5b509050613f2a9190613f4b565b5090565b5b80821115613f47576000816000905550600101613f2f565b5090565b5b80821115613f6b5760008181613f629190613e74565b50600101613f4c565b5090565b6000604051905090565b600080fd5b600080fd5b6000819050919050565b613f9681613f83565b8114613fa157600080fd5b50565b600081359050613fb381613f8d565b92915050565b600060208284031215613fcf57613fce613f79565b5b6000613fdd84828501613fa4565b91505092915050565b600073ffffffffffffffffffffffffffffffffffffffff82169050919050565b600061401182613fe6565b9050919050565b61402181614006565b82525050565b600081519050919050565b600082825260208201905092915050565b6000819050602082019050919050565b600081519050919050565b600082825260208201905092915050565b60005b8381101561408d578082015181840152602081019050614072565b60008484015250505050565b6000601f19601f8301169050919050565b60006140b582614053565b6140bf818561405e565b93506140cf81856020860161406f565b6140d881614099565b840191505092915050565b60006140ef83836140aa565b905092915050565b6000602082019050919050565b600061410f82614027565b6141198185614032565b93508360208202850161412b85614043565b8060005b85811015614167578484038952815161414885826140e3565b9450614153836140f7565b925060208a0199505060018101905061412f565b50829750879550505050505092915050565b600082825260208201905092915050565b600061419582614053565b61419f8185614179565b93506141af81856020860161406f565b6141b881614099565b840191505092915050565b6141cc81613f83565b82525050565b6000610140820190506141e8600083018d614018565b81810360208301526141fa818c614104565b9050818103604083015261420e818b61418a565b905061421d606083018a6141c3565b61422a60808301896141c3565b61423760a08301886141c3565b61424460c08301876141c3565b61425160e08301866141c3565b818103610100830152614264818561418a565b9050818103610120830152614279818461418a565b90509b9a5050505050505050505050565b600080604083850312156142a1576142a0613f79565b5b60006142af85828601613fa4565b92505060206142c085828601613fa4565b9150509250929050565b60006060820190506142df6000830186614018565b6142ec60208301856141c3565b6142f960408301846141c3565b949350505050565b61430a81614006565b811461431557600080fd5b50565b60008135905061432781614301565b92915050565b6000806040838503121561434457614343613f79565b5b600061435285828601614318565b925050602061436385828601613fa4565b9150509250929050565b60008115159050919050565b6143828161436d565b82525050565b600060208201905061439d6000830184614379565b92915050565b600080fd5b600080fd5b7f4e487b7100000000000000000000000000000000000000000000000000000000600052604160045260246000fd5b6143e582614099565b810181811067ffffffffffffffff82111715614404576144036143ad565b5b80604052505050565b6000614417613f6f565b905061442382826143dc565b919050565b600067ffffffffffffffff821115614443576144426143ad565b5b61444c82614099565b9050602081019050919050565b82818337600083830152505050565b600061447b61447684614428565b61440d565b905082815260208101848484011115614497576144966143a8565b5b6144a2848285614459565b509392505050565b600082601f8301126144bf576144be6143a3565b5b81356144cf848260208601614468565b91505092915050565b6000806000606084860312156144f1576144f0613f79565b5b600084013567ffffffffffffffff81111561450f5761450e613f7e565b5b61451b868287016144aa565b935050602084013567ffffffffffffffff81111561453c5761453b613f7e565b5b614548868287016144aa565b925050604084013567ffffffffffffffff81111561456957614568613f7e565b5b614575868287016144aa565b9150509250925092565b600060208201905061459460008301846141c3565b92915050565b600081519050919050565b600082825260208201905092915050565b6000819050602082019050919050565b6145cf81614006565b82525050565b6145de81613f83565b82525050565b6060820160008201516145fa60008501826145c6565b50602082015161460d60208501826145d5565b50604082015161462060408501826145d5565b50505050565b600061463283836145e4565b60608301905092915050565b6000602082019050919050565b60006146568261459a565b61466081856145a5565b935061466b836145b6565b8060005b8381101561469c5781516146838882614626565b975061468e8361463e565b92505060018101905061466f565b5085935050505092915050565b600060208201905081810360008301526146c3818461464b565b905092915050565b6000602082840312156146e1576146e0613f79565b5b60006146ef84828501614318565b91505092915050565b600081519050919050565b600082825260208201905092915050565b6000819050602082019050919050565b600061473083836145d5565b60208301905092915050565b6000602082019050919050565b6000614754826146f8565b61475e8185614703565b935061476983614714565b8060005b8381101561479a5781516147818882614724565b975061478c8361473c565b92505060018101905061476d565b5085935050505092915050565b600060a08201905081810360008301526147c1818861418a565b905081810360208301526147d5818761418a565b90506147e460408301866141c3565b81810360608301526147f68185614749565b9050818103608083015261480a818461418a565b90509695505050505050565b600060208201905081810360008301526148308184614749565b905092915050565b600060408201905081810360008301526148528185614749565b905081810360208301526148668184614104565b90509392505050565b600081519050919050565b600082825260208201905092915050565b6000819050602082019050919050565b600081519050919050565b600082825260208201905092915050565b6000819050602082019050919050565b600082825260208201905092915050565b60006148e382614027565b6148ed81856148c7565b9350836020820285016148ff85614043565b8060005b8581101561493b578484038952815161491c85826140e3565b9450614927836140f7565b925060208a01995050600181019050614903565b50829750879550505050505092915050565b600060608301600083015161496560008601826145d5565b506020830151848203602086015261497d82826140aa565b9150506040830151848203604086015261499782826148d8565b9150508091505092915050565b60006149b0838361494d565b905092915050565b6000602082019050919050565b60006149d08261489b565b6149da81856148a6565b9350836020820285016149ec856148b7565b8060005b85811015614a285784840389528151614a0985826149a4565b9450614a14836149b8565b925060208a019950506001810190506149f0565b50829750879550505050505092915050565b6000608083016000830151614a5260008601826145d5565b5060208301518482036020860152614a6a82826140aa565b91505060408301518482036040860152614a8482826140aa565b91505060608301518482036060860152614a9e82826149c5565b9150508091505092915050565b6000614ab78383614a3a565b905092915050565b6000602082019050919050565b6000614ad78261486f565b614ae1818561487a565b935083602082028501614af38561488b565b8060005b85811015614b2f5784840389528151614b108582614aab565b9450614b1b83614abf565b925060208a01995050600181019050614af7565b50829750879550505050505092915050565b60006020820190508181036000830152614b5b8184614acc565b905092915050565b600081519050919050565b600082825260208201905092915050565b6000819050602082019050919050565b6000614b9b83836145c6565b60208301905092915050565b6000602082019050919050565b6000614bbf82614b63565b614bc98185614b6e565b9350614bd483614b7f565b8060005b83811015614c05578151614bec8882614b8f565b9750614bf783614ba7565b925050600181019050614bd8565b5085935050505092915050565b60006020820190508181036000830152614c2c8184614bb4565b905092915050565b6000610120820190508181036000830152614c4f818c61418a565b90508181036020830152614c63818b61418a565b9050614c72604083018a614018565b8181036060830152614c84818961418a565b9050614c9360808301886141c3565b614ca060a08301876141c3565b614cad60c08301866141c3565b614cba60e08301856141c3565b614cc86101008301846141c3565b9a9950505050505050505050565b6000602082019050614ceb6000830184614018565b92915050565b600067ffffffffffffffff821115614d0c57614d0b6143ad565b5b602082029050602081019050919050565b600080fd5b6000614d35614d3084614cf1565b61440d565b90508083825260208201905060208402830185811115614d5857614d57614d1d565b5b835b81811015614d9f57803567ffffffffffffffff811115614d7d57614d7c6143a3565b5b808601614d8a89826144aa565b85526020850194505050602081019050614d5a565b5050509392505050565b600082601f830112614dbe57614dbd6143a3565b5b8135614dce848260208601614d22565b91505092915050565b600080600060608486031215614df057614def613f79565b5b600084013567ffffffffffffffff811115614e0e57614e0d613f7e565b5b614e1a86828701614da9565b935050602084013567ffffffffffffffff811115614e3b57614e3a613f7e565b5b614e47868287016144aa565b925050604084013567ffffffffffffffff811115614e6857614e67613f7e565b5b614e74868287016144aa565b9150509250925092565b614e878161436d565b8114614e9257600080fd5b50565b600081359050614ea481614e7e565b92915050565b60008060408385031215614ec157614ec0613f79565b5b6000614ecf85828601613fa4565b9250506020614ee085828601614e95565b9150509250929050565b60006080820190508181036000830152614f04818761418a565b90508181036020830152614f18818661418a565b9050614f2760408301856141c3565b8181036060830152614f39818461418a565b905095945050505050565b7f5461736b20646f6573206e6f7420657869737400000000000000000000000000600082015250565b6000614f7a601383614179565b9150614f8582614f44565b602082019050919050565b60006020820190508181036000830152614fa981614f6d565b9050919050565b7f4e487b7100000000000000000000000000000000000000000000000000000000600052602260045260246000fd5b60006002820490506001821680614ff757607f821691505b60208210810361500a57615009614fb0565b5b50919050565b600081905092915050565b60008190508160005260206000209050919050565b6000815461503d81614fdf565b6150478186615010565b945060018216600081146150625760018114615077576150aa565b60ff19831686528115158202860193506150aa565b6150808561501b565b60005b838110156150a257815481890152600182019150602081019050615083565b838801955050505b50505092915050565b60006150bf8284615030565b915081905092915050565b7f5461736b20616c7265616479207265736f6c7665640000000000000000000000600082015250565b6000615100601583614179565b915061510b826150ca565b602082019050919050565b6000602082019050818103600083015261512f816150f3565b9050919050565b7f4e487b7100000000000000000000000000000000000000000000000000000000600052601160045260246000fd5b600061517082613f83565b915061517b83613f83565b925082820190508082111561519357615192615136565b5b92915050565b7f566f74696e6720706572696f64206e6f7420656e646564000000000000000000600082015250565b60006151cf601783614179565b91506151da82615199565b602082019050919050565b600060208201905081810360008301526151fe816151c2565b9050919050565b600061521082613f83565b915061521b83613f83565b925082820261522981613f83565b915082820484148315176152405761523f615136565b5b5092915050565b7f4e487b7100000000000000000000000000000000000000000000000000000000600052601260045260246000fd5b600061528182613f83565b915061528c83613f83565b92508261529c5761529b615247565b5b828204905092915050565b60006152b282613f83565b91506152bd83613f83565b92508282039050818111156152d5576152d4615136565b5b92915050565b60008190508160005260206000209050919050565b60006020601f8301049050919050565b600082821b905092915050565b60006008830261533d7fffffffffffffffffffffffffffffffffffffffffffffffffffffffffffffffff82615300565b6153478683615300565b95508019841693508086168417925050509392505050565b6000819050919050565b600061538461537f61537a84613f83565b61535f565b613f83565b9050919050565b6000819050919050565b61539e83615369565b6153b26153aa8261538b565b84845461530d565b825550505050565b600090565b6153c76153ba565b6153d2818484615395565b505050565b5b818110156153f6576153eb6000826153bf565b6001810190506153d8565b5050565b601f82111561543b5761540c816152db565b615415846152f0565b81016020851015615424578190505b615438615430856152f0565b8301826153d7565b50505b505050565b600082821c905092915050565b600061545e60001984600802615440565b1980831691505092915050565b6000615477838361544d565b9150826002028217905092915050565b61549082614053565b67ffffffffffffffff8111156154a9576154a86143ad565b5b6154b38254614fdf565b6154be8282856153fa565b600060209050601f8311600181146154f157600084156154df578287015190505b6154e9858261546b565b865550615551565b601f1984166154ff866152db565b60005b8281101561552757848901518255600182019150602085019450602081019050615502565b868310156155445784890151615540601f89168261544d565b8355505b6001600288020188555050505b505050505050565b50565b6000615569600083615010565b915061557482615559565b600082019050919050565b600061558a8261555c565b9150819050919050565b7f4661696c656420746f2073656e642066756e647320746f204e474f0000000000600082015250565b60006155ca601b83614179565b91506155d582615594565b602082019050919050565b600060208201905081810360008301526155f9816155bd565b9050919050565b7f4e487b7100000000000000000000000000000000000000000000000000000000600052603260045260246000fd5b7f526566756e64206661696c656400000000000000000000000000000000000000600082015250565b6000615665600d83614179565b91506156708261562f565b602082019050919050565b6000602082019050818103600083015261569481615658565b9050919050565b600081546156a881614fdf565b6156b28186614179565b945060018216600081146156cd57600181146156e357615716565b60ff198316865281151560200286019350615716565b6156ec856152db565b60005b8381101561570e578154818901526001820191506020810190506156ef565b808801955050505b50505092915050565b600060408201905061573460008301856141c3565b8181036020830152615746818461569b565b90509392505050565b7f4d757374207374616b6520455448000000000000000000000000000000000000600082015250565b6000615785600e83614179565b91506157908261574f565b602082019050919050565b600060208201905081810360008301526157b481615778565b9050919050565b7f4e474f20616c7265616479207265676973746572656400000000000000000000600082015250565b60006157f1601683614179565b91506157fc826157bb565b602082019050919050565b60006020820190508181036000830152615820816157e4565b9050919050565b7f4e474f206e6f7420726567697374657265640000000000000000000000000000600082015250565b600061585d601283614179565b915061586882615827565b602082019050919050565b6000602082019050818103600083015261588c81615850565b9050919050565b600061589e82613f83565b91507fffffffffffffffffffffffffffffffffffffffffffffffffffffffffffffffff82036158d0576158cf615136565b5b600182019050919050565b7f4e6f7420616e204e474f206f7220616c72656164792077697468647261776e00600082015250565b6000615911601f83614179565b915061591c826158db565b602082019050919050565b6000602082019050818103600083015261594081615904565b9050919050565b7f43616e6e6f7420776974686472617720776974682070656e64696e672074617360008201527f6b73000000000000000000000000000000000000000000000000000000000000602082015250565b60006159a3602283614179565b91506159ae82615947565b604082019050919050565b600060208201905081810360008301526159d281615996565b9050919050565b7f5769746864726177616c206661696c6564000000000000000000000000000000600082015250565b6000615a0f601183614179565b9150615a1a826159d9565b602082019050919050565b60006020820190508181036000830152615a3e81615a02565b9050919050565b6000604082019050615a5a6000830185614018565b615a6760208301846141c3565b9392505050565b7f4f6e6c79206f776e65722063616e2063616c6c20746869730000000000000000600082015250565b6000615aa4601883614179565b9150615aaf82615a6e565b602082019050919050565b60006020820190508181036000830152615ad381615a97565b9050919050565b6000604082019050615aef60008301856141c3565b615afc6020830184614018565b9392505050565b7f446964206e6f7420766f7465206f6e207461736b000000000000000000000000600082015250565b6000615b39601483614179565b9150615b4482615b03565b602082019050919050565b60006020820190508181036000830152615b6881615b2c565b9050919050565b7f5461736b207374696c6c2070656e64696e670000000000000000000000000000600082015250565b6000615ba5601283614179565b9150615bb082615b6f565b602082019050919050565b60006020820190508181036000830152615bd481615b98565b9050919050565b7f52657761726420636c61696d206661696c656400000000000000000000000000600082015250565b6000615c11601383614179565b9150615c1c82615bdb565b602082019050919050565b60006020820190508181036000830152615c4081615c04565b9050919050565b7f4e6f74206120766f746572000000000000000000000000000000000000000000600082015250565b6000615c7d600b83614179565b9150615c8882615c47565b602082019050919050565b60006020820190508181036000830152615cac81615c70565b9050919050565b7f416c726561647920766f74656400000000000000000000000000000000000000600082015250565b6000615ce9600d83614179565b9150615cf482615cb3565b602082019050919050565b60006020820190508181036000830152615d1881615cdc565b9050919050565b7f5461736b206e6f742070656e64696e6700000000000000000000000000000000600082015250565b6000615d55601083614179565b9150615d6082615d1f565b602082019050919050565b60006020820190508181036000830152615d8481615d48565b9050919050565b7f566f74696e6720706572696f6420656e64656400000000000000000000000000600082015250565b6000615dc1601383614179565b9150615dcc82615d8b565b602082019050919050565b60006020820190508181036000830152615df081615db4565b9050919050565b6000606082019050615e0c60008301866141c3565b615e196020830185614018565b615e266040830184614379565b949350505050565b7f416c7265616479206120766f7465720000000000000000000000000000000000600082015250565b6000615e64600f83614179565b9150615e6f82615e2e565b602082019050919050565b60006020820190508181036000830152615e9381615e57565b9050919050565b7f4d75737420646f6e617465204554480000000000000000000000000000000000600082015250565b6000615ed0600f83614179565b9150615edb82615e9a565b602082019050919050565b60006020820190508181036000830152615eff81615ec3565b9050919050565b6000608082019050615f1b60008301876141c3565b615f286020830186614018565b615f3560408301856141c3565b615f4260608301846141c3565b9594505050505056fea264697066735822122049b92603c03d2a307825f61838432843cf409b983d38a0067655e74684b8288464736f6c634300081c0033",
  "linkReferences": {},
  "deployedLinkReferences": {}
}