{
  "address": "0xC25bcC37cAE142e94A5F0FAAb97F324813dD91fD",
  "abi": [
    {
      "inputs": [],
      "stateMutability": "nonpayable",
      "type": "constructor"
    },
    {
      "anonymous": false,
      "inputs": [
        {
          "indexed": false,
          "internalType": "uint256",
          "name": "taskId",
          "type": "uint256"
        },
        {
          "indexed": false,
          "internalType": "address",
          "name": "donor",
          "type": "address"
        },
        {
          "indexed": false,
          "internalType": "uint256",
          "name": "amount",
          "type": "uint256"
        },
        {
          "indexed": false,
          "internalType": "uint256",
          "name": "donationId",
          "type": "uint256"
        }
      ],
      "name": "Donated",
      "type": "event"
    },
    {
      "anonymous": false,
      "inputs": [
        {
          "indexed": false,
          "internalType": "address",
          "name": "ngo",
          "type": "address"
        },
        {
          "indexed": false,
          "internalType": "string",
          "name": "name",
          "type": "string"
        }
      ],
      "name": "NGORegistered",
      "type": "event"
    },
    {
      "anonymous": false,
      "inputs": [
        {
          "indexed": false,
          "internalType": "uint256",
          "name": "taskId",
          "type": "uint256"
        },
        {
          "indexed": false,
          "internalType": "address",
          "name": "ngo",
          "type": "address"
        }
      ],
      "name": "TaskCreated",
      "type": "event"
    },
    {
      "anonymous": false,
      "inputs": [
        {
          "indexed": false,
          "internalType": "uint256",
          "name": "taskId",
          "type": "uint256"
        },
        {
          "indexed": false,
          "internalType": "string",
          "name": "status",
          "type": "string"
        }
      ],
      "name": "TaskResolved",
      "type": "event"
    },
    {
      "anonymous": false,
      "inputs": [
        {
          "indexed": false,
          "internalType": "uint256",
          "name": "taskId",
          "type": "uint256"
        },
        {
          "indexed": false,
          "internalType": "address",
          "name": "voter",
          "type": "address"
        },
        {
          "indexed": false,
          "internalType": "bool",
          "name": "vote",
          "type": "bool"
        }
      ],
      "name": "Voted",
      "type": "event"
    },
    {
      "anonymous": false,
      "inputs": [
        {
          "indexed": false,
          "internalType": "address",
          "name": "voter",
          "type": "address"
        },
        {
          "indexed": false,
          "internalType": "uint256",
          "name": "stakedEth",
          "type": "uint256"
        }
      ],
      "name": "VoterRegistered",
      "type": "event"
    },
    {
      "inputs": [
        {
          "internalType": "uint256",
          "name": "_taskId",
          "type": "uint256"
        }
      ],
      "name": "claimVoterReward",
      "outputs": [],
      "stateMutability": "nonpayable",
      "type": "function"
    },
    {
      "inputs": [
        {
          "internalType": "string[]",
          "name": "_proofLinks",
          "type": "string[]"
        }
      ],
      "name": "createTask",
      "outputs": [],
      "stateMutability": "nonpayable",
      "type": "function"
    },
    {
      "inputs": [
        {
          "internalType": "uint256",
          "name": "_taskId",
          "type": "uint256"
        }
      ],
      "name": "donate",
      "outputs": [],
      "stateMutability": "payable",
      "type": "function"
    },
    {
      "inputs": [],
      "name": "getAllNGOs",
      "outputs": [
        {
          "internalType": "address[]",
          "name": "",
          "type": "address[]"
        }
      ],
      "stateMutability": "view",
      "type": "function"
    },
    {
      "inputs": [],
      "name": "getAllTasks",
      "outputs": [
        {
          "internalType": "uint256[]",
          "name": "",
          "type": "uint256[]"
        }
      ],
      "stateMutability": "view",
      "type": "function"
    },
    {
      "inputs": [
        {
          "internalType": "uint256",
          "name": "_taskId",
          "type": "uint256"
        }
      ],
      "name": "getDonations",
      "outputs": [
        {
          "components": [
            {
              "internalType": "address",
              "name": "donor",
              "type": "address"
            },
            {
              "internalType": "uint256",
              "name": "amount",
              "type": "uint256"
            },
            {
              "internalType": "uint256",
              "name": "timestamp",
              "type": "uint256"
            }
          ],
          "internalType": "struct NGOFunding.Donation[]",
          "name": "",
          "type": "tuple[]"
        }
      ],
      "stateMutability": "view",
      "type": "function"
    },
    {
      "inputs": [
        {
          "internalType": "address",
          "name": "_ngo",
          "type": "address"
        }
      ],
      "name": "getNGODetails",
      "outputs": [
        {
          "internalType": "string",
          "name": "name",
          "type": "string"
        },
        {
          "internalType": "string",
          "name": "description",
          "type": "string"
        },
        {
          "internalType": "uint256",
          "name": "stakedEth",
          "type": "uint256"
        },
        {
          "internalType": "uint256[]",
          "name": "taskIds",
          "type": "uint256[]"
        }
      ],
      "stateMutability": "view",
      "type": "function"
    },
    {
      "inputs": [
        {
          "internalType": "address",
          "name": "_ngo",
          "type": "address"
        }
      ],
      "name": "getNGOTaskStatuses",
      "outputs": [
        {
          "internalType": "uint256[]",
          "name": "taskIds",
          "type": "uint256[]"
        },
        {
          "internalType": "string[]",
          "name": "statuses",
          "type": "string[]"
        }
      ],
      "stateMutability": "view",
      "type": "function"
    },
    {
      "inputs": [
        {
          "internalType": "address",
          "name": "_ngo",
          "type": "address"
        }
      ],
      "name": "getNGOTotalFunds",
      "outputs": [
        {
          "internalType": "uint256",
          "name": "totalFunds",
          "type": "uint256"
        }
      ],
      "stateMutability": "view",
      "type": "function"
    },
    {
      "inputs": [],
      "name": "getPendingTasks",
      "outputs": [
        {
          "internalType": "uint256[]",
          "name": "",
          "type": "uint256[]"
        }
      ],
      "stateMutability": "view",
      "type": "function"
    },
    {
      "inputs": [
        {
          "internalType": "uint256",
          "name": "_taskId",
          "type": "uint256"
        }
      ],
      "name": "getTaskDetails",
      "outputs": [
        {
          "internalType": "address",
          "name": "ngo",
          "type": "address"
        },
        {
          "internalType": "string[]",
          "name": "proofLinks",
          "type": "string[]"
        },
        {
          "internalType": "string",
          "name": "status",
          "type": "string"
        },
        {
          "internalType": "uint256",
          "name": "yesVotes",
          "type": "uint256"
        },
        {
          "internalType": "uint256",
          "name": "noVotes",
          "type": "uint256"
        },
        {
          "internalType": "uint256",
          "name": "totalFunds",
          "type": "uint256"
        },
        {
          "internalType": "uint256",
          "name": "startTime",
          "type": "uint256"
        },
        {
          "internalType": "uint256",
          "name": "voterCount",
          "type": "uint256"
        }
      ],
      "stateMutability": "view",
      "type": "function"
    },
    {
      "inputs": [
        {
          "internalType": "address",
          "name": "_voter",
          "type": "address"
        }
      ],
      "name": "getVoterDetails",
      "outputs": [
        {
          "internalType": "uint256",
          "name": "stakedEth",
          "type": "uint256"
        }
      ],
      "stateMutability": "view",
      "type": "function"
    },
    {
      "inputs": [
        {
          "internalType": "address",
          "name": "_voter",
          "type": "address"
        },
        {
          "internalType": "uint256",
          "name": "_taskId",
          "type": "uint256"
        }
      ],
      "name": "hasVoted",
      "outputs": [
        {
          "internalType": "bool",
          "name": "",
          "type": "bool"
        }
      ],
      "stateMutability": "view",
      "type": "function"
    },
    {
      "inputs": [
        {
          "internalType": "uint256",
          "name": "",
          "type": "uint256"
        }
      ],
      "name": "ngoList",
      "outputs": [
        {
          "internalType": "address",
          "name": "",
          "type": "address"
        }
      ],
      "stateMutability": "view",
      "type": "function"
    },
    {
      "inputs": [
        {
          "internalType": "address",
          "name": "",
          "type": "address"
        }
      ],
      "name": "ngos",
      "outputs": [
        {
          "internalType": "string",
          "name": "name",
          "type": "string"
        },
        {
          "internalType": "string",
          "name": "description",
          "type": "string"
        },
        {
          "internalType": "uint256",
          "name": "stakedEth",
          "type": "uint256"
        }
      ],
      "stateMutability": "view",
      "type": "function"
    },
    {
      "inputs": [],
      "name": "owner",
      "outputs": [
        {
          "internalType": "address",
          "name": "",
          "type": "address"
        }
      ],
      "stateMutability": "view",
      "type": "function"
    },
    {
      "inputs": [
        {
          "internalType": "string",
          "name": "_name",
          "type": "string"
        },
        {
          "internalType": "string",
          "name": "_description",
          "type": "string"
        }
      ],
      "name": "registerNGO",
      "outputs": [],
      "stateMutability": "payable",
      "type": "function"
    },
    {
      "inputs": [],
      "name": "registerVoter",
      "outputs": [],
      "stateMutability": "payable",
      "type": "function"
    },
    {
      "inputs": [
        {
          "internalType": "uint256",
          "name": "_taskId",
          "type": "uint256"
        }
      ],
      "name": "resolveTask",
      "outputs": [],
      "stateMutability": "nonpayable",
      "type": "function"
    },
    {
      "inputs": [],
      "name": "taskCounter",
      "outputs": [
        {
          "internalType": "uint256",
          "name": "",
          "type": "uint256"
        }
      ],
      "stateMutability": "view",
      "type": "function"
    },
    {
      "inputs": [
        {
          "internalType": "uint256",
          "name": "",
          "type": "uint256"
        },
        {
          "internalType": "uint256",
          "name": "",
          "type": "uint256"
        }
      ],
      "name": "taskDonations",
      "outputs": [
        {
          "internalType": "address",
          "name": "donor",
          "type": "address"
        },
        {
          "internalType": "uint256",
          "name": "amount",
          "type": "uint256"
        },
        {
          "internalType": "uint256",
          "name": "timestamp",
          "type": "uint256"
        }
      ],
      "stateMutability": "view",
      "type": "function"
    },
    {
      "inputs": [
        {
          "internalType": "uint256",
          "name": "",
          "type": "uint256"
        }
      ],
      "name": "tasks",
      "outputs": [
        {
          "internalType": "address",
          "name": "ngo",
          "type": "address"
        },
        {
          "internalType": "string",
          "name": "status",
          "type": "string"
        },
        {
          "internalType": "uint256",
          "name": "yesVotes",
          "type": "uint256"
        },
        {
          "internalType": "uint256",
          "name": "noVotes",
          "type": "uint256"
        },
        {
          "internalType": "uint256",
          "name": "totalFunds",
          "type": "uint256"
        },
        {
          "internalType": "uint256",
          "name": "startTime",
          "type": "uint256"
        },
        {
          "internalType": "uint256",
          "name": "voterCount",
          "type": "uint256"
        }
      ],
      "stateMutability": "view",
      "type": "function"
    },
    {
      "inputs": [
        {
          "internalType": "uint256",
          "name": "_taskId",
          "type": "uint256"
        },
        {
          "internalType": "bool",
          "name": "_approve",
          "type": "bool"
        }
      ],
      "name": "vote",
      "outputs": [],
      "stateMutability": "nonpayable",
      "type": "function"
    },
    {
      "inputs": [
        {
          "internalType": "address",
          "name": "",
          "type": "address"
        }
      ],
      "name": "voters",
      "outputs": [
        {
          "internalType": "uint256",
          "name": "stakedEth",
          "type": "uint256"
        }
      ],
      "stateMutability": "view",
      "type": "function"
    },
    {
      "inputs": [],
      "name": "withdrawVoterStake",
      "outputs": [],
      "stateMutability": "nonpayable",
      "type": "function"
    }
  ],
  "transactionHash": "0x29e5c232f42a5d85536ad9dd13bf2db961dabf9da085a999f769eb197279b394",
  "args": [],
  "numDeployments": 1,
  "solcInputHash": "1721a1a7cbaddd1cd895f0d0db13f01a",
  "bytecode": "0x6080604052348015600f57600080fd5b50336000806101000a81548173ffffffffffffffffffffffffffffffffffffffff021916908373ffffffffffffffffffffffffffffffffffffffff160217905550614a258061005f6000396000f3fe6080604052600436106101665760003560e01c80638d977672116100d1578063c35b90301161008a578063dffb0ece11610064578063dffb0ece146105b4578063e6f7d11e146105cb578063ecb617d91461060a578063f14faf6f1461061457610166565b8063c35b903014610537578063c893b82f14610562578063c9d27afe1461058b57610166565b80638d977672146103d55780638da5cb5b146104185780639255cb3b14610443578063967f898214610480578063a3ec138d146104bd578063ba71bef0146104fa57610166565b8063596d9ce211610123578063596d9ce21461029b578063734d78c5146102d8578063771f84fe14610318578063779900b4146103415780637abe26b41461036c57806387b5a2dd146103aa57610166565b80633888b9d51461016b5780633df78c91146101af5780634191f486146101ee578063425458251461020a578063456d908e146102475780635867173014610270575b600080fd5b34801561017757600080fd5b50610192600480360381019061018d9190612f9a565b610630565b6040516101a69897969594939291906131b3565b60405180910390f35b3480156101bb57600080fd5b506101d660048036038101906101d1919061323f565b6108a7565b6040516101e59392919061327f565b60405180910390f35b610208600480360381019061020391906133eb565b61090e565b005b34801561021657600080fd5b50610231600480360381019061022c919061348f565b610b75565b60405161023e91906134ea565b60405180910390f35b34801561025357600080fd5b5061026e60048036038101906102699190612f9a565b610be0565b005b34801561027c57600080fd5b506102856111cf565b6040516102929190613505565b60405180910390f35b3480156102a757600080fd5b506102c260048036038101906102bd9190612f9a565b6111d5565b6040516102cf919061362f565b60405180910390f35b3480156102e457600080fd5b506102ff60048036038101906102fa9190613651565b6112b1565b60405161030f949392919061372d565b60405180910390f35b34801561032457600080fd5b5061033f600480360381019061033a919061386d565b6114cd565b005b34801561034d57600080fd5b506103566116d9565b60405161036391906138b6565b60405180910390f35b34801561037857600080fd5b50610393600480360381019061038e9190613651565b611781565b6040516103a19291906138d8565b60405180910390f35b3480156103b657600080fd5b506103bf6119ab565b6040516103cc91906139be565b60405180910390f35b3480156103e157600080fd5b506103fc60048036038101906103f79190612f9a565b611a39565b60405161040f97969594939291906139e0565b60405180910390f35b34801561042457600080fd5b5061042d611b23565b60405161043a9190613a56565b60405180910390f35b34801561044f57600080fd5b5061046a60048036038101906104659190613651565b611b47565b6040516104779190613505565b60405180910390f35b34801561048c57600080fd5b506104a760048036038101906104a29190612f9a565b611cce565b6040516104b49190613a56565b60405180910390f35b3480156104c957600080fd5b506104e460048036038101906104df9190613651565b611d0d565b6040516104f19190613505565b60405180910390f35b34801561050657600080fd5b50610521600480360381019061051c9190613651565b611d2b565b60405161052e9190613505565b60405180910390f35b34801561054357600080fd5b5061054c611d77565b60405161055991906138b6565b60405180910390f35b34801561056e57600080fd5b5061058960048036038101906105849190612f9a565b611f93565b005b34801561059757600080fd5b506105b260048036038101906105ad9190613a9d565b612277565b005b3480156105c057600080fd5b506105c96126f8565b005b3480156105d757600080fd5b506105f260048036038101906105ed9190613651565b6128bc565b60405161060193929190613add565b60405180910390f35b6106126129f6565b005b61062e60048036038101906106299190612f9a565b612b40565b005b6000606080600080600080600080600360008b81526020019081526020016000209050600073ffffffffffffffffffffffffffffffffffffffff168160000160009054906101000a900473ffffffffffffffffffffffffffffffffffffffff1673ffffffffffffffffffffffffffffffffffffffff16036106e6576040517f08c379a00000000000000000000000000000000000000000000000000000000081526004016106dd90613b6e565b60405180910390fd5b8060000160009054906101000a900473ffffffffffffffffffffffffffffffffffffffff1681600101826002018360030154846004015485600501548660060154876008015486805480602002602001604051908101604052809291908181526020016000905b828210156107f957838290600052602060002001805461076c90613bbd565b80601f016020809104026020016040519081016040528092919081815260200182805461079890613bbd565b80156107e55780601f106107ba576101008083540402835291602001916107e5565b820191906000526020600020905b8154815290600101906020018083116107c857829003601f168201915b50505050508152602001906001019061074d565b50505050965085805461080b90613bbd565b80601f016020809104026020016040519081016040528092919081815260200182805461083790613bbd565b80156108845780601f1061085957610100808354040283529160200191610884565b820191906000526020600020905b81548152906001019060200180831161086757829003601f168201915b505050505095509850985098509850985098509850985050919395975091939597565b600460205281600052604060002081815481106108c357600080fd5b9060005260206000209060030201600091509150508060000160009054906101000a900473ffffffffffffffffffffffffffffffffffffffff16908060010154908060020154905083565b60003411610951576040517f08c379a000000000000000000000000000000000000000000000000000000000815260040161094890613c3a565b60405180910390fd5b6000600160003373ffffffffffffffffffffffffffffffffffffffff1673ffffffffffffffffffffffffffffffffffffffff16815260200190815260200160002060020154146109d6576040517f08c379a00000000000000000000000000000000000000000000000000000000081526004016109cd90613ca6565b60405180910390fd5b6040518060800160405280838152602001828152602001348152602001600067ffffffffffffffff811115610a0e57610a0d6132c0565b5b604051908082528060200260200182016040528015610a3c5781602001602082028036833780820191505090505b50815250600160003373ffffffffffffffffffffffffffffffffffffffff1673ffffffffffffffffffffffffffffffffffffffff1681526020019081526020016000206000820151816000019081610a949190613e72565b506020820151816001019081610aaa9190613e72565b50604082015181600201556060820151816003019080519060200190610ad1929190612e29565b509050506006339080600181540180825580915050600190039060005260206000200160009091909190916101000a81548173ffffffffffffffffffffffffffffffffffffffff021916908373ffffffffffffffffffffffffffffffffffffffff1602179055507f0386741c0345c35e0430ddfe5fee0c0afbfad9de0f6c1f1ece8021927c2f73203383604051610b69929190613f44565b60405180910390a15050565b6000600260008473ffffffffffffffffffffffffffffffffffffffff1673ffffffffffffffffffffffffffffffffffffffff168152602001908152602001600020600101600083815260200190815260200160002060009054906101000a900460ff16905092915050565b6000600360008381526020019081526020016000209050600073ffffffffffffffffffffffffffffffffffffffff168160000160009054906101000a900473ffffffffffffffffffffffffffffffffffffffff1673ffffffffffffffffffffffffffffffffffffffff1603610c8a576040517f08c379a0000000000000000000000000000000000000000000000000000000008152600401610c8190613b6e565b60405180910390fd5b6040518060400160405280600781526020017f70656e64696e67000000000000000000000000000000000000000000000000008152508051906020012081600201604051610cd89190614017565b604051809103902014610d20576040517f08c379a0000000000000000000000000000000000000000000000000000000008152600401610d179061407a565b60405180910390fd5b62093a808160060154610d3391906140c9565b4211610d74576040517f08c379a0000000000000000000000000000000000000000000000000000000008152600401610d6b90614149565b60405180910390fd5b600080826008015411610d88576000610da6565b606460058360050154610d9b9190614169565b610da591906141da565b5b90506000818360050154610dba919061420b565b9050600083600401548460030154610dd291906140c9565b9050600081118015610e00575060328160648660030154610df39190614169565b610dfd91906141da565b10155b15610f22576040518060400160405280600881526020017f617070726f766564000000000000000000000000000000000000000000000000815250846002019081610e4b9190613e72565b5060008460000160009054906101000a900473ffffffffffffffffffffffffffffffffffffffff1673ffffffffffffffffffffffffffffffffffffffff1683604051610e9690614265565b60006040518083038185875af1925050503d8060008114610ed3576040519150601f19603f3d011682016040523d82523d6000602084013e610ed8565b606091505b5050905080610f1c576040517f08c379a0000000000000000000000000000000000000000000000000000000008152600401610f13906142c6565b60405180910390fd5b5061118c565b6040518060400160405280600881526020017f72656a6563746564000000000000000000000000000000000000000000000000815250846002019081610f689190613e72565b506000805b6004600088815260200190815260200160002080549050811015610fdc57600460008881526020019081526020016000208181548110610fb057610faf6142e6565b5b90600052602060002090600302016001015482610fcd91906140c9565b91508080600101915050610f6d565b5060005b6004600088815260200190815260200160002080549050811015611189576000600460008981526020019081526020016000208281548110611025576110246142e6565b5b90600052602060002090600302016040518060600160405290816000820160009054906101000a900473ffffffffffffffffffffffffffffffffffffffff1673ffffffffffffffffffffffffffffffffffffffff1673ffffffffffffffffffffffffffffffffffffffff1681526020016001820154815260200160028201548152505090506000838683602001516110bd9190614169565b6110c791906141da565b90506000826000015173ffffffffffffffffffffffffffffffffffffffff16826040516110f390614265565b60006040518083038185875af1925050503d8060008114611130576040519150601f19603f3d011682016040523d82523d6000602084013e611135565b606091505b5050905080611179576040517f08c379a000000000000000000000000000000000000000000000000000000000815260040161117090614361565b60405180910390fd5b5050508080600101915050610fe0565b50505b7f622e8aea88c24b5860ee5c8b8fbf8e18b632e7a412ed546c499ded2088e187ad85856002016040516111c0929190614405565b60405180910390a15050505050565b60055481565b606060046000838152602001908152602001600020805480602002602001604051908101604052809291908181526020016000905b828210156112a657838290600052602060002090600302016040518060600160405290816000820160009054906101000a900473ffffffffffffffffffffffffffffffffffffffff1673ffffffffffffffffffffffffffffffffffffffff1673ffffffffffffffffffffffffffffffffffffffff168152602001600182015481526020016002820154815250508152602001906001019061120a565b505050509050919050565b606080600060606000600160008773ffffffffffffffffffffffffffffffffffffffff1673ffffffffffffffffffffffffffffffffffffffff16815260200190815260200160002090506000816002015411611342576040517f08c379a000000000000000000000000000000000000000000000000000000000815260040161133990614481565b60405180910390fd5b806000018160010182600201548360030183805461135f90613bbd565b80601f016020809104026020016040519081016040528092919081815260200182805461138b90613bbd565b80156113d85780601f106113ad576101008083540402835291602001916113d8565b820191906000526020600020905b8154815290600101906020018083116113bb57829003601f168201915b505050505093508280546113eb90613bbd565b80601f016020809104026020016040519081016040528092919081815260200182805461141790613bbd565b80156114645780601f1061143957610100808354040283529160200191611464565b820191906000526020600020905b81548152906001019060200180831161144757829003601f168201915b50505050509250808054806020026020016040519081016040528092919081815260200182805480156114b657602002820191906000526020600020905b8154815260200190600101908083116114a2575b505050505090509450945094509450509193509193565b6000600160003373ffffffffffffffffffffffffffffffffffffffff1673ffffffffffffffffffffffffffffffffffffffff1681526020019081526020016000206002015411611552576040517f08c379a000000000000000000000000000000000000000000000000000000000815260040161154990614481565b60405180910390fd5b60056000815480929190611565906144a1565b919050555060006003600060055481526020019081526020016000209050338160000160006101000a81548173ffffffffffffffffffffffffffffffffffffffff021916908373ffffffffffffffffffffffffffffffffffffffff160217905550818160010190805190602001906115de929190612e76565b506040518060400160405280600781526020017f70656e64696e67000000000000000000000000000000000000000000000000008152508160020190816116259190613e72565b50428160060181905550600160003373ffffffffffffffffffffffffffffffffffffffff1673ffffffffffffffffffffffffffffffffffffffff16815260200190815260200160002060030160055490806001815401808255809150506001900390600052602060002001600090919091909150557fe9ee39160568153d230ca0e29961267415d513defbb7d3b21af0fe940e1ebd15600554336040516116cd9291906144e9565b60405180910390a15050565b6060600060055467ffffffffffffffff8111156116f9576116f86132c0565b5b6040519080825280602002602001820160405280156117275781602001602082028036833780820191505090505b5090506000600190505b6005548111611779578082600183611749919061420b565b8151811061175a576117596142e6565b5b6020026020010181815250508080611771906144a1565b915050611731565b508091505090565b6060806000600160008573ffffffffffffffffffffffffffffffffffffffff1673ffffffffffffffffffffffffffffffffffffffff1681526020019081526020016000209050600081600201541161180e576040517f08c379a000000000000000000000000000000000000000000000000000000000815260040161180590614481565b60405180910390fd5b8060030180548060200260200160405190810160405280929190818152602001828054801561185c57602002820191906000526020600020905b815481526020019060010190808311611848575b50505050509250825167ffffffffffffffff81111561187e5761187d6132c0565b5b6040519080825280602002602001820160405280156118b157816020015b606081526020019060019003908161189c5790505b50915060005b83518110156119a457600360008583815181106118d7576118d66142e6565b5b6020026020010151815260200190815260200160002060020180546118fb90613bbd565b80601f016020809104026020016040519081016040528092919081815260200182805461192790613bbd565b80156119745780601f1061194957610100808354040283529160200191611974565b820191906000526020600020905b81548152906001019060200180831161195757829003601f168201915b505050505083828151811061198c5761198b6142e6565b5b602002602001018190525080806001019150506118b7565b5050915091565b60606006805480602002602001604051908101604052809291908181526020018280548015611a2f57602002820191906000526020600020905b8160009054906101000a900473ffffffffffffffffffffffffffffffffffffffff1673ffffffffffffffffffffffffffffffffffffffff16815260200190600101908083116119e5575b5050505050905090565b60036020528060005260406000206000915090508060000160009054906101000a900473ffffffffffffffffffffffffffffffffffffffff1690806002018054611a8290613bbd565b80601f0160208091040260200160405190810160405280929190818152602001828054611aae90613bbd565b8015611afb5780601f10611ad057610100808354040283529160200191611afb565b820191906000526020600020905b815481529060010190602001808311611ade57829003601f168201915b5050505050908060030154908060040154908060050154908060060154908060080154905087565b60008054906101000a900473ffffffffffffffffffffffffffffffffffffffff1681565b600080600160008473ffffffffffffffffffffffffffffffffffffffff1673ffffffffffffffffffffffffffffffffffffffff16815260200190815260200160002090506000816002015411611bd2576040517f08c379a0000000000000000000000000000000000000000000000000000000008152600401611bc990614481565b60405180910390fd5b6000915060005b8160030180549050811015611cc7576040518060400160405280600881526020017f617070726f7665640000000000000000000000000000000000000000000000008152508051906020012060036000846003018481548110611c3f57611c3e6142e6565b5b90600052602060002001548152602001908152602001600020600201604051611c689190614017565b604051809103902003611cba5760036000836003018381548110611c8f57611c8e6142e6565b5b906000526020600020015481526020019081526020016000206005015483611cb791906140c9565b92505b8080600101915050611bd9565b5050919050565b60068181548110611cde57600080fd5b906000526020600020016000915054906101000a900473ffffffffffffffffffffffffffffffffffffffff1681565b60026020528060005260406000206000915090508060000154905081565b6000600260008373ffffffffffffffffffffffffffffffffffffffff1673ffffffffffffffffffffffffffffffffffffffff168152602001908152602001600020600001549050919050565b6060600080600190505b6005548111611e4a576040518060400160405280600781526020017f70656e64696e67000000000000000000000000000000000000000000000000008152508051906020012060036000838152602001908152602001600020600201604051611dea9190614017565b6040518091039020148015611e23575062093a806003600083815260200190815260200160002060060154611e1f91906140c9565b4211155b15611e37578180611e33906144a1565b9250505b8080611e42906144a1565b915050611d81565b5060008167ffffffffffffffff811115611e6757611e666132c0565b5b604051908082528060200260200182016040528015611e955781602001602082028036833780820191505090505b509050600080600190505b6005548111611f89576040518060400160405280600781526020017f70656e64696e67000000000000000000000000000000000000000000000000008152508051906020012060036000838152602001908152602001600020600201604051611f099190614017565b6040518091039020148015611f42575062093a806003600083815260200190815260200160002060060154611f3e91906140c9565b4211155b15611f765780838381518110611f5b57611f5a6142e6565b5b6020026020010181815250508180611f72906144a1565b9250505b8080611f81906144a1565b915050611ea0565b5081935050505090565b6003600082815260200190815260200160002060070160003373ffffffffffffffffffffffffffffffffffffffff1673ffffffffffffffffffffffffffffffffffffffff16815260200190815260200160002060009054906101000a900460ff16612033576040517f08c379a000000000000000000000000000000000000000000000000000000000815260040161202a9061455e565b60405180910390fd5b6040518060400160405280600781526020017f70656e64696e670000000000000000000000000000000000000000000000000081525080519060200120600360008381526020019081526020016000206002016040516120939190614017565b6040518091039020036120db576040517f08c379a00000000000000000000000000000000000000000000000000000000081526004016120d2906145ca565b60405180910390fd5b60006064600560036000858152602001908152602001600020600501546121029190614169565b61210c91906141da565b9050600080600360008581526020019081526020016000206008015411612134576000612157565b60036000848152602001908152602001600020600801548261215691906141da565b5b905060003373ffffffffffffffffffffffffffffffffffffffff168260405161217f90614265565b60006040518083038185875af1925050503d80600081146121bc576040519150601f19603f3d011682016040523d82523d6000602084013e6121c1565b606091505b5050905080612205576040517f08c379a00000000000000000000000000000000000000000000000000000000081526004016121fc90614636565b60405180910390fd5b60006003600086815260200190815260200160002060070160003373ffffffffffffffffffffffffffffffffffffffff1673ffffffffffffffffffffffffffffffffffffffff16815260200190815260200160002060006101000a81548160ff02191690831515021790555050505050565b6000600260003373ffffffffffffffffffffffffffffffffffffffff1673ffffffffffffffffffffffffffffffffffffffff16815260200190815260200160002060000154116122fc576040517f08c379a00000000000000000000000000000000000000000000000000000000081526004016122f3906146a2565b60405180910390fd5b600073ffffffffffffffffffffffffffffffffffffffff166003600084815260200190815260200160002060000160009054906101000a900473ffffffffffffffffffffffffffffffffffffffff1673ffffffffffffffffffffffffffffffffffffffff16036123a1576040517f08c379a000000000000000000000000000000000000000000000000000000000815260040161239890613b6e565b60405180910390fd5b600260003373ffffffffffffffffffffffffffffffffffffffff1673ffffffffffffffffffffffffffffffffffffffff168152602001908152602001600020600101600083815260200190815260200160002060009054906101000a900460ff1615612442576040517f08c379a00000000000000000000000000000000000000000000000000000000081526004016124399061470e565b60405180910390fd5b6040518060400160405280600781526020017f70656e64696e670000000000000000000000000000000000000000000000000081525080519060200120600360008481526020019081526020016000206002016040516124a29190614017565b6040518091039020146124ea576040517f08c379a00000000000000000000000000000000000000000000000000000000081526004016124e19061477a565b60405180910390fd5b62093a80600360008481526020019081526020016000206006015461250f91906140c9565b421115612551576040517f08c379a0000000000000000000000000000000000000000000000000000000008152600401612548906147e6565b60405180910390fd5b6001600260003373ffffffffffffffffffffffffffffffffffffffff1673ffffffffffffffffffffffffffffffffffffffff168152602001908152602001600020600101600084815260200190815260200160002060006101000a81548160ff02191690831515021790555060016003600084815260200190815260200160002060070160003373ffffffffffffffffffffffffffffffffffffffff1673ffffffffffffffffffffffffffffffffffffffff16815260200190815260200160002060006101000a81548160ff021916908315150217905550600360008381526020019081526020016000206008016000815480929190612650906144a1565b9190505550801561268c57600360008381526020019081526020016000206003016000815480929190612682906144a1565b91905055506126b9565b6003600083815260200190815260200160002060040160008154809291906126b3906144a1565b91905055505b7ff2913dbe661ee2acc4a046d8fbcdc792373bda34c41c6086484b5345e5785e5f8233836040516126ec93929190614806565b60405180910390a15050565b6000600260003373ffffffffffffffffffffffffffffffffffffffff1673ffffffffffffffffffffffffffffffffffffffff168152602001908152602001600020600001541161277d576040517f08c379a0000000000000000000000000000000000000000000000000000000008152600401612774906146a2565b60405180910390fd5b6000600260003373ffffffffffffffffffffffffffffffffffffffff1673ffffffffffffffffffffffffffffffffffffffff1681526020019081526020016000206000015490506000600260003373ffffffffffffffffffffffffffffffffffffffff1673ffffffffffffffffffffffffffffffffffffffff1681526020019081526020016000206000018190555060003373ffffffffffffffffffffffffffffffffffffffff168260405161283290614265565b60006040518083038185875af1925050503d806000811461286f576040519150601f19603f3d011682016040523d82523d6000602084013e612874565b606091505b50509050806128b8576040517f08c379a00000000000000000000000000000000000000000000000000000000081526004016128af90614889565b60405180910390fd5b5050565b60016020528060005260406000206000915090508060000180546128df90613bbd565b80601f016020809104026020016040519081016040528092919081815260200182805461290b90613bbd565b80156129585780601f1061292d57610100808354040283529160200191612958565b820191906000526020600020905b81548152906001019060200180831161293b57829003601f168201915b50505050509080600101805461296d90613bbd565b80601f016020809104026020016040519081016040528092919081815260200182805461299990613bbd565b80156129e65780601f106129bb576101008083540402835291602001916129e6565b820191906000526020600020905b8154815290600101906020018083116129c957829003601f168201915b5050505050908060020154905083565b60003411612a39576040517f08c379a0000000000000000000000000000000000000000000000000000000008152600401612a3090613c3a565b60405180910390fd5b6000600260003373ffffffffffffffffffffffffffffffffffffffff1673ffffffffffffffffffffffffffffffffffffffff1681526020019081526020016000206000015414612abe576040517f08c379a0000000000000000000000000000000000000000000000000000000008152600401612ab5906148f5565b60405180910390fd5b34600260003373ffffffffffffffffffffffffffffffffffffffff1673ffffffffffffffffffffffffffffffffffffffff168152602001908152602001600020600001819055507ff16ce2c2236e2c6e3df646f80d657bceef4cd7f3a240c47e82adfa17a5f472413334604051612b36929190614915565b60405180910390a1565b600073ffffffffffffffffffffffffffffffffffffffff166003600083815260200190815260200160002060000160009054906101000a900473ffffffffffffffffffffffffffffffffffffffff1673ffffffffffffffffffffffffffffffffffffffff1603612be5576040517f08c379a0000000000000000000000000000000000000000000000000000000008152600401612bdc90613b6e565b60405180910390fd5b60003411612c28576040517f08c379a0000000000000000000000000000000000000000000000000000000008152600401612c1f9061498a565b60405180910390fd5b6040518060400160405280600781526020017f70656e64696e67000000000000000000000000000000000000000000000000008152508051906020012060036000838152602001908152602001600020600201604051612c889190614017565b604051809103902014612cd0576040517f08c379a0000000000000000000000000000000000000000000000000000000008152600401612cc79061477a565b60405180910390fd5b34600360008381526020019081526020016000206005016000828254612cf691906140c9565b925050819055506004600082815260200190815260200160002060405180606001604052803373ffffffffffffffffffffffffffffffffffffffff16815260200134815260200142815250908060018154018082558091505060019003906000526020600020906003020160009091909190915060008201518160000160006101000a81548173ffffffffffffffffffffffffffffffffffffffff021916908373ffffffffffffffffffffffffffffffffffffffff160217905550602082015181600101556040820151816002015550507f27e413b8931dc4cb7edc879292ebc482a3047336d03423ea91addae7a2cf850a81333460016004600087815260200190815260200160002080549050612e0e919061420b565b604051612e1e94939291906149aa565b60405180910390a150565b828054828255906000526020600020908101928215612e65579160200282015b82811115612e64578251825591602001919060010190612e49565b5b509050612e729190612ecf565b5090565b828054828255906000526020600020908101928215612ebe579160200282015b82811115612ebd578251829081612ead9190613e72565b5091602001919060010190612e96565b5b509050612ecb9190612eec565b5090565b5b80821115612ee8576000816000905550600101612ed0565b5090565b5b80821115612f0c5760008181612f039190612f10565b50600101612eed565b5090565b508054612f1c90613bbd565b6000825580601f10612f2e5750612f4d565b601f016020900490600052602060002090810190612f4c9190612ecf565b5b50565b6000604051905090565b600080fd5b600080fd5b6000819050919050565b612f7781612f64565b8114612f8257600080fd5b50565b600081359050612f9481612f6e565b92915050565b600060208284031215612fb057612faf612f5a565b5b6000612fbe84828501612f85565b91505092915050565b600073ffffffffffffffffffffffffffffffffffffffff82169050919050565b6000612ff282612fc7565b9050919050565b61300281612fe7565b82525050565b600081519050919050565b600082825260208201905092915050565b6000819050602082019050919050565b600081519050919050565b600082825260208201905092915050565b60005b8381101561306e578082015181840152602081019050613053565b60008484015250505050565b6000601f19601f8301169050919050565b600061309682613034565b6130a0818561303f565b93506130b0818560208601613050565b6130b98161307a565b840191505092915050565b60006130d0838361308b565b905092915050565b6000602082019050919050565b60006130f082613008565b6130fa8185613013565b93508360208202850161310c85613024565b8060005b85811015613148578484038952815161312985826130c4565b9450613134836130d8565b925060208a01995050600181019050613110565b50829750879550505050505092915050565b600082825260208201905092915050565b600061317682613034565b613180818561315a565b9350613190818560208601613050565b6131998161307a565b840191505092915050565b6131ad81612f64565b82525050565b6000610100820190506131c9600083018b612ff9565b81810360208301526131db818a6130e5565b905081810360408301526131ef818961316b565b90506131fe60608301886131a4565b61320b60808301876131a4565b61321860a08301866131a4565b61322560c08301856131a4565b61323260e08301846131a4565b9998505050505050505050565b6000806040838503121561325657613255612f5a565b5b600061326485828601612f85565b925050602061327585828601612f85565b9150509250929050565b60006060820190506132946000830186612ff9565b6132a160208301856131a4565b6132ae60408301846131a4565b949350505050565b600080fd5b600080fd5b7f4e487b7100000000000000000000000000000000000000000000000000000000600052604160045260246000fd5b6132f88261307a565b810181811067ffffffffffffffff82111715613317576133166132c0565b5b80604052505050565b600061332a612f50565b905061333682826132ef565b919050565b600067ffffffffffffffff821115613356576133556132c0565b5b61335f8261307a565b9050602081019050919050565b82818337600083830152505050565b600061338e6133898461333b565b613320565b9050828152602081018484840111156133aa576133a96132bb565b5b6133b584828561336c565b509392505050565b600082601f8301126133d2576133d16132b6565b5b81356133e284826020860161337b565b91505092915050565b6000806040838503121561340257613401612f5a565b5b600083013567ffffffffffffffff8111156134205761341f612f5f565b5b61342c858286016133bd565b925050602083013567ffffffffffffffff81111561344d5761344c612f5f565b5b613459858286016133bd565b9150509250929050565b61346c81612fe7565b811461347757600080fd5b50565b60008135905061348981613463565b92915050565b600080604083850312156134a6576134a5612f5a565b5b60006134b48582860161347a565b92505060206134c585828601612f85565b9150509250929050565b60008115159050919050565b6134e4816134cf565b82525050565b60006020820190506134ff60008301846134db565b92915050565b600060208201905061351a60008301846131a4565b92915050565b600081519050919050565b600082825260208201905092915050565b6000819050602082019050919050565b61355581612fe7565b82525050565b61356481612f64565b82525050565b606082016000820151613580600085018261354c565b506020820151613593602085018261355b565b5060408201516135a6604085018261355b565b50505050565b60006135b8838361356a565b60608301905092915050565b6000602082019050919050565b60006135dc82613520565b6135e6818561352b565b93506135f18361353c565b8060005b8381101561362257815161360988826135ac565b9750613614836135c4565b9250506001810190506135f5565b5085935050505092915050565b6000602082019050818103600083015261364981846135d1565b905092915050565b60006020828403121561366757613666612f5a565b5b60006136758482850161347a565b91505092915050565b600081519050919050565b600082825260208201905092915050565b6000819050602082019050919050565b60006136b6838361355b565b60208301905092915050565b6000602082019050919050565b60006136da8261367e565b6136e48185613689565b93506136ef8361369a565b8060005b8381101561372057815161370788826136aa565b9750613712836136c2565b9250506001810190506136f3565b5085935050505092915050565b60006080820190508181036000830152613747818761316b565b9050818103602083015261375b818661316b565b905061376a60408301856131a4565b818103606083015261377c81846136cf565b905095945050505050565b600067ffffffffffffffff8211156137a2576137a16132c0565b5b602082029050602081019050919050565b600080fd5b60006137cb6137c684613787565b613320565b905080838252602082019050602084028301858111156137ee576137ed6137b3565b5b835b8181101561383557803567ffffffffffffffff811115613813576138126132b6565b5b80860161382089826133bd565b855260208501945050506020810190506137f0565b5050509392505050565b600082601f830112613854576138536132b6565b5b81356138648482602086016137b8565b91505092915050565b60006020828403121561388357613882612f5a565b5b600082013567ffffffffffffffff8111156138a1576138a0612f5f565b5b6138ad8482850161383f565b91505092915050565b600060208201905081810360008301526138d081846136cf565b905092915050565b600060408201905081810360008301526138f281856136cf565b9050818103602083015261390681846130e5565b90509392505050565b600081519050919050565b600082825260208201905092915050565b6000819050602082019050919050565b6000613947838361354c565b60208301905092915050565b6000602082019050919050565b600061396b8261390f565b613975818561391a565b93506139808361392b565b8060005b838110156139b1578151613998888261393b565b97506139a383613953565b925050600181019050613984565b5085935050505092915050565b600060208201905081810360008301526139d88184613960565b905092915050565b600060e0820190506139f5600083018a612ff9565b8181036020830152613a07818961316b565b9050613a1660408301886131a4565b613a2360608301876131a4565b613a3060808301866131a4565b613a3d60a08301856131a4565b613a4a60c08301846131a4565b98975050505050505050565b6000602082019050613a6b6000830184612ff9565b92915050565b613a7a816134cf565b8114613a8557600080fd5b50565b600081359050613a9781613a71565b92915050565b60008060408385031215613ab457613ab3612f5a565b5b6000613ac285828601612f85565b9250506020613ad385828601613a88565b9150509250929050565b60006060820190508181036000830152613af7818661316b565b90508181036020830152613b0b818561316b565b9050613b1a60408301846131a4565b949350505050565b7f5461736b20646f6573206e6f7420657869737400000000000000000000000000600082015250565b6000613b5860138361315a565b9150613b6382613b22565b602082019050919050565b60006020820190508181036000830152613b8781613b4b565b9050919050565b7f4e487b7100000000000000000000000000000000000000000000000000000000600052602260045260246000fd5b60006002820490506001821680613bd557607f821691505b602082108103613be857613be7613b8e565b5b50919050565b7f4d757374207374616b6520455448000000000000000000000000000000000000600082015250565b6000613c24600e8361315a565b9150613c2f82613bee565b602082019050919050565b60006020820190508181036000830152613c5381613c17565b9050919050565b7f4e474f20616c7265616479207265676973746572656400000000000000000000600082015250565b6000613c9060168361315a565b9150613c9b82613c5a565b602082019050919050565b60006020820190508181036000830152613cbf81613c83565b9050919050565b60008190508160005260206000209050919050565b60006020601f8301049050919050565b600082821b905092915050565b600060088302613d287fffffffffffffffffffffffffffffffffffffffffffffffffffffffffffffffff82613ceb565b613d328683613ceb565b95508019841693508086168417925050509392505050565b6000819050919050565b6000613d6f613d6a613d6584612f64565b613d4a565b612f64565b9050919050565b6000819050919050565b613d8983613d54565b613d9d613d9582613d76565b848454613cf8565b825550505050565b600090565b613db2613da5565b613dbd818484613d80565b505050565b5b81811015613de157613dd6600082613daa565b600181019050613dc3565b5050565b601f821115613e2657613df781613cc6565b613e0084613cdb565b81016020851015613e0f578190505b613e23613e1b85613cdb565b830182613dc2565b50505b505050565b600082821c905092915050565b6000613e4960001984600802613e2b565b1980831691505092915050565b6000613e628383613e38565b9150826002028217905092915050565b613e7b82613034565b67ffffffffffffffff811115613e9457613e936132c0565b5b613e9e8254613bbd565b613ea9828285613de5565b600060209050601f831160018114613edc5760008415613eca578287015190505b613ed48582613e56565b865550613f3c565b601f198416613eea86613cc6565b60005b82811015613f1257848901518255600182019150602085019450602081019050613eed565b86831015613f2f5784890151613f2b601f891682613e38565b8355505b6001600288020188555050505b505050505050565b6000604082019050613f596000830185612ff9565b8181036020830152613f6b818461316b565b90509392505050565b600081905092915050565b60008190508160005260206000209050919050565b60008154613fa181613bbd565b613fab8186613f74565b94506001821660008114613fc65760018114613fdb5761400e565b60ff198316865281151582028601935061400e565b613fe485613f7f565b60005b8381101561400657815481890152600182019150602081019050613fe7565b838801955050505b50505092915050565b60006140238284613f94565b915081905092915050565b7f5461736b20616c7265616479207265736f6c7665640000000000000000000000600082015250565b600061406460158361315a565b915061406f8261402e565b602082019050919050565b6000602082019050818103600083015261409381614057565b9050919050565b7f4e487b7100000000000000000000000000000000000000000000000000000000600052601160045260246000fd5b60006140d482612f64565b91506140df83612f64565b92508282019050808211156140f7576140f661409a565b5b92915050565b7f566f74696e6720706572696f64206e6f7420656e646564000000000000000000600082015250565b600061413360178361315a565b915061413e826140fd565b602082019050919050565b6000602082019050818103600083015261416281614126565b9050919050565b600061417482612f64565b915061417f83612f64565b925082820261418d81612f64565b915082820484148315176141a4576141a361409a565b5b5092915050565b7f4e487b7100000000000000000000000000000000000000000000000000000000600052601260045260246000fd5b60006141e582612f64565b91506141f083612f64565b925082614200576141ff6141ab565b5b828204905092915050565b600061421682612f64565b915061422183612f64565b92508282039050818111156142395761423861409a565b5b92915050565b50565b600061424f600083613f74565b915061425a8261423f565b600082019050919050565b600061427082614242565b9150819050919050565b7f4661696c656420746f2073656e642066756e647320746f204e474f0000000000600082015250565b60006142b0601b8361315a565b91506142bb8261427a565b602082019050919050565b600060208201905081810360008301526142df816142a3565b9050919050565b7f4e487b7100000000000000000000000000000000000000000000000000000000600052603260045260246000fd5b7f526566756e64206661696c656400000000000000000000000000000000000000600082015250565b600061434b600d8361315a565b915061435682614315565b602082019050919050565b6000602082019050818103600083015261437a8161433e565b9050919050565b6000815461438e81613bbd565b614398818661315a565b945060018216600081146143b357600181146143c9576143fc565b60ff1983168652811515602002860193506143fc565b6143d285613cc6565b60005b838110156143f4578154818901526001820191506020810190506143d5565b808801955050505b50505092915050565b600060408201905061441a60008301856131a4565b818103602083015261442c8184614381565b90509392505050565b7f4e474f206e6f7420726567697374657265640000000000000000000000000000600082015250565b600061446b60128361315a565b915061447682614435565b602082019050919050565b6000602082019050818103600083015261449a8161445e565b9050919050565b60006144ac82612f64565b91507fffffffffffffffffffffffffffffffffffffffffffffffffffffffffffffffff82036144de576144dd61409a565b5b600182019050919050565b60006040820190506144fe60008301856131a4565b61450b6020830184612ff9565b9392505050565b7f446964206e6f7420766f7465206f6e207461736b000000000000000000000000600082015250565b600061454860148361315a565b915061455382614512565b602082019050919050565b600060208201905081810360008301526145778161453b565b9050919050565b7f5461736b207374696c6c2070656e64696e670000000000000000000000000000600082015250565b60006145b460128361315a565b91506145bf8261457e565b602082019050919050565b600060208201905081810360008301526145e3816145a7565b9050919050565b7f52657761726420636c61696d206661696c656400000000000000000000000000600082015250565b600061462060138361315a565b915061462b826145ea565b602082019050919050565b6000602082019050818103600083015261464f81614613565b9050919050565b7f4e6f74206120766f746572000000000000000000000000000000000000000000600082015250565b600061468c600b8361315a565b915061469782614656565b602082019050919050565b600060208201905081810360008301526146bb8161467f565b9050919050565b7f416c726561647920766f74656400000000000000000000000000000000000000600082015250565b60006146f8600d8361315a565b9150614703826146c2565b602082019050919050565b60006020820190508181036000830152614727816146eb565b9050919050565b7f5461736b206e6f742070656e64696e6700000000000000000000000000000000600082015250565b600061476460108361315a565b915061476f8261472e565b602082019050919050565b6000602082019050818103600083015261479381614757565b9050919050565b7f566f74696e6720706572696f6420656e64656400000000000000000000000000600082015250565b60006147d060138361315a565b91506147db8261479a565b602082019050919050565b600060208201905081810360008301526147ff816147c3565b9050919050565b600060608201905061481b60008301866131a4565b6148286020830185612ff9565b61483560408301846134db565b949350505050565b7f5769746864726177616c206661696c6564000000000000000000000000000000600082015250565b600061487360118361315a565b915061487e8261483d565b602082019050919050565b600060208201905081810360008301526148a281614866565b9050919050565b7f416c7265616479206120766f7465720000000000000000000000000000000000600082015250565b60006148df600f8361315a565b91506148ea826148a9565b602082019050919050565b6000602082019050818103600083015261490e816148d2565b9050919050565b600060408201905061492a6000830185612ff9565b61493760208301846131a4565b9392505050565b7f4d75737420646f6e617465204554480000000000000000000000000000000000600082015250565b6000614974600f8361315a565b915061497f8261493e565b602082019050919050565b600060208201905081810360008301526149a381614967565b9050919050565b60006080820190506149bf60008301876131a4565b6149cc6020830186612ff9565b6149d960408301856131a4565b6149e660608301846131a4565b9594505050505056fea264697066735822122070b142fd51bfcad880bff368b2912cbaf989359a1947bba86583fa2d5ac1750964736f6c634300081c0033",
  "devdoc": {
    "kind": "dev",
    "methods": {},
    "version": 1
  },
  "userdoc": {
    "kind": "user",
    "methods": {},
    "version": 1
  },
  "storageLayout": {
    "storage": [
      {
        "astId": 3,
        "contract": "contracts/CryptoDonationPlatform.sol:NGOFunding",
        "label": "owner",
        "offset": 0,
        "slot": "0",
        "type": "t_address"
      },
      {
        "astId": 66,
        "contract": "contracts/CryptoDonationPlatform.sol:NGOFunding",
        "label": "ngos",
        "offset": 0,
        "slot": "1",
        "type": "t_mapping(t_address,t_struct(NGO)25_storage)"
      },
      {
        "astId": 71,
        "contract": "contracts/CryptoDonationPlatform.sol:NGOFunding",
        "label": "voters",
        "offset": 0,
        "slot": "2",
        "type": "t_mapping(t_address,t_struct(Voter)32_storage)"
      },
      {
        "astId": 76,
        "contract": "contracts/CryptoDonationPlatform.sol:NGOFunding",
        "label": "tasks",
        "offset": 0,
        "slot": "3",
        "type": "t_mapping(t_uint256,t_struct(Task)54_storage)"
      },
      {
        "astId": 82,
        "contract": "contracts/CryptoDonationPlatform.sol:NGOFunding",
        "label": "taskDonations",
        "offset": 0,
        "slot": "4",
        "type": "t_mapping(t_uint256,t_array(t_struct(Donation)61_storage)dyn_storage)"
      },
      {
        "astId": 84,
        "contract": "contracts/CryptoDonationPlatform.sol:NGOFunding",
        "label": "taskCounter",
        "offset": 0,
        "slot": "5",
        "type": "t_uint256"
      },
      {
        "astId": 87,
        "contract": "contracts/CryptoDonationPlatform.sol:NGOFunding",
        "label": "ngoList",
        "offset": 0,
        "slot": "6",
        "type": "t_array(t_address)dyn_storage"
      }
    ],
    "types": {
      "t_address": {
        "encoding": "inplace",
        "label": "address",
        "numberOfBytes": "20"
      },
      "t_array(t_address)dyn_storage": {
        "base": "t_address",
        "encoding": "dynamic_array",
        "label": "address[]",
        "numberOfBytes": "32"
      },
      "t_array(t_string_storage)dyn_storage": {
        "base": "t_string_storage",
        "encoding": "dynamic_array",
        "label": "string[]",
        "numberOfBytes": "32"
      },
      "t_array(t_struct(Donation)61_storage)dyn_storage": {
        "base": "t_struct(Donation)61_storage",
        "encoding": "dynamic_array",
        "label": "struct NGOFunding.Donation[]",
        "numberOfBytes": "32"
      },
      "t_array(t_uint256)dyn_storage": {
        "base": "t_uint256",
        "encoding": "dynamic_array",
        "label": "uint256[]",
        "numberOfBytes": "32"
      },
      "t_bool": {
        "encoding": "inplace",
        "label": "bool",
        "numberOfBytes": "1"
      },
      "t_mapping(t_address,t_bool)": {
        "encoding": "mapping",
        "key": "t_address",
        "label": "mapping(address => bool)",
        "numberOfBytes": "32",
        "value": "t_bool"
      },
      "t_mapping(t_address,t_struct(NGO)25_storage)": {
        "encoding": "mapping",
        "key": "t_address",
        "label": "mapping(address => struct NGOFunding.NGO)",
        "numberOfBytes": "32",
        "value": "t_struct(NGO)25_storage"
      },
      "t_mapping(t_address,t_struct(Voter)32_storage)": {
        "encoding": "mapping",
        "key": "t_address",
        "label": "mapping(address => struct NGOFunding.Voter)",
        "numberOfBytes": "32",
        "value": "t_struct(Voter)32_storage"
      },
      "t_mapping(t_uint256,t_array(t_struct(Donation)61_storage)dyn_storage)": {
        "encoding": "mapping",
        "key": "t_uint256",
        "label": "mapping(uint256 => struct NGOFunding.Donation[])",
        "numberOfBytes": "32",
        "value": "t_array(t_struct(Donation)61_storage)dyn_storage"
      },
      "t_mapping(t_uint256,t_bool)": {
        "encoding": "mapping",
        "key": "t_uint256",
        "label": "mapping(uint256 => bool)",
        "numberOfBytes": "32",
        "value": "t_bool"
      },
      "t_mapping(t_uint256,t_struct(Task)54_storage)": {
        "encoding": "mapping",
        "key": "t_uint256",
        "label": "mapping(uint256 => struct NGOFunding.Task)",
        "numberOfBytes": "32",
        "value": "t_struct(Task)54_storage"
      },
      "t_string_storage": {
        "encoding": "bytes",
        "label": "string",
        "numberOfBytes": "32"
      },
      "t_struct(Donation)61_storage": {
        "encoding": "inplace",
        "label": "struct NGOFunding.Donation",
        "members": [
          {
            "astId": 56,
            "contract": "contracts/CryptoDonationPlatform.sol:NGOFunding",
            "label": "donor",
            "offset": 0,
            "slot": "0",
            "type": "t_address"
          },
          {
            "astId": 58,
            "contract": "contracts/CryptoDonationPlatform.sol:NGOFunding",
            "label": "amount",
            "offset": 0,
            "slot": "1",
            "type": "t_uint256"
          },
          {
            "astId": 60,
            "contract": "contracts/CryptoDonationPlatform.sol:NGOFunding",
            "label": "timestamp",
            "offset": 0,
            "slot": "2",
            "type": "t_uint256"
          }
        ],
        "numberOfBytes": "96"
      },
      "t_struct(NGO)25_storage": {
        "encoding": "inplace",
        "label": "struct NGOFunding.NGO",
        "members": [
          {
            "astId": 17,
            "contract": "contracts/CryptoDonationPlatform.sol:NGOFunding",
            "label": "name",
            "offset": 0,
            "slot": "0",
            "type": "t_string_storage"
          },
          {
            "astId": 19,
            "contract": "contracts/CryptoDonationPlatform.sol:NGOFunding",
            "label": "description",
            "offset": 0,
            "slot": "1",
            "type": "t_string_storage"
          },
          {
            "astId": 21,
            "contract": "contracts/CryptoDonationPlatform.sol:NGOFunding",
            "label": "stakedEth",
            "offset": 0,
            "slot": "2",
            "type": "t_uint256"
          },
          {
            "astId": 24,
            "contract": "contracts/CryptoDonationPlatform.sol:NGOFunding",
            "label": "taskIds",
            "offset": 0,
            "slot": "3",
            "type": "t_array(t_uint256)dyn_storage"
          }
        ],
        "numberOfBytes": "128"
      },
      "t_struct(Task)54_storage": {
        "encoding": "inplace",
        "label": "struct NGOFunding.Task",
        "members": [
          {
            "astId": 34,
            "contract": "contracts/CryptoDonationPlatform.sol:NGOFunding",
            "label": "ngo",
            "offset": 0,
            "slot": "0",
            "type": "t_address"
          },
          {
            "astId": 37,
            "contract": "contracts/CryptoDonationPlatform.sol:NGOFunding",
            "label": "proofLinks",
            "offset": 0,
            "slot": "1",
            "type": "t_array(t_string_storage)dyn_storage"
          },
          {
            "astId": 39,
            "contract": "contracts/CryptoDonationPlatform.sol:NGOFunding",
            "label": "status",
            "offset": 0,
            "slot": "2",
            "type": "t_string_storage"
          },
          {
            "astId": 41,
            "contract": "contracts/CryptoDonationPlatform.sol:NGOFunding",
            "label": "yesVotes",
            "offset": 0,
            "slot": "3",
            "type": "t_uint256"
          },
          {
            "astId": 43,
            "contract": "contracts/CryptoDonationPlatform.sol:NGOFunding",
            "label": "noVotes",
            "offset": 0,
            "slot": "4",
            "type": "t_uint256"
          },
          {
            "astId": 45,
            "contract": "contracts/CryptoDonationPlatform.sol:NGOFunding",
            "label": "totalFunds",
            "offset": 0,
            "slot": "5",
            "type": "t_uint256"
          },
          {
            "astId": 47,
            "contract": "contracts/CryptoDonationPlatform.sol:NGOFunding",
            "label": "startTime",
            "offset": 0,
            "slot": "6",
            "type": "t_uint256"
          },
          {
            "astId": 51,
            "contract": "contracts/CryptoDonationPlatform.sol:NGOFunding",
            "label": "voters",
            "offset": 0,
            "slot": "7",
            "type": "t_mapping(t_address,t_bool)"
          },
          {
            "astId": 53,
            "contract": "contracts/CryptoDonationPlatform.sol:NGOFunding",
            "label": "voterCount",
            "offset": 0,
            "slot": "8",
            "type": "t_uint256"
          }
        ],
        "numberOfBytes": "288"
      },
      "t_struct(Voter)32_storage": {
        "encoding": "inplace",
        "label": "struct NGOFunding.Voter",
        "members": [
          {
            "astId": 27,
            "contract": "contracts/CryptoDonationPlatform.sol:NGOFunding",
            "label": "stakedEth",
            "offset": 0,
            "slot": "0",
            "type": "t_uint256"
          },
          {
            "astId": 31,
            "contract": "contracts/CryptoDonationPlatform.sol:NGOFunding",
            "label": "hasVoted",
            "offset": 0,
            "slot": "1",
            "type": "t_mapping(t_uint256,t_bool)"
          }
        ],
        "numberOfBytes": "64"
      },
      "t_uint256": {
        "encoding": "inplace",
        "label": "uint256",
        "numberOfBytes": "32"
      }
    }
  }
}