{
  "address": "0xaa730BE353B9E1CC4988718bed01be2541D4f5C4",
  "abi": [
    {
      "inputs": [],
      "stateMutability": "nonpayable",
      "type": "constructor"
    },
    {
      "anonymous": false,
      "inputs": [
        {
          "indexed": false,
          "internalType": "uint256",
          "name": "taskId",
          "type": "uint256"
        },
        {
          "indexed": false,
          "internalType": "address",
          "name": "donor",
          "type": "address"
        },
        {
          "indexed": false,
          "internalType": "uint256",
          "name": "amount",
          "type": "uint256"
        },
        {
          "indexed": false,
          "internalType": "uint256",
          "name": "donationId",
          "type": "uint256"
        }
      ],
      "name": "Donated",
      "type": "event"
    },
    {
      "anonymous": false,
      "inputs": [
        {
          "indexed": false,
          "internalType": "address",
          "name": "ngo",
          "type": "address"
        },
        {
          "indexed": false,
          "internalType": "string",
          "name": "name",
          "type": "string"
        }
      ],
      "name": "NGORegistered",
      "type": "event"
    },
    {
      "anonymous": false,
      "inputs": [
        {
          "indexed": false,
          "internalType": "address",
          "name": "ngo",
          "type": "address"
        },
        {
          "indexed": false,
          "internalType": "uint256",
          "name": "amount",
          "type": "uint256"
        }
      ],
      "name": "NGOStakeWithdrawn",
      "type": "event"
    },
    {
      "anonymous": false,
      "inputs": [
        {
          "indexed": false,
          "internalType": "uint256",
          "name": "taskId",
          "type": "uint256"
        },
        {
          "indexed": false,
          "internalType": "address",
          "name": "ngo",
          "type": "address"
        }
      ],
      "name": "TaskCreated",
      "type": "event"
    },
    {
      "anonymous": false,
      "inputs": [
        {
          "indexed": false,
          "internalType": "uint256",
          "name": "taskId",
          "type": "uint256"
        },
        {
          "indexed": false,
          "internalType": "string",
          "name": "status",
          "type": "string"
        }
      ],
      "name": "TaskResolved",
      "type": "event"
    },
    {
      "anonymous": false,
      "inputs": [
        {
          "indexed": false,
          "internalType": "uint256",
          "name": "taskId",
          "type": "uint256"
        },
        {
          "indexed": false,
          "internalType": "address",
          "name": "voter",
          "type": "address"
        },
        {
          "indexed": false,
          "internalType": "bool",
          "name": "vote",
          "type": "bool"
        }
      ],
      "name": "Voted",
      "type": "event"
    },
    {
      "anonymous": false,
      "inputs": [
        {
          "indexed": false,
          "internalType": "address",
          "name": "voter",
          "type": "address"
        },
        {
          "indexed": false,
          "internalType": "uint256",
          "name": "stakedEth",
          "type": "uint256"
        }
      ],
      "name": "VoterRegistered",
      "type": "event"
    },
    {
      "inputs": [
        {
          "internalType": "uint256",
          "name": "_taskId",
          "type": "uint256"
        }
      ],
      "name": "claimVoterReward",
      "outputs": [],
      "stateMutability": "nonpayable",
      "type": "function"
    },
    {
      "inputs": [
        {
          "internalType": "string[]",
          "name": "_proofLinks",
          "type": "string[]"
        }
      ],
      "name": "createTask",
      "outputs": [],
      "stateMutability": "nonpayable",
      "type": "function"
    },
    {
      "inputs": [
        {
          "internalType": "uint256",
          "name": "_taskId",
          "type": "uint256"
        }
      ],
      "name": "donate",
      "outputs": [],
      "stateMutability": "payable",
      "type": "function"
    },
    {
      "inputs": [],
      "name": "getAllNGOs",
      "outputs": [
        {
          "internalType": "address[]",
          "name": "",
          "type": "address[]"
        }
      ],
      "stateMutability": "view",
      "type": "function"
    },
    {
      "inputs": [],
      "name": "getAllTasks",
      "outputs": [
        {
          "internalType": "uint256[]",
          "name": "",
          "type": "uint256[]"
        }
      ],
      "stateMutability": "view",
      "type": "function"
    },
    {
      "inputs": [
        {
          "internalType": "uint256",
          "name": "_taskId",
          "type": "uint256"
        }
      ],
      "name": "getDonations",
      "outputs": [
        {
          "components": [
            {
              "internalType": "address",
              "name": "donor",
              "type": "address"
            },
            {
              "internalType": "uint256",
              "name": "amount",
              "type": "uint256"
            },
            {
              "internalType": "uint256",
              "name": "timestamp",
              "type": "uint256"
            }
          ],
          "internalType": "struct NGOFunding.Donation[]",
          "name": "",
          "type": "tuple[]"
        }
      ],
      "stateMutability": "view",
      "type": "function"
    },
    {
      "inputs": [
        {
          "internalType": "address",
          "name": "_ngo",
          "type": "address"
        }
      ],
      "name": "getNGODetails",
      "outputs": [
        {
          "internalType": "string",
          "name": "name",
          "type": "string"
        },
        {
          "internalType": "string",
          "name": "description",
          "type": "string"
        },
        {
          "internalType": "uint256",
          "name": "stakedEth",
          "type": "uint256"
        },
        {
          "internalType": "uint256[]",
          "name": "taskIds",
          "type": "uint256[]"
        }
      ],
      "stateMutability": "view",
      "type": "function"
    },
    {
      "inputs": [
        {
          "internalType": "address",
          "name": "_ngo",
          "type": "address"
        }
      ],
      "name": "getNGOTaskStatuses",
      "outputs": [
        {
          "internalType": "uint256[]",
          "name": "taskIds",
          "type": "uint256[]"
        },
        {
          "internalType": "string[]",
          "name": "statuses",
          "type": "string[]"
        }
      ],
      "stateMutability": "view",
      "type": "function"
    },
    {
      "inputs": [
        {
          "internalType": "address",
          "name": "_ngo",
          "type": "address"
        }
      ],
      "name": "getNGOTotalFunds",
      "outputs": [
        {
          "internalType": "uint256",
          "name": "totalFunds",
          "type": "uint256"
        }
      ],
      "stateMutability": "view",
      "type": "function"
    },
    {
      "inputs": [],
      "name": "getPendingTasks",
      "outputs": [
        {
          "internalType": "uint256[]",
          "name": "",
          "type": "uint256[]"
        }
      ],
      "stateMutability": "view",
      "type": "function"
    },
    {
      "inputs": [
        {
          "internalType": "uint256",
          "name": "_taskId",
          "type": "uint256"
        }
      ],
      "name": "getTaskDetails",
      "outputs": [
        {
          "internalType": "address",
          "name": "ngo",
          "type": "address"
        },
        {
          "internalType": "string[]",
          "name": "proofLinks",
          "type": "string[]"
        },
        {
          "internalType": "string",
          "name": "status",
          "type": "string"
        },
        {
          "internalType": "uint256",
          "name": "yesVotes",
          "type": "uint256"
        },
        {
          "internalType": "uint256",
          "name": "noVotes",
          "type": "uint256"
        },
        {
          "internalType": "uint256",
          "name": "totalFunds",
          "type": "uint256"
        },
        {
          "internalType": "uint256",
          "name": "startTime",
          "type": "uint256"
        },
        {
          "internalType": "uint256",
          "name": "voterCount",
          "type": "uint256"
        }
      ],
      "stateMutability": "view",
      "type": "function"
    },
    {
      "inputs": [
        {
          "internalType": "address",
          "name": "_voter",
          "type": "address"
        }
      ],
      "name": "getVoterDetails",
      "outputs": [
        {
          "internalType": "uint256",
          "name": "stakedEth",
          "type": "uint256"
        }
      ],
      "stateMutability": "view",
      "type": "function"
    },
    {
      "inputs": [
        {
          "internalType": "address",
          "name": "_voter",
          "type": "address"
        },
        {
          "internalType": "uint256",
          "name": "_taskId",
          "type": "uint256"
        }
      ],
      "name": "hasVoted",
      "outputs": [
        {
          "internalType": "bool",
          "name": "",
          "type": "bool"
        }
      ],
      "stateMutability": "view",
      "type": "function"
    },
    {
      "inputs": [
        {
          "internalType": "uint256",
          "name": "",
          "type": "uint256"
        }
      ],
      "name": "ngoList",
      "outputs": [
        {
          "internalType": "address",
          "name": "",
          "type": "address"
        }
      ],
      "stateMutability": "view",
      "type": "function"
    },
    {
      "inputs": [
        {
          "internalType": "address",
          "name": "",
          "type": "address"
        }
      ],
      "name": "ngos",
      "outputs": [
        {
          "internalType": "string",
          "name": "name",
          "type": "string"
        },
        {
          "internalType": "string",
          "name": "description",
          "type": "string"
        },
        {
          "internalType": "uint256",
          "name": "stakedEth",
          "type": "uint256"
        }
      ],
      "stateMutability": "view",
      "type": "function"
    },
    {
      "inputs": [],
      "name": "owner",
      "outputs": [
        {
          "internalType": "address",
          "name": "",
          "type": "address"
        }
      ],
      "stateMutability": "view",
      "type": "function"
    },
    {
      "inputs": [
        {
          "internalType": "string",
          "name": "_name",
          "type": "string"
        },
        {
          "internalType": "string",
          "name": "_description",
          "type": "string"
        }
      ],
      "name": "registerNGO",
      "outputs": [],
      "stateMutability": "payable",
      "type": "function"
    },
    {
      "inputs": [],
      "name": "registerVoter",
      "outputs": [],
      "stateMutability": "payable",
      "type": "function"
    },
    {
      "inputs": [
        {
          "internalType": "uint256",
          "name": "_taskId",
          "type": "uint256"
        }
      ],
      "name": "resolveTask",
      "outputs": [],
      "stateMutability": "nonpayable",
      "type": "function"
    },
    {
      "inputs": [],
      "name": "taskCounter",
      "outputs": [
        {
          "internalType": "uint256",
          "name": "",
          "type": "uint256"
        }
      ],
      "stateMutability": "view",
      "type": "function"
    },
    {
      "inputs": [
        {
          "internalType": "uint256",
          "name": "",
          "type": "uint256"
        },
        {
          "internalType": "uint256",
          "name": "",
          "type": "uint256"
        }
      ],
      "name": "taskDonations",
      "outputs": [
        {
          "internalType": "address",
          "name": "donor",
          "type": "address"
        },
        {
          "internalType": "uint256",
          "name": "amount",
          "type": "uint256"
        },
        {
          "internalType": "uint256",
          "name": "timestamp",
          "type": "uint256"
        }
      ],
      "stateMutability": "view",
      "type": "function"
    },
    {
      "inputs": [
        {
          "internalType": "uint256",
          "name": "",
          "type": "uint256"
        }
      ],
      "name": "tasks",
      "outputs": [
        {
          "internalType": "address",
          "name": "ngo",
          "type": "address"
        },
        {
          "internalType": "string",
          "name": "status",
          "type": "string"
        },
        {
          "internalType": "uint256",
          "name": "yesVotes",
          "type": "uint256"
        },
        {
          "internalType": "uint256",
          "name": "noVotes",
          "type": "uint256"
        },
        {
          "internalType": "uint256",
          "name": "totalFunds",
          "type": "uint256"
        },
        {
          "internalType": "uint256",
          "name": "startTime",
          "type": "uint256"
        },
        {
          "internalType": "uint256",
          "name": "voterCount",
          "type": "uint256"
        }
      ],
      "stateMutability": "view",
      "type": "function"
    },
    {
      "inputs": [
        {
          "internalType": "uint256",
          "name": "_taskId",
          "type": "uint256"
        },
        {
          "internalType": "bool",
          "name": "_approve",
          "type": "bool"
        }
      ],
      "name": "vote",
      "outputs": [],
      "stateMutability": "nonpayable",
      "type": "function"
    },
    {
      "inputs": [
        {
          "internalType": "address",
          "name": "",
          "type": "address"
        }
      ],
      "name": "voters",
      "outputs": [
        {
          "internalType": "uint256",
          "name": "stakedEth",
          "type": "uint256"
        }
      ],
      "stateMutability": "view",
      "type": "function"
    },
    {
      "inputs": [],
      "name": "withdrawNgoStake",
      "outputs": [],
      "stateMutability": "nonpayable",
      "type": "function"
    },
    {
      "inputs": [],
      "name": "withdrawVoterStake",
      "outputs": [],
      "stateMutability": "nonpayable",
      "type": "function"
    }
  ],
  "transactionHash": "0xe79af30e5e5cca6058aa8cabce1fb49c621c9d884653cb828e73021120f9832d",
  "args": [],
  "numDeployments": 2,
  "solcInputHash": "dd94d448335669fa861711d37d9c5294",
  "bytecode": "0x6080604052348015600f57600080fd5b50336000806101000a81548173ffffffffffffffffffffffffffffffffffffffff021916908373ffffffffffffffffffffffffffffffffffffffff160217905550614e278061005f6000396000f3fe6080604052600436106101815760003560e01c80638da5cb5b116100d1578063c35b90301161008a578063dffb0ece11610064578063dffb0ece146105e6578063e6f7d11e146105fd578063ecb617d91461063c578063f14faf6f1461064657610181565b8063c35b903014610569578063c893b82f14610594578063c9d27afe146105bd57610181565b80638da5cb5b146104335780639255cb3b1461045e578063967f89821461049b578063987bdee4146104d8578063a3ec138d146104ef578063ba71bef01461052c57610181565b8063596d9ce21161013e578063779900b411610118578063779900b41461035c5780637abe26b41461038757806387b5a2dd146103c55780638d977672146103f057610181565b8063596d9ce2146102b6578063734d78c5146102f3578063771f84fe1461033357610181565b80633888b9d5146101865780633df78c91146101ca5780634191f486146102095780634254582514610225578063456d908e14610262578063586717301461028b575b600080fd5b34801561019257600080fd5b506101ad60048036038101906101a8919061329e565b610662565b6040516101c19897969594939291906134b7565b60405180910390f35b3480156101d657600080fd5b506101f160048036038101906101ec9190613543565b6108d9565b60405161020093929190613583565b60405180910390f35b610223600480360381019061021e91906136ef565b610940565b005b34801561023157600080fd5b5061024c60048036038101906102479190613793565b610ba7565b60405161025991906137ee565b60405180910390f35b34801561026e57600080fd5b506102896004803603810190610284919061329e565b610c12565b005b34801561029757600080fd5b506102a0611201565b6040516102ad9190613809565b60405180910390f35b3480156102c257600080fd5b506102dd60048036038101906102d8919061329e565b611207565b6040516102ea9190613933565b60405180910390f35b3480156102ff57600080fd5b5061031a60048036038101906103159190613955565b6112e3565b60405161032a9493929190613a31565b60405180910390f35b34801561033f57600080fd5b5061035a60048036038101906103559190613b71565b6114ff565b005b34801561036857600080fd5b5061037161170b565b60405161037e9190613bba565b60405180910390f35b34801561039357600080fd5b506103ae60048036038101906103a99190613955565b6117b3565b6040516103bc929190613bdc565b60405180910390f35b3480156103d157600080fd5b506103da6119dd565b6040516103e79190613cc2565b60405180910390f35b3480156103fc57600080fd5b506104176004803603810190610412919061329e565b611a6b565b60405161042a9796959493929190613ce4565b60405180910390f35b34801561043f57600080fd5b50610448611b55565b6040516104559190613d5a565b60405180910390f35b34801561046a57600080fd5b5061048560048036038101906104809190613955565b611b79565b6040516104929190613809565b60405180910390f35b3480156104a757600080fd5b506104c260048036038101906104bd919061329e565b611d00565b6040516104cf9190613d5a565b60405180910390f35b3480156104e457600080fd5b506104ed611d3f565b005b3480156104fb57600080fd5b5061051660048036038101906105119190613955565b612011565b6040516105239190613809565b60405180910390f35b34801561053857600080fd5b50610553600480360381019061054e9190613955565b61202f565b6040516105609190613809565b60405180910390f35b34801561057557600080fd5b5061057e61207b565b60405161058b9190613bba565b60405180910390f35b3480156105a057600080fd5b506105bb60048036038101906105b6919061329e565b612297565b005b3480156105c957600080fd5b506105e460048036038101906105df9190613da1565b61257b565b005b3480156105f257600080fd5b506105fb6129fc565b005b34801561060957600080fd5b50610624600480360381019061061f9190613955565b612bc0565b60405161063393929190613de1565b60405180910390f35b610644612cfa565b005b610660600480360381019061065b919061329e565b612e44565b005b6000606080600080600080600080600360008b81526020019081526020016000209050600073ffffffffffffffffffffffffffffffffffffffff168160000160009054906101000a900473ffffffffffffffffffffffffffffffffffffffff1673ffffffffffffffffffffffffffffffffffffffff1603610718576040517f08c379a000000000000000000000000000000000000000000000000000000000815260040161070f90613e72565b60405180910390fd5b8060000160009054906101000a900473ffffffffffffffffffffffffffffffffffffffff1681600101826002018360030154846004015485600501548660060154876008015486805480602002602001604051908101604052809291908181526020016000905b8282101561082b57838290600052602060002001805461079e90613ec1565b80601f01602080910402602001604051908101604052809291908181526020018280546107ca90613ec1565b80156108175780601f106107ec57610100808354040283529160200191610817565b820191906000526020600020905b8154815290600101906020018083116107fa57829003601f168201915b50505050508152602001906001019061077f565b50505050965085805461083d90613ec1565b80601f016020809104026020016040519081016040528092919081815260200182805461086990613ec1565b80156108b65780601f1061088b576101008083540402835291602001916108b6565b820191906000526020600020905b81548152906001019060200180831161089957829003601f168201915b505050505095509850985098509850985098509850985050919395975091939597565b600460205281600052604060002081815481106108f557600080fd5b9060005260206000209060030201600091509150508060000160009054906101000a900473ffffffffffffffffffffffffffffffffffffffff16908060010154908060020154905083565b60003411610983576040517f08c379a000000000000000000000000000000000000000000000000000000000815260040161097a90613f3e565b60405180910390fd5b6000600160003373ffffffffffffffffffffffffffffffffffffffff1673ffffffffffffffffffffffffffffffffffffffff1681526020019081526020016000206002015414610a08576040517f08c379a00000000000000000000000000000000000000000000000000000000081526004016109ff90613faa565b60405180910390fd5b6040518060800160405280838152602001828152602001348152602001600067ffffffffffffffff811115610a4057610a3f6135c4565b5b604051908082528060200260200182016040528015610a6e5781602001602082028036833780820191505090505b50815250600160003373ffffffffffffffffffffffffffffffffffffffff1673ffffffffffffffffffffffffffffffffffffffff1681526020019081526020016000206000820151816000019081610ac69190614176565b506020820151816001019081610adc9190614176565b50604082015181600201556060820151816003019080519060200190610b0392919061312d565b509050506006339080600181540180825580915050600190039060005260206000200160009091909190916101000a81548173ffffffffffffffffffffffffffffffffffffffff021916908373ffffffffffffffffffffffffffffffffffffffff1602179055507f0386741c0345c35e0430ddfe5fee0c0afbfad9de0f6c1f1ece8021927c2f73203383604051610b9b929190614248565b60405180910390a15050565b6000600260008473ffffffffffffffffffffffffffffffffffffffff1673ffffffffffffffffffffffffffffffffffffffff168152602001908152602001600020600101600083815260200190815260200160002060009054906101000a900460ff16905092915050565b6000600360008381526020019081526020016000209050600073ffffffffffffffffffffffffffffffffffffffff168160000160009054906101000a900473ffffffffffffffffffffffffffffffffffffffff1673ffffffffffffffffffffffffffffffffffffffff1603610cbc576040517f08c379a0000000000000000000000000000000000000000000000000000000008152600401610cb390613e72565b60405180910390fd5b6040518060400160405280600781526020017f70656e64696e67000000000000000000000000000000000000000000000000008152508051906020012081600201604051610d0a919061431b565b604051809103902014610d52576040517f08c379a0000000000000000000000000000000000000000000000000000000008152600401610d499061437e565b60405180910390fd5b62093a808160060154610d6591906143cd565b4211610da6576040517f08c379a0000000000000000000000000000000000000000000000000000000008152600401610d9d9061444d565b60405180910390fd5b600080826008015411610dba576000610dd8565b606460058360050154610dcd919061446d565b610dd791906144de565b5b90506000818360050154610dec919061450f565b9050600083600401548460030154610e0491906143cd565b9050600081118015610e32575060328160648660030154610e25919061446d565b610e2f91906144de565b10155b15610f54576040518060400160405280600881526020017f617070726f766564000000000000000000000000000000000000000000000000815250846002019081610e7d9190614176565b5060008460000160009054906101000a900473ffffffffffffffffffffffffffffffffffffffff1673ffffffffffffffffffffffffffffffffffffffff1683604051610ec890614569565b60006040518083038185875af1925050503d8060008114610f05576040519150601f19603f3d011682016040523d82523d6000602084013e610f0a565b606091505b5050905080610f4e576040517f08c379a0000000000000000000000000000000000000000000000000000000008152600401610f45906145ca565b60405180910390fd5b506111be565b6040518060400160405280600881526020017f72656a6563746564000000000000000000000000000000000000000000000000815250846002019081610f9a9190614176565b506000805b600460008881526020019081526020016000208054905081101561100e57600460008881526020019081526020016000208181548110610fe257610fe16145ea565b5b90600052602060002090600302016001015482610fff91906143cd565b91508080600101915050610f9f565b5060005b60046000888152602001908152602001600020805490508110156111bb576000600460008981526020019081526020016000208281548110611057576110566145ea565b5b90600052602060002090600302016040518060600160405290816000820160009054906101000a900473ffffffffffffffffffffffffffffffffffffffff1673ffffffffffffffffffffffffffffffffffffffff1673ffffffffffffffffffffffffffffffffffffffff1681526020016001820154815260200160028201548152505090506000838683602001516110ef919061446d565b6110f991906144de565b90506000826000015173ffffffffffffffffffffffffffffffffffffffff168260405161112590614569565b60006040518083038185875af1925050503d8060008114611162576040519150601f19603f3d011682016040523d82523d6000602084013e611167565b606091505b50509050806111ab576040517f08c379a00000000000000000000000000000000000000000000000000000000081526004016111a290614665565b60405180910390fd5b5050508080600101915050611012565b50505b7f622e8aea88c24b5860ee5c8b8fbf8e18b632e7a412ed546c499ded2088e187ad85856002016040516111f2929190614709565b60405180910390a15050505050565b60055481565b606060046000838152602001908152602001600020805480602002602001604051908101604052809291908181526020016000905b828210156112d857838290600052602060002090600302016040518060600160405290816000820160009054906101000a900473ffffffffffffffffffffffffffffffffffffffff1673ffffffffffffffffffffffffffffffffffffffff1673ffffffffffffffffffffffffffffffffffffffff168152602001600182015481526020016002820154815250508152602001906001019061123c565b505050509050919050565b606080600060606000600160008773ffffffffffffffffffffffffffffffffffffffff1673ffffffffffffffffffffffffffffffffffffffff16815260200190815260200160002090506000816002015411611374576040517f08c379a000000000000000000000000000000000000000000000000000000000815260040161136b90614785565b60405180910390fd5b806000018160010182600201548360030183805461139190613ec1565b80601f01602080910402602001604051908101604052809291908181526020018280546113bd90613ec1565b801561140a5780601f106113df5761010080835404028352916020019161140a565b820191906000526020600020905b8154815290600101906020018083116113ed57829003601f168201915b5050505050935082805461141d90613ec1565b80601f016020809104026020016040519081016040528092919081815260200182805461144990613ec1565b80156114965780601f1061146b57610100808354040283529160200191611496565b820191906000526020600020905b81548152906001019060200180831161147957829003601f168201915b50505050509250808054806020026020016040519081016040528092919081815260200182805480156114e857602002820191906000526020600020905b8154815260200190600101908083116114d4575b505050505090509450945094509450509193509193565b6000600160003373ffffffffffffffffffffffffffffffffffffffff1673ffffffffffffffffffffffffffffffffffffffff1681526020019081526020016000206002015411611584576040517f08c379a000000000000000000000000000000000000000000000000000000000815260040161157b90614785565b60405180910390fd5b60056000815480929190611597906147a5565b919050555060006003600060055481526020019081526020016000209050338160000160006101000a81548173ffffffffffffffffffffffffffffffffffffffff021916908373ffffffffffffffffffffffffffffffffffffffff1602179055508181600101908051906020019061161092919061317a565b506040518060400160405280600781526020017f70656e64696e67000000000000000000000000000000000000000000000000008152508160020190816116579190614176565b50428160060181905550600160003373ffffffffffffffffffffffffffffffffffffffff1673ffffffffffffffffffffffffffffffffffffffff16815260200190815260200160002060030160055490806001815401808255809150506001900390600052602060002001600090919091909150557fe9ee39160568153d230ca0e29961267415d513defbb7d3b21af0fe940e1ebd15600554336040516116ff9291906147ed565b60405180910390a15050565b6060600060055467ffffffffffffffff81111561172b5761172a6135c4565b5b6040519080825280602002602001820160405280156117595781602001602082028036833780820191505090505b5090506000600190505b60055481116117ab57808260018361177b919061450f565b8151811061178c5761178b6145ea565b5b60200260200101818152505080806117a3906147a5565b915050611763565b508091505090565b6060806000600160008573ffffffffffffffffffffffffffffffffffffffff1673ffffffffffffffffffffffffffffffffffffffff16815260200190815260200160002090506000816002015411611840576040517f08c379a000000000000000000000000000000000000000000000000000000000815260040161183790614785565b60405180910390fd5b8060030180548060200260200160405190810160405280929190818152602001828054801561188e57602002820191906000526020600020905b81548152602001906001019080831161187a575b50505050509250825167ffffffffffffffff8111156118b0576118af6135c4565b5b6040519080825280602002602001820160405280156118e357816020015b60608152602001906001900390816118ce5790505b50915060005b83518110156119d65760036000858381518110611909576119086145ea565b5b60200260200101518152602001908152602001600020600201805461192d90613ec1565b80601f016020809104026020016040519081016040528092919081815260200182805461195990613ec1565b80156119a65780601f1061197b576101008083540402835291602001916119a6565b820191906000526020600020905b81548152906001019060200180831161198957829003601f168201915b50505050508382815181106119be576119bd6145ea565b5b602002602001018190525080806001019150506118e9565b5050915091565b60606006805480602002602001604051908101604052809291908181526020018280548015611a6157602002820191906000526020600020905b8160009054906101000a900473ffffffffffffffffffffffffffffffffffffffff1673ffffffffffffffffffffffffffffffffffffffff1681526020019060010190808311611a17575b5050505050905090565b60036020528060005260406000206000915090508060000160009054906101000a900473ffffffffffffffffffffffffffffffffffffffff1690806002018054611ab490613ec1565b80601f0160208091040260200160405190810160405280929190818152602001828054611ae090613ec1565b8015611b2d5780601f10611b0257610100808354040283529160200191611b2d565b820191906000526020600020905b815481529060010190602001808311611b1057829003601f168201915b5050505050908060030154908060040154908060050154908060060154908060080154905087565b60008054906101000a900473ffffffffffffffffffffffffffffffffffffffff1681565b600080600160008473ffffffffffffffffffffffffffffffffffffffff1673ffffffffffffffffffffffffffffffffffffffff16815260200190815260200160002090506000816002015411611c04576040517f08c379a0000000000000000000000000000000000000000000000000000000008152600401611bfb90614785565b60405180910390fd5b6000915060005b8160030180549050811015611cf9576040518060400160405280600881526020017f617070726f7665640000000000000000000000000000000000000000000000008152508051906020012060036000846003018481548110611c7157611c706145ea565b5b90600052602060002001548152602001908152602001600020600201604051611c9a919061431b565b604051809103902003611cec5760036000836003018381548110611cc157611cc06145ea565b5b906000526020600020015481526020019081526020016000206005015483611ce991906143cd565b92505b8080600101915050611c0b565b5050919050565b60068181548110611d1057600080fd5b906000526020600020016000915054906101000a900473ffffffffffffffffffffffffffffffffffffffff1681565b6000600160003373ffffffffffffffffffffffffffffffffffffffff1673ffffffffffffffffffffffffffffffffffffffff1681526020019081526020016000206002015411611dc4576040517f08c379a0000000000000000000000000000000000000000000000000000000008152600401611dbb90614862565b60405180910390fd5b6000600160003373ffffffffffffffffffffffffffffffffffffffff1673ffffffffffffffffffffffffffffffffffffffff168152602001908152602001600020905060005b8160030180549050811015611f1357600060036000846003018481548110611e3557611e346145ea565b5b9060005260206000200154815260200190815260200160002090506040518060400160405280600781526020017f70656e64696e67000000000000000000000000000000000000000000000000008152508051906020012081600201604051611e9e919061431b565b6040518091039020148015611ec5575062093a808160060154611ec191906143cd565b4211155b15611f05576040517f08c379a0000000000000000000000000000000000000000000000000000000008152600401611efc906148f4565b60405180910390fd5b508080600101915050611e0a565b506000816002015490506000826002018190555060003373ffffffffffffffffffffffffffffffffffffffff1682604051611f4d90614569565b60006040518083038185875af1925050503d8060008114611f8a576040519150601f19603f3d011682016040523d82523d6000602084013e611f8f565b606091505b5050905080611fd3576040517f08c379a0000000000000000000000000000000000000000000000000000000008152600401611fca90614960565b60405180910390fd5b7f45e86ef28678bb11eb3a2909bef25215399cdebb7c34dacb2179034cf6e2c9053383604051612004929190614980565b60405180910390a1505050565b60026020528060005260406000206000915090508060000154905081565b6000600260008373ffffffffffffffffffffffffffffffffffffffff1673ffffffffffffffffffffffffffffffffffffffff168152602001908152602001600020600001549050919050565b6060600080600190505b600554811161214e576040518060400160405280600781526020017f70656e64696e670000000000000000000000000000000000000000000000000081525080519060200120600360008381526020019081526020016000206002016040516120ee919061431b565b6040518091039020148015612127575062093a80600360008381526020019081526020016000206006015461212391906143cd565b4211155b1561213b578180612137906147a5565b9250505b8080612146906147a5565b915050612085565b5060008167ffffffffffffffff81111561216b5761216a6135c4565b5b6040519080825280602002602001820160405280156121995781602001602082028036833780820191505090505b509050600080600190505b600554811161228d576040518060400160405280600781526020017f70656e64696e6700000000000000000000000000000000000000000000000000815250805190602001206003600083815260200190815260200160002060020160405161220d919061431b565b6040518091039020148015612246575062093a80600360008381526020019081526020016000206006015461224291906143cd565b4211155b1561227a578083838151811061225f5761225e6145ea565b5b6020026020010181815250508180612276906147a5565b9250505b8080612285906147a5565b9150506121a4565b5081935050505090565b6003600082815260200190815260200160002060070160003373ffffffffffffffffffffffffffffffffffffffff1673ffffffffffffffffffffffffffffffffffffffff16815260200190815260200160002060009054906101000a900460ff16612337576040517f08c379a000000000000000000000000000000000000000000000000000000000815260040161232e906149f5565b60405180910390fd5b6040518060400160405280600781526020017f70656e64696e67000000000000000000000000000000000000000000000000008152508051906020012060036000838152602001908152602001600020600201604051612397919061431b565b6040518091039020036123df576040517f08c379a00000000000000000000000000000000000000000000000000000000081526004016123d690614a61565b60405180910390fd5b6000606460056003600085815260200190815260200160002060050154612406919061446d565b61241091906144de565b905060008060036000858152602001908152602001600020600801541161243857600061245b565b60036000848152602001908152602001600020600801548261245a91906144de565b5b905060003373ffffffffffffffffffffffffffffffffffffffff168260405161248390614569565b60006040518083038185875af1925050503d80600081146124c0576040519150601f19603f3d011682016040523d82523d6000602084013e6124c5565b606091505b5050905080612509576040517f08c379a000000000000000000000000000000000000000000000000000000000815260040161250090614acd565b60405180910390fd5b60006003600086815260200190815260200160002060070160003373ffffffffffffffffffffffffffffffffffffffff1673ffffffffffffffffffffffffffffffffffffffff16815260200190815260200160002060006101000a81548160ff02191690831515021790555050505050565b6000600260003373ffffffffffffffffffffffffffffffffffffffff1673ffffffffffffffffffffffffffffffffffffffff1681526020019081526020016000206000015411612600576040517f08c379a00000000000000000000000000000000000000000000000000000000081526004016125f790614b39565b60405180910390fd5b600073ffffffffffffffffffffffffffffffffffffffff166003600084815260200190815260200160002060000160009054906101000a900473ffffffffffffffffffffffffffffffffffffffff1673ffffffffffffffffffffffffffffffffffffffff16036126a5576040517f08c379a000000000000000000000000000000000000000000000000000000000815260040161269c90613e72565b60405180910390fd5b600260003373ffffffffffffffffffffffffffffffffffffffff1673ffffffffffffffffffffffffffffffffffffffff168152602001908152602001600020600101600083815260200190815260200160002060009054906101000a900460ff1615612746576040517f08c379a000000000000000000000000000000000000000000000000000000000815260040161273d90614ba5565b60405180910390fd5b6040518060400160405280600781526020017f70656e64696e670000000000000000000000000000000000000000000000000081525080519060200120600360008481526020019081526020016000206002016040516127a6919061431b565b6040518091039020146127ee576040517f08c379a00000000000000000000000000000000000000000000000000000000081526004016127e590614c11565b60405180910390fd5b62093a80600360008481526020019081526020016000206006015461281391906143cd565b421115612855576040517f08c379a000000000000000000000000000000000000000000000000000000000815260040161284c90614c7d565b60405180910390fd5b6001600260003373ffffffffffffffffffffffffffffffffffffffff1673ffffffffffffffffffffffffffffffffffffffff168152602001908152602001600020600101600084815260200190815260200160002060006101000a81548160ff02191690831515021790555060016003600084815260200190815260200160002060070160003373ffffffffffffffffffffffffffffffffffffffff1673ffffffffffffffffffffffffffffffffffffffff16815260200190815260200160002060006101000a81548160ff021916908315150217905550600360008381526020019081526020016000206008016000815480929190612954906147a5565b9190505550801561299057600360008381526020019081526020016000206003016000815480929190612986906147a5565b91905055506129bd565b6003600083815260200190815260200160002060040160008154809291906129b7906147a5565b91905055505b7ff2913dbe661ee2acc4a046d8fbcdc792373bda34c41c6086484b5345e5785e5f8233836040516129f093929190614c9d565b60405180910390a15050565b6000600260003373ffffffffffffffffffffffffffffffffffffffff1673ffffffffffffffffffffffffffffffffffffffff1681526020019081526020016000206000015411612a81576040517f08c379a0000000000000000000000000000000000000000000000000000000008152600401612a7890614b39565b60405180910390fd5b6000600260003373ffffffffffffffffffffffffffffffffffffffff1673ffffffffffffffffffffffffffffffffffffffff1681526020019081526020016000206000015490506000600260003373ffffffffffffffffffffffffffffffffffffffff1673ffffffffffffffffffffffffffffffffffffffff1681526020019081526020016000206000018190555060003373ffffffffffffffffffffffffffffffffffffffff1682604051612b3690614569565b60006040518083038185875af1925050503d8060008114612b73576040519150601f19603f3d011682016040523d82523d6000602084013e612b78565b606091505b5050905080612bbc576040517f08c379a0000000000000000000000000000000000000000000000000000000008152600401612bb390614960565b60405180910390fd5b5050565b6001602052806000526040600020600091509050806000018054612be390613ec1565b80601f0160208091040260200160405190810160405280929190818152602001828054612c0f90613ec1565b8015612c5c5780601f10612c3157610100808354040283529160200191612c5c565b820191906000526020600020905b815481529060010190602001808311612c3f57829003601f168201915b505050505090806001018054612c7190613ec1565b80601f0160208091040260200160405190810160405280929190818152602001828054612c9d90613ec1565b8015612cea5780601f10612cbf57610100808354040283529160200191612cea565b820191906000526020600020905b815481529060010190602001808311612ccd57829003601f168201915b5050505050908060020154905083565b60003411612d3d576040517f08c379a0000000000000000000000000000000000000000000000000000000008152600401612d3490613f3e565b60405180910390fd5b6000600260003373ffffffffffffffffffffffffffffffffffffffff1673ffffffffffffffffffffffffffffffffffffffff1681526020019081526020016000206000015414612dc2576040517f08c379a0000000000000000000000000000000000000000000000000000000008152600401612db990614d20565b60405180910390fd5b34600260003373ffffffffffffffffffffffffffffffffffffffff1673ffffffffffffffffffffffffffffffffffffffff168152602001908152602001600020600001819055507ff16ce2c2236e2c6e3df646f80d657bceef4cd7f3a240c47e82adfa17a5f472413334604051612e3a929190614980565b60405180910390a1565b600073ffffffffffffffffffffffffffffffffffffffff166003600083815260200190815260200160002060000160009054906101000a900473ffffffffffffffffffffffffffffffffffffffff1673ffffffffffffffffffffffffffffffffffffffff1603612ee9576040517f08c379a0000000000000000000000000000000000000000000000000000000008152600401612ee090613e72565b60405180910390fd5b60003411612f2c576040517f08c379a0000000000000000000000000000000000000000000000000000000008152600401612f2390614d8c565b60405180910390fd5b6040518060400160405280600781526020017f70656e64696e67000000000000000000000000000000000000000000000000008152508051906020012060036000838152602001908152602001600020600201604051612f8c919061431b565b604051809103902014612fd4576040517f08c379a0000000000000000000000000000000000000000000000000000000008152600401612fcb90614c11565b60405180910390fd5b34600360008381526020019081526020016000206005016000828254612ffa91906143cd565b925050819055506004600082815260200190815260200160002060405180606001604052803373ffffffffffffffffffffffffffffffffffffffff16815260200134815260200142815250908060018154018082558091505060019003906000526020600020906003020160009091909190915060008201518160000160006101000a81548173ffffffffffffffffffffffffffffffffffffffff021916908373ffffffffffffffffffffffffffffffffffffffff160217905550602082015181600101556040820151816002015550507f27e413b8931dc4cb7edc879292ebc482a3047336d03423ea91addae7a2cf850a81333460016004600087815260200190815260200160002080549050613112919061450f565b6040516131229493929190614dac565b60405180910390a150565b828054828255906000526020600020908101928215613169579160200282015b8281111561316857825182559160200191906001019061314d565b5b50905061317691906131d3565b5090565b8280548282559060005260206000209081019282156131c2579160200282015b828111156131c15782518290816131b19190614176565b509160200191906001019061319a565b5b5090506131cf91906131f0565b5090565b5b808211156131ec5760008160009055506001016131d4565b5090565b5b8082111561321057600081816132079190613214565b506001016131f1565b5090565b50805461322090613ec1565b6000825580601f106132325750613251565b601f01602090049060005260206000209081019061325091906131d3565b5b50565b6000604051905090565b600080fd5b600080fd5b6000819050919050565b61327b81613268565b811461328657600080fd5b50565b60008135905061329881613272565b92915050565b6000602082840312156132b4576132b361325e565b5b60006132c284828501613289565b91505092915050565b600073ffffffffffffffffffffffffffffffffffffffff82169050919050565b60006132f6826132cb565b9050919050565b613306816132eb565b82525050565b600081519050919050565b600082825260208201905092915050565b6000819050602082019050919050565b600081519050919050565b600082825260208201905092915050565b60005b83811015613372578082015181840152602081019050613357565b60008484015250505050565b6000601f19601f8301169050919050565b600061339a82613338565b6133a48185613343565b93506133b4818560208601613354565b6133bd8161337e565b840191505092915050565b60006133d4838361338f565b905092915050565b6000602082019050919050565b60006133f48261330c565b6133fe8185613317565b93508360208202850161341085613328565b8060005b8581101561344c578484038952815161342d85826133c8565b9450613438836133dc565b925060208a01995050600181019050613414565b50829750879550505050505092915050565b600082825260208201905092915050565b600061347a82613338565b613484818561345e565b9350613494818560208601613354565b61349d8161337e565b840191505092915050565b6134b181613268565b82525050565b6000610100820190506134cd600083018b6132fd565b81810360208301526134df818a6133e9565b905081810360408301526134f3818961346f565b905061350260608301886134a8565b61350f60808301876134a8565b61351c60a08301866134a8565b61352960c08301856134a8565b61353660e08301846134a8565b9998505050505050505050565b6000806040838503121561355a5761355961325e565b5b600061356885828601613289565b925050602061357985828601613289565b9150509250929050565b600060608201905061359860008301866132fd565b6135a560208301856134a8565b6135b260408301846134a8565b949350505050565b600080fd5b600080fd5b7f4e487b7100000000000000000000000000000000000000000000000000000000600052604160045260246000fd5b6135fc8261337e565b810181811067ffffffffffffffff8211171561361b5761361a6135c4565b5b80604052505050565b600061362e613254565b905061363a82826135f3565b919050565b600067ffffffffffffffff82111561365a576136596135c4565b5b6136638261337e565b9050602081019050919050565b82818337600083830152505050565b600061369261368d8461363f565b613624565b9050828152602081018484840111156136ae576136ad6135bf565b5b6136b9848285613670565b509392505050565b600082601f8301126136d6576136d56135ba565b5b81356136e684826020860161367f565b91505092915050565b600080604083850312156137065761370561325e565b5b600083013567ffffffffffffffff81111561372457613723613263565b5b613730858286016136c1565b925050602083013567ffffffffffffffff81111561375157613750613263565b5b61375d858286016136c1565b9150509250929050565b613770816132eb565b811461377b57600080fd5b50565b60008135905061378d81613767565b92915050565b600080604083850312156137aa576137a961325e565b5b60006137b88582860161377e565b92505060206137c985828601613289565b9150509250929050565b60008115159050919050565b6137e8816137d3565b82525050565b600060208201905061380360008301846137df565b92915050565b600060208201905061381e60008301846134a8565b92915050565b600081519050919050565b600082825260208201905092915050565b6000819050602082019050919050565b613859816132eb565b82525050565b61386881613268565b82525050565b6060820160008201516138846000850182613850565b506020820151613897602085018261385f565b5060408201516138aa604085018261385f565b50505050565b60006138bc838361386e565b60608301905092915050565b6000602082019050919050565b60006138e082613824565b6138ea818561382f565b93506138f583613840565b8060005b8381101561392657815161390d88826138b0565b9750613918836138c8565b9250506001810190506138f9565b5085935050505092915050565b6000602082019050818103600083015261394d81846138d5565b905092915050565b60006020828403121561396b5761396a61325e565b5b60006139798482850161377e565b91505092915050565b600081519050919050565b600082825260208201905092915050565b6000819050602082019050919050565b60006139ba838361385f565b60208301905092915050565b6000602082019050919050565b60006139de82613982565b6139e8818561398d565b93506139f38361399e565b8060005b83811015613a24578151613a0b88826139ae565b9750613a16836139c6565b9250506001810190506139f7565b5085935050505092915050565b60006080820190508181036000830152613a4b818761346f565b90508181036020830152613a5f818661346f565b9050613a6e60408301856134a8565b8181036060830152613a8081846139d3565b905095945050505050565b600067ffffffffffffffff821115613aa657613aa56135c4565b5b602082029050602081019050919050565b600080fd5b6000613acf613aca84613a8b565b613624565b90508083825260208201905060208402830185811115613af257613af1613ab7565b5b835b81811015613b3957803567ffffffffffffffff811115613b1757613b166135ba565b5b808601613b2489826136c1565b85526020850194505050602081019050613af4565b5050509392505050565b600082601f830112613b5857613b576135ba565b5b8135613b68848260208601613abc565b91505092915050565b600060208284031215613b8757613b8661325e565b5b600082013567ffffffffffffffff811115613ba557613ba4613263565b5b613bb184828501613b43565b91505092915050565b60006020820190508181036000830152613bd481846139d3565b905092915050565b60006040820190508181036000830152613bf681856139d3565b90508181036020830152613c0a81846133e9565b90509392505050565b600081519050919050565b600082825260208201905092915050565b6000819050602082019050919050565b6000613c4b8383613850565b60208301905092915050565b6000602082019050919050565b6000613c6f82613c13565b613c798185613c1e565b9350613c8483613c2f565b8060005b83811015613cb5578151613c9c8882613c3f565b9750613ca783613c57565b925050600181019050613c88565b5085935050505092915050565b60006020820190508181036000830152613cdc8184613c64565b905092915050565b600060e082019050613cf9600083018a6132fd565b8181036020830152613d0b818961346f565b9050613d1a60408301886134a8565b613d2760608301876134a8565b613d3460808301866134a8565b613d4160a08301856134a8565b613d4e60c08301846134a8565b98975050505050505050565b6000602082019050613d6f60008301846132fd565b92915050565b613d7e816137d3565b8114613d8957600080fd5b50565b600081359050613d9b81613d75565b92915050565b60008060408385031215613db857613db761325e565b5b6000613dc685828601613289565b9250506020613dd785828601613d8c565b9150509250929050565b60006060820190508181036000830152613dfb818661346f565b90508181036020830152613e0f818561346f565b9050613e1e60408301846134a8565b949350505050565b7f5461736b20646f6573206e6f7420657869737400000000000000000000000000600082015250565b6000613e5c60138361345e565b9150613e6782613e26565b602082019050919050565b60006020820190508181036000830152613e8b81613e4f565b9050919050565b7f4e487b7100000000000000000000000000000000000000000000000000000000600052602260045260246000fd5b60006002820490506001821680613ed957607f821691505b602082108103613eec57613eeb613e92565b5b50919050565b7f4d757374207374616b6520455448000000000000000000000000000000000000600082015250565b6000613f28600e8361345e565b9150613f3382613ef2565b602082019050919050565b60006020820190508181036000830152613f5781613f1b565b9050919050565b7f4e474f20616c7265616479207265676973746572656400000000000000000000600082015250565b6000613f9460168361345e565b9150613f9f82613f5e565b602082019050919050565b60006020820190508181036000830152613fc381613f87565b9050919050565b60008190508160005260206000209050919050565b60006020601f8301049050919050565b600082821b905092915050565b60006008830261402c7fffffffffffffffffffffffffffffffffffffffffffffffffffffffffffffffff82613fef565b6140368683613fef565b95508019841693508086168417925050509392505050565b6000819050919050565b600061407361406e61406984613268565b61404e565b613268565b9050919050565b6000819050919050565b61408d83614058565b6140a16140998261407a565b848454613ffc565b825550505050565b600090565b6140b66140a9565b6140c1818484614084565b505050565b5b818110156140e5576140da6000826140ae565b6001810190506140c7565b5050565b601f82111561412a576140fb81613fca565b61410484613fdf565b81016020851015614113578190505b61412761411f85613fdf565b8301826140c6565b50505b505050565b600082821c905092915050565b600061414d6000198460080261412f565b1980831691505092915050565b6000614166838361413c565b9150826002028217905092915050565b61417f82613338565b67ffffffffffffffff811115614198576141976135c4565b5b6141a28254613ec1565b6141ad8282856140e9565b600060209050601f8311600181146141e057600084156141ce578287015190505b6141d8858261415a565b865550614240565b601f1984166141ee86613fca565b60005b82811015614216578489015182556001820191506020850194506020810190506141f1565b86831015614233578489015161422f601f89168261413c565b8355505b6001600288020188555050505b505050505050565b600060408201905061425d60008301856132fd565b818103602083015261426f818461346f565b90509392505050565b600081905092915050565b60008190508160005260206000209050919050565b600081546142a581613ec1565b6142af8186614278565b945060018216600081146142ca57600181146142df57614312565b60ff1983168652811515820286019350614312565b6142e885614283565b60005b8381101561430a578154818901526001820191506020810190506142eb565b838801955050505b50505092915050565b60006143278284614298565b915081905092915050565b7f5461736b20616c7265616479207265736f6c7665640000000000000000000000600082015250565b600061436860158361345e565b915061437382614332565b602082019050919050565b600060208201905081810360008301526143978161435b565b9050919050565b7f4e487b7100000000000000000000000000000000000000000000000000000000600052601160045260246000fd5b60006143d882613268565b91506143e383613268565b92508282019050808211156143fb576143fa61439e565b5b92915050565b7f566f74696e6720706572696f64206e6f7420656e646564000000000000000000600082015250565b600061443760178361345e565b915061444282614401565b602082019050919050565b600060208201905081810360008301526144668161442a565b9050919050565b600061447882613268565b915061448383613268565b925082820261449181613268565b915082820484148315176144a8576144a761439e565b5b5092915050565b7f4e487b7100000000000000000000000000000000000000000000000000000000600052601260045260246000fd5b60006144e982613268565b91506144f483613268565b925082614504576145036144af565b5b828204905092915050565b600061451a82613268565b915061452583613268565b925082820390508181111561453d5761453c61439e565b5b92915050565b50565b6000614553600083614278565b915061455e82614543565b600082019050919050565b600061457482614546565b9150819050919050565b7f4661696c656420746f2073656e642066756e647320746f204e474f0000000000600082015250565b60006145b4601b8361345e565b91506145bf8261457e565b602082019050919050565b600060208201905081810360008301526145e3816145a7565b9050919050565b7f4e487b7100000000000000000000000000000000000000000000000000000000600052603260045260246000fd5b7f526566756e64206661696c656400000000000000000000000000000000000000600082015250565b600061464f600d8361345e565b915061465a82614619565b602082019050919050565b6000602082019050818103600083015261467e81614642565b9050919050565b6000815461469281613ec1565b61469c818661345e565b945060018216600081146146b757600181146146cd57614700565b60ff198316865281151560200286019350614700565b6146d685613fca565b60005b838110156146f8578154818901526001820191506020810190506146d9565b808801955050505b50505092915050565b600060408201905061471e60008301856134a8565b81810360208301526147308184614685565b90509392505050565b7f4e474f206e6f7420726567697374657265640000000000000000000000000000600082015250565b600061476f60128361345e565b915061477a82614739565b602082019050919050565b6000602082019050818103600083015261479e81614762565b9050919050565b60006147b082613268565b91507fffffffffffffffffffffffffffffffffffffffffffffffffffffffffffffffff82036147e2576147e161439e565b5b600182019050919050565b600060408201905061480260008301856134a8565b61480f60208301846132fd565b9392505050565b7f4e6f7420616e204e474f206f7220616c72656164792077697468647261776e00600082015250565b600061484c601f8361345e565b915061485782614816565b602082019050919050565b6000602082019050818103600083015261487b8161483f565b9050919050565b7f43616e6e6f7420776974686472617720776974682070656e64696e672074617360008201527f6b73000000000000000000000000000000000000000000000000000000000000602082015250565b60006148de60228361345e565b91506148e982614882565b604082019050919050565b6000602082019050818103600083015261490d816148d1565b9050919050565b7f5769746864726177616c206661696c6564000000000000000000000000000000600082015250565b600061494a60118361345e565b915061495582614914565b602082019050919050565b600060208201905081810360008301526149798161493d565b9050919050565b600060408201905061499560008301856132fd565b6149a260208301846134a8565b9392505050565b7f446964206e6f7420766f7465206f6e207461736b000000000000000000000000600082015250565b60006149df60148361345e565b91506149ea826149a9565b602082019050919050565b60006020820190508181036000830152614a0e816149d2565b9050919050565b7f5461736b207374696c6c2070656e64696e670000000000000000000000000000600082015250565b6000614a4b60128361345e565b9150614a5682614a15565b602082019050919050565b60006020820190508181036000830152614a7a81614a3e565b9050919050565b7f52657761726420636c61696d206661696c656400000000000000000000000000600082015250565b6000614ab760138361345e565b9150614ac282614a81565b602082019050919050565b60006020820190508181036000830152614ae681614aaa565b9050919050565b7f4e6f74206120766f746572000000000000000000000000000000000000000000600082015250565b6000614b23600b8361345e565b9150614b2e82614aed565b602082019050919050565b60006020820190508181036000830152614b5281614b16565b9050919050565b7f416c726561647920766f74656400000000000000000000000000000000000000600082015250565b6000614b8f600d8361345e565b9150614b9a82614b59565b602082019050919050565b60006020820190508181036000830152614bbe81614b82565b9050919050565b7f5461736b206e6f742070656e64696e6700000000000000000000000000000000600082015250565b6000614bfb60108361345e565b9150614c0682614bc5565b602082019050919050565b60006020820190508181036000830152614c2a81614bee565b9050919050565b7f566f74696e6720706572696f6420656e64656400000000000000000000000000600082015250565b6000614c6760138361345e565b9150614c7282614c31565b602082019050919050565b60006020820190508181036000830152614c9681614c5a565b9050919050565b6000606082019050614cb260008301866134a8565b614cbf60208301856132fd565b614ccc60408301846137df565b949350505050565b7f416c7265616479206120766f7465720000000000000000000000000000000000600082015250565b6000614d0a600f8361345e565b9150614d1582614cd4565b602082019050919050565b60006020820190508181036000830152614d3981614cfd565b9050919050565b7f4d75737420646f6e617465204554480000000000000000000000000000000000600082015250565b6000614d76600f8361345e565b9150614d8182614d40565b602082019050919050565b60006020820190508181036000830152614da581614d69565b9050919050565b6000608082019050614dc160008301876134a8565b614dce60208301866132fd565b614ddb60408301856134a8565b614de860608301846134a8565b9594505050505056fea2646970667358221220047461fb08e5fdd2248cbbf24f3eaafe0ecaaa93e909a8384726d9802d00bfd164736f6c634300081c0033",
  "devdoc": {
    "kind": "dev",
    "methods": {},
    "version": 1
  },
  "userdoc": {
    "kind": "user",
    "methods": {},
    "version": 1
  },
  "storageLayout": {
    "storage": [
      {
        "astId": 3,
        "contract": "contracts/CryptoDonationPlatform.sol:NGOFunding",
        "label": "owner",
        "offset": 0,
        "slot": "0",
        "type": "t_address"
      },
      {
        "astId": 66,
        "contract": "contracts/CryptoDonationPlatform.sol:NGOFunding",
        "label": "ngos",
        "offset": 0,
        "slot": "1",
        "type": "t_mapping(t_address,t_struct(NGO)25_storage)"
      },
      {
        "astId": 71,
        "contract": "contracts/CryptoDonationPlatform.sol:NGOFunding",
        "label": "voters",
        "offset": 0,
        "slot": "2",
        "type": "t_mapping(t_address,t_struct(Voter)32_storage)"
      },
      {
        "astId": 76,
        "contract": "contracts/CryptoDonationPlatform.sol:NGOFunding",
        "label": "tasks",
        "offset": 0,
        "slot": "3",
        "type": "t_mapping(t_uint256,t_struct(Task)54_storage)"
      },
      {
        "astId": 82,
        "contract": "contracts/CryptoDonationPlatform.sol:NGOFunding",
        "label": "taskDonations",
        "offset": 0,
        "slot": "4",
        "type": "t_mapping(t_uint256,t_array(t_struct(Donation)61_storage)dyn_storage)"
      },
      {
        "astId": 84,
        "contract": "contracts/CryptoDonationPlatform.sol:NGOFunding",
        "label": "taskCounter",
        "offset": 0,
        "slot": "5",
        "type": "t_uint256"
      },
      {
        "astId": 87,
        "contract": "contracts/CryptoDonationPlatform.sol:NGOFunding",
        "label": "ngoList",
        "offset": 0,
        "slot": "6",
        "type": "t_array(t_address)dyn_storage"
      }
    ],
    "types": {
      "t_address": {
        "encoding": "inplace",
        "label": "address",
        "numberOfBytes": "20"
      },
      "t_array(t_address)dyn_storage": {
        "base": "t_address",
        "encoding": "dynamic_array",
        "label": "address[]",
        "numberOfBytes": "32"
      },
      "t_array(t_string_storage)dyn_storage": {
        "base": "t_string_storage",
        "encoding": "dynamic_array",
        "label": "string[]",
        "numberOfBytes": "32"
      },
      "t_array(t_struct(Donation)61_storage)dyn_storage": {
        "base": "t_struct(Donation)61_storage",
        "encoding": "dynamic_array",
        "label": "struct NGOFunding.Donation[]",
        "numberOfBytes": "32"
      },
      "t_array(t_uint256)dyn_storage": {
        "base": "t_uint256",
        "encoding": "dynamic_array",
        "label": "uint256[]",
        "numberOfBytes": "32"
      },
      "t_bool": {
        "encoding": "inplace",
        "label": "bool",
        "numberOfBytes": "1"
      },
      "t_mapping(t_address,t_bool)": {
        "encoding": "mapping",
        "key": "t_address",
        "label": "mapping(address => bool)",
        "numberOfBytes": "32",
        "value": "t_bool"
      },
      "t_mapping(t_address,t_struct(NGO)25_storage)": {
        "encoding": "mapping",
        "key": "t_address",
        "label": "mapping(address => struct NGOFunding.NGO)",
        "numberOfBytes": "32",
        "value": "t_struct(NGO)25_storage"
      },
      "t_mapping(t_address,t_struct(Voter)32_storage)": {
        "encoding": "mapping",
        "key": "t_address",
        "label": "mapping(address => struct NGOFunding.Voter)",
        "numberOfBytes": "32",
        "value": "t_struct(Voter)32_storage"
      },
      "t_mapping(t_uint256,t_array(t_struct(Donation)61_storage)dyn_storage)": {
        "encoding": "mapping",
        "key": "t_uint256",
        "label": "mapping(uint256 => struct NGOFunding.Donation[])",
        "numberOfBytes": "32",
        "value": "t_array(t_struct(Donation)61_storage)dyn_storage"
      },
      "t_mapping(t_uint256,t_bool)": {
        "encoding": "mapping",
        "key": "t_uint256",
        "label": "mapping(uint256 => bool)",
        "numberOfBytes": "32",
        "value": "t_bool"
      },
      "t_mapping(t_uint256,t_struct(Task)54_storage)": {
        "encoding": "mapping",
        "key": "t_uint256",
        "label": "mapping(uint256 => struct NGOFunding.Task)",
        "numberOfBytes": "32",
        "value": "t_struct(Task)54_storage"
      },
      "t_string_storage": {
        "encoding": "bytes",
        "label": "string",
        "numberOfBytes": "32"
      },
      "t_struct(Donation)61_storage": {
        "encoding": "inplace",
        "label": "struct NGOFunding.Donation",
        "members": [
          {
            "astId": 56,
            "contract": "contracts/CryptoDonationPlatform.sol:NGOFunding",
            "label": "donor",
            "offset": 0,
            "slot": "0",
            "type": "t_address"
          },
          {
            "astId": 58,
            "contract": "contracts/CryptoDonationPlatform.sol:NGOFunding",
            "label": "amount",
            "offset": 0,
            "slot": "1",
            "type": "t_uint256"
          },
          {
            "astId": 60,
            "contract": "contracts/CryptoDonationPlatform.sol:NGOFunding",
            "label": "timestamp",
            "offset": 0,
            "slot": "2",
            "type": "t_uint256"
          }
        ],
        "numberOfBytes": "96"
      },
      "t_struct(NGO)25_storage": {
        "encoding": "inplace",
        "label": "struct NGOFunding.NGO",
        "members": [
          {
            "astId": 17,
            "contract": "contracts/CryptoDonationPlatform.sol:NGOFunding",
            "label": "name",
            "offset": 0,
            "slot": "0",
            "type": "t_string_storage"
          },
          {
            "astId": 19,
            "contract": "contracts/CryptoDonationPlatform.sol:NGOFunding",
            "label": "description",
            "offset": 0,
            "slot": "1",
            "type": "t_string_storage"
          },
          {
            "astId": 21,
            "contract": "contracts/CryptoDonationPlatform.sol:NGOFunding",
            "label": "stakedEth",
            "offset": 0,
            "slot": "2",
            "type": "t_uint256"
          },
          {
            "astId": 24,
            "contract": "contracts/CryptoDonationPlatform.sol:NGOFunding",
            "label": "taskIds",
            "offset": 0,
            "slot": "3",
            "type": "t_array(t_uint256)dyn_storage"
          }
        ],
        "numberOfBytes": "128"
      },
      "t_struct(Task)54_storage": {
        "encoding": "inplace",
        "label": "struct NGOFunding.Task",
        "members": [
          {
            "astId": 34,
            "contract": "contracts/CryptoDonationPlatform.sol:NGOFunding",
            "label": "ngo",
            "offset": 0,
            "slot": "0",
            "type": "t_address"
          },
          {
            "astId": 37,
            "contract": "contracts/CryptoDonationPlatform.sol:NGOFunding",
            "label": "proofLinks",
            "offset": 0,
            "slot": "1",
            "type": "t_array(t_string_storage)dyn_storage"
          },
          {
            "astId": 39,
            "contract": "contracts/CryptoDonationPlatform.sol:NGOFunding",
            "label": "status",
            "offset": 0,
            "slot": "2",
            "type": "t_string_storage"
          },
          {
            "astId": 41,
            "contract": "contracts/CryptoDonationPlatform.sol:NGOFunding",
            "label": "yesVotes",
            "offset": 0,
            "slot": "3",
            "type": "t_uint256"
          },
          {
            "astId": 43,
            "contract": "contracts/CryptoDonationPlatform.sol:NGOFunding",
            "label": "noVotes",
            "offset": 0,
            "slot": "4",
            "type": "t_uint256"
          },
          {
            "astId": 45,
            "contract": "contracts/CryptoDonationPlatform.sol:NGOFunding",
            "label": "totalFunds",
            "offset": 0,
            "slot": "5",
            "type": "t_uint256"
          },
          {
            "astId": 47,
            "contract": "contracts/CryptoDonationPlatform.sol:NGOFunding",
            "label": "startTime",
            "offset": 0,
            "slot": "6",
            "type": "t_uint256"
          },
          {
            "astId": 51,
            "contract": "contracts/CryptoDonationPlatform.sol:NGOFunding",
            "label": "voters",
            "offset": 0,
            "slot": "7",
            "type": "t_mapping(t_address,t_bool)"
          },
          {
            "astId": 53,
            "contract": "contracts/CryptoDonationPlatform.sol:NGOFunding",
            "label": "voterCount",
            "offset": 0,
            "slot": "8",
            "type": "t_uint256"
          }
        ],
        "numberOfBytes": "288"
      },
      "t_struct(Voter)32_storage": {
        "encoding": "inplace",
        "label": "struct NGOFunding.Voter",
        "members": [
          {
            "astId": 27,
            "contract": "contracts/CryptoDonationPlatform.sol:NGOFunding",
            "label": "stakedEth",
            "offset": 0,
            "slot": "0",
            "type": "t_uint256"
          },
          {
            "astId": 31,
            "contract": "contracts/CryptoDonationPlatform.sol:NGOFunding",
            "label": "hasVoted",
            "offset": 0,
            "slot": "1",
            "type": "t_mapping(t_uint256,t_bool)"
          }
        ],
        "numberOfBytes": "64"
      },
      "t_uint256": {
        "encoding": "inplace",
        "label": "uint256",
        "numberOfBytes": "32"
      }
    }
  }
}